:100000000C9444030C9461030C9461030C94190642
:100010000C9461030C9461030C9461030C946103D0
:100020000C9461030C94E41A0C9461030C94191958
:100030000C9461030C9407190C941E180C94610322
:100040000C9461030C9461030C9461030C946103A0
:100050000C9461030C947B050C9461030C94610374
:100060000C9459150C94610305A84CCDB2D44EB92B
:100070003836A9020C50B9918688083CA6AAAA2A4B
:10008000BE000000803F200000000037000000009C
:100090006300030000AA1F0A1F0AA2151F15087992
:1000A000041300008A1512080023000000004E11FE
:1000B000000000510E0000006A040A0000640E04F3
:1000C000000050080000006404040000300000003C
:1000D0000078040300007F111F0000721F10000051
:1000E0007D1517000075151F000067041F000077BD
:1000F000151D00007F151D0000611D0300007F1508
:100100001F000077151F00002A00000000500A00A1
:100110000000440A0000006A0A0A00004A040000C5
:100120000061150200008815190E007E051E0000F2
:100130007F150A00006E111100007F110E00005F94
:10014000150000005F050000006E111D00007F0417
:100150001F00003F00000000500F0000007F041B44
:1001600000005F10000000BF0204021F9F02041F76
:10017000006E110E00007F0502000082151D1200A6
:100180007F051A00007215090000611F0100007F41
:10019000101F00006F100F0000AF100C100F7B0439
:1001A0001B0000631C03000079151300005F1100A1
:1001B00000006304180000511F00000062010200EB
:1001C0000070101000004102000000641F110000C8
:1001D0003F00000000711F04000084150E0400841D
:1001E0000E150400000000000000005F0000000782
:1001F000000700147F147F14242A7F2A1223130877
:10020000646236495522500005030000001C22415B
:10021000000041221C00082A1C2A0808083E080881
:100220000050300000080808080800606000002046
:10023000100804023E5149453E00427F40004261A1
:100240005149462141454B311814127F102745452D
:1002500045393C4A49493001710905033649494944
:1002600036064949291E0036360000005636000081
:10027000000814224114141414144122140800021A
:1002800001510906324979413E7E1111117E7F49A3
:100290004949363E414141227F4141221C7F494923
:1002A00049417F090901013E414151327F08080857
:1002B0007F00417F41002040413F017F08142241DF
:1002C0007F404040407F0204027F7F0408107F3E51
:1002D0004141413E7F090909063E4151215E7F09A6
:1002E000192946464949493101017F01013F4040F2
:1002F000403F1F2040201F7F2018207F63140814D8
:10030000630304780403615149454300007F414180
:10031000020408102041417F000004020102044051
:1003200040404040000102040020545454787F486B
:100330004444383844444420384444487F38545472
:100340005418087E090102081454543C7F08040420
:100350007800447D40002040443D00007F10284448
:1003600000417F40007C041804787C08040478383D
:10037000444444387C14141408081414187C7C0871
:100380000404084854545420043F4440203C404056
:10039000207C1C2040201C3C4030403C442810283D
:1003A000440C5050503C4464544C440008364100C6
:1003B00000007F0000004136080008082A1C0808D9
:1003C0001C2A08084932433A204255535F4552528D
:1003D0004F520D0A004932433A204E4F5F494E4674
:1003E0004F0D0A004932433A2053542D3E444154A4
:1003F000415F4E41434B206F72204C4153545F4448
:100400004154410D0A004932433A2053542D3E4491
:100410004154415F41434B0D0A004932433A205356
:10042000542D3E534C415F41434B0D0A004932432A
:100430003A2053522D3E53525F53544F500D0A00F1
:100440004932433A2053522D3E444154415F4E417C
:10045000434B0D0A004932433A2053522D3E44414A
:1004600054415F41434B0D0A004932433A205352F5
:100470002D3E534C415F41434B0D0A004932433AF4
:10048000204D522D3E534C415F41434B0D0A0049D4
:1004900032433A204D522D3E444154415F41434B3B
:1004A0000D0A004932433A204D542D3E4152425FDD
:1004B0004C4F53540D0A004932433A204D54522DAB
:1004C0003E534C415F4E41434B206F72204D542DA3
:1004D0003E444154415F4E41434B0D0A0049324373
:1004E0003A204D522D3E444154415F4E41434B0D05
:1004F0000A004932433A204D542D3E534C415F414E
:10050000434B206F7220444154415F41434B0D0ADD
:10051000004932433A204D2D3E53544152540D0A66
:10052000005A100105010000000800090F0A1E0B07
:100530002D000E0E1D0E1D2B0F3A0E2B0F480A52CA
:100540000F610A520F000E0E1D0E1D6B0E790D6B02
:100550000E861003030303030303030303060303CD
:100560000603030303060303030303030303030355
:100570000303030303030303030303030306060345
:100580000303030303030303030303030306030338
:100590000303030303030303030306060303030325
:1005A000060303060C03030303030303030303030C
:1005B0000303030603030303030303030C0C0303F6
:1005C00003030603030303030303030604040404F1
:1005D00004040303030303030603030303040404E3
:1005E00003030303030C0C0C0C9292009200749210
:1005F00000AE000057000074000057004900006280
:10060000006E006862005792AEC4009BAE0092007C
:1006100074826E0000AEA49B8A0092005C6274003B
:1006200062748200AEA49B8A009200E800E8E800B1
:1006300000008A00008200740000007474007400DE
:100640007482009274006257000074740074007425
:100650008292000092740057005C00629B009B62D3
:1006600000006EC4C4C4AE9B927400625700006E5A
:100670009B009B9B9282744900493A000000000550
:10068000020301010302050011241FBECFEFD8E0D1
:10069000DEBFCDBF14E0A0E0B1E0E8E0F0E602C0CC
:1006A00005900D92A43BB107D9F725E0A4EBB4E087
:1006B00001C01D92A73EB207E1F70E94242C0C94C2
:1006C00002300C9400008091C3048093C604809192
:1006D000C2048093C5048091C1048093C4048091B6
:1006E000BD048093C0048091BC048093BF048091BA
:1006F000BB048093BE0408959091B404E09100017E
:10070000F091010128E0929FE00DF11D1124068077
:10071000F781E02D309719F0099581E0089580E088
:1007200008951F93CF93DF93182F8091B404C09145
:100730000001D091010198E0899FC00DD11D1124C5
:100740008091AC058093B7048091AD058093BA0485
:100750008091BA04813069F58091E1058093C304EA
:100760008091E2058093C2048091E3058093C104E7
:100770008091E4058093BD048091E5058093BC04DD
:100780008091E6058093BB049091BD048091C004E4
:1007900098130CC09091BC048091BF04981306C0BC
:1007A0009091BB048091BE04981719F081E080936A
:1007B000B90488818823D1F1133039F51092B80437
:1007C0008091A605813059F49091D305913089F03C
:1007D0008093D3058093B8041092C7040AC0809117
:1007E000D305823031F082E08093D30581E080939D
:1007F000B804EC81FD8109958091BA04813011F42F
:100800000E9463031092B50411C0113031F41092AC
:10081000D3058091D0050E94D9170E94630381E01F
:100820008093B504EA81FB81812F09958091BA04F8
:10083000813031F41092BA041092B9041092AD05CF
:10084000DF91CF911F9108958091B4048F5F8093C1
:10085000B4048091B404893010F01092B4048091F3
:10086000B404E0910001F091010198E0899FE00D4E
:10087000F11D112481810895FB016AE00E94692F16
:10088000805D8083905D918312820895EF92FF9244
:100890000F931F93CF93DF9300D000D0CDB7DEB777
:1008A000182FF62E0091D805E091BC04F0E0EE0F71
:1008B000FF1FEA5AFE4F2081318140E0812F0E94C4
:1008C0003A12E82E80E289838091BD04BE016E5FFA
:1008D0007F4F0E943C040091D8059E012F5F3F4F3F
:1008E00040E06F2D8E2D810F0E943A128E0D8731C0
:1008F00048F40091D00547E1481B25E06F2D810F9A
:100900000E94DA0F0F900F900F900F90DF91CF9110
:100910001F910F91FF90EF900895CF92EF92FF9269
:100920000F931F93CF93DF9300D000D000D0CDB7AB
:10093000DEB7182FF62EE42E82E048130EC0809109
:10094000B904813029F08091B504813009F06EC07E
:100950006F2D812F0E94460469C08091B8048130B8
:1009600029F08091B904813009F042C08091D3050B
:10097000813059F58091B8048130D1F58091D1054D
:10098000BE016F5F7F4F0E943C048AE38B8380919E
:10099000D705BE016C5F7F4F0E943C040091D805D3
:1009A0009E012F5F3F4F40E06F2D812F0E943A1232
:1009B00091E0E9121DC00091D00547E1481B25E0F8
:1009C0006F2D810F0E94DA0F13C00091D00527E030
:1009D00043E16FEF6F0D8FEF810F0E94DA0F1092DE
:1009E000C70481E0E81204C06F2D812F0E944604E5
:1009F0008091B704813031F48091B60483FB88275D
:100A000080F901C080E09091C704891779F0809344
:100A1000C704C090D0056FEF6F0D94E0E92E02E09F
:100A200027E043E18FEF810F0E94D20D26960FB68B
:100A3000F894DEBF0FBECDBFDF91CF911F910F9114
:100A4000FF90EF90CF9008950F930091D8052FE37A
:100A500032E041E06EE081E20E943A120091D80556
:100A60002AE432E041E06EE182E10E943A122FEF87
:100A70008DE399E4215080409040E1F700C00000F0
:100A800064E686EA9EE00E94A31964E680EA9FE09D
:100A90000F910C94A31980917A00877F80937A003C
:100AA00080917A00806480937A0080917A0084FF3C
:100AB000FCCF80917800909179000895EAE7F0E00A
:100AC000808188648083089526982E9A81E080939F
:100AD0006800EBE6F0E080818064808382E08093B0
:100AE0007C0010927B00EAE7F0E08FE88083808151
:100AF0008064808308951F920F920FB60F92112485
:100B00002F933F934F935F936F937F938F939F9315
:100B1000AF93BF93EF93FF93789480917800909177
:100B20007900803E22E0920770F01092CC0410927F
:100B3000CE048091C904813021F48093C8041092BE
:100B4000C90484E163C0833622E0920770F180918A
:100B5000CE0482FD5AC08FE19EE40197F1F700C0F8
:100B600000000E944B05825692408E37910508F096
:100B70004CC08AEF8093CA048091CA04882369F02C
:100B80000E944B05825692408E379105A8F3109231
:100B9000CE0484E08093CD0438C01092CD0484E06C
:100BA0008093CE048093CC0430C08F309140B0F05D
:100BB0008091CE0481FD10C08FE19EE40197F1F792
:100BC00000C000000E944B058E5091408535914039
:100BD000E0F482E08093CD0482E013C08091CE04E3
:100BE00080FD0EC08FE19EE40197F1F700C0000088
:100BF0000E944B058F30914040F481E08093CD04FA
:100C000081E08093CE041092CC0482E08093CB04E8
:100C1000FF91EF91BF91AF919F918F917F916F91D4
:100C20005F914F913F912F910F900FBE0F901F90AA
:100C300018951F920F920FB60F92112478940F906F
:100C40000FBE0F901F9018959091C804913021F419
:100C50001092D2041092C8049091CC04992369F0A8
:100C600091E09093C9049091D2049A3020F49F5F50
:100C70009093D20404C08E5F03C01092D2048F5FA1
:100C80000E94692F892F08950F931F93CF93DF93AD
:100C90008C01EB0166E080E00E948517C8010E948C
:100CA0006714209759F067E080E00E948517CE0115
:100CB000DF91CF911F910F910C946714DF91CF9129
:100CC0001F910F9108950F931F93CF93DF938C0182
:100CD000EB0166E080E00E9485178DEA92E00E94B9
:100CE0006714C8010E94671467E080E00E948517BE
:100CF00080EC92E00E946714CE010E9467148B8101
:100D0000811108C08EE393E0DF91CF911F910F9185
:100D10000C946714DF91CF911F910F9108950F9359
:100D20001F93CF93DF93C82F062F142FD22F63E08A
:100D300088E00E94851782ED92E00E9467144C2F94
:100D4000612F802F0E94E819A82FB0E0AA0FBB1FC7
:100D5000A65BBE4F8D919C910E946714DC3019F404
:100D60006091D00502C06091D805E02FF0E0EE0F51
:100D7000FF1FEA5AFE4F808191810E94571480E242
:100D80000E946B14812FDD3019F40E944F1402C0B1
:100D90000E9453148CE20E946B1484E1DE3049F40B
:100DA0000E944F148C2FDF91CF911F910F910C94C3
:100DB0004F140E9453148C2FDF91CF911F910F91EC
:100DC0000C9453140F93CF93C82F0091D80521E0B2
:100DD00047E0682F80E00E94DA0F0091D8056FEF9E
:100DE0006C0F23E041E085E00E94C0130091D8051C
:100DF0006EEF6C0F25E041E084E00E94C013CF91BC
:100E00000F9108958091CC04882349F02FE789EA57
:100E100093E0215080409040E1F700C00000089529
:100E20008091CD048093D1041092CD0480FD16C032
:100E300081FF03C01092D20406C0811104C08091CA
:100E4000CC04882321F08AE08093CF0405C09091E0
:100E5000CF0481E0992319F080E0089581E008959E
:100E6000CF93C82F64E088E00E94851788ED92E058
:100E70000E9467148091D005811108C08EE393E031
:100E80000E9467146C2F86EE92E003C06C2F8DEEEB
:100E900092E0CF910C94571462E080E50E94851790
:100EA000809174010E9453148AE30E946B14809114
:100EB00073010E9453148AE30E946B1480917201A3
:100EC0000C945314AF92BF92CF92EF920F93CF93A3
:100ED000DF93EC015B0181E08093D00460E080E06F
:100EE0000E94851785EF92E00E946714C090D0059C
:100EF000E12C00E028E042E060E08EE70E94D20DA5
:100F000061E088E00E9485178BE093E00E946714FF
:100F100062E088E00E94851780E293E00E946714F7
:100F20000E944C0740917501609176018091770194
:100F300027E00E948F068091D8050E94300765E067
:100F400088E00E9485178DE293E00E9467148091EB
:100F5000B4000E945314B501CE010E944406C09013
:100F6000D00520E142E060E38EE70E94D20DC09000
:100F7000D00528E248E068E080E00E94D20D10929F
:100F8000D004DF91CF910F91EF90CF90BF90AF90B1
:100F90000895AF92BF92CF92DF92EF92FF920F939C
:100FA0001F93CF93DF9300D000D0CDB7DEB781E0A1
:100FB0008093D0048091D0050E94D9171092D0045C
:100FC00060E473E086E593E00E9462078AE0809324
:100FD000CF041092CD041092D2048091A5058530E3
:100FE00009F4A3C1D8F4882399F1843009F09BC394
:100FF00087E08093A5051091750100917601E0903E
:10100000770181E08093D0048BE10E94E206109288
:10101000D00467E0F62EDD24D39424C2873009F48F
:10102000C6C28F3009F07FC388E08093A50581E0B8
:101030008093D00460E070E08FE993E00E94440662
:101040008BE20E94E2061092D00418E001E022C375
:1010500085E08093A50581E08093D0048BE00E9419
:10106000E2061092D0040E941007813009F457C3A1
:101070008091D10481FFF7CF81E08093D0047AE0A2
:10108000D72EE2E1BE2EF2E0AF2ED092CF04109226
:10109000D2048091A5058131E9F048F4853081F0D2
:1010A000803121F581E18093A50581E01CC082316A
:1010B000B1F08331D9F484E18093A50584E013C0B5
:1010C00080E18093A5058091D0050E94D9171092E8
:1010D000D30410C0B092A505A092D3040BC083E145
:1010E0008093A50583E08093D30404C085E08093BA
:1010F000A50515C3F090AB0560E080E00E94851760
:101100008CE693E00E94671411E0612F88E00E9452
:1011100085178DE793E00E946714812F0E94531476
:1011200084E893E00E946714AE014F5F5F4FBE01F9
:101130006E5F7F4F8FEF810F0E9457198A810E9447
:1011400053148AE30E946B1489810E9453141F5F19
:101150001530D9F665E088E00E9485178CE893E0A9
:101160000E9467148091AB058F5F0E945314809199
:10117000A50560E473E0843119F086E593E002C0D0
:101180008FE993E00E944406C090D005E12C00E076
:1011900028E247E068E080E00E94D20D8091D3040D
:1011A000880F880F880F855F0E94E2068091D30424
:1011B000843041F0AE014D5F5F4FBE016C5F7F4FE9
:1011C0000E94571915E00E941007813009F4A8C049
:1011D0008091D10481FF53C01530D9F48091D3049C
:1011E000843079F465E084E70E94851781E08F0DF3
:1011F0000E944F1465EB73E0CB010E94630614E17B
:101200003EC069EB73E08EEB93E00E94630615E647
:1012100036C0153639F462EC73E0CB010E946306E8
:1012200016E62DC0143181F465E084E70E9485172D
:1012300081E08F0D0E9453146F2D87E090E00E9493
:10124000F42FF092AB0506C04B816C818091D304E2
:101250000E947C198091A50560E473E0843119F047
:1012600086E593E002C08FE993E00E94440647EDD3
:1012700055E061ED75E08F2D0E94571915E08091C2
:10128000D10482FD04C08091CC04882309F114317B
:1012900071F4F39483E08F1508F4F12C65E084E792
:1012A0000E94851781E08F0D0E944F1411C01536E2
:1012B00041F48C818F5F8C838C81883148F01C8253
:1012C00007C0163629F48B816CE30E9424068B83B9
:1012D0008091D104811104C08091CC048823E9F06D
:1012E0006091D3046430C9F00B81EC806F5F82E6BB
:1012F0000E9485178E2D153619F40E944F1402C0D6
:101300000E9453148AE30E946B14802F163619F43E
:101310000E944F1402C00E9453140E94020753CF30
:101320008091CF048111B1CE14C084E08093A505D3
:1013300000917401F0907301E090720181E080935C
:10134000D00483E10E94E20614E00E94100781307D
:1013500019F41092D004E3C18091D10481FF2BC015
:10136000143041F469EB73E08EEB93E00E94630666
:1013700015E621C0153639F462EC73E0CB010E940A
:10138000630616E618C0163639F466EC73E0CB0136
:101390000E94630617E60FC060E473E086E593E001
:1013A0000E94440600937401F0927301E09272016E
:1013B0000E94A71B14E0D090D104D2FC04C08091FD
:1013C000CC048823B1F0153629F40F5F083188F07A
:1013D00000E00FC0163631F46CE38F2D0E94240616
:1013E000F82E07C0173629F46CE38E2D0E942406D0
:1013F000E82ED11004C08091CC04882311F162E062
:1014000080E50E948517802F153619F40E944F142D
:1014100002C00E9453148AE30E946B148F2D16366B
:1014200019F40E944F1402C00E9453148AE30E94D0
:101430006B148E2D173619F40E944F1402C00E94AF
:1014400053140E94020781CF8091D10481FD0FC007
:101450008091D10482FD48C08091CC04811144C0A8
:101460000E9402070E941007813071F758C1D09284
:10147000D00487E0F81208C06AEC73E0CB010E9448
:1014800063065CE0F52E27C08CE0F81208C06EEC15
:1014900073E0CB010E9463064DE0F42E1CC08DE08A
:1014A000F81209C062ED73E087ED93E00E946306D5
:1014B0003EE0F32E10C060E473E086E593E00E9406
:1014C0004406E092770100937601109375010E9423
:1014D000A71B27E0F22E2F2D412F602F8E2D0E946B
:1014E0008F061092D004B4CF8EE0F81211C064E6DB
:1014F0008E2D0E942406E82E90E00E94291A811168
:101500004BC0023009F048C01D3108F445C03FC04F
:101510008CE0F8121EC081E0800F8D30B0F5823073
:1015200069F41E3108F01DE18E2D90E00E94291A09
:1015300002E0811131C01D3151F12EC0843029F0FB
:10154000863019F00D7F083021F51F3110F11EE1B2
:1015500020C08DE0F81220C01F5F1032E0F402308E
:1015600059F41E31C0F48E2D90E00E94291A811189
:1015700013C01D3181F010C0802F8D7F843011F099
:10158000893051F41F3139F007C001E005C01CE17A
:1015900003C0082F01C011E0D092D0042F2D412F9D
:1015A000602F8E2D0E948F061092D00459CF8FE0AD
:1015B0008093A50581E08093D00483E20E94E20637
:1015C0001092D0041FE001E00E941007813029F43E
:1015D0006091D00586E090E065C08091D10481FFE4
:1015E0001DC00093D0041F3061F48091D0050E948B
:1015F00030076BED73E081EF93E00E9444061AE63A
:101600000BC08091D8050E94300760E473E086E546
:1016100093E00E9444061FE01092D0048091D10410
:1016200082FD04C08091CC048823D9F01A36C9F415
:101630008091D0059091D8059093D0058093D805DE
:101640006BED73E081EF93E00E9462070093D0049A
:1016500083E20E94E2068091D0050E94300710923A
:10166000D0040E940207B0CF8091D10481FD1DC03B
:101670008091D10482FD33C08091CC0481112FC0B0
:101680008091D104811139C08091CC04811135C081
:101690000E9402070E941007813031F76091B40068
:1016A00081E090E00E94F42F3AC00093D00465E0FE
:1016B00084E70E948517183041F46BED73E081EFE9
:1016C00093E00E94440619E607C060E473E08FE9E6
:1016D00093E00E94440618E01092D004C9CF193656
:1016E00079F68091B4008F5F8093B4008091B4004C
:1016F000813130F21092B400C3CF0093D00465E082
:1017000084E70E9485178091B400193619F40E946D
:101710004F1402C00E9453141092D004B9CF80918C
:10172000CF0481114DCC1092A5050F900F900F9012
:101730000F90DF91CF911F910F91FF90EF90DF906D
:10174000CF90BF90AF900895E82FF0E0E752FB4FA5
:10175000677081E090E0062E01C0880F0A94EAF7D6
:101760009081982B908308952091D7049091D6046E
:10177000291789F09091D804E091D404F091D50410
:10178000911105C0EA57FF4FE491EF7105C0EC518C
:10179000FE4FE49101C0E0E0811101C0E0958E2F81
:1017A0000895DF92EF92FF920F931F93CF93DF93F1
:1017B000082FD42E0E94851789EDE82E84E0F82E9C
:1017C000E70110E0095D14408C2F8E198D1588F407
:1017D000882339F0C8018C0F9D1F8F739927892B9F
:1017E00011F40E9452170E94521789930E94941775
:1017F000EBCFDF91CF911F910F91FF90EF90DF9092
:1018000008959091D804282F30E091111FC09FE9CE
:10181000980F9A3120F08B3720F08AE103C080E2E4
:1018200001C080E020523109281B310945E0429F68
:10183000C001439F900D1124FC01EA57FF4FE49132
:10184000E295E695E770E093D604089545E040936D
:10185000D60420523109429FC001439F900D1124AC
:1018600008952F923F924F925F926F927F928F9244
:101870009F92AF92BF92CF92DF92EF92FF920F931F
:101880001F93CF93DF9300D000D000D0CDB7DEB749
:10189000D82EC62EA42E29830A83862F90E050E0EE
:1018A0009C01240F351F63E0359527956A95E1F774
:1018B000722E882483942981223009F0812C20E023
:1018C000E22FF0E0E75EFA4F10822F5FA216C0F71A
:1018D000841B950B23E0959587952A95E1F78B83DB
:1018E000BA2CB194BB0C83E0B80E1E821D8220E09E
:1018F00030E4632E962D9D199C835D2C550C442459
:101900004A944D0C0D819B81090F701608F4F2C0AA
:101910002A2C9B2C312C1FEFF12CE12C2E140CF4D3
:101920006FC09981992349F0933019F4FF2029F071
:101930004EC08E2D817088114AC0622D6C0D862F8D
:10194000869586958695801305C080E48E0D0E944D
:10195000A40B21E06C2D6219862F869586958695BD
:10196000801305C080E48E0D0E94A40B02C02130BC
:1019700049F48E2D8D0D811708F4182F381608F4B0
:10198000382E20E06E2D6C0D862F869586958695D7
:10199000801305C080E4820D0E94A40B21E06C2D11
:1019A0006E19862F869586958695801305C080E4EE
:1019B000820D0E94A40B02C0213049F4822D8D0DAE
:1019C000811708F4182F381608F4382E20E097FEF7
:1019D00007C0A6E09A0E8E2D880F880F980E08C0BB
:1019E000BAE09B0E8E2D8219880F880F980E2A94CC
:1019F000E394E2E0FE1611F0F39490CFF12C8ECF39
:101A00001F3F09F471C041E0430D411B602F812F3E
:101A10000E94D10B602F812F0E9485172C80210EF0
:101A2000912CE32CF12CE11AF108492D420D892D5E
:101A300090E0E816F906B4F050E0FC01E752FB4FE5
:101A40002A81DA01A752BB4F213021F49C91808179
:101A5000892B04C08C918095908189230E94A817BE
:101A60009394E3CFFD2CF3189F2C9D0CE52CE11AE9
:101A7000ED1002C0842D01C08E2D891558F041E073
:101A80004919480F602F892D0E94D10B602F892D95
:101A90000E948517362C3F18212CF12CE918F108EB
:101AA000232D2219822D90E0E816F906ECF0022F82
:101AB00010E0203499F0FC01E752FB4F9A81D801E5
:101AC000A752BB4F913021F49C918081892B04C097
:101AD0008C918095908189230E94A817F801E75284
:101AE000FB4F10822394DCCFAD81BE811196BE8363
:101AF000AD8308CF26960FB6F894DEBF0FBECDBFDC
:101B0000DF91CF911F910F91FF90EF90DF90CF90D9
:101B1000BF90AF909F908F907F906F905F904F900D
:101B20003F902F900895EF92FF920F931F93CF93C2
:101B3000DF931F92CDB7DEB7182F862F8770EE2464
:101B4000E394F12C01C0EE0C8A95EAF7062F069576
:101B500006950695602F812F49830E9485170E9464
:101B600052170E9452174981413011F4E82A02C0ED
:101B7000E094E8228E1571F0602F812F0E94851766
:101B80008E2D0F90DF91CF911F910F91FF90EF90CD
:101B90000C94A8170F90DF91CF911F910F91FF9098
:101BA000EF9008952F923F924F925F926F927F92A3
:101BB0008F929F92AF92BF92CF92DF92EF92FF925D
:101BC0000F931F93CF93DF93CDB7DEB72B970FB64D
:101BD000F894DEBF0FBECDBF982E842EB22E3E2DC0
:101BE000A62EA694A694A694462F4770242E0111E3
:101BF00017C0323039F4842F63E00E94692FF92E28
:101C0000F1942DC0333031F4842F6E2D0E94692F52
:101C1000F92E26C1313009F022C16170F62E20C1A3
:101C2000013051F5323079F4842F90E0820F911D0C
:101C300091958195910963E070E00E94972FFF24B0
:101C4000F394F80E0CC0333061F4842F90E0820FCF
:101C5000911D019763E070E00E94972FF82ED12C20
:101C600022C0313009F0FBC0FF24F394F20EF40ED1
:101C70005F2D5170F52EF4C0023009F0F0C0D82E5F
:101C8000323029F4862F90E0841B910907C033304D
:101C900009F0E8C0842F90E0861B910963E070E0B2
:101CA0000E94972FF82EF7FE02C083E0F80E712CE9
:101CB000E12C412C312CAB2DB0E0BB83AA8308E092
:101CC00010E0BEEFB30FBC83ED2DFF27E7FDF095CD
:101CD000FE83ED833B1408F0CEC0432D50E05987BE
:101CE000488721100BC04A815B8188859985481BF4
:101CF000590B4830510514F0343051F4482D6A2DF9
:101D0000892D3B870E94D10B41E049833B8501C06F
:101D100019826A2D892D3B870E948517E22DF0E0FC
:101D20006A817B8188859985681B790BA8014E1B88
:101D30005F0B3B85641775071CF42B2C231803C01D
:101D400098E09219292EAC81A23060F48D819E8199
:101D50008F0D911DF7FC9A9563E070E00E94972F1C
:101D6000782E08C0313031F48F2D8D2580FF18C0BA
:101D7000A5E5EA2EA801421951098FEF90E002C0B3
:101D8000959587954A95E2F7AC010E2E01C0440F58
:101D90000A94EAF7642E542E509469ED74E01FC043
:101DA000FAEAEF2EE7CFE42CE094CC2009F442C00D
:101DB000E8E02E1609F443C045208E2D8621482ADE
:101DC000842D3B876F837A870E94A8173B856F819C
:101DD0007A85F2E07F16A9F173946F5F7F4F862FAB
:101DE00049ED54E0841B881570F54981413011F4A8
:101DF000DB014C903323C1F13530C9F1313039F476
:101E0000B1E0CB1611F0811133C0E09431C0323013
:101E100039F4E72DFF27E7FDF095E05EFD4F08C0A0
:101E2000333009F6E72DFF27E7FDF095E35EFD4F20
:101E3000E0801EC0343009F4BBCFE094B9CF4E2C03
:101E4000BFCF712CCACFA394323019F4F394F3941A
:101E500003C0333009F4F394320C212C3BCFF12C26
:101E6000D12C25CFF12C23CFEE24EA9401C0E12C14
:101E7000CC2019F39DCF2B960FB6F894DEBF0FBE82
:101E8000CDBFDF91CF911F910F91FF90EF90DF9029
:101E9000CF90BF90AF909F908F907F906F905F900A
:101EA0004F903F902F9008958F929F92AF92BF9244
:101EB000CF92DF92EF92FF920F931F93CF93DF9316
:101EC000D82EB62EA22E902E142FD42FD195DD0F02
:101ED000DD5FF12C88248394C0E01C170CF45DC0F6
:101EE000C11709F1D7FD37C081E0881201C0FF0C8E
:101EF000212F220F2F5FC92CEA2C02E041E04F0D69
:101F00006B2D611B8D2D8C1B0E94D20DCC23D1F12A
:101F10002C2F220F2F5F41E06B2D6C1B812F8D0D1D
:101F20000E94D20D04C0CC23A1F0D7FD14C08110B3
:101F300019C0212F220F2F5FC92CEA2C02E041E0AB
:101F40004F0D6B2D611B8C2F8D0D8F190E94D20DA3
:101F500009C0D7FF17C0DA5F8C2F880F880FD80F02
:101F6000F39419C0C113F12C2C2F220F2F5F41E0E5
:101F70004F0DC92CEA2C02E06B2D6C1B8D2D811BA3
:101F80000E94D20DD65F8C2F811B880F880FD80F2F
:101F90001150F12C812CCF5FA0CFDF91CF911F91F9
:101FA0000F91FF90EF90DF90CF90BF90AF909F90F8
:101FB0008F900895CF92EF920F93C02EE12C02E004
:101FC0000E94D20D0F91EF90CF900895482F80E09E
:101FD00055E0FB012191BF01222311F141111EC0E7
:101FE0009FE9920F9A3120F02B3720F09AE103C03D
:101FF00090E201C090E030E020523109291B310904
:10200000529FF001539FF00D1124EA57FF4FE491C6
:102010008F5FE295E695E7708E0FDBCF8A5FD9CFB1
:1020200008952F923F924F925F926F927F928F927C
:102030009F92AF92BF92CF92DF92EF92FF920F9357
:102040001F93CF93DF9300D000D000D0CDB7DEB781
:10205000282EF62E0A83E42EE81A5E2DD22ED61AEA
:102060003D2DE7FCE194D7FCD19415163CF081E0BE
:10207000511101C080E0582E519402C05524539450
:1020800013163CF081E0311101C080E0882E81946C
:1020900002C088248394AD2CA6949E2C9694CF2CB9
:1020A000C694C694C6942695269526952C1927FD88
:1020B00021952F5FED1420F43D2C91E0998302C00F
:1020C0003E2C1982842F421508F4822D241608F420
:1020D000422D841738F0E42FF0E0E752FB4F1082D6
:1020E0004F5FF7CF612CB12CE22FFF27E7FDF09572
:1020F000FE83ED83262D30E0ED81FE812E173F0714
:102100000CF074C06F2D822D0E94A40B722C122D26
:10211000B31410F59981911107C09D0C9E1410F015
:102120009E18F80C250C06C0AE0CAD1410F0AD18BE
:10213000250CF80C8F2D869586958695C8120CC0B7
:10214000211608F4122D721408F4722C6F2D822DB2
:102150000E94A40BB394DCCF6C2D812F0E948517B5
:10216000412E0FEF741410F1411619F0842D8F7366
:1021700011F40E9452170E945217242D30E09A81C8
:10218000F901E752FB4F5081913011F4582B02C0F6
:10219000509558230F3F11F48513042DF901E75290
:1021A000FB4F50830E9494174394DCCF07FD18C067
:1021B0006C2D802F0E94851713C0212F30E010173F
:1021C00050F0F901E752FB4F80811B833C830E9452
:1021D000A8173C812B81F901E752FB4F10821F5F4A
:1021E000711658F7B394C80C639484CF26960FB633
:1021F000F894DEBF0FBECDBFDF91CF911F910F913D
:10220000FF90EF90DF90CF90BF90AF909F908F9016
:102210007F906F905F904F903F902F9008952F92F6
:102220003F924F925F926F927F928F929F92AF9266
:10223000BF92CF92DF92EF92FF920F931F93CF93B3
:10224000DF93CDB7DEB760970FB6F894DEBF0FBE51
:10225000CDBF8D832A873B87B62EB694B694B694AD
:102260006770562E4093D804B901842F4E870E9480
:10227000E60F809F902C11244E85411102C085E00D
:1022800001C087E08E9D802C1124F12CA12C188A8E
:10229000D12C1F861B8210E0882D90E099878887BB
:1022A000181508F0CDC0612E712CE52DF0E0FF83EC
:1022B000EE83511007C048855985461957094830A3
:1022C0005105BCF4492D6B2D8D810E94D10B2885C1
:1022D0003985261937098E819F81280F391F2930AA
:1022E000310524F088E0282E251805C0282C211A55
:1022F00002C0B8E02B2E6B2D8D810E94851728E03F
:1023000030E022193109EFEFF0E002C0F595E795D2
:102310002A95E2F7052C01C0EE0F0A94EAF7EC8348
:1023200021E001C0220F5A94EAF72C872A852983DD
:102330002B852A8368887D2C412C512C312C262D0D
:10234000220D2D87542D491408F071C09091D704A7
:102350008091D604891710F051116FC01092D704E4
:10236000E981FA818191FA83E9835E870E94010CF9
:102370009093D5048093D4045E85301611F05111EA
:1023800013C08C2D0E94B40B8B838091D7048F5F78
:102390008093D7048091D4049091D50401969093B2
:1023A000D5048093D404312CF8E02F1629F0F201E3
:1023B000E752FB4F20812F87311029C02B81822FBC
:1023C00090E0E1E0088802C0959587950A94E2F7CD
:1023D000EE120AC00E8001C0880F0A94EAF7F82EA8
:1023E0006D84AC807D2C13C05C85922D68887D2C1B
:1023F000F12C992359F080FDF52A73947E1003C0C7
:1024000086956394712C550F9150F3CFAC808A2D33
:1024100080952F8528238F2D8A21282B2F87822F87
:102420000E94A81733948FEF481A580A8BCFB394A1
:10243000120D512C688AD72C33CF3012B5CFA1CFD3
:10244000892D60960FB6F894DEBF0FBECDBFDF9129
:10245000CF911F910F91FF90EF90DF90CF90BF90A1
:10246000AF909F908F907F906F905F904F903F9034
:102470002F900895CF92EF920F93C02EEE24E39405
:1024800001E00E940F110F91EF90CF9008952F92CD
:102490003F924F925F926F927F928F929F92AF92F4
:1024A000BF92CF92DF92EF92FF920F931F93CF9341
:1024B000DF93CDB7DEB762970FB6F894DEBF0FBEDD
:1024C000CDBFF82E298B2801962E9694969496943B
:1024D0006770D62E4093D804B801842F4F870E948E
:1024E000E60F8C9DB02C11244F85411102C085E070
:1024F00001C087E08E9D202D11242B833989323035
:1025000041F481508F83F394F21A188671E07C8332
:1025100005C027E028871F823FEF3C831A82812C69
:1025200000E01A8A2B2D30E03E832D833A893B153B
:1025300008F00CC13989323019F4D1100EC006C030
:102540002989213019F437E0D31207C08D819E818B
:102550007A89871B910908975CF54B81692D8F2D2E
:102560000E94D10B2989223061F48D819E813A89A4
:10257000831B91098D0D911D0997B4F018E01D1969
:1025800018C02989213081F488E090E08D199109E3
:102590002D813E817A89271B3109820F931F09976C
:1025A0001CF011E01D0D05C01B2D2A89121B01C056
:1025B00018E0692D8F2D0E948517212F30E048E00B
:1025C00050E0421B530B6FEF70E002C075956795AA
:1025D0004A95E2F7AB0155277989723039F4342EE8
:1025E0000D2C01C0330C0A94EAF70AC08D2D90E03F
:1025F0000196821B930B342E01C0330C8A95EAF7A7
:1026000081E001C0880FDA94EAF7898732012F81CF
:102610002983982DD12C7A81672F70E07D876C8774
:10262000232D20952E872B81D21608F083C03A8166
:102630003093D704F20180810E94010C2C853D85E6
:10264000820F931F9093D5048093D4048A2D0E9407
:10265000B40B61E070E0098002C0660F771F0A9436
:10266000E2F77B876A8732012984312F982D20E099
:10267000332309F442C0482F50E06A857B85462306
:102680005723452B09F022297989723011F4220C45
:1026900001C026949F5F9C112EC08091D704909119
:1026A000D604891769F08F5F8093D7048091D40492
:1026B0009091D50401969093D5048093D40413C0CF
:1026C0001092D704F3018181882369F0FFEF6F1A1C
:1026D0007F0A288B3F870E94010C9093D50480933A
:1026E000D4043F8528898A2D288B3F870E94B40B0C
:1026F00090E03F8528893150BBCF2D2C2E0C232113
:10270000D21499F0183029F0ED2DF0E0E752FB4F8C
:1027100000813E850323022B802F288B9F870E94F8
:10272000A817D3949F852889EBCF49817C81471BCB
:10273000498379CF3C81930E7A89710F7A8B2091EE
:10274000D7042A832301D884892EF0CE8B2D62965C
:102750000FB6F894DEBF0FBECDBFDF91CF911F91B2
:102760000F91FF90EF90DF90CF90BF90AF909F9030
:102770008F907F906F905F904F903F902F90089533
:10278000AF92BF92CF92DF92EF92FF920F931F937F
:10279000CF93DF93D82E162FC42FD22FF02E4423A1
:1027A00079F1222369F14330C0F09EEFA92EA40EE7
:1027B000BB24B394B80EC02EE12C02E021E04A2DD8
:1027C0008B2D0E94D20DD23040F06FEF610F6D0F54
:1027D00021E04A2D8B2D0E94D20DCF2CE12C02E05E
:1027E0002D2F41E0612F8D2D0E94D20DC23040F07F
:1027F0008FEF8D0D2D2F41E0612F8C0F0E94D20D98
:10280000DF91CF911F910F91FF90EF90DF90CF90CC
:10281000BF90AF900895FF920F931F93CF93DF93D4
:10282000F62E90E0809725E0289F8001299F100DCB
:102830001124C0E0D0E00C511E4FF801EC0FFD1F39
:102840008491F11001C080950E94A8172196C5308F
:10285000D10599F7F11002C08FEF01C080E0DF9140
:10286000CF911F910F91FF900C94A8171F93CF93B6
:10287000DF931F92CDB7DEB7162F6AE00E94692F53
:10288000612F805D99830E940B14612F998180E3F1
:10289000890F0F90DF91CF911F910C940B146091D1
:1028A000D0050C9436146091D8050C9436141F93FF
:1028B000CF93DF93162FEC018991882321F0612FAC
:1028C0000E940B14F9CFDF91CF911F910895609171
:1028D000D8050C9457146091D8050C940B14ECEBAC
:1028E000F0E080818F70806C80830895459A449ACF
:1028F00010925C0510925B0510925A0510925905D2
:1029000080E28093B800ECEBF0E08081846080830B
:102910001092A005808181608083808180648083A3
:102920007894089580E28093B8000895ECEBF0E08D
:1029300080818F70806A80830895ECEBF0E0808165
:102940008F70806D808308958091BC0087FFFCCFDD
:1029500008958093BB00ECEBF0E080818F7080687D
:102960008083089581110C946F148091BC008F7046
:1029700080688093BC0008958091BB000895EF9219
:10298000FF921F93CF93DF9300D01F92CDB7DEB796
:10299000162F9091BC009E7F9093BC004A835B836E
:1029A00089830E9496140E94A41489818E7F0E94BC
:1029B000A9140E94A4148091B9004A815B818831D6
:1029C00071F47A01112349F0F70181917F010E948E
:1029D000A9140E94A4141150F5CF80E001C081E039
:1029E00089830E949D1489819091BC0094FFFCCF43
:1029F0009091BC0091609093BC000F900F900F904D
:102A0000DF91CF911F91FF90EF900895EF92FF9289
:102A10001F93CF93DF9300D000D0CDB7DEB7909156
:102A2000BC009E7F9093BC004B835C836A83898348
:102A30000E9496140E94A414898181600E94A914A6
:102A40000E94A4148091B9004B815C816A8180341A
:102A5000E1F47A01162F140F812F8E19823050F075
:102A60000E946F140E94A4148091BB00F70181930F
:102A70007F01F2CF80E00E94B2140E94A4148091E2
:102A8000BB00F701808380E001C081E089830E9460
:102A90009D149091BC0091609093BC0089810F902F
:102AA0000F900F900F90DF91CF911F91FF90EF90BB
:102AB00008951F920F920FB60F9211242F933F93F8
:102AC0004F935F936F937F938F939F93AF93BF9336
:102AD000EF93FF938091B900887F883609F4B6C0E0
:102AE00008F042C0803309F49BC0A8F4803109F497
:102AF00069C038F4882309F434C1883009F462C00D
:102B00003DC1803209F48CC0883209F462C088313A
:102B100009F034C15EC0883409F482C038F48833C7
:102B200009F486C0803409F48DC028C1883509F4C1
:102B300066C0803609F48AC0803509F01FC160E0A4
:102B40008FE894E00E94391C8091BB00E0915D0504
:102B500091E09E0F90935D05F0E0E25AFA4F80837A
:102B600090E00E94251C6EC0803A09F499C0A8F438
:102B7000803809F476C038F4803709F467C08837A4
:102B800009F464C0FBC0803909F46BC0883909F4CA
:102B90007EC0883809F0F2C07AC0883B09F4AEC024
:102BA00038F4883A09F494C0803B09F491C0E6C037
:102BB000883C09F4C6C0883F09F4CDC0803C09F0C8
:102BC000DDC0BFC060E081E195E00E94391C80E07B
:102BD00013C060E082EF94E00E94391CE0917F0511
:102BE00080917E05E81708F581E08E0F80937F05C0
:102BF000F0E0E058FA4F80810E94A914BFC060E065
:102C00008DED94E00E94391CE0915D0581E08E0F0E
:102C100080935D058091BB00F0E0E25AFA4F80831B
:102C200060E087EB94E00E94391C0E949D14A4C0D0
:102C300060E083EA94E00E94391C8091BC008F70B0
:102C4000806898C060E08CE794E024C060E089E68A
:102C500094E00E94391C85E08093A00510925D05E8
:102C600064C060E085E594E00E94391CE0915D0558
:102C700081E08E0F80935D059091BB00F0E0E25AF9
:102C8000FA4F9083803240F40E946F1477C060E066
:102C900080E494E00E94391C80E00E94B2146EC06F
:102CA00060E08DE294E00E94391C8091BC008F703E
:102CB000806C8093BC00E0915B05F0915C053097DF
:102CC00009F45AC06EE575E080915D05099554C020
:102CD00060E08AE194E00E94391C84E08093A005C2
:102CE000E0915905F0915A05309731F060E875E0B0
:102CF00080E2099580937E0510927F0560E086E072
:102D000094E00E94391CE0917F0581E08E0F809352
:102D10007F05F0E0E058FA4F80818093BB009091EE
:102D20007F0580917E05981728F48091BC008F70F4
:102D3000806C04C08091BC008F7080688093BC0060
:102D40001DC060E084EE93E00E94391C8091BC00BD
:102D50008F70806C0FC060E085ED93E00E94391C9D
:102D60000DC060E084EC93E00E94391C8091BC00AF
:102D70008F70806D8093BC001092A005FF91EF9141
:102D8000BF91AF919F918F917F916F915F914F9183
:102D90003F912F910F900FBE0F901F901895F894B0
:102DA00040985A98882321F0813019F45A9A01C02A
:102DB000409A8BB1806F8BB985B18F6085B92F98A0
:102DC0008AB18F708AB984B1807F84B92D9A2C9A88
:102DD0000000000089B193B12C9887FF08C0000063
:102DE0000000000000002C9A00000000F1CF2D9898
:102DF0008AB1806F8AB984B18F6084B9789408955C
:102E0000CF93DF931F92CDB7DEB7F89469830E940A
:102E1000CF162F982D982C9A8AB1806F8AB984B1D9
:102E20008F6084B98BB18F708BB99BB16981862F0C
:102E3000807F892B8BB985B1807F85B985B16F7013
:102E4000682B65B9000000000000000000000000D1
:102E5000000000002C9878940F90DF91CF91089596
:102E60008093A105682F6F7360648295869586951F
:102E700083700C9400179091A10592959695969564
:102E8000937087708093A205E92FF0E0ED55FA4F1B
:102E90002081821731F08083682F686B892F0C9412
:102EA000001708958091A105829586958695837077
:102EB000F8940E94CF162F9A8AB18F708AB984B184
:102EC000807F84B92D9A2C9A000000000000000039
:102ED000000000000000000089B193B12C982D98EB
:102EE00078949F70807F892B089560EC80E00E9429
:102EF00000176FE380E00E94001760EC81E00E9401
:102F000000176FE381E00C940017CF93DF931F92BB
:102F1000CDB7DEB769830E9430176981862F0F9085
:102F2000DF91CF910C943B178091A1058F3718F05A
:102F300080E00C9430178F5F8093A105982F9F73CA
:102F400031F40E9430178091A2050C943B1708952C
:102F5000CF93C82F8091A105829586958695837021
:102F6000F8940E94CF162F9A2D982C9A9AB1906FB0
:102F70009AB994B19F6094B99BB19F709BB98BB182
:102F80009C2F907F982B9BB995B1907F95B995B167
:102F90008C2F8F70892B85B9000000000000000085
:102FA00000000000000000002C987894CF910C9451
:102FB00094171F93CF93DF9391E0813009F090E055
:102FC000192F1195C0E06C2F80E00E948517D0E08A
:102FD000812F0E94A817DF5FD038D1F7CF5FC830AC
:102FE00091F7DF91CF911F910C9475172F982D9821
:102FF0002C9840985A98279A259A249A389A529A47
:103000009BB19F709BB995B1907F95B99AB1906F24
:103010009AB994B19F6094B99FEF9093A305909350
:10302000A4050C94D91780E2809371018091AF05BB
:103030008093B00581E08093700108951F920F92F4
:103040000FB60F9211242F933F934F935F936F937B
:103050007F938F939F93AF93BF93EF93FF93809151
:10306000B505882329F08091B50581508093B50579
:103070008091CA04882329F08091CA0481508093EA
:10308000CA048091CB04882359F08091CB048150ED
:103090008093CB048091CB04811102C00E945E0515
:1030A0008091AC05813009F092C08091A705909184
:1030B000A805892B09F08BC08091B3059091B405C8
:1030C000892B09F07AC09091B0058091AF052091CD
:1030D000700198131CC02130D1F4809171018032AD
:1030E00019F41092710103C08E5F80937101809179
:1030F000710190E0FC01EF5CFA4F34913093B00520
:10310000FC01EE5CFA4F8491830F8093AF058091B0
:10311000B005213001F51092700190E0FC01E751FB
:10312000FA4FE49129E0E29FF0011124F093B205F7
:10313000E093B105FC01ED5AFA4F849123E6829F9A
:10314000C001112463E070E00E94832F7093B405E6
:103150006093B30510C091E0909370011092B20596
:103160001092B10521E330E03093B4052093B3050C
:103170008F5F8093B0058091B1059091B205892B46
:1031800021F410928100439818C01092800089E0C9
:103190008093810083E080936F002091B10530918E
:1031A000B20540E050E060E079E08DE390E00E94FD
:1031B000AB2F30938900209388008091B3059091C4
:1031C000B40501979093B4058093B3050FC0809127
:1031D000A9059091AA05019649F41092810043989F
:1031E0001092AA051092A9050E941318FF91EF9161
:1031F000BF91AF919F918F917F916F915F914F910F
:103200003F912F910F900FBE0F901F9018951F9216
:103210000F920FB60F9211248F939F9388B198E06D
:10322000892788B99F918F910F900FBE0F901F90A3
:1032300018951F920F920FB60F9211248F939F93A0
:1032400088B198E0892788B99F918F910F900FBE20
:103250000F901F9018951E9B18C08091A605813075
:1032600029F51092A6051092A8051092A7051092B4
:10327000AA051092A9058091AC058130B9F410928D
:10328000AC051092810043980FC08091A605811172
:103290000DC081E08093A6051092A8051092A705A5
:1032A0001092AA051092A9050C9413180895EF9294
:1032B000FF920F931F93CF93DF938B017A01C82F57
:1032C000D0E0CC0FDD1FCE0108960E94EC2F68E104
:1032D0000E94692FF8019083CE0109960E94EC2F7D
:1032E0006CE30E94692FF7019083DF91CF911F91CA
:1032F0000F91FF90EF9008950F931F93CF93DF935B
:1033000000D0CDB7DEB769834A83082F10E0000FE5
:10331000111F6981C80108960E94F42F6A81C801B3
:1033200009960F900F90DF91CF911F910F910C9400
:10333000F42F6AE00E94692F292F30E1839FC0019A
:103340001124822B0895CF939C01C62F10928000E8
:1033500089E08093810083E080936F0040E050E03B
:1033600060E079E08DE390E00E94AB2F309389001C
:1033700020938800C93140F08FE493EC0197F1F776
:1033800000C00000C951F6CF109281004398CF9140
:103390000895CF93DF9380E090E00E94EC2F8A3570
:1033A000A1F0C1E0D0E0FE01EF5DFA4F6491CE01E3
:1033B0000E94F42F2196C031D105A9F76AE580E07B
:1033C00090E0DF91CF910C94F42FDF91CF9108958D
:1033D000CF93DF93C82FD0E0E42FF0E0E053F84F15
:1033E000833010F42C963197262F30E02F5F3F4F1B
:1033F0002E0F3F1FCE01880F991F280F391FCF01B5
:103400009695879596958795280F391FCF0160E986
:1034100071E00E94832F260F371FCF0164E670E012
:103420000E94832F261B370B219646E04C9FC0013C
:103430004D9F900D11246AE070E00E94832F260FAB
:10344000371FC90167E070E00E94832FDF91CF91A1
:1034500008959C0183709927892B39F4C90164E68A
:1034600070E00E94832F892B59F4C90160E971E053
:103470000E94832F21E0892B09F020E0822F0895FC
:1034800081E008951092BA041092B9048091AD05BC
:103490008823E1F38CE38093E1051092AD058091E0
:1034A000AD058823E1F381E08093BA040895CF93BA
:1034B000DF93CDB7DEB729970FB6F894DEBF0FBE06
:1034C000CDBF1986F894AE01475F5F4F61E080ED94
:1034D0000E94BF1481110E94062CAE014F5F5F4F06
:1034E00067E080ED0E94061578948111F4CF898100
:1034F00087FD60C0982F92959F708F702AE0929FF1
:10350000800D1124809372012A81922F96959695B1
:1035100096959E70892F880F880F890F2F70820FC4
:10352000809373018B81982F92959F70282F2F7015
:1035300086FF11C085FB332730F99170990F892FD1
:10354000880F880F890F9CE0399F800D1124820F0E
:103550008093740107C093708AE0989F200D112416
:10356000209374012D81922F96959695969596703D
:10357000892F880F880F890F2F70820F8093750114
:103580002E8124FB992790F9990F892F880F880F96
:10359000890F2F70820F809376018F81982F9295DB
:1035A0009F708F702AE0929F800D11248093770185
:1035B00080E001C081E029960FB6F894DEBF0FBE0F
:1035C000CDBFDF91CF9108951F920F920FB60F924A
:1035D00011242F933F934F935F936F937F938F9318
:1035E0009F93AF93BF93CF93EF93FF93A895809151
:1035F000AE05813279F41092AE05C09172018091CE
:10360000B605813059F41092AA051092A9051092BE
:10361000B60504C08F5F8093AE0587C00E942B194A
:103620000E94571A809172018C17B1F18091CF04DA
:10363000882329F08091CF0481508093CF0480911A
:10364000AC058130F9F48091A7059091A805019708
:1036500011F40E9413188091A7059091A805009776
:1036600029F001979093A8058093A7058091A9055B
:103670009091AA05181619062CF401979093AA05A3
:103680008093A9058091A505882331F08091D0040D
:10369000811102C00E944C078091AD05811112C0BA
:1036A0009091E10580917201981761F086E0E2E760
:1036B000F1E0A1EEB5E001900D928A95E1F781E08D
:1036C0008093AD058091A605813079F59091AC0588
:1036D000911115C090917201911111C02091730147
:1036E0009091D70529130BC0209174019091D105B9
:1036F000291305C08093AC0588E097E012C0809143
:10370000AC05813091F48091A9059091AA05892B8F
:1037100061F41092AC051092A8051092A7058FEFE6
:103720009FEF9093AA058093A905FF91EF91CF9108
:10373000BF91AF919F918F917F916F915F914F91C9
:103740003F912F910F900FBE0F901F901895CF9320
:10375000DF93CDB7DEB728970FB6F894DEBF0FBE64
:10376000CDBF1982809172010E9499198A8380913C
:1037700073010E9499198B83809174010E94991999
:103780008C831D82809175010E9499198E8380918E
:1037900076010E9499198F83809177010E9499196F
:1037A0008887F894AE014F5F5F4F68E080ED0E941C
:1037B000BF14789481110E94062C28960FB6F894B5
:1037C000DEBF0FBECDBFDF91CF9108950E9476146A
:1037D0000E94571A81110E94A71B0E94571A87E066
:1037E0008093B10081E08093700078940895909365
:1037F000C5008093C40088E18093C1008EE080936F
:10380000C200519A509808959091C00095FFFCCF46
:103810008093C60080E090E00895CF93C82F8295F2
:103820008F708A3010F4805D01C0895A0E94041C98
:103830008C2F8F70282F30E02A30310514F4805DF2
:1038400001C0895ACF910C94041CCF93C82F892FA3
:103850000E940D1C8C2FCF910C940D1C8091C000E8
:1038600087FFFCCF8091C60008958091C0008078CA
:10387000089508950895089508950895CF92EF92B8
:103880000F93CF93DF9300D000D0CDB7DEB7962F44
:10389000861304C08091B5048823F9F0BE016F5FE0
:1038A0007F4F892F4C830E943C04C090D805009123
:1038B000BB054C81049F902D11248091B905E090A7
:1038C000BA059E012F5F3F4F41E06091B80553E17B
:1038D000959F800D11240E940F110F900F900F9053
:1038E0000F90DF91CF910F91EF90CF900895CF92ED
:1038F000EF920F93823041F40091D00528E340E825
:1039000060E080E00E94DA0FC090D8059091BB057E
:103910008091B905E090BA05092F26ED32E041E02B
:103920006091B8055DE0959F800D11240E940F11F4
:103930008091BC058130A1F4C090D8059091BB0561
:103940008091B905E090BA05092F26ED32E041E0FB
:103950006091B80550E2959F800D11240E940F11CF
:103960000F91EF90CF9008950F93CF93DF93CDB742
:10397000DEB729970FB6F894DEBF0FBECDBF40E08B
:1039800069E382E00E948D048091BA04811105C030
:103990008091B504882309F47DC08091B9048130F9
:1039A00029F08091B504813009F04AC00091D80512
:1039B0004091BB046091BD048091BC040E94E81951
:1039C000E82FF0E0EE0FFF1FE65BFE4F2081318114
:1039D00041E06091B70582E10E943A120091D8055A
:1039E000E091BC04F0E0EE0FFF1FEA5AFE4F208189
:1039F000318141E06091B7058AE20E943A128091DC
:103A0000BD04BE016F5F7F4F0E943C048CE28B833C
:103A100080E28C8382E38D8380E38E838091BB047C
:103A2000BE01695F7F4F0E943C040091D8059E0152
:103A30002F5F3F4F41E06091B70582E40E943A1248
:103A40006091C1048091C40440E00E943E1C6091DA
:103A5000C2048091C50441E00E943E1C8091BC05D7
:103A6000813039F46091C3048091C60442E00E9421
:103A70003E1C8091BC0581110DC00091D80580913C
:103A8000C30480FF0091D00526E044E068E18EE3A6
:103A90000E94DA0F29960FB6F894DEBF0FBECDBF95
:103AA000DF91CF910F9108951092BC0594E090930F
:103AB000B90522E02093B8059093BB0595E090935B
:103AC000BA059CE29093B7050C94771C91E0909313
:103AD000BC0590E19093B9059CE09093B80592E005
:103AE0009093BB059093BA0595E29093B7050C941B
:103AF000771CFC012281203429F423812F3111F419
:103B000022E001C026E0362FDC01FB0181918D937C
:103B10008E2F831B8217D0F308952F923F924F92DE
:103B20005F926F927F928F929F92AF92BF92CF924D
:103B3000DF92EF92FF920F931F93CF93DF93CDB756
:103B4000DEB72A970FB6F894DEBF0FBECDBF8D83C8
:103B50009A871B0129013A01E982FA820B831C83AF
:103B60001A2D082DCA01B9010E941F2F4B015C01BB
:103B70006C2D70E080E090E00E94F72D6B017C01DD
:103B80009B01AC01C501B4010E94BC2E0E94C42D52
:103B9000605CF1016083C301B2010E94592D90580D
:103BA000A70196010E94BC2E0E94C42D615EF10106
:103BB000618329813A814B815C81C301B2010E94FA
:103BC000F52C4B015C010E941F2F6E837F83888739
:103BD0009987612F70E080E090E00E94F72D6B01E3
:103BE0007C019B01AC016E817F81888599850E9453
:103BF000BC2E0E94C42D605CF1016283C501B4013A
:103C00000E94592D9058A70196010E94BC2E0E9437
:103C1000C42D615EF101638329813A814B815C810E
:103C2000C301B2010E94F42C4B015C010E941F2FC2
:103C3000A70196010E94BC2E0E94C42D605CF10178
:103C40006483C501B4010E94592D9058A7019601C3
:103C50000E94BC2E0E94C42D615EF10165839D818E
:103C6000D101E92FFA858E2F891B801730F421911D
:103C70008D912817C1F381E001C080E02A960FB62C
:103C8000F894DEBF0FBECDBFDF91CF911F910F9192
:103C9000FF90EF90DF90CF90BF90AF909F908F906C
:103CA0007F906F905F904F903F902F9008950F936B
:103CB0001F93CF93DF93EC01162F062F2B814A81A0
:103CC000698188810E9411108A81803419F48B8166
:103CD0008F3169F0012F2D814C81698188810E948B
:103CE00011102D814C816B818A810E941110DF910E
:103CF000CF911F910F910895CF92DF92EF92FF9293
:103D00000F931F93CF93DF93813009F071C000911F
:103D1000D80520E04EE16FE180E40E94310C409133
:103D2000D8056FE180E40E94930DC0E0D3E06C2FD2
:103D3000772767FD7095872F972F0E94F72D22E92F
:103D40003AE046E05FE30E94BC2E6B017C010E94DA
:103D50001F2F2DEC3CEC40EE51E40E94BC2E0E9443
:103D6000C42D162FC701B6010E94592D90582DEC75
:103D70003CEC40EE51E40E94BC2E0E94C42D062F64
:103D80004091D8056FE1600F80E4810F0E94930D90
:103D90008C2F6D2F0E94752F911115C0C11102C07B
:103DA000015009C0C33011F41F5F05C0C63011F4C3
:103DB0000F5F01C011504091D8056FE1600F80E4A2
:103DC000810F0E94930DCF5FCC3009F0B0CFE9ECAA
:103DD000F5E0C3ECD5E0ADEBB5E088E281938993E3
:103DE0008D9395E0EF3CF907C9F71092D20518C002
:103DF0008091D605811114C06091D00589EC95E0C1
:103E00000E94571E4091D8056FE180E4DF91CF9169
:103E10001F910F91FF90EF90DF90CF900C94930D36
:103E2000DF91CF911F910F91FF90EF90DF90CF9096
:103E300008954F925F926F927F928F929F92AF926E
:103E4000BF92CF92DF92EF92FF920F931F93CF9387
:103E5000DF93CDB7DEB76A970FB6F894DEBF0FBE1B
:103E6000CDBF8091B804813009F0ACC08091D305FA
:103E7000813009F09DC06091D70570E080E090E04E
:103E80000E94F52D20E537E746ED5DE30E94BC2E4C
:103E90006B017C010E941F2F4B015C01C701B60121
:103EA0000E94592D2B013C018091D1050091D7052D
:103EB0006CE00E94692F692F70E080E090E00E9422
:103EC000F72D22E93AE046E05FE30E94BC2E6B0149
:103ED0007C01602F70E080E090E00E94F52D25E3EA
:103EE0003AEF4EE05CE30E94BC2E9B01AC01C7019F
:103EF000B6010E94F52C6B017C010E941F2F6B8B79
:103F00007C8B8D8B9E8BC701B6010E94592D6F8BC8
:103F1000788F898F9A8F0091D80520E047E066E37B
:103F200086E70E94310C0091D805C301B201905878
:103F300020E030E040EE50E40E94BC2E0E94C42DF0
:103F4000162F1A5C20E030E040EE50E4C501B401C9
:103F50000E94BC2E0E94C42D462F4A58212F66E392
:103F600086E70E9411100091D8056F89788D898DA0
:103F70009A8D905820E030E040EA50E40E94BC2E38
:103F80000E94C42D162F1A5C20E030E040EA50E475
:103F90006B897C898D899E890E94BC2E0E94C42DCC
:103FA000462F4A58212F66E386E70E9411100AC067
:103FB0000091D00521E141E16EE28EE60E94DA0F28
:103FC0001092D2058091B704813031F48091B6040B
:103FD00083FB882780F901C080E09091D205891782
:103FE00069F08093D205C090D00524E0E22E02E073
:103FF00021E141E16EE28EE60E94D20D8091BA0489
:10400000813021F08091B504813019F41092DE05E1
:1040100005C08091DE058F5F8093DE0542E069E395
:1040200082E00E948D048091D6058130D1F56091A7
:10403000C3041091DE0570E080E090E00E94F52D51
:1040400020E537E746ED5DE30E94BC2E6B017C0165
:10405000612F70E080E090E00E94F72D28E93EE2B9
:104060004EEF5BE30E94BC2E9B01AC01C701B60181
:104070000E94F52C9B01AC0116E0812E07E1A02ED9
:104080008BE1C82E1DECE12E1CECF12E0CEC1DE397
:10409000BE01635F7F4F89EC95E00E948D1DB82EB5
:1040A00001C0B12C8091BA04813029F08091B5040F
:1040B000813009F085C06091C2041091C30470E0A2
:1040C00080E090E00E94F52D20E537E746ED5DE3C6
:1040D0000E94BC2E6B017C01612F70E080E090E0BB
:1040E0000E94F52D29E833EC44EE5AE30E94BC2EE1
:1040F0009B01AC01C701B6010E94F52C9B01AC01EC
:10410000E2E08E2EF8E0AF2EABE1CA2E1CE7E12EE6
:1041100019EDF12E00E210E4BE01695F7F4F83ECE0
:1041200095E00E948D1D982E81E0981659F090918F
:10413000C4048091C104981305C08091B5048130F6
:1041400009F041C08091C1041091C2046CE00E944A
:10415000692F692F70E080E090E00E94F72D22E93E
:104160003AE046E05FE30E94BC2E6B017C01612FC8
:1041700070E080E090E00E94F52D25E33AEF4EE0FC
:104180005CE30E94BC2E9B01AC01C701B6010E94FA
:10419000F52C9B01AC0186E0882E95E0A92E64E108
:1041A000C62E1CE7E12E19EDF12E00E210E4BE014F
:1041B0006F5F7F4F8DEB95E00E948D1D182F04C01F
:1041C00010E0912C01C010E08091D6058130C9F437
:1041D000B81621F08091B504813099F46091D00532
:1041E00089EC95E00E94571EBE01635F7F4F89EC0A
:1041F00095E00E94791D6091D80589EC95E00E94B8
:10420000571E81E0981621F08091B5048130E1F4C9
:104210006091D00583EC95E00E94571EBE01695F56
:104220007F4F83EC95E00E94791D6091D80583EC67
:1042300095E00E94571E8091D605813071F46091FF
:10424000D80589EC95E007C081E0B81206C06091FE
:10425000D80583EC95E00E94571E113021F0809123
:10426000B504813011F56091D0058DEB95E00E9489
:10427000571EBE016F5F7F4F8DEB95E00E94791D49
:104280006091D8058DEB95E00E94571E8091D60570
:10429000813031F46091D80589EC95E00E94571E79
:1042A0006091D80583EC95E009C081E0B81611F063
:1042B000981206C06091D8058DEB95E00E94571EBC
:1042C0006A960FB6F894DEBF0FBECDBFDF91CF91D7
:1042D0001F910F91FF90EF90DF90CF90BF90AF9024
:1042E0009F908F907F906F905F904F900895109265
:1042F000D6050C947C1E91E09093D6050C947C1E00
:104300009F92AF92BF92CF92DF92EF92FF920F9364
:104310001F93CF93DF931F92CDB7DEB7982E862FD2
:1043200091E03AE0632FA91218C00E94692F182F5C
:10433000842F0E94692FF82E822F0E94692FD82E79
:10434000802F0E94692FB82E8E2D0E94692FE82E93
:104350008C2D0E94692F982F16C00E94692F192F4B
:10436000842F0E94692FF92E822F0E94692FD92E47
:10437000802F0E94692FB92E8E2D0E94692FE92E61
:104380008C2D0E94692F1B1109C0FE1007C0D91285
:1043900005C08091B504882309F43EC08DE0A82EA5
:1043A000C12C21E01C1120E0FC1001C02260DC10B7
:1043B00001C0246031E0BC1030E0EC1001C032607C
:1043C0009C1101C03460231306C08091B504813074
:1043D000E9F43323D9F0E32FF0E0E158F94F2491C9
:1043E000343018F40091D80502C00091D00545E0A2
:1043F000692D8A2D99830E94540F0091D80520E0E1
:1044000045E0692D8A2D0E94310C9981C394ECE01E
:10441000AE0EFAE0CF12C5CF0F90DF91CF911F9172
:104420000F91FF90EF90DF90CF90BF90AF909F9053
:104430000895DF92EF92FF920F931F93CF93DF9334
:104440008091DE05811175C08EE28093D20581E0F6
:104450008093DE058091D0050E94D9170091D80580
:1044600027E034E040E061E081E00E943A129FE7FB
:10447000E92E96E0F92EE7011EE0DC2EDE1883E03F
:10448000D81203C00091D00502C00091D805FE01EA
:10449000249145E0612F8EE00E94540F0091D805D1
:1044A00020E045E0612F8EE00E94310CD11003C066
:1044B0000091D80502C00091D005FE0134962491E8
:1044C00045E0612F86E40E94540F0091D80520E05A
:1044D00045E0612F86E40E94310C2196125F16346C
:1044E00061F60091D80525E134E040E06CE089E117
:1044F0000E943A12C3E3D2E016E10091D805299157
:10450000399140E0612F89E10E943A12195F10341D
:10451000A1F7C3E2D2E018E00091D80529913991C2
:1045200040E0612F81E50E943A12195F1034A1F733
:1045300002C01092DE05DF91CF911F910F91FF9085
:10454000EF90DF900895AF92CF92EF920F93CF93B9
:10455000DF9300D01F92CDB7DEB78091D2058130B6
:1045600021F48091BA04813041F08091D2058823F2
:1045700059F08091DE05811107C081E00E9491030E
:1045800083E00E94910370C08091DE058130E1F4E8
:104590008091BA04813009F067C08091D2058150C2
:1045A0008093D2058091D205BE016F5F7F4F0E943C
:1045B0003C040091D8059E012F5F3F4F40E061E031
:1045C00088E70E943A1250C040E06AE381E00E940E
:1045D0008D048091BA04811105C08091B5048823AF
:1045E00009F442C0C090C104E090C2040091C30429
:1045F0002091C4044091C5046091C604AA24A394E8
:104600008DE00E948021C090C104E090C20400911E
:10461000C3042091C4044091C5046091C604A12C38
:1046200089E10E948021C090BB04E090BC0400910D
:10463000BD042091BE044091BF046091C004AA242F
:10464000A39485E20E948021C090BB04E090BC044A
:104650000091BD042091BE044091BF046091C0044C
:10466000A12C81E30E9480210F900F900F90DF9189
:10467000CF910F91EF90CF90AF900895AF92CF92DE
:10468000EF92FF920F931F93CF93DF9300D01F926F
:10469000CDB7DEB780E389831A8210E00091D80598
:1046A000145F9E012F5F3F4F40E061E0812F0E9429
:1046B0003A1289818F5F8983183781F7A090D805D6
:1046C000CC24C394EE24E3940EE514E021E040E012
:1046D0006AE181E00E944712A090D80507E614E045
:1046E00021E040E061E381E00E94471210E090E0A9
:1046F0002DE0F22EF10E911102C01D3358F40091FD
:10470000D80520E045E06DE0690F8F2D9B830E9466
:10471000310C9B81945F903371F7145F183739F730
:104720001092D2051092DE050F900F900F90DF913E
:10473000CF911F910F91FF90EF90CF90AF90089580
:10474000CF92DF92EF92FF920F931F93CF93DF935D
:10475000C82FD42F122F70E080E090E00E94F52D3A
:104760009B01AC0160E070E080E891E40E945C2D68
:104770006B017C016D2F70E080E090E00E94F72DCE
:104780009B01AC01C701B6010E94BC2E20E030E0C5
:1047900040E05FE30E94F52C0E94C92DD62F612FC7
:1047A00070E080E090E00E94F72D9B01AC01C70112
:1047B000B6010E94BC2E20E030E040E05FE30E94A2
:1047C000F52C0E94C92D162FD61304C08091B50474
:1047D0008130F1F40091D00588E0F82EFC0ED65916
:1047E00021E042E06F2D8D2F0E94DA0F0091D0055D
:1047F0006AE06C0F21E042E08D2F0E94DA0F0091F9
:10480000D80523E042E06F2D8AE6810F0E94DA0F7F
:10481000DF91CF911F910F91FF90EF90DF90CF909C
:1048200008950F931F93CF93DF938091B904813044
:1048300029F08091B504813009F053C0C8E7D1E078
:1048400081E02091BD049981291305C02091BC0409
:104850009A81291721F08F5F2796843091F79091E4
:10486000CF059817F1F18093CF0588818823D9F07F
:104870006B817C8180E00E94E60F182F6D817E8124
:104880006115710521F080E00E94E60F180F21E804
:1048900030E0211B310937FF02C02F5F3F4F3595B4
:1048A0002795122F01C012E00091D00527E040E8C3
:1048B00060E080E00E94DA0F0091D8052B813C81F6
:1048C00040E061E0812F0E943A12810F2D813E81EC
:1048D0002115310531F00091D80540E061E00E94DA
:1048E0003A12DF91CF911F910F9108950F93CF93BB
:1048F000DF93C82F8D7F843129F0CA3019F0CD3075
:1049000091F535C00091D80522E241E067E188E0E9
:104910000E94DA0F0091D80521E043E568E389E0C1
:104920000E94DA0FD8E14091D8056D2F87E00E94F0
:10493000930DDB5FDB33B9F7C43181F44091D805C7
:1049400069E385E20E94930D4091D80569E380E414
:104950000E94930DCAE3D0E188E412C0CA3049F046
:10496000C63169F606C0C83141F4CBE307C0CAE3DB
:1049700005C0CAE3DDE08BE403C0C6E3DAE08EE401
:104980000091D80520E132E040E06C2F0E943A12FD
:104990000091D80524E132E040E06C2F8CE20E94C7
:1049A0003A120091D80528E132E040E06C2F8D2FBB
:1049B0000E943A12DF91CF910F9108959F92AF928A
:1049C000BF92CF92DF92EF92FF920F931F93CF93FC
:1049D000DF9300D01F92CDB7DEB7182FF62EA22E90
:1049E000B02E421305C08091B504882309F494C009
:1049F000642F70E080E090E00E94F72D28E339EA10
:104A00004BEF5EE30E94BC2E20E030E040E05FE32D
:104A10000E94F52C0E94C92DD62E6A2D70E080E0F0
:104A200090E00E94F72D28E339EA4BEF5EE30E9405
:104A3000BC2E20E030E040E05FE30E94F52C0E94B5
:104A4000C92D962ED61204C08091B504813031F55F
:104A500021E0290D85E0E81218C00091D80566E331
:104A600069194F2D812F0E94C01381E08915B0F480
:104A7000C090D80567E3691935E0E32E00E02FEF19
:104A8000290D4EEF4F0D810F07C0C090D80566E38A
:104A9000691901E04F2D812F0E94D20DBE016F5F79
:104AA0007F4F8A2D0E943C040091D8052EE2A22E51
:104AB000EA2CE9189E012F5F3F4F41E06E2D812FB8
:104AC0008B0D0E943A120091D00565E3691921E02F
:104AD0004F2D812F0E94DA0F0091D00527E04B2D3A
:104AE0006E2D812F0E94DA0F0091D0054FEF4B0DF4
:104AF00081E08F0D810F27E06E2D8B190E94DA0F58
:104B00009D1450F40091D0052D2D29196A2D6D1991
:104B10004F2D812F0E94DA0F0F900F900F90DF9191
:104B2000CF911F910F91FF90EF90DF90CF90BF90AA
:104B3000AF909F9008950F93CF93DF93EC01623075
:104B400001F50091D00520E344E660E180E00E9499
:104B5000DA0F0091D8059E0140E069E082E00E94F2
:104B60003A12282F30E0213331050CF061C000915A
:104B7000D00541E3481B25E069E08E5F0E94DA0F13
:104B800057C00091D80521E040E867E080E00E942E
:104B9000DA0F0091D80521E040E86FE080E00E9444
:104BA000DA0F0091D80529E341E067E085E60E942D
:104BB000DA0F8FEF8093CF050E9411240091D80562
:104BC0009E0140E069E082E00E943A120091D8051F
:104BD0002CE634E040E069E088E60E943A12C2E147
:104BE000D0E028E132E00091D80540E06C2F89E662
:104BF0000E943A120091D80527E046E166E06C0F6A
:104C000088E60E94C0130091D80521E042E169E0E6
:104C10006C0F8AE60E94DA0FDF5FD33049F0D130A3
:104C200019F020E132E002C024E132E0C15FDBCFC5
:104C3000DF91CF910F91089541E069E083E30E94F5
:104C40008D048091BA04811104C08091B504882339
:104C5000C9F10E9411249091C3048091C604981355
:104C600004C08091B504813041F42091C304409187
:104C7000C6046BE380E30E94A0239091C20480915C
:104C8000C504981304C08091B504813041F420918B
:104C9000C2044091C5046BE381E20E94A02390917D
:104CA000C1048091C404981304C08091B50481307C
:104CB00059F42091C1044091C40467E182E10E944B
:104CC000A02302C080E0089581E008952F923F92D2
:104CD0004F925F926F927F928F929F92AF92BF920C
:104CE000CF92DF92EF92FF920F931F93CF93DF93B8
:104CF00000D000D000D0CDB7DEB7682EB42E122F72
:104D0000A02E641307C0201305C08091B50488232A
:104D100009F447C170E080E090E00E94F72D28E39D
:104D200039EA4BEF5EE30E94BC2E20E030E040E029
:104D30005FE30E94F52C0E94C92D762E6B2D70E04A
:104D400080E090E00E94F72D28E339EA4BEF5EE324
:104D50000E94BC2E20E030E040E05FE30E94F52C92
:104D60000E94C92DD62E612F70E080E090E00E9455
:104D7000F72D28E339EA4BEF5EE30E94BC2E20E0DA
:104D800030E040E05FE30E94F52C0E94C92D462EE2
:104D90006A2D70E080E090E00E94F72D28E339EA68
:104DA0004BEF5EE30E94BC2E20E030E040E05FE38A
:104DB0000E94F52C0E94C92D362E741428F4542C10
:104DC000571816E3141904C0572C541816E3171972
:104DD000511002C055245394D31430F4232C2D18B1
:104DE00076E3F72EF31805C02D2C231866E3F62E74
:104DF000FD18211002C0222423947D1006C0431008
:104E000004C08091B504813081F4AB1418F400E043
:104E100083E002C001E082E0C090D805E82E222D98
:104E20004DE06F2D862D0E94D20D3A2D3B1937FF94
:104E300005C08DE28983319521E001C020E03A3040
:104E40006CF0E1E0F0E0EC0FFD1FE20FF11D832FAD
:104E50006AE00E94752F805D80832F5FE1E0F0E0C3
:104E6000EC0FFD1FE20FF11D832F6AE00E94752FEA
:104E7000905D90832F5FE1E0F0E0EC0FFD1FE20F0B
:104E8000F11D1082822E880C880C0091D8054EE00E
:104E9000B42EB818B6949B2C960C9E012F5F3F4FF2
:104EA00040E05AEFA52EAF0C6A2D892D0E943A12D0
:104EB0000091D00526E04B2D6A2D862D0E94DA0F39
:104EC0000091D0058FEF880D26E04B2D6A2D890DBE
:104ED0000E94DA0F7D1003C0431409F462C00091F0
:104EE000D00521E04DE06FEF6F0D862D0E94DA0FA7
:104EF000A12EB12C852D90E09E838D838F2C912C3B
:104F00001F15D0F49401265031098A0D9B1D82177C
:104F100093071CF426E0250D02C02F2D211B222310
:104F200059F0C090D80535E0E32E02E04DE06AEF7D
:104F3000610F862D0E94D20D74100FC0D31468F437
:104F40007D100BC0C090D80595E0E92E02E021E06D
:104F50004DE0612F862D0E94D20D820C911C8D8117
:104F60009E818A0D9B1D88169906DCF495E0A91A8E
:104F7000B1088A149B0434F0622D6F0D252D210F8A
:104F8000261B04C026E0250D6AEF610F222349F09D
:104F9000C090D80585E0E82E02E04DE0862D0E9405
:104FA000D20D26960FB6F894DEBF0FBECDBFDF91AF
:104FB000CF911F910F91FF90EF90DF90CF90BF9016
:104FC000AF909F908F907F906F905F904F903F90A9
:104FD0002F900895EF920F930E941C26882399F139
:104FE0002091C3044091C604E5E0EE2E02E06FE09C
:104FF00089E40E94DE240091C3042091C6044091FC
:10500000C2046091C5048BE30E9466262091C2040D
:105010004091C50402E06FE08BE20E94DE24009123
:10502000C2042091C5044091C1046091C4048DE183
:105030000E9466262091C1044091C40402E06FE002
:105040008DE00E94DE240F91EF900895682F87E88D
:1050500094E00E949B258AE00C9476248F929F9284
:10506000AF92BF92CF92DF92EF92FF92CF93DF93F6
:10507000C82F70E080E090E00E94F72D2BED3FE01C
:1050800049E45FE30E94BC2E24EE3BEC46E150E491
:105090000E94F42C6B017C010E941F2F4B015C01CC
:1050A000C701B6010E94592DF090D805905826E608
:1050B00036E646E551E40E94BC2E0E94C42DD62F50
:1050C000DC5D26E636E646E551E4C501B4010E9402
:1050D000BC2E0E94C42D862F4F2D6D2F8C0FDF917B
:1050E000CF91FF90EF90DF90CF90BF90AF909F90C7
:1050F0008F900C94930D7F928F929F92AF92BF925C
:10510000CF92DF92EF92FF920F931F93CF93DF9393
:1051100000D01F92CDB7DEB7182FA62EB42E641381
:1051200005C08091B504882309F491C06A2D70E010
:1051300080E090E00E94F72D2CE739ED40EA5DE336
:105140000E94BC2E24EE3BEC46E150E40E94F42C7D
:105150006B017C010E941F2F26E636E646E551E4EE
:105160000E94BC2E0E94C42D962EC701B6010E943B
:10517000592D905826E636E646E551E40E94BC2EAD
:105180000E94C42D862E6B2D70E080E090E00E947E
:10519000F72D2CE739ED40EA5DE30E94BC2E24EEAA
:1051A0003BEC46E150E40E94F42C6B017C010E9430
:1051B0001F2F26E636E646E551E40E94BC2E0E94EB
:1051C000C42D762EC701B6010E94592D905826E6AF
:1051D00036E646E551E40E94BC2E0E94C42DF62E10
:1051E000971006C0861204C08091B5048130F1F496
:1051F0000091D00524E2280D492D410F64E2812F52
:105200000E9411100091D80524E22F0D472D410F67
:1052100064E2812F0E9411108A2D6AE00E94692F9A
:10522000911104C0682F812F0E942E28BE016F5F4C
:105230007F4F8B2D0E943C040091D8059E012F5F6B
:105240003F4F41E06AE28BEF810F0E943A120F90CC
:105250000F900F90DF91CF911F910F91FF90EF90E2
:10526000DF90CF90BF90AF909F908F907F900895E8
:105270000E941C268823A9F04091C3046091C604B3
:1052800083E50E947B284091C2046091C50482E3BB
:105290000E947B284091C1046091C40481E10C9478
:1052A0007B2808950F93CF93DF93682F8FE894E0C6
:1052B0000E949B25C1E10091D80520E04FE064E207
:1052C0008C2F0E94310CD0E06D2F8C2F0E942E2845
:1052D000DF5FD730C9F7CF5DC43769F78BE0DF9167
:1052E000CF910F910C947624BF92CF92DF92EF92E0
:1052F000FF920F931F93CF93DF93182FF22E70E03E
:10530000C42ED12C882777FD8095982F123099F4E0
:105310000E94F72D20E030E040E45FE30E94BC2EC5
:1053200020E030E040E850E40E94F52CB62EE72E55
:10533000082FC92F1CC00E94F72D2AE939E949E935
:105340005EE30E94BC2E20E030E040E850E40E9482
:10535000F52C9B01AC01B62EE32E082FC52F1111A1
:1053600006C00E94C92DD62FDC5CC7E23BC02FEFE0
:105370003FEF4FEF5EE36B2D7E2D802F9C2F0E9421
:10538000BC2E0E94C92DD4E3D61B28ED33EB4DE58E
:105390005FE36B2D7E2D802F9C2F1130E9F40E944E
:1053A000BC2E0E94C92DC62FC95DB601882777FD86
:1053B0008095982F0E94F72D20E030E040E45FE3D5
:1053C0000E94BC2E20E030E040E850E40E94F52C22
:1053D0006B01E82E092F2BC00E94BC2E0E94C92D04
:1053E000C7E2C61BB601882777FD8095982F0E94DB
:1053F000F72D2AE939E949E95EE30E94BC2E20E055
:1054000030E040E850E40E94F52CAC016B01E82E3E
:10541000052F123061F40E94C92D462F4C5C0F2DD0
:1054200027E26C2F8D2F0E94111024E12EC02FEF48
:105430003FEF4FEF5EE3B6018E2D902F0E94BC2E02
:105440000E94C92D84E3B82EB61A28ED33EB4DE542
:105450005FE3B6018E2D902F111106C00E94BC2E65
:105460000E94C92D695D07C00E94BC2E0E94C92DF3
:10547000862F67E2681B0F2D2C2F4D2F8B2D0E943E
:105480001110113021F40F2D2AE34AE203C00F2D31
:105490002C2F4AE46C2F8D2F0E941110DF91CF9199
:1054A0001F910F91FF90EF90DF90CF90BF900895E4
:1054B0000F931F93CF93DF9300D01F92CDB7DEB72A
:1054C0000E941C26882309F4D0C09091C3048091C7
:1054D000C604981304C08091B504813089F480918A
:1054E000C304BE016F5F7F4F0E943C040091D8054A
:1054F0009E012F5F3F4F41E061E28FE40E943A122C
:105500009091C2048091C504981304C08091B504A1
:10551000813089F48091C204BE016F5F7F4F0E9489
:105520003C040091D8059E012F5F3F4F41E061E3AD
:1055300080E10E943A129091C1048091C4049813B2
:1055400004C08091B504813089F48091C104BE010A
:105550006F5F7F4F0E943C040091D8059E012F5F32
:105560003F4F41E061E180E10E943A129091C30413
:105570008091C604981799F19091C2048091C50456
:1055800098132DC09091C1048091C404981327C032
:105590008091B504811123C06091C6040091C304B9
:1055A00070E080E090E00E94F72D2AE939E949E9AE
:1055B0005EE30E94BC2E0E94C92D162F602F70E062
:1055C00080E090E00E94F72D2AE939E949E95EE39D
:1055D0000E94BC2E0E94C92D161709F446C02091C6
:1055E000D0054091C5046091C60480E00E947429F2
:1055F0002091D0054091C4046091C50481E00E94CF
:1056000074292091D0054091C6046091C40482E0C1
:105610000E9474292091D8054091C2046091C3046E
:1056200080E00E9474292091D8054091C1046091C6
:10563000C20481E00E9474292091D8054091C304DE
:105640006091C10482E00E9474290091D80523E092
:105650004AE067E284E30E94310C0091D80521E022
:1056600040E167E284E30E94310C0F900F900F90AD
:10567000DF91CF911F910F9108950F93682F8AE9C1
:1056800094E00E949B250091D80520E046E167E266
:1056900084E30E94310C0091D80520E132E040E023
:1056A00069E28FE40E943A120091D80524E132E0C9
:1056B00040E069E38FE00E943A120091D80528E1AA
:1056C00032E040E069E18EE00E943A124091D80554
:1056D00067E284E30F910C94930DFF920F931F9355
:1056E000CF93DF93C82F842FF090D8050E94692FA5
:1056F000482F822F0E94692FD82F481304C0809111
:10570000B5048823B1F10091D8051CE0419F102D0C
:105710001124175E25E045E0612F8C2F0E94540F65
:105720000091D80520E045E0612F8C2F0E94310CBC
:10573000DD2339F0D13039F4C0FD07C0F090D00539
:1057400004C023E003C022E001C021E08CE0D89F28
:10575000D02D1124D75E0F2D45E06D2F8C2F0E9488
:10576000540F0091D80520E045E06D2F8C2F0E944A
:10577000310CDF91CF911F910F91FF9008950E94FE
:105780001C268823C1F02091C3044091C60464E123
:1057900083E50E946D2B2091C2044091C50464E111
:1057A00082E30E946D2B2091C1044091C40468E003
:1057B00081E10C946D2B08950F931F93CF93DF938A
:1057C000682F86EA94E00E949B25C9E00091D805E5
:1057D00027E241E162E18C2F0E94C013D9E118E079
:1057E0001C0F0091D80520E045E06D2F812F0E940D
:1057F000310CD45FDD33A9F7CF5DCC3639F78DE0BE
:10580000DF91CF911F910F910C947624789464E6E8
:1058100080EA9FE00E94A3192FEF80E792E02150D9
:1058200080409040E1F700C0000064E680EA9FE01D
:105830000E94A3192FEF89E698E121508040904003
:10584000E1F700C00000E3CF14BE88E10FB6F89482
:1058500080936000109260000FBE8AE190E00E9489
:10586000F71B3B9A8CE38093E1050E94E61B0E94A4
:10587000C91986E090E00E94EC2F81708093D005DA
:105880009091D00581E0911180E08093D80587E068
:1058900090E00E94EC2F83708093AB058091AB0564
:1058A00047ED55E061ED75E00E9457190E946405CF
:1058B0000E942B1982E084BD83E085BD8DE787BD02
:1058C00080916E00826080936E00539A80E2809394
:1058D000B0008091B00083608093B0008091B100EF
:1058E00088608093B10080E18093B30081E090E014
:1058F0000E94EC2F8093B400259A64E680EA9FE032
:105900000E94A3192FE088E190E00FB6F894A895C3
:10591000809360000FBE209360008091D0050E94AC
:10592000F6170E9424050E94421A81E00E9491030A
:105930006BE4F62EC8E5D2E000E619E0F092B5057A
:105940008091CD048823B9F08091AC05813099F421
:105950009091CD0490FF03C08093B60536C0D093DC
:10596000A805C093A7051093AA050093A905109256
:10597000810043982AC08091CD0480FF06C00E9418
:10598000C9070E94421A81E01EC08091CD0481FFA8
:1059900006C08091CD040E947C0391E0811190E0CB
:1059A0008091CD0482FD02C0913079F4E090B4047E
:1059B0000E9424049091B4049E1105C08091CD04EE
:1059C0000E947C0302C00E9491031092CD0483E0E8
:1059D0000E9491038091B5058111FCCF8091B6049E
:1059E0008F5F8093B604AACF5058BB27AA270ED04A
:1059F00078C141D130F046D120F031F49F3F11F40D
:105A00001EF436C10EF4E095E7FB2CC1E92F8BD1D3
:105A100080F3BA17620773078407950718F071F4CB
:105A20009EF5A3C10EF4E0950B2EBA2FA02D0B010D
:105A3000B90190010C01CA01A0011124FF27591BD3
:105A400099F0593F50F4503E68F11A16F040A22FD9
:105A5000232F342F4427585FF3CF4695379527954A
:105A6000A795F0405395C9F77EF41F16BA0B620B49
:105A7000730B840BBAF09150A1F0FF0FBB1F661F90
:105A8000771F881FC2F70EC0BA0F621F731F841FD3
:105A900048F4879577956795B795F7959E3F08F0F9
:105AA000B3CF9395880F08F09927EE0F97958795B8
:105AB0000895F0D0E39526C10CD013C1E3D040F097
:105AC000DAD030F021F45F3F19F0CCC051114EC153
:105AD000CFC029D198F39923C9F35523B1F3951B6E
