:100000000C945B030C9478030C9478030C94150601
:100010000C9478030C9478030C9478030C94780374
:100020000C9478030C94DD1D0C9478030C94481BFD
:100030000C9478030C94361B0C94511A0C9478038E
:100040000C9478030C9478030C9478030C94780344
:100050000C9478030C9464050C9478030C94780346
:100060000C948A170C94780305A84CCDB2D44EB9E1
:100070003836A9020C50B9918688083CA6AAAA2A4B
:10008000BE000000803F000000000000005F000094
:100090000007000700147F147F14242A7F2A1223EC
:1000A0001308646236495522500005030000001C05
:1000B0002241000041221C00082A1C2A0808083E90
:1000C00008080050300000080808080800606000B8
:1000D0000020100804023E5149453E00427F400086
:1000E00042615149462141454B311814127F102776
:1000F000454545393C4A49493001710905033649AE
:10010000494936064949291E003636000000563650
:10011000000000081422411414141414412214087D
:10012000000201510906324979413E7E1111117ECA
:100130007F494949363E414141227F4141221C7F4E
:10014000494949417F090901013E414151327F0836
:1001500008087F00417F41002040413F017F081493
:1001600022417F404040407F0204027F7F0408100C
:100170007F3E4141413E7F090909063E4151215ED2
:100180007F09192946464949493101017F01013F4B
:100190004040403F1F2040201F7F2018207F6314D5
:1001A0000814630304780403615149454300007F48
:1001B0004141020408102041417F00000402010275
:1001C0000440404040400001020400205454547850
:1001D0007F484444383844444420384444487F38B5
:1001E00054545418087E090102081454543C7F08E2
:1001F00004047800447D40002040443D00007F100E
:10020000284400417F40007C041804787C080404E2
:100210007838444444387C14141408081414187CA6
:100220007C080404084854545420043F4440203CB3
:100230004040207C1C2040201C3C4030403C442856
:100240001028440C5050503C4464544C4400083630
:10025000410000007F0000004136080008082A1C09
:1002600008081C2A0808010000000000011700000F
:100270000000030300030000050A1F0A1F0A05020D
:10028000151F1508031904130000040204020000DE
:10029000010300000000020E1100000002110E0018
:1002A0000000030A040A000003040E040000021008
:1002B0000800000003040404000001100000000016
:1002C000031804030000031F111F000003121F1076
:1002D0000000031D151700000315151F000003077C
:1002E000041F00000317151D0000031F151D00004B
:1002F00003011D030000031F151F00000317151F36
:100300000000010A0000000002100A0000000204C0
:100310000A000000030A0A0A0000020A04000000A2
:10032000030115020000040E04020000031E051E56
:100330000000031F150A0000030E11110000031F27
:10034000110E0000021F15000000021F0500000032
:10035000030E111D0000031F041F0000011F0000F9
:10036000000002100F000000031F041B0000021F0A
:1003700010000000051F0204021F041F02041F00DA
:10038000030E110E0000031F050200000402151DDC
:100390001200031F051A00000312150900000301D3
:1003A0001F010000031F101F0000030F100F0000AB
:1003B000050F100C100F031B041B000003031C038C
:1003C0000000031915130000021F110000000314A0
:1003D0000814000002111F000000030201020000C7
:1003E00003101010000002010200000003041F119E
:1003F0000000011F0000000003111F04000004049E
:10040000150E040004040E1504004932433A20423C
:1004100055535F4552524F520D0A004932433A201C
:100420004E4F5F494E464F0D0A004932433A205322
:10043000542D3E444154415F4E41434B206F722046
:100440004C4153545F444154410D0A004932433AF0
:100450002053542D3E444154415F41434B0D0A000B
:100460004932433A2053542D3E534C415F41434B54
:100470000D0A004932433A2053522D3E53525F53E6
:10048000544F500D0A004932433A2053522D3E44F6
:100490004154415F4E41434B0D0A004932433A20DB
:1004A00053522D3E444154415F41434B0D0A004994
:1004B00032433A2053522D3E534C415F41434B0D42
:1004C0000A004932433A204D522D3E534C415F4180
:1004D000434B0D0A004932433A204D522D3E4441D0
:1004E00054415F41434B0D0A004932433A204D5479
:1004F0002D3E4152425F4C4F53540D0A0049324346
:100500003A204D54522D3E534C415F4E41434B20B7
:100510006F72204D542D3E444154415F4E41434B38
:100520000D0A004932433A204D522D3E4441544178
:100530005F4E41434B0D0A004932433A204D542D42
:100540003E534C415F41434B206F72204441544124
:100550005F41434B0D0A004932433A204D2D3E5333
:10056000544152540D0A009292009200749200AECF
:100570000000570000740000570049000062006E40
:10058000006862005792AEC4009BAE009200748275
:100590006E0000AEA49B8A0092005C6274006274DC
:1005A0008200AEA49B8A009200E800E8E800000008
:1005B0008A00008200740000007474007400748269
:1005C0000092740062570000747400740074829288
:1005D000000092740057005C00629B009B62000068
:1005E0006EC4C4C4AE9B927400625700006E9B0040
:1005F0009B9B9282744900493A0000000003030368
:1006000003030303030303060303060303030306B1
:1006100003030303030303030303030303030303AA
:100620000303030303030306060303030303030394
:100630000303030303030306030303030303030387
:1006400003030303060603030303060303060C0365
:100650000303030303030303030303030306030367
:100660000303030303030C0C030303030603030345
:100670000303030303060404040404040303030341
:100680000303060303030304040403030303030C2B
:100690000C0C0C000E0E1D0E1D2B0F3A0E2B0F48CE
:1006A0000A520F610A520F000E0E1D0E1D6B0E79BD
:1006B0000D6B0E86100011241FBECFEFD8E0DEBFF9
:1006C000CDBF14E0A0E0B1E0EEE7FAE602C005908D
:1006D0000D92A83EB107D9F716E0A8EEB4E001C02C
:1006E0001D92A232B107E1F70E94DF1E0C943D3546
:1006F0000C940000282F8091EB0490E033E0880FE9
:10070000991F3A95E1F7E0917A05F0917B05E80FA2
:10071000F91F0680F781E02D309711F480E00895ED
:1007200080914D058093EA04822F099581E0089518
:10073000282F8091EB0490E043E0880F991F4A95A1
:10074000E1F7E0917A05F0917B05E80FF91F8091C0
:100750004D058093EA048091E8048130C1F48091D2
:10076000170680938A058091180680938F058091E3
:10077000110680938E0580911306809388058091E1
:100780001B0680937E0580911D068093770521309E
:10079000C1F480918A0580938B0580918F058093A9
:1007A000840580918E0580938905809188058093CA
:1007B0007C0580917E0580937405809177058093F8
:1007C00072058081882309F455C0233009F04AC09E
:1007D0001092E90490911906913059F480917605B0
:1007E0008130E9F0909376059093E9041092EE043D
:1007F00016C09091880580917C05981751F49091CE
:100800007E0580917405981721F4809176058230D9
:1008100031F082E08093760581E08093E9040480E2
:10082000F581E02D09958091E8048130C1F4809133
:100830008A0580938B0580918F0580938405809134
:100840008E05809389058091880580937C05809131
:100850007E058093740580917705809372051092D0
:10086000ED04089581E08093ED040280F381E02D92
:10087000822F099508958091EB048F5F8093EB049C
:100880008091EB04893010F01092EB048091EB041E
:1008900090E053E0880F991F5A95E1F7E0917A05AF
:1008A000F0917B05E80FF91F81810895282FFB0146
:1008B0006AE00E94AA34805D8083822F0E94AA345D
:1008C000905D9183128208950F930091800581E2DB
:1008D0006EE041E020E031E00E944211009180058D
:1008E00082E16EE141E02BE031E00E94421180E3C1
:1008F00095E728EC30E0F9013197F1F70197D9F746
:1009000086EA9EE064E60E94961B80EA9FE064E629
:100910000E94961B0F910895BF92CF92DF92EF92A3
:10092000FF920F931F93DF93CF9300D000D000D09E
:10093000CDB7DEB7B82ED62E142FC090EC04809120
:10094000E904813009F05FC0809176058130E9F4D7
:10095000809173057E010894E11CF11CB7010E948F
:1009600056048AE38B8380917F05BE016C5F7F4FC5
:100970000E945604009180058B2D6D2D40E097015B
:100980000E9442111130A1F13EC0009171056150E9
:100990008B2D815043E127E00E941C141092EE043D
:1009A000113089F580E28983E0917E050091800510
:1009B000F0E0EE0FFF1FE05EFC4F208131818B2DB8
:1009C0006D2D40E00E944211182F80918805BE01D4
:1009D0006E5F7F4F0E94560400918005812F8B0D22
:1009E0006D2D40E09E012F5F3F4F0E944211810F0D
:1009F000873148F40091710547E1481B8B0D6D2D3F
:100A000025E00E941C148091EA04813079F420E0F2
:100A10008C2D90E08F70907008970CF021E0809101
:100A2000EE042817B1F02093EE0406C08091EE0486
:100A3000813079F41092EE04C0907105DA948B2D18
:100A400081506D2D43E127E002E074E0E72E0E9423
:100A5000651226960FB6F894DEBF0FBECDBFCF91BC
:100A6000DF911F910F91FF90EF90DF90CF90BF909B
:100A7000089526982E9A81E080936800EBE6F0E0D6
:100A800080818064808382E080937C0010927B0070
:100A9000EAE7F0E08EE880838081806480830895B7
:100AA00080917A00877F80937A0080917A008064B9
:100AB00080937A0080917A0084FFFCCF20917800A7
:100AC00030917900C90108951F920F920FB60F92CD
:100AD00011242F933F934F935F936F937F938F9343
:100AE0009F93AF93BF93EF93FF9378948091780097
:100AF0009091790022E0803E920770F01092F1040C
:100B00001092EF048091F304813009F078C0809353
:100B1000F4041092F30473C022E08336920798F134
:100B20008091EF0482FD6BC080E29EE40197F1F7B3
:100B30000E945005825692408E37910508F05FC0A2
:100B40008AEF8093F20412C00E94500582569240B0
:100B50008E37910558F08091EF048B7F8093EF04DE
:100B60008091F00484608093F00449C08091F20485
:100B7000882351F78091EF0484608093EF04809183
:100B8000F10484603AC08F509140E8F08091EF0406
:100B900081FD10C080E29EE40197F1F70E945005AC
:100BA0008E5091408555914050F58091F0048260BF
:100BB0008093F0048091EF0482608093EF04809131
:100BC000F10482601AC08091EF0480FD0EC080E2C3
:100BD0009EE40197F1F70E9450058F50914078F400
:100BE0008091F00481608093F0048091EF04816033
:100BF0008093EF048091F10481608093F1048091EF
:100C00007A00886480937A00FF91EF91BF91AF9151
:100C10009F918F917F916F915F914F913F912F9114
:100C20000F900FBE0F901F9018951F920F920FB646
:100C30000F92112478940F900FBE0F901F9018956B
:100C4000982F8091F404813021F41092F7041092CF
:100C5000F4048091F10482FF0EC081E08093F304DC
:100C60008091F7048A3020F48F5F8093F70405C0E9
:100C7000892F8E5F04C01092F704892F8F5F86172B
:100C800018F00E94AA34892F08950F931F93CF93D1
:100C9000DF938C01EB0180E066E00E94C119C8017E
:100CA0000E941B0E209739F080E067E00E94C11976
:100CB000CE010E941B0EDF91CF911F910F910895DD
:100CC000EF92FF920F931F938C017B0180E066E00F
:100CD0000E94C1198DE791E00E941B0EC8010E947D
:100CE0001B0E80E067E00E94C11980E991E00E943C
:100CF0001B0EC7010E941B0E1F910F91FF90EF90DA
:100D000008951F93182F88E064E00E94C11982EAB9
:100D100091E00E941B0E80917105882339F480EBCD
:100D200091E00E941B0E82EB91E002C089EB91E002
:100D3000612F0E940A0E1F910895EF92FF920F9368
:100D40001F93E82E162FF42E022F88E063E00E94F6
:100D5000C11981EC91E00E941B0E8E2D612F4F2D49
:100D60000E94BB1BE82FF0E0EE0FFF1FE35AFC4F81
:100D7000808191810E941B0EEE2DF0E0EE0FFF1F8F
:100D8000E05EFC4F808191810C3019F46091710517
:100D900002C0609180050E940A0E80E20E94050E4A
:100DA0000D3021F4812F0E943C0E03C0812F0E9440
:100DB000370E8CE20E94050E0E3039F484E10E9459
:100DC0003C0E8F2D0E943C0E06C084E10E94370E1F
:100DD0008F2D0E94370E1F910F91FF90EF90089575
:100DE000CF92EF920F938091F6048F5F8093F60479
:100DF00080E060E00E94C11987EC91E00E941B0E28
:100E0000C09071058EE760E042E028E000E0EE244B
:100E10000E94651288E061E00E94C1198DED91E0A9
:100E20000E941B0E88E062E00E94C11982EF91E0EF
:100E30000E941B0E809112060E94370E8AE30E94C8
:100E4000050E809116060E94370E8AE30E94050E59
:100E5000809121060E94370E809120066091150630
:100E60004091140627E00E949D06809180050E9413
:100E7000810688E065E00E94C1198FEF91E00E9431
:100E80001B0E8091B4000E94370E82E192E068E26E
:100E900072E00E944506C09071058EE760E342E073
:100EA00020E10E946512C090710580E068E048E092
:100EB00028E20E9465128091F60481508093F60426
:100EC0000F91EF90CF9008950F931F93182F0091DB
:100ED000800580E0612F47E021E00E941C14009112
:100EE0008005115085E0612F41E023E00E94CE1380
:100EF00000918005115084E0612F41E025E00E94BF
:100F0000CE131F910F9108954F925F926F927F922F
:100F10008F929F92AF92BF92CF92DF92EF92FF9209
:100F20000F931F93DF93CF9300D000D0CDB7DEB7E0
:100F300080914C05882371F48091F6048F5F809333
:100F4000F604809171050E94151A8091F604815073
:100F50008093F60480914C05853009F425C28630D3
:100F600030F4882359F0843009F078C50CC38730F9
:100F700009F422C48F3009F071C5BEC485E08093A6
:100F80004C050E94F0068091F6048F5F8093F60472
:100F90008BE00E9464078091F60481508093F604F0
:100FA0008AE08093F5049AE08091F00480FD5FC5AB
:100FB0008091F004882321F48091F104882319F0B2
:100FC0009093F50405C08091F504882309F446C583
:100FD0008091F00481FFDDC11092F0048091F6044D
:100FE0008F5F8093F604809171050E94151A93E03B
:100FF000A92EB12CAC0EBD1E84E0882E912C8C0E37
:101000009D1E08EC602E712C12E0412E512C4C0ECE
:101010005D1E80914C058131B9F0823128F4853014
:1010200041F0803111F50BC0823199F08331E9F440
:1010300017C080E180934C05109290051AC081E1A1
:1010400080934C0581E009C082E180934C0582E0E9
:1010500004C083E180934C0583E08093900509C030
:1010600084E180934C0584E0F8CF85E080934C05C3
:1010700078C1F0901A068091F6048F5F8093F60491
:1010800080E060E00E94C1198EE392E00E941B0E96
:1010900000E0102F1F5F88E0612F0E94C1198FE4CC
:1010A00092E00E941B0E812F0E94370E86E592E08F
:1010B0000E941B0E802FB501A4010E94321D8B815E
:1010C0000E94370E8AE30E94050E8C810E94370E23
:1010D000012F1430F1F688E065E00E94C1198EE519
:1010E00092E00E941B0E80911A068F5F0E94370EBD
:1010F00080914C05843119F082E192E002C081E7D1
:1011000092E068E272E00E944506C090710580E0BE
:1011100068E047E028E200E0EE240E94651280913A
:10112000F60481508093F6048091F6048F5F8093DB
:10113000F60480919005880F880F880F855F0E94C4
:1011400064078091F60481508093F6048AE08093CE
:10115000F50480919005843031F0BE016F5F7F4FC0
:10116000A2010E94321D1092F70415E00AE080915E
:10117000F00480FF03C01092F004F3C08091F004EB
:10118000882321F48091F104882319F00093F50459
:1011900007C08091F504882319F410924C05E1C032
:1011A0008091F00481FF8EC01092F0041092F70439
:1011B0008091F6048F5F8093F604153019F56091E5
:1011C0009005643081F484E765E00E94C1198F2D99
:1011D0008F5F0E943C0E87E892E06BE872E00E940D
:1011E000600614E16AC06F5F82E60E94C1198981BE
:1011F0000E943C0E80E992E064E972E00E94600681
:1012000015E65BC01536D1F4609190056F5F82E6FC
:101210000E94C11989810E94370E609190056F5F0D
:1012200084E70E94C1198A810E943C0E89E992E0FC
:101230006DE972E00E94600616E63FC0143181F449
:1012400084E765E00E94C1198F2D8F5F0E94370EE1
:101250008FE090E06F2D0E942F35F0921A0618C093
:10126000609190056F5F82E60E94C11989810E949A
:10127000370E609190056F5F84E70E94C1198A81E3
:101280000E94370E69814A81809190050E94B41DA9
:101290008F2D63E775E04FE755E00E94321D809186
:1012A0004C05843119F082E192E002C081E792E0BE
:1012B00068E272E00E94450615E08091F6048150D4
:1012C0008093F6048091F00482FD04C08091F104C3
:1012D00082FF4DCF1092F0048091F6048F5F8093CF
:1012E000F604143161F4F39483E08F1508F4FF24BD
:1012F00084E765E00E94C1198F2D8F5F1FC01536EE
:1013000079F489818F5F89838981883108F0198216
:10131000609190056F5F82E60E94C11989810EC0BD
:10132000163671F48A816CE30E9420068A836091EC
:1013300090056F5F84E70E94C1198A810E943C0E6C
:101340008091F60481508093F6048091F10482FF2D
:101350000ECF8CED95E0F3013197F1F70197D9F7B6
:1013600006CF80914C05853029F080914C0588236B
:1013700009F04FCE80914C05853029F48091F0041E
:1013800081608093F0048091F60481508093F6048C
:101390006EC38091F00482FD04C08091F10482FF4D
:1013A00003CE1092F00400CE84E080934C05F090C0
:1013B0001206D0901606C09021060E94F006809179
:1013C000F6048F5F8093F60483E10E9464078091A6
:1013D000F60481508093F6048AE08093F50410921D
:1013E000F70414E0BAE09B2EA8ECAA2EB12C809151
:1013F000F00480FD3CC38091F004882321F48091A7
:10140000F104882319F09092F50405C08091F50449
:10141000882309F423C38091F00481FF6CC01092EB
:10142000F0041092F7048091F6048F5F8093F60425
:10143000143079F480E562E00E94C1198F2D0E947A
:101440003C0E80E992E064E972E00E94600615E6D5
:101450004DC01536A9F480E562E00E94C1198F2DB8
:101460000E94370E8AE30E94050E8D2D0E943C0ECD
:1014700089E992E06DE972E00E94600616E636C0E6
:101480001636A9F482E662E00E94C1198D2D0E94F1
:10149000370E8AE30E94050E8C2D0E943C0E82EAD4
:1014A00092E066EA72E00E94600617E61FC084E7D9
:1014B00062E00E94C1198C2D0E94370E82E192E0F9
:1014C00068E272E00E944506F0921206D09216067B
:1014D000C09221062091150600912006E090140686
:1014E0008C2D6D2D4F2D0E945A1C14E08091F60416
:1014F00081508093F6048091F00482FD04C08091B5
:10150000F10482FF74CF1092F0048091F6048F5F93
:101510008093F604153659F4F39487E18F1508F497
:10152000FF2480E562E00E94C1198F2D19C0163694
:1015300059F48D2D6CE30E942006D82E82E662E0DD
:101540000E94C1198D2D0CC0173661F48C2D6CE3EF
:101550000E942006C82E84E762E00E94C1198C2DEB
:101560000E943C0E8091F60481508093F604809195
:10157000F10482FF3CCF8CED95E0F5013197F1F756
:101580000197D9F734CF87E080934C05C0901506BA
:1015900010912006F09014060E94F0068091F60447
:1015A0008F5F8093F6048BE10E9464078091F604BC
:1015B00081508093F6048AE08093F5041092F7043A
:1015C00007E0FAE0DF2EE8ECAE2EB12C8091F004BB
:1015D00080FD4DC28091F004882321F48091F104B4
:1015E000882319F0D092F50405C08091F504882372
:1015F00009F434C28091F00481FF5CC01092F004C1
:101600001092F7048091F6048F5F8093F604073000
:1016100071F4812F6C2D4F2D2CE00E949D068BEADA
:1016200092E06FEA72E00E9460060CE03EC00C306F
:1016300071F4812F6C2D4F2D2DE00E949D0684EBBF
:1016400092E068EB72E00E9460060DE02EC00D3063
:1016500071F4812F6C2D4F2D2EE00E949D068DEB95
:1016600092E061EC72E00E9460060EE01EC0812FE5
:101670006C2D4F2D27E00E949D0682E192E068E2EA
:1016800072E00E944506F092140610932006C09264
:1016900015068091210660911606409112062C2DA8
:1016A000012FEF2C0E945A1C07E08091F604815014
:1016B0008093F6048091F00482FD04C08091F104CF
:1016C00082FF84CF1092F0048091F6048F5F8093A4
:1016D000F6040C3029F51F5F1D3010F011E055C0E5
:1016E000123089F48DE18C1510F47DE1C72E8F2D19
:1016F00090E00E94101C882309F047C08DE1C816B5
:1017000009F043C040C0143031F0163021F01930D8
:1017100011F01B30D1F58EE18C1508F4A2C135C053
:101720000D3001F5C3948FE18C1508F49DC1123082
:1017300061F48DE18C1508F497C18F2D90E00E9423
:10174000101C882311F58DE109C0143031F01630DA
:1017500021F0193011F01B30C1F48FE1C81609F4E3
:1017600083C113C00E3089F48F2D64E60E942006D9
:10177000F82E90E00E94101C882339F4123029F4CE
:101780008CE18C1510F46CE1C62E812F6C2D4F2D41
:10179000202F0E949D068091F60481508093F604CC
:1017A0008091F10482FF12CF8CED95E0F501319725
:1017B000F1F70197D9F70ACF8FE080934C050E948B
:1017C000F0068091F6048F5F8093F60483E20E9416
:1017D00064078091F60481508093F6048AE0809338
:1017E000F5041FE05AE0D52E48ECE42EF12C01E080
:1017F0008091F00480FF05C06091710588E090E061
:10180000A3C08091F004882321F48091F1048823FF
:1018100019F0D092F50409C08091F504882329F4C9
:101820006091710588E090E0A5C08091F00481FF8F
:1018300025C01092F0048091F6048F5F8093F60427
:101840001F3061F4809171050E94810686EC92E060
:101850006CED72E00E9445061AE60BC0809180058F
:101860000E94810682E192E068E272E00E944506F1
:101870001FE08091F60481508093F6048091F0047B
:1018800082FD04C08091F10482FFB2CF1092F00477
:101890001A3631F580917105882329F4009371057A
:1018A0001092800504C0109271050093800580910C
:1018B000F6048F5F8093F6040E94F00686EC92E0B7
:1018C0006CED72E00E94450683E20E9464078091FD
:1018D00071050E9481068091F60481508093F60480
:1018E0008091F10482FF84CF8CED95E0F701319770
:1018F000F1F70197D9F77CCF88E080934C050E94DF
:10190000F0068091F6048F5F8093F60481E792E001
:1019100060E070E00E9445068BE20E9464078091BF
:10192000F60481508093F6048AE08093F50418E071
:101930000AE038ECE32EF12C8091F00480FF07C020
:101940006091B40083E090E00E942F3590C08091B8
:10195000F004882321F48091F104882319F0009386
:10196000F5040BC08091F504882339F46091B4002C
:1019700083E090E00E942F3571C08091F00481FFD8
:101980002DC01092F0048091F6048F5F8093F604CE
:10199000183081F484E765E00E94C1198091B40099
:1019A0000E943C0E86EC92E06CED72E00E944506CF
:1019B00019E60FC084E765E00E94C1198091B40068
:1019C0000E94370E81E792E068E272E00E944506CD
:1019D00018E08091F60481508093F6048091F00421
:1019E00082FD04C08091F10482FFA6CF1092F00422
:1019F000193641F58091B4008F5F8093B4008091D7
:101A0000B400813110F01092B4008091F6048F5F21
:101A10008093F6040E94F00686EC92E06CED72E092
:101A20000E9445068BE20E94640784E765E00E94FD
:101A3000C1198091B4000E943C0E8091F60481503F
:101A40008093F6048091F10482FF76CF8CED95E0CF
:101A5000F7013197F1F70197D9F76ECF10924C0546
:101A600006C02EE1C22E91CECC24C3948ECE0F9010
:101A70000F900F900F90CF91DF911F910F91FF90DA
:101A8000EF90DF90CF90BF90AF909F908F907F901E
:101A90006F905F904F900895482FDB0130E021C098
:101AA0004423E9F4892F81568A3110F420E205C0DD
:101AB0009B3710F420E001C02AE1892F90E0809745
:101AC000821B9109FC01EE0FFF1FE80FF91FEE0FBB
:101AD000FF1FEA59FD4FE4913F5F3E0F01C03A5F9F
:101AE00011969C919923E1F6832F0895A82FB0E0D9
:101AF000FD01EF56FA4FE08181E090E002C0880FCF
:101B0000991F6A95E2F7413011F48E2B02C080953F
:101B10008E23E81711F480E00895AF56BA4F8C93E6
:101B200081E00895282F9091F9048091FA04981784
:101B300011F480E00FC08091F804E091FB04F09173
:101B4000FC04882321F4EA59FD4F849103C0EA572D
:101B5000FF4F8491222309F480950895282F8091C6
:101B6000F804882301F5822F81568A3110F440E26F
:101B700005C02B3710F440E001C04AE1822F90E00D
:101B80008097841B91099C01220F331F280F391F56
:101B9000220F331FF901EA59FD4FE491E093FA0453
:101BA0002F5F3F4F08C085E08093FA04289F900183
:101BB0001124205A3040C9010895FF920F931F93BA
:101BC000CF93DF93F62E95E0899FC0011124EC019D
:101BD000CA51D0408C0105511040FE018491FF2074
:101BE00009F480950E94E4192196C017D107A9F73E
:101BF000FF2011F48FEF01C080E00E94E419DF9113
:101C0000CF911F910F91FF900895609180050E94E0
:101C1000DD0D08951F93CF93DF93EC01162F04C0C1
:101C2000612F0E94DD0D219688818823C9F7DF91FD
:101C3000CF911F910895609180050E940A0E08952A
:101C40000F931F93182F062F6AE00E94AA34805D1D
:101C5000602F0E94DD0D812F6AE00E94AA34892F37
:101C6000805D602F0E94DD0D1F910F91089560919E
:101C700080050E94200E0895609171050E94200E3B
:101C80000895EF92FF920F931F93E82E142F262FA3
:101C9000277081E090E0082F01C0000F2A95EAF735
:101CA000F62EF694F694F6948E2D6F2D0E94C1199F
:101CB0000E946A190E946A19113019F4102F182B0A
:101CC00003C0102F10951823811739F08E2D6F2D1A
:101CD0000E94C119812F0E94E4191F910F91FF905A
:101CE000EF900895DF92EF92FF920F931F93CF939F
:101CF000DF93182FD42E0E94C11961E9E62E65E00A
:101D0000F62EC0E0D0E0012F10E015C0CC2339F052
:101D1000CE01800F911F8F739070892B21F40E9448
:101D20006A19F70180830E946A19F70181937F0184
:101D30000E94CA192196CD1548F3DF91CF911F91CA
:101D40000F91FF90EF90DF9008952F923F924F9266
:101D50005F926F927F928F929F92AF92BF92CF923B
:101D6000DF92EF92FF920F931F93DF93CF93CDB744
:101D7000DEB766970FB6F894DEBF0FBECDBF982EC4
:101D8000862EF42EB22ED12EED86CE86AF864093CF
:101D9000F804842F602F712F0E944C0D2E85829F96
:101DA000802D11248C87FF2011F087E001C085E091
:101DB0003D85839F302D11243C8342E0B41639F0D9
:101DC0009F825FEF58871E8287E08D830AC0815013
:101DD0008E839394992DEC819E1B9F83F1E0F8876D
:101DE0001D82282D2695269526952A87182D177051
:101DF000202F3D2DC9019E8B8D8B3C012224DD249B
:101E00003324AA241B8619863C85832E9924A40199
:101E1000485F5F4F5C8B4B8BF7C0112329F052E07A
:101E2000B51661F0173019F081E0B81639F0C40129
:101E30008D199109089714F008E022C08F816A85F6
:101E40004C810E94720E92E0B91651F4C401810FC8
:101E5000911D8D19910909978CF008E0011B10C0A4
:101E6000E1E0BE1659F48B899C898D199109811B7B
:101E7000910909971CF0012F0F5F02C00C850D1905
:101E80008F816A850E94C119402F50E088E090E060
:101E9000841B950B2FEF30E002C0359527958A956E
:101EA000E2F730E082E0B81639F4012E02C0220FCA
:101EB000331F0A94E2F70AC0812F90E00196841B39
:101EC000950B02C0220F331F8A95E2F7422E81E064
:101ED00090E002C0880F991F1A95E2F789835E800F
:101EE000CC24EE24F985EF2FF0E0F98BE88B2095D8
:101EF0002A8B7AC0083029F0EC2DF0E0EF56FA4F2B
:101F00003080EE2009F060C039853093F904F30188
:101F100080810E94AE0D28893989820F931F90938A
:101F2000FC048093FB048F850E94920D282F41E0D2
:101F300050E0052C02C0440F551F0A94E2F75B8362
:101F40004A8319817E8A6D8AAB84F02E22243AC09E
:101F5000822F90E0EA81FB818E239F23892B09F059
:101F6000212AF2E0BF1611F4110F01C01695A394B7
:101F70003E85A31631F59091F9048091FA049817E3
:101F800049F09F5F9093F9048091FB049091FC04C9
:101F900001960EC04D895E894F5F5F4F5E8B4D8B02
:101FA0001092F904FA018081882331F00E94AE0D6D
:101FB0009093FC048093FB048F850E94920D282F40
:101FC000AA24FA94FF2021F6822D8421FA893F2247
:101FD000382A832D0E94E419E3942D85E21619F422
:101FE0003885531AEE24C3944C81C41608F482CF6A
:101FF0005A858885580F5A87D00E9091F904998791
:102000001D81AB866D887E88EC85DE1608F405CFD1
:102010008E2F66960FB6F894DEBF0FBECDBFCF9160
:10202000DF911F910F91FF90EF90DF90CF90BF90C5
:10203000AF909F908F907F906F905F904F903F9068
:102040002F9008952F923F924F925F926F927F92BE
:102050008F929F92AF92BF92CF92DF92EF92FF92B8
:102060000F931F93DF93CF93CDB7DEB72D970FB6A6
:10207000F894DEBF0FBECDBF8C83F62E142F2F83B6
:1020800038870D832E2CCE824093F804842FB9011B
:102090000E944C0D2D81829F302C1124112311F0B0
:1020A00087E001C085E06F2C66946694669477E0C3
:1020B000E72EEF20829D402C1124BB241B82CC24D0
:1020C00000E05524882477249924AA24842D90E0C4
:1020D0009B878A87BAC0EE2041F48A859B858B193D
:1020E0009109089714F018E012C08C81662D432DD9
:1020F0000E94720E8A859B858E0D911D8B19910908
:1021000009971CF018E01E1902C0142D1B198C81B0
:10211000662D0E94C11988E090E0811B9109EFEFC4
:10212000F0E002C0F595E7958A95E2F70E2C01C024
:10213000EE0F0A94EAF7EA83F1E00E2C01C0FF0FDC
:102140000A94EAF7F9832F813885C9019D878C8726
:10215000FF24DD24212F270D29876FC09091F904DA
:102160008091FA04891710F0FF2069F41092F904A5
:10217000EC85FD858191FD87EC870E94AE0D9093E3
:10218000FC048093FB04FD81DF1611F0FF2099F41D
:102190008E810E94920D8B838091F9048F5F8093D2
:1021A000F9048091FB049091FC0401969093FC0447
:1021B0008093FB04DD24183029F0EF2DF0E0EF567A
:1021C000FA4FC080DD2071F52B81822F90E031E045
:1021D000231679F4072C02C0959587950A94E2F7A7
:1021E000A82E0E2C01C0AA0C0A94EAF78984052DAA
:1021F00018C0072C02C0959587950A94E2F7052D23
:10220000872C212F9981AA240AC080FDA92A0F5F5B
:10221000021519F48695839400E0990F215022232A
:10222000A1F79A80892D8095C8228A2D8921C82AF4
:102230008C2D0E94E419D394F394F31408F48ECFF8
:102240006394B10EEE24782C502EB41408F443CFCE
:10225000832D2D960FB6F894DEBF0FBECDBFCF9164
:10226000DF911F910F91FF90EF90DF90CF90BF9083
:10227000AF909F908F907F906F905F904F903F9026
:102280002F900895CF92EF920F93C02E01E0EE248D
:10229000E3940E9422100F91EF90CF9008952F9217
:1022A0003F924F925F926F927F928F929F92AF92E6
:1022B000BF92CF92DF92EF92FF920F931F93DF9323
:1022C000CF93CDB7DEB728970FB6F894DEBF0FBE19
:1022D000CDBF0F83481B922F961BE42FFF27E7FDEE
:1022E000F095F7FF03C0F095E195FF4F4E2EE92FD3
:1022F000FF27E7FDF095F7FF03C0F095E195FF4F4D
:102300005E2E14161CF431E03E8306C0442311F403
:102310001E8202C05FEF5E8319161CF433243394CF
:1023200006C0992311F4332402C033243A94452D76
:102330004695942D9695B62EB694B694B694269559
:102340002695269530E02B19310937FF03C03095CB
:1023500021953F4FE22FEF5FED834B83292E982E7F
:10236000662E1C821A828CC0482D4F5F411B812F24
:102370006B2D0E94720E892D811B68854F810E94F2
:10238000760DA82E77247394451428F4CA80FB8018
:10239000092DD62C4CC0CA80E22C092DD62C1982CE
:1023A00024C0E50CE41450F0E418D30C8D2D869570
:1023B00086958695B81611F0F1E0F9833E81030FFA
:1023C00059815130B9F1772039F4011708F4102FF1
:1023D000801650F4802E08C06D2D6770802F811BF1
:1023E0004F810E94760DA82AC394C414D0F222C053
:1023F000F40CF51418F0F5188E81080FD30C8D2D00
:10240000869586958695B816B9F4772039F4011724
:1024100008F4102F801650F4802E08C06D2D6770C0
:10242000802F811B4F810E94760DA82AC394C5146A
:10243000F8F202C0FB8001C0E22C91E0791609F0AD
:1024400093CFA91699F4812F6B2D0E94C119612E8B
:1024500077240AC0E12FF0E0E619F709EF56FA4FAA
:1024600080810E94E4191F5F8116A0F7C394CA827D
:10247000B30CEC81EF5FEC836D2C902E2E2CFB8245
:10248000FC813D81F31740F4192D892CAA2477246F
:10249000562D5770588778CF28960FB6F894DEBF20
:1024A0000FBECDBFCF91DF911F910F91FF90EF90A5
:1024B000DF90CF90BF90AF909F908F907F906F9064
:1024C0005F904F903F902F9008952F923F924F92A0
:1024D0005F926F927F928F929F92AF92BF92CF92B4
:1024E000DF92EF92FF920F931F93DF93CF93CDB7BD
:1024F000DEB727970FB6F894DEBF0FBECDBF582EBC
:10250000362F4A83922E1E2DCB8287E0C82EC622FC
:102510000023B1F4123039F48C2D63E00E94AA3408
:10252000092F01951EC0133031F48C2D63E00E94F9
:10253000AA34092F16C0113009F014C1062F26C085
:10254000013039F5123079F48C2D90E0820F911D15
:10255000909581959F4F63E070E00E94D734082FDB
:102560000F5F20E02DC0133059F48C2D90E00197BF
:10257000820F911D63E070E00E94D734082FF1CFE5
:10258000113009F0EFC00C2D0F5F020F017020E039
:1025900019C0023009F0E6C0252D123029F4862F2B
:1025A00090E08C19910907C0133009F0DCC08C2D24
:1025B00090E0861B910963E070E00E94D734082FF9
:1025C00007FD0D5FA32EA694A694A694BB24FF241A
:1025D000EE24DD24692C7724B8E02B2E312C312F0A
:1025E00032503C83822F992787FD90959F838E835D
:1025F000B5C0CC2049F4C3018B199109089724F088
:10260000143011F0198207C0852D6A2D4A810E946D
:10261000720E91E09983852D6A2D0E94C119EC2DCF
:10262000F0E093012B193109C1018E1B9F0B281774
:1026300039071CF4C92CCB1803C0A8E0AC19CA2E6A
:10264000BC81B23070F4802F992787FD90952E8140
:102650003F81820F931F63E070E00E94D734D82E31
:1026600011C0113079F4802F992787FD9095AE81A4
:10267000BF818A279B2780FF03C0A5E5EA2E02C001
:10268000FAEAEF2EC1018C1991092FEF30E002C058
:10269000359527958A95E2F7C90102C0880F991FE1
:1026A000EA95E2F7882E482E409490E049C039819F
:1026B000313029F4E92FF0E0EF56FA4FF080112382
:1026C00019F4EE24EA9421C0153011F4EE241DC053
:1026D000113031F48B818130B9F09923B1F414C0F9
:1026E000123039F4ED2DFF27E7FDF095E559FC4F49
:1026F00008C0133041F4ED2DFF27E7FDF095E259B6
:10270000FC4FE08002C0EF2CE094AB81AA2319F4C7
:10271000143009F0E094B8E0CB1611F4FE2C04C09C
:102720008E2D8821F420F82A8F2D9D830E94E41994
:102730009D81E2E0DE1611F4DD2401C0D3949F5F99
:10274000FA819F1708F4B3CF123011F40E5F03C063
:10275000133009F40F5FA394BC0CCC24B91408F413
:1027600048CF03C020E000E02DCF27960FB6F894A5
:10277000DEBF0FBECDBFCF91DF911F910F91FF90B4
:10278000EF90DF90CF90BF90AF909F908F907F9011
:102790006F905F904F903F902F9008958F929F92EF
:1027A000AF92BF92CF92DF92EF92FF920F931F935F
:1027B000B82E962E142FD22E802E442391F1222350
:1027C00081F14330A8F0A82EA3949EEFF92EF40EC9
:1027D0008A2D4F2D21E002E0EE24C82C0E946512C4
:1027E000692D61506D0D8A2D4F2D21E00E946512DB
:1027F0008B2D692D41E02D2D02E0EE24C82C0E9486
:102800006512123018F481E08D1558F4BA948B2DAE
:10281000810F692D41E02D2D02E0EE24C82C0E948D
:1028200065121F910F91FF90EF90DF90CF90BF90B6
:10283000AF909F908F900895CF92EF920F93C02EFC
:1028400002E0EE240E9465120F91EF90CF90089560
:102850004F925F926F927F928F929F92AF92BF92B0
:10286000CF92DF92EF92FF920F931F93CF93DF935C
:10287000582E462E622E702EF42E842F90E0880F54
:10288000991F909581959F4FE3E0DE2ED80E862EFE
:10289000AA24A39410E0C0E0D0E0992468C0BF143B
:1028A00009F1D7FC1FC021E0A21609F4110F642D15
:1028B0006F19412F4F5F2F2D332727FD3095220FA2
:1028C000331F852D8C1B02E0E62CC72C0E9465125D
:1028D000BB20B9F18F2D850D682D41E0292D0E9477
:1028E000651204C0BB2021F1D7FC24C0AA2091F4BA
:1028F000852D8C0F642D6F19412F4F5F2F2D33279E
:1029000027FD3095220F331F811B02E0E62CC72CD8
:102910000E946512BF1010E01F5F852D8F19682D72
:10292000412F292D02E0E62CC72C0E94651209C018
:10293000D7FE07C036E0D30E892D880FD80E1F5F53
:1029400012C08AE0D80E8F2D992787FD90959E01A1
:10295000281B390BC901880F991F880F991FD80EA2
:10296000FA94AA2410E021968A9432E0930EBC2EA9
:10297000FC160CF094CFDF91CF911F910F91FF9037
:10298000EF90DF90CF90BF90AF909F908F907F900F
:102990006F905F904F9008952F923F924F925F9269
:1029A0006F927F928F929F92AF92BF92CF92DF925F
:1029B000EF92FF920F931F93DF93CF93CDB7DEB7C4
:1029C00062970FB6F894DEBF0FBECDBF982E688712
:1029D00049872A87702E462E5524842F90E0920135
:1029E000281B390B63E0359527956A95E1F7840D2F
:1029F000951D53E0959587955A95E1F7482F4F5FC0
:102A0000421B4F838EEFE985E802C0011124F82FA5
:102A1000FD5FF9832E831D825C864B86292D30E075
:102A20003E872D873A8531503F87492D440F488B8B
:102A300069C1DD2019F41FEFEE241AC081E0D81619
:102A400061F40F3F09F458C14E2D4F5F401B802F9A
:102A50006E810E94720E102F0BC018891E19E88813
:102A6000E01A4E2D4F5F411B812F6E810E94720E26
:102A7000012FF984C98098859B83892C9A836624C9
:102A800010E01A8A198A1C8216C1EA85EE23B9F071
:102A9000FF85F23068F429893A892170307080E02E
:102AA00090E0E23011F481E090E02817390739F026
:102AB0002A85233009F0D1C0662009F0CEC0AF2CA2
:102AC000BB24A7FCB094C501840D951D43E09595EA
:102AD00087954A95E1F78215930539F5DD2099F43C
:102AE0002D853E8589899A89280F391F802F90E08E
:102AF000281739070CF4082D8E2D90E082179307C4
:102B0000A4F4E82C12C0892D801B68856F0D91E01C
:102B1000D91621F46770E9898E0F03C06770F989AF
:102B20008F1B472D0E94760D182BC2018A199B0915
:102B300033E0959587953A95E1F78215930539F538
:102B4000DD2099F42D853E8589899A89280F391FC2
:102B5000802F90E0281739070CF4082D8E2D90E077
:102B600082179307A4F4E82C12C068856F1991E0CE
:102B7000D91621F46770882D801B05C0892D801B14
:102B80006770E9898E1B472D0E94760D182B8B8567
:102B90009C8529893A89820F931F23E09595879513
:102BA0002A95E1F78215930529F5DD2099F42D8505
:102BB0003E852A0D3B1D802F90E02817390714F41D
:102BC0000F2D090D8E2D90E0821793079CF4EF2CAA
:102BD000E90C10C06A81677031E0D31621F48F2DA3
:102BE000890D801B03C0892D801B8F19472D0E94E2
:102BF000760D182B8B859C85E989FA898E1B9F0B96
:102C0000B3E095958795BA95E1F78215930529F577
:102C1000DD2099F42D853E852A0D3B1D802F90E007
:102C20002817390714F40F2D090D8E2D90E0821707
:102C300093079CF4EF2CE90C10C06B816770F1E0F6
:102C4000DF1621F48F2D890D801B03C0892D801B79
:102C50008F19472D0E94760D182BC7FE05C02C81B9
:102C6000C20E36E0C30E11C04AE0C40E8F2D992764
:102C700087FD9095E989FA89E81BF90BCF01880F48
:102C8000991F880F991FC80EFA94F2E06F1611F47D
:102C9000662401C0639429893A892F5F3F4F3A8B9C
:102CA000298B3C813C5F3C834B8141504B83839417
:102CB0008A818F5F8A839989F9160CF0E6CEDD2030
:102CC000B1F01130A1F4802F6E810E94C119102F34
:102CD000A02EBB240AC0E12FF0E0EA19FB09EF5651
:102CE000FA4F80810E94E4191F5FE116A0F7D39488
:102CF000E3E0DE1609F09DCEFE81FF5FFE832D81AD
:102D00002F5F2D833D814F81341738F40FEFEE2470
:102D1000DD248E81282E3324ACCE62960FB6F89433
:102D2000DEBF0FBECDBFCF91DF911F910F91FF90FE
:102D3000EF90DF90CF90BF90AF909F908F907F905B
:102D40006F905F904F903F902F900895459A449ACE
:102D500010924405109243051092460510924505C5
:102D600080E28093B800ECEBF0E0808184608083A7
:102D70001092FD04808181608083808180648083E3
:102D80007894089580E28093B8000895ECEBF0E029
:102D900080818F70806A80830895ECEBF0E0808101
:102DA0008F70806D808308958091BC0087FFFCCF79
:102DB00008958093BB00ECEBF0E080818F70806819
:102DC00080830895882329F08091BC008F70806CE7
:102DD00004C08091BC008F7080688093BC0008950F
:102DE0008091BB000895982FFA018091BC008E7FDE
:102DF0008093BC008091BC008F70806A8093BC007F
:102E00008091BC0087FFFCCF9E7F9093BB00809198
:102E1000BC008F7080688093BC008091BC0087FFED
:102E2000FCCF8091B900883189F091E012C0808197
:102E30008093BB008091BC008F7080688093BC0041
:102E40008091BC0087FFFCCF31966150662379F7F3
:102E500090E08091BC008F70806D8093BC00809169
:102E6000BC0084FFFCCF8091BC0081608093BC00DB
:102E7000892F08951F93CF93DF93982F162FEA0180
:102E80008091BC008E7F8093BC008091BC008F70CD
:102E9000806A8093BC008091BC0087FFFCCF91606A
:102EA0009093BB008091BC008F7080688093BC00C1
:102EB0008091BC0087FFFCCF8091B900803469F01D
:102EC00091E018C08FEF0E94E2168091BC0087FF4E
:102ED000FCCF8091BB0089931150123098F780E0AD
:102EE0000E94E2168091BC0087FFFCCF8091BB005E
:102EF000888390E08091BC008F70806D8093BC00CF
:102F00008091BC0081608093BC00892FDF91CF91BC
:102F10001F9108951F920F920FB60F9211242F93B5
:102F20003F934F935F936F937F938F939F93AF9351
:102F3000BF93EF93FF938091B900887F883609F49F
:102F4000CBC0893688F5803309F495C08133B0F45D
:102F5000803109F45AC0813138F4882309F43EC124
:102F6000883009F048C151C0803209F484C08832E9
:102F700009F453C0883109F03EC14FC0883409F4C8
:102F80007AC0893438F4883309F478C0803409F081
:102F900032C192C0883509F45DC0803609F49CC006
:102FA000803509F028C174C0803A09F4BEC0813A66
:102FB000B0F4803809F49BC0813838F4803709F4C4
:102FC0008BC0883709F017C187C0803909F48FC0DA
:102FD000883909F4A1C0883809F00DC19DC0883B2B
:102FE00009F4D1C0893B38F4883A09F4B6C0803B73
:102FF00009F001C1B2C0883C09F4E0C0883F09F47F
:10300000E7C0803C09F0F7C0D9C087E595E060E0F3
:103010000E9460208091FE0414C088E395E060E087
:103020000E94602090911F0580912005981708F05C
:10303000DAC0E92FF0E0E150FB4F80819F5F909371
:103040001F058093BB008091BC008F7080688093C7
:10305000BC00D1C083E295E060E00E9460208091D6
:1030600041059091BB00E82FF0E0EF5DFA4F9083AF
:103070008F5F809341058DEF94E0B2C089EE94E0BC
:1030800060E00E9460208091BC008F708068AFC0BB
:1030900085ED94E060E00E9460208091BB009091FB
:1030A0004105E92FF0E0EF5DFA4F80839F5F909339
:1030B000410590E00E944B2082EC94E060E00E9489
:1030C00060202091410530E08091420590E0019719
:1030D0002817390734F51EC08FEA94E060E00E949B
:1030E000602085E08093FD041092410562C08BE969
:1030F00094E060E00E946020809141059091BB00C7
:10310000E82FF0E0EF5DFA4F90838F5F80934105E9
:10311000803238F48FEF06C086E894E060E00E94C9
:10312000602080E00E94E21666C083E794E060E0E1
:103130000E9460208091BC008F70806C8093BC00E6
:10314000E0914305F0914405309709F452C0809115
:10315000410561E275E009954CC080E694E060E0CD
:103160000E94602084E08093FD04E0914505F09189
:103170004605309731F080E26FEF74E00995809357
:10318000200510921F058CE494E060E00E9460200E
:1031900090911F05E92FF0E0E150FB4F8081809373
:1031A000BB009F5F90931F0580912005981708F042
:1031B0004ACF8091BC008F70806C49CF8AE294E046
:1031C00060E00E9460208091BC008F70806C0FC016
:1031D0008BE194E060E00E9460200DC08AE094E002
:1031E00060E00E9460208091BC008F70806D8093B1
:1031F000BC001092FD04FF91EF91BF91AF919F91A0
:103200008F917F916F915F914F913F912F910F908F
:103210000FBE0F901F901895F89440985A988823E5
:1032200019F0813021F402C0409A01C05A9A8BB142
:10323000806F8BB985B18F6085B92F988AB18F70F7
:103240008AB984B1807F84B92D9A2C9A000000003D
:103250000AC02C9800000000000000002C9A00001A
:1032600000000000000089B193B187FDF2CF2C98D7
:103270002D988AB1806F8AB984B18F6084B97894AF
:1032800008951F93162FF8940E940C192F982D98CB
:103290002C9A8AB1806F8AB984B18F6084B98BB15E
:1032A0008F708BB99BB1812F807F892B8BB985B1B2
:1032B000807F85B985B11F70812B85B90000000022
:1032C0000000000000000000000000002C9878942E
:1032D0001F910895F894809147058295869586956B
:1032E00083700E940C192F9A8AB18F708AB984B1A9
:1032F000807F84B92D9A2C9A000000000000000005
:10330000000000000000000099B183B12C982D98B6
:1033100078948F70907F892B089580E060EC0E94F4
:10332000411980E06FE30E94411981E060EC0E9446
:10333000411981E06FE30E94411908958093470588
:10334000682F6F73606482958695869583700E945E
:103350004119089590914705929596959695937089
:10336000682F677060934805E92FF0E0E75BFA4F3C
:103370008081681729F06083686B892F0E9441194A
:1033800008951F93162F0E949E19812F0E94AA193B
:103390001F910895809147058F3720F080E00E94AB
:1033A0009E190895282F2F5F20934705822F90E0C4
:1033B0008F739070892B39F4822F0E949E1980910F
:1033C00048050E94AA1908951F93182FF894809118
:1033D000470582958695869583700E940C192F9AD1
:1033E0002D982C9A8AB1806F8AB984B18F6084B984
:1033F0008BB18F708BB99BB1812F807F892B8BB95B
:1034000085B1807F85B985B11F70812B85B900009A
:1034100000000000000000000000000000002C98E8
:1034200078940E94CA191F910895FF920F931F93D9
:10343000813011F0FF2402C0FF24FA9400E080E004
:10344000602F0E94C11910E08F2D0E94E4191F5FA8
:103450001038D1F70F5F083091F70E948D191F9136
:103460000F91FF9008952F982D982C9840985A9876
:10347000279A259A249A389A529A9BB19F709BB9A1
:1034800095B1907F95B99AB1906F9AB994B19F60B8
:1034900094B99FEF9093490590934A050E94151A9D
:1034A00008951F920F920FB60F9211242F933F93FE
:1034B0004F935F936F937F938F939F93AF93BF933C
:1034C000EF93FF9380911C06882329F080911C06BE
:1034D000815080931C068091F204882329F080910A
:1034E000F20481508093F20480914D05813009F0FF
:1034F00094C080914E0590914F05892B09F08DC0A5
:1035000080911E0690911F06892B09F07CC0909136
:10351000530580915205981701F58091720381300F
:10352000E1F480917103803219F41092710303C0A9
:103530008E5F80937103E09171032E2F30E0C901FB
:103540008D56994FFC018491809353052C56394F29
:10355000F9019491980F9093520580917203E09134
:103560005305813009F5109272032E2F30E0F901D6
:10357000E959FA4FE49189E0E89FC0011124909342
:1035800057058093560523503A4FF90194918FE5E2
:10359000989FC001112463E070E00E94C3347093CF
:1035A0001F0660931E0610C081E080937203109284
:1035B0005705109256058FE290E090931F06809376
:1035C0001E06EF5FE0935305209156053091570595
:1035D0002115310521F410928100439814C01092F6
:1035E000800089E08093810083E080936F0040E059
:1035F00050E060E079E08DE390E00E94EA3430939F
:1036000089002093880080911E0690911F060197E3
:1036100090931F0680931E0618C0809150059091CC
:1036200051058F5F9F4F89F410928100439810924B
:1036300051051092500580E28093710380915205EC
:103640008093530581E080937203FF91EF91BF91C6
:10365000AF919F918F917F916F915F914F913F912A
:103660002F910F900FBE0F901F9018951F920F92E1
:103670000FB60F9211248F939F9388B198E08927FA
:1036800088B99F918F910F900FBE0F901F90189542
:103690001F920F920FB60F9211248F939F9388B1B0
:1036A00098E0892788B99F918F910F900FBE0F9056
:1036B0001F9018951E9B21C0809119068130A9F595
:1036C0001092190610924F0510924E051092510556
:1036D0001092500590914D05913039F510924D059D
:1036E0001092810080E28093710380915205809353
:1036F0005305909372034398089580911906882387
:10370000A1F481E08093190610924F0510924E05A6
:10371000109251051092500590E290937103909190
:103720005205909353058093720308951F93162FAB
:103730001092800029E02093810023E020936F0005
:103740009C0140E050E060E079E08DE390E00E9471
:10375000EA34309389002093880020E533EC04C0DC
:10376000C9010197F1F719511931D0F71092810071
:1037700043981F910895CF93DF93C82FD0E0E42F93
:10378000F0E0E053F84F833010F42C963197262F59
:1037900030E02F5F3F4F2E0F3F1FCE01880F991F44
:1037A000280F391FCF019695879596958795280FF5
:1037B000391FCF0160E971E00E94C334260F371F23
:1037C000CF0164E670E00E94C334261B370BAE01C4
:1037D0004F5F5F4FCA01880F991F840F951F880F95
:1037E000991F6AE070E00E94C334C901860F971FD9
:1037F00067E070E00E94C334DF91CF910895482FB5
:103800006AE00E94AA34282F30E0B4E0220F331F70
:10381000BA95E1F7842F0E94AA34892F822B08954C
:10382000FC0183709070892B39F4CF0164E670E05D
:103830000E94C334892B49F420E030E0CF0160E9D5
:1038400071E00E94C334892B11F421E030E0822F13
:1038500008951092E80480914B058823E1F38CE3EE
:103860008093170610924B0580914B058823E1F356
:1038700081E08093E8040895CF93DF937894C8ECB7
:10388000D0E080EA9FE064E60E94961B88EE93E019
:10389000FE013197F1F70197D9F780EA9FE064E6DE
:1038A0000E94961B80E197E2FE013197F1F70197A4
:1038B000D9F7E7CFDF92EF92FF920F931F93DF9339
:1038C000CF93CDB7DEB728970FB6F894DEBF0FBE03
:1038D000CDBF162FF42ED22E19820E94FF1B8A8391
:1038E000812F0E94FF1B8B838F2D0E94FF1B8C83D7
:1038F0001D828D2D0E94FF1B8E83802F0E94FF1B37
:103900008F838E2D0E94FF1B8887F89480ED68E0DE
:10391000AE014F5F5F4F0E94F3167894882319F031
:1039200062E00E943C1C28960FB6F894DEBF0FBEE2
:10393000CDBFCF91DF911F910F91FF90EF90DF905E
:103940000895DF93CF93CDB7DEB729970FB6F894DC
:10395000DEBF0FBECDBF1982F89480ED61E0AE01ED
:103960004F5F5F4F0E94F316882319F060E00E94BA
:103970003C1C80ED67E0AE014E5F5F4F0E943A173E
:103980007894882319F061E00E943C1C7A81872F8B
:10399000829587706AE0869FC0011124272F2F70BF
:1039A000280F209321062B81822F82958770869F76
:1039B000C00111242F70280F209316068C81482FE8
:1039C00042954F70582F5F7086FF18C0829586957C
:1039D000877090E0817090709C01220F331F280F38
:1039E000391F220F331F220F331F4170469FC00122
:1039F0001124280F250F2093120607C04370469FFD
:103A0000C0011124580F509312062E81822F8295E7
:103A100083703AE0839FC00111242F70280F2093F8
:103A200015062F81822F82958170839FC0011124FA
:103A30002F70280F209320062885822F82958F7063
:103A4000839FC00111242F70280F20931406872F05
:103A5000807829960FB6F894DEBF0FBECDBFCF9108
:103A6000DF910895EF92FF920F931F93CF93DF930F
:103A70008B017A01882329F421E030E0C2E0D0E014
:103A800009C090E00197880F991F9C01275F3F4F65
:103A9000EC012A96C9010E94273568E10E94AA34E8
:103AA000F8019083CE010E9427356CE30E94AA346E
:103AB000F7019083DF91CF911F910F91FF90EF90CD
:103AC000089580E090E00E942735833C09F44BC0C4
:103AD00081E090E068E00E942F3582E090E060E0B5
:103AE0000E942F3583E090E060E10E942F3584E052
:103AF00090E061E00E942F3585E090E065E00E9453
:103B00002F3586E090E061E00E942F3588E090E05C
:103B100060E00E942F3589E090E069E00E942F3537
:103B20008AE090E06FE00E942F358BE090E06AE041
:103B30000E942F358CE090E06EE10E942F358DE0E1
:103B400090E06BE00E942F358EE090E06DE20E94E5
:103B50002F358FE090E060E00E942F3580E090E00C
:103B600063EC0E942F3508950F931F93DF93CF933B
:103B700000D0CDB7DEB769834A83882329F421E0DA
:103B800030E002E010E00AC090E00197880F991F32
:103B90009C01275F3F4F8C01065F1F4F6981C90160
:103BA0000E942F356A81C8010E942F350F900F9017
:103BB000CF91DF911F910F9108951F920F920FB631
:103BC0000F9211241F932F933F934F935F936F9303
:103BD0007F938F939F93AF93BF93EF93FF93A8959A
:103BE00080915405853349F41092540510912106B3
:103BF00080915505813059F404C08F5F809354053E
:103C0000CCC01092510510925005109255050E949B
:103C10005A1B0E94A11C80912106811709F461C0E2
:103C20008091F504882329F08091F50481508093D8
:103C3000F50490914D05913031F520914E0530916C
:103C40004F052130310551F480E28093710380915A
:103C50005205809353059093720303C021153105DB
:103C600031F02150304030934F0520934E05809124
:103C7000500590915105181619062CF40197909350
:103C800051058093500580914C05853081F08091DD
:103C90004C05873061F080914C058A3041F080916D
:103CA0004C05883021F080914C058F30D1F4809103
:103CB000F6048823B1F480E562E00E94C119809186
:103CC00012060E94370E8AE30E94050E80911606A6
:103CD0000E94370E8AE30E94050E809121060E9401
:103CE000370E80914B05882309F590911706809136
:103CF00021069817D9F080912106809317068091AC
:103D00001606809318068091120680931106809102
:103D10001506809313068091200680931B068091E0
:103D2000140680931D0681E080934B05809119064F
:103D3000813099F580914D05813091F48091500545
:103D400090915105892B61F410924D0510924F0509
:103D500010924E058FEF9FEF909351058093500581
:103D600080914D058823C9F4809121068823A9F408
:103D70009091160680917F05981779F4909112061C
:103D800080917305981749F481E080934D0588E090
:103D900097E09093510580935005FF91EF91BF916B
:103DA000AF919F918F917F916F915F914F913F91D3
:103DB0002F911F910F900FBE0F901F901895EF92AB
:103DC000FF920F931F93CF93DF9314BE88E10FB63A
:103DD000F89480936000109260000FBE8AE190E03A
:103DE0000E940B203B9A8CE3809317060E94A61634
:103DF0000E94A11C882349F080E060E04CE021E0B3
:103E000001E010E1E12E0E945A1C0E94A11C87E0F3
:103E10008093B10081E08093700078940E94611DCE
:103E200088E090E00E942735817080937105809131
:103E3000710590E0882309F491E0909380058FE06C
:103E400090E00E942735837080931A0680911A06AD
:103E500063E775E04FE755E00E94321D0E94390587
:103E60001092190610924D0510924F0510924E05B2
:103E700010925105109250050E945A1B82E084BD99
:103E800083E085BD8DE787BD80916E008260809361
:103E90006E00539A80E28093B0008091B0008360FE
:103EA0008093B0008091B10088608093B10080E180
:103EB0008093B30083E090E00E9427358093B400A4
:103EC000259A80EA9FE064E60E94961B2FE088E135
:103ED00090E00FB6F894A895809360000FBE2093F1
:103EE0006000809171050E94331A0E9464040E9450
:103EF000291C85E391E090937B0580937A051092CD
:103F0000EB0410924C0581E00E94980310E00BE452
:103F1000B8E5EB2EB2E0FB2EC0E6D9E000931C061C
:103F20008091F0048823F1F090914D059130D1F407
:103F300080914C058823B1F48091F00480FF03C088
:103F4000909355050DC0F0924F05E0924E05D09329
:103F50005105C093500510928100439810924C0572
:103F60001092F0048091F00480FF10C01092F004D1
:103F70000E9484078091F50480914C05882371F597
:103F80000E94291C81E00E94980328C08091F004BF
:103F900081FF0AC08091F0040E947A03882311F403
:103FA00011E002C01092F0048091F00482FD02C082
:103FB0001130A1F41091EB040E943B04982F8091E2
:103FC000EB04181721F0892F0E94980304C08091F8
:103FD000F0040E947A031092F00410E080914C05E6
:103FE000882379F480914B058093E80483E00E9454
:103FF00098038091E804813021F41092E804109233
:104000004B0580911C068823E1F78091EC048F5FBB
:104010008093EC0483CF9093C5008093C40088E123
:104020008093C1008EE08093C200519A5098089509
:10403000982F8091C00085FFFCCF9093C60080E050
:1040400090E00895282F982F92959F709A3030F421
:104050008091C00085FFFCCF905D05C08091C000BD
:1040600085FFFCCF995A9093C600822F90E08F7005
:1040700090700A973CF48091C00085FFFCCF2F70B0
:10408000205D06C08091C00085FFFCCF2F70295AAB
:104090002093C60008951F93182F892F0E94222075
:1040A000812F0E9422201F9108958091C00087FFD8
:1040B000FCCF8091C60008958091C000807808955B
:1040C00008950895089508950895CF92EF920F935B
:1040D0001F93182F813029F4809171050E94151AC1
:1040E00008C00091710580E060E040E828E30E948C
:1040F0001C1400915905C090800580915B05800FCC
:104100002CE0029F90011124820F60915C0541E038
:1041100023E733E0E0905A050E9422108091580571
:104120008130A1F400915905C0908005802F8295BF
:10413000880F807E90915B05890F60915C0541E05E
:1041400023E733E0E0905A050E942210113011F469
:10415000109276051F910F91EF90CF90089591E006
:104160009093580590E190935B059CE090935C05DB
:1041700092E09093590590935A0595E290935D05CE
:104180000E94652008951092580524E020935B0555
:1041900092E090935C052093590595E090935A0521
:1041A0009CE290935D050E9465200895CF92EF9266
:1041B000FF920F931F93DF93CF9300D00F92CDB751
:1041C000DEB7162F7E010894E11CF11CB7010E9496
:1041D000560400915905C090800583E1089FC001F5
:1041E0001124189F102D112480915B05810F60917F
:1041F0005C0541E09701E0905A050E9422100F9063
:104200000F900F90CF91DF911F910F91FF90EF9042
:10421000CF900895EF92FF920F931F93DF93CF9368
:10422000CDB7DEB729970FB6F894DEBF0FBECDBF6E
:1042300082E069E340E00E948C048091E8048823D6
:1042400029F48091ED04882309F493C090918805A6
:1042500080917C05981789F490917E058091740572
:10426000981759F49091770580917205981729F461
:104270008091ED04813009F04BC010915D05809173
:104280007E0560918805409177050E94BB1B0091D7
:104290008005E82FF0E0EE0FFF1FE35AFC4F20816E
:1042A000318182E1612F41E00E944211E0917E055F
:1042B00000918005F0E0EE0FFF1FE05EFC4F2081D3
:1042C00031818AE260915D0541E00E944211809156
:1042D00088057E010894E11CF11CB7010E94560478
:1042E0008CE28B8380E28C8382E38D8380E38E83F8
:1042F00080917705BE01695F7F4F0E94560400914F
:10430000800582E460915D0541E097010E944211C1
:1043100090918E0580918905981721F48091ED0484
:10432000813029F480918E0560E00E94D620909122
:104330008F0580918405981721F48091ED048130D8
:1043400029F480918F0561E00E94D6208091580564
:10435000813079F490918A0580918B05981721F42A
:104360008091ED04813029F480918A0562E00E94F9
:10437000D62029960FB6F894DEBF0FBECDBFCF91E1
:10438000DF911F910F91FF90EF900895CF93DF93EE
:10439000EC018A81803429F48B818F3111F492E011
:1043A00001C096E020E030E0FE01E20FF31FDB01E8
:1043B000A20FB31F8C9180832F5F3F4F2917A0F36B
:1043C000DF91CF9108952F923F924F925F926F921B
:1043D0007F928F929F92AF92BF92CF92DF92EF9295
:1043E000FF920F931F93DF93CF93CDB7DEB72B9739
:1043F0000FB6F894DEBF0FBECDBF382E292E7A83BC
:1044000069832B833C834D835E83EF82F886098723
:104410001A874A2C8B86CA01B9010E9460344B016D
:104420005C01DD24EE24D7FCE094FE2CC701B6012C
:104430000E9438337B018C01C501B401A8019701AA
:104440000E94FD330E940533605CE981FA8160833C
:104450006B817C818D819E810E949A329058A80147
:1044600097010E94FD330E940533615EE981FA8164
:1044700061836B817C818D819E812F813885498507
:104480005A850E9436327B018C01C8010E9460343B
:104490005B016C015524662457FC6094762CC301A3
:1044A000B2010E9438333B014C01C601B501A401A1
:1044B00093010E94FD330E940533605CE981FA811B
:1044C0006283B701C8010E949A329058A4019301F7
:1044D0000E94FD330E940533615EE981FA816383A6
:1044E0006B817C818D819E812F81388549855A859C
:1044F0000E9435327B018C01C8010E946034A40106
:1045000093010E94FD330E940533605CE981FA81CA
:104510006483B701C8010E949A329058A4019301A4
:104520000E94FD330E940533615EE981FA81658353
:10453000232D322DC901DC0120E030E00CC08D912B
:10454000E981FA81E20FF31F90812F5F3F4F8917B6
:1045500011F081E004C0FB852F1788F380E02B96D3
:104560000FB6F894DEBF0FBECDBFCF91DF911F9184
:104570000F91FF90EF90DF90CF90BF90AF909F9002
:104580008F907F906F905F904F903F902F90089505
:104590000F931F93CF93DF93EC01162F88816981CE
:1045A0004A812B81012F0E944F118A81803419F496
:1045B0008B818F3169F0888169814C812D81012F38
:1045C0000E944F118A816B814C812D810E944F1175
:1045D000DF91CF911F910F910895CF92DF92EF92CB
:1045E000FF920F931F93813009F07DC08091710578
:1045F0000E94151A0091800580E46FE14EE120E0F1
:104600000E94CC144091800580E46FE10E94410E2D
:10461000DD246D2D772767FD7095872F972F0E94DA
:10462000383322E93AE046E05FE30E94FD337B0144
:104630008C01C8010E9460342DEC3CEC40EE51E44A
:104640000E94FD330E940533C62EB701C8010E94A7
:104650009A322DEC3CEC40EE51EC0E94FD330E946E
:104660000533062F40918005615E8C2D805C0E9491
:10467000410E8D2D63E00E94B6349923B9F4DD20FC
:1046800011F401500BC083E0D81611F4C39406C096
:1046900086E0D81611F40F5F01C0CA9440918005DE
:1046A000015E8C2D805C602F0E94410ED3948CE0C3
:1046B000D81609F0AECF80E090E028E2FC01E25A83
:1046C000FA4F2083FC01EC59FA4F2083FC01E65994
:1046D000FA4F208301968630910581F71092760576
:1046E0001092750510C080917D05882361F460915A
:1046F00071058EE595E00E94C8224091800580E416
:104700006FE10E94410E1F910F91FF90EF90DF909B
:10471000CF90089591E090937D050E94ED22089539
:1047200010927D050E94ED2208953F924F925F9274
:104730006F927F928F929F92AF92BF92CF92DF92B1
:10474000EF92FF920F931F93DF93CF93CDB7DEB716
:10475000A2970FB6F894DEBF0FBECDBF3090EC0429
:104760008091E904813009F0BDC0809176058130E7
:1047700009F0AEC060917F0570E080E090E00E949B
:10478000363320E537E746ED5DE30E94FD337B01DC
:104790008C01C8010E9460346F8B788F898F9A8F4B
:1047A000B701C8010E949A326B8F7C8F8D8F9E8FCC
:1047B00080917305E0907F056CE00E94AA34692F18
:1047C00070E0882777FD8095982F0E94383322E982
:1047D0003AE046E05FE30E94FD335B016C01FF2499
:1047E00000E010E0C801B7010E94363325E33AEF3C
:1047F0004EE05CE30E94FD339B01AC01C601B501B4
:104800000E9436327B018C01C8010E9460346F8F98
:1048100078A389A39AA3B701C8010E949A322B01F9
:104820003C010091800586E766E347E020E00E94B6
:10483000CC14009180056F89788D898D9A8D20E048
:1048400030E040EE50E40E94FD330E9405334B01FE
:104850005C0186E7880E6B8D7C8D8D8D9E8D20E0B2
:1048600030E040EE50EC0E94FD330E9405336B01B6
:104870007C0186E3C80E86E766E3482D2C2D0E9456
:104880004F11009180056F8D78A189A19AA120E038
:1048900030E040EA50E40E94FD330E9405334B01B2
:1048A0005C0186E7880EC301B20120E030E040EAF7
:1048B00050EC0E94FD330E9405336B017C0186E3BE
:1048C000C80E86E766E3482D2C2D0E944F110AC0C2
:1048D000009171058EE66EE241E121E10E941C1417
:1048E000109275058091EA04813079F420E0832DDF
:1048F00090E08F70907008970CF021E08091750522
:10490000281751F020937505B7C180917505813046
:1049100019F410927505B0C18091E804813021F03E
:104920008091ED04813019F41092870505C08091C3
:1049300087058F5F809387059091880580917C051E
:10494000981751F490917E0580917405981721F481
:104950008091ED04813091F5E0917E050091800514
:10496000F0E0EE0FFF1FE05EFC4F2081318182E01E
:1049700069E340E00E944211182F1E5F80E28983A4
:1049800080918805BE016E5F7F4F0E9456040091A2
:104990008005812F69E340E09E012F5F3F4F0E9419
:1049A00042118250810F883148F40091710548E12D
:1049B000481B8E5F69E325E00E941C1480917D05F1
:1049C000813011F0992440C060918A05E0908705FC
:1049D00070E080E090E00E94363320E537E746ED56
:1049E0005DE30E94FD335B016C01FF240027F7FCAF
:1049F0000095102FC801B7010E94383328E93EE224
:104A00004EEF5BE30E94FD339B01AC01C601B50193
:104A10000E9436329B01AC018EE595E0BE016B5FD2
:104A20007F4F0F2EFDECEF2EFCECFF2EFCEC0F2F3A
:104A3000FDE31F2FF02DEBE1CE2EB7E1AB2EA6E06C
:104A40008A2E0E94E321982E8091E804813031F073
:104A50008091ED04813011F044244BC060918F05AA
:104A6000E0908A0570E080E090E00E94363320E517
:104A700037E746ED5DE30E94FD335B016C01FF24E7
:104A800000E010E0C801B7010E94363329E833EC9A
:104A900044EE5AE30E94FD339B01AC01C601B5010F
:104AA0000E9436329B01AC0184E695E0BE01655F51
:104AB0007F4F0F2EFCE7EF2EF9EDFF2EF0E20F2FC8
:104AC000F0E41F2FF02DFBE1CF2EE8E0AE2EB2E098
:104AD0008B2E0E94E321482E81E0481661F09091D0
:104AE000890580918E05981731F48091ED0481300D
:104AF00011F010E044C080918E05E0908F056CE0CD
:104B00000E94AA34692F70E0882777FD8095982F3E
:104B10000E94383322E93AE046E05FE30E94FD3329
:104B20005B016C01FF2400E010E0C801B7010E94A6
:104B3000363325E33AEF4EE05CE30E94FD339B0100
:104B4000AC01C601B5010E9436329B01AC018AE678
:104B500095E0BE016F5E7F4F0F2EFCE7EF2EF9ED63
:104B6000FF2EF0E20F2FF0E41F2FF02DA4E1CA2E4C
:104B7000F5E0AF2EE6E08E2E0E94E321182F809103
:104B80007D058130C9F4981621F08091ED048130C3
:104B900099F4609171058EE595E00E94C8228EE53A
:104BA00095E0BE016B5F7F4F0E94C621609180053A
:104BB0008EE595E00E94C82281E0481621F08091A0
:104BC000ED048130E1F46091710584E695E00E9486
:104BD000C82284E695E0BE01655F7F4F0E94C62132
:104BE0006091800584E695E00E94C82280917D0551
:104BF000813071F4609180058EE595E007C081E019
:104C0000981631F46091800584E695E00E94C822F0
:104C1000113021F08091ED04813011F56091710522
:104C20008AE695E00E94C8228AE695E0BE016F5EA2
:104C30007F4F0E94C621609180058AE695E00E9420
:104C4000C82280917D05813031F4609180058EE528
:104C500095E00E94C8226091800584E695E009C035
:104C600081E0981611F0481699F4609180058AE663
:104C700095E00E94C8220CC0C09071058EE66EE2DD
:104C800041E121E102E094E0E92E0E94651244CE68
:104C9000A2960FB6F894DEBF0FBECDBFCF91DF91C5
:104CA0001F910F91FF90EF90DF90CF90BF90AF904A
:104CB0009F908F907F906F905F904F903F9008955E
:104CC000AF92CF92EF92FF920F931F93DF93CF9308
:104CD00000D00F92CDB7DEB7809171050E94151AF2
:104CE00080E389831A821CE07E010894E11CF11C98
:104CF00000918005812F61E040E097010E94421100
:104D000089818F5F8983145F143891F7A0908005A3
:104D100081E06AE140E021E005E713E0EE24E3945E
:104D2000CC24C3940E94A50EA090800581E061E38D
:104D300040E021E00AE713E00E94A50E90E02DE09C
:104D4000C22E17C0112311F4963050F40091800543
:104D50008C2D6E2D45E020E09B830E94CC149B811E
:104D60001F5F8CE0E80E143069F79F5FC80E9A3021
:104D700021F010E08DE0E82EE5CF1092760510923C
:104D80007505109287050F900F900F90CF91DF91CE
:104D90001F910F91FF90EF90CF90AF9008957F9269
:104DA0008F929F92AF92BF92CF92DF92EF92FF923B
:104DB0000F931F93DF93CF93CDB7DEB7782E8A2D55
:104DC000982C8130D1F4862F6AE00E94AA34B82E44
:104DD000842F0E94AA34D82E822F0E94AA34F82E43
:104DE000802F0E94AA34882E8E2D0E94AA34A82ECD
:104DF0008C2D0E94AA34C82E19C0862F6AE00E940A
:104E0000AA34B92E842F0E94AA34D92E822F0E9450
:104E1000AA34F92E802F0E94AA34892E8E2D0E944A
:104E2000AA34A92E8C2D0E94AA34C92EB81439F4A4
:104E3000DA1429F4FC1419F4992009F446C010E09E
:104E40005DE0E52E80E0B11609F481E0D11609F4A9
:104E50008260F11609F48460E0E0811609F4E1E073
:104E6000A11609F4E260C11609F4E4608E1729F472
:104E700081E0981621F5EE2311F1AE2FB0E0FD018F
:104E8000EE0FFF1FEE56FC4F8081882319F400912E
:104E9000800502C000917105AA0FBB1FAE56BC4F22
:104EA0008E2D672D45E011962C910E9428140091BB
:104EB00080058E2D672D45E020E00E94CC141F5FF9
:104EC0008CE0E80E1A3009F0BDCFCF91DF911F9131
:104ED0000F91FF90EF90DF90CF90BF90AF909F9099
:104EE0008F907F9008958F92AF92CF92EF92FF9222
:104EF0000F93DF93CF9300D00F92CDB7DEB78091A1
:104F00007505813021F48091E804813041F0809171
:104F10007505882341F080918705882321F481E07D
:104F20000E94980320C0809187058130E1F4809130
:104F3000E804813009F06FC080917505815080933D
:104F40007505809175057E010894E11CF11CB7017F
:104F50000E9456040091800588E761E040E09701D7
:104F60000E94421158C081E06AE340E00E948C0434
:104F70008091E804882329F48091ED04882309F4C2
:104F80004AC060918B05409184052091890500916C
:104F90008A05E0908F05C0908E058090ED048DE02D
:104FA000AA24A3940E94CF2660918B05409184058A
:104FB0002091890500918A05E0908F05C0908E05AB
:104FC0008090ED0489E1AA240E94CF2660917C059F
:104FD000409174052091720500918805E0907E054E
:104FE000C09077058090ED0485E2AA24A3940E94E6
:104FF000CF2660917C054091740520917205009147
:105000008805E0907E05C09077058090ED0481E3EF
:10501000AA240E94CF260F900F900F90CF91DF917E
:105020000F91FF90EF90CF90AF908F900895FF92E7
:105030000F931F93CF93DF9380918705882309F007
:1050400070C08EE28093750581E080938705809122
:1050500071050E94151A0091800581E061E040E031
:105060002FE733E00E944211C3E9D3E0FF241EE0A2
:1050700083E0F81619F40091710502C000918005D3
:105080008EE0612F45E028810E9428140091800560
:105090008EE0612F45E020E00E94CC14FF2019F43F
:1050A0000091800502C00091710586E4612F45E002
:1050B00028850E9428140091800586E4612F45E030
:1050C00020E00E94CC14F394125F229684E0F8163C
:1050D00079F60091800589E16CE040E02DE833E04D
:1050E0000E944211C2EAD3E016E1009180052991A5
:1050F000399189E1612F40E00E944211195F10341B
:10510000A1F7C0E0D4E018E0009180052991399121
:1051100081E5612F40E00E944211195F1034A1F730
:1051200002C010928705DF91CF911F910F91FF90E0
:1051300008955F926F927F928F929F92AF92BF92EB
:10514000CF92DF92EF92FF920F931F93582EE42E8F
:10515000A22E70E080E090E00E9436339B01AC010B
:1051600060E070E080E891E40E949D323B014C01D8
:10517000FF240027F7FC0095102FC801B7010E94FB
:1051800038339B01AC01C401B3010E94FD3320E020
:1051900030E040E05FE30E9436320E940A33162F6F
:1051A000BB24CC24B7FCC094DC2CC601B5010E9402
:1051B00038339B01AC01C401B3010E94FD3320E0F0
:1051C00030E040E05FE30E9436320E940A33E62E70
:1051D000161721F48091ED048130F9F4165988E016
:1051E000F82EF50C00917105812F6F2D42E021E022
:1051F0000E941C14009171058AE0580E812F652DC4
:1052000042E021E00E941C14009180058E2D8659F9
:105210006F2D42E023E00E941C141F910F91FF901C
:10522000EF90DF90CF90BF90AF909F908F907F9046
:105230006F905F9008950F931F93CF93DF9390919A
:10524000880580917C05981759F490917E0580918E
:105250007405981729F48091ED04813009F051C04C
:1052600021E0CFE2D4E0909188058981981729F454
:1052700090917E058A81981721F02F5F2796243020
:1052800091F7809170058217E1F120937005888174
:10529000882311F412E018C06B817C8180E00E94A9
:1052A0004C0D082F6D817E816115710521F080E024
:1052B0000E944C0D080F81E890E0801B910962E08C
:1052C00070E00E94D734162F0091710580E060E0F5
:1052D00040E827E00E941C14009180052B813C814E
:1052E000812F61E040E00E9442112D813E81211515
:1052F000310539F000918005810F61E040E00E94A6
:105300004211DF91CF911F910F91089583E369E0DE
:1053100041E00E948C048091E804882321F480916C
:10532000ED048823D9F10E941B2990918A05809170
:105330008B05981721F48091ED04813041F4409160
:105340008B0520918A0580E36BE30E949928909158
:105350008F0580918405981721F48091ED048130A8
:1053600041F44091840520918F0581E26BE30E9416
:10537000992890918E0580918905981731F4809134
:10538000ED04813011F081E008954091890520916C
:105390008E0582E167E10E94992881E00895FF92DD
:1053A0000F931F93CF93DF93EC01623001F50091CF
:1053B000710580E060E144E62FE20E941C14009138
:1053C000800582E069E040E09E010E944211282FA2
:1053D00090E0C1970CF073C00091710541E3421B4E
:1053E000822F8E5F69E025E00E941C1468C08091C6
:1053F00071050E94151A0091800580E067E040E881
:1054000021E00E941C140091800580E06FE040E8DC
:1054100021E00E941C140091800585E667E041E0D0
:1054200029E30E941C148FEF809370050E941B29B2
:105430000091800582E069E040E09E010E944211F7
:105440000091800586E569E040E020E134E00E94BB
:1054500042110091800588E669E040E024E134E0F3
:105460000E9442112BE131E0FF2412E109C081E0EA
:10547000F81619F024E231E002C020E231E0115FB9
:105480000091800589E6612F40E00E944211009161
:105490008005612F6A5F88E646E127E00E94CE130F
:1054A00000918005612F675F8AE642E121E00E945A
:1054B0001C14F39483E0F816D1F610927605DF9170
:1054C000CF911F910F91FF9008952F923F924F928D
:1054D0005F926F927F928F929F92AF92BF92CF9284
:1054E000DF92EF92FF920F931F93DF93CF9300D041
:1054F00000D00F92CDB7DEB7982E6C83442E202EAD
:10550000CD823A2C30E0442737FD4095542FCA0114
:10551000B9010E9438335B016C015524662477245D
:10552000C301B2010E9436339B01AC01C601B50133
:105530000E949D325B016C01FF240027F7FC00955F
:10554000102FC801B7010E9438339B01AC01C6017E
:10555000B5010E94FD3320E030E040E05FE30E94AF
:1055600036320E940A33462E8D81682F70E08827DC
:1055700077FD8095982F0E9438339B01AC01C601BE
:10558000B5010E94FD3320E030E040E05FE30E947F
:1055900036320E940A33A62E461621F48091ED047D
:1055A000813041F51C811A192A2D2F5F8A8D853093
:1055B000C1F400918005892D612F422D0E94CE13E8
:1055C00081E08A15B8F4C09080051F5F422D4250DB
:1055D0002A2D2150892D8F5F612F00E095E0E92E63
:1055E00007C0C0908005892D612F422D01E0EA8C13
:1055F0000E9465128D817E010894E11CF11CB701A7
:105600000E9456041C811A19D12ED80C00918005D5
:10561000832D890D6D2D41E097010E94421100916B
:1056200071051150892D612F422D21E00E941C141B
:10563000182D109500917105892D6D2D432D212F69
:105640000E941C1400917105892D8F5F820D8319B2
:105650006D2D3A94432D212F0E941C14A41460F444
:10566000009171058C81880E84184A18892D682D47
:10567000422D242D0E941C140F900F900F900F901C
:105680000F90CF91DF911F910F91FF90EF90DF90DE
:10569000CF90BF90AF909F908F907F906F905F90D2
:1056A0004F903F902F900895FF920F931F938A3051
:1056B000F1F40091800588E067E141E022E20E9478
:1056C0001C140091800589E068E343E521E00E9415
:1056D0001C1408E14091800587E0602F0E94410E74
:1056E0000B5F0B33B9F78BE44DE0F42E0AC08D301D
:1056F00029F08EE43AE0F32E16E304C08EE42AE0AB
:10570000F22E1AE300918005612F40E024E231E09F
:105710000E944211009180058CE2612F40E020E25E
:1057200031E00E944211009180058F2D612F40E0F1
:105730002BE131E00E9442111F910F91FF900895DB
:10574000682F8AEB94E00E94CF298AE00E94542BB4
:1057500008952F923F924F925F926F927F928F9215
:105760009F92AF92BF92CF92DF92EF92FF920F93F0
:105770001F93DF93CF9300D000D0CDB7DEB7482E74
:10578000242EC22E102F70E0882777FD8095982F49
:105790000E94383328E339EA4BEF5EE30E94FD3381
:1057A00020E030E040E05FE30E9436320E940A339E
:1057B000562E622D70E0882777FD8095982F0E94E5
:1057C000383328E339EA4BEF5EE30E94FD3320E0F3
:1057D00030E040E05FE30E9436320E940A33662EDA
:1057E000DD24EE24D7FCE094FE2CC701B6010E9414
:1057F000383328E339EA4BEF5EE30E94FD3320E0C3
:1058000030E040E05FE30E9436320E940A33762E99
:10581000602F70E0882777FD8095982F0E9438339D
:1058200028E339EA4BEF5EE30E94FD3320E030E0ED
:1058300040E05FE30E9436320E940A33962E5714EE
:1058400030F4872C8518A6E3AA2EA71805C0852C4E
:105850008718F6E3AF2EA518882011F488248394C6
:10586000691430F4392C3618E6E3BE2EB91805C099
:10587000362C391876E3B72EB618332011F43324BA
:105880003394561431F4791421F48091ED0481306D
:1058900081F4121518F092E001E002C093E000E0FC
:1058A000C0908005842D6B2D4DE0232DE92E0E94A4
:1058B0006512012F021907FD02C050E003C08DE2FE
:1058C000898351E0112707FD109517FF03C010953C
:1058D00001951F4F402F0A3054F0FE01E50FF11DD6
:1058E000802F6AE00E94B634805D81835F5F9E01F5
:1058F0002F5F3F4FF901E50FF11D842F6AE00E94F1
:10590000B634905D90835F5FE52EFF24F901EE0DC4
:10591000FF1D1082EE0CFF1CEE0CFF1CEA948DE0C4
:1059200090E08E19910962E070E00E94D734D62E83
:10593000C62EC40C1B2D1650009180058C2D612F96
:1059400040E00E94421100917105842D612F4D2D80
:1059500026E00E941C14009171058C2D8E0D612F84
:105960004D2D26E00E941C14561419F4791409F4E4
:105970005EC0009171056B2D6150842D4DE021E0DA
:105980000E941C14AB14E0F42A2D30E0280D311DC8
:105990008B2D90E00697281739071CF4282D2A5FD5
:1059A00002C02B2D2A19222359F0C09080056A2DA0
:1059B0006650842D4DE002E055E0E52E0E94651210
:1059C000571479F4691468F4561459F4C09080059A
:1059D000842D6A2D4DE021E002E035E0E32E0E94A7
:1059E00065124A2D50E02B2D30E0230D311DCA01E8
:1059F000880D911D28173907D4F4455050402417BD
:105A0000350734F0632D6B0D282D2A0D261B04C09D
:105A1000282D2A5F6A2D6650222349F0C090800508
:105A2000842D4DE002E095E0E92E0E9465120F9072
:105A30000F900F900F90CF91DF911F910F91FF90DA
:105A4000EF90DF90CF90BF90AF909F908F907F901E
:105A50006F905F904F903F902F9008958F92AF92EC
:105A6000CF92EF920F930E948629882309F493C066
:105A700090918A0580918B05981721F48091ED040F
:105A80008130A9F4E0908B05C0908A050F9285E0E3
:105A9000EDB7FEB7818389E466E34BE32DE10FE0C8
:105AA000E2E0AE2E78EF872E0E94652A0F9090914B
:105AB0008F0580918405981751F490918A05809103
:105AC0008B05981721F48091ED04813059F4609191
:105AD000840540918F0520918B0500918A058BE309
