:100000000C945B030C9478030C9478030C944F05C8
:100010000C9478030C9478030C9478030C94780374
:100020000C9478030C94521D0C9478030C94051ACC
:100030000C9478030C94F3190C9411190C94780314
:100040000C9478030C9478030C9478030C94780344
:100050000C9478030C94A7040C9478030C94780304
:100060000C9405160C94780305A84CCDB2D44EB967
:100070003836A9020C50B9918688083CA6AAAA2A4B
:10008000BE000000803F000000000000005F000094
:100090000007000700147F147F14242A7F2A1223EC
:1000A0001308646236495522500005030000001C05
:1000B0002241000041221C00082A1C2A0808083E90
:1000C00008080050300000080808080800606000B8
:1000D0000020100804023E5149453E00427F400086
:1000E00042615149462141454B311814127F102776
:1000F000454545393C4A49493001710905033649AE
:10010000494936064949291E003636000000563650
:10011000000000081422411414141414412214087D
:10012000000201510906324979413E7E1111117ECA
:100130007F494949363E414141227F4141221C7F4E
:10014000494949417F090901013E414151327F0836
:1001500008087F00417F41002040413F017F081493
:1001600022417F404040407F0204027F7F0408100C
:100170007F3E4141413E7F090909063E4151215ED2
:100180007F09192946464949493101017F01013F4B
:100190004040403F1F2040201F7F2018207F6314D5
:1001A0000814630304780403615149454300007F48
:1001B0004141020408102041417F00000402010275
:1001C0000440404040400001020400205454547850
:1001D0007F484444383844444420384444487F38B5
:1001E00054545418087E090102081454543C7F08E2
:1001F00004047800447D40002040443D00007F100E
:10020000284400417F40007C041804787C080404E2
:100210007838444444387C14141408081414187CA6
:100220007C080404084854545420043F4440203CB3
:100230004040207C1C2040201C3C4030403C442856
:100240001028440C5050503C4464544C4400083630
:10025000410000007F0000004136080008082A1C09
:1002600008081C2A0808010000000000011700000F
:100270000000030300030000050A1F0A1F0A05020D
:10028000151F1508031904130000040204020000DE
:10029000010300000000020E1100000002110E0018
:1002A0000000030A040A000003040E040000021008
:1002B0000800000003040404000001100000000016
:1002C000031804030000031F111F000003121F1076
:1002D0000000031D151700000315151F000003077C
:1002E000041F00000317151D0000031F151D00004B
:1002F00003011D030000031F151F00000317151F36
:100300000000010A0000000002100A0000000204C0
:100310000A000000030A0A0A0000020A04000000A2
:10032000030115020000040E04020000031E051E56
:100330000000031F150A0000030E11110000031F27
:10034000110E0000021F15000000021F0500000032
:10035000030E111D0000031F041F0000011F0000F9
:10036000000002100F000000031F041B0000021F0A
:1003700010000000051F0204021F041F02041F00DA
:10038000030E110E0000031F050200000402151DDC
:100390001200031F051A00000312150900000301D3
:1003A0001F010000031F101F0000030F100F0000AB
:1003B000050F100C100F031B041B000003031C038C
:1003C0000000031915130000021F110000000314A0
:1003D0000814000002111F000000030201020000C7
:1003E00003101010000002010200000003041F119E
:1003F0000000011F0000000003111F04000004049E
:10040000150E040004040E1504004932433A20423C
:1004100055535F4552524F520D0A004932433A201C
:100420004E4F5F494E464F0D0A004932433A205322
:10043000542D3E444154415F4E41434B206F722046
:100440004C4153545F444154410D0A004932433AF0
:100450002053542D3E444154415F41434B0D0A000B
:100460004932433A2053542D3E534C415F41434B54
:100470000D0A004932433A2053522D3E53525F53E6
:10048000544F500D0A004932433A2053522D3E44F6
:100490004154415F4E41434B0D0A004932433A20DB
:1004A00053522D3E444154415F41434B0D0A004994
:1004B00032433A2053522D3E534C415F41434B0D42
:1004C0000A004932433A204D522D3E534C415F4180
:1004D000434B0D0A004932433A204D522D3E4441D0
:1004E00054415F41434B0D0A004932433A204D5479
:1004F0002D3E4152425F4C4F53540D0A0049324346
:100500003A204D54522D3E534C415F4E41434B20B7
:100510006F72204D542D3E444154415F4E41434B38
:100520000D0A004932433A204D522D3E4441544178
:100530005F4E41434B0D0A004932433A204D542D42
:100540003E534C415F41434B206F72204441544124
:100550005F41434B0D0A004932433A204D2D3E5333
:10056000544152540D0A009292009200749200AECF
:100570000000570000740000570049000062006E40
:10058000006862005792AEC4009BAE009200748275
:100590006E0000AEA49B8A0092005C6274006274DC
:1005A0008200AEA49B8A009200E800E8E800000008
:1005B0008A00008200740000007474007400748269
:1005C0000092740062570000747400740074829288
:1005D000000092740057005C00629B009B62000068
:1005E0006EC4C4C4AE9B927400625700006E9B0040
:1005F0009B9B9282744900493A0000000003030368
:1006000003030303030303060303060303030306B1
:1006100003030303030303030303030303030303AA
:100620000303030303030306060303030303030394
:100630000303030303030306030303030303030387
:1006400003030303060603030303060303060C0365
:100650000303030303030303030303030306030367
:100660000303030303030C0C030303030603030345
:100670000303030303060404040404040303030341
:100680000303060303030304040403030303030C2B
:100690000C0C0C000E0E1D0E1D2B0F3A0E2B0F48CE
:1006A0000A520F610A520F000E0E1D0E1D6B0E79BD
:1006B0000D6B0E86100011241FBECFEFD8E0DEBFF9
:1006C000CDBF14E0A0E0B1E0E4E6FDE602C0059095
:1006D0000D92AA3CB107D9F716E0AAECB4E001C02C
:1006E0001D92A230B107E1F70E94821E0C94B03631
:1006F0000C9400001092CF049091DD05913049F4E4
:10070000809132058130D9F0909332059093CF04D7
:1007100008959091440580913805981751F490916F
:100720003A0580913005981721F480913205823086
:1007300031F082E08093320581E08093CF04089508
:10074000282F8091CC0490E033E0880F991F3A95D0
:10075000E1F7E0913605F0913705E80FF91F0680C3
:10076000F781E02D309711F480E008958091220503
:100770008093CB04822F099581E008958091CC0469
:100780008F5F8093CC048091CC04893010F010925C
:10079000CC048091CC0490E043E0880F991F4A95E7
:1007A000E1F7E0913605F0913705E80FF91F8181F7
:1007B0000895809146058093470580914B0580936D
:1007C000400580914A0580934505809144058093BA
:1007D000380580913A0580933005809133058093E8
:1007E0002E0508951F93CF93DF93182F8091CC048B
:1007F00090E053E0880F991F5A95E1F7C0913605B4
:10080000D0913705C80FD91F809122058093CB0462
:100810008091CA048130C1F48091DA058093460545
:100820008091DC0580934B058091D30580934A0528
:100830008091D605809344058091DF0580933A0529
:100840008091E20580933305113011F40E94D903A1
:1008500088818823B9F0133071F40E947A03EC8107
:10086000FD8109958091CA04813011F40E94D90359
:100870001092CE0407C081E08093CE04EA81FB8110
:10088000812F0995DF91CF911F910895282FFB01AA
:100890006AE00E941D36805D8083822F0E941D3693
:1008A000905D9183128208950F9300913C0581E23F
:1008B0006EE041E020E031E00E94731000913C05C1
:1008C00082E16EE141E02BE031E00E94731080E3B1
:1008D00095E728EC30E0F9013197F1F70197D9F766
:1008E00086EA9EE064E60E94531A80EA9FE064E68E
:1008F0000E94531A0F91089526982E9A81E08093B2
:100900006800EBE6F0E080818064808382E0809381
:100910007C0010927B00EAE7F0E08EE88083808123
:1009200080648083089580917A00877F80937A0025
:1009300080917A00806480937A0080917A0084FFAD
:10094000FCCF2091780030917900C90108951F9261
:100950000F920FB60F9211242F933F934F935F93F3
:100960006F937F938F939F93AF93BF93EF93FF9377
:100970007894809178009091790022E0803E9207EF
:1009800028F01092D2041092D00473C022E0833673
:10099000920798F18091D00482FD6BC080E29EE4C2
:1009A0000197F1F70E949304825692408E37910589
:1009B00008F05FC081E08093D30412C00E949304CA
:1009C000825692408E37910558F08091D0048B7FEB
:1009D0008093D0048091D10484608093D10449C075
:1009E0008091D304882351F78091D0048460809350
:1009F000D0048091D20484603AC08F509140E8F0D6
:100A00008091D00481FD10C080E29EE40197F1F74F
:100A10000E9493048E5091408555914050F58091ED
:100A2000D10482608093D1048091D004826080934D
:100A3000D0048091D20482601AC08091D00480FDDD
:100A40000EC080E29EE40197F1F70E9493048F505C
:100A5000914078F48091D10481608093D104809199
:100A6000D00481608093D0048091D204816080930F
:100A7000D20480917A00886480937A00FF91EF918C
:100A8000BF91AF919F918F917F916F915F914F91A6
:100A90003F912F910F900FBE0F901F9018951F92AE
:100AA0000F920FB60F92112478940F900FBE0F90F3
:100AB0001F9018958F929F92AF92BF92CF92DF9224
:100AC000EF92FF920F937C016B015A01490180E084
:100AD00066E00E947C18C701602F0E94B514C60111
:100AE000602F0E94B51480E067E00E947C18C50169
:100AF000602F0E94B514C401602F0E94B5140F919D
:100B0000FF90EF90DF90CF90BF90AF909F908F902D
:100B100008950F931F93CF93DF938C01EB0180E037
:100B200066E00E947C1860913C05C8010E94B514E3
:100B3000209749F080E067E00E947C1860913C05B6
:100B4000CE010E94B514DF91CF911F910F910895AE
:100B50001F93182F88E064E00E947C1860913C0588
:100B60008DE791E00E94B51480912D05882349F40A
:100B700060913C058BE891E00E94B5148DE891E00E
:100B800002C084E991E0612F0E94B5141F9108957D
:100B9000EF92FF920F931F93082FF62EE42E122F41
:100BA00088E063E00E947C1860913C058CE991E04C
:100BB0000E94B514802F6F2D4E2D0E94781A6091DF
:100BC0003C05E82FF0E0EE0FFF1FE653FD4F80815C
:100BD00091810E94B514E02FF0E0EE0FFF1FE35764
:100BE000FD4F808191811C3019F460912D0502C068
:100BF00060913C050E94B51460913C0580E20E9422
:100C00008A141D3019F460912D0502C060913C05D5
:100C10008F2D0E94C61460913C058CE20E948A14BC
:100C20001E3019F460912D0502C060913C0584E1ED
:100C30000E94C6141E3019F460912D0502C0609107
:100C40003C058E2D0E94C6141F910F91FF90EF90CE
:100C50000895DF92EF92FF920F931F93E82E162FC5
:100C6000D42EF22E21E00F2D0E947212ED0C0E2DCB
:100C700002501150802F612F4F2D0E940E131E5FC6
:100C8000802F612F4F2D0E940E1301501350802F83
:100C9000612F4F2D0E940E131C5F802F612F4F2D4F
:100CA0000E940E131F910F91FF90EF90DF90089517
:100CB000CF92EF920F938091D5048F5F8093D504EC
:100CC00080E060E00E947C1860913C0582EA91E03F
:100CD0000E94B514C0902D058EE760E042E028E048
:100CE00000E0EE240E94801088E061E00E947C1801
:100CF00060913C0588EB91E00E94B51488E062E0C9
:100D00000E947C1860913C058DEC91E00E94B51426
:100D10008091D40560913C050E94C61460913C0509
:100D20008AE30E948A148091D90560913C050E9453
:100D3000C61460913C058AE30E948A148091E605FE
:100D400060913C050E94C6148091E5056091D8052C
:100D50004091D70527E00E94C80580913C050E947C
:100D6000A80588E065E00E947C1860913C058AED4A
:100D700091E00E94B5148091B40060913C050E94FE
:100D8000C6148DEF92E06FE373E00E948905C09076
:100D90002D058EE760E342E020E10E948010C090C4
:100DA0002D0580E068E048E028E20E9480108091F4
:100DB000D50481508093D5040F91EF90CF90089582
:100DC000BF92CF92DF92EF92FF920F931F93CF9338
:100DD000DF93D090D405F090D9051091E6050E94DC
:100DE00058068091D5048F5F8093D50420913C05EF
:100DF00080E063E147E00E9429068091D50481509C
:100E00008093D5048AE08093D40404E02AE0B22ED3
:100E1000C8ECD0E08091D10480FDF0C08091D10475
:100E2000882321F48091D204882319F0B092D4044D
:100E300007C08091D404882319F410922105DEC0E4
:100E40008091D10481FF8DC01092D1048091D5048E
:100E50008F5F8093D5040430B9F480E562E00E948E
:100E60007C1860912D058D2D0E94C61400913C05C3
:100E700088ED92E06DEE71E04BEE52E021EF31E053
:100E80000E945A0505E668C0053609F580E562E06E
:100E90000E947C1860913C058D2D0E94C6146091C3
:100EA0003C058AE30E948A1460912D058F2D0E94D3
:100EB000C61400913C0588ED92E066EF71E04BEEC0
:100EC00052E02AEF31E00E945A0506E645C0063698
:100ED00009F582E662E00E947C1860913C058F2D46
:100EE0000E94C61460913C058AE30E948A146091B6
:100EF0002D05812F0E94C61400913C0588ED92E0DB
:100F00006FEF71E04BEE52E023E032E00E945A05B1
:100F100007E622C084E762E00E947C1860913C05ED
:100F2000812F0E94C6148DEF92E06FE373E00E9460
:100F30008905D092D405F092D9051093E605009169
:100F4000D805E090E505C090D705812F6F2D4D2D78
:100F500020E00E940B1B04E08091D5048150809317
:100F6000D5048091D10482FD04C08091D20482FF17
:100F700051CF1092D1048091D5048F5F8093D50416
:100F8000053669F4D39487E18D1508F4DD2480E5F6
:100F900062E00E947C1860912D058D2D1CC00636E4
:100FA00069F4F3948BE38F1508F4FF2482E662E082
:100FB0000E947C1860912D058F2D0DC0073669F4B5
:100FC0001F5F1C3308F010E084E762E00E947C1889
:100FD00060912D05812F0E94C6148091D504815007
:100FE0008093D5048091D20482FF14CF8CED95E0DC
:100FF000FE013197F1F70197D9F70CCFDF91CF912F
:101000001F910F91FF90EF90DF90CF90BF900895C8
:10101000FF920F931F93CF93DF930E945806809106
:10102000D5048F5F8093D50420913C0580E063E276
:1010300047E00E9429068091D50481508093D50411
:101040008AE08093D4041FE03AE0F32EC8ECD0E0AD
:1010500001E08091D10480FF07C060912D0588E0F8
:1010600090E00E94A23683C08091D104882321F4AD
:101070008091D204882319F0F092D4040DC080919D
:10108000D404882349F460912D0588E090E00E9403
:10109000A236109221056BC08091D10481FF25C03A
:1010A0001092D1048091D5048F5F8093D5041F30B6
:1010B00061F480912D050E94A80589E293E065E521
:1010C00073E00E9489051AE60BC080913C050E94DE
:1010D000A8058DEF92E06FE373E00E9489051FE0A1
:1010E0008091D50481508093D5048091D10482FDF4
:1010F00004C08091D20482FFACCF1092D1041A3682
:1011000051F580912D05882329F400932D05109227
:101110003C0504C010922D0500933C058091D50438
:101120008F5F8093D5040E94580689E293E065E5BD
:1011300073E00E94890520913C0580E063E247E06E
:101140000E94290680912D050E94A8058091D50452
:1011500081508093D5048091D20482FF7ACF8CEDA8
:1011600095E0FE013197F1F70197D9F772CFDF9142
:10117000CF911F910F91FF900895BF92CF92DF9270
:10118000EF92FF920F931F93CF93DF93F090D805C8
:101190001091E505D090D7050E9458068091D5049E
:1011A0008F5F8093D50420913C0580E06BE147E0A0
:1011B0000E9429068091D50481508093D5048AE04D
:1011C0008093D40407E07AE0B72EC8ECD0E0809199
:1011D000D10480FD09C18091D104882321F480913C
:1011E000D204882319F0B092D40407C08091D404AB
:1011F000882319F410922105F7C08091D10481FF52
:101200006DC01092D1048091D5048F5F8093D50476
:101210000730A1F4812F6F2D4D2D2CE00E94C805C1
:1012200000913C0588ED92E068E072E04BEE52E000
:101230002CE032E00E945A050CE04BC00C30A1F4C7
:10124000812F6F2D4D2D2DE00E94C80500913C058A
:1012500088ED92E061E172E04BEE52E025E132E090
:101260000E945A050DE035C00D30A1F4812F6F2D7D
:101270004D2D2EE00E94C80500913C0588ED92E0BE
:101280006AE172E04BEE52E02EE132E00E945A0534
:101290000EE01FC0812F6F2D4D2D27E00E94C80545
:1012A0008DEF92E06FE373E00E948905D092D7053D
:1012B0001093E505F092D8058091E6056091D90577
:1012C0004091D40520E00F2DE12ECD2C0E940B1B68
:1012D00007E08091D50481508093D5048091D1049A
:1012E00082FD04C08091D20482FF71CF1092D1049C
:1012F0008091D5048F5F8093D5040C3031F51F5F4A
:101300001D3010F011E056C0123089F48DE18F15B8
:1013100010F46DE1F62E8D2D90E00E94CD1A8823F9
:1013200009F048C08DE1F81609F442C043C01430FA
:1013300031F0163021F0193011F01B30D9F58EE163
:101340008F15C0F55EE1F52E35C00D30F9F4F3943C
:101350008FE18F1508F445C0123061F48DE18F15CF
:1013600008F43FC08D2D90E00E94CD1A882311F51E
:101370008DE109C0143031F0163021F0193011F030
:101380001B30C1F48FE1F81661F114C00E3091F4F6
:10139000D39483E68D1508F4DD248D2D90E00E9412
:1013A000CD1A882339F4123029F48CE18F1510F40A
:1013B0004CE1F42E812F6F2D4D2D202F0E94C8055A
:1013C0008091D50481508093D5048091D20482FF0E
:1013D000FECE8CED95E0FE013197F1F70197D9F73C
:1013E000F6CEFF24F394E6CFDF91CF911F910F91BA
:1013F000FF90EF90DF90CF90BF9008950F931F93D1
:10140000CF93DF930E9458068091D5048F5F80931D
:10141000D50483E193E060E070E00E9489052091AB
:101420003C0580E06BE247E00E9429068091D504EC
:1014300081508093D5048AE08093D40418E00AE0B8
:10144000C8ECD0E08091D10480FF07C06091B40067
:1014500083E090E00E94A23693C08091D10488235B
:1014600021F48091D204882319F00093D4040DC094
:101470008091D404882349F46091B40083E090E023
:101480000E94A236109221057BC08091D10481FF79
:1014900031C01092D1048091D5048F5F8093D50420
:1014A000183091F484E765E00E947C188091B400C4
:1014B00060912D050E94C61489E293E065E573E012
:1014C0000E94890519E611C084E765E00E947C1836
:1014D0008091B40060913C050E94C61483E193E0C2
:1014E0006FE373E00E94890518E08091D504815074
:1014F0008093D5048091D10482FD04C08091D204F0
:1015000082FFA0CF1092D104193671F58091B400FA
:101510008F5F8093B4008091B400813110F01092FD
:10152000B4008091D5048F5F8093D5040E94580643
:1015300089E293E065E573E00E94890520913C050E
:1015400080E06BE247E00E94290684E765E00E94A4
:101550007C188091B40060912D050E94C614809182
:10156000D50481508093D5048091D20482FF6ACF44
:101570008CED95E0FE013197F1F70197D9F762CF35
:10158000DF91CF911F910F910895CF92DF92EF924B
:10159000FF920F931F93DF93CF9300D0CDB7DEB7A9
:1015A0008091D5048F5F8093D50480E060E00E9435
:1015B0007C1860913C0583E292E00E94B51400E043
:1015C000E2E0CE2ED12CCC0EDD1E7E010894E11C73
:1015D000F11C102F1F5F88E0612F0E947C18609122
:1015E0003C0584E392E00E94B51460913C05812F94
:1015F0000E94C61460913C058BE392E00E94B514F2
:10160000802FB701A6010E94981C898160913C053A
:101610000E94C61460913C058AE30E948A148A8164
:1016200060913C050E94C614012F143091F688E0A9
:1016300065E00E947C1860913C0583E492E00E9482
:10164000B5148091DE0560913C058F5F0E94C61441
:1016500080912105843119F08DEF92E002C083E181
:1016600093E06FE373E00E948905C0902D0580E050
:1016700068E047E028E200E0EE240E9480108091BC
:10168000D50481508093D5040F900F90CF91DF91B6
:101690001F910F91FF90EF90DF90CF900895DF9210
:1016A000EF92FF920F931F93DF93CF9300D0CDB7AC
:1016B000DEB71091DE050E94C50A8091D5048F5FC8
:1016C0008093D50460914C0520913C05660F660F10
:1016D000660F655F80E047E00E9429068091D5048F
:1016E00081508093D5048AE08093D40480914C0586
:1016F000843051F080914C05BE016F5F7F4FAE0189
:101700004E5F5F4F0E94981C05E0AAE0DA2EF8ECCD
:10171000EF2EF12C8091D10480FF03C01092D104F0
:1017200018C18091D104882321F48091D2048823A8
:1017300019F0D092D40407C08091D404882319F4FE
:101740001092210506C18091D10481FFAEC0109294
:10175000D1048091D5048F5F8093D5040530A9F51D
:1017600080914C058430C1F484E765E00E947C18C8
:1017700060912D05812F8F5F0E94C61400913C055A
:1017800088ED92E066E572E04BEE52E02AE532E049
:101790000E945A0504E184C060914C056F5F82E6A7
:1017A0000E947C18898160912D050E94C6140091C9
:1017B0003C0588ED92E06DEE71E04BEE52E021EFDA
:1017C00031E00E945A0505E66BC0053621F56091AF
:1017D0004C056F5F82E60E947C18898160913C0510
:1017E0000E94C61460914C056F5F84E70E947C18CC
:1017F0008A8160912D050E94C61400913C0588EDF8
:1018000092E066EF71E04BEE52E02AEF31E00E9489
:101810005A0506E645C0043191F484E765E00E946C
:101820007C1860913C05812F8F5F0E94C6148FE069
:1018300090E0612F0E94A2361093DE051CC06091DB
:101840004C056F5F82E60E947C18898160913C059F
:101850000E94C61460914C056F5F84E70E947C185B
:101860008A8160913C050E94C61480914C05698173
:101870004A810E94221D812F6FE275E04BE355E003
:101880000E94981C80912105843119F08DEF92E01F
:1018900002C083E193E06FE373E00E94890505E0F5
:1018A0008091D50481508093D5048091D10482FD2C
:1018B00004C08091D20482FF2DCF1092D104809178
:1018C000D5048F5F8093D504043169F41F5F143011
:1018D00008F010E084E765E00E947C1860912D0517
:1018E000812F8F5F23C0053679F489818F5F8983CB
:1018F0008981883108F0198260914C056F5F82E61A
:101900000E947C18898110C0063691F48A818F5F0D
:101910008A838A818C3308F01A8260914C056F5F4C
:1019200084E70E947C188A8160912D050E94C6146C
:101930008091D50481508093D5048091D20482FF98
:10194000E9CE8CED95E0F7013197F1F70197D9F7E2
:10195000E1CE0F900F90CF91DF911F910F91FF90EB
:10196000EF90DF900895809121058131B9F08231A7
:1019700028F4853041F0803121F50BC0823199F097
:101980008331F9F415C080E18093210510924C0554
:1019900015C081E18093210581E00EC082E1809332
:1019A000210582E009C083E18093210583E004C022
:1019B00084E18093210584E080934C050E944F0BC5
:1019C000089585E08093210508950E94580680912E
:1019D000D5048F5F8093D50420913C0580E06BE0B7
:1019E00047E00E9429068091D50481508093D50458
:1019F0008AE08093D4049AE08091D10480FD45C0B0
:101A00008091D104882321F48091D204882319F095
:101A10009093D40407C08091D404882319F41092C1
:101A2000210508958091D10481FF24C01092D10432
:101A30008091D5048F5F8093D50480912D050E94FD
:101A4000E2180E94B30C80912105853021F080912D
:101A500021058823B1F780912105853029F48091F3
:101A6000D10481608093D1048091D504815080930A
:101A7000D50408958091D10482FD04C08091D204E0
:101A800082FFBACF1092D104B7CF0895809121057B
:101A9000882371F48091D5048F5F8093D504809161
:101AA0002D050E94E2188091D50481508093D504C1
:101AB00080912105853091F0863028F4882341F00B
:101AC000843021F511C08730A9F08F30F9F418C0A7
:101AD00085E0809321050E94E50C089584E08093C1
:101AE00021050E94E006089587E0809321050E9469
:101AF000BD0808958FE0809321050E94080808958D
:101B000088E0809321050E94FE0908951092210526
:101B10000895982FFB0181568A3110F480E203C0AA
:101B20009B3718F08AE1808301C01082892F90E0F2
:101B300080972081821B9109FC01EE0FFF1FE80FA7
:101B4000F91FEE0FFF1FEA59FD4FE4918E2F089504
:101B5000CF92DF92EF92FF920F931F93DF93CF9379
:101B60000F92CDB7DEB7082F7B0110E06E0108940D
:101B7000C11CD11C0CC0002331F4B6010E94890D98
:101B80001F5F180F01C01A5F0894E11CF11CF701D8
:101B90008081882381F7812F0F90CF91DF911F9152
:101BA0000F91FF90EF90DF90CF9008952F923F928A
:101BB0004F925F926F927F928F929F92AF92BF925D
:101BC000CF92DF92EF92FF920F931F93DF93CF9309
:101BD000CDB7DEB763970FB6F894DEBF0FBECDBFAB
:101BE000182F6A874B872C87ED86CE86AF861982A1
:101BF000442329F097E09D8375E0372E09C0802F9C
:101C0000BE016F5F7F4F0E94890D382E85E08D8366
:101C10009C85913029F088E08F8391E09E8303C0FA
:101C20008FEF8F838E839A85969596959695998753
:101C3000402E55245201AA0CBB1CAA0CBB1CA40CA0
:101C4000B51C80E69FEFA80EB91E1C83882499243A
:101C50009A859770988B8E819E85899F802D1124FF
:101C6000898B8E8181958A8B9D85899F902D1124EA
:101C70009B8B96C0D888862D69850E947C180E940F
:101C8000D7170E94D717F82E2A84622D7724731451
:101C900011F480E01EC0E72DF0E08B858823A1F4CD
:101CA000898120EE3FEF281B3109240D351DC90124
:101CB000880F991F820F931F880F991FE80FF91F34
:101CC000E959FD4F849105C0EA0DFB1DEA57FF4F0E
:101CD00084919F85992309F48095082F10E08A81CB
:101CE0009B8108231923E22CCC2434C09F81D91670
:101CF000F1F4669566956695862D0E947C188F2D69
:101D00000E9496186E2D669566956695862D0E94A2
:101D10007C180E94D7170E94D717F82E8C85813027
:101D200019F06E2DDD2403C06E2D37E0D32E81E037
:101D300090E00D2C02C0880F991F0A94E2F701155C
:101D4000110519F48095F82201C0F82A9E81D90E58
:101D5000E90EC3948E85C81648F29989290E7394AA
:101D6000371408F094CF669566956695862D0E9487
:101D70007C188F2D0E9496188A89680E98859F5F1F
:101D8000988788859D85891708F474CF8C819B89F5
:101D9000890F8C830894811C911C8D81881668F4AE
:101DA00081E090E0082C02C0880F991F0A94E2F7A6
:101DB0009B838A836C801886E4CF33949E85399EFA
:101DC000802D112463960FB6F894DEBF0FBECDBFF1
:101DD000CF91DF911F910F91FF90EF90DF90CF9007
:101DE000BF90AF909F908F907F906F905F904F903B
:101DF0003F902F9008956F927F928F929F92AF9213
:101E0000BF92CF92DF92EF92FF920F931F93CF93E7
:101E1000DF93682E742ED22EE8018E2C9C2CBA2CC7
:101E2000162FFF2411C0862D612F472D2D2DE82C54
:101E3000C92CAB2C0E94D60D91E0D91611F4181BB9
:101E400001C0180FF80E21960881002361F78F2D2D
:101E5000DF91CF911F910F91FF90EF90DF90CF9086
:101E6000BF90AF909F908F907F906F9008952F922A
:101E70003F924F925F926F927F928F929F92AF921A
:101E8000BF92CF92DF92EF92FF920F931F93DF9357
:101E9000CF93CDB7DEB760970FB6F894DEBF0FBE15
:101EA000CDBF8E836F83442E2B873C870887E986BE
:101EB000CA86442311F017E001C015E0842D6B851C
:101EC0007C850E94A80D4885849F802D11248D83D8
:101ED0005985159F102D11241C837724AA24DD24F5
:101EE000BB241B8266241A82CC2455249F81892F0F
:101EF00090E09E878D87E12FF0E0F88BEF87D5C0CB
:101F0000272D30E08D859E85820F931F43E09595A8
:101F100087954A95E1F7882EEF80E70C47E0E422A9
:101F200049F48F859889821B930B08971CF028E051
:101F3000922E24C08F859889821B930B8E0D911D44
:101F4000099724F098E0992E9E1802C09C8097185B
:101F50000DE415E0FF240FC08E818F0D682D0E94C7
:101F60007C180E94D717F80180830E94D717F801C8
:101F700081938F01F394FD81FF1670F38E81682D9C
:101F80000E947C188824839401C0880CEA94EAF7A4
:101F90008B859C859C01190100E0FF2410E07EC028
:101FA000FC1410F0002381F4F10151901F01442032
:101FB00019F085E0F82E07C0852DBE016F5F7F4FB9
:101FC0000E94890DF82ECC24F8851F1711F00023EC
:101FD00061F5CF1411F4AA2422C02C2D30E0442046
:101FE000A9F4898140EE5FEF481B5109CA01850DB4
:101FF000911DFC01EE0FFF1FE80FF91FEE0FFF1FF1
:10200000E20FF31FE959FD4FA49009C055E0559E1A
:10201000F0011124E20FF31FEA51F040A490C394A1
:102020008A85882309F4A09410E098E0991619F4A1
:10203000112341F02EC0E02FF0E0E35BFA4FD08097
:10204000282D08C0EA85EE2319F0DD24DA9401C0BA
:10205000DD2421E08A2D90E00A8002C095958795C5
:102060000A94E2F7982FBB806A80392D10C090FD4A
:1020700004C0822F8095D82201C0D22AB394F9855A
:10208000BF1619F496956394BB24220F3150332365
:1020900071F78D2D0E9496181F5F0F5F4D810417F9
:1020A00008F47ECF790C6A82BB825C81751608F4D5
:1020B00027CF8D8160960FB6F894DEBF0FBECDBFDF
:1020C000CF91DF911F910F91FF90EF90DF90CF9014
:1020D000BF90AF909F908F907F906F905F904F9048
:1020E0003F902F900895CF92EF920F93C02E01E072
:1020F000EE24E3940E94370F0F91EF90CF90089554
:102100002F923F924F925F926F927F928F929F9207
:10211000AF92BF92CF92DF92EF92FF920F931F93F5
:10212000DF93CF93CDB7DEB728970FB6F894DEBF15
:102130000FBECDBF682E562E4A83822EDE2C2C2C4D
:10214000332461E0C61611F43324339444244394B9
:102150004324002341F472E0D71609F047C0BB24A2
:10216000BCEFCB2E46C0013001F582E0D81641F419
:10217000882D63E00E941D36ABEFCA2EC90E0AC03F
:1021800093E0D91649F4882D63E00E941D36F7E0EC
:10219000CF2EC91ABB242DC0E1E0DE1639F5CC24C0
:1021A000C394C820F5E0CF0EF5CF62E0D61641F417
:1021B000852D63E00E941D36ECEFCE2EC91A14C0A7
:1021C00073E0D71639F4852D63E00E941D3676E062
:1021D000C72E09C081E0D81611F0B62C08C0CC2457
:1021E000C394C52096E0C90EB62C03C0BB2466E09C
:1021F000C62EAA2410E0ED2DE250EC830CC1EA2C8F
:10220000FF24C701850D911D53E0959587955A953B
:10221000E1F7982E7A2C750CF7E07F2231F4882DA7
:1022200090E08E199F09089734F46DE475E07E8381
:102230006D8300E017C074E0D716B9F3198217C098
:10224000802F860D692D0E947C180E94D717ED8182
:10225000FE8180830E94D717ED81FE818193FE83EA
:10226000ED830F5FFA810F1758F361E06983862DC4
:10227000692D0E947C18282D30E02E193F0988E036
:1022800090E087199109281739071CF4082D0A19BD
:1022900002C008E00719FF247A2D7C0D7B839C2C5B
:1022A0009A18B2C08981813029F4EF2DF0E0E35B08
:1022B000FA4F108192E0D916A1F4292D832F63E003
:1022C0000E941D36E92EE32FF0E0F887EF83CF015F
:1022D000019663E070E00E944A36AC01372DA0E021
:1022E0008CC02B81EBCF083009F040C0DD2091F18C
:1022F000F1E0DF1661F4822F90E06F817885862708
:10230000972780FF02C01AEA2CC015E52AC073E0A7
:10231000D71661F4822F63E00E941D36E91601F1A1
:10232000892F90E048175907C9F416C082E0D816E3
:1023300061F4822F63E00E941D36E91689F0892F2F
:1023400090E04817590741F409C094E0D91659F0B4
:1023500010E007C01FEF05C014E203C012E901C07E
:1023600019E4E1E02E121095A85F47C0DD2021F1AD
:10237000F1E0DF1649F4822F90E06F81788586279F
:10238000972780FF19C01AC07C81723038F4822FE1
:1023900063E00E941D36E91689F40EC084E0D81669
:1023A00069F4812F90E0032E02C0959587950A94D9
:1023B000E2F780FF06C00FC0822D01C0842D81305E
:1023C00051F481E090E0032E02C0880F991F0A9417
:1023D000E2F7182B0AC081E090E0032E02C0880FBC
:1023E000991F0A94E2F78095182392E0D91611F408
:1023F000215001C02F5FAF5F3F5FA01708F473CF7C
:10240000812F0E949618F3943F2D3B0DEA81FE1612
:1024100008F448CFA00EA81408F4F1CE28960FB601
:10242000F894DEBF0FBECDBFCF91DF911F910F910A
:10243000FF90EF90DF90CF90BF90AF909F908F90E4
:102440007F906F905F904F903F902F9008958F9264
:102450009F92AF92BF92CF92DF92EF92FF920F9333
:102460001F93D82EA62EB42E922E802E82E0841793
:10247000A8F41D2D1F5F0EEFF02EF40E812F4F2DAF
:1024800021E002E0EE24C82C0E9480106A2D6150E9
:10249000690D812F4F2D21E00E9480108D2D6A2D16
:1024A00041E0292D02E0EE24C82C0E94801081E03A
:1024B0008B1510F0891558F4DA948D2D8B0D6A2D3B
:1024C00041E0292D02E0EE24C82C0E9480101F91CB
:1024D0000F91FF90EF90DF90CF90BF90AF909F90C3
:1024E0008F900895CF92EF920F93C02E02E0EE24CA
:1024F0000E9480100F91EF90CF9008952F923F92FD
:102500004F925F926F927F928F929F92AF92BF9203
:10251000CF92DF92EF92FF920F931F93DF93CF93AF
:1025200000D000D0CDB7DEB7282E362E422E502E4A
:10253000862F82198983942E842F90E0880F991F0B
:10254000909581959F4F182F1D5F1C821B828824B8
:10255000962FE9819E1B9A8346C0DB80F32CF918E5
:10256000692C772467FC70945301AA0CBB1C8D2D39
:10257000820D6F2D41E02A2D02E0E42CC52C0E9433
:102580008010822D8D196F2D41E02A2D0E94801020
:10259000F32DFD19DF2E8A81890D6F2F41E0282D43
:1025A0000E9480108F2D9981891B6D2D41E0282D6F
:1025B0000E94801017FF05C01A5F882D880F180F22
:1025C0000BC0165F8B819C8186199709880F991F14
:1025D000880F991F180F9A94EB81FC813196FC8328
:1025E000EB83F2E08F0E8B8198160CF0B6CF0F9034
:1025F0000F900F900F90CF91DF911F910F91FF904F
:10260000EF90DF90CF90BF90AF909F908F907F9092
:102610006F905F904F903F902F900895DF92EF92D0
:10262000FF920F931F93082FF62EE42E162F169568
:1026300016951695612F0E947C180E94D7170E944C
:10264000D717D82E802F612F0E947C182F2D30E0B5
:1026500081E0E81659F42770307081E090E002C004
:10266000880F991F2A95E2F78D290BC027703070CB
:1026700081E090E002C0880F991F2A95E2F78095CB
:102680008D210E9496181F910F91FF90EF90DF907F
:1026900008952F923F924F925F926F927F928F9206
:1026A0009F92AF92BF92CF92DF92EF92FF920F93E1
:1026B0001F93CF93DF93202E482E552450E04419CA
:1026C0005509662E772430E0261937095A0157FF3D
:1026D00004C0AA24BB24A41AB50A790137FF04C098
:1026E000EE24FF24E21AF30A1416150624F4E1E09E
:1026F0008E2E912C08C0452B19F48824992403C0F0
:1027000088248A94982C1216130624F471E0C72E9C
:10271000D12C08C0232B19F4CC24DD2403C0CC24F5
:10272000CA94DC2C422D0E940E13AE14BF04F4F0A8
:10273000E501D595C795382C982C940C00E010E055
:1027400011C0CE0DDF1DCA15DB0524F0CA19DB0947
:102750006C0C7D1C892D662D422D0E940E130F5F7F
:102760001F4F930C0A151B0564F31CC0E701D59598
:10277000C7953C2CDC2CD60C00E010E0CA0DDB1D0C
:10278000CE15DF0524F0CE19DF09480C591C842D25
:102790006D2D422D0E940E130F5F1F4FD30C0E158F
:1027A0001F0564F3DF91CF911F910F91FF90EF9080
:1027B000DF90CF90BF90AF909F908F907F906F9061
:1027C0005F904F903F902F9008954F925F926F923D
:1027D0007F928F929F92AF92BF92CF92DF92EF92B1
:1027E000FF920F931F93CF93DF93682E962E822E26
:1027F000B02E562E581AA42E842F90E0880F991FC1
:10280000909581959F4FA3E0CA2EC80EC0E0D0E0FE
:102810007724422E4A9469C08820C1F021E0241513
:1028200068F0AE014170507020E030E092E089160F
:1028300011F421E030E04217530741F023E0821603
:10284000D9F563E00E9429369923B1F51C2F160DA6
:102850000A2D090D812F602F4B2D0E940E13F92C8C
:10286000FA18812F6F2D4B2D0E940E13162D1C1B55
:10287000812F602F4B2D0E940E13812F6F2D4B2D1A
:102880000E940E130519DC2ED90C802F6D2D4B2DB7
:102890000E940E13192D1C1B802F612F4B2D0E949F
:1028A0000E13F5188F2D6D2D4B2D0E940E138F2DAD
:1028B000612F4B2D0E940E13C7FE04C0C70C36E0DB
:1028C000C30E10C08AE0C80E8A2D992787FD909507
:1028D0009E01281B390BC901880F991F880F991F6A
:1028E000C80EAA94219634E0730E8C2FAC160CF00F
:1028F00093CFDF91CF911F910F91FF90EF90DF90D9
:10290000CF90BF90AF909F908F907F906F905F908F
:102910004F900895FF920F931F93CF93DF93F62E5E
:1029200095E0899FC0011124EC01CA51D0408C016F
:1029300005511040FE018491FF2009F480950E940A
:1029400096182196C017D107A9F7FF2011F48FEF31
:1029500001C080E00E94961880E00E942318DF9159
:10296000CF911F910F91FF9008951F93CF93DF9305
:10297000EC01162F04C0612F0E948A1421968881D1
:102980008823C9F7DF91CF911F9108950F931F936B
:10299000182F062F6AE00E941D36805D602F0E946E
:1029A0008A14812F6AE00E941D36892F805D602F76
:1029B0000E948A141F910F910895459A449A10928B
:1029C0001D0510921C0510921F0510921E0580E235
:1029D0008093B800ECEBF0E08081846080831092FB
:1029E000D604808181608083808180648083789434
:1029F000089580E28093B8000895ECEBF0E08081C8
:102A00008F70806A80830895ECEBF0E080818F7096
:102A1000806D808308958091BC0087FFFCCF08956E
:102A20008093BB00ECEBF0E080818F708068808346
:102A30000895882329F08091BC008F70806C04C0B9
:102A40008091BC008F7080688093BC000895809155
:102A5000BB000895982F8091D6048823E1F782E087
:102A60008093D6049E7F9093D704A8EDB4E0FA013A
:102A700002C081918D938E2F841B8617D0F3109204
:102A8000F8046093F9048091BC008F70806A809391
:102A9000BC000895982F8091D6048823E1F783E045
:102AA0008093D60491609093D70410921A05609396
:102AB0001B058091BC008F70806A8093BC00809160
:102AC000D6048823E1F7AAEFB4E0FA0102C08D91A1
:102AD00081938E2F841B8617D0F30895982FFA01C7
:102AE0008091BC008E7F8093BC008091BC008F7071
:102AF000806A8093BC008091BC0087FFFCCF9E7FE2
:102B00009093BB008091BC008F7080688093BC0064
:102B10008091BC0087FFFCCF8091B900883189F09B
:102B200091E012C080818093BB008091BC008F70C7
:102B300080688093BC008091BC0087FFFCCF3196F9
:102B40006150662379F790E08091BC008F70806DB2
:102B50008093BC008091BC0084FFFCCF8091BC00BE
:102B600081608093BC00892F08951F93CF93DF93DA
:102B7000982F162FEA018091BC008E7F8093BC00B5
:102B80008091BC008F70806A8093BC008091BC00F3
:102B900087FFFCCF91609093BB008091BC008F7049
:102BA00080688093BC008091BC0087FFFCCF80913F
:102BB000B900803469F091E018C08FEF0E941915B8
:102BC0008091BC0087FFFCCF8091BB00899311509E
:102BD000123098F780E00E9419158091BC0087FFA1
:102BE000FCCF8091BB00888390E08091BC008F7007
:102BF000806D8093BC008091BC0081608093BC009C
:102C0000892FDF91CF911F9108951F920F920FB6D8
:102C10000F9211242F933F934F935F936F937F9362
:102C20008F939F93AF93BF93EF93FF938091B900DE
:102C3000887F883609F4CBC0893688F5803309F45B
:102C400095C08133B0F4803109F45AC0813138F431
:102C5000882309F43EC1883009F048C151C0803250
:102C600009F484C0883209F453C0883109F03EC1A8
:102C70004FC0883409F47AC0893438F4883309F4B1
:102C800078C0803409F032C192C0883509F45DC043
:102C9000803609F49CC0803509F028C174C0803AA0
:102CA00009F4BEC0813AB0F4803809F49BC0813881
:102CB00038F4803709F48BC0883709F017C187C012
:102CC000803909F48FC0883909F4A1C0883809F027
:102CD0000DC19DC0883B09F4D1C0893B38F4883AC6
:102CE00009F4B6C0803B09F001C1B2C0883C09F4C8
:102CF000E0C0883F09F4E7C0803C09F0F7C0D9C0C4
:102D000087E595E060E00E94D71F8091D70414C04A
:102D100088E395E060E00E94D71F9091F8048091CD
:102D2000F904981708F0DAC0E92FF0E0E852FB4FF9
:102D300080819F5F9093F8048093BB008091BC00DA
:102D40008F7080688093BC00D1C083E295E060E022
:102D50000E94D71F80911A059091BB00E82FF0E0E8
:102D6000E650FB4F90838F5F80931A058DEF94E0C0
:102D7000B2C089EE94E060E00E94D71F8091BC0051
:102D80008F708068AFC085ED94E060E00E94D71F2F
:102D90008091BB0090911A05E92FF0E0E650FB4FBF
:102DA00080839F5F90931A0590E00E94C21F82EC7F
:102DB00094E060E00E94D71F20911A0530E08091D6
:102DC0001B0590E001972817390734F51EC08FEADC
:102DD00094E060E00E94D71F85E08093D6041092B3
:102DE0001A0562C08BE994E060E00E94D71F8091D1
:102DF0001A059091BB00E82FF0E0E650FB4F90835E
:102E00008F5F80931A05803238F48FEF06C086E812
:102E100094E060E00E94D71F80E00E94191566C010
:102E200083E794E060E00E94D71F8091BC008F7020
:102E3000806C8093BC00E0911C05F0911D053097DB
:102E400009F452C080911A056AEF74E009954CC0EC
:102E500080E694E060E00E94D71F84E08093D6046F
:102E6000E0911E05F0911F05309731F080E268ED8A
:102E700074E009958093F9041092F8048CE494E0CE
:102E800060E00E94D71F9091F804E92FF0E0E8522B
:102E9000FB4F80818093BB009F5F9093F8048091EB
:102EA000F904981708F04ACF8091BC008F70806CAD
:102EB00049CF8AE294E060E00E94D71F8091BC0075
:102EC0008F70806C0FC08BE194E060E00E94D71F90
:102ED0000DC08AE094E060E00E94D71F8091BC00A2
:102EE0008F70806D8093BC001092D604FF91EF919B
:102EF000BF91AF919F918F917F916F915F914F9112
:102F00003F912F910F900FBE0F901F9018952F9803
:102F10002D982C9840985A98279A259A249A389A4E
:102F2000529A8BB18F708BB985B1807F85B98AB188
:102F3000806F8AB984B18F6084B9089508954098EC
:102F40005A98882319F0813021F402C0409A0895DC
:102F50005A9A0895F8940E949F178BB1806F8BB98D
:102F600085B18F6085B92F988AB18F708AB984B185
:102F7000807F84B92D9A2C9A000000000AC02C98FA
:102F800000000000000000002C9A0000000000007B
:102F9000000089B193B187FDF2CF2C982D988AB1AA
:102FA000806F8AB984B18F6084B978940895F89459
:102FB0008091CD0582958695869583700E94AA178B
:102FC0002F9A8AB18F708AB984B1807F84B92D9A83
:102FD0002C9A00000000000000000000000000002B
:102FE000000099B183B12C982D9878948F70907FC0
:102FF000892B08951F93162FF8940E94AA172F98D3
:103000002D982C9A8AB1806F8AB984B18F6084B967
:103010008BB18F708BB99BB1812F807F892B8BB93E
:1030200085B1807F85B985B11F70812B85B900007E
:1030300000000000000000000000000000002C98CC
:1030400078941F9108951F93182F106C80E0612FC2
:103050000E94FA1781E0612F0E94FA171F910895CC
:10306000F8940E94AA172F988AB18F708AB984B1F8
:10307000807F84B92D9A2C9A000000000000000087
:10308000000000000000000029B183B12C982D98A9
:103090009AB1906F9AB994B19F6094B978948F70F7
:1030A000207F822B08958093CD0580E060E40E940C
:1030B000FA171092CF0581E060E40E94FA1710928F
:1030C000D1058091CD05682F6F73606482958695D8
:1030D000869583700E94FA1708951F93182F809386
:1030E000CE05186B80E0612F0E94FA1781E0612FF6
:1030F0000E94FA171F9108951F93182F862F0E9480
:103100006D18812F0E9453181F91089580E00E942E
:10311000231880E060E00E947C181092CF05109286
:10312000D0051092D1051092D20508950F931F93E8
:10313000182F0091CD050295069506950370F89419
:10314000802F0E94AA172F9A2D982C9A8AB1806FEF
:103150008AB984B18F6084B98BB18F708BB99BB100
:10316000812F807F892B8BB985B1807F85B985B10F
:103170001F70812B85B900000000000000000000D6
:103180000000000000002C987894E02FF0E0EE0F93
:10319000FF1FE153FA4F80818F5F80838091CD05BF
:1031A0008F5F8093CD0587FF0AC08091CE058F5F2A
:1031B0008093CE050E946D1880E00E9453181F91E5
:1031C0000F910895FF920F931F93813011F0FF2408
:1031D00002C0FF24FA9400E080E0602F0E947C1877
:1031E00010E08F2D0E9496181F5F1038D1F70F5FE7
:1031F000083091F71F910F91FF9008951F93182F9A
:103200000E94871780E06FE30E94FA1781E06FE366
:103210000E94FA17812F0E94E2180E9486181F91BF
:1032200008951F920F920FB60F9211242F933F9380
:103230004F935F936F937F938F939F93AF93BF93BE
:10324000EF93FF938091E0059091E105892B49F080
:103250008091E0059091E10501979093E1058093BD
:10326000E00580912205813009F094C0809123050A
:1032700090912405892B09F08DC08091E3059091F0
:10328000E405892B09F07CC09091290580912A05DD
:10329000981701F580916C038130E1F480916B0304
:1032A000803219F410926B0303C08E5F80936B031E
:1032B000E0916B032E2F30E0C9018D56994FFC0130
:1032C0008491809329052C56394FF9019491980FD8
:1032D00090932A0580916C03E0912905813009F5CE
:1032E00010926C032E2F30E0F901E959FA4FE49166
:1032F00089E0E89FC0011124909328058093270559
:1033000023503A4FF90194918FE5989FC001112401
:1033100063E070E00E9436367093E4056093E30545
:1033200010C081E080936C0310922805109227054D
:103330008FE290E09093E4058093E305EF5FE093E4
:10334000290520912705309128052115310521F403
:1033500010928100439814C01092800089E08093FD
:10336000810083E080936F0040E050E060E079E00E
:103370008DE390E00E945D363093890020938800B1
:103380008091E3059091E40501979093E405809383
:10339000E30518C080912505909126058F5F9F4F0A
:1033A00089F4109281004398109226051092250509
:1033B00080E280936B0380912A058093290581E048
:1033C00080936C03FF91EF91BF91AF919F918F918B
:1033D0007F916F915F914F913F912F910F900FBE11
:1033E0000F901F9018951F920F920FB60F921124F5
:1033F0008F939F9388B198E0892788B99F918F9187
:103400000F900FBE0F901F9018951F920F920FB63E
:103410000F9211248F939F9388B198E0892788B9E0
:103420009F918F910F900FBE0F901F9018951E9B2C
:1034300021C08091DD058130A9F51092DD05109243
:1034400024051092230510922605109225059091CF
:103450002205913039F5109222051092810080E208
:1034600080936B0380912A058093290590936C03C8
:10347000439808958091DD058823A1F481E080932D
:10348000DD05109224051092230510922605109256
:10349000250590E290936B0390912A05909329055E
:1034A00080936C0308951F93162F1092800029E0DB
:1034B0002093810023E020936F009C0140E050E0C6
:1034C00060E079E08DE390E00E945D363093890002
:1034D0002093880020E533EC04C0C9010197F1F77F
:1034E00019511931D0F71092810043981F91089516
:1034F000CF93DF93C82FD0E0E42FF0E0E053F84FF4
:10350000833010F42C963197262F30E02F5F3F4FF9
:103510002E0F3F1FCE01880F991F280F391FCF0193
:103520009695879596958795280F391FCF0160E965
:1035300071E00E943636260F371FCF0164E670E037
:103540000E943636261B370BAE014F5F5F4FCA0114
:10355000880F991F840F951F880F991F6AE070E0EC
:103560000E943636C901860F971F67E070E00E94FF
:103570003636DF91CF910895482F6AE00E941D36BC
:10358000282F30E0B4E0220F331FBA95E1F7842FE3
:103590000E941D36892F822B0895FC018370907044
:1035A000892B39F4CF0164E670E00E943636892B0E
:1035B00049F420E030E0CF0160E971E00E94363646
:1035C000892B11F421E030E0822F08951092CA0473
:1035D000809120058823E1F38CE38093DA05109233
:1035E0002005809120058823E1F381E08093CA04BF
:1035F000089588E592E0909324058093230580E662
:1036000099E09093260580932505109281004398B8
:10361000109221050895CF92DF92EF92FF920F93BF
:103620001F93DF93CF93CDB7DEB728970FB6F894EB
:10363000DEBF0FBECDBF162FF42ED22EFE01319667
:1036400098E0DF011D929A95E9F719820E94BC1A51
:103650008A83812F0E94BC1A8B838F2D0E94BC1AF3
:103660008C838D2D0E94BC1A8D83802F0E94BC1AE2
:103670008E838E2D0E94BC1A8F838C2D0E94BC1AC3
:103680008887F89480ED68E0AE014F5F5F4F0E943D
:103690006E1578948823D9F008EC10E080EA9FE05A
:1036A00064E60E94531A88EE93E0F8013197F1F72F
:1036B0000197D9F780EA9FE064E60E94531A80E1FF
:1036C00097E2F8013197F1F70197D9F7E7CF2896FC
:1036D0000FB6F894DEBF0FBECDBFCF91DF911F9123
:1036E0000F91FF90EF90DF90CF9008950F931F936D
:1036F000DF93CF93CDB7DEB729970FB6F894DEBF2F
:103700000FBECDBF1982F89480ED61E0AE014F5F2E
:103710005F4F0E946E158823E1F008EC10E078946A
:1037200080EA9FE064E60E94531A88EE93E0F80175
:103730003197F1F70197D9F780EA9FE064E60E949C
:10374000531A80E197E2F8013197F1F70197D9F721
:10375000E6CF80ED67E0AE014E5F5F4F0E94B5158A
:1037600078948823D9F008EC10E080EA9FE064E6C2
:103770000E94531A88EE93E0F8013197F1F7019710
:10378000D9F780EA9FE064E60E94531A80E197E24D
:10379000F8013197F1F70197D9F7E7CF7A81872FB1
:1037A00082958F7090E0877090709C01F3E0220FFB
:1037B000331FFA95E1F7880F991F280F391F872FBC
:1037C0008F70820F8093E6054B81842F82958F70D6
:1037D00090E0877090709C0163E0220F331F6A9520
:1037E000E1F7880F991F280F391F4F70420F409340
:1037F000D9058C81482F42954F70682F6F7086FFD6
:1038000022C082958695877090E0817090709C01AF
:10381000220F331F280F391F220F331F220F331F90
:10382000842F90E081709070AC01B3E0440F551F7D
:10383000BA95E1F7880F991F480F591F240F260FDB
:103840002093D40511C0842F90E0837090709C0168
:10385000F3E0220F331FFA95E1F7880F991F280F25
:10386000391F620F6093D4054E81842F82958F702B
:1038700090E0837090709C0163E0220F331F6A9583
:10388000E1F7880F991F280F391F4F70420F40939F
:10389000D8054F81842F82958F7090E08170907051
:1038A0009C0103E0220F331F0A95E1F7880F991F4F
:1038B000280F391F4F70420F4093E5052885822F4E
:1038C00082958F703AE0839FC00111242F70280FDA
:1038D0002093D705872F807829960FB6F894DEBFFE
:1038E0000FBECDBFCF91DF911F910F910895CF9261
:1038F000EF920F930E94DD140E94761B882359F0EB
:1039000080E060E04CE020E001E0EE24E394AEE0F3
:10391000CA2E0E940B1B0E94761B87E08093B10089
:1039200081E08093700078940F91EF90CF9008958C
:10393000EF92FF920F931F93CF93DF938B017A0146
:10394000882329F481E090E0C2E0D0E012C0813009
:1039500029F489E090E0CAE0D0E00BC0823029F081
:103960008DE090E0CEE0D0E004C08BE090E0CCE0D1
:10397000D0E00E949A3668E10E941D36F8019083DB
:10398000CE010E949A366CE30E941D36F7019083A7
:10399000DF91CF911F910F91FF90EF90089580E0FC
:1039A00090E00E949A36833C09F44BC081E090E09D
:1039B00068E00E94A23682E090E060E00E94A236B9
:1039C00083E090E060E10E94A23684E090E061E054
:1039D0000E94A23685E090E065E00E94A23686E073
:1039E00090E061E00E94A23688E090E060E00E94F2
:1039F000A23689E090E069E00E94A2368AE090E079
:103A00006FE00E94A2368BE090E06AE00E94A2364E
:103A10008CE090E06EE10E94A2368DE090E06BE0D9
:103A20000E94A2368EE090E06DE20E94A2368FE006
:103A300090E060E00E94A23680E090E063EC0E949B
:103A4000A23608950F931F93DF93CF9300D0CDB785
:103A5000DEB769834A83882329F481E090E002E09D
:103A600010E012C0813029F489E090E00AE010E013
:103A70000BC0823029F08DE090E00EE010E004C031
:103A80008BE090E00CE010E069810E94A2366A8130
:103A9000C8010E94A2360F900F90CF91DF911F9125
:103AA0000F9108951F920F920FB60F921124FF925B
:103AB0000F931F932F933F934F935F936F937F9336
:103AC0008F939F93AF93BF93EF93FF93A8958091AC
:103AD0002B05853389F410922B05F090E6051091A3
:103AE000D9050091D4050E94171A0E94761B809177
:103AF000D405801729F407C08F5F80932B05EEC093
:103B00000093DB0504C08091D905811711F0109353
:103B1000D5058091E6058F1569F1909122059130C8
:103B2000C9F420912305309124052115310591F028
:103B30002130310549F480E280936B0380912A059E
:103B40008093290590936C032150304030932405D5
:103B50002093230580912205813061F48091250511
:103B600090912605181619062CF4019790932605B6
:103B70008093250580912105853081F08091210574
:103B8000873061F0809121058A3041F080912105D4
:103B9000883021F0809121058F3021F58091D50466
:103BA000882301F580E562E00E947C188091D405AD
:103BB00060913C050E94C61460913C058AE30E9416
:103BC0008A148091D90560913C050E94C6146091C9
:103BD0003C058AE30E948A148091E60560913C05C9
:103BE0000E94C61480912005882309F59091DA057A
:103BF0008091E6059817D9F08091E6058093DA0563
:103C00008091D9058093DC058091D4058093D305FC
:103C10008091D8058093D6058091E5058093DF05D6
:103C20008091D7058093E20581E080932005809103
:103C3000DD058130B1F480912205813091F48091CD
:103C4000250590912605892B61F41092220510928A
:103C50002405109223058FEF9FEF90932605809304
:103C600025052091DD052130E1F48091220588238E
:103C7000C1F48091E6058823A1F49091D905809143
:103C80003B05981771F49091D40580912F059817F2
:103C900041F42093220588E097E0909326058093D5
:103CA000250580912C05893039F410922C058091DE
:103CB000D304882329F409C08F5F80932C050EC09C
:103CC0008091D30481508093D3048091D4048823BD
:103CD00029F08091D40481508093D404FF91EF9116
:103CE000BF91AF919F918F917F916F915F914F9114
:103CF0003F912F911F910F91FF900F900FBE0F904A
:103D00001F9018951F93CF93DF9314BE88E10FB6D1
:103D1000F89480936000109260000FBE8AE190E0FA
:103D20000E94821F3B9A8CE38093DA050E94771CE5
:103D30000E94CF1C88E090E00E949A3681708093A8
:103D40002D0580912D0590E0882309F491E0909352
:103D50003C058FE090E00E949A3683708093DE05E8
:103D60008091DE056FE275E04BE355E00E94981C00
:103D70000E947C041092DD05109222051092240509
:103D80001092230510922605109225050E94171AFD
:103D900082E084BD83E085BD8DE787BD80916E00A4
:103DA000826080936E00539A80E28093B00080918D
:103DB000B00083608093B0008091B10088608093F0
:103DC000B10080E18093B30083E090E00E949A36D6
:103DD0008093B400259A80EA9FE064E60E94531A1B
:103DE0002FE088E190E00FB6F894A89580936000EA
:103DF0000FBE2093600080912D050E94FE180E9446
:103E000054040E94E61A85E391E09093370580936D
:103E100036051092CC041092210581E00E94F20335
:103E200010E0CBE4D0E0D093E105C093E0058091B1
:103E3000D104882361F080912205813041F4809182
:103E40002105882321F40E94F91A1092D10480914F
:103E5000D10480FF10C01092D1040E94460D8091C1
:103E6000D40480912105882371F50E94E61A81E02F
:103E70000E94F20328C08091D10481FF0AC0809182
:103E8000D1040E94A003882311F411E002C0109213
:103E9000D1048091D10482FD02C01130A1F41091AF
:103EA000CC040E94BE03982F8091CC04181721F0F7
:103EB000892F0E94F20304C08091D1040E94A003C4
:103EC0001092D10410E080912105882379F480912B
:103ED00020058093CA0483E00E94F2038091CA0403
:103EE000813021F41092CA04109220058091E005DF
:103EF0009091E105892BD1F78091CD048F5F80935C
:103F0000CD0491CF9093C5008093C40088E1809345
:103F1000C1008EE08093C200519A50980895982F66
:103F20008091C00085FFFCCF9093C60080E090E0B8
:103F30000895282F982F92959F709A3030F4809191
:103F4000C00085FFFCCF905D05C08091C00085FF5B
:103F5000FCCF995A9093C600822F90E08F7090709A
:103F60000A973CF48091C00085FFFCCF2F70205D44
:103F700006C08091C00085FFFCCF2F70295A209386
:103F8000C60008951F93182F892F0E94991F812F13
:103F90000E94991F1F9108958091C00087FFFCCF58
:103FA0008091C60008958091C0008078089508959A
:103FB0000895089508950895CF92EF92FF920F9378
:103FC000DF93CF9300D000D000D0CDB7DEB7C09044
:103FD000CD048091CF04813049F580913205813044
:103FE000D9F480912F057E010894E11CF11CB701E2
:103FF0000E9446048AE38B8380913B05BE016C5F7F
:104000007F4F0E94460400913C0582E069E340E056
:1040100097010E9473100AC000912D0581E068E3AA
:1040200043E127E00E947212109231058091CB0487
:10403000813079F420E08C2D90E08F70907008979B
:104040000CF021E0809131052817A1F02093310573
:1040500006C080913105813069F410923105C0901D
:104060002D0581E068E343E127E002E094E0E92EDA
:104070000E94801026960FB6F894DEBF0FBECDBF0B
:10408000CF91DF910F91FF90EF90CF900895CF9255
:10409000EF920F931F93182F813029F480912D05F3
:1040A0000E94E21808C000912D0580E060E040E821
:1040B00028E30E9472120091ED05C0903C058091AA
:1040C000EA05800F2CE0029F90011124820F60917D
:1040D000E70541E02DE633E0E090E9050E94370F67
:1040E0008091E8058130A1F40091ED05C0903C0578
:1040F000802F8295880F807E9091EA05890F6091CC
:10410000E70541E02DE633E0E090E9050E94370F36
:10411000113021F410923205109231051F910F9148
:10412000EF90CF90089591E09093E80590E19093FF
:10413000EA059CE09093E70592E09093ED0590935B
:10414000E90592E19093EC0595E29093EB050E94CE
:10415000472008951092E80524E02093EA0592E0B4
:104160009093E7052093ED0595E09093E90592E1A2
:104170009093EC059CE29093EB050E9447200895F4
:10418000CF92EF92FF920F931F93DF93CF93CDB710
:10419000DEB729970FB6F894DEBF0FBECDBF0E94E1
:1041A000DC1F8091CA04882329F48091CE048823DF
:1041B00009F4D9C09091440580913805981789F485
:1041C00090913A0580913005981759F490913305F4
:1041D00080912E05981729F48091CE04813009F042
:1041E00051C01091EC05F090EB0580913A0560917B
:1041F0004405409133050E94781A00913C05E82F50
:10420000F0E0EE0FFF1FE653FD4F20813181812F3B
:104210006F2D41E00E947310E0913A0500913C053A
:104220008091EC05F0E0EE0FFF1FE357FD4F20817A
:104230003181885E6091EB0541E00E9473108091AE
:1042400044057E010894E11CF11CB7010E9446045C
:104250008CE28B8380E28C8382E38D8380E38E8388
:1042600080913305BE01695F7F4F0E944604009133
:104270003C058091EC05805D6091EB0541E0970184
:104280000E94731090914A0580914505981721F47A
:104290008091CE048130B1F480914A058E010F5F88
:1042A0001F4FB8010E944604C0903C058091EA056A
:1042B0006091E70541E098010091ED05E090E90586
:1042C0000E94370F90914B0580914005981721F47B
:1042D0008091CE048130E9F480914B057E010894F1
:1042E000E11CF11CB7010E9446040091ED05C0904D
:1042F0003C058091EA05800F22E1029F9001112484
:10430000820F6091E70541E09701E090E9050E9486
:10431000370F8091E805813031F590914605809105
:104320004705981721F48091CE048130E1F4809103
:1043300046057E010894E11CF11CB7010E94460469
:104340000091ED05C0903C0526E2029F90011124EA
:104350008091EA05820F6091E70541E09701E090C6
:10436000E9050E94370F29960FB6F894DEBF0FBEFD
:10437000CDBFCF91DF911F910F91FF90EF90CF9024
:104380000895CF93DF93EC018A81803429F48B81E7
:104390008F3111F492E001C096E020E030E0FE01A0
:1043A000E20FF31FDB01A20FB31F8C9180832F5FFD
:1043B0003F4F2917A0F3DF91CF9108952F923F929D
:1043C0004F925F926F927F928F929F92AF92BF9225
:1043D000CF92DF92EF92FF920F931F93DF93CF93D1
:1043E000CDB7DEB729970FB6F894DEBF0FBECDBFAD
:1043F0009B838A837987688719012A01EC82FD8271
:104400000E831F839A2CDC0112968C9112978034B4
:1044100049F413968C918F3129F466246394B2E0A9
:10442000B98303C06624E6E0E983C201B1010E94BA
:10443000D3357B018C016C2D70E0882777FD80954A
:10444000982F0E94AB345B016C01C801B701A60133
:1044500095010E9470350E947834605CA885B9850A
:104460006C93C201B1010E940D349058A6019501D0
:104470000E9470350E947834615EE885F985618319
:10448000662009F05CC0C201B1012C813D814E81E2
:104490005F810E94A9337B018C01C8010E94D33542
:1044A0005B016C01692D70E0882777FD8095982F5E
:1044B0000E94AB343B014C01C601B501A40193013C
:1044C0000E9470350E947834605CA885B985129688
:1044D0006C93B701C8010E940D349058A401930158
:1044E0000E9470350E947834615EE885F9856383A7
:1044F000C201B1012C813D814E815F810E94A833B0
:104500007B018C01C8010E94D335A40193010E9454
:1045100070350E947834605CA885B98514966C93D8
:10452000B701C8010E940D349058A40193010E9464
:1045300070350E947834615EE885F985658320E0F6
:1045400030E0EA81FB81E20FF31FA885B985A20F55
:10455000B31F90818C91981711F081E006C02F5FF6
:104560003F4FF9812F1768F380E029960FB6F89432
:10457000DEBF0FBECDBFCF91DF911F910F91FF9096
:10458000EF90DF90CF90BF90AF909F908F907F90F3
:104590006F905F904F903F902F9008950F931F93CF
:1045A000CF93DF93EC01162F888169814A812B819B
:1045B000012F0E9449138A81803419F48B818F3135
:1045C00069F0888169814C812D81012F0E944913F6
:1045D0008A816B814C812D810E944913DF91CF919B
:1045E0001F910F910895CF92DF92EF92FF920F9358
:1045F0001F93813009F083C080912D050E94E2183D
:1046000000913C0580E46FE14EE120E00E94E5135B
:1046100040913C0580E46FE10E940E13DD246D2D76
:10462000772767FD7095872F972F0E94AB3422E97B
:104630003AE046E05FE30E9470357B018C01C801DF
:104640000E94D3352DEC3CEC40EE51E40E947035D5
:104650000E947834C62EB701C8010E940D342DEC9B
:104660003CEC40EE51EC0E9470350E947834062FED
:1046700040913C05615E8C2D805C0E940E138D2D57
:1046800063E00E9429369923B9F4DD2011F401502A
:104690000BC083E0D81611F4C39406C086E0D81688
:1046A00011F40F5F01C0CA9440913C05015E8C2D4E
:1046B000805C602F0E940E13D3948CE0D81609F012
:1046C000AECF80E090E028E2FC01EB50FA4F20836F
:1046D000FC01E251FA4F2083FC01E550FA4F2083A0
:1046E00001968630910581F780E48093F7058FE18C
:1046F0008093F805109232051092310510C0809118
:10470000F405882361F460912D0585EF95E00E9402
:10471000CE2240913C0580E46FE10E940E131F9170
:104720000F91FF90EF90DF90CF90089591E09093DC
:10473000F4050E94F32208951092F4050E94F322DA
:1047400008953F924F925F926F927F928F929F92C5
:10475000AF92BF92CF92DF92EF92FF920F931F938F
:10476000DF93CF93CDB7DEB760970FB6F894DEBF77
:104770000FBECDBF3090CD048091CF04813009F0C1
:10478000FBC080913205813009F0BAC060913B05D1
:1047900070E0882777FD8095982F0E94AB3420E544
:1047A00037E746ED5DE30E9470357B018C01C8015F
:1047B0000E94D3356D877E878F87988BB701C8019C
:1047C0000E940D3469877A878B879C8780912F059B
:1047D000E0903B056CE00E941D36692F70E0882751
:1047E00077FD8095982F0E94AB3422E93AE046E0AD
:1047F0005FE30E9470355B016C01FF240027F7FC2A
:104800000095102FC801B7010E94AB3425E33AEFA1
:104810004EE05CE30E9470359B01AC01C601B5011E
:104820000E94A9337B018C01C8010E94D3356D839E
:104830007E838F839887B701C8010E940D342B01B6
:104840003C0100912D0582E069E347E125E00E94EB
:10485000721200913C0589E066E347E020E00E9487
:10486000E51300913C056D857E858F85988920E054
:1048700030E040EE50E40E9470350E9478344B01E5
:104880005C0189E0880E69857A858B859C8520E0AE
:1048900030E040EE50EC0E9470350E9478346B019D
:1048A0007C0186E3C80E89E066E3482D2C2D0E942A
:1048B000491300913C056D817E818F81988520E0B0
:1048C00030E040EA50E40E9470350E9478344B0199
:1048D0005C0189E0880EC301B20120E030E040EACB
:1048E00050EC0E9470350E9478346B017C0186E3A5
:1048F000C80E89E066E3482D2C2D0E9449133CC068
:1049000000912D0581E06EE241E121E10E947212E9
:1049100010923105E0913A0500913C05F0E0EE0F70
:10492000FF1FE357FD4F2081318182E069E340E0C2
:104930000E947310182F1E5F80E2898380914405C6
:10494000BE016E5F7F4F0E94460400913C05812F9F
:1049500069E340E09E012F5F3F4F0E947310825039
:10496000810F883148F400912D0548E1481B8E5F86
:1049700069E325E00E9472128091CB04813079F4C2
:1049800020E0832D90E08F70907008970CF021E06C
:10499000809131052817A1F02093310506C0809140
:1049A0003105813069F410923105C0902D0581E008
:1049B0006EE241E121E102E094E0E92E0E948010E4
:1049C00060960FB6F894DEBF0FBECDBFCF91DF91DA
:1049D0001F910F91FF90EF90DF90CF90BF90AF901D
:1049E0009F908F907F906F905F904F903F90089531
:1049F0008F929F92AF92BF92CF92DF92EF92FF92EF
:104A00000F931F93DF93CF93CDB7DEB762970FB6A7
:104A1000F894DEBF0FBECDBF0E94A1238091CA04CF
:104A2000882329F48091CE04882309F413C180914E
:104A3000F405813011F0992426C06091460570E09C
:104A4000882777FD8095982F0E94AB3420E537E7C3
:104A500046ED5DE30E9470359B01AC0185EF95E06A
:104A6000BE016F5F7F4F0F2EF0E0EF2EF0E0FF2EC4
:104A7000F0E00F2FF0E01F2FF02DE8E1CE2EAA245A
:104A80000E94DE21982E60914B0570E0882777FD0B
:104A90008095982F0E94AB3420E537E746ED5DE323
:104AA0000E9470359B01AC018EEE95E0BE01695FFE
:104AB0007F4F0F2EFCE7EF2EF9EDFF2EF0E20F2FC8
:104AC000F0E41F2FF02DBBE1CB2EA8E0AA2E0E9410
:104AD000DE21882E80914A05E0904B056CE00E9413
:104AE0001D36692F70E0882777FD8095982F0E94EA
:104AF000AB3422E93AE046E05FE30E9470355B01A7
:104B00006C01FF240027F7FC0095102FC801B701A6
:104B10000E94AB3425E33AEF4EE05CE30E9470352F
:104B20009B01AC01C601B5010E94A9339B01AC01F8
:104B30008BEF95E0BE01635F7F4F0F2EFCE7EF2EFA
:104B4000F9EDFF2EF0E20F2FF0E41F2FF02DF4E12E
:104B5000CF2EE5E0AE2E0E94DE21182F8091F405C5
:104B60008130C9F4981621F08091CE04813099F4F7
:104B700060912D0585EF95E00E94CE2285EF95E0AE
:104B8000BE016F5F7F4F0E94C12160913C0585EFA0
:104B900095E00E94CE2281E0881621F08091CE041B
:104BA0008130E1F460912D058EEE95E00E94CE22D9
:104BB0008EEE95E0BE01695F7F4F0E94C12160913A
:104BC0003C058EEE95E00E94CE228091F405813066
:104BD00071F460913C0585EF95E007C081E098167F
:104BE00031F460913C058EEE95E00E94CE221130AA
:104BF00021F08091CE04813011F560912D058BEF6D
:104C000095E00E94CE228BEF95E0BE01635F7F4F5F
:104C10000E94C12160913C058BEF95E00E94CE225D
:104C20008091F405813031F460913C0585EF95E089
:104C30000E94CE2260913C058EEE95E009C081E095
:104C4000981611F0881631F460913C058BEF95E0D1
:104C50000E94CE2262960FB6F894DEBF0FBECDBF83
:104C6000CF91DF911F910F91FF90EF90DF90CF9048
:104C7000BF90AF909F908F900895FF920F931F93D6
:104C8000CF93DF9380912D050E94E21800913C059F
:104C900081E061E040E02FE633E00E947310CEED4A
:104CA000D3E0FF241EE083E0F81631F088818823EA
:104CB00019F400913C0502C000912D058EE0612F92
:104CC00045E029810E947E1200913C058EE0612F13
:104CD00045E020E00E94E513FF2019F08885882335
:104CE00019F400913C0502C000912D0586E4612F66
:104CF00045E029850E947E1200913C0586E4612FE3
:104D000045E020E00E94E513F3942296125F84E0D0
:104D1000F81649F600913C0589E16CE040E02DE78A
:104D200033E00E94731000913C0589E166E140E0A8
:104D300024E231E00E94731000913C0589E16DE1AD
:104D400040E028E231E00E94731000913C0589E1C7
:104D500064E240E020E231E00E94731000913C05E3
:104D600089E16BE240E02CE231E00E947310009197
:104D70003C0589E162E340E02BE131E00E947310E1
:104D800000913C0589E169E340E020E331E00E94C5
:104D9000731000913C0581E568E040E022E833E0D3
:104DA0000E94731000913C0581E56FE040E02CE823
:104DB00033E00E94731000913C0581E566E140E01C
:104DC00026E933E00E94731000913C0581E56DE116
:104DD00040E021EA33E00E94731000913C0581E538
:104DE00064E240E02CEA33E00E94731000913C053D
:104DF00081E56BE240E027EB33E00E947310009105
:104E00003C0581E562E340E022EC33E00E94731050
:104E100000913C0581E569E340E02BEC33E00E9422
:104E20007310DF91CF911F910F91FF9008958091A2
:104E30003905882349F48EE28093430581E080930D
:104E400039050E943D2608951092390508957F92F4
:104E50008F929F92AF92BF92CF92DF92EF92FF928A
:104E60000F931F93DF93CF93CDB7DEB7782E8A2DA4
:104E7000982C8130D1F4862F6AE00E941D36B82E1E
:104E8000842F0E941D36D82E822F0E941D36F82EA8
:104E9000802F0E941D36882E8E2D0E941D36A82E32
:104EA0008C2D0E941D36C82E19C0862F6AE00E94E4
:104EB0001D36B92E842F0E941D36D92E822F0E94B6
:104EC0001D36F92E802F0E941D36892E8E2D0E94B0
:104ED0001D36A92E8C2D0E941D36C92EB81439F40A
:104EE000DA1429F4FC1419F4992009F446C010E0EE
:104EF0002DE0E22E80E0B11609F481E0D11609F42C
:104F00008260F11609F48460E0E0811609F4E1E0C2
:104F1000A11609F4E260C11609F4E4608E1729F4C1
:104F200081E0981621F5EE2311F1AE2FB0E0FD01DE
:104F3000EE0FFF1FE252FC4F8081882319F400918D
:104F40003C0502C000912D05AA0FBB1FA252BC4F09
:104F50008E2D672D45E011962C910E947E120091B6
:104F60003C058E2D672D45E020E00E94E5131F5F74
:104F70008CE0E80E1A3009F0BDCFCF91DF911F9180
:104F80000F91FF90EF90DF90CF90BF90AF909F90E8
:104F90008F907F900895CF92EF92FF920F93DF93BF
:104FA000CF9300D000D000D0CDB7DEB7C090CD04F5
:104FB0008091CF04813049F5809132058130D9F458
:104FC00080912F057E010894E11CF11CB7010E941D
:104FD00046048AE38B8380913B05BE016C5F7F4F63
:104FE0000E94460400913C0581E06AE340E097019D
:104FF0000E9473100AC000912D0580E069E343E12F
:1050000027E00E947212109231058091CB0481300A
:1050100079F420E08C2D90E08F70907008970CF060
:1050200021E0809131052817A1F02093310506C0B9
:1050300080913105813069F410923105C0902D05C1
:1050400080E069E343E127E002E034E0E32E0E94E0
:10505000801026960FB6F894DEBF0FBECDBFCF915D
:10506000DF910F91FF90EF90CF900895AF92CF9284
:10507000EF92FF920F931F93DF93CF9300D00F9285
:10508000CDB7DEB780912D050E94E21880E38983B9
:105090001A821CE07E010894E11CF11C00913C0581
:1050A000812F61E040E097010E94731089818F5F3A
:1050B0008983145F143891F7A0903C0581E06AE180
:1050C00040E021E004ED13E0EE24E394CC24C3940B
:1050D0000E94FB0EA0903C0581E061E340E021E0EE
:1050E00009ED13E00E94FB0E90E05DE0C52E17C0B5
:1050F000112311F4963050F400913C058C2D6E2D47
:1051000045E020E09B830E94E5139B811F5F8CE0BC
:10511000E80E143069F79F5FC80E9A3021F010E056
:105120004DE0E42EE5CF1092320510923105109239
:105130004305109239050F900F900F90CF91DF919A
:105140001F910F91FF90EF90CF90AF9008958F92A5
:10515000AF92CF92EF92FF920F93DF93CF9300D055
:105160000F92CDB7DEB780914305813021F4809155
:10517000CA04813041F080914305882341F0809139
:105180003905882321F481E00E94F20320C0809138
:1051900039058130E1F48091CA04813009F06CC096
:1051A00080914305815080934305809143057E01A2
:1051B0000894E11CF11CB7010E94460400913C05D3
:1051C00088E761E040E097010E94731055C00E949B
:1051D000CB278091CA04882329F48091CE048823A8
:1051E00009F44AC06091470540914005209145056A
:1051F00000914605E0904B05C0904A058090CE0492
:105200008DE0AA24A3940E9427276091470540912E
:1052100040052091450500914605E0904B05C09062
:105220004A058090CE0489E1AA240E942727609134
:1052300038054091300520912E0500914405E090FD
:105240003A05C09033058090CE0485E2AA24A39449
:105250000E942727609138054091300520912E0546
:1052600000914405E0903A05C09033058090CE044B
:1052700081E3AA240E9427270F900F900F90CF91CF
:10528000DF910F91FF90EF90CF90AF908F900895A6
:105290005F926F927F928F929F92AF92BF92CF92C6
:1052A000DF92EF92FF920F931F93582EE42EA22EBF
:1052B00070E080E090E00E94A9349B01AC0160E0C6
:1052C00070E080E891E40E9410343B014C01FF241F
:1052D0000027F7FC0095102FC801B7010E94AB34DE
:1052E0009B01AC01C401B3010E94703520E030E0A5
:1052F00040E05FE30E94A9330E947D34162FBB2457
:10530000CC24B7FCC094DC2CC601B5010E94AB34A0
:105310009B01AC01C401B3010E94703520E030E074
:1053200040E05FE30E94A9330E947D34A62E161749
:1053300021F48091CE04813049F5165998E0E92E88
:10534000E50C00912D05812F6E2D42E021E00E9499
:1053500072128AE0F82EF50C00912D05812F6F2D29
:1053600042E021E00E9472121A2D165900913C056C
:10537000812F6E2D42E021E00E94721200913C05C7
:10538000812F6F2D42E021E00E9472121F910F9138
:10539000FF90EF90DF90CF90BF90AF909F908F9055
:1053A0007F906F905F9008950F931F93CF93DF933B
:1053B00090914405809138059817C9F490913A0569
:1053C00080913005981799F48091CE04813009F0CE
:1053D00054C00DC0909144058A81981729F490918A
:1053E0003A058B81981749F02F5F289603C0CCE7C8
:1053F000D4E020E08881813069F78091010682172E
:10540000E1F1209301068981882311F412E018C08C
:105410006C817D8180E00E94A80D082F6E817F81C4
:105420006115710521F080E00E94A80D080F81E848
:1054300090E0801B910962E070E00E944A36162FCE
:1054400000912D0580E060E040E827E00E947212A4
:1054500000913C052C813D81812F61E040E00E945C
:1054600073102E813F812115310539F000913C05E3
:10547000810F61E040E00E947310DF91CF911F9196
:105480000F9108950E94D429909146058091470577
:10549000981721F48091CE04813041F44091470562
:1054A0002091460580E36BE30E94482990914B05CB
:1054B00080914005981721F48091CE04813041F409
:1054C0004091400520914B0581E26BE30E94482901
:1054D00090914A0580914505981721F48091CE045A
:1054E000813041F44091450520914A0582E167E110
:1054F0000E9448290895FF920F931F93CF93DF9343
:10550000EC01623001F500912D0580E060E144E698
:105510002FE20E94721200913C0582E069E040E0B7
:105520009E010E947310282F90E0C0970CF075C068
:1055300000912D0540E3421B822F8E5F69E025E03C
:105540000E9472126AC080912D050E94E21800919B
:105550003C0580E067E040E821E00E947212009183
:105560003C0580E06FE040E821E00E94721200916B
:105570003C0585E667E041E029E30E9472128FEF67
:10558000809301060E94D42900913C0582E069E0E5
:1055900040E09E010E94731000913C0586E569E0A1
:1055A00040E02EEE33E00E94731000913C0588E647
:1055B00069E040E022EF33E00E9473102BE131E01C
:1055C000FF2412E109C081E0F81619F024E231E06D
:1055D00002C020E231E0115F00913C0589E6612FB5
:1055E00040E00E94731000913C05612F6A5F88E6DD
:1055F00046E127E00E94271200913C05612F675F7A
:105600008AE642E121E00E947212F39483E0F816E8
:10561000D1F61092320510923105DF91CF911F9192
:105620000F91FF9008952F923F924F925F926F9249
:105630007F928F929F92AF92BF92CF92DF92EF9222
:10564000FF920F931F93DF93CF9300D000D00F9260
:10565000CDB7DEB7982E6C83442E202ECD823A2C07
:1056600030E0442737FD4095542FCA01B9010E940C
:10567000AB345B016C01552466247724C301B2016D
:105680000E94A9349B01AC01C601B5010E941034EF
:105690005B016C01FF240027F7FC0095102FC80167
:1056A000B7010E94AB349B01AC01C601B5010E9459
:1056B000703520E030E040E05FE30E94A9330E94B3
:1056C0007D34462E8D81682F70E0882777FD809588
:1056D000982F0E94AB349B01AC01C601B5010E941A
:1056E000703520E030E040E05FE30E94A9330E9483
:1056F0007D34A62E461621F48091CE04813041F5EA
:105700001C811A192A2D2F5F8A8D8530C1F40091D2
:105710003C05892D612F422D0E94271281E08A15B8
:10572000B8F4C0903C051F5F422D42502A2D2150F5
:10573000892D8F5F612F00E035E0E32E07C0C09018
:105740003C05892D612F422D01E0EA8C0E948010DA
:105750008D817E010894E11CF11CB7010E94460472
:105760001C811A19D12ED80C00913C05832D890D6E
:105770006D2D41E097010E94731000912D0511508D
:10578000892D612F422D21E00E947212182D109553
:1057900000912D05892D6D2D432D212F0E94721210
:1057A00000912D05892D8F5F820D83196D2D3A94FF
:1057B000432D212F0E947212A41460F400912D0534
:1057C0008C81880E84184A18892D682D422D242D2D
:1057D0000E9472120F900F900F900F900F90CF9128
:1057E000DF911F910F91FF90EF90DF90CF90BF90CE
:1057F000AF909F908F907F906F905F904F903F9071
:105800002F900895CF92EF920F931F93DF93CF9332
:10581000CDB7DEB727970FB6F894DEBF0FBECDBF6A
:10582000E090CD048091CF04813009F05FC080E228
:105830008983809132058130D9F480912F05BE0192
:105840006E5F7F4F0E9446048AE38C8380913B0504
:10585000BE016B5F7F4F0E94460400913C0582E3CE
:1058600069E040E09E012F5F3F4F0E94731033C0FC
:1058700080913105813051F400912D0583E368E07A
:1058800043E127E00E94271210923105E0913A058A
:1058900000913C05F0E0EE0FFF1FE357FD4F208124
:1058A000318182E369E040E00E947310182F1E5C92
:1058B00080914405BE016E5F7F4F0E9446040091B7
:1058C0003C05812F69E040E09E012F5F3F4F0E9421
:1058D00073108253810F883148F400912D0548E1FF
:1058E000481B8E5C69E025E00E9472128091CB0417
:1058F000813079F420E08E2D90E08F7090700897C1
:105900000CF021E0809131052817A1F0209331059A
:1059100006C080913105813069F410923105C09044
:105920002D0583E368E043E127E002E054E0E52E43
:105930000E94801027960FB6F894DEBF0FBECDBF31
:10594000CF91DF911F910F91EF90CF900895FF922B
:105950000F931F938A30F1F400913C0588E067E1D2
:1059600041E022E20E94721200913C0589E068E366
:1059700043E521E00E94721208E140913C0587E076
:10598000602F0E940E130B5F0B33B9F78BE4FDE021
:10599000FF2E0AC08D3029F08EE4EAE0FE2E16E3D9
:1059A00004C08EE47AE0F72E1AE300913C05612FE3
:1059B00040E024E231E00E94731000913C058CE24B
:1059C000612F40E020E231E00E94731000913C051D
:1059D0008F2D612F40E02BE131E00E9473101F9169
:1059E0000F91FF9008952F923F924F925F926F9286
:1059F0007F928F929F92AF92BF92CF92DF92EF925F
:105A0000FF920F931F93DF93CF9300D000D0CDB7B9
:105A1000DEB7482E242EC22E102F70E0882777FD87
:105A20008095982F0E94AB3428E339EA4BEF5EE370
:105A30000E94703520E030E040E05FE30E94A9332F
:105A40000E947D34562E622D70E0882777FD809568
:105A5000982F0E94AB3428E339EA4BEF5EE30E94B3
:105A6000703520E030E040E05FE30E94A9330E94FF
:105A70007D34662EDD24EE24D7FCE094FE2CC70195
:105A8000B6010E94AB3428E339EA4BEF5EE30E9493
:105A9000703520E030E040E05FE30E94A9330E94CF
:105AA0007D34762E602F70E0882777FD8095982FC3
:105AB0000E94AB3428E339EA4BEF5EE30E94703575
:105AC00020E030E040E05FE30E94A9330E947D3493
:105AD000962E571430F4872C8518A6E3AA2EA71803
