:100000000C94DB030C94F8030C94F8030C94CF05C8
:100010000C94F8030C94F8030C94F8030C94F80374
:100020000C94F8030C94C51D0C94F8030C94761AE8
:100030000C94F8030C94641A0C9491190C94F80322
:100040000C94F8030C94F8030C94F8030C94F80344
:100050000C94F8030C9427050C94F8030C94F80303
:100060000C9485160C94F80305A84CCDB2D44EB967
:100070003836A9020C50B9918688083CA6AAAA2A4B
:10008000BE000000803F000000000000005F000094
:100090000007000700147F147F14242A7F2A1223EC
:1000A0001308646236495522500005030000001C05
:1000B0002241000041221C00082A1C2A0808083E90
:1000C00008080050300000080808080800606000B8
:1000D0000020100804023E5149453E00427F400086
:1000E00042615149462141454B311814127F102776
:1000F000454545393C4A49493001710905033649AE
:10010000494936064949291E003636000000563650
:10011000000000081422411414141414412214087D
:10012000000201510906324979413E7E1111117ECA
:100130007F494949363E414141227F4141221C7F4E
:10014000494949417F090901013E414151327F0836
:1001500008087F00417F41002040413F017F081493
:1001600022417F404040407F0204027F7F0408100C
:100170007F3E4141413E7F090909063E4151215ED2
:100180007F09192946464949493101017F01013F4B
:100190004040403F1F2040201F7F2018207F6314D5
:1001A0000814630304780403615149454300007F48
:1001B0004141020408102041417F00000402010275
:1001C0000440404040400001020400205454547850
:1001D0007F484444383844444420384444487F38B5
:1001E00054545418087E090102081454543C7F08E2
:1001F00004047800447D40002040443D00007F100E
:10020000284400417F40007C041804787C080404E2
:100210007838444444387C14141408081414187CA6
:100220007C080404084854545420043F4440203CB3
:100230004040207C1C2040201C3C4030403C442856
:100240001028440C5050503C4464544C4400083630
:10025000410000007F0000004136080008082A1C09
:1002600008081C2A0808010000000000011700000F
:100270000000030300030000050A1F0A1F0A05020D
:10028000151F1508031904130000040204020000DE
:10029000010300000000020E1100000002110E0018
:1002A0000000030A040A000003040E040000021008
:1002B0000800000003040404000001100000000016
:1002C000031804030000031F111F000003121F1076
:1002D0000000031D151700000315151F000003077C
:1002E000041F00000317151D0000031F151D00004B
:1002F00003011D030000031F151F00000317151F36
:100300000000010A0000000002100A0000000204C0
:100310000A000000030A0A0A0000020A04000000A2
:10032000030115020000040E04020000031E051E56
:100330000000031F150A0000030E11110000031F27
:10034000110E0000021F15000000021F0500000032
:10035000030E111D0000031F041F0000011F0000F9
:10036000000002100F000000031F041B0000021F0A
:1003700010000000051F0204021F041F02041F00DA
:10038000030E110E0000031F050200000402151DDC
:100390001200031F051A00000312150900000301D3
:1003A0001F010000031F101F0000030F100F0000AB
:1003B000050F100C100F031B041B000003031C038C
:1003C0000000031915130000021F110000000314A0
:1003D0000814000002111F000000030201020000C7
:1003E00003101010000002010200000003041F119E
:1003F0000000011F0000000003111F04000004049E
:10040000150E040004040E1504004932433A20423C
:1004100055535F4552524F520D0A004932433A201C
:100420004E4F5F494E464F0D0A004932433A205322
:10043000542D3E444154415F4E41434B206F722046
:100440004C4153545F444154410D0A004932433AF0
:100450002053542D3E444154415F41434B0D0A000B
:100460004932433A2053542D3E534C415F41434B54
:100470000D0A004932433A2053522D3E53525F53E6
:10048000544F500D0A004932433A2053522D3E44F6
:100490004154415F4E41434B0D0A004932433A20DB
:1004A00053522D3E444154415F41434B0D0A004994
:1004B00032433A2053522D3E534C415F41434B0D42
:1004C0000A004932433A204D522D3E534C415F4180
:1004D000434B0D0A004932433A204D522D3E4441D0
:1004E00054415F41434B0D0A004932433A204D5479
:1004F0002D3E4152425F4C4F53540D0A0049324346
:100500003A204D54522D3E534C415F4E41434B20B7
:100510006F72204D542D3E444154415F4E41434B38
:100520000D0A004932433A204D522D3E4441544178
:100530005F4E41434B0D0A004932433A204D542D42
:100540003E534C415F41434B206F72204441544124
:100550005F41434B0D0A004932433A204D2D3E5333
:10056000544152540D0A009292009200749200AECF
:100570000000570000740000570049000062006E40
:10058000006862005792AEC4009BAE009200748275
:100590006E00740000570049000062006E0068623F
:1005A000005792AEC4009BAE00920074826E0000B1
:1005B000AEA49B8A0092005C62740062748200AEFA
:1005C000A49B8A009200E800E8E8000000AEA49B2B
:1005D0008A0092005C627400627482008A00008269
:1005E000007400000074740074007482009274003F
:1005F0006257000074740074007482920000747476
:10060000007400748200927400625700009292009D
:100610009200749200AE0000570000740000570072
:1006200049000062006E006862005792AEC4009BF1
:10063000AE00920074826E00740000570049000002
:1006400062006E006862005792AEC4009BAE0092DA
:100650000074826E0092740057005C00629B009BE5
:100660006200006EC4C4C4AE9B9274006257000066
:1006700092740057005C00629B009B6200006E9BBE
:10068000009B9B9282744900493A000000000303DA
:100690000303030303030303060303060303030324
:1006A0000603030303030303030303030303030317
:1006B0000303030303030303060303030306030304
:1006C00003030303030303030303030303030303FA
:1006D00003030303030606030303030303030303E4
:1006E00003030303030603030303030303030303D7
:1006F00003030606030303030303030303030303C4
:1007000003030603030303060303060C03030303A7
:1007100003030303030303030303060303030303A6
:100720000303030C0C030303030303030303030387
:100730000303030603030303030303030303060383
:100740000306030303030603030303030303030373
:100750000303030303030303030303030303060366
:100760000303030603030303030303030303030356
:100770000303030303030303030303060303030346
:10078000060303030303030303060404040404042D
:100790000303030303030603030303060303030323
:1007A0000303030306030303030404040303030313
:1007B000030C0C0C0C0011241FBECFEFD8E0DEBFE1
:1007C000CDBF14E0A0E0B1E0E6E4FFE602C0059092
:1007D0000D92AC3CB107D9F716E0ACECB4E001C027
:1007E0001D92A230B107E1F70E94F61E0C94A137CA
:1007F0000C9400001092D1049091DD05913049F4E1
:10080000809132058130D9F0909332059093D104D4
:1008100008959091440580913805981751F490916E
:100820003A0580913005981721F480913205823085
:1008300031F082E08093320581E08093D104089505
:10084000282F8091CE0490E033E0880F991F3A95CD
:10085000E1F7E0913605F0913705E80FF91F0680C2
:10086000F781E02D309711F480E008958091240500
:100870008093CD04822F099581E008958091CE0464
:100880008F5F8093CE048091CE04893010F0109257
:10089000CE048091CE0490E043E0880F991F4A95E2
:1008A000E1F7E0913605F0913705E80FF91F8181F6
:1008B0000895809146058093470580914B0580936C
:1008C000400580914A0580934505809144058093B9
:1008D000380580913A0580933005809133058093E7
:1008E0002E0508951F93CF93DF93182F8091CE0488
:1008F00090E053E0880F991F5A95E1F7C0913605B3
:10090000D0913705C80FD91F809124058093CD045D
:100910008091CC048130C1F48091DA058093460542
:100920008091DC0580934B058091D30580934A0527
:100930008091D605809344058091DF0580933A0528
:100940008091E20580933305113011F40E9459041F
:1009500088818823B9F0133071F40E94FA03EC8186
:10096000FD8109958091CC04813011F40E945904D5
:100970001092D00407C081E08093D004EA81FB810B
:10098000812F0995DF91CF911F910895282FFB01A9
:100990006AE00E940E37805D8083822F0E940E37AE
:1009A000905D9183128208950F9300913C0581E23E
:1009B0006EE041E020E031E00E94F31000913C0540
:1009C00082E16EE141E02BE031E00E94F31080E330
:1009D00095E728EC30E0F9013197F1F70197D9F765
:1009E00086EA9EE064E60E94C61A80EA9FE064E61A
:1009F0000E94C61A0F91089526982E9A81E080933E
:100A00006800EBE6F0E080818064808382E0809380
:100A10007C0010927B00EAE7F0E08EE88083808122
:100A200080648083089580917A00877F80937A0024
:100A300080917A00806480937A0080917A0084FFAC
:100A4000FCCF2091780030917900C90108951F9260
:100A50000F920FB60F9211242F933F934F935F93F2
:100A60006F937F938F939F93AF93BF93EF93FF9376
:100A70007894809178009091790022E0803E9207EE
:100A800028F01092D4041092D20473C022E083366E
:100A9000920798F18091D20482FD6BC080E29EE4BF
:100AA0000197F1F70E941305825692408E37910507
:100AB00008F05FC081E08093D50412C00E94130546
:100AC000825692408E37910558F08091D2048B7FE8
:100AD0008093D2048091D30484608093D30449C06E
:100AE0008091D504882351F78091D204846080934B
:100AF000D2048091D40484603AC08F509140E8F0D1
:100B00008091D20481FD10C080E29EE40197F1F74C
:100B10000E9413058E5091408555914050F580916B
:100B2000D30482608093D3048091D2048260809346
:100B3000D2048091D40482601AC08091D20480FDD6
:100B40000EC080E29EE40197F1F70E9413058F50DA
:100B5000914078F48091D30481608093D304809194
:100B6000D20481608093D2048091D4048160809308
:100B7000D40480917A00886480937A00FF91EF9189
:100B8000BF91AF919F918F917F916F915F914F91A5
:100B90003F912F910F900FBE0F901F9018951F92AD
:100BA0000F920FB60F92112478940F900FBE0F90F2
:100BB0001F9018958F929F92AF92BF92CF92DF9223
:100BC000EF92FF920F937C016B015A01490180E083
:100BD00066E00E94FC18C701602F0E943515C6010F
:100BE000602F0E94351580E067E00E94FC18C50167
:100BF000602F0E943515C401602F0E9435150F919A
:100C0000FF90EF90DF90CF90BF90AF909F908F902C
:100C100008950F931F93CF93DF938C01EB0180E036
:100C200066E00E94FC1860913C05C8010E943515E1
:100C3000209749F080E067E00E94FC1860913C0535
:100C4000CE010E943515DF91CF911F910F9108952C
:100C50001F93182F88E064E00E94FC1860913C0507
:100C60008DE791E00E94351580912D05882349F488
:100C700060913C058BE891E00E9435158DE891E08C
:100C800002C084E991E0612F0E9435151F910895FB
:100C9000EF92FF920F931F93082FF62EE42E122F40
:100CA00088E063E00E94FC1860913C058CE991E0CB
:100CB0000E943515802F6F2D4E2D0E94EB1A6091EA
:100CC0003C05E82FF0E0EE0FFF1FE653FD4F80815B
:100CD00091810E943515E02FF0E0EE0FFF1FE357E2
:100CE000FD4F808191811C3019F460912D0502C067
:100CF00060913C050E94351560913C0580E20E94A0
:100D00000A151D3019F460912D0502C060913C0553
:100D10008F2D0E94461560913C058CE20E940A15B9
:100D20001E3019F460912D0502C060913C0584E1EC
:100D30000E9446151E3019F460912D0502C0609185
:100D40003C058E2D0E9446151F910F91FF90EF904C
:100D50000895DF92EF92FF920F931F93E82E162FC4
:100D6000D42EF22E21E00F2D0E94F212ED0C0E2D4A
:100D700002501150802F612F4F2D0E948E131E5F45
:100D8000802F612F4F2D0E948E1301501350802F02
:100D9000612F4F2D0E948E131C5F802F612F4F2DCE
:100DA0000E948E131F910F91FF90EF90DF90089596
:100DB000CF92EF920F938091D7048F5F8093D704E7
:100DC00080E060E00E94FC1860913C0582EA91E0BE
:100DD0000E943515C0902D058EE760E042E028E0C6
:100DE00000E0EE240E94001188E061E00E94FC18FF
:100DF00060913C0588EB91E00E94351588E062E047
:100E00000E94FC1860913C058DEC91E00E94351524
:100E10008091D40560913C050E94461560913C0587
:100E20008AE30E940A158091D90560913C050E94D1
:100E3000461560913C058AE30E940A158091E605FB
:100E400060913C050E9446158091E5056091D805AA
:100E50004091D70527E00E94480680913C050E94FA
:100E6000280688E065E00E94FC1860913C058AED48
:100E700091E00E9435158091B40060913C050E947C
:100E800046158DEF92E06FE373E00E940906C09073
:100E90002D058EE760E342E020E10E940011C09042
:100EA0002D0580E068E048E028E20E940011809172
:100EB000D70481508093D7040F91EF90CF9008957D
:100EC000BF92CF92DF92EF92FF920F931F93CF9337
:100ED000DF93D090D405F090D9051091E6050E94DB
:100EE000D8068091D7048F5F8093D70420913C056A
:100EF00080E063E147E00E94A9068091D704815019
:100F00008093D7048AE08093D60404E02AE0B22ECE
:100F1000C8ECD0E08091D30480FDF0C08091D30470
:100F2000882321F48091D404882319F0B092D60448
:100F300007C08091D604882319F410922305DEC0DF
:100F40008091D30481FF8DC01092D3048091D70487
:100F50008F5F8093D7040430B9F480E562E00E948B
:100F6000FC1860912D058D2D0E94461500913C05C1
:100F700088ED92E06DEE71E04BEE52E021EF31E052
:100F80000E94DA0505E668C0053609F580E562E0ED
:100F90000E94FC1860913C058D2D0E9446156091C1
:100FA0003C058AE30E940A1560912D058F2D0E9451
:100FB000461500913C0588ED92E066EF71E04BEE3E
:100FC00052E02AEF31E00E94DA0506E645C0063617
:100FD00009F582E662E00E94FC1860913C058F2DC5
:100FE0000E94461560913C058AE30E940A156091B3
:100FF0002D05812F0E94461500913C0588ED92E059
:101000006FEF71E04BEE52E023E032E00E94DA0530
:1010100007E622C084E762E00E94FC1860913C056C
:10102000812F0E9446158DEF92E06FE373E00E94DE
:101030000906D092D405F092D9051093E6050091E7
:10104000D805E090E505C090D705812F6F2D4D2D77
:1010500020E00E947E1B04E08091D70481508093A1
:10106000D7048091D30482FD04C08091D40482FF10
:1010700051CF1092D3048091D7048F5F8093D7040F
:10108000053669F4D39487E18D1508F4DD2480E5F5
:1010900062E00E94FC1860912D058D2D1CC0063663
:1010A00069F4F3948BE38F1508F4FF2482E662E081
:1010B0000E94FC1860912D058F2D0DC0073669F434
:1010C0001F5F1C3308F010E084E762E00E94FC1808
:1010D00060912D05812F0E9446158091D704815083
:1010E0008093D7048091D40482FF14CF8CED95E0D7
:1010F000FE013197F1F70197D9F70CCFDF91CF912E
:101100001F910F91FF90EF90DF90CF90BF900895C7
:10111000FF920F931F93CF93DF930E94D806809185
:10112000D7048F5F8093D70420913C0580E063E271
:1011300047E00E94A9068091D70481508093D7048C
:101140008AE08093D6041FE03AE0F32EC8ECD0E0AA
:1011500001E08091D30480FF07C060912D0588E0F5
:1011600090E00E94933783C08091D304882321F4B8
:101170008091D404882319F0F092D6040DC0809198
:10118000D604882349F460912D0588E090E00E9400
:101190009337109223056BC08091D30481FF25C043
:1011A0001092D3048091D7048F5F8093D7041F30AF
:1011B00061F480912D050E94280689E293E065E59F
:1011C00073E00E9409061AE60BC080913C050E945C
:1011D00028068DEF92E06FE373E00E9409061FE09E
:1011E0008091D70481508093D7048091D30482FDED
:1011F00004C08091D40482FFACCF1092D3041A367D
:1012000051F580912D05882329F400932D05109226
:101210003C0504C010922D0500933C058091D70435
:101220008F5F8093D7040E94D80689E293E065E53A
:1012300073E00E94090620913C0580E063E247E0EC
:101240000E94A90680912D050E9428068091D7044E
:1012500081508093D7048091D40482FF7ACF8CEDA3
:1012600095E0FE013197F1F70197D9F772CFDF9141
:10127000CF911F910F91FF900895BF92CF92DF926F
:10128000EF92FF920F931F93CF93DF93F090D805C7
:101290001091E505D090D7050E94D8068091D7041B
:1012A0008F5F8093D70420913C0580E06BE147E09D
:1012B0000E94A9068091D70481508093D7048AE0C8
:1012C0008093D60407E07AE0B72EC8ECD0E0809196
:1012D000D30480FD09C18091D304882321F4809137
:1012E000D404882319F0B092D60407C08091D604A4
:1012F000882319F410922305F7C08091D30481FF4D
:101300006DC01092D3048091D7048F5F8093D7046F
:101310000730A1F4812F6F2D4D2D2CE00E9448063F
:1013200000913C0588ED92E068E072E04BEE52E0FF
:101330002CE032E00E94DA050CE04BC00C30A1F446
:10134000812F6F2D4D2D2DE00E94480600913C0508
:1013500088ED92E061E172E04BEE52E025E132E08F
:101360000E94DA050DE035C00D30A1F4812F6F2DFC
:101370004D2D2EE00E94480600913C0588ED92E03C
:101380006AE172E04BEE52E02EE132E00E94DA05B3
:101390000EE01FC0812F6F2D4D2D27E00E944806C3
:1013A0008DEF92E06FE373E00E940906D092D705BB
:1013B0001093E505F092D8058091E6056091D90576
:1013C0004091D40520E00F2DE12ECD2C0E947E1BF4
:1013D00007E08091D70481508093D7048091D30493
:1013E00082FD04C08091D40482FF71CF1092D30497
:1013F0008091D7048F5F8093D7040C3031F51F5F45
:101400001D3010F011E056C0123089F48DE18F15B7
:1014100010F46DE1F62E8D2D90E00E94401B882384
:1014200009F048C08DE1F81609F442C043C01430F9
:1014300031F0163021F0193011F01B30D9F58EE162
:101440008F15C0F55EE1F52E35C00D30F9F4F3943B
:101450008FE18F1508F445C0123061F48DE18F15CE
:1014600008F43FC08D2D90E00E94401B882311F5A9
:101470008DE109C0143031F0163021F0193011F02F
:101480001B30C1F48FE1F81661F114C00E3091F4F5
:10149000D39483E68D1508F4DD248D2D90E00E9411
:1014A000401B882339F4123029F48CE18F1510F495
:1014B0004CE1F42E812F6F2D4D2D202F0E944806D8
:1014C0008091D70481508093D7048091D40482FF07
:1014D000FECE8CED95E0FE013197F1F70197D9F73B
:1014E000F6CEFF24F394E6CFDF91CF911F910F91B9
:1014F000FF90EF90DF90CF90BF9008950F931F93D0
:10150000CF93DF930E94D8068091D7048F5F80939A
:10151000D70483E193E060E070E00E940906209127
:101520003C0580E06BE247E00E94A9068091D70469
:1015300081508093D7048AE08093D60418E00AE0B3
:10154000C8ECD0E08091D30480FF07C06091B40064
:1015500083E090E00E94933793C08091D304882366
:1015600021F48091D404882319F00093D6040DC08F
:101570008091D604882349F46091B40083E090E020
:101580000E949337109223057BC08091D30481FF82
:1015900031C01092D3048091D7048F5F8093D70419
:1015A000183091F484E765E00E94FC188091B40043
:1015B00060912D050E94461589E293E065E573E090
:1015C0000E94090619E611C084E765E00E94FC1834
:1015D0008091B40060913C050E94461583E193E040
:1015E0006FE373E00E94090618E08091D7048150F0
:1015F0008093D7048091D30482FD04C08091D404E9
:1016000082FFA0CF1092D304193671F58091B400F7
:101610008F5F8093B4008091B400813110F01092FC
:10162000B4008091D7048F5F8093D7040E94D806BE
:1016300089E293E065E573E00E94090620913C058C
:1016400080E06BE247E00E94A90684E765E00E9423
:10165000FC188091B40060912D050E944615809180
:10166000D70481508093D7048091D40482FF6ACF3D
:101670008CED95E0FE013197F1F70197D9F762CF34
:10168000DF91CF911F910F910895CF92DF92EF924A
:10169000FF920F931F93DF93CF9300D0CDB7DEB7A8
:1016A0008091D7048F5F8093D70480E060E00E9430
:1016B000FC1860913C0583E292E00E94351500E041
:1016C000E2E0CE2ED12CCC0EDD1E7E010894E11C72
:1016D000F11C102F1F5F88E0612F0E94FC186091A1
:1016E0003C0584E392E00E94351560913C05812F12
:1016F0000E94461560913C058BE392E00E943515EF
:10170000802FB701A6010E940B1D898160913C05C5
:101710000E94461560913C058AE30E940A158A8161
:1017200060913C050E944615012F143091F688E027
:1017300065E00E94FC1860913C0583E492E00E9401
:1017400035158091DE0560913C058F5F0E9446153E
:1017500080912305843119F08DEF92E002C083E17E
:1017600093E06FE373E00E940906C0902D0580E0CE
:1017700068E047E028E200E0EE240E94001180913A
:10178000D70481508093D7040F900F90CF91DF91B1
:101790001F910F91FF90EF90DF90CF900895DF920F
:1017A000EF92FF920F931F93DF93CF9300D0CDB7AB
:1017B000DEB71091DE050E94450B8091D7048F5F44
:1017C0008093D70460914C0520913C05660F660F0D
:1017D000660F655F80E047E00E94A9068091D7040C
:1017E00081508093D7048AE08093D60480914C0581
:1017F000843051F080914C05BE016F5F7F4FAE0188
:101800004E5F5F4F0E940B1D05E0AAE0DA2EF8EC58
:10181000EF2EF12C8091D30480FF03C01092D304EB
:1018200018C18091D304882321F48091D4048823A3
:1018300019F0D092D60407C08091D604882319F4F9
:101840001092230506C18091D30481FFAEC010928F
:10185000D3048091D7048F5F8093D7040530A9F516
:1018600080914C058430C1F484E765E00E94FC1847
:1018700060912D05812F8F5F0E94461500913C05D8
:1018800088ED92E066E572E04BEE52E02AE532E048
:101890000E94DA0504E184C060914C056F5F82E626
:1018A0000E94FC18898160912D050E9446150091C7
:1018B0003C0588ED92E06DEE71E04BEE52E021EFD9
:1018C00031E00E94DA0505E66BC0053621F560912E
:1018D0004C056F5F82E60E94FC18898160913C058F
:1018E0000E94461560914C056F5F84E70E94FC18CA
:1018F0008A8160912D050E94461500913C0588ED76
:1019000092E066EF71E04BEE52E02AEF31E00E9488
:10191000DA0506E645C0043191F484E765E00E94EB
:10192000FC1860913C05812F8F5F0E9446158FE067
:1019300090E0612F0E9493371093DE051CC06091E8
:101940004C056F5F82E60E94FC18898160913C051E
:101950000E94461560914C056F5F84E70E94FC1859
:101960008A8160913C050E94461580914C056981F1
:101970004A810E94951D812F6FE275E04BE355E08F
:101980000E940B1D80912305843119F08DEF92E0A8
:1019900002C083E193E06FE373E00E94090605E073
:1019A0008091D70481508093D7048091D30482FD25
:1019B00004C08091D40482FF2DCF1092D304809173
:1019C000D7048F5F8093D704043169F41F5F14300C
:1019D00008F010E084E765E00E94FC1860912D0596
:1019E000812F8F5F23C0053679F489818F5F8983CA
:1019F0008981883108F0198260914C056F5F82E619
:101A00000E94FC18898110C0063691F48A818F5F8C
:101A10008A838A818C3308F01A8260914C056F5F4B
:101A200084E70E94FC188A8160912D050E9446156A
:101A30008091D70481508093D7048091D40482FF91
:101A4000E9CE8CED95E0F7013197F1F70197D9F7E1
:101A5000E1CE0F900F90CF91DF911F910F91FF90EA
:101A6000EF90DF900895809123058131B9F08231A4
:101A700028F4853041F0803121F50BC0823199F096
:101A80008331F9F415C080E18093230510924C0551
:101A900015C081E18093230581E00EC082E180932F
:101AA000230582E009C083E18093230583E004C01D
:101AB00084E18093230584E080934C050E94CF0B42
:101AC000089585E08093230508950E94D8068091AB
:101AD000D7048F5F8093D70420913C0580E06BE0B2
:101AE00047E00E94A9068091D70481508093D704D3
:101AF0008AE08093D6049AE08091D30480FD45C0AB
:101B00008091D304882321F48091D404882319F090
:101B10009093D60407C08091D604882319F41092BC
:101B2000230508958091D30481FF24C01092D3042B
:101B30008091D7048F5F8093D70480912D050E94F8
:101B400062190E94330D80912305853021F0809128
:101B500023058823B1F780912305853029F48091EE
:101B6000D30481608093D3048091D7048150809303
:101B7000D70408958091D30482FD04C08091D404D9
:101B800082FFBACF1092D304B7CF08958091230576
:101B9000882371F48091D7048F5F8093D70480915C
:101BA0002D050E9462198091D70481508093D7043B
:101BB00080912305853091F0863028F4882341F008
:101BC000843021F511C08730A9F08F30F9F418C0A6
:101BD00085E0809323050E94650D089584E080933D
:101BE00023050E946007089587E0809323050E94E3
:101BF0003D0908958FE0809323050E948808089589
:101C000088E0809323050E947E0A089510922305A0
:101C10000895982FFB0181568A3110F480E203C0A9
:101C20009B3718F08AE1808301C01082892F90E0F1
:101C300080972081821B9109FC01EE0FFF1FE80FA6
:101C4000F91FEE0FFF1FEA59FD4FE4918E2F089503
:101C5000CF92DF92EF92FF920F931F93DF93CF9378
:101C60000F92CDB7DEB7082F7B0110E06E0108940C
:101C7000C11CD11C0CC0002331F4B6010E94090E16
:101C80001F5F180F01C01A5F0894E11CF11CF701D7
:101C90008081882381F7812F0F90CF91DF911F9151
:101CA0000F91FF90EF90DF90CF9008952F923F9289
:101CB0004F925F926F927F928F929F92AF92BF925C
:101CC000CF92DF92EF92FF920F931F93DF93CF9308
:101CD000CDB7DEB763970FB6F894DEBF0FBECDBFAA
:101CE000182F6A874B872C87ED86CE86AF861982A0
:101CF000442329F097E09D8375E0372E09C0802F9B
:101D0000BE016F5F7F4F0E94090E382E85E08D83E4
:101D10009C85913029F088E08F8391E09E8303C0F9
:101D20008FEF8F838E839A85969596959695998752
:101D3000402E55245201AA0CBB1CAA0CBB1CA40C9F
:101D4000B51C80E69FEFA80EB91E1C838824992439
:101D50009A859770988B8E819E85899F802D1124FE
:101D6000898B8E8181958A8B9D85899F902D1124E9
:101D70009B8B96C0D888862D69850E94FC180E948E
:101D800057180E945718F82E2A84622D772473144E
:101D900011F480E01EC0E72DF0E08B858823A1F4CC
:101DA000898120EE3FEF281B3109240D351DC90123
:101DB000880F991F820F931F880F991FE80FF91F33
:101DC000E959FD4F849105C0EA0DFB1DEA57FF4F0D
:101DD00084919F85992309F48095082F10E08A81CA
:101DE0009B8108231923E22CCC2434C09F81D9166F
:101DF000F1F4669566956695862D0E94FC188F2DE8
:101E00000E9416196E2D669566956695862D0E9420
:101E1000FC180E9457180E945718F82E8C858130A4
:101E200019F06E2DDD2403C06E2D37E0D32E81E036
:101E300090E00D2C02C0880F991F0A94E2F701155B
:101E4000110519F48095F82201C0F82A9E81D90E57
:101E5000E90EC3948E85C81648F29989290E7394A9
:101E6000371408F094CF669566956695862D0E9486
:101E7000FC188F2D0E9416198A89680E98859F5F1D
:101E8000988788859D85891708F474CF8C819B89F4
:101E9000890F8C830894811C911C8D81881668F4AD
:101EA00081E090E0082C02C0880F991F0A94E2F7A5
:101EB0009B838A836C801886E4CF33949E85399EF9
:101EC000802D112463960FB6F894DEBF0FBECDBFF0
:101ED000CF91DF911F910F91FF90EF90DF90CF9006
:101EE000BF90AF909F908F907F906F905F904F903A
:101EF0003F902F9008956F927F928F929F92AF9212
:101F0000BF92CF92DF92EF92FF920F931F93CF93E6
:101F1000DF93682E742ED22EE8018E2C9C2CBA2CC6
:101F2000162FFF2411C0862D612F472D2D2DE82C53
:101F3000C92CAB2C0E94560E91E0D91611F4181B37
:101F400001C0180FF80E21960881002361F78F2D2C
:101F5000DF91CF911F910F91FF90EF90DF90CF9085
:101F6000BF90AF909F908F907F906F9008952F9229
:101F70003F924F925F926F927F928F929F92AF9219
:101F8000BF92CF92DF92EF92FF920F931F93DF9356
:101F9000CF93CDB7DEB760970FB6F894DEBF0FBE14
:101FA000CDBF8E836F83442E2B873C870887E986BD
:101FB000CA86442311F017E001C015E0842D6B851B
:101FC0007C850E94280E4885849F802D11248D8356
:101FD0005985159F102D11241C837724AA24DD24F4
:101FE000BB241B8266241A82CC2455249F81892F0E
:101FF00090E09E878D87E12FF0E0F88BEF87D5C0CA
:10200000272D30E08D859E85820F931F43E09595A7
:1020100087954A95E1F7882EEF80E70C47E0E422A8
:1020200049F48F859889821B930B08971CF028E050
:10203000922E24C08F859889821B930B8E0D911D43
:10204000099724F098E0992E9E1802C09C8097185A
:102050000DE415E0FF240FC08E818F0D682D0E94C6
:10206000FC180E945718F80180830E945718F80145
:1020700081938F01F394FD81FF1670F38E81682D9B
:102080000E94FC188824839401C0880CEA94EAF723
:102090008B859C859C01190100E0FF2410E07EC027
:1020A000FC1410F0002381F4F10151901F01442031
:1020B00019F085E0F82E07C0852DBE016F5F7F4FB8
:1020C0000E94090EF82ECC24F8851F1711F000236A
:1020D00061F5CF1411F4AA2422C02C2D30E0442045
:1020E000A9F4898140EE5FEF481B5109CA01850DB3
:1020F000911DFC01EE0FFF1FE80FF91FEE0FFF1FF0
:10210000E20FF31FE959FD4FA49009C055E0559E19
:10211000F0011124E20FF31FEA51F040A490C394A0
:102120008A85882309F4A09410E098E0991619F4A0
:10213000112341F02EC0E02FF0E0E35BFA4FD08096
:10214000282D08C0EA85EE2319F0DD24DA9401C0B9
:10215000DD2421E08A2D90E00A8002C095958795C4
:102160000A94E2F7982FBB806A80392D10C090FD49
:1021700004C0822F8095D82201C0D22AB394F98559
:10218000BF1619F496956394BB24220F3150332364
:1021900071F78D2D0E9416191F5F0F5F4D81041777
:1021A00008F47ECF790C6A82BB825C81751608F4D4
:1021B00027CF8D8160960FB6F894DEBF0FBECDBFDE
:1021C000CF91DF911F910F91FF90EF90DF90CF9013
:1021D000BF90AF909F908F907F906F905F904F9047
:1021E0003F902F900895CF92EF920F93C02E01E071
:1021F000EE24E3940E94B70F0F91EF90CF900895D3
:102200002F923F924F925F926F927F928F929F9206
:10221000AF92BF92CF92DF92EF92FF920F931F93F4
:10222000DF93CF93CDB7DEB728970FB6F894DEBF14
:102230000FBECDBF682E562E4A83822EDE2C2C2C4C
:10224000332461E0C61611F43324339444244394B8
:102250004324002341F472E0D71609F047C0BB24A1
:10226000BCEFCB2E46C0013001F582E0D81641F418
:10227000882D63E00E940E37ABEFCA2EC90E0AC04C
:1022800093E0D91649F4882D63E00E940E37F7E0F9
:10229000CF2EC91ABB242DC0E1E0DE1639F5CC24BF
:1022A000C394C820F5E0CF0EF5CF62E0D61641F416
:1022B000852D63E00E940E37ECEFCE2EC91A14C0B4
:1022C00073E0D71639F4852D63E00E940E3776E06F
:1022D000C72E09C081E0D81611F0B62C08C0CC2456
:1022E000C394C52096E0C90EB62C03C0BB2466E09B
:1022F000C62EAA2410E0ED2DE250EC830CC1EA2C8E
:10230000FF24C701850D911D53E0959587955A953A
:10231000E1F7982E7A2C750CF7E07F2231F4882DA6
:1023200090E08E199F09089734F46DE475E07E8380
:102330006D8300E017C074E0D716B9F3198217C097
:10234000802F860D692D0E94FC180E945718ED8180
:10235000FE8180830E945718ED81FE818193FE8368
:10236000ED830F5FFA810F1758F361E06983862DC3
:10237000692D0E94FC18282D30E02E193F0988E0B5
:1023800090E087199109281739071CF4082D0A19BC
:1023900002C008E00719FF247A2D7C0D7B839C2C5A
:1023A0009A18B2C08981813029F4EF2DF0E0E35B07
:1023B000FA4F108192E0D916A1F4292D832F63E002
:1023C0000E940E37E92EE32FF0E0F887EF83CF016C
:1023D000019663E070E00E943B37AC01372DA0E02E
:1023E0008CC02B81EBCF083009F040C0DD2091F18B
:1023F000F1E0DF1661F4822F90E06F817885862707
:10240000972780FF02C01AEA2CC015E52AC073E0A6
:10241000D71661F4822F63E00E940E37E91601F1AE
:10242000892F90E048175907C9F416C082E0D816E2
:1024300061F4822F63E00E940E37E91689F0892F3C
:1024400090E04817590741F409C094E0D91659F0B3
:1024500010E007C01FEF05C014E203C012E901C07D
:1024600019E4E1E02E121095A85F47C0DD2021F1AC
:10247000F1E0DF1649F4822F90E06F81788586279E
:10248000972780FF19C01AC07C81723038F4822FE0
:1024900063E00E940E37E91689F40EC084E0D81676
:1024A00069F4812F90E0032E02C0959587950A94D8
:1024B000E2F780FF06C00FC0822D01C0842D81305D
:1024C00051F481E090E0032E02C0880F991F0A9416
:1024D000E2F7182B0AC081E090E0032E02C0880FBB
:1024E000991F0A94E2F78095182392E0D91611F407
:1024F000215001C02F5FAF5F3F5FA01708F473CF7B
:10250000812F0E941619F3943F2D3B0DEA81FE1690
:1025100008F448CFA00EA81408F4F1CE28960FB600
:10252000F894DEBF0FBECDBFCF91DF911F910F9109
:10253000FF90EF90DF90CF90BF90AF909F908F90E3
:102540007F906F905F904F903F902F9008958F9263
:102550009F92AF92BF92CF92DF92EF92FF920F9332
:102560001F93D82EA62EB42E922E802E82E0841792
:10257000A8F41D2D1F5F0EEFF02EF40E812F4F2DAE
:1025800021E002E0EE24C82C0E9400116A2D615067
:10259000690D812F4F2D21E00E9400118D2D6A2D94
:1025A00041E0292D02E0EE24C82C0E94001181E0B8
:1025B0008B1510F0891558F4DA948D2D8B0D6A2D3A
:1025C00041E0292D02E0EE24C82C0E9400111F9149
:1025D0000F91FF90EF90DF90CF90BF90AF909F90C2
:1025E0008F900895CF92EF920F93C02E02E0EE24C9
:1025F0000E9400110F91EF90CF9008952F923F927B
:102600004F925F926F927F928F929F92AF92BF9202
:10261000CF92DF92EF92FF920F931F93DF93CF93AE
:1026200000D000D0CDB7DEB7282E362E422E502E49
:10263000862F82198983942E842F90E0880F991F0A
:10264000909581959F4F182F1D5F1C821B828824B7
:10265000962FE9819E1B9A8346C0DB80F32CF918E4
:10266000692C772467FC70945301AA0CBB1C8D2D38
:10267000820D6F2D41E02A2D02E0E42CC52C0E9432
:102680000011822D8D196F2D41E02A2D0E9400111D
:10269000F32DFD19DF2E8A81890D6F2F41E0282D42
:1026A0000E9400118F2D9981891B6D2D41E0282DED
:1026B0000E94001117FF05C01A5F882D880F180FA0
:1026C0000BC0165F8B819C8186199709880F991F13
:1026D000880F991F180F9A94EB81FC813196FC8327
:1026E000EB83F2E08F0E8B8198160CF0B6CF0F9033
:1026F0000F900F900F90CF91DF911F910F91FF904E
:10270000EF90DF90CF90BF90AF909F908F907F9091
:102710006F905F904F903F902F900895DF92EF92CF
:10272000FF920F931F93082FF62EE42E162F169567
:1027300016951695612F0E94FC180E9457180E944A
:102740005718D82E802F612F0E94FC182F2D30E0B3
:1027500081E0E81659F42770307081E090E002C003
:10276000880F991F2A95E2F78D290BC027703070CA
:1027700081E090E002C0880F991F2A95E2F78095CA
:102780008D210E9416191F910F91FF90EF90DF90FD
:1027900008952F923F924F925F926F927F928F9205
:1027A0009F92AF92BF92CF92DF92EF92FF920F93E0
:1027B0001F93CF93DF93202E482E552450E04419C9
:1027C0005509662E772430E0261937095A0157FF3C
:1027D00004C0AA24BB24A41AB50A790137FF04C097
:1027E000EE24FF24E21AF30A1416150624F4E1E09D
:1027F0008E2E912C08C0452B19F48824992403C0EF
:1028000088248A94982C1216130624F471E0C72E9B
:10281000D12C08C0232B19F4CC24DD2403C0CC24F4
:10282000CA94DC2C422D0E948E13AE14BF04F4F027
:10283000E501D595C795382C982C940C00E010E054
:1028400011C0CE0DDF1DCA15DB0524F0CA19DB0946
:102850006C0C7D1C892D662D422D0E948E130F5FFE
:102860001F4F930C0A151B0564F31CC0E701D59597
:10287000C7953C2CDC2CD60C00E010E0CA0DDB1D0B
:10288000CE15DF0524F0CE19DF09480C591C842D24
:102890006D2D422D0E948E130F5F1F4FD30C0E150E
:1028A0001F0564F3DF91CF911F910F91FF90EF907F
:1028B000DF90CF90BF90AF909F908F907F906F9060
:1028C0005F904F903F902F9008954F925F926F923C
:1028D0007F928F929F92AF92BF92CF92DF92EF92B0
:1028E000FF920F931F93CF93DF93682E962E822E25
:1028F000B02E562E581AA42E842F90E0880F991FC0
:10290000909581959F4FA3E0CA2EC80EC0E0D0E0FD
:102910007724422E4A9469C08820C1F021E0241512
:1029200068F0AE014170507020E030E092E089160E
:1029300011F421E030E04217530741F023E0821602
:10294000D9F563E00E941A379923B1F51C2F160DB3
:102950000A2D090D812F602F4B2D0E948E13F92C0B
:10296000FA18812F6F2D4B2D0E948E13162D1C1BD4
:10297000812F602F4B2D0E948E13812F6F2D4B2D99
:102980000E948E130519DC2ED90C802F6D2D4B2D36
:102990000E948E13192D1C1B802F612F4B2D0E941E
:1029A0008E13F5188F2D6D2D4B2D0E948E138F2DAC
:1029B000612F4B2D0E948E13C7FE04C0C70C36E05A
:1029C000C30E10C08AE0C80E8A2D992787FD909506
:1029D0009E01281B390BC901880F991F880F991F69
:1029E000C80EAA94219634E0730E8C2FAC160CF00E
:1029F00093CFDF91CF911F910F91FF90EF90DF90D8
:102A0000CF90BF90AF909F908F907F906F905F908E
:102A10004F900895FF920F931F93CF93DF93F62E5D
:102A200095E0899FC0011124EC01CA51D0408C016E
:102A300005511040FE018491FF2009F480950E9409
:102A400016192196C017D107A9F7FF2011F48FEFAF
:102A500001C080E00E94161980E00E94A318DF9157
:102A6000CF911F910F91FF9008951F93CF93DF9304
:102A7000EC01162F04C0612F0E940A15219688814F
:102A80008823C9F7DF91CF911F9108950F931F936A
:102A9000182F062F6AE00E940E37805D602F0E947B
:102AA0000A15812F6AE00E940E37892F805D602F02
:102AB0000E940A151F910F910895459A449A109209
:102AC0001F0510921E05109221051092200580E22C
:102AD0008093B800ECEBF0E08081846080831092FA
:102AE000D804808181608083808180648083789431
:102AF000089580E28093B8000895ECEBF0E08081C7
:102B00008F70806A80830895ECEBF0E080818F7095
:102B1000806D808308958091BC0087FFFCCF08956D
:102B20008093BB00ECEBF0E080818F708068808345
:102B30000895882329F08091BC008F70806C04C0B8
:102B40008091BC008F7080688093BC000895809154
:102B5000BB000895982F8091D8048823E1F782E084
:102B60008093D8049E7F9093D904AAEDB4E0FA0133
:102B700002C081918D938E2F841B8617D0F3109203
:102B8000FA046093FB048091BC008F70806A80938C
:102B9000BC000895982F8091D8048823E1F783E042
:102BA0008093D80491609093D90410921C0560938F
:102BB0001D058091BC008F70806A8093BC0080915D
:102BC000D8048823E1F7ACEFB4E0FA0102C08D919C
:102BD00081938E2F841B8617D0F30895982FFA01C6
:102BE0008091BC008E7F8093BC008091BC008F7070
:102BF000806A8093BC008091BC0087FFFCCF9E7FE1
:102C00009093BB008091BC008F7080688093BC0063
:102C10008091BC0087FFFCCF8091B900883189F09A
:102C200091E012C080818093BB008091BC008F70C6
:102C300080688093BC008091BC0087FFFCCF3196F8
:102C40006150662379F790E08091BC008F70806DB1
:102C50008093BC008091BC0084FFFCCF8091BC00BD
:102C600081608093BC00892F08951F93CF93DF93D9
:102C7000982F162FEA018091BC008E7F8093BC00B4
:102C80008091BC008F70806A8093BC008091BC00F2
:102C900087FFFCCF91609093BB008091BC008F7048
:102CA00080688093BC008091BC0087FFFCCF80913E
:102CB000B900803469F091E018C08FEF0E94991537
:102CC0008091BC0087FFFCCF8091BB00899311509D
:102CD000123098F780E00E9499158091BC0087FF20
:102CE000FCCF8091BB00888390E08091BC008F7006
:102CF000806D8093BC008091BC0081608093BC009B
:102D0000892FDF91CF911F9108951F920F920FB6D7
:102D10000F9211242F933F934F935F936F937F9361
:102D20008F939F93AF93BF93EF93FF938091B900DD
:102D3000887F883609F4CBC0893688F5803309F45A
:102D400095C08133B0F4803109F45AC0813138F430
:102D5000882309F43EC1883009F048C151C080324F
:102D600009F484C0883209F453C0883109F03EC1A7
:102D70004FC0883409F47AC0893438F4883309F4B0
:102D800078C0803409F032C192C0883509F45DC042
:102D9000803609F49CC0803509F028C174C0803A9F
:102DA00009F4BEC0813AB0F4803809F49BC0813880
:102DB00038F4803709F48BC0883709F017C187C011
:102DC000803909F48FC0883909F4A1C0883809F026
:102DD0000DC19DC0883B09F4D1C0893B38F4883AC5
:102DE00009F4B6C0803B09F001C1B2C0883C09F4C7
:102DF000E0C0883F09F4E7C0803C09F0F7C0D9C0C3
:102E000087E595E060E00E944B208091D90414C0D2
:102E100088E395E060E00E944B209091FA04809155
:102E2000FB04981708F0DAC0E92FF0E0E652FB4FF8
:102E300080819F5F9093FA048093BB008091BC00D7
:102E40008F7080688093BC00D1C083E295E060E021
:102E50000E944B2080911C059091BB00E82FF0E070
:102E6000E450FB4F90838F5F80931C058DEF94E0BF
:102E7000B2C089EE94E060E00E944B208091BC00DB
:102E80008F708068AFC085ED94E060E00E944B20B9
:102E90008091BB0090911C05E92FF0E0E450FB4FBE
:102EA00080839F5F90931C0590E00E94362082EC07
:102EB00094E060E00E944B2020911C0530E080915E
:102EC0001D0590E001972817390734F51EC08FEAD9
:102ED00094E060E00E944B2085E08093D80410923B
:102EE0001C0562C08BE994E060E00E944B20809159
:102EF0001C059091BB00E82FF0E0E450FB4F90835D
:102F00008F5F80931C05803238F48FEF06C086E80F
:102F100094E060E00E944B2080E00E94991566C01A
:102F200083E794E060E00E944B208091BC008F70AA
:102F3000806C8093BC00E0911E05F0911F053097D6
:102F400009F452C080911C056CEF74E009954CC0E7
:102F500080E694E060E00E944B2084E08093D804F7
:102F6000E0912005F0912105309731F080E26AED83
:102F700074E009958093FB041092FA048CE494E0C9
:102F800060E00E944B209091FA04E92FF0E0E652B5
:102F9000FB4F80818093BB009F5F9093FA048091E8
:102FA000FB04981708F04ACF8091BC008F70806CAA
:102FB00049CF8AE294E060E00E944B208091BC00FF
:102FC0008F70806C0FC08BE194E060E00E944B201A
:102FD0000DC08AE094E060E00E944B208091BC002C
:102FE0008F70806D8093BC001092D804FF91EF9198
:102FF000BF91AF919F918F917F916F915F914F9111
:103000003F912F910F900FBE0F901F9018952F9802
:103010002D982C9840985A98279A259A249A389A4D
:10302000529A8BB18F708BB985B1807F85B98AB187
:10303000806F8AB984B18F6084B9089508954098EB
:103040005A98882319F0813021F402C0409A0895DB
:103050005A9A0895F8940E941F188BB1806F8BB90B
:1030600085B18F6085B92F988AB18F708AB984B184
:10307000807F84B92D9A2C9A000000000AC02C98F9
:1030800000000000000000002C9A0000000000007A
:10309000000089B193B187FDF2CF2C982D988AB1A9
:1030A000806F8AB984B18F6084B978940895F89458
:1030B0008091CD0582958695869583700E942A1809
:1030C0002F9A8AB18F708AB984B1807F84B92D9A82
:1030D0002C9A00000000000000000000000000002A
:1030E000000099B183B12C982D9878948F70907FBF
:1030F000892B08951F93162FF8940E942A182F9851
:103100002D982C9A8AB1806F8AB984B18F6084B966
:103110008BB18F708BB99BB1812F807F892B8BB93D
:1031200085B1807F85B985B11F70812B85B900007D
:1031300000000000000000000000000000002C98CB
:1031400078941F9108951F93182F106C80E0612FC1
:103150000E947A1881E0612F0E947A181F910895C9
:10316000F8940E942A182F988AB18F708AB984B176
:10317000807F84B92D9A2C9A000000000000000086
:10318000000000000000000029B183B12C982D98A8
:103190009AB1906F9AB994B19F6094B978948F70F6
:1031A000207F822B08958093CD0580E060E40E940B
:1031B0007A181092CF0581E060E40E947A1810928C
:1031C000D1058091CD05682F6F73606482958695D7
:1031D000869583700E947A1808951F93182F809304
:1031E000CE05186B80E0612F0E947A1881E0612F74
:1031F0000E947A181F9108951F93182F862F0E94FE
:10320000ED18812F0E94D3181F91089580E00E942D
:10321000A31880E060E00E94FC181092CF05109285
:10322000D0051092D1051092D20508950F931F93E7
:10323000182F0091CD050295069506950370F89418
:10324000802F0E942A182F9A2D982C9A8AB1806F6D
:103250008AB984B18F6084B98BB18F708BB99BB1FF
:10326000812F807F892B8BB985B1807F85B985B10E
:103270001F70812B85B900000000000000000000D5
:103280000000000000002C987894E02FF0E0EE0F92
:10329000FF1FE153FA4F80818F5F80838091CD05BE
:1032A0008F5F8093CD0587FF0AC08091CE058F5F29
:1032B0008093CE050E94ED1880E00E94D3181F91E4
:1032C0000F910895FF920F931F93813011F0FF2407
:1032D00002C0FF24FA9400E080E0602F0E94FC18F6
:1032E00010E08F2D0E9416191F5F1038D1F70F5F65
:1032F000083091F71F910F91FF9008951F93182F99
:103300000E94071880E06FE30E947A1881E06FE363
:103310000E947A18812F0E9462190E9406191F913B
:1033200008951F920F920FB60F9211242F933F937F
:103330004F935F936F937F938F939F93AF93BF93BD
:10334000EF93FF938091E0059091E105892B49F07F
:103350008091E0059091E10501979093E1058093BC
:10336000E00580912405813009F084C08091250515
:1033700090912605892B09F07DC08091E3059091FD
:10338000E405892B09F06CC020916B0330916C032C
:1033900080916D0390916E032817390741F4809155
:1033A0006F03813021F410926C0310926B038091B3
:1033B0006F0320916B0330916C038130F9F410920C
:1033C0006F03F901E959FA4FE49189E0E89FC001E0
:1033D000112490932A05809329052257394FF9012A
:1033E00094918FE5989FC001112463E070E00E94E2
:1033F00027377093E4056093E30513C081E0809361
:103400006F0310922A05109229058FE290E09093A5
:10341000E4058093E3052F5F3F4F30936C032093C7
:103420006B032091290530912A052115310521F4DE
:1034300010928100439814C01092800089E080931C
:10344000810083E080936F0040E050E060E079E02D
:103450008DE390E00E944E373093890020938800DE
:103460008091E3059091E40501979093E4058093A2
:10347000E30519C080912705909128058F5F9F4F24
:1034800091F410928100439810922805109227051C
:1034900080916D0390916E0390936C0380936B0306
:1034A00081E080936F03FF91EF91BF91AF919F9166
:1034B0008F917F916F915F914F913F912F910F90DD
:1034C0000FBE0F901F9018951F920F920FB60F927C
:1034D00011248F939F9388B198E0892788B99F9191
:1034E0008F910F900FBE0F901F9018951F920F9203
:1034F0000FB60F9211248F939F9388B198E089277C
:1035000088B99F918F910F900FBE0F901F901895C3
:103510001E9B22C08091DD058130B9F51092DD053A
:103520001092260510922505109228051092270565
:1035300020912405213049F5109224051092810034
:1035400080916D0390916E0390936C0380936B0355
:1035500020936F03439808958091DD058823A9F493
:1035600021E02093DD05109226051092250510928A
:1035700028051092270580916D0390916E0390931A
:103580006C0380936B0320936F0308951F93162F92
:103590001092800029E02093810023E020936F00A7
:1035A0009C0140E050E060E079E08DE390E00E9413
:1035B0004E37309389002093880020E533EC04C017
:1035C000C9010197F1F719511931D0F71092810013
:1035D00043981F910895CF93DF93C82FD0E0E42F35
:1035E000F0E0E053F84F833010F42C963197262FFB
:1035F00030E02F5F3F4F2E0F3F1FCE01880F991FE6
:10360000280F391FCF019695879596958795280F96
:10361000391FCF0160E971E00E942737260F371F5D
:10362000CF0164E670E00E942737261B370BAE01FE
:103630004F5F5F4FCA01880F991F840F951F880F36
:10364000991F6AE070E00E942737C901860F971F13
:1036500067E070E00E942737DF91CF910895482FEF
:103660006AE00E940E37282F30E0B4E0220F331FAB
:10367000BA95E1F7842F0E940E37892F822B089587
:10368000FC0183709070892B39F4CF0164E670E0FF
:103690000E942737892B49F420E030E0CF0160E910
:1036A00071E00E942737892B11F421E030E0822F4E
:1036B00008951092CC04809122058823E1F38CE3D5
:1036C0008093DA0510922205809122058823E1F388
:1036D00081E08093CC04089588E592E090932605DC
:1036E0008093250580E699E090932805809327052F
:1036F000109281004398109223050895CF92DF9293
:10370000EF92FF920F931F93DF93CF93CDB7DEB766
:1037100028970FB6F894DEBF0FBECDBF162FF42E3C
:10372000D22EFE01319698E0DF011D929A95E9F7BD
:1037300019820E942F1B8A83812F0E942F1B8B834B
:103740008F2D0E942F1B8C838D2D0E942F1B8D830C
:10375000802F0E942F1B8E838E2D0E942F1B8F8304
:103760008C2D0E942F1B8887F89480ED68E0AE01B5
:103770004F5F5F4F0E94EE1578948823D9F008ECD4
:1037800010E080EA9FE064E60E94C61A88EE93E0AB
:10379000F8013197F1F70197D9F780EA9FE064E6E5
:1037A0000E94C61A80E197E2F8013197F1F701977C
:1037B000D9F7E7CF28960FB6F894DEBF0FBECDBF7E
:1037C000CF91DF911F910F91FF90EF90DF90CF90FD
:1037D00008950F931F93DF93CF93CDB7DEB729974B
:1037E0000FB6F894DEBF0FBECDBF1982F89480EDFE
:1037F00061E0AE014F5F5F4F0E94EE158823E1F05C
:1038000008EC10E0789480EA9FE064E60E94C61A13
:1038100088EE93E0F8013197F1F70197D9F780EA44
:103820009FE064E60E94C61A80E197E2F8013197B2
:10383000F1F70197D9F7E6CF80ED67E0AE014E5F73
:103840005F4F0E94351678948823D9F008EC10E079
:1038500080EA9FE064E60E94C61A88EE93E0F801D1
:103860003197F1F70197D9F780EA9FE064E60E946B
:10387000C61A80E197E2F8013197F1F70197D9F77D
:10388000E7CF7A81872F82958F7090E08770907054
:103890009C01F3E0220F331FFA95E1F7880F991F7F
:1038A000280F391F872F8F70820F8093E6054B8179
:1038B000842F82958F7090E0877090709C0163E0F8
:1038C000220F331F6A95E1F7880F991F280F391FC0
:1038D0004F70420F4093D9058C81482F42954F700D
:1038E000682F6F7086FF22C082958695877090E062
:1038F000817090709C01220F331F280F391F220FF7
:10390000331F220F331F842F90E081709070AC0121
:10391000B3E0440F551FBA95E1F7880F991F480F80
:10392000591F240F260F2093D40511C0842F90E037
:10393000837090709C01F3E0220F331FFA95E1F73A
:10394000880F991F280F391F620F6093D4054E818D
:10395000842F82958F7090E0837090709C0163E05B
:10396000220F331F6A95E1F7880F991F280F391F1F
:103970004F70420F4093D8054F81842F82958F70EE
:1039800090E0817090709C0103E0220F331F0A9534
:10399000E1F7880F991F280F391F4F70420F40938E
:1039A000E5052885822F82958F703AE0839FC001BC
:1039B00011242F70280F2093D705872F8078299600
:1039C0000FB6F894DEBF0FBECDBFCF91DF911F9130
:1039D0000F910895CF92EF920F930E945D150E9470
:1039E000E91B882359F080E060E04CE020E001E032
:1039F000EE24E394AEE0CA2E0E947E1B0E94E91BD7
:103A000087E08093B10081E08093700078940F91FB
:103A1000EF90CF900895EF92FF920F931F93CF9363
:103A2000DF938B017A01882329F481E090E0C2E0E2
:103A3000D0E012C0813029F489E090E0CAE0D0E003
:103A40000BC0823029F08DE090E0CEE0D0E004C0E1
:103A50008BE090E0CCE0D0E00E948B3768E10E94E0
:103A60000E37F8019083CE010E948B376CE30E94E1
:103A70000E37F7019083DF91CF911F910F91FF9047
:103A8000EF90089580E090E00E948B37833C09F42A
:103A90004BC081E090E068E00E94933782E090E0C4
:103AA00060E00E94933783E090E060E10E949337EA
:103AB00084E090E061E00E94933785E090E065E06B
:103AC0000E94933786E090E061E00E94933788E09F
:103AD00090E060E00E94933789E090E069E00E9406
:103AE00093378AE090E06FE00E9493378BE090E09C
:103AF0006AE00E9493378CE090E06EE10E94933779
:103B00008DE090E06BE00E9493378EE090E06DE2F4
:103B10000E9493378FE090E060E00E94933780E04E
:103B200090E063EC0E94933708950F931F93DF9307
:103B3000CF9300D0CDB7DEB769834A83882329F4B9
:103B400081E090E002E010E012C0813029F489E0C9
:103B500090E00AE010E00BC0823029F08DE090E0A8
:103B60000EE010E004C08BE090E00CE010E0698112
:103B70000E9493376A81C8010E9493370F900F907B
:103B8000CF91DF911F910F9108951F920F920FB661
:103B90000F921124FF920F931F932F933F934F93F4
:103BA0005F936F937F938F939F93AF93BF93EF93A5
:103BB000FF93A89580912B05853389F410922B05EE
:103BC000F090E6051091D9050091D4050E94881A5D
:103BD0000E94E91B8091D405801729F407C08F5FEC
:103BE00080932B05EFC00093DB0504C08091D905BD
:103BF000811711F01093D5058091E6058F1571F1AD
:103C0000409124054130D1F42091250530912605BD
:103C10002115310599F02130310551F480916D0362
:103C200090916E0390936C0380936B0340936F03AA
:103C3000215030403093260520932505809124059E
:103C4000813061F480912705909128051816190696
:103C50002CF40197909328058093270580912305E4
:103C6000853081F080912305873061F080912305B4
:103C70008A3041F080912305883021F0809123051E
:103C80008F3021F58091D704882301F580E562E02B
:103C90000E94FC188091D40560913C050E94461555
:103CA00060913C058AE30E940A158091D9056091D4
:103CB0003C050E94461560913C058AE30E940A1566
:103CC0008091E60560913C050E9446158091220591
:103CD000882309F59091DA058091E6059817D9F0C7
:103CE0008091E6058093DA058091D9058093DC0503
:103CF0008091D4058093D3058091D8058093D60513
:103D00008091E5058093DF058091D7058093E205DA
:103D100081E0809322058091DD058130B1F48091AE
:103D20002405813091F48091270590912805892BF5
:103D300061F41092240510922605109225058FEF4C
:103D40009FEF90932805809327052091DD05213072
:103D5000E1F4809124058823C1F48091E60588234D
:103D6000A1F49091D90580913B05981771F4909139
:103D7000D40580912F05981741F42093240588E0FD
:103D800097E0909328058093270580912C05893032
:103D900039F410922C058091D504882329F409C0A8
:103DA0008F5F80932C050EC08091D5048150809345
:103DB000D5048091D604882329F08091D6048150BF
:103DC0008093D604FF91EF91BF91AF919F918F9116
:103DD0007F916F915F914F913F912F911F910F9123
:103DE000FF900F900FBE0F901F9018951F93CF93C9
:103DF000DF9314BE88E10FB6F894809360001092B0
:103E000060000FBE8AE190E00E94F61F3B9A8CE3AF
:103E10008093DA050E94EA1C0E94421D88E090E02F
:103E20000E948B37817080932D0580912D0590E045
:103E3000882309F491E090933C058FE090E00E9484
:103E40008B3783708093DE058091DE056FE275E02D
:103E50004BE355E00E940B1D0E94FC041092DD050F
:103E6000109224051092260510922505109228051F
:103E7000109227050E94881A82E084BD83E085BDE8
:103E80008DE787BD80916E00826080936E00539AAB
:103E900080E28093B0008091B00083608093B00096
:103EA0008091B10088608093B10080E18093B3007D
:103EB00083E090E00E948B378093B400259A80EADB
:103EC0009FE064E60E94C61A2FE088E190E00FB6FA
:103ED000F894A895809360000FBE209360008091B5
:103EE0002D050E947E190E94D4040E94591B85E36F
:103EF00091E090933705809336051092CE0410928E
:103F0000230581E00E94720410E0CBE4D0E0D0935E
:103F1000E105C093E0058091D304882361F080918E
:103F20002405813041F480912305882321F40E94E7
:103F30006C1B1092D3048091D30480FF10C01092A8
:103F4000D3040E94C60D8091D60480912305882356
:103F500071F50E94591B81E00E94720428C0809173
:103F6000D30481FF0AC08091D3040E9420048823D7
:103F700011F411E002C01092D3048091D30482FDA9
:103F800002C01130A1F41091CE040E943E04982F7B
:103F90008091CE04181721F0892F0E94720404C06A
:103FA0008091D3040E9420041092D30410E08091E9
:103FB0002305882379F4809122058093CC0483E043
:103FC0000E9472048091CC04813021F41092CC04C0
:103FD000109222058091E0059091E105892BD1F79F
:103FE0008091CF048F5F8093CF0491CF9093C500D1
:103FF0008093C40088E18093C1008EE08093C2006A
:10400000519A50980895982F8091C00085FFFCCF59
:104010009093C60080E090E00895282F982F929505
:104020009F709A3030F48091C00085FFFCCF905D86
:1040300005C08091C00085FFFCCF995A9093C600BF
:10404000822F90E08F7090700A973CF48091C000AE
:1040500085FFFCCF2F70205D06C08091C00085FFDA
:10406000FCCF2F70295A2093C60008951F93182F54
:10407000892F0E940D20812F0E940D201F910895ED
:104080008091C00087FFFCCF8091C6000895809189
:10409000C0008078089508950895089508950895BA
:1040A000CF92EF92FF920F93DF93CF9300D000D087
:1040B00000D0CDB7DEB7C090CF048091D10481305D
:1040C00049F5809132058130D9F480912F057E0128
:1040D0000894E11CF11CB7010E94C6048AE38B839B
:1040E00080913B05BE016C5F7F4F0E94C60400912A
:1040F0003C0582E069E340E097010E94F3100AC0AA
:1041000000912D0581E068E343E127E00E94F2126F
:10411000109231058091CD04813079F420E08C2D0E
:1041200090E08F70907008970CF021E0809131053D
:104130002817A1F02093310506C080913105813008
:1041400069F410923105C0902D0581E068E343E1E8
:1041500027E002E094E0E92E0E94001126960FB6B7
:10416000F894DEBF0FBECDBFCF91DF910F91FF90CE
:10417000EF90CF900895CF92EF920F931F93182F47
:10418000813029F480912D050E94621908C00091A8
:104190002D0580E060E040E828E30E94F2120091E3
:1041A000ED05C0903C058091EA05800F2CE0029F50
:1041B00090011124820F6091E70541E020E733E090
:1041C000E090E9050E94B70F8091E8058130A1F4E5
:1041D0000091ED05C0903C05802F8295880F807E70
:1041E0009091EA05890F6091E70541E020E733E00F
:1041F000E090E9050E94B70F113021F410923205CA
:10420000109231051F910F91EF90CF90089591E09A
:104210009093E80590E19093EA059CE09093E70580
:1042200092E09093ED059093E90592E19093EC056F
:1042300095E29093EB050E94BB2008951092E8054B
:1042400024E02093EA0592E09093E7052093ED05A2
:1042500095E09093E90592E19093EC059CE29093B0
:10426000EB050E94BB200895CF92EF92FF920F932F
:104270001F93DF93CF93CDB7DEB729970FB6F8948E
:10428000DEBF0FBECDBF0E9450208091CC0488239A
:1042900029F48091D004882309F4D9C09091440571
:1042A00080913805981789F490913A0580913005EE
:1042B000981759F49091330580912E05981729F499
:1042C0008091D004813009F051C01091EC05F0903C
:1042D000EB0580913A0560914405409133050E94B9
:1042E000EB1A00913C05E82FF0E0EE0FFF1FE653BC
:1042F000FD4F20813181812F6F2D41E00E94F3100D
:10430000E0913A0500913C058091EC05F0E0EE0F5C
:10431000FF1FE357FD4F20813181885E6091EB05DF
:1043200041E00E94F310809144057E010894E11C55
:10433000F11CB7010E94C6048CE28B8380E28C835F
:1043400082E38D8380E38E8380913305BE01695FB4
:104350007F4F0E94C60400913C058091EC05805D72
:104360006091EB0541E097010E94F31090914A059E
:1043700080914505981721F48091D0048130B1F4E3
:1043800080914A058E010F5F1F4FB8010E94C6043D
:10439000C0903C058091EA056091E70541E09801F5
:1043A0000091ED05E090E9050E94B70F90914B0553
:1043B00080914005981721F48091D0048130E9F470
:1043C00080914B057E010894E11CF11CB7010E940D
:1043D000C6040091ED05C0903C058091EA05800F70
:1043E00022E1029F90011124820F6091E70541E0D4
:1043F0009701E090E9050E94B70F8091E8058130B0
:1044000031F59091460580914705981721F48091E8
:10441000D0048130E1F4809146057E010894E11CCE
:10442000F11CB7010E94C6040091ED05C0903C0547
:1044300026E2029F900111248091EA05820F60918B
:10444000E70541E09701E090E9050E94B70F299642
:104450000FB6F894DEBF0FBECDBFCF91DF911F9195
:104460000F91FF90EF90CF900895CF93DF93EC01E1
:104470008A81803429F48B818F3111F492E001C05C
:1044800096E020E030E0FE01E20FF31FDB01A20F17
:10449000B31F8C9180832F5F3F4F2917A0F3DF91CB
:1044A000CF9108952F923F924F925F926F927F9299
:1044B0008F929F92AF92BF92CF92DF92EF92FF9234
:1044C0000F931F93DF93CF93CDB7DEB729970FB626
:1044D000F894DEBF0FBECDBF9B838A837987688740
:1044E00019012A01EC82FD820E831F839A2CDC01C4
:1044F00012968C911297803449F413968C918F31D7
:1045000029F466246394B2E0B98303C06624E6E02C
:10451000E983C201B1010E94C4367B018C016C2D7C
:1045200070E0882777FD8095982F0E949C355B016D
:104530006C01C801B701A60195010E9461360E9475
:104540006935605CA885B9856C93C201B1010E9490
:10455000FE349058A60195010E9461360E9469358B
:10456000615EE885F9856183662009F05CC0C2015F
:10457000B1012C813D814E815F810E949A347B0183
:104580008C01C8010E94C4365B016C01692D70E08A
:10459000882777FD8095982F0E949C353B014C0120
:1045A000C601B501A40193010E9461360E946935DC
:1045B000605CA885B98512966C93B701C8010E940A
:1045C000FE349058A40193010E9461360E9469351F
:1045D000615EE885F9856383C201B1012C813D816B
:1045E0004E815F810E9499347B018C01C8010E9439
:1045F000C436A40193010E9461360E946935605C53
:10460000A885B98514966C93B701C8010E94FE3441
:104610009058A40193010E9461360E946935615E41
:10462000E885F985658320E030E0EA81FB81E20FCF
:10463000F31FA885B985A20FB31F90818C9198179D
:1046400011F081E006C02F5F3F4FF9812F1768F30B
:1046500080E029960FB6F894DEBF0FBECDBFCF9194
:10466000DF911F910F91FF90EF90DF90CF90BF905F
:10467000AF909F908F907F906F905F904F903F9002
:104680002F9008950F931F93CF93DF93EC01162F74
:10469000888169814A812B81012F0E94C9138A81F7
:1046A000803419F48B818F3169F0888169814C8164
:1046B0002D81012F0E94C9138A816B814C812D812C
:1046C0000E94C913DF91CF911F910F910895CF924E
:1046D000DF92EF92FF920F931F93813009F083C016
:1046E00080912D050E94621900913C0580E46FE1E4
:1046F0004EE120E00E94651440913C0580E46FE1AA
:104700000E948E13DD246D2D772767FD7095872F0E
:10471000972F0E949C3522E93AE046E05FE30E9431
:1047200061367B018C01C8010E94C4362DEC3CEC43
:1047300040EE51E40E9461360E946935C62EB701F1
:10474000C8010E94FE342DEC3CEC40EE51EC0E947E
:1047500061360E946935062F40913C05615E8C2DC3
:10476000805C0E948E138D2D63E00E941A3799237E
:10477000B9F4DD2011F401500BC083E0D81611F418
:10478000C39406C086E0D81611F40F5F01C0CA9426
:1047900040913C05015E8C2D805C602F0E948E1341
:1047A000D3948CE0D81609F0AECF80E090E028E2F8
:1047B000FC01EB50FA4F2083FC01E251FA4F2083B9
:1047C000FC01E550FA4F208301968630910581F770
:1047D00080E48093F7058FE18093F805109232050D
:1047E0001092310510C08091F405882361F4609126
:1047F0002D0585EF95E00E94422340913C0580E421
:104800006FE10E948E131F910F91FF90EF90DF9048
:10481000CF90089591E09093F4050E946723089546
:104820001092F4050E94672308953F924F925F9281
:104830006F927F928F929F92AF92BF92CF92DF92B0
:10484000EF92FF920F931F93DF93CF93CDB7DEB715
:1048500060970FB6F894DEBF0FBECDBF3090CF0487
:104860008091D104813009F0FBC080913205813004
:1048700009F0BAC060913B0570E0882777FD80950C
:10488000982F0E949C3520E537E746ED5DE30E94B6
:1048900061367B018C01C8010E94C4366D877E871A
:1048A0008F87988BB701C8010E94FE3469877A8789
:1048B0008B879C8780912F05E0903B056CE00E94E0
:1048C0000E37692F70E0882777FD8095982F0E941A
:1048D0009C3522E93AE046E05FE30E9461365B01E5
:1048E0006C01FF240027F7FC0095102FC801B701C9
:1048F0000E949C3525E33AEF4EE05CE30E9461366E
:104900009B01AC01C601B5010E949A347B018C0168
:10491000C8010E94C4366D837E838F839887B70158
:10492000C8010E94FE342B013C0100912D0582E05C
:1049300069E347E125E00E94F21200913C0589E01D
:1049400066E347E020E00E94651400913C056D8518
:104950007E858F85988920E030E040EE50E40E940B
:1049600061360E9469354B015C0189E0880E6985DA
:104970007A858B859C8520E030E040EE50EC0E94EB
:1049800061360E9469356B017C0186E3C80E89E0BF
:1049900066E3482D2C2D0E94C91300913C056D81C2
:1049A0007E818F81988520E030E040EA50E40E94CB
:1049B00061360E9469354B015C0189E0880EC301B4
:1049C000B20120E030E040EA50EC0E9461360E94E3
:1049D00069356B017C0186E3C80E89E066E3482DEA
:1049E0002C2D0E94C9133CC000912D0581E06EE280
:1049F00041E121E10E94F21210923105E0913A0565
:104A000000913C05F0E0EE0FFF1FE357FD4F2081C2
:104A1000318182E069E340E00E94F310182F1E5FAD
:104A200080E2898380914405BE016E5F7F4F0E94C2
:104A3000C60400913C05812F69E340E09E012F5F91
:104A40003F4F0E94F3108250810F883148F400914B
:104A50002D0548E1481B8E5F69E325E00E94F212B4
:104A60008091CD04813079F420E0832D90E08F7027
:104A7000907008970CF021E0809131052817A1F083
:104A80002093310506C080913105813069F4109280
:104A90003105C0902D0581E06EE241E121E102E0A7
:104AA00094E0E92E0E94001160960FB6F894DEBFE4
:104AB0000FBECDBFCF91DF911F910F91FF90EF906F
:104AC000DF90CF90BF90AF909F908F907F906F902E
:104AD0005F904F903F9008958F929F92AF92BF92B8
:104AE000CF92DF92EF92FF920F931F93DF93CF93BA
:104AF000CDB7DEB762970FB6F894DEBF0FBECDBF5D
:104B00000E9415248091CC04882329F48091D0043C
:104B1000882309F413C18091F405813011F09924A0
:104B200026C06091460570E0882777FD8095982F14
:104B30000E949C3520E537E746ED5DE30E94613633
:104B40009B01AC0185EF95E0BE016F5F7F4F0F2E9B
:104B5000F0E0EF2EF0E0FF2EF0E00F2FF0E01F2F3F
:104B6000F02DE8E1CE2EAA240E945222982E6091C8
:104B70004B0570E0882777FD8095982F0E949C3523
:104B800020E537E746ED5DE30E9461369B01AC010D
:104B90008EEE95E0BE01695F7F4F0F2EFCE7EF2E92
:104BA000F9EDFF2EF0E20F2FF0E41F2FF02DBBE107
:104BB000CB2EA8E0AA2E0E945222882E80914A0570
:104BC000E0904B056CE00E940E37692F70E088275B
:104BD00077FD8095982F0E949C3522E93AE046E0C7
:104BE0005FE30E9461365B016C01FF240027F7FC44
:104BF0000095102FC801B7010E949C3525E33AEFBC
:104C00004EE05CE30E9461369B01AC01C601B50138
:104C10000E949A349B01AC018BEF95E0BE01635F6B
:104C20007F4F0F2EFCE7EF2EF9EDFF2EF0E20F2F56
:104C3000F0E41F2FF02DF4E1CF2EE5E0AE2E0E9420
:104C40005222182F8091F4058130C9F4981621F072
:104C50008091D004813099F460912D0585EF95E025
:104C60000E94422385EF95E0BE016F5F7F4F0E9457
:104C7000352260913C0585EF95E00E94422381E05A
:104C8000881621F08091D0048130E1F460912D05E7
:104C90008EEE95E00E9442238EEE95E0BE01695FA4
:104CA0007F4F0E94352260913C058EEE95E00E9478
:104CB00042238091F405813071F460913C0585EFC9
:104CC00095E007C081E0981631F460913C058EEEC6
:104CD00095E00E944223113021F08091D004813070
:104CE00011F560912D058BEF95E00E9442238BEF2B
:104CF00095E0BE01635F7F4F0E94352260913C05C5
:104D00008BEF95E00E9442238091F405813031F4CD
:104D100060913C0585EF95E00E94422360913C053F
:104D20008EEE95E009C081E0981611F0881631F4F6
:104D300060913C058BEF95E00E94422362960FB68E
:104D4000F894DEBF0FBECDBFCF91DF911F910F91C1
:104D5000FF90EF90DF90CF90BF90AF909F908F909B
:104D60000895FF920F931F93CF93DF9380912D05AA
:104D70000E94621900913C0581E061E040E022E779
:104D800033E00E94F310C1EED3E0FF241EE083E085
:104D9000F81631F08881882319F400913C0502C08F
:104DA00000912D058EE0612F45E029810E94FE12C1
:104DB00000913C058EE0612F45E020E00E946514E3
:104DC000FF2019F08885882319F400913C0502C062
:104DD00000912D0586E4612F45E029850E94FE1291
:104DE00000913C0586E4612F45E020E00E946514B7
:104DF000F3942296125F84E0F81649F600913C0580
:104E000089E16CE040E020E833E00E94F31000917B
:104E10003C0589E166E140E024E231E00E94F310C4
:104E200000913C0589E16DE140E028E231E00E941B
:104E3000F31000913C0589E164E240E020E231E0BA
:104E40000E94F31000913C0589E16BE240E02CE206
:104E500031E00E94F31000913C0589E162E340E0FB
:104E60002BE131E00E94F31000913C0589E169E3F8
:104E700040E020E331E00E94F31000913C0581E521
:104E800068E040E025E833E00E94F31000913C0523
:104E900081E56FE040E02FE833E00E94F3100091DD
:104EA0003C0581E566E140E029E933E00E94F3102A
:104EB00000913C0581E56DE140E024EA33E00E9489
:104EC000F31000913C0581E564E240E02FEA33E015
:104ED0000E94F31000913C0581E56BE240E02AEB73
:104EE00033E00E94F31000913C0581E562E340E06D
:104EF00025EC33E00E94F31000913C0581E569E365
:104F000040E02EEC33E00E94F310DF91CF911F912F
:104F10000F91FF90089580913905882349F48EE21E
:104F20008093430581E0809339050E94B12608955E
:104F30001092390508957F928F929F92AF92BF92FF
:104F4000CF92DF92EF92FF920F931F93DF93CF9355
:104F5000CDB7DEB7782E8A2D982C8130D1F4862FEC
:104F60006AE00E940E37B82E842F0E940E37D82E8A
:104F7000822F0E940E37F82E802F0E940E37882E27
:104F80008E2D0E940E37A82E8C2D0E940E37C82E13
:104F900019C0862F6AE00E940E37B92E842F0E9416
:104FA0000E37D92E822F0E940E37F92E802F0E94A5
:104FB0000E37892E8E2D0E940E37A92E8C2D0E9421
:104FC0000E37C92EB81439F4DA1429F4FC1419F484
:104FD000992009F446C010E02DE0E22E80E0B116E1
:104FE00009F481E0D11609F48260F11609F48460B5
:104FF000E0E0811609F4E1E0A11609F4E260C116CF
:1050000009F4E4608E1729F481E0981621F5EE2367
:1050100011F1AE2FB0E0FD01EE0FFF1FEF51FC4F7D
:105020008081882319F400913C0502C000912D0570
:10503000AA0FBB1FAF51BC4F8E2D672D45E01196B7
:105040002C910E94FE1200913C058E2D672D45E0AB
:1050500020E00E9465141F5F8CE0E80E1A3009F012
:10506000BDCFCF91DF911F910F91FF90EF90DF9017
:10507000CF90BF90AF909F908F907F900895CF92E8
:10508000EF92FF920F93DF93CF9300D000D000D028
:10509000CDB7DEB7C090CF048091D104813049F5FF
:1050A000809132058130D9F480912F057E010894DA
:1050B000E11CF11CB7010E94C6048AE38B83809136
:1050C0003B05BE016C5F7F4F0E94C60400913C050A
:1050D00081E06AE340E097010E94F3100AC000916A
:1050E0002D0580E069E343E127E00E94F21210926F
:1050F00031058091CD04813079F420E08C2D90E051
:105100008F70907008970CF021E08091310528177E
:10511000A1F02093310506C080913105813069F4FA
:1051200010923105C0902D0580E069E343E127E04E
:1051300002E034E0E32E0E94001126960FB6F894A8
:10514000DEBF0FBECDBFCF91DF910F91FF90EF90EB
:10515000CF900895AF92CF92EF92FF920F931F934B
:10516000DF93CF9300D00F92CDB7DEB780912D059E
:105170000E94621980E389831A821CE07E010894F0
:10518000E11CF11C00913C05812F61E040E097019A
:105190000E94F31089818F5F8983145F143891F71F
:1051A000A0903C0581E06AE140E021E007ED13E0DA
:1051B000EE24E394CC24C3940E947B0FA0903C0582
:1051C00081E061E340E021E00CED13E00E947B0F01
:1051D00090E05DE0C52E17C0112311F4963050F415
:1051E00000913C058C2D6E2D45E020E09B830E94B4
:1051F00065149B811F5F8CE0E80E143069F79F5F98
:10520000C80E9A3021F010E04DE0E42EE5CF109268
:1052100032051092310510924305109239050F9016
:105220000F900F90CF91DF911F910F91FF90EF9012
:10523000CF90AF9008958F92AF92CF92EF92FF925E
:105240000F93DF93CF9300D00F92CDB7DEB780914D
:105250004305813021F48091CC04813041F080916C
:105260004305882341F080913905882321F481E0AA
:105270000E94720420C0809139058130E1F4809150
:10528000CC04813009F06CC080914305815080933B
:105290004305809143057E010894E11CF11CB70190
:1052A0000E94C60400913C0588E761E040E0970158
:1052B0000E94F31055C00E943F288091CC0488239F
:1052C00029F48091D004882309F44AC060914705ED
:1052D000409140052091450500914605E0904B0521
:1052E000C0904A058090D0048DE0AA24A3940E9427
:1052F0009B2760914705409140052091450500910D
:105300004605E0904B05C0904A058090D00489E1A5
:10531000AA240E949B276091380540913005209176
:105320002E0500914405E0903A05C0903305809029
:10533000D00485E2AA24A3940E949B27609138059B
:105340004091300520912E0500914405E0903A05EA
:10535000C09033058090D00481E3AA240E949B274B
:105360000F900F900F90CF91DF910F91FF90EF90E2
:10537000CF90AF908F9008955F926F927F928F92AF
:105380009F92AF92BF92CF92DF92EF92FF920F93D4
:105390001F93582EE42EA22E70E080E090E00E9431
:1053A0009A359B01AC0160E070E080E891E40E94D6
:1053B00001353B014C01FF240027F7FC0095102F1D
:1053C000C801B7010E949C359B01AC01C401B30127
:1053D0000E94613620E030E040E05FE30E949A34B2
:1053E0000E946E35162FBB24CC24B7FCC094DC2C55
:1053F000C601B5010E949C359B01AC01C401B301FB
:105400000E94613620E030E040E05FE30E949A3481
:105410000E946E35A62E161721F48091D00481309B
:1054200049F5165998E0E92EE50C00912D05812FDC
:105430006E2D42E021E00E94F2128AE0F82EF50C77
:1054400000912D05812F6F2D42E021E00E94F21284
:105450001A2D165900913C05812F6E2D42E021E056
:105460000E94F21200913C05812F6F2D42E021E055
:105470000E94F2121F910F91FF90EF90DF90CF905A
:10548000BF90AF909F908F907F906F905F900895A6
:105490000F931F93CF93DF9390914405809138052C
:1054A0009817C9F490913A0580913005981799F4AE
:1054B0008091D004813009F054C00DC09091440512
:1054C0008A81981729F490913A058B81981749F0B1
:1054D0002F5F289603C0CFE7D4E020E08881813099
:1054E00069F7809101068217E1F120930106898115
:1054F000882311F412E018C06C817D8180E00E9445
:10550000280E082F6E817F816115710521F080E0E2
:105510000E94280E080F81E890E0801B910962E04C
:1055200070E00E943B37162F00912D0580E060E06F
:1055300040E827E00E94F21200913C052C813D8159
:10554000812F61E040E00E94F3102E813F81211500
:10555000310539F000913C05810F61E040E00E9487
:10556000F310DF91CF911F910F9108950E94482A67
:105570009091460580914705981721F48091D004B9
:10558000813041F4409147052091460580E36BE36B
:105590000E94BC2990914B0580914005981721F4F9
:1055A0008091D004813041F44091400520914B0519
:1055B00081E26BE30E94BC2990914A0580914505E8
:1055C000981721F48091D004813041F44091450531
:1055D00020914A0582E167E10E94BC290895FF926B
:1055E0000F931F93CF93DF93EC01623001F500918D
:1055F0002D0580E060E144E62FE20E94F212009166
:105600003C0582E069E040E09E010E94F310282FF3
:1056100090E0C0970CF075C000912D0540E3421B4F
:10562000822F8E5F69E025E00E94F2126AC08091AD
:105630002D050E94621900913C0580E067E040E87A
:1056400021E00E94F21200913C0580E06FE040E80A
:1056500021E00E94F21200913C0585E667E041E0FE
:1056600029E30E94F2128FEF809301060E94482ADC
:1056700000913C0582E069E040E09E010E94F31049
:1056800000913C0586E569E040E021EF33E00E94AF
:10569000F31000913C0588E669E040E025EF33E037
:1056A0000E94F3102BE131E0FF2412E109C081E0F8
:1056B000F81619F024E231E002C020E231E0115F77
:1056C00000913C0589E6612F40E00E94F3100091B3
:1056D0003C05612F6A5F88E646E127E00E94A71239
:1056E00000913C05612F675F8AE642E121E00E945C
:1056F000F212F39483E0F816D1F61092320510926C
:105700003105DF91CF911F910F91FF9008952F9256
:105710003F924F925F926F927F928F929F92AF9241
:10572000BF92CF92DF92EF92FF920F931F93DF937E
:10573000CF9300D000D00F92CDB7DEB7982E6C83F8
:10574000442E202ECD823A2C30E0442737FD409560
:10575000542FCA01B9010E949C355B016C0155248C
:1057600066247724C301B2010E949A359B01AC01E3
:10577000C601B5010E9401355B016C01FF240027C1
:10578000F7FC0095102FC801B7010E949C359B01C2
:10579000AC01C601B5010E94613620E030E040E076
:1057A0005FE30E949A340E946E35462E8D81682FE9
:1057B00070E0882777FD8095982F0E949C359B018B
:1057C000AC01C601B5010E94613620E030E040E046
:1057D0005FE30E949A340E946E35A62E461621F48D
:1057E0008091D004813041F51C811A192A2D2F5F38
:1057F0008A8D8530C1F400913C05892D612F422DA1
:105800000E94A71281E08A15B8F4C0903C051F5F82
:10581000422D42502A2D2150892D8F5F612F00E0AB
:1058200035E0E32E07C0C0903C05892D612F422D45
:1058300001E0EA8C0E9400118D817E010894E11C38
:10584000F11CB7010E94C6041C811A19D12ED80C74
:1058500000913C05832D890D6D2D41E097010E943B
:10586000F31000912D051150892D612F422D21E05B
:105870000E94F212182D109500912D05892D6D2D85
:10588000432D212F0E94F21200912D05892D8F5F4B
:10589000820D83196D2D3A94432D212F0E94F2120F
:1058A000A41460F400912D058C81880E84184A1888
:1058B000892D682D422D242D0E94F2120F900F90F9
:1058C0000F900F900F90CF91DF911F910F91FF904C
:1058D000EF90DF90CF90BF90AF909F908F907F9090
:1058E0006F905F904F903F902F900895CF92EF92DE
:1058F0000F931F93DF93CF93CDB7DEB727970FB6E4
:10590000F894DEBF0FBECDBFE090CF048091D104EC
:10591000813009F05FC080E2898380913205813057
:10592000D9F480912F05BE016E5F7F4F0E94C6049F
:105930008AE38C8380913B05BE016B5F7F4F0E94A1
:10594000C60400913C0582E369E040E09E012F5FC0
:105950003F4F0E94F31033C080913105813051F4E4
:1059600000912D0583E368E043E127E00E94A71240
:1059700010923105E0913A0500913C05F0E0EE0F00
:10598000FF1FE357FD4F2081318182E369E040E052
:105990000E94F310182F1E5C80914405BE016E5FBB
:1059A0007F4F0E94C60400913C05812F69E040E0D2
:1059B0009E012F5F3F4F0E94F3108253810F883169
:1059C00048F400912D0548E1481B8E5C69E025E014
:1059D0000E94F2128091CD04813079F420E08E2D66
:1059E00090E08F70907008970CF021E08091310565
:1059F0002817A1F02093310506C080913105813030
:105A000069F410923105C0902D0583E368E043E10D
:105A100027E002E054E0E52E0E94001127960FB621
:105A2000F894DEBF0FBECDBFCF91DF911F910F91D4
:105A3000EF90CF900895FF920F931F938A30F1F467
:105A400000913C0588E067E141E022E20E94F21209
:105A500000913C0589E068E343E521E00E94F212F1
:105A600008E140913C0587E0602F0E948E130B5F98
:105A70000B33B9F78BE4FDE0FF2E0AC08D3029F01F
:105A80008EE4EAE0FE2E16E304C08EE47AE0F72E00
:105A90001AE300913C05612F40E024E231E00E94CE
:105AA000F31000913C058CE2612F40E020E231E0F0
:105AB0000E94F31000913C058F2D612F40E02BE1F7
:105AC00031E00E94F3101F910F91FF9008952F92E3
:105AD0003F924F925F926F927F928F929F92AF927E
