:100000000C945B030C9478030C9478030C944F05C8
:100010000C9478030C9478030C9478030C94780374
:100020000C9478030C94521D0C9478030C94051ACC
:100030000C9478030C94F3190C9411190C94780314
:100040000C9478030C9478030C9478030C94780344
:100050000C9478030C94A7040C9478030C94780304
:100060000C9405160C94780305A84CCDB2D44EB967
:100070003836A9020C50B9918688083CA6AAAA2A4B
:10008000BE000000803F000000000000005F000094
:100090000007000700147F147F14242A7F2A1223EC
:1000A0001308646236495522500005030000001C05
:1000B0002241000041221C00082A1C2A0808083E90
:1000C00008080050300000080808080800606000B8
:1000D0000020100804023E5149453E00427F400086
:1000E00042615149462141454B311814127F102776
:1000F000454545393C4A49493001710905033649AE
:10010000494936064949291E003636000000563650
:10011000000000081422411414141414412214087D
:10012000000201510906324979413E7E1111117ECA
:100130007F494949363E414141227F4141221C7F4E
:10014000494949417F090901013E414151327F0836
:1001500008087F00417F41002040413F017F081493
:1001600022417F404040407F0204027F7F0408100C
:100170007F3E4141413E7F090909063E4151215ED2
:100180007F09192946464949493101017F01013F4B
:100190004040403F1F2040201F7F2018207F6314D5
:1001A0000814630304780403615149454300007F48
:1001B0004141020408102041417F00000402010275
:1001C0000440404040400001020400205454547850
:1001D0007F484444383844444420384444487F38B5
:1001E00054545418087E090102081454543C7F08E2
:1001F00004047800447D40002040443D00007F100E
:10020000284400417F40007C041804787C080404E2
:100210007838444444387C14141408081414187CA6
:100220007C080404084854545420043F4440203CB3
:100230004040207C1C2040201C3C4030403C442856
:100240001028440C5050503C4464544C4400083630
:10025000410000007F0000004136080008082A1C09
:1002600008081C2A0808010000000000011700000F
:100270000000030300030000050A1F0A1F0A05020D
:10028000151F1508031904130000040204020000DE
:10029000010300000000020E1100000002110E0018
:1002A0000000030A040A000003040E040000021008
:1002B0000800000003040404000001100000000016
:1002C000031804030000031F111F000003121F1076
:1002D0000000031D151700000315151F000003077C
:1002E000041F00000317151D0000031F151D00004B
:1002F00003011D030000031F151F00000317151F36
:100300000000010A0000000002100A0000000204C0
:100310000A000000030A0A0A0000020A04000000A2
:10032000030115020000040E04020000031E051E56
:100330000000031F150A0000030E11110000031F27
:10034000110E0000021F15000000021F0500000032
:10035000030E111D0000031F041F0000011F0000F9
:10036000000002100F000000031F041B0000021F0A
:1003700010000000051F0204021F041F02041F00DA
:10038000030E110E0000031F050200000402151DDC
:100390001200031F051A00000312150900000301D3
:1003A0001F010000031F101F0000030F100F0000AB
:1003B000050F100C100F031B041B000003031C038C
:1003C0000000031915130000021F110000000314A0
:1003D0000814000002111F000000030201020000C7
:1003E00003101010000002010200000003041F119E
:1003F0000000011F0000000003111F04000004049E
:10040000150E040004040E1504004932433A20423C
:1004100055535F4552524F520D0A004932433A201C
:100420004E4F5F494E464F0D0A004932433A205322
:10043000542D3E444154415F4E41434B206F722046
:100440004C4153545F444154410D0A004932433AF0
:100450002053542D3E444154415F41434B0D0A000B
:100460004932433A2053542D3E534C415F41434B54
:100470000D0A004932433A2053522D3E53525F53E6
:10048000544F500D0A004932433A2053522D3E44F6
:100490004154415F4E41434B0D0A004932433A20DB
:1004A00053522D3E444154415F41434B0D0A004994
:1004B00032433A2053522D3E534C415F41434B0D42
:1004C0000A004932433A204D522D3E534C415F4180
:1004D000434B0D0A004932433A204D522D3E4441D0
:1004E00054415F41434B0D0A004932433A204D5479
:1004F0002D3E4152425F4C4F53540D0A0049324346
:100500003A204D54522D3E534C415F4E41434B20B7
:100510006F72204D542D3E444154415F4E41434B38
:100520000D0A004932433A204D522D3E4441544178
:100530005F4E41434B0D0A004932433A204D542D42
:100540003E534C415F41434B206F72204441544124
:100550005F41434B0D0A004932433A204D2D3E5333
:10056000544152540D0A009292009200749200AECF
:100570000000570000740000570049000062006E40
:10058000006862005792AEC4009BAE009200748275
:100590006E0000AEA49B8A0092005C6274006274DC
:1005A0008200AEA49B8A009200E800E8E800000008
:1005B0008A00008200740000007474007400748269
:1005C0000092740062570000747400740074829288
:1005D000000092740057005C00629B009B62000068
:1005E0006EC4C4C4AE9B927400625700006E9B0040
:1005F0009B9B9282744900493A0000000003030368
:1006000003030303030303060303060303030306B1
:1006100003030303030303030303030303030303AA
:100620000303030303030306060303030303030394
:100630000303030303030306030303030303030387
:1006400003030303060603030303060303060C0365
:100650000303030303030303030303030306030367
:100660000303030303030C0C030303030603030345
:100670000303030303060404040404040303030341
:100680000303060303030304040403030303030C2B
:100690000C0C0C000E0E1D0E1D2B0F3A0E2B0F48CE
:1006A0000A520F610A520F000E0E1D0E1D6B0E79BD
:1006B0000D6B0E86100011241FBECFEFD8E0DEBFF9
:1006C000CDBF14E0A0E0B1E0E8E8FCE602C0059090
:1006D0000D92A63EB107D9F716E0A6EEB4E001C030
:1006E0001D92AD31B107E1F70E94821E0C94423693
:1006F0000C9400001092EB049091F905913049F4AC
:1007000080914E058130D9F090934E059093EB0483
:1007100008959091600580915405981751F4909137
:10072000560580914C05981721F480914E05823032
:1007300031F082E080934E0581E08093EB040895D0
:10074000282F8091E80490E033E0880F991F3A95B4
:10075000E1F7E0915205F0915305E80FF91F06808B
:10076000F781E02D309711F480E0089580913E05E7
:100770008093E704822F099581E008958091E80431
:100780008F5F8093E8048091E804893010F0109224
:10079000E8048091E80490E043E0880F991F4A95AF
:1007A000E1F7E0915205F0915305E80FF91F8181BF
:1007B0000895809162058093630580916705809319
:1007C0005C0580916605809361058091600580934A
:1007D00054058091560580934C0580914F05809378
:1007E0004A0508951F93CF93DF93182F8091E80453
:1007F00090E053E0880F991F5A95E1F7C091520598
:10080000D0915305C80FD91F80913E058093E7040E
:100810008091E6048130C1F48091F60580936205F1
:100820008091F805809367058091EF0580936605B8
:100830008091F205809360058091FB0580935605B9
:100840008091FE0580934F05113011F40E94D90369
:1008500088818823B9F0133071F40E947A03EC8107
:10086000FD8109958091E604813011F40E94D9033D
:100870001092EA0407C081E08093EA04EA81FB81D8
:10088000812F0995DF91CF911F910895282FFB01AA
:100890006AE00E94AF35805D8083822F0E94AF3571
:1008A000905D9183128208950F930091580581E223
:1008B0006EE041E020E031E00E94731000915805A5
:1008C00082E16EE141E02BE031E00E94731080E3B1
:1008D00095E728EC30E0F9013197F1F70197D9F766
:1008E00086EA9EE064E60E94531A80EA9FE064E68E
:1008F0000E94531A0F91089526982E9A81E08093B2
:100900006800EBE6F0E080818064808382E0809381
:100910007C0010927B00EAE7F0E08EE88083808123
:1009200080648083089580917A00877F80937A0025
:1009300080917A00806480937A0080917A0084FFAD
:10094000FCCF2091780030917900C90108951F9261
:100950000F920FB60F9211242F933F934F935F93F3
:100960006F937F938F939F93AF93BF93EF93FF9377
:100970007894809178009091790022E0803E9207EF
:1009800028F01092EE041092EC0473C022E083363B
:10099000920798F18091EC0482FD6BC080E29EE4A6
:1009A0000197F1F70E949304825692408E37910589
:1009B00008F05FC081E08093EF0412C00E949304AE
:1009C000825692408E37910558F08091EC048B7FCF
:1009D0008093EC048091ED0484608093ED0449C021
:1009E0008091EF04882351F78091EC048460809318
:1009F000EC048091EE0484603AC08F509140E8F09E
:100A00008091EC0481FD10C080E29EE40197F1F733
:100A10000E9493048E5091408555914050F58091ED
:100A2000ED0482608093ED048091EC0482608093F9
:100A3000EC048091EE0482601AC08091EC0480FD89
:100A40000EC080E29EE40197F1F70E9493048F505C
:100A5000914078F48091ED0481608093ED04809161
:100A6000EC0481608093EC048091EE0481608093BB
:100A7000EE0480917A00886480937A00FF91EF9170
:100A8000BF91AF919F918F917F916F915F914F91A6
:100A90003F912F910F900FBE0F901F9018951F92AE
:100AA0000F920FB60F92112478940F900FBE0F90F3
:100AB0001F9018958F929F92AF92BF92CF92DF9224
:100AC000EF92FF920F937C016B015A01490180E084
:100AD00066E00E947C18C701602F0E94B514C60111
:100AE000602F0E94B51480E067E00E947C18C50169
:100AF000602F0E94B514C401602F0E94B5140F919D
:100B0000FF90EF90DF90CF90BF90AF909F908F902D
:100B100008950F931F93CF93DF938C01EB0180E037
:100B200066E00E947C1860915805C8010E94B514C7
:100B3000209749F080E067E00E947C18609158059A
:100B4000CE010E94B514DF91CF911F910F910895AE
:100B50001F93182F88E064E00E947C18609158056C
:100B60008DE791E00E94B51480914905882349F4EE
:100B7000609158058BE891E00E94B5148DE891E0F2
:100B800002C084E991E0612F0E94B5141F9108957D
:100B9000EF92FF920F931F93082FF62EE42E122F41
:100BA00088E063E00E947C18609158058CE991E030
:100BB0000E94B514802F6F2D4E2D0E94781A6091DF
:100BC0005805E82FF0E0EE0FFF1FE653FD4F808140
:100BD00091810E94B514E02FF0E0EE0FFF1FE35764
:100BE000FD4F808191811C3019F46091490502C04C
:100BF000609158050E94B5146091580580E20E94EA
:100C00008A141D3019F46091490502C0609158059D
:100C10008F2D0E94C614609158058CE20E948A14A0
:100C20001E3019F46091490502C06091580584E1B5
:100C30000E94C6141E3019F46091490502C06091EB
:100C400058058E2D0E94C6141F910F91FF90EF90B2
:100C50000895DF92EF92FF920F931F93E82E162FC5
:100C6000D42EF22E21E00F2D0E947212ED0C0E2DCB
:100C700002501150802F612F4F2D0E940E131E5FC6
:100C8000802F612F4F2D0E940E1301501350802F83
:100C9000612F4F2D0E940E131C5F802F612F4F2D4F
:100CA0000E940E131F910F91FF90EF90DF90089517
:100CB000CF92EF920F938091F1048F5F8093F104B4
:100CC00080E060E00E947C186091580582EA91E023
:100CD0000E94B514C09049058EE760E042E028E02C
:100CE00000E0EE240E94801088E061E00E947C1801
:100CF0006091580588EB91E00E94B51488E062E0AD
:100D00000E947C18609158058DEC91E00E94B5140A
:100D10008091F005609158050E94C61460915805B5
:100D20008AE30E948A148091F505609158050E941B
:100D3000C614609158058AE30E948A1480910206C5
:100D4000609158050E94C614809101066091F405D7
:100D50004091F30527E00E94C805809158050E9444
:100D6000A80588E065E00E947C18609158058AED2E
:100D700091E00E94B5148091B400609158050E94E2
:100D8000C6148DEF92E06FE373E00E948905C09076
:100D900049058EE760E342E020E10E948010C090A8
:100DA000490580E068E048E028E20E9480108091D8
:100DB000F10481508093F1040F91EF90CF9008954A
:100DC000BF92CF92DF92EF92FF920F931F93CF9338
:100DD000DF93D090F005F090F505109102060E9487
:100DE00058068091F1048F5F8093F104209158059B
:100DF00080E063E147E00E9429068091F104815080
:100E00008093F1048AE08093F00404E02AE0B22E9B
:100E1000C8ECD0E08091ED0480FDF0C08091ED043D
:100E2000882321F48091EE04882319F0B092F00415
:100E300007C08091F004882319F410923D05DEC0AC
:100E40008091ED0481FF8DC01092ED048091F1043A
:100E50008F5F8093F1040430B9F480E562E00E9472
:100E60007C18609149058D2D0E94C614009158058B
:100E700088ED92E06DEE71E04BEE52E021EF31E053
:100E80000E945A0505E668C0053609F580E562E06E
:100E90000E947C18609158058D2D0E94C6146091A7
:100EA00058058AE30E948A14609149058F2D0E949B
:100EB000C6140091580588ED92E066EF71E04BEEA4
:100EC00052E02AEF31E00E945A0506E645C0063698
:100ED00009F582E662E00E947C18609158058F2D2A
:100EE0000E94C614609158058AE30E948A1460919A
:100EF0004905812F0E94C6140091580588ED92E0A3
:100F00006FEF71E04BEE52E023E032E00E945A05B1
:100F100007E622C084E762E00E947C1860915805D1
:100F2000812F0E94C6148DEF92E06FE373E00E9460
:100F30008905D092F005F092F50510930206009114
:100F4000F405E0900106C090F305812F6F2D4D2D23
:100F500020E00E940B1B04E08091F10481508093FB
:100F6000F1048091ED0482FD04C08091EE0482FFC3
:100F700051CF1092ED048091F1048F5F8093F104C2
:100F8000053669F4D39487E18D1508F4DD2480E5F6
:100F900062E00E947C18609149058D2D1CC00636C8
:100FA00069F4F3948BE38F1508F4FF2482E662E082
:100FB0000E947C18609149058F2D0DC0073669F499
:100FC0001F5F1C3308F010E084E762E00E947C1889
:100FD00060914905812F0E94C6148091F1048150CF
:100FE0008093F1048091EE0482FF14CF8CED95E0A4
:100FF000FE013197F1F70197D9F70CCFDF91CF912F
:101000001F910F91FF90EF90DF90CF90BF900895C8
:10101000FF920F931F93CF93DF930E945806809106
:10102000F1048F5F8093F1042091580580E063E222
:1010300047E00E9429068091F10481508093F104D9
:101040008AE08093F0041FE03AE0F32EC8ECD0E091
:1010500001E08091ED0480FF07C06091490588E0C0
:1010600090E00E94343683C08091ED04882321F4FF
:101070008091EE04882319F0F092F0040DC0809165
:10108000F004882349F46091490588E090E00E94CB
:10109000343610923D056BC08091ED0481FF25C070
:1010A0001092ED048091F1048F5F8093F1041F3062
:1010B00061F4809149050E94A80589E293E065E505
:1010C00073E00E9489051AE60BC0809158050E94C2
:1010D000A8058DEF92E06FE373E00E9489051FE0A1
:1010E0008091F10481508093F1048091ED0482FDA0
:1010F00004C08091EE0482FFACCF1092ED041A364A
:1011000051F580914905882329F4009349051092EF
:10111000580504C010924905009358058091F104C8
:101120008F5F8093F1040E94580689E293E065E5A1
:1011300073E00E9489052091580580E063E247E052
:101140000E942906809149050E94A8058091F1041A
:1011500081508093F1048091EE0482FF7ACF8CED70
:1011600095E0FE013197F1F70197D9F772CFDF9142
:10117000CF911F910F91FF900895BF92CF92DF9270
:10118000EF92FF920F931F93CF93DF93F090F405AC
:1011900010910106D090F3050E9458068091F10449
:1011A0008F5F8093F1042091580580E06BE147E068
:1011B0000E9429068091F10481508093F1048AE015
:1011C0008093F00407E07AE0B72EC8ECD0E080917D
:1011D000ED0480FD09C18091ED04882321F4809104
:1011E000EE04882319F0B092F00407C08091F00457
:1011F000882319F410923D05F7C08091ED0481FF1A
:101200006DC01092ED048091F1048F5F8093F10422
:101210000730A1F4812F6F2D4D2D2CE00E94C805C1
:101220000091580588ED92E068E072E04BEE52E0E4
:101230002CE032E00E945A050CE04BC00C30A1F4C7
:10124000812F6F2D4D2D2DE00E94C805009158056E
:1012500088ED92E061E172E04BEE52E025E132E090
:101260000E945A050DE035C00D30A1F4812F6F2D7D
:101270004D2D2EE00E94C8050091580588ED92E0A2
:101280006AE172E04BEE52E02EE132E00E945A0534
:101290000EE01FC0812F6F2D4D2D27E00E94C80545
:1012A0008DEF92E06FE373E00E948905D092F30521
:1012B00010930106F092F405809102066091F50505
:1012C0004091F00520E00F2DE12ECD2C0E940B1B4C
:1012D00007E08091F10481508093F1048091ED0446
:1012E00082FD04C08091EE0482FF71CF1092ED0464
:1012F0008091F1048F5F8093F1040C3031F51F5F12
:101300001D3010F011E056C0123089F48DE18F15B8
:1013100010F46DE1F62E8D2D90E00E94CD1A8823F9
:1013200009F048C08DE1F81609F442C043C01430FA
:1013300031F0163021F0193011F01B30D9F58EE163
:101340008F15C0F55EE1F52E35C00D30F9F4F3943C
:101350008FE18F1508F445C0123061F48DE18F15CF
:1013600008F43FC08D2D90E00E94CD1A882311F51E
:101370008DE109C0143031F0163021F0193011F030
:101380001B30C1F48FE1F81661F114C00E3091F4F6
:10139000D39483E68D1508F4DD248D2D90E00E9412
:1013A000CD1A882339F4123029F48CE18F1510F40A
:1013B0004CE1F42E812F6F2D4D2D202F0E94C8055A
:1013C0008091F10481508093F1048091EE0482FFBA
:1013D000FECE8CED95E0FE013197F1F70197D9F73C
:1013E000F6CEFF24F394E6CFDF91CF911F910F91BA
:1013F000FF90EF90DF90CF90BF9008950F931F93D1
:10140000CF93DF930E9458068091F1048F5F809301
:10141000F10483E193E060E070E00E94890520918F
:10142000580580E06BE247E00E9429068091F104B4
:1014300081508093F1048AE08093F00418E00AE080
:10144000C8ECD0E08091ED0480FF07C06091B4004B
:1014500083E090E00E94343693C08091ED048823AD
:1014600021F48091EE04882319F00093F0040DC05C
:101470008091F004882349F46091B40083E090E007
:101480000E94343610923D057BC08091ED0481FFAF
:1014900031C01092ED048091F1048F5F8093F104CC
:1014A000183091F484E765E00E947C188091B400C4
:1014B000609149050E94C61489E293E065E573E0F6
:1014C0000E94890519E611C084E765E00E947C1836
:1014D0008091B400609158050E94C61483E193E0A6
:1014E0006FE373E00E94890518E08091F104815058
:1014F0008093F1048091ED0482FD04C08091EE049C
:1015000082FFA0CF1092ED04193671F58091B400DE
:101510008F5F8093B4008091B400813110F01092FD
:10152000B4008091F1048F5F8093F1040E9458060B
:1015300089E293E065E573E00E94890520915805F2
:1015400080E06BE247E00E94290684E765E00E94A4
:101550007C188091B400609149050E94C614809166
:10156000F10481508093F1048091EE0482FF6ACFF0
:101570008CED95E0FE013197F1F70197D9F762CF35
:10158000DF91CF911F910F910895CF92DF92EF924B
:10159000FF920F931F93DF93CF9300D0CDB7DEB7A9
:1015A0008091F1048F5F8093F10480E060E00E94FD
:1015B0007C186091580583E292E00E94B51400E027
:1015C000E2E0CE2ED12CCC0EDD1E7E010894E11C73
:1015D000F11C102F1F5F88E0612F0E947C18609122
:1015E000580584E392E00E94B51460915805812F5C
:1015F0000E94C614609158058BE392E00E94B514D6
:10160000802FB701A6010E94981C8981609158051E
:101610000E94C614609158058AE30E948A148A8148
:10162000609158050E94C614012F143091F688E08D
:1016300065E00E947C186091580583E492E00E9466
:10164000B5148091FA05609158058F5F0E94C61409
:1016500080913D05843119F08DEF92E002C083E165
:1016600093E06FE373E00E948905C090490580E034
:1016700068E047E028E200E0EE240E9480108091BC
:10168000F10481508093F1040F900F90CF91DF917E
:101690001F910F91FF90EF90DF90CF900895DF9210
:1016A000EF92FF920F931F93DF93CF9300D0CDB7AC
:1016B000DEB71091FA050E94C50A8091F1048F5F90
:1016C0008093F1046091680520915805660F660FBC
:1016D000660F655F80E047E00E9429068091F10473
:1016E00081508093F1048AE08093F0048091680532
:1016F000843051F080916805BE016F5F7F4FAE016D
:101700004E5F5F4F0E94981C05E0AAE0DA2EF8ECCD
:10171000EF2EF12C8091ED0480FF03C01092ED04B8
:1017200018C18091ED04882321F48091EE04882370
:1017300019F0D092F00407C08091F004882319F4C6
:1017400010923D0506C18091ED0481FFAEC010925C
:10175000ED048091F1048F5F8093F1040530A9F5C9
:10176000809168058430C1F484E765E00E947C18AC
:1017700060914905812F8F5F0E94C6140091580522
:1017800088ED92E066E572E04BEE52E02AE532E049
:101790000E945A0504E184C0609168056F5F82E68B
:1017A0000E947C188981609149050E94C6140091AD
:1017B000580588ED92E06DEE71E04BEE52E021EFBE
:1017C00031E00E945A0505E66BC0053621F56091AF
:1017D00068056F5F82E60E947C18898160915805D8
:1017E0000E94C614609168056F5F84E70E947C18B0
:1017F0008A81609149050E94C6140091580588EDC0
:1018000092E066EF71E04BEE52E02AEF31E00E9489
:101810005A0506E645C0043191F484E765E00E946C
:101820007C1860915805812F8F5F0E94C6148FE04D
:1018300090E0612F0E9434361093FA051CC060912D
:1018400068056F5F82E60E947C1889816091580567
:101850000E94C614609168056F5F84E70E947C183F
:101860008A81609158050E94C6148091680569813B
:101870004A810E94221D812F6BE475E047E555E007
:101880000E94981C80913D05843119F08DEF92E003
:1018900002C083E193E06FE373E00E94890505E0F5
:1018A0008091F10481508093F1048091ED0482FDD8
:1018B00004C08091EE0482FF2DCF1092ED04809140
:1018C000F1048F5F8093F104043169F41F5F1430D9
:1018D00008F010E084E765E00E947C1860914905FB
:1018E000812F8F5F23C0053679F489818F5F8983CB
:1018F0008981883108F01982609168056F5F82E6FE
:101900000E947C18898110C0063691F48A818F5F0D
:101910008A838A818C3308F01A82609168056F5F30
:1019200084E70E947C188A81609149050E94C61450
:101930008091F10481508093F1048091EE0482FF44
:10194000E9CE8CED95E0F7013197F1F70197D9F7E2
:10195000E1CE0F900F90CF91DF911F910F91FF90EB
:10196000EF90DF90089580913D058131B9F082318B
:1019700028F4853041F0803121F50BC0823199F097
:101980008331F9F415C080E180933D05109268051C
:1019900015C081E180933D0581E00EC082E1809316
:1019A0003D0582E009C083E180933D0583E004C0EA
:1019B00084E180933D0584E0809368050E944F0B8D
:1019C000089585E080933D0508950E945806809112
:1019D000F1048F5F8093F1042091580580E06BE063
:1019E00047E00E9429068091F10481508093F10420
:1019F0008AE08093F0049AE08091ED0480FD45C078
:101A00008091ED04882321F48091EE04882319F05D
:101A10009093F00407C08091F004882319F4109289
:101A20003D0508958091ED0481FF24C01092ED04DE
:101A30008091F1048F5F8093F104809149050E94A9
:101A4000E2180E94B30C80913D05853021F0809111
:101A50003D058823B1F780913D05853029F48091BB
:101A6000ED0481608093ED048091F10481508093B6
:101A7000F10408958091ED0482FD04C08091EE048C
:101A800082FFBACF1092ED04B7CF089580913D0543
:101A9000882371F48091F1048F5F8093F104809129
:101AA00049050E94E2188091F10481508093F1046D
:101AB00080913D05853091F0863028F4882341F0EF
:101AC000843021F511C08730A9F08F30F9F418C0A7
:101AD00085E080933D050E94E50C089584E08093A5
:101AE0003D050E94E006089587E080933D050E9431
:101AF000BD0808958FE080933D050E940808089571
:101B000088E080933D050E94FE09089510923D05EE
:101B10000895982FFB0181568A3110F480E203C0AA
:101B20009B3718F08AE1808301C01082892F90E0F2
:101B300080972081821B9109FC01EE0FFF1FE80FA7
:101B4000F91FEE0FFF1FEA59FD4FE4918E2F089504
:101B5000CF92DF92EF92FF920F931F93DF93CF9379
:101B60000F92CDB7DEB7082F7B0110E06E0108940D
:101B7000C11CD11C0CC0002331F4B6010E94890D98
:101B80001F5F180F01C01A5F0894E11CF11CF701D8
:101B90008081882381F7812F0F90CF91DF911F9152
:101BA0000F91FF90EF90DF90CF9008952F923F928A
:101BB0004F925F926F927F928F929F92AF92BF925D
:101BC000CF92DF92EF92FF920F931F93DF93CF9309
:101BD000CDB7DEB763970FB6F894DEBF0FBECDBFAB
:101BE000182F6A874B872C87ED86CE86AF861982A1
:101BF000442329F097E09D8375E0372E09C0802F9C
:101C0000BE016F5F7F4F0E94890D382E85E08D8366
:101C10009C85913029F088E08F8391E09E8303C0FA
:101C20008FEF8F838E839A85969596959695998753
:101C3000402E55245201AA0CBB1CAA0CBB1CA40CA0
:101C4000B51C80E69FEFA80EB91E1C83882499243A
:101C50009A859770988B8E819E85899F802D1124FF
:101C6000898B8E8181958A8B9D85899F902D1124EA
:101C70009B8B96C0D888862D69850E947C180E940F
:101C8000D7170E94D717F82E2A84622D7724731451
:101C900011F480E01EC0E72DF0E08B858823A1F4CD
:101CA000898120EE3FEF281B3109240D351DC90124
:101CB000880F991F820F931F880F991FE80FF91F34
:101CC000E959FD4F849105C0EA0DFB1DEA57FF4F0E
:101CD00084919F85992309F48095082F10E08A81CB
:101CE0009B8108231923E22CCC2434C09F81D91670
:101CF000F1F4669566956695862D0E947C188F2D69
:101D00000E9496186E2D669566956695862D0E94A2
:101D10007C180E94D7170E94D717F82E8C85813027
:101D200019F06E2DDD2403C06E2D37E0D32E81E037
:101D300090E00D2C02C0880F991F0A94E2F701155C
:101D4000110519F48095F82201C0F82A9E81D90E58
:101D5000E90EC3948E85C81648F29989290E7394AA
:101D6000371408F094CF669566956695862D0E9487
:101D70007C188F2D0E9496188A89680E98859F5F1F
:101D8000988788859D85891708F474CF8C819B89F5
:101D9000890F8C830894811C911C8D81881668F4AE
:101DA00081E090E0082C02C0880F991F0A94E2F7A6
:101DB0009B838A836C801886E4CF33949E85399EFA
:101DC000802D112463960FB6F894DEBF0FBECDBFF1
:101DD000CF91DF911F910F91FF90EF90DF90CF9007
:101DE000BF90AF909F908F907F906F905F904F903B
:101DF0003F902F9008956F927F928F929F92AF9213
:101E0000BF92CF92DF92EF92FF920F931F93CF93E7
:101E1000DF93682E742ED22EE8018E2C9C2CBA2CC7
:101E2000162FFF2411C0862D612F472D2D2DE82C54
:101E3000C92CAB2C0E94D60D91E0D91611F4181BB9
:101E400001C0180FF80E21960881002361F78F2D2D
:101E5000DF91CF911F910F91FF90EF90DF90CF9086
:101E6000BF90AF909F908F907F906F9008952F922A
:101E70003F924F925F926F927F928F929F92AF921A
:101E8000BF92CF92DF92EF92FF920F931F93DF9357
:101E9000CF93CDB7DEB760970FB6F894DEBF0FBE15
:101EA000CDBF8E836F83442E2B873C870887E986BE
:101EB000CA86442311F017E001C015E0842D6B851C
:101EC0007C850E94A80D4885849F802D11248D83D8
:101ED0005985159F102D11241C837724AA24DD24F5
:101EE000BB241B8266241A82CC2455249F81892F0F
:101EF00090E09E878D87E12FF0E0F88BEF87D5C0CB
:101F0000272D30E08D859E85820F931F43E09595A8
:101F100087954A95E1F7882EEF80E70C47E0E422A9
:101F200049F48F859889821B930B08971CF028E051
:101F3000922E24C08F859889821B930B8E0D911D44
:101F4000099724F098E0992E9E1802C09C8097185B
:101F500009E615E0FF240FC08E818F0D682D0E94C9
:101F60007C180E94D717F80180830E94D717F801C8
:101F700081938F01F394FD81FF1670F38E81682D9C
:101F80000E947C188824839401C0880CEA94EAF7A4
:101F90008B859C859C01190100E0FF2410E07EC028
:101FA000FC1410F0002381F4F10151901F01442032
:101FB00019F085E0F82E07C0852DBE016F5F7F4FB9
:101FC0000E94890DF82ECC24F8851F1711F00023EC
:101FD00061F5CF1411F4AA2422C02C2D30E0442046
:101FE000A9F4898140EE5FEF481B5109CA01850DB4
:101FF000911DFC01EE0FFF1FE80FF91FEE0FFF1FF1
:10200000E20FF31FE959FD4FA49009C055E0559E1A
:10201000F0011124E20FF31FEA51F040A490C394A1
:102020008A85882309F4A09410E098E0991619F4A1
:10203000112341F02EC0E02FF0E0E759FA4FD08095
:10204000282D08C0EA85EE2319F0DD24DA9401C0BA
:10205000DD2421E08A2D90E00A8002C095958795C5
:102060000A94E2F7982FBB806A80392D10C090FD4A
:1020700004C0822F8095D82201C0D22AB394F9855A
:10208000BF1619F496956394BB24220F3150332365
:1020900071F78D2D0E9496181F5F0F5F4D810417F9
:1020A00008F47ECF790C6A82BB825C81751608F4D5
:1020B00027CF8D8160960FB6F894DEBF0FBECDBFDF
:1020C000CF91DF911F910F91FF90EF90DF90CF9014
:1020D000BF90AF909F908F907F906F905F904F9048
:1020E0003F902F900895CF92EF920F93C02E01E072
:1020F000EE24E3940E94370F0F91EF90CF90089554
:102100002F923F924F925F926F927F928F929F9207
:10211000AF92BF92CF92DF92EF92FF920F931F93F5
:10212000DF93CF93CDB7DEB728970FB6F894DEBF15
:102130000FBECDBF682E562E4A83822EDE2C2C2C4D
:10214000332461E0C61611F43324339444244394B9
:102150004324002341F472E0D71609F047C0BB24A2
:10216000BCEFCB2E46C0013001F582E0D81641F419
:10217000882D63E00E94AF35ABEFCA2EC90E0AC0AE
:1021800093E0D91649F4882D63E00E94AF35F7E05B
:10219000CF2EC91ABB242DC0E1E0DE1639F5CC24C0
:1021A000C394C820F5E0CF0EF5CF62E0D61641F417
:1021B000852D63E00E94AF35ECEFCE2EC91A14C016
:1021C00073E0D71639F4852D63E00E94AF3576E0D1
:1021D000C72E09C081E0D81611F0B62C08C0CC2457
:1021E000C394C52096E0C90EB62C03C0BB2466E09C
:1021F000C62EAA2410E0ED2DE250EC830CC1EA2C8F
:10220000FF24C701850D911D53E0959587955A953B
:10221000E1F7982E7A2C750CF7E07F2231F4882DA7
:1022200090E08E199F09089734F469E675E07E8383
:102230006D8300E017C074E0D716B9F3198217C098
:10224000802F860D692D0E947C180E94D717ED8182
:10225000FE8180830E94D717ED81FE818193FE83EA
:10226000ED830F5FFA810F1758F361E06983862DC4
:10227000692D0E947C18282D30E02E193F0988E036
:1022800090E087199109281739071CF4082D0A19BD
:1022900002C008E00719FF247A2D7C0D7B839C2C5B
:1022A0009A18B2C08981813029F4EF2DF0E0E75906
:1022B000FA4F108192E0D916A1F4292D832F63E003
:1022C0000E94AF35E92EE32FF0E0F887EF83CF01CE
:1022D000019663E070E00E94DC35AC01372DA0E090
:1022E0008CC02B81EBCF083009F040C0DD2091F18C
:1022F000F1E0DF1661F4822F90E06F817885862708
:10230000972780FF02C01AEA2CC015E52AC073E0A7
:10231000D71661F4822F63E00E94AF35E91601F110
:10232000892F90E048175907C9F416C082E0D816E3
:1023300061F4822F63E00E94AF35E91689F0892F9E
:1023400090E04817590741F409C094E0D91659F0B4
:1023500010E007C01FEF05C014E203C012E901C07E
:1023600019E4E1E02E121095A85F47C0DD2021F1AD
:10237000F1E0DF1649F4822F90E06F81788586279F
:10238000972780FF19C01AC07C81723038F4822FE1
:1023900063E00E94AF35E91689F40EC084E0D816D8
:1023A00069F4812F90E0032E02C0959587950A94D9
:1023B000E2F780FF06C00FC0822D01C0842D81305E
:1023C00051F481E090E0032E02C0880F991F0A9417
:1023D000E2F7182B0AC081E090E0032E02C0880FBC
:1023E000991F0A94E2F78095182392E0D91611F408
:1023F000215001C02F5FAF5F3F5FA01708F473CF7C
:10240000812F0E949618F3943F2D3B0DEA81FE1612
:1024100008F448CFA00EA81408F4F1CE28960FB601
:10242000F894DEBF0FBECDBFCF91DF911F910F910A
:10243000FF90EF90DF90CF90BF90AF909F908F90E4
:102440007F906F905F904F903F902F9008958F9264
:102450009F92AF92BF92CF92DF92EF92FF920F9333
:102460001F93D82EA62EB42E922E802E82E0841793
:10247000A8F41D2D1F5F0EEFF02EF40E812F4F2DAF
:1024800021E002E0EE24C82C0E9480106A2D6150E9
:10249000690D812F4F2D21E00E9480108D2D6A2D16
:1024A00041E0292D02E0EE24C82C0E94801081E03A
:1024B0008B1510F0891558F4DA948D2D8B0D6A2D3B
:1024C00041E0292D02E0EE24C82C0E9480101F91CB
:1024D0000F91FF90EF90DF90CF90BF90AF909F90C3
:1024E0008F900895CF92EF920F93C02E02E0EE24CA
:1024F0000E9480100F91EF90CF9008952F923F92FD
:102500004F925F926F927F928F929F92AF92BF9203
:10251000CF92DF92EF92FF920F931F93DF93CF93AF
:1025200000D000D0CDB7DEB7282E362E422E502E4A
:10253000862F82198983942E842F90E0880F991F0B
:10254000909581959F4F182F1D5F1C821B828824B8
:10255000962FE9819E1B9A8346C0DB80F32CF918E5
:10256000692C772467FC70945301AA0CBB1C8D2D39
:10257000820D6F2D41E02A2D02E0E42CC52C0E9433
:102580008010822D8D196F2D41E02A2D0E94801020
:10259000F32DFD19DF2E8A81890D6F2F41E0282D43
:1025A0000E9480108F2D9981891B6D2D41E0282D6F
:1025B0000E94801017FF05C01A5F882D880F180F22
:1025C0000BC0165F8B819C8186199709880F991F14
:1025D000880F991F180F9A94EB81FC813196FC8328
:1025E000EB83F2E08F0E8B8198160CF0B6CF0F9034
:1025F0000F900F900F90CF91DF911F910F91FF904F
:10260000EF90DF90CF90BF90AF909F908F907F9092
:102610006F905F904F903F902F900895DF92EF92D0
:10262000FF920F931F93082FF62EE42E162F169568
:1026300016951695612F0E947C180E94D7170E944C
:10264000D717D82E802F612F0E947C182F2D30E0B5
:1026500081E0E81659F42770307081E090E002C004
:10266000880F991F2A95E2F78D290BC027703070CB
:1026700081E090E002C0880F991F2A95E2F78095CB
:102680008D210E9496181F910F91FF90EF90DF907F
:1026900008952F923F924F925F926F927F928F9206
:1026A0009F92AF92BF92CF92DF92EF92FF920F93E1
:1026B0001F93CF93DF93202E482E552450E04419CA
:1026C0005509662E772430E0261937095A0157FF3D
:1026D00004C0AA24BB24A41AB50A790137FF04C098
:1026E000EE24FF24E21AF30A1416150624F4E1E09E
:1026F0008E2E912C08C0452B19F48824992403C0F0
:1027000088248A94982C1216130624F471E0C72E9C
:10271000D12C08C0232B19F4CC24DD2403C0CC24F5
:10272000CA94DC2C422D0E940E13AE14BF04F4F0A8
:10273000E501D595C795382C982C940C00E010E055
:1027400011C0CE0DDF1DCA15DB0524F0CA19DB0947
:102750006C0C7D1C892D662D422D0E940E130F5F7F
:102760001F4F930C0A151B0564F31CC0E701D59598
:10277000C7953C2CDC2CD60C00E010E0CA0DDB1D0C
:10278000CE15DF0524F0CE19DF09480C591C842D25
:102790006D2D422D0E940E130F5F1F4FD30C0E158F
:1027A0001F0564F3DF91CF911F910F91FF90EF9080
:1027B000DF90CF90BF90AF909F908F907F906F9061
:1027C0005F904F903F902F9008954F925F926F923D
:1027D0007F928F929F92AF92BF92CF92DF92EF92B1
:1027E000FF920F931F93CF93DF93682E962E822E26
:1027F000B02E562E581AA42E842F90E0880F991FC1
:10280000909581959F4FA3E0CA2EC80EC0E0D0E0FE
:102810007724422E4A9469C08820C1F021E0241513
:1028200068F0AE014170507020E030E092E089160F
:1028300011F421E030E04217530741F023E0821603
:10284000D9F563E00E94BB359923B1F51C2F160D15
:102850000A2D090D812F602F4B2D0E940E13F92C8C
:10286000FA18812F6F2D4B2D0E940E13162D1C1B55
:10287000812F602F4B2D0E940E13812F6F2D4B2D1A
:102880000E940E130519DC2ED90C802F6D2D4B2DB7
:102890000E940E13192D1C1B802F612F4B2D0E949F
:1028A0000E13F5188F2D6D2D4B2D0E940E138F2DAD
:1028B000612F4B2D0E940E13C7FE04C0C70C36E0DB
:1028C000C30E10C08AE0C80E8A2D992787FD909507
:1028D0009E01281B390BC901880F991F880F991F6A
:1028E000C80EAA94219634E0730E8C2FAC160CF00F
:1028F00093CFDF91CF911F910F91FF90EF90DF90D9
:10290000CF90BF90AF909F908F907F906F905F908F
:102910004F900895FF920F931F93CF93DF93F62E5E
:1029200095E0899FC0011124EC01CA51D0408C016F
:1029300005511040FE018491FF2009F480950E940A
:1029400096182196C017D107A9F7FF2011F48FEF31
:1029500001C080E00E94961880E00E942318DF9159
:10296000CF911F910F91FF9008951F93CF93DF9305
:10297000EC01162F04C0612F0E948A1421968881D1
:102980008823C9F7DF91CF911F9108950F931F936B
:10299000182F062F6AE00E94AF35805D602F0E94DD
:1029A0008A14812F6AE00E94AF35892F805D602FE5
:1029B0000E948A141F910F910895459A449A10928B
:1029C00039051092380510923B0510923A0580E2C5
:1029D0008093B800ECEBF0E08081846080831092FB
:1029E000F204808181608083808180648083789418
:1029F000089580E28093B8000895ECEBF0E08081C8
:102A00008F70806A80830895ECEBF0E080818F7096
:102A1000806D808308958091BC0087FFFCCF08956E
:102A20008093BB00ECEBF0E080818F708068808346
:102A30000895882329F08091BC008F70806C04C0B9
:102A40008091BC008F7080688093BC000895809155
:102A5000BB000895982F8091F2048823E1F782E06B
:102A60008093F2049E7F9093F304A4EFB4E0FA0104
:102A700002C081918D938E2F841B8617D0F3109204
:102A80001405609315058091BC008F70806A809357
:102A9000BC000895982F8091F2048823E1F783E029
:102AA0008093F20491609093F30410923605609342
:102AB00037058091BC008F70806A8093BC00809144
:102AC000F2048823E1F7A6E1B5E0FA0102C08D9196
:102AD00081938E2F841B8617D0F30895982FFA01C7
:102AE0008091BC008E7F8093BC008091BC008F7071
:102AF000806A8093BC008091BC0087FFFCCF9E7FE2
:102B00009093BB008091BC008F7080688093BC0064
:102B10008091BC0087FFFCCF8091B900883189F09B
:102B200091E012C080818093BB008091BC008F70C7
:102B300080688093BC008091BC0087FFFCCF3196F9
:102B40006150662379F790E08091BC008F70806DB2
:102B50008093BC008091BC0084FFFCCF8091BC00BE
:102B600081608093BC00892F08951F93CF93DF93DA
:102B7000982F162FEA018091BC008E7F8093BC00B5
:102B80008091BC008F70806A8093BC008091BC00F3
:102B900087FFFCCF91609093BB008091BC008F7049
:102BA00080688093BC008091BC0087FFFCCF80913F
:102BB000B900803469F091E018C08FEF0E941915B8
:102BC0008091BC0087FFFCCF8091BB00899311509E
:102BD000123098F780E00E9419158091BC0087FFA1
:102BE000FCCF8091BB00888390E08091BC008F7007
:102BF000806D8093BC008091BC0081608093BC009C
:102C0000892FDF91CF911F9108951F920F920FB6D8
:102C10000F9211242F933F934F935F936F937F9362
:102C20008F939F93AF93BF93EF93FF938091B900DE
:102C3000887F883609F4CBC0893688F5803309F45B
:102C400095C08133B0F4803109F45AC0813138F431
:102C5000882309F43EC1883009F048C151C0803250
:102C600009F484C0883209F453C0883109F03EC1A8
:102C70004FC0883409F47AC0893438F4883309F4B1
:102C800078C0803409F032C192C0883509F45DC043
:102C9000803609F49CC0803509F028C174C0803AA0
:102CA00009F4BEC0813AB0F4803809F49BC0813881
:102CB00038F4803709F48BC0883709F017C187C012
:102CC000803909F48FC0883909F4A1C0883809F027
:102CD0000DC19DC0883B09F4D1C0893B38F4883AC6
:102CE00009F4B6C0803B09F001C1B2C0883C09F4C8
:102CF000E0C0883F09F4E7C0803C09F0F7C0D9C0C4
:102D000087E595E060E00E94D71F8091F30414C02E
:102D100088E395E060E00E94D71F909114058091B0
:102D20001505981708F0DAC0E92FF0E0EC50FB4FDA
:102D300080819F5F909314058093BB008091BC00BD
:102D40008F7080688093BC00D1C083E295E060E022
:102D50000E94D71F809136059091BB00E82FF0E0CC
:102D6000EA5EFA4F90838F5F809336058DEF94E093
:102D7000B2C089EE94E060E00E94D71F8091BC0051
:102D80008F708068AFC085ED94E060E00E94D71F2F
:102D90008091BB0090913605E92FF0E0EA5EFA4F92
:102DA00080839F5F9093360590E00E94C21F82EC63
:102DB00094E060E00E94D71F2091360530E08091BA
:102DC000370590E001972817390734F51EC08FEAC0
:102DD00094E060E00E94D71F85E08093F204109297
:102DE000360562C08BE994E060E00E94D71F8091B5
:102DF00036059091BB00E82FF0E0EA5EFA4F908331
:102E00008F5F80933605803238F48FEF06C086E8F6
:102E100094E060E00E94D71F80E00E94191566C010
:102E200083E794E060E00E94D71F8091BC008F7020
:102E3000806C8093BC00E0913805F09139053097A3
:102E400009F452C08091360566E175E009954CC0E1
:102E500080E694E060E00E94D71F84E08093F20453
:102E6000E0913A05F0913B05309731F080E264EF54
:102E700074E0099580931505109214058CE494E094
:102E800060E00E94D71F90911405E92FF0E0EC500C
:102E9000FB4F80818093BB009F5F909314058091CE
:102EA0001505981708F04ACF8091BC008F70806C90
:102EB00049CF8AE294E060E00E94D71F8091BC0075
:102EC0008F70806C0FC08BE194E060E00E94D71F90
:102ED0000DC08AE094E060E00E94D71F8091BC00A2
:102EE0008F70806D8093BC001092F204FF91EF917F
:102EF000BF91AF919F918F917F916F915F914F9112
:102F00003F912F910F900FBE0F901F9018952F9803
:102F10002D982C9840985A98279A259A249A389A4E
:102F2000529A8BB18F708BB985B1807F85B98AB188
:102F3000806F8AB984B18F6084B9089508954098EC
:102F40005A98882319F0813021F402C0409A0895DC
:102F50005A9A0895F8940E949F178BB1806F8BB98D
:102F600085B18F6085B92F988AB18F708AB984B185
:102F7000807F84B92D9A2C9A000000000AC02C98FA
:102F800000000000000000002C9A0000000000007B
:102F9000000089B193B187FDF2CF2C982D988AB1AA
:102FA000806F8AB984B18F6084B978940895F89459
:102FB0008091E90582958695869583700E94AA176F
:102FC0002F9A8AB18F708AB984B1807F84B92D9A83
:102FD0002C9A00000000000000000000000000002B
:102FE000000099B183B12C982D9878948F70907FC0
:102FF000892B08951F93162FF8940E94AA172F98D3
:103000002D982C9A8AB1806F8AB984B18F6084B967
:103010008BB18F708BB99BB1812F807F892B8BB93E
:1030200085B1807F85B985B11F70812B85B900007E
:1030300000000000000000000000000000002C98CC
:1030400078941F9108951F93182F106C80E0612FC2
:103050000E94FA1781E0612F0E94FA171F910895CC
:10306000F8940E94AA172F988AB18F708AB984B1F8
:10307000807F84B92D9A2C9A000000000000000087
:10308000000000000000000029B183B12C982D98A9
:103090009AB1906F9AB994B19F6094B978948F70F7
:1030A000207F822B08958093E90580E060E40E94F0
:1030B000FA171092EB0581E060E40E94FA17109273
:1030C000ED058091E905682F6F73606482958695A0
:1030D000869583700E94FA1708951F93182F809386
:1030E000EA05186B80E0612F0E94FA1781E0612FDA
:1030F0000E94FA171F9108951F93182F862F0E9480
:103100006D18812F0E9453181F91089580E00E942E
:10311000231880E060E00E947C181092EB0510926A
:10312000EC051092ED051092EE0508950F931F9394
:10313000182F0091E9050295069506950370F894FD
:10314000802F0E94AA172F9A2D982C9A8AB1806FEF
:103150008AB984B18F6084B98BB18F708BB99BB100
:10316000812F807F892B8BB985B1807F85B985B10F
:103170001F70812B85B900000000000000000000D6
:103180000000000000002C987894E02FF0E0EE0F93
:10319000FF1FE551FA4F80818F5F80838091E905A1
:1031A0008F5F8093E90587FF0AC08091EA058F5FF2
:1031B0008093EA050E946D1880E00E9453181F91C9
:1031C0000F910895FF920F931F93813011F0FF2408
:1031D00002C0FF24FA9400E080E0602F0E947C1877
:1031E00010E08F2D0E9496181F5F1038D1F70F5FE7
:1031F000083091F71F910F91FF9008951F93182F9A
:103200000E94871780E06FE30E94FA1781E06FE366
:103210000E94FA17812F0E94E2180E9486181F91BF
:1032200008951F920F920FB60F9211242F933F9380
:103230004F935F936F937F938F939F93AF93BF93BE
:10324000EF93FF938091FC059091FD05892B49F048
:103250008091FC059091FD0501979093FD05809369
:10326000FC0580913E05813009F094C080913F05B6
:1032700090914005892B09F08DC08091FF059091B8
:103280000006892B09F07CC0909145058091460588
:10329000981701F580916C038130E1F480916B0304
:1032A000803219F410926B0303C08E5F80936B031E
:1032B000E0916B032E2F30E0C9018D56994FFC0130
:1032C0008491809345052C56394FF9019491980FBC
:1032D0009093460580916C03E0914505813009F596
:1032E00010926C032E2F30E0F901E959FA4FE49166
:1032F00089E0E89FC0011124909344058093430521
:1033000023503A4FF90194918FE5989FC001112401
:1033100063E070E00E94C835709300066093FF057B
:1033200010C081E080936C03109244051092430515
:103330008FE290E0909300068093FF05EF5FE093AB
:10334000450520914305309144052115310521F4AF
:1033500010928100439814C01092800089E08093FD
:10336000810083E080936F0040E050E060E079E00E
:103370008DE390E00E94EF35309389002093880020
:103380008091FF059091000601979093000680932D
:10339000FF0518C080914105909142058F5F9F4FB6
:1033A00089F41092810043981092420510924105D1
:1033B00080E280936B03809146058093450581E010
:1033C00080936C03FF91EF91BF91AF919F918F918B
:1033D0007F916F915F914F913F912F910F900FBE11
:1033E0000F901F9018951F920F920FB60F921124F5
:1033F0008F939F9388B198E0892788B99F918F9187
:103400000F900FBE0F901F9018951F920F920FB63E
:103410000F9211248F939F9388B198E0892788B9E0
:103420009F918F910F900FBE0F901F9018951E9B2C
:1034300021C08091F9058130A9F51092F90510920B
:10344000400510923F05109242051092410590915F
:103450003E05913039F510923E051092810080E2D0
:1034600080936B03809146058093450590936C0390
:10347000439808958091F9058823A1F481E0809311
:10348000F9051092400510923F05109242051092E6
:10349000410590E290936B0390914605909345050A
:1034A00080936C0308951F93162F1092800029E0DB
:1034B0002093810023E020936F009C0140E050E0C6
:1034C00060E079E08DE390E00E94EF353093890071
:1034D0002093880020E533EC04C0C9010197F1F77F
:1034E00019511931D0F71092810043981F91089516
:1034F000CF93DF93C82FD0E0E42FF0E0E053F84FF4
:10350000833010F42C963197262F30E02F5F3F4FF9
:103510002E0F3F1FCE01880F991F280F391FCF0193
:103520009695879596958795280F391FCF0160E965
:1035300071E00E94C835260F371FCF0164E670E0A6
:103540000E94C835261B370BAE014F5F5F4FCA0183
:10355000880F991F840F951F880F991F6AE070E0EC
:103560000E94C835C901860F971F67E070E00E946E
:10357000C835DF91CF910895482F6AE00E94AF359A
:10358000282F30E0B4E0220F331FBA95E1F7842FE3
:103590000E94AF35892F822B0895FC0183709070B3
:1035A000892B39F4CF0164E670E00E94C835892B7D
:1035B00049F420E030E0CF0160E971E00E94C835B5
:1035C000892B11F421E030E0822F08951092E60457
:1035D00080913C058823E1F38CE38093F6051092FB
:1035E0003C0580913C058823E1F381E08093E6046B
:1035F000089588E592E09093400580933F0580E62A
:1036000099E0909342058093410510928100439880
:1036100010923D050895CF92DF92EF92FF920F93A3
:103620001F93DF93CF93CDB7DEB728970FB6F894EB
:10363000DEBF0FBECDBF162FF42ED22EFE01319667
:1036400098E0DF011D929A95E9F719820E94BC1A51
:103650008A83812F0E94BC1A8B838F2D0E94BC1AF3
:103660008C838D2D0E94BC1A8D83802F0E94BC1AE2
:103670008E838E2D0E94BC1A8F838C2D0E94BC1AC3
:103680008887F89480ED68E0AE014F5F5F4F0E943D
:103690006E1578948823D9F008EC10E080EA9FE05A
:1036A00064E60E94531A88EE93E0F8013197F1F72F
:1036B0000197D9F780EA9FE064E60E94531A80E1FF
:1036C00097E2F8013197F1F70197D9F7E7CF2896FC
:1036D0000FB6F894DEBF0FBECDBFCF91DF911F9123
:1036E0000F91FF90EF90DF90CF9008950F931F936D
:1036F000DF93CF93CDB7DEB729970FB6F894DEBF2F
:103700000FBECDBF1982F89480ED61E0AE014F5F2E
:103710005F4F0E946E158823E1F008EC10E078946A
:1037200080EA9FE064E60E94531A88EE93E0F80175
:103730003197F1F70197D9F780EA9FE064E60E949C
:10374000531A80E197E2F8013197F1F70197D9F721
:10375000E6CF80ED67E0AE014E5F5F4F0E94B5158A
:1037600078948823D9F008EC10E080EA9FE064E6C2
:103770000E94531A88EE93E0F8013197F1F7019710
:10378000D9F780EA9FE064E60E94531A80E197E24D
:10379000F8013197F1F70197D9F7E7CF7A81872FB1
:1037A00082958F7090E0877090709C01F3E0220FFB
:1037B000331FFA95E1F7880F991F280F391F872FBC
:1037C0008F70820F809302064B81842F82958F70B9
:1037D00090E0877090709C0163E0220F331F6A9520
:1037E000E1F7880F991F280F391F4F70420F409340
:1037F000F5058C81482F42954F70682F6F7086FFBA
:1038000022C082958695877090E0817090709C01AF
:10381000220F331F280F391F220F331F220F331F90
:10382000842F90E081709070AC01B3E0440F551F7D
:10383000BA95E1F7880F991F480F591F240F260FDB
:103840002093F00511C0842F90E0837090709C014C
:10385000F3E0220F331FFA95E1F7880F991F280F25
:10386000391F620F6093F0054E81842F82958F700F
:1038700090E0837090709C0163E0220F331F6A9583
:10388000E1F7880F991F280F391F4F70420F40939F
:10389000F4054F81842F82958F7090E08170907035
:1038A0009C0103E0220F331F0A95E1F7880F991F4F
:1038B000280F391F4F70420F409301062885822F31
:1038C00082958F703AE0839FC00111242F70280FDA
:1038D0002093F305872F807829960FB6F894DEBFE2
:1038E0000FBECDBFCF91DF911F910F910895CF9261
:1038F000EF920F930E94DD140E94761B882359F0EB
:1039000080E060E04CE020E001E0EE24E394AEE0F3
:10391000CA2E0E940B1B0E94761B87E08093B10089
:1039200081E08093700078940F91EF90CF9008958C
:10393000EF92FF920F931F93CF93DF938B017A0146
:10394000882329F481E090E0C2E0D0E012C0813009
:1039500029F489E090E0CAE0D0E00BC0823029F081
:103960008DE090E0CEE0D0E004C08BE090E0CCE0D1
:10397000D0E00E942C3668E10E94AF35F8019083B8
:10398000CE010E942C366CE30E94AF35F701908384
:10399000DF91CF911F910F91FF90EF90089580E0FC
:1039A00090E00E942C36833C09F44BC081E090E00B
:1039B00068E00E94343682E090E060E00E94343695
:1039C00083E090E060E10E94343684E090E061E0C2
:1039D0000E94343685E090E065E00E94343686E04F
:1039E00090E061E00E94343688E090E060E00E9460
:1039F000343689E090E069E00E9434368AE090E055
:103A00006FE00E9434368BE090E06AE00E9434362A
:103A10008CE090E06EE10E9434368DE090E06BE047
:103A20000E9434368EE090E06DE20E9434368FE0E2
:103A300090E060E00E94343680E090E063EC0E9409
:103A4000343608950F931F93DF93CF9300D0CDB7F3
:103A5000DEB769834A83882329F481E090E002E09D
:103A600010E012C0813029F489E090E00AE010E013
:103A70000BC0823029F08DE090E00EE010E004C031
:103A80008BE090E00CE010E069810E9434366A819E
:103A9000C8010E9434360F900F90CF91DF911F9193
:103AA0000F9108951F920F920FB60F921124FF925B
:103AB0000F931F932F933F934F935F936F937F9336
:103AC0008F939F93AF93BF93EF93FF93A8958091AC
:103AD0004705853389F410924705F090020610914E
:103AE000F5050091F0050E94171A0E94761B80913F
:103AF000F005801729F407C08F5F80934705EEC05B
:103B00000093F70504C08091F505811711F010931B
:103B1000F105809102068F1569F190913E05913073
:103B2000C9F420913F05309140052115310591F0F0
:103B30002130310549F480E280936B038091460582
:103B40008093450590936C0321503040309340059D
:103B500020933F0580913E05813061F480914105BD
:103B600090914205181619062CF40197909342057E
:103B70008093410580913D05853081F080913D0520
:103B8000873061F080913D058A3041F080913D059C
:103B9000883021F080913D058F3021F58091F1042E
:103BA000882301F580E562E00E947C188091F00591
:103BB000609158050E94C614609158058AE30E94DE
:103BC0008A148091F505609158050E94C614609191
:103BD00058058AE30E948A14809102066091580574
:103BE0000E94C61480913C05882309F59091F60542
:103BF000809102069817D9F0809102068093F6050D
:103C00008091F5058093F8058091F0058093EF058C
:103C10008091F4058093F205809101068093FB0565
:103C20008091F3058093FE0581E080933C058091AF
:103C3000F9058130B1F480913E05813091F4809195
:103C4000410590914205892B61F410923E05109236
:103C5000400510923F058FEF9FEF909342058093B0
:103C600041052091F9052130E1F480913E0588233A
:103C7000C1F4809102068823A1F49091F50580910A
:103C80005705981771F49091F00580914B0598179E
:103C900041F420933E0588E097E09093420580939D
:103CA000410580914805893039F41092480580918A
:103CB000EF04882329F409C08F5F809348050EC064
:103CC0008091EF0481508093EF048091F004882369
:103CD00029F08091F00481508093F004FF91EF91DE
:103CE000BF91AF919F918F917F916F915F914F9114
:103CF0003F912F911F910F91FF900F900FBE0F904A
:103D00001F9018951F93CF93DF9314BE88E10FB6D1
:103D1000F89480936000109260000FBE8AE190E0FA
:103D20000E94821F3B9A8CE38093F6050E94771CC9
:103D30000E94CF1C88E090E00E942C368170809316
:103D400049058091490590E0882309F491E090931A
:103D500058058FE090E00E942C3683708093FA051E
:103D60008091FA056BE475E047E555E00E94981CE8
:103D70000E947C041092F90510923E0510924005B5
:103D800010923F0510924205109241050E94171AA9
:103D900082E084BD83E085BD8DE787BD80916E00A4
:103DA000826080936E00539A80E28093B00080918D
:103DB000B00083608093B0008091B10088608093F0
:103DC000B10080E18093B30083E090E00E942C3644
:103DD0008093B400259A80EA9FE064E60E94531A1B
:103DE0002FE088E190E00FB6F894A89580936000EA
:103DF0000FBE20936000809149050E94FE180E942A
:103E000054040E94E61A85E391E090935305809351
:103E100052051092E80410923D0581E00E94F203E1
:103E200010E0CBE4D0E0D093FD05C093FC05809179
:103E3000ED04882361F080913E05813041F480914A
:103E40003D05882321F40E94F91A1092ED04809117
:103E5000ED0480FF10C01092ED040E94460D809189
:103E6000F00480913D05882371F50E94E61A81E0F7
:103E70000E94F20328C08091ED0481FF0AC0809166
:103E8000ED040E94A003882311F411E002C01092F7
:103E9000ED048091ED0482FD02C01130A1F4109177
:103EA000E8040E94BE03982F8091E804181721F0BF
:103EB000892F0E94F20304C08091ED040E94A003A8
:103EC0001092ED0410E080913D05882379F48091F3
:103ED0003C058093E60483E00E94F2038091E604AF
:103EE000813021F41092E60410923C058091FC058B
:103EF0009091FD05892BD1F78091E9048F5F809324
:103F0000E90491CF9093C5008093C40088E1809329
:103F1000C1008EE08093C200519A50980895982F66
:103F20008091C00085FFFCCF9093C60080E090E0B8
:103F30000895282F982F92959F709A3030F4809191
:103F4000C00085FFFCCF905D05C08091C00085FF5B
:103F5000FCCF995A9093C600822F90E08F7090709A
:103F60000A973CF48091C00085FFFCCF2F70205D44
:103F700006C08091C00085FFFCCF2F70295A209386
:103F8000C60008951F93182F892F0E94991F812F13
:103F90000E94991F1F9108958091C00087FFFCCF58
:103FA0008091C60008958091C0008078089508959A
:103FB0000895089508950895CF92EF92FF920F9378
:103FC0001F93DF93CF9300D00F92CDB7DEB7162F9C
:103FD0007E010894E11CF11CB7010E944604009187
:103FE0000806C090580583E1089FC0011124189F5E
:103FF000102D112480910606810F6091030641E087
:104000009701E09005060E94370F0F900F900F90D8
:10401000CF91DF911F910F91FF90EF90CF90089576
:10402000CF92EF92FF920F93DF93CF9300D000D007
:1040300000D0CDB7DEB7C090E9048091EB048130A9
:1040400049F580914E058130D9F480914B057E0170
:104050000894E11CF11CB7010E9446048AE38B839B
:1040600080915705BE016C5F7F4F0E94460400910E
:10407000580582E069E340E097010E9473100AC08E
:104080000091490581E068E343E127E00E94721254
:1040900010924D058091E704813079F420E08C2D59
:1040A00090E08F70907008970CF021E080914D05A2
:1040B0002817A1F020934D0506C080914D05813051
:1040C00069F410924D05C090490581E068E343E131
:1040D00027E002E094E0E92E0E94801026960FB6B9
:1040E000F894DEBF0FBECDBFCF91DF910F91FF904F
:1040F000EF90CF900895CF92EF920F931F93182FC8
:10410000813029F4809149050E94E21808C000918D
:10411000490580E060E040E828E30E9472120091C7
:104120000806C090580580910606800F2CE0029F7B
:1041300090011124820F6091030641E02DE633E0E7
:10414000E09005060E94370F809104068130A1F4AB
:1041500000910806C0905805802F8295880F807EB8
:1041600090910606890F6091030641E02DE633E049
:10417000E09005060E94370F113021F410924E0591
:1041800010924D051F910F91EF90CF90089591E0FF
:104190009093040690E1909306069CE090930306AA
:1041A00092E0909308069093050695E29093070697
:1041B0000E947B2008951092040624E020930606B6
:1041C00092E0909303062093080695E090930506ED
:1041D0009CE2909307060E947B200895EF92FF9245
:1041E0000F931F93DF93CF93CDB7DEB729970FB609
:1041F000F894DEBF0FBECDBF0E9410208091E60470
:10420000882329F48091EA04882309F493C09091CB
:10421000600580915405981789F490915605809116
:104220004C05981759F490914F0580914A059817BD
:1042300029F48091EA04813009F04BC010910706FF
:10424000809156056091600540914F050E94781A53
:1042500000915805E82FF0E0EE0FFF1FE653FD4FE9
:104260002081318182E1612F41E00E947310E09151
:10427000560500915805F0E0EE0FFF1FE357FD4F84
:10428000208131818AE26091070641E00E9473102B
:10429000809160057E010894E11CF11CB7010E9429
:1042A00046048CE28B8380E28C8382E38D8380E3FF
:1042B0008E8380914F05BE01695F7F4F0E94460447
:1042C0000091580582E46091070641E097010E9441
:1042D00073109091660580916105981721F4809183
:1042E000EA04813029F48091660560E00E94DC1FB9
:1042F0009091670580915C05981721F48091EA04FC
:10430000813029F48091670561E00E94DC1F809173
:104310000406813079F490916205809163059817C5
:1043200021F48091EA04813029F48091620562E0F1
:104330000E94DC1F29960FB6F894DEBF0FBECDBFDA
:10434000CF91DF911F910F91FF90EF900895CF9340
:10435000DF93EC018A81803429F48B818F3111F451
:1043600092E001C096E020E030E0FE01E20FF31F92
:10437000DB01A20FB31F8C9180832F5F3F4F291762
:10438000A0F3DF91CF9108952F923F924F925F92C9
:104390006F927F928F929F92AF92BF92CF92DF9255
:1043A000EF92FF920F931F93DF93CF93CDB7DEB7BA
:1043B0002A970FB6F894DEBF0FBECDBF9A838983CC
:1043C0001B012B833C834D835E83EF82F886098734
:1043D0001A879A2CCA01B9010E9465352B013C014C
:1043E000DD24EE24D7FCE094FE2CC701B6010E9428
:1043F0003D347B018C01C301B201A80197010E94E9
:1044000002350E940A34605CF10160836B817C811B
:104410008D819E810E949F339058A80197010E9430
:1044200002350E940A34615EF10161836B817C81F7
:104430008D819E812F81388549855A850E943B3325
:104440007B018C01C8010E9465355B016C01292D3F
:1044500030E0B901882777FD8095982F0E943D3480
:104460002B013C01C601B501A30192010E94023556
:104470000E940A34605CF1016283B701C8010E94A6
:104480009F339058A30192010E9402350E940A3482
:10449000615EF10163836B817C818D819E812F81BF
:1044A000388549855A850E943A337B018C01C801C1
:1044B0000E946535A30192010E9402350E940A34D0
:1044C000605CF1016483B701C8010E949F3390587A
:1044D000A30192010E9402350E940A34615EF1013B
:1044E0006583282D30E0220F331F40E00DC0E981A5
:1044F000FA81EA0FFB1FA20DB31D90818C919817D2
:1045000011F081E007C04F5FA42FB0E0A217B307FE
:1045100074F380E02A960FB6F894DEBF0FBECDBFCD
:10452000CF91DF911F910F91FF90EF90DF90CF908F
:10453000BF90AF909F908F907F906F905F904F90C3
:104540003F902F9008950F931F93CF93DF93EC012B
:10455000162F888169814A812B81012F0E9449137E
:104560008A81803419F48B818F3169F08881698167
:104570004C812D81012F0E9449138A816B814C81CE
:104580002D810E944913DF91CF911F910F910895C2
:10459000CF92DF92EF92FF920F931F93813009F039
:1045A00083C0809149050E94E2180091580580E47B
:1045B0006FE14EE120E00E94E5134091580580E450
:1045C0006FE10E940E13DD246D2D772767FD709536
:1045D000872F972F0E943D3422E93AE046E05FE3BF
:1045E0000E9402357B018C01C8010E9465352DECCB
:1045F0003CEC40EE51E40E9402350E940A34C62E83
:10460000B701C8010E949F332DEC3CEC40EE51EC09
:104610000E9402350E940A34062F40915805615EBF
:104620008C2D805C0E940E138D2D63E00E94BB35A3
:104630009923B9F4DD2011F401500BC083E0D816A2
:1046400011F4C39406C086E0D81611F40F5F01C0C0
:10465000CA9440915805015E8C2D805C602F0E94A9
:104660000E13D3948CE0D81609F0AECF80E090E022
:1046700028E2FC01E05FF94F2083FC01E75FF94F7E
:104680002083FC01EA5EF94F208301968630910574
:1046900081F780E4809312068FE1809313061092D5
:1046A0004E0510924D0510C080910F06882361F4CD
:1046B0006091490580E196E00E94A322409158054F
:1046C00080E46FE10E940E131F910F91FF90EF9015
:1046D000DF90CF90089591E090930F060E94C8223A
:1046E000089510920F060E94C82208953F924F929B
:1046F0005F926F927F928F929F92AF92BF92CF9272
:10470000DF92EF92FF920F931F93DF93CF93CDB77A
:10471000DEB760970FB6F894DEBF0FBECDBF309006
:10472000E9048091EB04813009F0F7C080914E05D7
:10473000813009F0B6C06091570570E080E090E0EC
:104740000E943B3420E537E746ED5DE30E940235E9
:104750007B018C01C8010E9465356D877E878F873C
:10476000988BB701C8010E949F3369877A878B872E
:104770009C8780914B05E09057056CE00E94AF3517
:10478000692F70E0882777FD8095982F0E943D342F
:1047900022E93AE046E05FE30E9402355B016C01EA
:1047A000FF2400E010E0C801B7010E943B3425E37C
:1047B0003AEF4EE05CE30E9402359B01AC01C6017A
:1047C000B5010E943B337B018C01C8010E94653515
:1047D0006D837E838F839887B701C8010E949F33C2
:1047E0002B013C010091490582E069E347E125E0A6
:1047F0000E9472120091580589E066E347E020E0CC
:104800000E94E513009158056D857E858F859889F6
:1048100020E030E040EE50E40E9402350E940A346D
:104820004B015C0189E0880E69857A858B859C85C2
:1048300020E030E040EE50EC0E9402350E940A3445
:104840006B017C0186E3C80E89E066E3482D2C2DC0
:104850000E944913009158056D817E818F81988552
:1048600020E030E040EA50E40E9402350E940A3421
:104870004B015C0189E0880EC301B20120E030E009
:1048800040EA50EC0E9402350E940A346B017C0120
:1048900086E3C80E89E066E3482D2C2D0E9449135B
:1048A0003CC00091490581E06EE241E121E10E94B6
:1048B000721210924D05E091560500915805F0E0F6
:1048C000EE0FFF1FE357FD4F2081318182E069E346
:1048D00040E00E947310182F1E5F80E28983809150
:1048E0006005BE016E5F7F4F0E944604009158052F
:1048F000812F69E340E09E012F5F3F4F0E947310BC
:104900008250810F883148F40091490548E1481BE5
:104910008E5F69E325E00E9472128091E704813086
:1049200079F420E0832D90E08F70907008970CF060
:1049300021E080914D052817A1F020934D0506C078
:1049400080914D05813069F410924D05C090490564
:1049500081E06EE241E121E102E094E0E92E0E9473
:10496000801060960FB6F894DEBF0FBECDBFCF911A
:10497000DF911F910F91FF90EF90DF90CF90BF904C
:10498000AF909F908F907F906F905F904F903F90EF
:1049900008957F928F929F92AF92BF92CF92DF92B3
:1049A000EF92FF920F931F93DF93CF93CDB7DEB7B4
:1049B00062970FB6F894DEBF0FBECDBF0E9476237C
:1049C0008091E604882329F48091EA04882309F47D
:1049D00038C180910F06813011F0772426C0609194
:1049E000620570E080E090E00E943B3420E537E70C
:1049F00046ED5DE30E9402359B01AC0180E196E04B
:104A0000BE016F5F7F4F0F2EF0E0EF2EF0E0FF2E24
:104A1000F0E00F2FF0E01F2FF02DF8E1CF2EAA24A9
:104A2000882483940E94C421782E60916705E090C9
:104A3000620570E080E090E00E943B3420E537E7BB
:104A400046ED5DE30E9402355B016C01FF2400E04E
:104A500010E0C801B7010E943B3429E833EC44EE72
:104A60005AE30E9402359B01AC01C601B5010E94C8
:104A70003B339B01AC0189E096E0BE01695F7F4F4B
:104A80000F2EFCE7EF2EF9EDFF2EF0E20F2FF0E4F2
:104A90001F2FF02DEBE1CE2EB8E0AB2E88248394AF
:104AA0000E94C421982E881561F090916105809133
:104AB0006605981731F48091EA04813011F010E016
:104AC00044C080916605E09067056CE00E94AF35B8
:104AD000692F70E0882777FD8095982F0E943D34DC
:104AE00022E93AE046E05FE30E9402355B016C0197
:104AF000FF2400E010E0C801B7010E943B3425E329
:104B00003AEF4EE05CE30E9402359B01AC01C60126
:104B1000B5010E943B339B01AC0186E196E0BE01EA
:104B2000635F7F4F0F2EFCE7EF2EF9EDFF2EF0E2D3
:104B30000F2FF0E41F2FF02DA4E1CA2EF5E0AF2EC9
:104B4000E3E08E2E0E94C421182F80910F06813041
:104B5000C9F4781621F08091EA04813099F46091CB
:104B6000490580E196E00E94A32280E196E0BE0123
:104B70006F5F7F4F0E94A7216091580580E196E00A
:104B80000E94A32281E0981621F08091EA048130EE
:104B9000E1F46091490589E096E00E94A32289E052
:104BA00096E0BE01695F7F4F0E94A7216091580582
:104BB00089E096E00E94A32280910F06813071F473
:104BC0006091580580E196E007C081E0781631F4E5
:104BD0006091580589E096E00E94A322113021F0EF
:104BE0008091EA04813011F56091490586E196E0F3
:104BF0000E94A32286E196E0BE01635F7F4F0E9480
:104C0000A7216091580586E196E00E94A322809139
:104C10000F06813031F46091580580E196E00E94E2
:104C2000A3226091580589E096E009C081E07816DA
:104C300011F0981631F46091580586E196E00E94D3
:104C4000A32262960FB6F894DEBF0FBECDBFCF9100
:104C5000DF911F910F91FF90EF90DF90CF90BF9069
:104C6000AF909F908F907F900895FF920F931F9326
:104C7000CF93DF93809149050E94E2180091580577
:104C800081E061E040E02FE633E00E947310CBEF5B
:104C9000D3E0FF241EE083E0F81619F400914905E3
:104CA00002C0009158058EE0612F45E028810E94E6
:104CB0007E12009158058EE0612F45E020E00E94B1
:104CC000E513FF2019F40091580502C00091490531
:104CD00086E4612F45E028850E947E1200915805E8
:104CE00086E4612F45E020E00E94E513F394125F13
:104CF000229684E0F81679F60091580589E16CE077
:104D000040E02DE733E00E947310CCE8D3E016E1D9
:104D1000009158052991399189E1612F40E00E9465
:104D20007310195F1034A1F7CAEED3E018E00091B8
:104D300058052991399181E5612F40E00E94731057
:104D4000195F1034A1F7DF91CF911F910F91FF9060
:104D5000089580915505882349F48EE280935F057C
:104D600081E0809355050E943526089510925505DF
:104D700008957F928F929F92AF92BF92CF92DF92CF
:104D8000EF92FF920F931F93DF93CF93CDB7DEB7D0
:104D9000782E8A2D982C8130D1F4862F6AE00E94DB
:104DA000AF35B82E842F0E94AF35D82E822F0E94A7
:104DB000AF35F82E802F0E94AF35882E8E2D0E94A1
:104DC000AF35A82E8C2D0E94AF35C82E19C0862F66
:104DD0006AE00E94AF35B92E842F0E94AF35D92EDC
:104DE000822F0E94AF35F92E802F0E94AF35892E79
:104DF0008E2D0E94AF35A92E8C2D0E94AF35C92E65
:104E0000B81439F4DA1429F4FC1419F4992009F4CB
:104E100046C010E02DE0E22E80E0B11609F481E0FA
:104E2000D11609F48260F11609F48460E0E081167D
:104E300009F4E1E0A11609F4E260C11609F4E460A6
:104E40008E1729F481E0981621F5EE2311F1AE2F8B
:104E5000B0E0FD01EE0FFF1FE650FC4F808188237C
:104E600019F40091580502C000914905AA0FBB1F13
:104E7000A650BC4F8E2D672D45E011962C910E94B7
:104E80007E12009158058E2D672D45E020E00E948E
:104E9000E5131F5F8CE0E80E1A3009F0BDCFCF910B
:104EA000DF911F910F91FF90EF90DF90CF90BF9017
:104EB000AF909F908F907F900895CF92EF92FF9246
:104EC0000F93DF93CF9300D000D000D0CDB7DEB7E3
:104ED000C090E9048091EB04813049F580914E0542
:104EE0008130D9F480914B057E010894E11CF11CBE
:104EF000B7010E9446048AE38B8380915705BE0167
:104F00006C5F7F4F0E9446040091580581E06AE380
:104F100040E097010E9473100AC00091490580E0AB
:104F200069E343E127E00E94721210924D058091DF
:104F3000E704813079F420E08C2D90E08F70907040
:104F400008970CF021E080914D052817A1F02093DF
:104F50004D0506C080914D05813069F410924D05D4
:104F6000C090490580E069E343E127E002E034E0D6
:104F7000E32E0E94801026960FB6F894DEBF0FBE77
:104F8000CDBFCF91DF910F91FF90EF90CF9008951B
:104F9000AF92CF92EF92FF920F931F93DF93CF9335
:104FA00000D00F92CDB7DEB7809149050E94E2187C
:104FB00080E389831A821CE07E010894E11CF11CC5
:104FC00000915805812F61E040E097010E94731025
:104FD00089818F5F8983145F143891F7A0905805F9
:104FE00081E06AE140E021E002E813E0EE24E3948E
:104FF000CC24C3940E94FB0EA090580581E061E38D
:1050000040E021E007E813E00E94FB0E90E05DE045
:10501000C52E17C0112311F4963050F40091580595
:105020008C2D6E2D45E020E09B830E94E5139B8133
:105030001F5F8CE0E80E143069F79F5FC80E9A304E
:1050400021F010E04DE0E42EE5CF10924E051092D5
:105050004D0510925F05109255050F900F900F901F
:10506000CF91DF911F910F91FF90EF90CF90AF9074
:1050700008958F92AF92CF92EF92FF920F93DF93AA
:10508000CF9300D00F92CDB7DEB780915F0581300E
:1050900021F48091E604813041F080915F058823FE
:1050A00041F080915505882321F481E00E94F203AC
:1050B00020C0809155058130E1F48091E604813073
:1050C00009F06CC080915F05815080935F058091ED
:1050D0005F057E010894E11CF11CB7010E944604A3
:1050E0000091580588E761E040E097010E94731045
:1050F00055C00E945D278091E604882329F48091A1
:10510000EA04882309F44AC06091630540915C0574
:105110002091610500916205E0906705C0906605E9
:105120008090EA048DE0AA24A3940E94B92660919D
:10513000630540915C052091610500916205E09056
:105140006705C09066058090EA0489E1AA240E9460
:10515000B9266091540540914C0520914A05009173
:105160006005E0905605C0904F058090EA0485E206
:10517000AA24A3940E94B9266091540540914C053D
:1051800020914A0500916005E0905605C0904F05BA
:105190008090EA0481E3AA240E94B9260F900F9020
:1051A0000F90CF91DF910F91FF90EF90CF90AF9044
:1051B0008F9008955F926F927F928F929F92AF929D
:1051C000BF92CF92DF92EF92FF920F931F93582ED0
:1051D000E42EA22E70E080E090E00E943B349B0120
:1051E000AC0160E070E080E891E40E94A2333B01F2
:1051F0004C01FF240027F7FC0095102FC801B701D0
:105200000E943D349B01AC01C401B3010E940235F0
:1052100020E030E040E05FE30E943B330E940F3427
:10522000162FBB24CC24B7FCC094DC2CC601B501DE
:105230000E943D349B01AC01C401B3010E940235C0
:1052400020E030E040E05FE30E943B330E940F34F7
:10525000A62E161721F48091EA04813049F51659DB
:1052600098E0E92EE50C00914905812F6E2D42E072
:1052700021E00E9472128AE0F82EF50C0091490597
:10528000812F6F2D42E021E00E9472121A2D1659D3
:1052900000915805812F6E2D42E021E00E9472128C
:1052A00000915805812F6F2D42E021E00E9472127B
:1052B0001F910F91FF90EF90DF90CF90BF90AF9034
:1052C0009F908F907F906F905F9008950F931F93A2
:1052D000CF93DF9390916005809154059817C9F49E
:1052E0009091560580914C05981799F48091EA04A5
:1052F000813009F054C00DC0909160058A819817E3
:1053000029F4909156058B81981749F02F5F2896C4
:1053100003C020E0C8E9D4E08881813069F780913A
:105320001C068217E1F120931C068981882311F461
:1053300012E018C06C817D8180E00E94A80D082FCA
:105340006E817F816115710521F080E00E94A80DBA
:10535000080F81E890E0801B910962E070E00E94F4
:10536000DC35162F0091490580E060E040E827E039
:105370000E947212009158052C813D81812F61E0BD
:1053800040E00E9473102E813F812115310539F0D4
:1053900000915805810F61E040E00E947310DF9199
:1053A000CF911F910F9108950E94662990916205F7
:1053B00080916305981721F48091EA04813041F4CB
:1053C000409163052091620580E36BE30E94DA2837
:1053D0009091670580915C05981721F48091EA040B
:1053E000813041F440915C052091670581E26BE3D7
:1053F0000E94DA289091660580916105981721F442
:105400008091EA04813041F4409161052091660564
:1054100082E167E10E94DA280895FF920F931F93BB
:10542000CF93DF93EC01623001F50091490580E0F4
:1054300060E144E62FE20E9472120091580582E07A
:1054400069E040E09E010E947310282F90E0C09711
:105450000CF075C00091490540E3421B822F8E5F1E
:1054600069E025E00E9472126AC0809149050E949D
:10547000E2180091580580E067E040E821E00E94D2
:1054800072120091580580E06FE040E821E00E9430
:1054900072120091580585E667E041E029E30E9419
:1054A00072128FEF80931C060E94662900915805A6
:1054B00082E069E040E09E010E947310009158056F
:1054C00086E569E040E02AE034E00E947310009134
:1054D000580588E669E040E02EE034E00E94731051
:1054E0002BE131E0FF2412E109C081E0F81619F048
:1054F00024E231E002C020E231E0115F0091580562
:1055000089E6612F40E00E94731000915805612FD9
:105510006A5F88E646E127E00E942712009158055D
:10552000612F675F8AE642E121E00E947212F394E4
:1055300083E0F816D1F610924E0510924D05DF91DA
:10554000CF911F910F91FF9008952F923F924F920C
:105550005F926F927F928F929F92AF92BF92CF9203
:10556000DF92EF92FF920F931F93DF93CF9300D0C0
:1055700000D00F92CDB7DEB7982E6C83442E202E2C
:10558000CD823A2C30E0442737FD4095542FCA0194
:10559000B9010E943D345B016C01552466247724D7
:1055A000C301B2010E943B349B01AC01C601B501AD
:1055B0000E94A2335B016C01FF240027F7FC0095D9
:1055C000102FC801B7010E943D349B01AC01C601F8
:1055D000B5010E94023520E030E040E05FE30E9428
:1055E0003B330E940F34462E8D81682F70E0882750
:1055F00077FD8095982F0E943D349B01AC01C60138
:10560000B5010E94023520E030E040E05FE30E94F7
:105610003B330E940F34A62E461621F48091EA04F3
:10562000813041F51C811A192A2D2F5F8A8D853012
:10563000C1F400915805892D612F422D0E94271237
:1056400081E08A15B8F4C09058051F5F422D425082
:105650002A2D2150892D8F5F612F00E035E0E32E48
:1056600007C0C0905805892D612F422D01E0EA8CBA
:105670000E9480108D817E010894E11CF11CB7010D
:105680000E9446041C811A19D12ED80C009158058D
:10569000832D890D6D2D41E097010E9473100091BB
:1056A00049051150892D612F422D21E00E9472126F
:1056B000182D109500914905892D6D2D432D212F11
:1056C0000E94721200914905892D8F5F820D831906
:1056D0006D2D3A94432D212F0E947212A41460F470
:1056E000009149058C81880E84184A18892D682DEF
:1056F000422D242D0E9472120F900F900F900F9048
:105700000F90CF91DF911F910F91FF90EF90DF905D
:10571000CF90BF90AF909F908F907F906F905F9051
:105720004F903F902F900895CF92EF920F931F9339
:10573000DF93CF93CDB7DEB727970FB6F894DEBFD0
:105740000FBECDBFE090E9048091EB04813009F0F9
:105750005FC080E2898380914E058130D9F48091C9
:105760004B05BE016E5F7F4F0E9446048AE38C8327
:1057700080915705BE016B5F7F4F0E9446040091E8
:10578000580582E369E040E09E012F5F3F4F0E9491
:10579000731033C080914D05813051F4009149055B
:1057A00083E368E043E127E00E94271210924D0551
:1057B000E091560500915805F0E0EE0FFF1FE3570A
:1057C000FD4F2081318182E369E040E00E94731047
:1057D000182F1E5C80916005BE016E5F7F4F0E9496
:1057E000460400915805812F69E040E09E012F5F3B
:1057F0003F4F0E9473108253810F883148F400910B
:10580000490548E1481B8E5C69E025E00E94721260
:105810008091E704813079F420E08E2D90E08F7044
:10582000907008970CF021E080914D052817A1F0A9
:1058300020934D0506C080914D05813069F410928A
:105840004D05C090490583E368E043E127E002E0AD
:1058500054E0E52E0E94801027960FB6F894DEBF24
:105860000FBECDBFCF91DF911F910F91EF90CF90E1
:105870000895FF920F931F938A30F1F40091580519
:1058800088E067E141E022E20E947212009158052F
:1058900089E068E343E521E00E94721208E140914B
:1058A000580587E0602F0E940E130B5F0B33B9F78A
:1058B0008BE4FDE0FF2E0AC08D3029F08EE4EAE093
:1058C000FE2E16E304C08EE47AE0F72E1AE3009170
:1058D0005805612F40E024E231E00E9473100091EE
:1058E00058058CE2612F40E020E231E00E94731005
:1058F000009158058F2D612F40E02BE131E00E948F
:1059000073101F910F91FF9008952F923F924F9225
:105910005F926F927F928F929F92AF92BF92CF923F
:10592000DF92EF92FF920F931F93DF93CF9300D0FC
:1059300000D0CDB7DEB7482E242EC22E102F70E037
:10594000882777FD8095982F0E943D3428E339EA17
:105950004BEF5EE30E94023520E030E040E05FE381
:105960000E943B330E940F34562E622D70E0882730
:1059700077FD8095982F0E943D3428E339EA4BEF5C
:105980005EE30E94023520E030E040E05FE30E94E9
:105990003B330E940F34662EDD24EE24D7FCE094C6
:1059A000FE2CC701B6010E943D3428E339EA4BEFD3
:1059B0005EE30E94023520E030E040E05FE30E94B9
:1059C0003B330E940F34762E602F70E0882777FDDE
:1059D0008095982F0E943D3428E339EA4BEF5EE32F
:1059E0000E94023520E030E040E05FE30E943B335C
:1059F0000E940F34962E571430F4872C8518A6E396
:105A0000AA2EA71805C0852C8718F6E3AF2EA51877
:105A1000882011F488248394691430F4392C3618C2
:105A2000E6E3BE2EB91805C0362C391876E3B72E3A
:105A3000B618332011F433243394561431F4791406
:105A400021F48091EA04813081F4121518F092E07B
:105A500001E002C093E000E0C0905805842D6B2D5A
:105A60004DE0232DE92E0E948010012F021907FD21
:105A700002C050E003C08DE2898351E0112707FD89
:105A8000109517FF03C0109501951F4F402F0A3046
:105A900054F0FE01E50FF11D802F6AE00E94BB3536
:105AA000805D81835F5F9E012F5F3F4FF901E50FAE
:105AB000F11D842F6AE00E94BB35905D90835F5F8B
:105AC000E52EFF24F901EE0DFF1D1082EE0CFF1CE8
:105AD000EE0CFF1CEA948DE090E08E19910962E0D3
