:100000000C941E030C943B030C943B030C94FB05D3
:100010000C943B030C943B030C943B030C943B0368
:100020000C943B030C94A41A0C943B030C94B51849
:100030000C943B030C94C7180C94CC170C943B0302
:100040000C943B030C943B030C943B030C943B0338
:100050000C943B030C945D050C943B030C943B0304
:100060000C9415150C943B0305A84CCDB2D44EB995
:100070003836A9020C50B9918688083CA6AAAA2A4B
:10008000BE000000803F49922449249200010205ED
:100090000A0F121617191B1E212326272A2D30336B
:1000A00036393C3F424548494B4D505255595C5FAB
:1000B000626567696C6F707275777C8083868A8DE4
:1000C000909396999EA1A4A7A9ACAEB1B4B6B9BAC3
:1000D000BDC12037630003AA1F0A1F0AA2151F15FE
:1000E000087904138A151208234E11510E6A040A66
:1000F000640E045008640404307804037F111F72F6
:100100001F107D151775151F67041F77151D7F15A7
:100110001D611D037F151F77151F2A500A440A6AA7
:100120000A0A4A046115028815190E7E051E7F15FC
:100130000A6E11117F110E5F155F056E111D7F0490
:100140001F3F500F7F041B5F10BF0204021F9F025E
:10015000041F6E110E7F050282151D127F051A7293
:100160001509611F017F101F6F100FAF100C100FCA
:100170007B041B631C037915135F11630418511F63
:100180006201027010104102641F113F711F04844C
:10019000150E04840E150400000000000000005F2E
:1001A00000000007000700147F147F14242A7F2A10
:1001B00012231308646236495522500005030000DB
:1001C000001C2241000041221C00082A1C2A0808A9
:1001D000083E0808005030000008080808080060C1
:1001E00060000020100804023E5149453E00427F55
:1001F000400042615149462141454B311814127F5C
:100200001027454545393C4A4949300171090503E4
:100210003649494936064949291E0036360000004C
:1002200056360000000814224114141414144122FC
:100230001408000201510906324979413E7E11112C
:10024000117E7F494949363E414141227F41412249
:100250001C7F494949417F090901013E4141513211
:100260007F0808087F00417F41002040413F017F17
:10027000081422417F404040407F0204027F7F04F7
:1002800008107F3E4141413E7F090909063E415128
:10029000215E7F09192946464949493101017F01FB
:1002A000013F4040403F1F2040201F7F2018207FFB
:1002B000631408146303047804036151494543003F
:1002C000007F4141020408102041417F00000402E8
:1002D0000102044040404040000102040020545408
:1002E00054787F484444383844444420384444488F
:1002F0007F3854545418087E090102081454543CA1
:100300007F0804047800447D40002040443D000004
:100310007F10284400417F40007C041804787C084A
:1003200004047838444444387C1414140808141421
:10033000187C7C080404084854545420043F44406A
:10034000203C4040207C1C2040201C3C4030403C55
:1003500044281028440C5050503C4464544C4400F1
:100360000836410000007F00000041360800080800
:100370002A1C08081C2A08084932433A20425553CF
:100380005F4552524F520D0A004932433A204E4FB8
:100390005F494E464F0D0A004932433A2053542DCF
:1003A0003E444154415F4E41434B206F72204C41CB
:1003B00053545F444154410D0A004932433A20539B
:1003C000542D3E444154415F41434B0D0A00493294
:1003D000433A2053542D3E534C415F41434B0D0A49
:1003E000004932433A2053522D3E53525F53544FEB
:1003F000500D0A004932433A2053522D3E44415495
:10040000415F4E41434B0D0A004932433A2053525B
:100410002D3E444154415F41434B0D0A0049324354
:100420003A2053522D3E534C415F41434B0D0A003D
:100430004932433A204D522D3E534C415F41434B8C
:100440000D0A004932433A204D522D3E4441544159
:100450005F41434B0D0A004932433A204D542D3E33
:100460004152425F4C4F53540D0A004932433A20E7
:100470004D54522D3E534C415F4E41434B206F72C1
:10048000204D542D3E444154415F4E41434B0D0A93
:10049000004932433A204D522D3E444154415F4E73
:1004A00041434B0D0A004932433A204D542D3E53EF
:1004B0004C415F41434B206F7220444154415F41A6
:1004C000434B0D0A004932433A204D2D3E535441CF
:1004D00052540D0A005A10010501000000080009DD
:1004E0000F0A1E0B2D000E0E1D0E1D2B0F3A0E2B8C
:1004F0000F480A520F610A520F000E0E1D0E1D6B9F
:100500000E790D6B0E86100303030303030303032D
:1005100003060303060303030306030303030303A2
:10052000030303030303030303030303030303039B
:100530000306060303030303030303030303030385
:100540000306030303030303030303030303060672
:1005500003030303060303060C030303030303035C
:100560000303030303030306030303030303030358
:100570000C0C030303030603030303030303030633
:100580000404040404040303030303030603030332
:100590000304040403030303030C0C0C0C929200E9
:1005A0009200749200AE00005700007400005700E3
:1005B00049000062006E006862005792AEC4009B62
:1005C000AE00920074826E0000AEA49B8A0092007E
:1005D0005C62740062748200AEA49B8A009200E8A0
:1005E00000E8E80000008A00008200740000007447
:1005F0007400740074820092740062570000747476
:10060000007400748292000092740057005C0062D3
:100610009B009B6200006EC4C4C4AE9B92740062D7
:100620005700006E9B009B9B9282744900493A00E0
:1006300000000005020301010302050011241FBE92
:10064000CFEFD8E0DEBFCDBF14E0A0E0B1E0ECED2D
:10065000FFE502C005900D92A03BB107D9F725E058
:10066000A0EBB4E001C01D92A33EB207E1F70E94E7
:10067000DB2B0C94EC2F0C9400008091BF04809332
:10068000C2048091BE048093C1048091BD04809314
:10069000C0048091B9048093BC048091B804809315
:1006A000BB048091B7048093BA0408959091B0047C
:1006B000E0910001F091010128E0929FE00DF11D11
:1006C00011240680F781E02D309719F0099581E01B
:1006D000089580E008950F931F93CF939091B004F5
:1006E000009100011091010128E0929F000D111D61
:1006F00011249091A8059093B3049091A90590932B
:10070000B6049091B604913069F59091DD0590930F
:10071000BF049091DE059093BE049091DF05909305
:10072000BD049091E0059093B9049091E1059093F8
:10073000B8049091E2059093B7042091B904909188
:10074000BC0429130CC02091B8049091BB04291358
:1007500006C02091B7049091BA04291719F091E0CE
:100760009093B504D8019C91992309F441C0C82FF6
:10077000833051F51092B4048091A205813059F470
:100780009091CF05913089F08093CF058093B40488
:100790001092C3040AC08091CF05823031F082E00C
:1007A0008093CF0581E08093B404D8011496ED9135
:1007B000FC91159709958091B604813011F40E943F
:1007C0003D031092B10414C0813031F41092CF0572
:1007D0008091CC050E9487170E943D0381E08093A1
:1007E000B104D8011296ED91FC9113978C2F0995C5
:1007F0008091B604813031F41092B6041092B504A1
:100800001092A905CF911F910F9108958091B00486
:100810008F5F8093B0048091B004893010F0109203
:10082000B0048091B004E0910001F091010198E0E2
:10083000899FE00DF11D112481810895FB016AE07B
:100840000E94532F805D8083905D91831282089572
:10085000EF92FF920F931F93CF93DF9300D000D0BE
:10086000CDB7DEB7F82EE62E0091D405E091B8049E
:10087000F0E0EE0FFF1FEA5AFE4F2081318140E089
:100880008F2D0E942512182F80E289838091B90450
:10089000BE016E5F7F4F0E941E040091D4059E0131
:1008A0002F5F3F4F40E06E2D8F2D810F0E9425124C
:1008B000810F873148F40091CC0547E1481B25E0C2
:1008C0006E2D8F0D0E94C30F0F900F900F900F9001
:1008D000DF91CF911F910F91FF90EF900895CF92EC
:1008E000EF92FF920F931F93CF93DF9300D000D02E
:1008F00000D0CDB7DEB7F82E162FE42E82E04813D5
:100900000EC08091B504813029F08091B10481300E
:1009100009F06EC0612F8F2D0E94280469C080915C
:10092000B404813029F08091B504813009F042C0CF
:100930008091CF05813059F58091B4048130D1F593
:100940008091CD05BE016F5F7F4F0E941E048AE338
:100950008B838091D305BE016C5F7F4F0E941E0484
:100960000091D4059E012F5F3F4F40E0612F8F2DF6
:100970000E94251291E0E9121DC00091CC0547E1CB
:10098000481B25E0612F8F0D0E94C30F13C00091FB
:10099000CC0527E043E16FEF610F8FEF8F0D0E94D1
:1009A000C30F1092C30481E0E81204C0612F8F2DA1
:1009B0000E9428048091B304813031F48091B20404
:1009C00083FB882780F901C080E09091C3048917D8
:1009D00079F08093C304C090CC056FEF610F84E081
:1009E000E82E02E027E043E18FEF8F0D0E94BC0D5F
:1009F00026960FB6F894DEBF0FBECDBFDF91CF9124
:100A00001F910F91FF90EF90CF9008950F93009159
:100A1000D4052AE332E041E06EE081E20E94251233
:100A20000091D40525E432E041E06EE182E10E94CC
:100A300025122FEF8DE399E4215080409040E1F79B
:100A400000C0000064E686EA9EE00E94631964E646
:100A500080EA9FE00F910C94631980917A00877F60
:100A600080937A0080917A00806480937A008091EC
:100A70007A0084FFFCCF80917800909179000895EE
:100A8000EAE7F0E0808188648083089526982E9AB2
:100A900081E080936800EBE6F0E0808180648083F1
:100AA00082E080937C0010927B00EAE7F0E08FE820
:100AB000808380818064808308951F920F920FB697
:100AC0000F9211242F933F934F935F936F937F93D4
:100AD0008F939F93AF93BF93EF93FF9378948091FD
:100AE000780090917900803E22E0920770F0109299
:100AF000C8041092CA048091C504813021F4809307
:100B0000C4041092C50484E163C0833622E09207D6
:100B100070F18091CA0482FD5AC08FE19EE4019772
:100B2000F1F700C000000E942D05825692408E37DA
:100B3000910508F04CC08AEF8093C6048091C604EA
:100B4000882369F00E942D05825692408E379105C8
:100B5000A8F31092CA0484E08093C90438C01092AC
:100B6000C90484E08093CA048093C80430C08F30E5
:100B70009140B0F08091CA0481FD10C08FE19EE4E5
:100B80000197F1F700C000000E942D058E509140A2
:100B900085359140E0F482E08093C90482E013C07F
:100BA0008091CA0480FD0EC08FE19EE40197F1F7A9
:100BB00000C000000E942D058F30914040F481E07C
:100BC0008093C90481E08093CA041092C80482E033
:100BD0008093C704FF91EF91BF91AF919F918F9147
:100BE0007F916F915F914F913F912F910F900FBE29
:100BF0000F901F9018951F920F920FB60F9211240D
:100C000078940F900FBE0F901F9018959091C40488
:100C1000913021F41092CE041092C4049091C80433
:100C2000992369F091E09093C5049091CE049A3095
:100C300020F49F5F9093CE0404C08E5F03C0109297
:100C4000CE048F5F0E94532F892F08950F931F9317
:100C5000CF93DF938C01EB0166E080E00E943B17AD
:100C6000C8010E943F14209759F067E080E00E947D
:100C70003B17CE01DF91CF911F910F910C943F1440
:100C8000DF91CF911F910F9108950F931F93CF93F1
:100C9000DF938C01EB0166E080E00E943B1788EA5D
:100CA00092E00E943F14C8010E943F1467E080E078
:100CB0000E943B178BEB92E00E943F14CE010E94F2
:100CC0003F148B81811108C089E393E0DF91CF91BC
:100CD0001F910F910C943F14DF91CF911F910F91B1
:100CE00008950F931F93CF93DF93D82FC62F042F10
:100CF000122F63E088E00E943B178DEC92E00E9487
:100D00003F144D2F602F8C2F0E94A819E82FF0E080
:100D1000EE0FFF1FE65BFE4F808191810E943F1422
:100D20001C3019F46091CC0502C06091D405EC2F01
:100D3000F0E0EE0FFF1FEA5AFE4F808191810E9482
:100D40002F1480E20E944314802F1D3019F40E945A
:100D5000271402C00E942B148CE20E94431484E1E9
:100D60001E3049F40E9427148D2FDF91CF911F91DF
:100D70000F910C9427140E942B148D2FDF91CF918B
:100D80001F910F910C942B140F93CF93C82F0091A8
:100D9000D40521E047E0682F80E00E94C30F009156
:100DA000D4056FEF6C0F23E041E085E00E949F13B4
:100DB0000091D4056EEF6C0F25E041E084E00E94C5
:100DC0009F13CF910F9108958091C804882349F013
:100DD0002FE789EA93E0215080409040E1F700C07E
:100DE000000008959091C9049093CD041092C90415
:100DF000892F817090FD16C091FF03C01092CE0420
:100E000006C0911104C09091C804992321F09AE082
:100E10009093CB0408959091CB0481E0992319F02D
:100E200080E0089581E00895CF93C82F64E088E0C2
:100E30000E943B1783ED92E00E943F148091CC0505
:100E4000811108C089E393E00E943F146C2F81EE6A
:100E500092E003C06C2F88EE92E0CF910C942F1497
:100E6000CF93DF9362E080E50E943B17C2E7D1E0B9
:100E70008A810E942B148AE30E94431489810E9474
:100E80002B148AE30E9443148881DF91CF910C9444
:100E90002B14AF92BF92CF92EF920F93CF93DF9329
:100EA000EC015B0181E08093CC0460E080E00E9473
:100EB0003B1780EF92E00E943F14C090CC05E12CDC
:100EC00000E028E042E060E08EE70E94BC0D61E0B7
:100ED00088E00E943B1786E093E00E943F1462E0A6
:100EE00088E00E943B178BE193E00E943F140E9430
:100EF0003007E2E7F1E043816481858127E00E94C9
:100F000071068091D4050E94140765E088E00E9474
:100F10003B1788E293E00E943F148091B4000E9446
:100F20002B14B501CE010E942606C090CC0520E10D
:100F300042E060E38EE70E94BC0DC090CC0528E241
:100F400048E068E080E00E94BC0D1092CC04DF9184
:100F5000CF910F91EF90CF90BF90AF900895AF9247
:100F6000BF92CF92DF92EF92FF920F931F93CF9396
:100F7000DF9300D000D0CDB7DEB781E08093CC0402
:100F80008091CC050E9487171092CC046BE373E02C
:100F900081E593E00E9449078AE08093CB04109298
:100FA000C9041092CE048091A105853009F4A3C133
:100FB000D8F4882399F1843009F0A4C387E08093A2
:100FC000A1051091750100917601E090770181E013
:100FD0008093CC048BE10E94C4061092CC0447E0BD
:100FE000F42EDD24D3942DC2873009F4CFC28F3084
:100FF00009F088C388E08093A10581E08093CC0448
:1010000060E070E08AE993E00E9426068BE20E948D
:10101000C4061092CC0418E001E02BC385E0809355
:10102000A10581E08093CC048BE00E94C40610925D
:10103000CC040E94F206813009F460C38091CD0493
:1010400081FFF7CF81E08093CC045AE0D52E62E196
:10105000B62E72E0A72ED092CB041092CE048091CF
:10106000A1058131E9F048F4853081F0803121F526
:1010700081E18093A10581E01CC08231B1F0833110
:10108000D9F484E18093A10584E013C080E18093CA
:10109000A1058091CC050E9487171092CF0410C043
:1010A000B092A105A092CF040BC083E18093A1056B
:1010B00083E08093CF0404C085E08093A1051EC324
:1010C000F090A70560E080E00E943B1787E693E080
:1010D0000E943F1411E0612F88E00E943B1788E7CF
:1010E00093E00E943F14812F0E942B148FE793E01E
:1010F0000E943F14AE014F5F5F4FBE016E5F7F4F96
:101100008FEF810F0E9417198A810E942B148AE3A6
:101110000E94431489810E942B141F5F1530D9F659
:1011200065E088E00E943B1787E893E00E943F1447
:101130008091A7058F5F0E942B148091A1056BE31E
:1011400073E0843119F081E593E002C08AE993E00D
:101150000E942606C090CC05E12C00E028E247E082
:1011600068E080E00E94BC0D8091CF04880F880F5A
:10117000880F855F0E94C4068091CF04843041F0BF
:10118000AE014D5F5F4FBE016C5F7F4F0E9417192C
:1011900015E00E94F206813009F4A8C08091CD04C8
:1011A00081FF53C01530D9F48091CF04843079F495
:1011B00065E084E70E943B1781E08F0D0E942714B1
:1011C00060EB73E0CB010E94450614E13EC064EB86
:1011D00073E089EB93E00E94450615E636C01536AC
:1011E00039F46DEB73E0CB010E94450616E62DC085
:1011F000143181F465E084E70E943B1781E08F0D94
:101200000E942B146F2D87E090E00E94DE2FF09259
:10121000A70506C04B816C818091CF040E943C19C8
:101220008091A1056BE373E0843119F081E593E0CF
:1012300002C08AE993E00E94260643ED55E06DEC7A
:1012400075E08F2D0E94171915E08091CD0482FD65
:1012500004C08091C804882309F1143171F4F39417
:1012600083E08F1508F4F12C65E084E70E943B17BA
:1012700081E08F0D0E94271411C0153641F48C8136
:101280008F5F8C838C81883148F01C8207C01636B2
:1012900029F48B816CE30E9406068B838091CD0438
:1012A000811104C08091C8048823E9F06091CF04C3
:1012B0006430C9F00B81EC806F5F82E60E943B17BF
:1012C0008E2D153619F40E94271402C00E942B148B
:1012D0008AE30E944314802F163619F40E942714C3
:1012E00002C00E942B140E94E40653CF8091CB04CD
:1012F0008111B1CE14C084E08093A10500917401E6
:10130000F0907301E090720181E08093CC0483E15E
:101310000E94C40614E00E94F206813019F4109273
:10132000CC04ECC18091CD0481FF2BC0143041F47A
:1013300064EB73E089EB93E00E94450615E621C05B
:10134000153639F46DEB73E0CB010E94450616E6C5
:1013500018C0163639F461EC73E0CB010E944506E3
:1013600017E60FC06BE373E081E593E00E94260669
:1013700000937401F0927301E09272010E94671B66
:1013800014E0D090CD04D2FC04C08091C80488231E
:10139000C1F0153631F40F5F083108F4C4C100E024
:1013A000C2C1163631F46CE38F2D0E940606F82E6A
:1013B00018C01736B1F46CE38E2D0E940606E82E95
:1013C00010C0D11004C08091C804882349F162E0A4
:1013D00080E50E943B17153651F4802F0E94271498
:1013E00009C0DD2081F362E080E50E943B17802F79
:1013F0000E942B148AE30E9443148F2D163619F491
:101400000E94271402C00E942B148AE30E944314F6
:101410008E2D173619F40E94271402C00E942B1437
:101420000E94E40678CF8091CD0481FD0FC08091A9
:10143000CD0482FD48C08091C804811144C00E943F
:10144000E4060E94F206813071F758C1D092CC04B4
:1014500087E0F81208C065EC73E0CB010E944506F6
:101460003CE0F32E27C08CE0F81208C069EC73E072
:10147000CB010E9445062DE0F22E1CC08DE0F81233
:1014800009C06DEC73E082ED93E00E9445069EE09A
:10149000F92E10C06BE373E081E593E00E9426060D
:1014A000E092770100937601109375010E94671B0B
:1014B00087E0F82E2F2D412F602F8E2D0E94710670
:1014C0001092CC04B4CF8EE0F81211C064E68E2DD9
:1014D0000E940606E82E90E00E94EA1981114BC096
:1014E000023009F048C01D3108F445C03FC08CE00F
:1014F000F8121EC081E0800F8D30B0F5823069F4A3
:101500001E3108F01DE18E2D90E00E94EA1902E0E4
:10151000811131C01D3151F12EC0843029F0863047
:1015200019F00D7F083021F51F3110F11EE120C0A8
:101530008DE0F81220C01F5F1032E0F4023059F441
:101540001E31C0F48E2D90E00E94EA19811113C063
:101550001D3181F010C0802F8D7F843011F08930D3
:1015600051F41F3139F007C001E005C01CE103C090
:10157000082F01C011E0D092CC042F2D412F602FF5
:101580008E2D0E9471061092CC0459CF8FE080936B
:10159000A10581E08093CC0483E20E94C4061092EE
:1015A000CC041FE001E00E94F206813029F4609132
:1015B000CC0586E090E065C08091CD0481FF1DC020
:1015C0000093CC041F3061F48091CC050E94140775
:1015D00066ED73E08CEE93E00E9426061AE60BC0DF
:1015E0008091D4050E9414076BE373E081E593E0DA
:1015F0000E9426061FE01092CC048091CD0482FD4B
:1016000004C08091C8048823D9F01A36C9F48091A7
:10161000CC059091D4059093CC058093D40566EDCC
:1016200073E08CEE93E00E9449070093CC0483E2C0
:101630000E94C4068091CC050E9414071092CC042D
:101640000E94E406B0CF8091CD0481FD1DC0809141
:10165000CD0482FD33C08091C80481112FC08091D8
:10166000CD04811139C08091C804811135C00E9418
:10167000E4060E94F206813031F76091B40081E007
:1016800090E00E94DE2F3AC00093CC0465E084E72E
:101690000E943B17183041F466ED73E08CEE93E046
:1016A0000E94260619E607C06BE373E08AE993E01F
:1016B0000E94260618E01092CC04C9CF193679F69C
:1016C0008091B4008F5F8093B4008091B400813129
:1016D00030F21092B400C3CF0093CC0465E084E7ED
:1016E0000E943B178091B400193619F40E94271408
:1016F00002C00E942B141092CC04B9CF8091CB046D
:10170000811144CC1092A1050F900F900F900F9073
:10171000DF91CF911F910F91FF90EF90DF90CF90CD
:10172000BF90AF900895DD2009F44DCE62E080E5D2
:101730000E943B1752CEE82FF0E0EB52FB4F677050
:1017400081E090E001C0880F6A95EAF79081892BCB
:10175000808308952091D3049091D204291789F0B1
:101760009091D404E091D004F091D104911105C07E
:10177000EE52FF4FE491EF7105C0E856FE4FE49141
:1017800001C0E0E0811101C0E0958E2F0895909195
:10179000D404E82FF0E091111DC09FE9980F9A3111
:1017A00020F08B3720F480E003C080E201C08AE1A2
:1017B000B097E81BF109E457FF4FE4918E2F90E0BA
:1017C000FC01EE52FF4FE491E295E695E770E0935D
:1017D000D204089525E02093D204B0972E9FC00133
:1017E0002F9F900D11240895EF92FF920F931F9356
:1017F000CF93DF93C82F042F0E943B1785EDE82E6F
:1018000084E0F82E10E0D0E0C55DD4401017A1F0C0
:10181000112339F0CE018E0D9F1D8F739927892BCF
:1018200011F40E9407170E940717F70181937F01A7
:101830000E9443171F5FEACFDF91CF911F910F9155
:10184000FF90EF9008952F923F924F925F926F9288
:101850007F928F929F92AF92BF92CF92DF92EF9240
:10186000FF920F931F93CF93DF9300D01F92CDB7BA
:10187000DEB78B83162FB42EA22E842F880F93E011
:10188000981B9983862F90E050E09C01240F351F10
:1018900063E0359527956A95E1F7722E9924939424
:1018A00022E0A212912C20E0E22FF0E0EB5EFA4F52
:1018B00010822F5FB216C0F7841B950B23E095951D
:1018C00087952A95E1F78A8330E4832E682C3B8143
:1018D000631A532E550C432E4A943A81731608F41A
:1018E000FFC0EB2C3980C12CDD24DA94212CF12CA3
:1018F000EF140CF477C0AA2051F083E0A81203C0C3
:10190000222029F054C08F2D8170891150C0612F81
:101910006E0D862F8695869586959A81981306C0BA
:1019200080E48F0D0E949B0B81E001C080E0612F5D
:101930006E19962F9695969596952A81291305C02E
:1019400080E48F0D0E949B0B02C0813041F48B819B
:101950008F0D8D1508F4D82EC81608F4C82E612FE7
:101960006F0D862F8695869586953A81381306C029
:1019700080E48E0D0E949B0B81E001C080E0612F0E
:101980006F19962F9695969596952A81291305C0DD
:1019900080E48E0D0E949B0B02C0813041F48B814C
:1019A0008E0D8D1508F4D82EC81608F4C82E37FEF3
:1019B00008C096E0930D8F2D880F880F392E380EB2
:1019C00009C08F2D8E19880F880F9AE0930D382E3D
:1019D000390EEA9432E0231611F0239401C0212C31
:1019E000F39486CF8FEFD81204C09A819F5F9A83B9
:1019F00074CF41E04C0D4D196A818D2D0E94F40B7E
:101A00006A818D2D0E943B17262C2D0C312CEC2C3D
:101A1000F12CED18F108832D820DA32DB0E0EA160C
:101A2000FB06A4F0AB52BB4F90E0FC01EB52FB4F26
:101A3000013021F49C918081892B04C080818095A4
:101A40009C9189230E9457173394E5CF2B812C1941
:101A5000C22EFB80F20EE52CED183B813E1102C038
:101A6000442D01C04E2D4F1558F081E08F19480FBD
:101A70006A818F2D0E94F40B6A818F2D0E943B1783
:101A8000282C2C18312C8E2D90E09C012F19310917
:101A90007901222D2319832D90E0E816F9060CF424
:101AA000A4CFC22ED12C2034A9F0FC01EB52FB4F65
:101AB000013039F49081F601EB52FB4F8081892B84
:101AC00007C0D601AB52BB4F8C9180959081892382
:101AD0000E945717F601EB52FB4F10823394D9CF77
:101AE0000F900F900F90DF91CF911F910F91FF906A
:101AF000EF90DF90CF90BF90AF909F908F907F90AE
:101B00006F905F904F903F902F900895FF920F93AA
:101B10001F93CF93DF93082FF42E862F8770C1E099
:101B2000D0E001C0CC0F8A95EAF7162F16951695CE
:101B30001695612F802F0E943B170E9407170E9465
:101B4000071791E0F91202C0C82B02C0C095C82344
:101B5000C81761F0612F802F0E943B178C2FDF91F7
:101B6000CF911F910F91FF900C945717DF91CF9158
:101B70001F910F91FF9008952F923F924F925F9285
:101B80006F927F928F929F92AF92BF92CF92DF928D
:101B9000EF92FF920F931F93CF93DF93CDB7DEB7F2
:101BA00028970FB6F894DEBF0FBECDBF782E642EF7
:101BB000B22E1E2D562E569456945694462F47708C
:101BC000D42E011117C0123039F4842F63E00E9423
:101BD000532F91959F834DC0133031F4842F6E2D78
:101BE0000E94532F9F8323C1113009F01FC16170E0
:101BF0006F831DC1013031F5123069F4842F90E0FC
:101C0000820F911D91958195910963E070E00E948A
:101C1000812F8F5F0BC0133061F4842F90E0820F0F
:101C2000911D019763E070E00E94812F8F8300E097
:101C300020C0113009F0FAC081E0820F840F81705A
:101C40008F83F5C0023009F0F1C0082F123029F45B
:101C5000862F90E0841B910907C0133009F0E9C07A
:101C6000842F90E0861B910963E070E00E94812F31
:101C70008F835F8157FF02C05D5F5F83F12C188601
:101C8000E12CA12C8B2D90E09B838A839EEF910FFA
:101C90009C83E02F002E000CFF0BFE83ED83AB1422
:101CA00008F0D0C08A2C912CD11008C08A819B8169
:101CB00088199909089714F0143041F4462D652DC0
:101CC000872D0E94F40BF1E0F98301C01982652D84
:101CD000872D0E943B172D2D30E04A815B814819EA
:101CE000590988E090E0821B930B481759071CF4B0
:101CF0002B2C2A1803C098E0292E2D184C81423035
:101D000068F48D819E815F81850F911D57FD9A95A5
:101D100063E070E00E94812FF82E08C0113031F48A
:101D20008F81802780FD1BC08AEA888788E090E049
:101D300082199109EFEFF0E002C0F595E7958A95D9
:101D4000E2F7CF0101C0880F2A95EAF7482ED82E76
:101D5000D09485ED882E84E0982E312C1DC0F5E5B9
:101D6000F887E4CF9E2D90959887CC2009F444C045
:101D7000F8E02F1609F447C0ED2088858421E82A71
:101D80008E2D0E94571742E0F41609F43EC0F394DA
:101D900033945FEF851A950A361409F438C04981E7
:101DA000413011F4F401E080112309F444C01530EE
:101DB00009F444C0113049F4F1E0CF1611F03110AC
:101DC0003EC04885409548873AC0123049F4EF2D0F
:101DD0000F2C000CFF0BE757FF4F549158872FC073
:101DE000133009F0BFCFEF2D0F2C000CFF0BEA577B
:101DF000FF4F8491888723C0143009F4B9CFE88558
:101E0000E095E887B5CFE884BBCFF12CC1CF5394E0
:101E1000123021F48F818E5F8F8305C0133019F447
:101E20009F819F5F9F83A20CD12C39CF1F8200E03E
:101E300025CF1F8223CFEFEFE88701C01886C1109E
:101E400097CFDDCF28960FB6F894DEBF0FBECDBF7B
:101E5000DF91CF911F910F91FF90EF90DF90CF9086
:101E6000BF90AF909F908F907F906F905F904F90BA
:101E70003F902F9008958F929F92AF92BF92CF92F2
:101E8000DF92EF92FF920F931F93CF93DF93D82EA1
:101E9000B62EA22E902ED42F842F880F13E0181B5D
:101EA000F12C88248394C0E0DC170CF45FC0CD17BC
:101EB00019F117FD49C081E0881201C0FF0C2D2FD8
:101EC000220F2F5FC92CEA2C02E041E04F0D6B2D51
:101ED0006D1B8D2D8C1B0E94BC0DCC23E1F12C2F92
:101EE000220F2F5F41E06B2D6C1B8D2F8D0D0E94FB
:101EF000BC0D811017C006C0CC2321F117FD24C0F2
:101F0000811011C02D2F220F2F5FC92CEA2C02E067
:101F100041E04F0D6B2D6D1B8C2F8D0D8F190E9485
:101F2000BC0DCD13F12C2C2F220F2F5F41E04F0D54
:101F3000C92CEA2C02E06B2D6C1B8D2D8D1B0E9491
:101F4000BC0D09C017FF07C01A5F8C2F880F880FC0
:101F5000180FF39409C08C2F8D1B880F880F165F04
:101F6000180FD150F12C812CCF5F9ECFDF91CF91F4
:101F70001F910F91FF90EF90DF90CF90BF90AF90A7
:101F80009F908F900895CF92EF920F93C02EE12CE7
:101F900002E00E94BC0D0F91EF90CF9008951F9327
:101FA000CF93DF938093D404EB0110E089918823D1
:101FB00039F00E94C70B8091D2048F5F180FF6CFC3
:101FC000812FDF91CF911F9108952F923F924F92D1
:101FD0005F926F927F928F929F92AF92BF92CF92B9
:101FE000DF92EF92FF920F931F93CF93DF9300D076
:101FF00000D01F92CDB7DEB78C83D62E0B83F42E84
:10200000F81A3F2D822F861B8D831F140CF4C9C034
:10201000F194982F97FD91959D8391E0311101C026
:1020200090E0992E919418164CF091E0811101C026
:1020300090E0C92EC19404C099249394CC24C394F5
:102040006D8066945F2C56948D2C8694869486942D
:10205000022F069506950695081907FD01950F5F55
:102060008D81F81618F0FA82198204C09D819A8336
:1020700081E08983842F9C81491708F4892F9C81F2
:10208000941708F4492F841738F0E42FF0E0EB524E
:10209000FB4F10824F5FF7CF212C712C10E0822D67
:1020A00090E0801791070CF086C06D2D8C810E9406
:1020B0009B0B3C80E32C8A81781650F549814111B5
:1020C0000AC08D81580E5F1410F05F18DC0C9C81E3
:1020D000990D9C8309C06F0C4D81641620F0641A21
:1020E0008C81890D8C83DC0C8D2D8695869586954B
:1020F00088120EC09C819E1508F4E92E4C8134167E
:1021000008F4342E6D2D8C810E949B0B7394D3CFD9
:10211000682D8E2D0E943B17BE2C44244A943B14FC
:1021200020F1BE1419F08B2D8F7311F40E94071744
:102130000E9407172B2D30E09B81F901EB52FB4FDA
:10214000913019F49081982B03C090819095982339
:102150004FEF441202C098134B2CF901EB52FB4F86
:1021600090830E944317B394DACF47FC14C0682DC4
:10217000842D0E943B170FC0AE2CB12CE41430F01C
:10218000F501EB52FB4F80810E945717F501EB528E
:10219000FB4F1082E3943E1478F78C0C73942394D5
:1021A0007ECF9D8119160CF447CF9D8191959D831B
:1021B000992493943ACF0F900F900F900F900F9017
:1021C000DF91CF911F910F91FF90EF90DF90CF9013
:1021D000BF90AF909F908F907F906F905F904F9047
:1021E0003F902F9008952F923F924F925F926F925F
:1021F0007F928F929F92AF92BF92CF92DF92EF9297
:10220000FF920F931F93CF93DF93CDB7DEB72F9736
:102210000FB6F894DEBF0FBECDBF8E834B832B87E6
:102220003C87962E96949694969467706983B9012C
:10223000842F0E94CF0F809F502C11242B812223AA
:1022400011F087E001C085E08E9D402C1124B12C57
:10225000812CF12CA12C10E01D82D12C842D90E03A
:102260009A878987D41408F0D6C06D2C712CF98117
:10227000EF2FF0E0F887EF832981211106C08985CF
:102280009A85861997090897C4F4452D692D8E8182
:102290000E94F40B89859A8586199709EF81F88544
:1022A0008E0F9F1F09972CF0F8E02981F21BFF8702
:1022B00006C0342D3D193F8702C088E08F87692D05
:1022C0008E810E943B1788E090E0EF858E1B91097C
:1022D0002FEF30E002C0359527958A95E2F7098007
:1022E00001C0220F0A94EAF72C8331E0098001C073
:1022F000330F0A94EAF73D878B8589839C859A83FF
:102300006F2C7A2C212C312C1E862B82251408F060
:102310007BC09091D3048091D204891718F0EB818F
:10232000E1112AC01092D304E981FA818191FA83E4
:10233000E9830E94C70B9093D1048093D004FE855B
:10234000F01719F02B8121111AC08C2D0E94AA0BB5
:102350008D838091D3048F5F8093D3048091D004C8
:102360009091D10401969093D1048093D0043F853D
:10237000383079F01E8606C0EE85E01731F38F8580
:10238000883021F0F101EB52FB4F10819E859111B5
:102390002BC0ED818E2F90E0F1E00F2C02C09595BF
:1023A00087950A94E2F7EF120BC00F8001C0880FE7
:1023B0000A94EAF7B82E6F846F0C8C807A2C13C0C5
:1023C0002D856F2C7A2C9F85B12C992359F080FD97
:1023D000B22A7394E71003C086956394712C220F80
:1023E0009150F3CF8C801E86882D80951823882DE0
:1023F0008B21182B812F0E9457172E852F5F2E8738
:102400003FEF231A330A81CF93949F85D90E198207
:10241000F62CA72C27CF852D2F960FB6F894DEBF6C
:102420000FBECDBFDF91CF911F910F91FF90EF9025
:10243000DF90CF90BF90AF909F908F907F906F90E4
:102440005F904F903F902F900895CF92EF920F930F
:10245000C02EEE24E39401E00E94F3100F91EF9060
:10246000CF9008952F923F924F925F926F927F92FA
:102470008F929F92AF92BF92CF92DF92EF92FF9294
:102480000F931F93CF93DF93CDB7DEB763970FB64C
:10249000F894DEBF0FBECDBFD82E4A832983180122
:1024A000EB86562E5694569456946770962EB80125
:1024B000842F0E94CF0F8C9D602C11242A8122230F
:1024C00011F087E001C085E03B85839F402C1124FB
:1024D0004981423041F481508987D394D4181A86B7
:1024E00051E05E8305C087E08A8719869FEF9E834F
:1024F0001D821B8200E01B8AE62DF0E0F887EF8347
:102500003B89361508F001C1F981F23019F49110B8
:102510000EC006C02981213019F437E0931207C09C
:102520008F8198854B89841B910908975CF5442D10
:10253000652D8D2D0E94F40B5981523061F48F81ED
:102540009885EB898E1B9109890D911D0997B4F02F
:1025500018E0191918C0F981F13081F48F8198853C
:102560002B89821B910928E030E029193109820F5B
:10257000931F09971CF011E0190D05C0162D3B891A
:10258000131B01C018E0652D8D2D0E943B17412FB4
:1025900050E088E090E0841B950BEFEFF0E002C084
:1025A000F595E7958A95E2F7CF019927F981F23001
:1025B00041F4282F092C01C0220F0A94EAF72A8B34
:1025C0000CC0292D30E02F5F3F4F241B350B482FC7
:1025D00001C0440F2A95EAF74A8B81E001C0880FB9
:1025E0009A94EAF78C87710159855C83BB80912CA2
:1025F0009D81892F90E0988B8F87EA89E095E98B00
:10260000941408F076C0FD81F093D304F101808129
:102610000E94C70B2F853889820F931F9093D10496
:102620008093D0048A2D0E94AA0B41E050E00C80D8
:1026300002C0440F551F0A94E2F75E874D8771016F
:102640007C84BB801A83812C3A813323C1F1282FEB
:1026500030E0ED85FE852E233F23232B09F08728CC
:10266000F981F23011F4770C01C07694B394CB1059
:1026700022C08091D3049091D204891749F08F5FD2
:102680008093D3048091D0049091D10401960BC023
:102690001092D304F7018181882349F0FFEFEF1AEC
:1026A000FF0A0E94C70B9093D1048093D0048A2D17
:1026B0000E94AA0BB12C2A8121502A83C5CF7B848A
:1026C000790C4A898422971479F0183029F0E92D81
:1026D000F0E0EB52FB4F0081598905230829802F38
:1026E0000E9457179394EFCF8C819E81891B8C8316
:1026F00087CFEE815E0EF091D304FD832B89210FED
:102700002B8B17019A84BB82FBCE862D63960FB666
:10271000F894DEBF0FBECDBFDF91CF911F910F9117
:10272000FF90EF90DF90CF90BF90AF909F908F90F1
:102730007F906F905F904F903F902F900895AF9251
:10274000BF92CF92DF92EF92FF920F931F93CF939E
:10275000DF934423A1F1222391F1D02E122FC42F15
:10276000F62ED82F4330C0F08EEFA82EA40EBB2437
:10277000B394BD0EC02EE12C02E021E04A2D8B2D3A
:102780000E94BC0D123040F06FEF6F0D610F21E021
:102790004A2D8B2D0E94BC0DCD2CE12C02E0212F67
:1027A00041E06F2D8D2F0E94BC0DC23040F08FEFA5
:1027B0008D0F212F41E06F2D8C0F0E94BC0DDF91FA
:1027C000CF911F910F91FF90EF90DF90CF90BF902E
:1027D000AF900895FF920F931F93CF93DF93F62E40
:1027E00090E0809725E0289F8001299F100D1124FB
:1027F000C0E0D0E0F801EC0FFD1FE856FE4F8491D9
:10280000F11001C080950E9457172196C530D1055F
:1028100089F7F11002C08FEF01C080E0DF91CF9106
:102820001F910F91FF900C945717CF93DF93C62FF2
:102830006AE00E94532FD92F6C2F805D0E94EA130B
:102840006C2F80E38D0FDF91CF910C94EA13609190
:10285000CC050C9415146091D4050C9415141F9399
:10286000CF93DF93162FEC018991882321F0612FFC
:102870000E94EA13F9CFDF91CF911F9108956091E3
:10288000D4050C942F146091D4050C94EA13ECEB4E
:10289000F0E080818F70806C80830895459A449A1F
:1028A0001092580510925705109256051092550532
:1028B00080E28093B800ECEBF0E08081846080835C
:1028C00010929C05808181608083808180648083F8
:1028D0007894089580E28093B8000895ECEBF0E0DE
:1028E00080818F70806A80830895ECEBF0E08081B6
:1028F0008F70806D808308958091BC0087FFFCCF2E
:1029000008958093BB00ECEBF0E080818F708068CD
:102910008083089581110C9447148091BC008F70BE
:1029200080688093BC0008958091BB000895FF9259
:102930000F931F93CF93DF93C82F162FF42E052FDD
:102940008091BC008E7F8093BC000E946E140E9418
:102950007C148C2F8E7F0E9481140E947C148091A5
:10296000B900883169F4CF2DD02F112339F0899126
:102970000E9481140E947C141150F7CFC0E001C066
:10298000C1E00E9475148091BC0084FFFCCF80914F
:10299000BC0081608093BC008C2FDF91CF911F9190
:1029A0000F91FF900895FF920F931F93CF93DF93A2
:1029B000C82F162FF42E052F8091BC008E7F809398
:1029C000BC000E946E140E947C148C2F81600E94B7
:1029D00081140E947C148091B9008034B9F4CF2D09
:1029E000D02F123048F00E9447140E947C1480912E
:1029F000BB0089931150F5CF80E00E948A140E9499
:102A00007C148091BB008883C0E001C0C1E00E94BB
:102A100075148091BC0081608093BC008C2FDF9185
:102A2000CF911F910F91FF9008951F920F920FB6B3
:102A30000F9211242F933F934F935F936F937F9344
:102A40008F939F93AF93BF93EF93FF938091B900C0
:102A5000887F883609F4B6C008F042C0803309F494
:102A60009BC0A8F4803109F469C038F4882309F4C4
:102A700034C1883009F462C03DC1803209F48CC091
:102A8000883209F462C0883109F034C15EC08834EC
:102A900009F482C038F4883309F486C0803409F41C
:102AA0008DC028C1883509F466C0803609F48AC013
:102AB000803509F01FC160E083E494E00E94F61BBA
:102AC0008091BB00E091590591E09E0F90935905CC
:102AD000F0E0E65AFA4F808390E00E94E21B6EC05D
:102AE000803A09F499C0A8F4803809F476C038F423
:102AF000803709F467C0883709F464C0FBC08039A7
:102B000009F46BC0883909F47EC0883809F0F2C036
:102B10007AC0883B09F4AEC038F4883A09F494C00E
:102B2000803B09F491C0E6C0883C09F4C6C0883FE8
:102B300009F4CDC0803C09F0DDC0BFC060E085EC89
:102B400094E00E94F61B80E013C060E086EA94E007
:102B50000E94F61BE0917B0580917A05E81708F545
:102B600081E08E0F80937B05F0E0E458FA4F80817E
:102B70000E948114BFC060E081E994E00E94F61BCE
:102B8000E091590581E08E0F809359058091BB003B
:102B9000F0E0E65AFA4F808360E08BE694E00E9412
:102BA000F61B0E947514A4C060E087E594E00E94C3
:102BB000F61B8091BC008F70806898C060E080E355
:102BC00094E024C060E08DE194E00E94F61B85E073
:102BD00080939C051092590564C060E089E094E000
:102BE0000E94F61BE091590581E08E0F80935905F4
:102BF0009091BB00F0E0E65AFA4F9083803240F4A7
:102C00000E94471477C060E084EF93E00E94F61BB7
:102C100080E00E948A146EC060E081EE93E00E9422
:102C2000F61B8091BC008F70806C8093BC00E0919B
:102C30005705F0915805309709F45AC06AE575E0D8
:102C400080915905099554C060E08EEC93E00E9494
:102C5000F61B84E080939C05E0915505F0915605A4
:102C6000309731F06CE775E080E2099580937A0542
:102C700010927B0560E08AEB93E00E94F61BE091E6
:102C80007B0581E08E0F80937B05F0E0E458FA4FDE
:102C900080818093BB0090917B0580917A05981785
:102CA00028F48091BC008F70806C04C08091BC00BF
:102CB0008F7080688093BC001DC060E088E993E05D
:102CC0000E94F61B8091BC008F70806C0FC060E08A
:102CD00089E893E00E94F61B0DC060E088E793E06E
:102CE0000E94F61B8091BC008F70806D8093BC00A9
:102CF00010929C05FF91EF91BF91AF919F918F91A1
:102D00007F916F915F914F913F912F910F900FBEE7
:102D10000F901F901895F89440985A98882321F0A6
:102D2000813019F45A9A01C0409A8BB1806F8BB9E7
:102D300085B18F6085B92F988AB18F708AB984B1B7
:102D4000807F84B92D9A2C9A0000000089B193B13C
:102D50002C9887FF08C000000000000000002C9A9B
:102D600000000000F1CF2D988AB1806F8AB984B13C
:102D70008F6084B978940895CF93C62FF8940E94F9
:102D80008B162F982D982C9A8AB1806F8AB984B1AE
:102D90008F6084B98BB18F708BB98BB19C2F907F72
:102DA000892B8BB985B1807F85B985B1CF70C82B50
:102DB000C5B9000000000000000000000000000095
:102DC00000002C987894CF91089580939D05682FEA
:102DD0006F73606482958695869583700C94BC169B
:102DE00090919D0592959695969593708770809396
:102DF0009E05E92FF0E0E356FA4F2281821731F069
:102E00008283682F686B892F0C94BC16089580917B
:102E10009D058295869586958370F8940E948B1601
:102E20002F9A8AB18F708AB984B1807F84B92D9A24
:102E30002C9A0000000000000000000000000000CC
:102E4000000029B193B12C982D987894207F892F78
:102E50008F70822B089560EC80E00E94BC166FE3B7
:102E600080E00E94BC1660EC81E00E94BC166FE31B
:102E700081E00C94BC16CF93C62F0E94E5168C2FD0
:102E8000CF910C94F01680919D058F3718F080E05B
:102E90000C94E5168F5F80939D05982F9F7331F4F6
:102EA0000E94E51680919E050C94F0160895CF932C
:102EB000C82F80919D058295869586958370F8949C
:102EC0000E948B162F9A2D982C9A8AB1806F8AB9FE
:102ED00084B18F6084B98BB18F708BB98BB19C2F0B
:102EE000907F892B8BB985B1807F85B985B1CF70F3
:102EF000C82BC5B900000000000000000000000061
:102F0000000000002C987894CF910C9443171F93E5
:102F1000CF93DF9391E0813009F090E0D92FD195E4
:102F2000C0E06C2F80E00E943B1710E08D2F0E94C4
:102F300057171F5F1038D1F7CF5FC83091F7DF9177
:102F4000CF911F910C942B172F982D982C98409867
:102F50005A98279A259A249A389A529A9BB19F7028
:102F60009BB995B1907F95B99AB1906F9AB994B188
:102F70009F6094B9EDE9F5E09FEF928393830C9401
:102F8000871780E2809371018091AB058093AC0537
:102F900081E08093700108951F920F920FB60F92F7
:102FA00011242F933F934F935F936F937F938F934E
:102FB0009F93AF93BF93EF93FF938091B1058823C5
:102FC00029F08091B10581508093B1058091C604AC
:102FD000882329F08091C60481508093C604809193
:102FE000C704882359F08091C70481508093C70497
:102FF0008091C704811102C00E9440058091A805FC
:10300000813009F092C08091A3059091A405892B8D
:1030100009F08BC08091AF059091B005892B09F024
:103020007AC09091AC058091AB05309170019813F6
:103030001CC03130D1F480917101803219F41092AA
:10304000710103C08E5F809371018091710190E0E6
:10305000FC01EB51FB4F24912093AC05FC01EA519C
:10306000FB4FE491E20FE093AB058091AC0531306A
:1030700001F51092700190E0FC01E356FA4FE491E3
:1030800029E0E29FF0011124F093AE05E093AD0535
:10309000FC01E95FFA4F849123E6829FC00111246D
:1030A00063E070E00E946D2F7093B0056093AF05F0
:1030B00010C091E0909370011092AE051092AD0592
:1030C00021E330E03093B0052093AF058F5F80930C
:1030D000AC058091AD059091AE05892B21F410923D
:1030E0008100439818C01092800089E0809381008D
:1030F00083E080936F002091AD053091AE0540E0F4
:1031000050E060E079E08DE390E00E94952F3093ED
:103110008900209388008091AF059091B0050197B8
:103120009093B0058093AF050FC08091A505909155
:10313000A605019649F41092810043981092A605C5
:103140001092A5050E94C117FF91EF91BF91AF9119
:103150009F918F917F916F915F914F913F912F91AF
:103160000F900FBE0F901F9018951F920F920FB6E1
:103170000F9211248F939F9398B188E0892788B983
:103180009F918F910F900FBE0F901F9018951F92D7
:103190000F920FB60F9211242F933F934F935F938B
:1031A0006F937F938F939F93AF93BF93EF93FF930F
:1031B0000E94B518FF91EF91BF91AF919F918F91B0
:1031C0007F916F915F914F913F912F910F900FBE23
:1031D0000F901F9018951E9B18C08091A2058130FA
:1031E00029F51092A2051092A4051092A305109241
:1031F000A6051092A5058091A8058130B9F410921A
:10320000A8051092810043980FC08091A2058111FA
:103210000DC081E08093A2051092A4051092A30531
:103220001092A6051092A5050C94C1170895EF926F
:10323000FF920F931F93CF93DF937B018A01C82FD7
:10324000D0E0CC0FDD1FCE0108960E94D62F68E19A
:103250000E94532FF7019083CE0109960E94D62F2A
:103260006CE30E94532FF8019083DF91CF911F915F
:103270000F91FF90EF9008950F931F93CF93DF93DB
:1032800000D0CDB7DEB769834A83082F10E0000F66
:10329000111F6981C80108960E94DE2F6A81C8014A
:1032A00009960F900F90DF91CF911F910F910C9481
:1032B000DE2F6AE00E94532F292F30E1839FC00147
:1032C0001124822B0895CF93C62F1092800029E0FD
:1032D0002093810023E020936F009C0140E050E0A8
:1032E00060E079E08DE390E00E94952F30938900B3
:1032F00020938800C93140F08FE493EC0197F1F7F7
:1033000000C00000C951F6CF109281004398CF91C0
:103310000895CF93DF9380E090E00E94D62F8A3506
:10332000A1F0C1E0D0E0FE01EB52FB4F6491CE0171
:103330000E94DE2F2196C031D105A9F76AE580E011
:1033400090E0DF91CF910C94DE2FDF91CF91089523
:10335000CF93DF93E82FF0E0242F30E02053384F55
:10336000833018F43C962150310970E06F5F7F4F35
:10337000620F731FEF01CC0FDD1FC60FD71FA9010E
:103380005695479556954795C40FD51FC90160E9D5
:1033900071E00E946D2FC60FD71FC90164E670E06F
:1033A0000E946D2F9E01261B370B319646E04E9FE3
:1033B000C0014F9F900D11246AE070E00E946D2FB4
:1033C000C901860F971F67E070E00E946D2FDF91A3
:1033D000CF9108959C0183709927892B39F4C901F5
:1033E00064E670E00E946D2F892B61F4C90160E9E9
:1033F00071E00E946D2F9C0191E0232B09F090E079
:10340000892F089581E008951092B6041092B504B2
:103410008091A9058823E1F38CE38093DD05109268
:10342000A9058091A9058823E1F381E08093B60482
:103430000895CF93DF93CDB7DEB729970FB6F894F1
:10344000DEBF0FBECDBF1986F894AE01475F5F4F58
:1034500061E080ED0E94971481110E94BD2BAE01A6
:103460004F5F5F4F67E080ED0E94D3147894811125
:10347000F4CF898187FD5EC0982F92959F708F70E1
:103480002AE0929F800D1124809372018A81982FE7
:103490009695969596959E70292F220F220F920F42
:1034A0008F70890F809373012B81822F82958F708B
:1034B000922F9F7026FF0FC025FB222720F98170D5
:1034C000880F382F330F330F830F3CE0239F800D7D
:1034D0001124980F05C083702AE0829F900D11245B
:1034E000909374018D81982F9695969596959670E8
:1034F000292F220F220F920F8F70890F8093750151
:103500008E8184FB992790F9990F292F220F220F82
:10351000920F8F70890F809376018F81982F9295EB
:103520009F708F703AE0939F800D112480937701F4
:1035300080E001C081E029960FB6F894DEBF0FBE8F
:10354000CDBFDF91CF9108951F920F920FB60F92CA
:1035500011242F933F934F935F936F937F938F9398
:103560009F93AF93BF93CF93EF93FF93A8958091D1
:10357000AA05813279F41092AA05C0917201809156
:10358000B205813059F41092A6051092A50510924B
:10359000B20504C08F5F8093AA0587C00E94EB1814
:1035A0000E94191A80917201C817B1F18091CB0461
:1035B000882329F08091CB0481508093CB048091A3
:1035C000A8058130F9F48091A3059091A405019795
:1035D00011F40E94C1178091A3059091A405009752
:1035E00029F001979093A4058093A3058091A505E8
:1035F0009091A605181619062CF401979093A6052C
:103600008093A5058091A105882331F08091CC0499
:10361000811102C00E9430078091A905811112C05A
:103620009091DD0580917201981761F086E0E2E7E4
:10363000F1E0ADEDB5E001900D928A95E1F781E002
:103640008093A9058091A205813079F59091A80514
:10365000911115C090917201911111C020917301C7
:103660009091D30529130BC0209174019091CD0541
:10367000291305C08093A80588E097E012C08091C7
:10368000A805813091F48091A5059091A605892B1C
:1036900061F41092A8051092A4051092A3058FEF73
:1036A0009FEF9093A6058093A505FF91EF91CF9191
:1036B000BF91AF919F918F917F916F915F914F914A
:1036C0003F912F910F900FBE0F901F901895CF93A1
:1036D000DF93CDB7DEB728970FB6F894DEBF0FBEE5
:1036E000CDBF1982809172010E9459198A838091FD
:1036F00073010E9459198B83809174010E9459199A
:103700008C831D82809175010E9459198E8380914E
:1037100076010E9459198F83809177010E9459196F
:103720008887F894AE014F5F5F4F68E080ED0E949C
:103730009714789481110E94BD2B28960FB6F894A7
:10374000DEBF0FBECDBFDF91CF9108950E944E1412
:103750000E94191A81110E94671B0E94191A87E0A2
:103760008093B10081E080937000789408959093E5
:10377000C5008093C40088E18093C1008EE08093EF
:10378000C200519A509808959091C00095FFFCCFC7
:103790008093C60080E090E00895CF93C82F829573
:1037A0008F708A3010F4805D01C0895A0E94C41B5A
:1037B0008C2F8F708A3010F4805D01C0895ACF91B0
:1037C0000C94C41BCF93C82F892F0E94CD1B8C2F24
:1037D000CF910C94CD1B8091C00087FFFCCF8091CE
:1037E000C60008958091C0008078089508950895D6
:1037F000089508950895CF92EF920F931F93CF935A
:10380000DF9300D01F92CDB7DEB7861304C080913E
:10381000B1048823F1F0142F862FBE016F5F7F4F14
:103820000E941E04C090D4050091B705019F102D81
:1038300011248091B505E090B6059E012F5F3F4FA2
:1038400041E06091B40593E1199F800D11240E941D
:10385000F3100F900F900F90DF91CF911F910F9168
:10386000EF90CF900895CF92EF920F93823041F472
:103870000091CC0528E340E860E080E00E94C30F9F
:10388000C090D4059091B7058091B505E090B6053C
:10389000092F21ED32E041E06091B4055DE0959F94
:1038A000800D11240E94F3108091B8058130A1F49D
:1038B000C090D4059091B7058091B505E090B6050C
:1038C000092F21ED32E041E06091B40550E2959F6F
:1038D000800D11240E94F3100F91EF90CF90089566
:1038E0000F93CF93DF93CDB7DEB729970FB6F89438
:1038F000DEBF0FBECDBF40E069E382E00E946F04EF
:103900008091B604811105C08091B104882309F427
:103910007DC08091B504813029F08091B10481305F
:1039200009F04AC00091D4054091B7046091B904F0
:103930008091B8040E94A819E82FF0E0EE0FFF1F55
:10394000E65BFE4F2081318141E06091B30582E169
:103950000E9425120091D405E091B804F0E0EE0F2A
:10396000FF1FEA5AFE4F2081318141E06091B3058B
:103970008AE20E9425128091B904BE016F5F7F4FD9
:103980000E941E048CE28B8380E28C8382E38D8311
:1039900080E38E838091B704BE01695F7F4F0E94F0
:1039A0001E040091D4059E012F5F3F4F41E06091BE
:1039B000B30582E40E9425126091BD048091C00489
:1039C00040E00E94FB1B6091BE048091C10441E075
:1039D0000E94FB1B8091B805813039F46091BF04CF
:1039E0008091C20442E00E94FB1B8091B8058111C6
:1039F0000DC00091D4058091BF0480FF0091CC05DB
:103A000026E044E068E18EE30E94C30F29960FB6DA
:103A1000F894DEBF0FBECDBFDF91CF910F91089517
:103A20001092B80594E09093B50522E02093B40578
:103A30009093B70595E09093B6059CE29093B305FB
:103A40000C94331C91E09093B80590E19093B505E8
:103A50009CE09093B40592E09093B7059093B605DF
:103A600095E29093B3050C94331CFC012281203421
:103A700029F423812F3111F422E001C026E0362FF2
:103A8000FC01DB018D9181938A2F831B8217D0F378
:103A900008952F923F924F925F926F927F928F92F2
:103AA0009F92AF92BF92CF92DF92EF92FF920F93CD
:103AB0001F93CF93DF93CDB7DEB72A970FB6F89455
:103AC000DEBF0FBECDBF8D839A871B0129013A014E
:103AD000E982FA820B831C831A2D082DCA01B901D1
:103AE0000E94022F4B015C016C2D70E080E090E0A1
:103AF0000E94CA2D6B017C019B01AC01C501B40180
:103B00000E94952E0E94922D605CF1016083C3019A
:103B1000B2010E941B2D9058A70196010E94952E7C
:103B20000E94922D615EF101618329813A814B816E
:103B30005C81C301B2010E94AF2C4B015C010E9469
:103B4000022F6E837F8388879987612F70E080E0E2
:103B500090E00E94CA2D6B017C019B01AC016E813B
:103B60007F81888599850E94952E0E94922D605CA8
:103B7000F1016283C501B4010E941B2D9058A70179
:103B800096010E94952E0E94922D615EF101638341
:103B900029813A814B815C81C301B2010E94AE2C24
:103BA0004B015C010E94022F9B01AC01C701B601D1
:103BB0000E94952E0E94922D605CF1016483C501E4
:103BC000B4010E941B2D9058A70196010E94952ECA
:103BD0000E94922D615EF10165839D81A92FBA85B6
:103BE0008A2F891B801730F42D9181912817C1F3FA
:103BF00081E001C080E02A960FB6F894DEBF0FBEC8
:103C0000CDBFDF91CF911F910F91FF90EF90DF908B
:103C1000CF90BF90AF909F908F907F906F905F906C
:103C20004F903F902F9008950F931F93CF93DF9362
:103C3000EC01162F062F2B814A81698188810E9411
:103C4000E50F8A81803419F48B818F3169F0012F5F
:103C50002D814C81698188810E94E50F2D814C81E5
:103C60006B818A810E94E50FDF91CF911F910F91A7
:103C70000895CF92DF92EF92FF920F931F93CF930D
:103C8000DF93813009F072C00091D40520E04EE14D
:103C90006FE180E40E94230C4091D4056FE180E441
:103CA0000E94860DC0E003E06C2F0C2E000C770BF9
:103CB000880B990B0E94CA2D22E93AE046E05FE3A7
:103CC0000E94952E6B017C010E94022F2DEC3CEC92
:103CD00040EE51E40E94952E0E94922D162FC701AE
:103CE000B6010E941B2D90582DEC3CEC40EE51E4A7
:103CF0000E94952E0E94922DD62F4091D4056FE1FF
:103D00006D0F80E4810F0E94860D8C2F602F0E9422
:103D10005F2F911115C0C11102C0D15009C0C3302D
:103D200011F41F5F05C0C63011F4DF5F01C01150F0
:103D30004091D4056FE16D0F80E4810F0E94860DE4
:103D4000CF5FCC3009F0B0CFE5ECF5E0CFEBD5E0BC
:103D5000A9EBB5E02BEC35E088E2819389938D9354
:103D60002E173F07D1F71092CE0518C08091D205CB
:103D7000811114C06091CC0585EC95E00E94141E61
:103D80004091D4056FE180E4DF91CF911F910F91B5
:103D9000FF90EF90DF90CF900C94860DDF91CF9144
:103DA0001F910F91FF90EF90DF90CF9008954F9269
:103DB0005F926F927F928F929F92AF92BF92CF92BB
:103DC000DF92EF92FF920F931F93CF93DF93CDB7C4
:103DD000DEB766970FB6F894DEBF0FBECDBF8091F9
:103DE000B404813009F0A8C08091CF05813009F07A
:103DF00099C06091D30570E080E090E00E94C82DEA
:103E000020E537E746ED5DE30E94952E6B017C01CE
:103E10000E94022F2B013C01C701B6010E941B2DFD
:103E20006B8B7C8B8D8B9E8B8091CD051091D305F8
:103E30006CE00E94532F692F70E080E090E00E94B8
:103E4000CA2D22E93AE046E05FE30E94952E6B011D
:103E50007C01612F70E080E090E00E94C82D25E396
:103E60003AEF4EE05CE30E94952E9B01AC01C70146
:103E7000B6010E94AF2C6B017C010E94022F4B0106
:103E80005C01C701B6010E941B2D6B017C010091F2
:103E9000D40520E047E066E386E70E94230C00910A
:103EA000D4056B897C898D899E89905820E030E00B
:103EB00040EE50E40E94952E0E94922D16E3160FBC
:103EC00020E030E040EE50E4C301B2010E94952EA4
:103ED0000E94922D46E7460F212F66E386E70E9457
:103EE000E50F0091D405C701B601905820E030E0FD
:103EF00040EA50E40E94952E0E94922D16E3160F80
:103F000020E030E040EA50E4C501B4010E94952E63
:103F10000E94922D46E7460F212F66E386E70E9416
:103F2000E50F0AC00091CC0521E141E16EE28EE689
:103F30000E94C30F1092CE058091B304813031F4FA
:103F40008091B20483FB882780F901C080E09091C2
:103F5000CE05981769F08093CE05C090CC0524E07B
:103F6000E22E02E021E141E16EE28EE60E94BC0D0C
:103F70008091B604813021F08091B104813019F430
:103F80001092DA0505C08091DA058F5F8093DA051B
:103F900042E069E382E00E946F048091D2058130A3
:103FA000D1F56091BF041091DA0570E080E090E0F7
:103FB0000E94C82D20E537E746ED5DE30E94952E6F
:103FC0006B017C01612F70E080E090E00E94CA2DBF
:103FD00028E93EE24EEF5BE30E94952E9B01AC0187
:103FE000C701B6010E94AF2C9B01AC0116E0812EE7
:103FF00007E1A02E8BE1C82E1DECE12E1CECF12E6A
:104000000CEC1DE3BE01635F7F4F85EC95E00E94E1
:10401000491DB82E01C0B12C8091B604813029F021
:104020008091B104813009F085C06091BE04109187
:10403000BF0470E080E090E00E94C82D20E537E7E3
:1040400046ED5DE30E94952E6B017C01612F70E0CF
:1040500080E090E00E94C82D29E833EC44EE5AE35A
:104060000E94952E9B01AC01C701B6010E94AF2CA6
:104070009B01AC01E2E08E2EF8E0AF2EABE1CA2E40
:104080001CE7E12E19EDF12E00E210E4BE01695F9C
:104090007F4F8FEB95E00E94491DD82E81E0D81606
:1040A00059F09091C0048091BD04981305C080918F
:1040B000B104813009F041C08091BD041091BE046B
:1040C0006CE00E94532F692F70E080E090E00E9426
:1040D000CA2D22E93AE046E05FE30E94952E2B01CB
:1040E0003C01612F70E080E090E00E94C82D25E344
:1040F0003AEF4EE05CE30E94952E9B01AC01C301B8
:10410000B2010E94AF2C9B01AC0186E0882E95E0A5
:10411000A92E64E1C62E1CE7E12E19EDF12E00E276
:1041200010E4BE016F5F7F4F89EB95E00E94491D4F
:10413000182F04C010E0D12C01C010E08091D205EE
:104140008130C9F4B81621F08091B104813099F41E
:104150006091CC0585EC95E00E94141EBE01635F62
:104160007F4F85EC95E00E94351D6091D40585EC6C
:1041700095E00E94141E81E0D81621F08091B104D0
:104180008130E1F46091CC058FEB95E00E94141E24
:10419000BE01695F7F4F8FEB95E00E94351D6091F6
:1041A000D4058FEB95E00E94141E8091D2058130DA
:1041B00071F46091D40585EC95E007C081E0B812F8
:1041C00006C06091D4058FEB95E00E94141E11305B
:1041D00021F08091B104813011F56091CC0589EB1B
:1041E00095E00E94141EBE016F5F7F4F89EB95E042
:1041F0000E94351D6091D40589EB95E00E94141E44
:104200008091D205813031F46091D40585EC95E040
:104210000E94141E6091D4058FEB95E009C081E0E7
:10422000B81611F0D81206C06091D40589EB95E05C
:104230000E94141E66960FB6F894DEBF0FBECDBF67
:10424000DF91CF911F910F91FF90EF90DF90CF9072
:10425000BF90AF909F908F907F906F905F904F90A6
:1042600008951092D2050C94391E91E09093D205D6
:104270000C94391EAF92BF92CF92DF92EF92FF92D1
:104280000F931F93CF93DF93D82E862F91E03AE0C0
:10429000632FA91218C00E94532F182F842F0E9439
:1042A000532FF82E822F0E94532FB82E802F0E945A
:1042B000532FA82E8E2D0E94532FE82E8C2D0E9456
:1042C000532FC82E17C00E94532F192F842F0E94DE
:1042D000532FF92E822F0E94532FB92E802F0E9428
:1042E000532FA92E8E2D0E94532FE92E8C2D0E9424
:1042F000532FC92E1A1108C0FE1006C0BC1004C0EE
:104300008091B1048823C9F1DDE0C0E091E01C1385
:1043100090E0FC1201C09260BC1201C0946081E088
:10432000AC1280E0EC1201C08260CC1201C084604B
:10433000981306C09091B1049130D9F48823C9F044
:10434000E82FF0E0ED5CF94F2491843018F40091EF
:10435000D40502C00091CC0545E06D2D8D2F0E9443
:104360003B0F0091D40520E045E06D2D8D2F0E947C
:10437000230CCF5FD45FCA3049F6DF91CF911F91F4
:104380000F91FF90EF90DF90CF90BF90AF90089586
:10439000EF92FF920F93CF93DF938091DA05811113
:1043A0007DC08EE28093CE0581E08093DA05809116
:1043B000CC050E9487170091D40522E034E040E04C
:1043C00061E081E00E94251223E3E22E26E0F22E36
:1043D000CEE0D0E0D33019F40091CC0502C00091BA
:1043E000D405F701249145E06C2F8EE00E943B0F2D
:1043F0000091D40520E045E06C2F8EE00E94230C54
:10440000D11103C00091D40502C00091CC05F70181
:104410003496249145E06C2F86E40E943B0F009176
:10442000D40520E045E06C2F86E40E94230CDF5F7A
:10443000FFEFEF1AFF0AC25FD43061F60091D40596
:1044400020E134E040E06CE089E10E9425129EE228
:10445000E92E92E0F92EC6E10091D405F7012191F1
:1044600031917F0140E06C2F89E10E942512C95FE4
:10447000C03491F78EE1E82E82E0F82EC8E000917A
:10448000D405F701219131917F0140E06C2F81E546
:104490000E942512C95FC03491F702C01092DA055C
:1044A000DF91CF910F91FF90EF900895AF92CF924F
:1044B000EF920F93CF93DF9300D01F92CDB7DEB76B
:1044C0008091CE05813021F48091B604813041F095
:1044D0008091CE05882359F08091DA05811107C0BB
:1044E00081E00E946B0383E00E946B0370C08091A7
:1044F000DA058130E1F48091B604813009F067C0BB
:104500008091CE0581508093CE058091CE05BE016D
:104510006F5F7F4F0E941E040091D4059E012F5FA4
:104520003F4F40E061E088E70E94251250C040E024
:104530006AE381E00E946F048091B604811105C096
:104540008091B104882309F442C0C090BD04E0907A
:10455000BE040091BF042091C0044091C104609149
:10456000C204AA24A3948DE00E943A21C090BD0405
:10457000E090BE040091BF042091C0044091C104AA
:104580006091C204A12C89E10E943A21C090B70435
:10459000E090B8040091B9042091BA044091BB04A2
:1045A0006091BC04AA24A39485E20E943A21C090A1
:1045B000B704E090B8040091B9042091BA04409186
:1045C000BB046091BC04A12C81E30E943A210F90AE
:1045D0000F900F90DF91CF910F91EF90CF90AF9010
:1045E0000895AF92CF92EF92FF920F931F93CF93C4
:1045F000DF9300D0CDB7DEB780E389831A8210E065
:104600000091D405145F9E012F5F3F4F40E061E0B1
:10461000812F0E94251289818F5F8983183781F746
:10462000A090D405CC24C394EE24E39409E514E0CF
:1046300021E040E06AE181E00E943212A090D405BE
:1046400002E614E021E040E061E381E00E943212E2
:1046500010E0F12C8DE0E82EE10EF11002C01D33C8
:1046600048F40091D40520E045E06DE06F0D8E2DFB
:104670000E94230C8CE0F80E80E3F812EECF145F5A
:10468000183739F71092CE051092DA050F900F9077
:10469000DF91CF911F910F91FF90EF90CF90AF904E
:1046A0000895CF92DF92EF92FF920F931F93CF93D3
:1046B000DF93D82FC42F122F70E080E090E00E948B
:1046C000C82D9B01AC0160E070E080E891E40E949D
:1046D000202D6B017C016C2F70E080E090E00E9447
:1046E000CA2DA70196010E94952E20E030E040E0FF
:1046F0005FE30E94AF2C0E94992DC62F612F70E0BE
:1047000080E090E00E94CA2DA70196010E94952E9C
:1047100020E030E040E05FE30E94AF2C0E94992D42
:10472000162FC61304C08091B1048130F1F40091BA
:10473000CC0588E0F82EFD0EC65921E042E06F2D31
:104740008C2F0E94C30F0091CC056AE06D0F21E011
:1047500042E08C2F0E94C30F0091D40523E042E079
:104760006F2D8AE6810F0E94C30FDF91CF911F91B9
:104770000F91FF90EF90DF90CF9008950F931F93CC
:10478000CF93DF938091B504813029F08091B104FB
:10479000813009F051C0C8E7D1E081E09091B904BF
:1047A0002981291305C09091B8042A81291721F085
:1047B00027968F5F843091F79091CB059817E1F1A0
:1047C0008093CB0588818823C9F06B817C8180E050
:1047D0000E94CF0F182F6D817E816115710521F028
:1047E00080E00E94CF0F180F81E890E0811B9109B3
:1047F00097FD019695958795182F01C012E00091BD
:10480000CC0527E040E860E080E00E94C30F009103
:10481000D4052B813C8140E061E0812F0E9425126C
:10482000810F2D813E812115310531F00091D40594
:1048300040E061E00E942512DF91CF911F910F911E
:1048400008950F93CF93DF93C82F8D7F843129F084
:10485000CA3019F0CD3091F535C00091D40522E26F
:1048600041E067E188E00E94C30F0091D40521E098
:1048700043E568E389E00E94C30FD8E14091D40585
:104880006D2F87E00E94860DDB5FDB33B9F7C43103
:1048900081F44091D40569E385E20E94860D409140
:1048A000D40569E380E40E94860DCAE3D0E188E480
:1048B00012C0CA3049F0C63139F0CCCFC83141F00E
:1048C000C6E307C0CAE305C0CAE3DDE08BE403C06A
:1048D000CBE3DAE08EE40091D40521E132E040E060
:1048E0006C2F0E9425120091D40525E132E040E0B2
:1048F0006C2F8CE20E9425120091D40529E132E050
:1049000040E06C2F8D2F0E942512DF91CF910F91E7
:1049100008959F92AF92BF92CF92DF92EF92FF9253
:104920000F931F93CF93DF9300D01F92CDB7DEB7C5
:10493000421305C09091B104992309F498C0B02E98
:10494000A22ED62EF82E642F70E080E090E00E9418
:10495000CA2D28E339EA4BEF5EE30E94952E20E052
:1049600030E040E05FE30E94AF2C0E94992D962E2C
:104970006A2D70E080E090E00E94CA2D28E339EAB9
:104980004BEF5EE30E94952E20E030E040E05FE3D5
:104990000E94AF2C0E94992D162F961204C0809170
:1049A000B104813031F521E0210F85E0E81218C013
:1049B0000091D40566E3611B4D2D8F2D0E949F133E
:1049C0001230B8F0C090D40567E3611B95E0E92E82
:1049D00000E02FEF210F4EEF4D0D81E08F0D07C04E
:1049E000C090D40566E3611B01E04D2D8F2D0E9420
:1049F000BC0DBE016F5F7F4F8A2D0E941E04009187
:104A0000D4058EE2A82EEA2CE11A9E012F5F3F4FBB
:104A100041E06E2D8F2D8B0D0E9425120091CC054B
:104A200065E3611B21E04D2D8F2D0E94C30F009186
:104A3000CC0527E04B2D6E2D8F2D0E94C30F0091CA
:104A4000CC054FEF4B0D81E08D0D8F0D27E06E2DC6
:104A50008B190E94C30F191550F40091CC05292D14
:104A6000211B6A2D69194D2D8F2D0E94C30F0F90A8
:104A70000F900F90DF91CF911F910F91FF90EF90CA
:104A8000DF90CF90BF90AF909F9008950F93CF93FA
:104A9000DF93EC01623001F50091CC0520E344E6A0
:104AA00060E180E00E94C30F0091D4059E0140E0C8
:104AB00069E082E00E942512282F30E02133310581
:104AC0000CF061C00091CC0541E3481B25E069E092
:104AD0008E5F0E94C30F57C00091D40521E040E8CB
:104AE00067E080E00E94C30F0091D40521E040E818
:104AF0006FE080E00E94C30F0091D40529E341E0FC
:104B000067E085E60E94C30F8FEF8093CB050E947C
:104B1000BE230091D4059E0140E069E082E00E943E
:104B200025120091D40527E634E040E069E088E6EC
:104B30000E942512C2E1D0E029E132E00091D405C3
:104B400040E06C2F89E60E9425120091D40527E0F1
:104B500046E166E06C0F88E60E949F130091D40541
:104B600021E042E169E06C0F8AE60E94C30FDF5F3B
:104B7000C03349F0D13019F021E132E002C025E123
:104B800032E0C15FDBCFDF91CF910F91089541E01B
:104B900069E083E30E946F048091B604811104C030
:104BA0008091B1048823C9F10E94BE239091BF0473
:104BB0008091C204981304C08091B104813041F403
:104BC0002091BF044091C2046BE380E30E94512313
:104BD0009091BE048091C104981304C08091B104E7
:104BE000813041F42091BE044091C1046BE381E225
:104BF0000E9451239091BD048091C004981304C079
:104C00008091B104813041F42091BD044091C004F1
:104C100067E182E10E94512381E008952F923F9243
:104C20004F925F926F927F928F929F92AF92BF92BC
:104C3000CF92DF92EF92FF920F931F93CF93DF9368
:104C400000D000D000D0CDB7DEB7641307C020136A
:104C500005C09091B104992309F44BC1902E122FF5
:104C6000842EB82E70E080E090E00E94CA2D28E3E8
:104C700039EA4BEF5EE30E94952E20E030E040E001
:104C80005FE30E94AF2C0E94992D562E682D70E094
:104C900080E090E00E94CA2D28E339EA4BEF5EE302
:104CA0000E94952E20E030E040E05FE30E94AF2CB0
:104CB0000E94992DA62E612F70E080E090E00E9466
:104CC000CA2D28E339EA4BEF5EE30E94952E20E0DF
:104CD00030E040E05FE30E94AF2C0E94992D362E19
:104CE000602F70E080E090E00E94CA2D28E339EA4E
:104CF0004BEF5EE30E94952E20E030E040E05FE362
:104D00000E94AF2C0E94992D462E531430F4F32CA0
:104D1000F51826E3D22ED31805C0F52CF31826E398
:104D2000D22ED518F11002C0FF24F394A41428F455
:104D3000242C2A1816E3141904C02A2C241816E36C
:104D40001A19211002C0222423945A1006C03410CC
:104D500004C08091B104813081F4981418F001E00E
:104D600082E002C000E083E0C090D405E82E222D4E
:104D70004DE0612F8B2D0E94BC0D092D081907FFF6
:104D800005C08DE28983019521E001C020E00A3051
:104D90006CF0E1E0F0E0EC0FFD1FE20FF11D802F61
:104DA0006AE00E945F2F805D80832F5FE1E0F0E08A
:104DB000EC0FFD1FE20FF11D802F6AE00E945F2FB4
:104DC000905D90832F5FE1E0F0E0EC0FFD1FE20FBC
:104DD000F11D1082220F220F99249A94920E0091B5
:104DE000D4058DE0882E891886946B2C680C9E0162
:104DF0002F5F3F4F40E05AEF752E710E672D862DC5
:104E00000E9425120091CC0526E0482D672D8B2DA0
:104E10000E94C30F0091CC0526E0482D672D892DF7
:104E2000860D0E94C30F5A1003C0341409F461C0E8
:104E30000091CC0521E04DE06FEF610F8B2D0E94BA
:104E4000C30F8D2C912C8F2D90E09E838D83612E2E
:104E5000712CD116C8F4930126503109880D991D83
:104E60008217930724F426E02F0D71F002C0212F42
:104E70002D19C090D40535E0E32E02E04DE06AEF35
:104E80006D0D8B2D0E94BC0D53100FC0A41468F43F
:104E90005A100BC0C090D40595E0E92E02E021E045
:104EA0004DE06D2D8B2D0E94BC0D620C711C8D810F
:104EB0009E81880D991D68167906DCF495E0891AA3
:104EC00091086814790434F0622D610FFD0C2F2DC8
:104ED000261B04C026E02F0D6AEF6D0D222349F03A
:104EE000C090D40585E0E82E02E04DE08B2D0E94B5
:104EF000BC0D26960FB6F894DEBF0FBECDBFDF9176
:104F0000CF911F910F91FF90EF90DF90CF90BF90C6
:104F1000AF909F908F907F906F905F904F903F9059
:104F20002F900895EF920F930E94C725882399F13F
:104F30002091BF044091C20485E0E82E02E06FE0BA
:104F400089E40E9489240091BF042091C204409109
:104F5000BE046091C1048BE30E940E262091BE0422
:104F60004091C10402E06FE08BE20E94892400912D
:104F7000BE042091C1044091BD046091C0048DE144
:104F80000E940E262091BD044091C00402E06FE013
:104F90008DE00E9489240F91EF900895682F82E898
:104FA00094E00E9446258AE00C9421248F929F92DF
:104FB000AF92BF92CF92DF92EF92FF92CF93DF93A7
:104FC000D82F70E080E090E00E94CA2D2BED3FE0EA
:104FD00049E45FE30E94952E24EE3BEC46E150E469
:104FE0000E94AE2C4B015C010E94022F6B017C01E0
:104FF000C501B4010E941B2DB090D405905826E63F
:1050000036E646E551E40E94952E0E94922DC4E2B8
:10501000C60F26E636E646E551E4C701B6010E9412
:10502000952E0E94922D862F4B2D6C2F8D0FDF9188
:10503000CF91FF90EF90DF90CF90BF90AF909F9077
:105040008F900C94860D4F925F926F927F92AF92E9
:10505000BF92CF92DF92EF92FF920F931F93CF9365
:10506000DF9300D01F92CDB7DEB7641305C09091D7
:10507000B104992309F493C0F42EE62E182F70E0A2
:1050800080E090E00E94CA2D2CE739ED40EA5DE314
:105090000E94952E24EE3BEC46E150E40E94AE2C9B
:1050A0002B013C010E94022F26E636E646E551E43C
:1050B0000E94952E0E94922DB62EC301B2010E942D
:1050C0001B2D905826E636E646E551E40E94952EC3
:1050D0000E94922DA62E6F2D70E080E090E00E943D
:1050E000CA2D2CE739ED40EA5DE30E94952E24EEAF
:1050F0003BEC46E150E40E94AE2C2B013C010E94A7
:10510000022F26E636E646E551E40E94952E0E94DF
:10511000922DD62EC301B2010E941B2D905826E677
:1051200036E646E551E40E94952E0E94922DC62E49
:10513000BD1006C0A61204C08091B1048130F1F404
:105140000091CC0524E22A0D4B2D410F64E2812F02
:105150000E94E50F0091D40524E22C0D4D2D410F46
:1051600064E2812F0E94E50F8E2D6AE00E94532F8A
:10517000911104C0682F812F0E94D627BE016F5F56
:105180007F4F8F2D0E941E040091D4059E012F5F3A
:105190003F4F41E06AE28BEF810F0E9425120F9092
:1051A0000F900F90DF91CF911F910F91FF90EF9093
:1051B000DF90CF90BF90AF907F906F905F904F90B7
:1051C00008950E94C7258823A9F04091BF046091EB
:1051D000C20483E50E9423284091BE046091C1046B
:1051E00082E30E9423284091BD046091C00481E1C4
:1051F0000C94232808950F93CF93DF93682F8AE8A8
:1052000094E00E944625C1E10091D40520E04FE0E2
:1052100064E28C2F0E94230CD0E06D2F8C2F0E9413
:10522000D627DF5FD730C9F7CF5DC43769F78BE08A
:10523000DF91CF910F910C942124BF92CF92DF92F6
:10524000EF92FF920F931F93CF93DF93F82EE22EEE
:1052500070E0042F10E082E0F81217C0072E000C57
:10526000880B990B0E94CA2D20E030E040E45FE3F8
:105270000E94952E20E030E040E850E40E94AF2CE0
:10528000B62EC72ED82EC92F1EC0072E000C880B95
:10529000990B0E94CA2D2AE939E949E95EE30E9487
:1052A000952E20E030E040E850E40E94AF2CB62E6E
:1052B000C72ED82EC92FF11006C00E94992DD4E315
:1052C000D60FC7E23DC02FEF3FEF4FEF5EE36B2DF0
:1052D0007C2D8D2D9C2F0E94952E0E94992DD4E31C
:1052E000D61B81E028ED33EB4DE55FE36B2D7C2D84
:1052F000F8121EC08D2D9C2F0E94952E0E94992D74
:10530000C7E2C60FB801110F880B990B0E94CA2D76
:1053100020E030E040E45FE30E94952E20E030E0A2
:1053200040E850E40E94AF2CB62EC72E8C0135C049
:105330008D2D9C2F0E94952E0E94992DC7E2C61B91
:10534000B801110F880B990B0E94CA2D2AE939E97F
:1053500049E95EE30E94952E20E030E040E850E409
:105360000E94AF2C562F472F382F292FB62EC72E2D
:10537000082F192F82E0F81210C0652F742F832F89
:10538000922F0E94992D44E3460F0E2D27E26C2F99
:105390008D2F0E94E50F24E12FC02FEF3FEF4FEF3D
:1053A0005EE36B2D7C2DC8010E94952E0E94992DE5
:1053B00084E3D82ED61A28ED33EB4DE55FE36B2D51
:1053C0007C2DC801F11006C00E94952E0E94992DD7
:1053D000695D07C00E94952E0E94992D87E2861B69
:1053E000682F0E2D2C2F4D2F8D2D0E94E50F81E063
:1053F000F81204C00E2D2AE34AE203C00E2D2C2F12
:105400004AE46C2F8D2F0E94E50FDF91CF911F9101
:105410000F91FF90EF90DF90CF90BF9008950F9382
:105420001F93CF93DF9300D01F92CDB7DEB70E94BA
:10543000C725882309F4D0C09091BF048091C2048D
:10544000981304C08091B104813089F48091BF0425
:10545000BE016F5F7F4F0E941E040091D4059E0124
:105460002F5F3F4F41E061E28FE40E94251290914F
:10547000BE048091C104981304C08091B1048130AE
:1054800089F48091BE04BE016F5F7F4F0E941E04AD
:105490000091D4059E012F5F3F4F41E061E380E121
:1054A0000E9425129091BD048091C004981304C0FD
:1054B0008091B104813089F48091BD04BE016F5F99
:1054C0007F4F0E941E040091D4059E012F5F3F4F25
:1054D00041E061E180E10E9425129091BF0480913A
:1054E000C204981799F19091BE048091C104981359
:1054F0002DC09091BD048091C004981327C0809165
:10550000B104811123C06091C2041091BF0470E006
:1055100080E090E00E94CA2D2AE939E949E95EE37A
:105520000E94952E0E94992D062F612F70E080E039
:1055300090E00E94CA2D2AE939E949E95EE30E9418
:10554000952E0E94992D061709F446C02091CC058E
:105550004091C1046091C20480E00E941D29209105
:10556000CC054091C0046091C10481E00E941D29D6
:105570002091CC054091C2046091C00482E00E9459
:105580001D292091D4054091BE046091BF0480E0A4
:105590000E941D292091D4054091BD046091BE0454
:1055A00081E00E941D292091D4054091BF046091A3
:1055B000BD0482E00E941D290091D40523E04AE049
:1055C00067E284E30E94230C0091D40521E040E1CE
:1055D00067E284E30E94230C0F900F900F90DF91FD
:1055E000CF911F910F9108950F93682F85E994E053
:1055F0000E9446250091D40520E046E167E284E35D
:105600000E94230C0091D40521E132E040E069E2E0
:105610008FE40E9425120091D40525E132E040E09C
:1056200069E38FE00E9425120091D40529E132E060
:1056300040E069E18EE00E9425124091D40567E2C6
:1056400084E30F910C94860DFF920F931F93CF93D9
:10565000DF93182F842FF090D4050E94532FD82F5A
:10566000822F0E94532FD81304C09091B104992324
:10567000B9F1C82F0091D4058CE0D89FD02D11240A
:10568000D75E25E045E06D2F812F0E943B0F0091F2
:10569000D40520E045E06D2F812F0E94230CCC2300
:1056A00039F0C13039F410FD07C0F090CC0504C0CA
:1056B00023E003C022E001C021E08CE0C89FC02DA0
:1056C0001124C75E0F2D45E06C2F812F0E943B0FE8
:1056D0000091D40520E045E06C2F812F0E94230C1F
:1056E000DF91CF911F910F91FF9008950E94C725E0
:1056F0008823C1F02091BF044091C20464E183E596
:105700000E94242B2091BE044091C10464E182E3F5
:105710000E94242B2091BD044091C00468E081E1E7
:105720000C94242B08950F931F93CF93DF93682F2E
:1057300081EA94E00E944625C9E00091D40527E261
:1057400041E162E18C2F0E949F13D9E118E01C0F08
:105750000091D40520E045E06D2F812F0E94230C9D
:10576000D45FDD33A9F7CF5DCC3639F78DE0DF911B
:10577000CF911F910F910C942124789464E680EAD4
:105780009FE00E9463192FEF80E792E02150804054
:105790009040E1F700C0000064E680EA9FE00E94CC
:1057A00063192FEF89E698E1215080409040E1F79E
:1057B00000C00000E3CF14BE0FB6F894A895809106
:1057C0006000886180936000109260000FBE8AE1E3
:1057D00090E00E94B71B3B9A8CE38093DD050E940A
:1057E000A61B0E94891986E090E00E94D62F817046
:1057F0008093CC059091CC0581E0911180E080935D
:10580000D40587E090E00E94D62F83708093A7058F
:105810008091A70543ED55E06DEC75E00E941719E6
:105820000E9446050E94EB1882E084BD83E085BD9E
:105830008DE787BD80916E00826080936E00539AE1
:1058400080E28093B0008091B00083608093B000CC
:105850008091B10088608093B10080E18093B300B3
:1058600081E090E00E94D62F8093B400259A64E6F0
:1058700080EA9FE00E9463199FE088E10FB6F894E8
:10588000A895809360000FBE909360008091CC0536
:105890000E94A4170E9406050E94041A81E00E943B
:1058A0006B03CBE408E512E080E6E82E89E0F82EF1
:1058B000C093B1058091C9048823B9F08091A805EF
:1058C000813099F49091C90490FF03C08093B20590
:1058D00036C01093A4050093A305F092A605E092AC
:1058E000A5051092810043982AC08091C90480FFC9
:1058F00006C00E94AF070E94041A81E01EC080917A
:10590000C90481FF06C08091C9040E94560391E03A
:10591000811190E08091C90482FD02C0913079F438
:10592000D091B0040E9406049091B004D91305C030
:105930008091C9040E94560302C00E946B0310921A
:10594000C90483E00E946B038091B1058111FCCFF3
:105950008091B2048F5F8093B204AACF5058BB27C6
:10596000AA270E94C62C0C94472E0E940E2E38F0B7
:105970000E94152E20F039F49F3F19F426F40C9460
:105980000B2E0EF4E095E7FB0C94052EE92F0E94F8
:105990006C2E58F3BA17620773078407950720F037
:1059A00079F4A6F50C948E2E0EF4E0950B2EBA2FFA
:1059B000A02D0B01B90190010C01CA01A001112415
:1059C000FF27591B99F0593F50F4503E68F11A16C1
:1059D000F040A22F232F342F4427585FF3CF469552
:1059E00037952795A795F0405395C9F77EF41F1674
:1059F000BA0B620B730B840BBAF09150A1F0FF0F3E
:105A0000BB1F661F771F881FC2F70EC0BA0F621F29
:105A1000731F841F48F4879577956795B795F79519
:105A20009E3F08F0B0CF9395880F08F09927EE0FAE
:105A30009795879508950E941E2EE3950C94582EF5
:105A40000E94342D0C94472E0E94152E58F00E946F
:105A50000E2E40F029F45F3F29F00C94052E5111D1
:105A60000C948F2E0C940B2E0E946C2E68F39923AD
:105A7000B1F3552391F3951B550BBB27AA2762174A
:105A80007307840738F09F5F5F4F220F331F441F57
:105A9000AA1FA9F335D00E2E3AF0E0E832D091508B
:105AA0005040E695001CCAF72BD0FE2F29D0660F78
:105AB000771F881FBB1F261737074807AB07B0E8BB
:105AC00009F0BB0B802DBF01FF2793585F4F3AF0C1
:105AD0009E3F510578F00C94052E0C948F2E5F3F5D
