:100000000C946F020C948C020C948C020C944C0592
:100010000C948C020C948C020C948C020C948C0228
:100020000C948C020C9469190C948C020C9481171A
:100030000C948C020C9493170C9498160C948C02CC
:100040000C948C020C948C020C948C020C948C02F8
:100050000C948C020C94AE040C948C020C948C02C4
:100060000C9440140C948C0205A84CCDB2D44EB91B
:100070003836A9020C50B9918688083CA6AAAA2A4B
:10008000BE000000803F49922449249200010205ED
:100090000A0F121617191B1E212326272A2D30336B
:1000A00036393C3F424548494B4D505255595C5FAB
:1000B000626567696C6F707275777C8083868A8DE4
:1000C000909396999EA1A4A7A9ACAEB1B4B6B9BAC3
:1000D000BDC12037630003AA1F0A1F0AA2151F15FE
:1000E000087904138A151208234E11510E6A040A66
:1000F000640E045008640404307804037F111F72F6
:100100001F107D151775151F67041F77151D7F15A7
:100110001D611D037F151F77151F2A500A440A6AA7
:100120000A0A4A046115028815190E7E051E7F15FC
:100130000A6E11117F110E5F155F056E111D7F0490
:100140001F3F500F7F041B5F10BF0204021F9F025E
:10015000041F6E110E7F050282151D127F051A7293
:100160001509611F017F101F6F100FAF100C100FCA
:100170007B041B631C037915135F11630418511F63
:100180006201027010104102641F113F711F04844C
:10019000150E04840E1504000000000000005F002E
:1001A000000007000700147F147F14242A7F2A12FE
:1001B00023130864623649552250000503000000ED
:1001C0001C2241000041221C00082A1C2A080808A1
:1001D0003E08080050300000080808080800606069
:1001E000000020100804023E5149453E00427F4075
:1001F0000042615149462141454B311814127F108C
:1002000027454545393C4A494930017109050336BE
:1002100049494936064949291E003636000000562C
:10022000360000000814224114141414144122143E
:1002300008000201510906324979413E7E1111112F
:100240007E7F494949363E414141227F4141221C3E
:100250007F494949417F090901013E414151327FAE
:100260000808087F00417F41002040413F017F088E
:100270001422417F404040407F0204027F7F0408F7
:10028000107F3E4141413E7F090909063E4151210F
:100290005E7F09192946464949493101017F01011B
:1002A0003F4040403F1F2040201F7F2018207F6399
:1002B00014081463030478040361514945430000A2
:1002C0007F4141020408102041417F0000040201E7
:1002D00002044040404040000102040020545454B5
:1002E000787F484444383844444420384444487F64
:1002F0003854545418087E090102081454543C7FA1
:100300000804047800447D40002040443D00007F04
:1003100010284400417F40007C041804787C0804C5
:10032000047838444444387C14141408081414180D
:100330007C7C080404084854545420043F44402062
:100340003C4040207C1C2040201C3C4030403C4431
:10035000281028440C5050503C4464544C4400082D
:1003600036410000007F0000004136080008082ADE
:100370001C08081C2A08085A100105010000000882
:1003800000090F0A1E0B2D000E0E1D0E1D2B0F3A1D
:100390000E2B0F480A520F610A520F000E0E1D0E4F
:1003A0001D6B0E790D6B0E8610030303030303030D
:1003B0000303030603030603030303060303030304
:1003C00003030303030303030303030303030303FD
:1003D00003030306060303030303030303030303E7
:1003E00003030306030303030303030303030303DA
:1003F000060603030303060303060C0303030303B8
:1004000003030303030303030306030303030303B9
:1004100003030C0C03030303060303030303030397
:100420000306040404040404030303030303060390
:1004300003030304040403030303030C0C0C0C92D6
:1004400092009200749200AE000057000074000009
:10045000570049000062006E006862005792AEC407
:10046000009BAE00920074826E0000AEA49B8A00D6
:1004700092005C62740062748200AEA49B8A009257
:1004800000E800E8E80000008A0000820074000034
:10049000007474007400748200927400625700004B
:1004A0007474007400748292000092740057005CAF
:1004B00000629B009B6200006EC4C4C4AE9B927439
:1004C00000625700006E9B009B9B9282744900491A
:1004D0003A00000000050203010103020500112497
:1004E0001FBECFEFD8E0DEBFCDBF14E0A0E0B1E08B
:1004F000EEE3FDE502C005900D92A03BB107D9F7F0
:1005000025E0A0EBB4E001C01D92A43EB207E1F7E4
:100510000E94892A0C949D2E0C9400008091BF04A7
:100520008093C2048091BE048093C1048091BD0475
:100530008093C0048091B9048093BC048091B80476
:100540008093BB048091B7048093BA04089590917E
:10055000B004E0910001F091010128E0929FE00DCC
:10056000F11D11240680F781E02D309719F00995CF
:1005700081E0089580E008950F931F93CF939091A9
:10058000B004009100011091010128E0929F000D3C
:10059000111D11249091A9059093B3049091AA057F
:1005A0009093B6049091B604913069F59091DE0570
:1005B0009093BF049091DF059093BE049091E00565
:1005C0009093BD049091E1059093B9049091E20558
:1005D0009093B8049091E3059093B7042091B904E7
:1005E0009091BC0429130CC02091B8049091BB04D5
:1005F000291306C02091B7049091BA04291719F065
:1006000091E09093B504D8019C91992309F441C0DD
:10061000C82F833051F51092B4048091A305813026
:1006200059F49091D005913089F08093D005809352
:10063000B4041092C3040AC08091D005823031F016
:1006400082E08093D00581E08093B404D8011496B1
:10065000ED91FC91159709958091B604813011F4C4
:100660000E948E021092B10414C0813031F41092B5
:10067000D0058091CD050E9453160E948E0281E024
:100680008093B104D8011296ED91FC9113978C2FB1
:1006900009958091B604813031F41092B60410921D
:1006A000B5041092AA05CF911F910F9108958091E2
:1006B000B0048F5F8093B0048091B004893010F053
:1006C0001092B0048091B004E0910001F09101011A
:1006D00098E0899FE00DF11D112481810895FB01AF
:1006E0006AE00E94042E805D8083905D9183128277
:1006F0000895EF92FF920F931F93CF93DF9300D053
:1007000000D0CDB7DEB7F82EE62E0091D505E091EA
:10071000B804F0E0EE0FFF1FEA5AFE4F208131814E
:1007200040E08F2D0E945011182F80E28983809124
:10073000B904BE016E5F7F4F0E946F030091D50523
:100740009E012F5F3F4F40E06E2D8F2D810F0E9445
:100750005011810F873148F40091CD0547E1481BC6
:1007600025E06E2D8F0D0E94EE0E0F900F900F90D2
:100770000F90DF91CF911F910F91FF90EF9008950F
:10078000CF92EF92FF920F931F93CF93DF9300D0FE
:1007900000D000D0CDB7DEB7F82E162FE42E82E0C1
:1007A00048130EC08091B504813029F08091B104C6
:1007B000813009F06EC0612F8F2D0E94790369C0CE
:1007C0008091B404813029F08091B504813009F022
:1007D00042C08091D005813059F58091B4048130B8
:1007E000D1F58091CE05BE016F5F7F4F0E946F03F0
:1007F0008AE38B838091D405BE016C5F7F4F0E949A
:100800006F030091D5059E012F5F3F4F40E0612FA0
:100810008F2D0E94501191E0E9121DC00091CD056D
:1008200047E1481B25E0612F8F0D0E94EE0E13C09B
:100830000091CD0527E043E16FEF610F8FEF8F0D42
:100840000E94EE0E1092C30481E0E81204C0612FF2
:100850008F2D0E9479038091B304813031F480910F
:10086000B20483FB882780F901C080E09091C30423
:10087000891779F08093C304C090CD056FEF610FA5
:1008800084E0E82E02E027E043E18FEF8F0D0E9425
:10089000EA0C26960FB6F894DEBF0FBECDBFDF91EF
:1008A000CF911F910F91FF90EF90CF9008950F93EC
:1008B0000091D5052AE332E041E06EE081E20E943A
:1008C00050110091D50525E432E041E06EE182E16E
:1008D0000E9450112FEF8DE399E421508040904009
:1008E000E1F700C0000064E686EA9EE00E942F184F
:1008F00064E680EA9FE00F910C942F1880917A00B3
:10090000877F80937A0080917A00806480937A0058
:1009100080917A0084FFFCCF8091780090917900DB
:100920000895EAE7F0E0808188648083089526983E
:100930002E9A81E080936800EBE6F0E0808180648D
:10094000808382E080937C0010927B00EAE7F0E0F5
:100950008FE8808380818064808308951F920F9246
:100960000FB60F9211242F933F934F935F936F9382
:100970007F938F939F93AF93BF93EF93FF9378945D
:100980008091780090917900803E22E0920770F08B
:100990001092C8041092CA048091C504813021F4D9
:1009A0008093C4041092C50484E163C0833622E0BE
:1009B000920770F18091CA0482FD5AC08FE19EE4D3
:1009C0000197F1F700C000000E947E048256924019
:1009D0008E37910508F04CC08AEF8093C604809151
:1009E000C604882369F00E947E04825692408E37A6
:1009F0009105A8F31092CA0484E08093C90438C01A
:100A00001092C90484E08093CA048093C80430C063
:100A10008F309140B0F08091CA0481FD10C08FE109
:100A20009EE40197F1F700C000000E947E048E5002
:100A3000914085359140E0F482E08093C90482E0E2
:100A400013C08091CA0480FD0EC08FE19EE401971F
:100A5000F1F700C000000E947E048F30914040F406
:100A600081E08093C90481E08093CA041092C80495
:100A700082E08093C704FF91EF91BF91AF919F9166
:100A80008F917F916F915F914F913F912F910F9037
:100A90000FBE0F901F9018951F920F920FB60F92D6
:100AA000112478940F900FBE0F901F90189590917D
:100AB000C404913021F41092CD041092C40490919A
:100AC000C804992369F091E09093C5049091CD04F6
:100AD0009A3020F49F5F9093CD0404C08E5F03C0D2
:100AE0001092CD048F5F0E94042E892F08950F93DA
:100AF0001F93CF93DF938C01EB0166E080E00E94AF
:100B00000B16C8010E946A13209759F067E080E035
:100B10000E940B16CE01DF91CF911F910F910C9483
:100B20006A13DF91CF911F910F9108950F931F9337
:100B3000CF93DF938C01EB0166E080E00E940B16FF
:100B400088EA92E00E946A13C8010E946A1367E073
:100B500080E00E940B168BEB92E00E946A13CE019C
:100B60000E946A138B81811108C089E393E0DF91B1
:100B7000CF911F910F910C946A13DF91CF911F9128
:100B80000F910895CF93DF9362E080E50E940B16EA
:100B9000C2E7D1E08A810E9456138AE30E946E1355
:100BA00089810E9456138AE30E946E138881DF9127
:100BB000CF910C9456130F931F93CF93DF93D82F9D
:100BC000C62F042F122F63E088E00E940B168DECD5
:100BD00092E00E946A134D2F602F8C2F0E946D1897
:100BE000E82FF0E0EE0FFF1FE65BFE4F8081918162
:100BF0000E946A131C3019F46091CD0502C0609107
:100C0000D505EC2FF0E0EE0FFF1FEA5AFE4F808172
:100C100091810E945A1380E20E946E13802F1D3032
:100C200019F40E94521302C00E9456138CE20E94D3
:100C30006E1384E11E3049F40E9452138D2FDF9110
:100C4000CF911F910F910C9452130E9456138D2F28
:100C5000DF91CF911F910F910C9456130F93CF9367
:100C6000C82F0091D50521E047E0682F80E00E9461
:100C7000EE0E0091D5056FEF6C0F23E041E085E0AB
:100C80000E94CA120091D5056EEF6C0F25E041E07D
:100C900084E00E94CA12CF910F9108958091C804F8
:100CA000882349F02FE789EA93E021508040904063
:100CB000E1F700C000000895CF938091C9048093AC
:100CC000CC041092C90480FD2DC081FF03C0109296
:100CD000CD0406C0811104C08091C804882321F08E
:100CE0008AE08093CB0404C08091CB048823D1F0A8
:100CF000909172018091CF04981739F081E0809330
:100D0000CE04809172018093CF04C091D004C111B0
:100D10000BC08091CE04813041F41092CE040E9429
:100D2000C20503C0C1E001C0C0E08C2FCF9108957F
:100D3000CF93C82F64E088E00E940B1683ED92E009
:100D40000E946A138091CD05811108C089E393E068
:100D50000E946A136C2F81EE92E003C06C2F88EE24
:100D600092E0CF910C945A13AF92BF92CF92EF9230
:100D70000F93CF93DF93EC015B0160E080E00E9472
:100D80000B1680EF92E00E946A13C090CD05E12C13
:100D900002E028E042E060E08EE70E94EA0C61E0B9
:100DA00088E00E940B1686E093E00E946A1362E0DE
:100DB00088E00E940B168BE193E00E946A130E9468
:100DC000C205E2E7F1E043816481858127E00E946A
:100DD000DB058091D5050E94980665E088E00E94B9
:100DE0000B1688E293E00E946A138091B4000E947F
:100DF0005613B501CE010E947705C090CD0520E1C4
:100E000042E060E38EE70E94EA0CC090CD0528E244
:100E100048E068E080E00E94EA0CDF91CF910F91FA
:100E2000EF90CF90BF90AF900895AF92BF92CF92C6
:100E3000DF92EF92FF920F931F93CF93DF9300D037
:100E400000D0CDB7DEB78091CD050E9453168091BA
:100E500072018093CF041092CE041092D00410E05F
:100E6000183031F06BE373E081E593E00E94B40643
:100E70008AE08093CB041092C9041092CD041530FF
:100E800009F478C188F4112301F1143009F072C318
:100E90001091750100917601D09077018BE10E944D
:100EA0002E0647E0F42E15C2173009F4AFC21F30EA
:100EB00009F060C360E070E08AE993E00E94770582
:100EC0008BE20E942E0618E006C38BE00E942E06DD
:100ED0000E945C06813009F43DC38091CC0481FFFF
:100EE000F7CF81E08093D004A5E0FA2EBAE0BB2EC4
:100EF000B092CB041092CD0481E1F81631F18F1538
:100F000038F085E0F81691F080E1F816D1F016C0BF
:100F100082E1F81639F083E1F81210C014E074E1B0
:100F2000F72E16C013E0F3E1FF2E12C08091CD051D
:100F30000E94531610E0E0E1FE2E0AC01092D00489
:100F400009C311E061E1F62E03C012E052E1F52E73
:100F5000D090A80560E080E00E940B1687E693E041
:100F60000E946A1301E0602F88E00E940B1688E758
:100F700093E00E946A13802F0E9456138FE793E03C
:100F80000E946A13AE014F5F5F4FBE016E5F7F4FDD
:100F90008FEF800F0E94E3178A810E9456138AE325
:100FA0000E946E1389810E9456130F5F0530D9F697
:100FB00065E088E00E940B1687E893E00E946A13C0
:100FC0008091A8058F5F0E945613C090CD05E12C3B
:100FD00002E028E247E068E080E00E94EA0C6BE370
:100FE00073E0143019F081E593E002C08AE993E0E0
:100FF0000E947705812F880F880F880F855F0E94D8
:101000002E06143049F0AE014D5F5F4FBE016C5F9C
:101010007F4F812F0E94E31705E0AA24A394A10E1D
:101020000E945C06813009F4A0C08091CC0481FF4D
:101030004DC00530C9F4143079F465E084E70E94AE
:101040000B1681E08D0D0E94521360EB73E0CB0113
:101050000E94960504E13AC064EB73E089EB93E0EB
:101060000E94960505E632C0053639F46DEB73E053
:10107000CB010E94960506E629C00431A1F465E083
:1010800084E70E940B1681E08D0D0E9456136D2D92
:1010900087E090E00E948F2ED092A8056BE373E06A
:1010A0008AE993E009C04B816C81812F0E94081866
:1010B0006BE373E081E593E00E94770544ED55E032
:1010C0006EEC75E08D2D0E94E31705E08091CC0455
:1010D00082FD04C08091C804882309F1043171F4B1
:1010E000D39483E08D1508F4D12C65E084E70E9449
:1010F0000B1681E08D0D0E94521311C0053641F48C
:101100008C818F5F8C838C81883148F01C8207C072
:10111000063629F48B816CE30E9457058B838091FE
:10112000CC04811104C08091C8048823D9F0143004
:10113000C9F0EB80CC806A2D82E60E940B168C2DC4
:10114000053619F40E94521302C00E9456138AE316
:101150000E946E138E2D063619F40E94521302C09F
:101160000E9456130E944E065BCF8091CB048111E2
:10117000BFCEF0C183E10E942E06D12CF12C00E0FD
:1011800014E0CC24C3940E945C06813021F41092B8
:10119000D00414E0E2C18091CC0481FF35C0C0923C
:1011A000D004143071F400917401F0907301D09068
:1011B000720164EB73E089EB93E00E94960515E6FB
:1011C00023C0153639F46DEB73E0CB010E94960510
:1011D00016E61AC0163639F461EC73E0CB010E94B2
:1011E000960517E611C06BE373E081E593E00E947A
:1011F000770500937401F0927301D09272010E94FE
:10120000221A1092D00414E0E090CC04E2FC04C056
:101210008091C8048823C1F0153631F40F5F08317E
:1012200008F4A0C100E09EC1163631F46CE38F2DA6
:101230000E945705F82E18C01736B1F46CE38D2DB7
:101240000E945705D82E10C0E11004C08091C80438
:10125000882371F162E080E50E940B16153651F487
:10126000802F0E94521309C0EE2081F362E080E5D6
:101270000E940B16802F0E9456138AE30E946E1361
:101280008F2D163619F40E94521302C00E94561375
:101290008AE30E946E138D2D173619F40E945213A3
:1012A00002C00E9456138091CC0480FD1092D0049D
:1012B0000E944E0668CF8091CC0481FD0FC08091C2
:1012C000CC0482FD44C08091C804811140C00E94BA
:1012D0004E060E945C06813071F73EC187E0F8122D
:1012E00008C065EC73E0CB010E9496053CE0F32E4C
:1012F00027C08CE0F81208C069EC73E0CB010E94B3
:1013000096052DE0F22E1CC08DE0F81209C06DECA0
:1013100073E082ED93E00E9496059EE0F92E10C0E6
:101320006BE373E081E593E00E947705D09277014B
:1013300000937601109375010E94221A87E0F82E1F
:101340002F2D412F602F8D2D0E94DB05B8CF8EE011
:10135000F81211C064E68D2D0E945705D82E90E03A
:101360000E94AF1881114BC0023009F048C01D31F6
:1013700008F445C03FC08CE0F8121EC081E0800F29
:101380008D30B0F5823069F41E3108F01DE18D2DED
:1013900090E00E94AF1802E0811131C01D3151F17F
:1013A0002EC0843029F0863019F00D7F083021F5E9
:1013B0001F3110F11EE120C08DE0F81220C01F5F28
:1013C0001032E0F4023059F41E31C0F48D2D90E05B
:1013D0000E94AF18811113C01D3181F010C0802F01
:1013E0008D7F843011F0893051F41F3139F007C0FE
:1013F00001E005C01CE103C0082F01C011E02F2D42
:10140000412F602F8D2D0E94DB0561CF83E20E946A
:101410002E061FE00E945C06813041F46091CD05EC
:1014200086E090E00E948F2E1FE097C08091CC0450
:1014300081FF19C01F3061F48091CD050E9498068C
:1014400066ED73E08CEE93E00E9477051AE60BC020
:101450008091D5050E9498066BE373E081E593E0E7
:101460000E9477051FE08091CC0482FD04C080912A
:10147000C8048823B9F01A36A9F48091CD0590915B
:10148000D5059093CD058093D50566ED73E08CEE80
:1014900093E00E94B40683E20E942E068091CD055F
:1014A0000E9498060E944E06B5CF8091CC0481FD23
:1014B0001EC08091CC0482FD30C08091C80481118F
:1014C0002CC08091CC04811137C08091C804811157
:1014D00033C00E944E060E945C06813031F7609155
:1014E000B40081E090E00E948F2E18E036C065E0E5
:1014F00084E70E940B16183041F466ED73E08CEE21
:1015000093E00E94770519E6D4CF6BE373E08AE994
:1015100093E00E94770518E0CCCF193691F68091C0
:10152000B400803118F01092B400CBCF8091B40099
:101530008F5F8093B400C5CF65E084E70E940B16EF
:101540008091B400193619F40E945213C2CF0E9440
:101550005613BFCF15E001C017E08091CB04811175
:101560007FCC08C0EE2009F471CE62E080E50E94D5
:101570000B1676CE0F900F900F900F90DF91CF91BA
:101580001F910F91FF90EF90DF90CF90BF90AF90A1
:101590000895E82FF0E0EA52FB4F677081E090E099
:1015A00001C0880F6A95EAF79081892B808308959E
:1015B0002091D4049091D304291789F09091D504F7
:1015C000E091D104F091D204911105C0EE52FF4F89
:1015D000E491EF7105C0E956FE4FE49101C0E0E0EF
:1015E000811101C0E0958E2F08959091D504E82FC8
:1015F000F0E091111DC09FE9980F9A3120F08B37D0
:1016000020F480E003C080E201C08AE1B097E81BCB
:10161000F109E457FF4FE4918E2F90E0FC01EE5268
:10162000FF4FE491E295E695E770E093D3040895C7
:1016300025E02093D304B0972E9FC0012F9F900DDB
:1016400011240895EF92FF920F931F93CF93DF938E
:10165000C82F042F0E940B1686EDE82E84E0F82E8A
:1016600010E0D0E0C65DD4401017A1F0112339F08E
:10167000CE018E0D9F1D8F739927892B11F40E9427
:10168000DB150E94DB15F70181937F010E94131681
:101690001F5FEACFDF91CF911F910F91FF90EF90E5
:1016A00008952F923F924F925F926F927F928F9206
:1016B0009F92AF92BF92CF92DF92EF92FF920F93E1
:1016C0001F93CF93DF9300D01F92CDB7DEB78B83EC
:1016D000162FB42EA22E842F880F93E0981B998387
:1016E000862F90E050E09C01240F351F63E0359574
:1016F00027956A95E1F7722E9924939422E0A2121D
:10170000912C20E0E22FF0E0EA5EFA4F10822F5F8A
:10171000B216C0F7841B950B23E0959587952A9503
:10172000E1F78A8330E4832E682C3B81631A532EC1
:10173000550C432E4A943A81731608F4FFC0EB2CE3
:101740003980C12CDD24DA94212CF12CEF140CF417
:1017500077C0AA2051F083E0A81203C0222029F00C
:1017600054C08F2D8170891150C0612F6E0D862F4E
:101770008695869586959A81981306C080E48F0D8C
:101780000E94C90A81E001C080E0612F6E19962F86
:101790009695969596952A81291305C080E48F0D1C
:1017A0000E94C90A02C0813041F48B818F0D8D15D2
:1017B00008F4D82EC81608F4C82E612F6F0D862F96
:1017C0008695869586953A81381306C080E48E0DFD
:1017D0000E94C90A81E001C080E0612F6F19962F35
:1017E0009695969596952A81291305C080E48E0DCD
:1017F0000E94C90A02C0813041F48B818E0D8D1583
:1018000008F4D82EC81608F4C82E37FE08C096E093
:10181000930D8F2D880F880F392E380E09C08F2D0C
:101820008E19880F880F9AE0930D382E390EEA949E
:1018300032E0231611F0239401C0212CF39486CFBB
:101840008FEFD81204C09A819F5F9A8374CF41E0D2
:101850004C0D4D196A818D2D0E94220B6A818D2DB0
:101860000E940B16262C2D0C312CEC2CF12CED1893
:10187000F108832D820DA32DB0E0EA16FB06A4F03B
:10188000AA52BB4F90E0FC01EA52FB4F013021F419
:101890009C918081892B04C0808180959C918923B3
:1018A0000E9427163394E5CF2B812C19C22EFB8082
:1018B000F20EE52CED183B813E1102C0442D01C013
:1018C0004E2D4F1558F081E08F19480F6A818F2DEA
:1018D0000E94220B6A818F2D0E940B16282C2C1837
:1018E000312C8E2D90E09C012F1931097901222D88
:1018F0002319832D90E0E816F9060CF4A4CFC22E2C
:10190000D12C2034A9F0FC01EA52FB4F013039F40C
:101910009081F601EA52FB4F8081892B07C0D601E6
:10192000AA52BB4F8C918095908189230E942716E3
:10193000F601EA52FB4F10823394D9CF0F900F90EB
:101940000F90DF91CF911F910F91FF90EF90DF905B
:10195000CF90BF90AF909F908F907F906F905F904F
:101960004F903F902F900895FF920F931F93CF9326
:10197000DF93082FF42E862F8770C1E0D0E001C0DE
:10198000CC0F8A95EAF7162F169516951695612FA6
:10199000802F0E940B160E94DB150E94DB1591E040
:1019A000F91202C0C82B02C0C095C823C81761F045
:1019B000612F802F0E940B168C2FDF91CF911F91EA
:1019C0000F91FF900C942716DF91CF911F910F91EB
:1019D000FF9008952F923F924F925F926F927F9265
:1019E0008F929F92AF92BF92CF92DF92EF92FF922F
:1019F0000F931F93CF93DF93CDB7DEB728970FB622
:101A0000F894DEBF0FBECDBF782E642EB22E1E2DF1
:101A1000562E569456945694462F4770D42E011144
:101A200017C0123039F4842F63E00E94042E919580
:101A30009F834AC0133031F4842F6E2D0E94042EF0
:101A40009F8320C1113009F01CC161706F831AC1DE
:101A5000013031F5123069F4842F90E0820F911D2E
:101A600091958195910963E070E00E94322E8F5F1D
:101A70000BC0133061F4842F90E0820F911D019709
:101A800063E070E00E94322E8F8300E01DC01130B1
:101A900009F0F7C081E0820F840F81708F83F2C05C
:101AA000082F123029F4862F90E0841B910907C07B
:101AB000133009F0E9C0842F90E0861B910963E0A0
:101AC00070E00E94322E8F835F8157FF02C05D5FFE
:101AD0005F83F12C1886E12CA12C8B2D90E09B8349
:101AE0008A839EEF910F9C83E02F002E000CFF0B4A
:101AF000FE83ED83AB1408F0D0C08A2C912CD1105A
:101B000008C08A819B8188199909089714F01430BC
:101B100041F4462D652D872D0E94220BF1E0F983BB
:101B200001C01982652D872D0E940B162D2D30E0E6
:101B30004A815B814819590988E090E0821B930B28
:101B4000481759071CF42B2C2A1803C098E0292E9B
:101B50002D184C81423068F48D819E815F81850F04
:101B6000911D57FD9A9563E070E00E94322EF82E89
:101B700008C0113031F48F81802780FD1BC08AEAB4
:101B8000888788E090E082199109EFEFF0E002C0C9
:101B9000F595E7958A95E2F7CF0101C0880F2A9560
:101BA000EAF7482ED82ED09486ED882E84E0982E21
:101BB000312C1DC0F5E5F887E4CF9E2D90959887D0
:101BC000CC2009F444C0F8E02F1609F447C0ED20FA
:101BD00088858421E82A8E2D0E94271642E0F4167B
:101BE00009F43EC0F39433945FEF851A950A3614D6
:101BF00009F438C04981413011F4F401E080112327
:101C000009F444C0153009F444C0113049F4F1E03E
:101C1000CF1611F031103EC04885409548873AC034
:101C2000123049F4EF2D0F2C000CFF0BE757FF4F3C
:101C3000549158872FC0133009F0BFCFEF2D0F2CD0
:101C4000000CFF0BEA57FF4F8491888723C01430A4
:101C500009F4B9CFE885E095E887B5CFE884BBCF34
:101C6000F12CC1CF5394123021F48F818E5F8F837A
:101C700005C0133019F49F819F5F9F83A20CD12C64
:101C800039CF1F8200E025CF1F8223CFEFEFE887F7
:101C900001C01886C11097CFDDCF28960FB6F894F3
:101CA000DEBF0FBECDBFDF91CF911F910F91FF908F
:101CB000EF90DF90CF90BF90AF909F908F907F90EC
:101CC0006F905F904F903F902F9008958F929F92CA
:101CD000AF92BF92CF92DF92EF92FF920F931F933A
:101CE000CF93DF93D82EB62EA22E902ED42F842FF2
:101CF000880F13E0181BF12C88248394C0E0DC17B4
:101D00000CF45FC0CD1719F117FD49C081E08812AE
:101D100001C0FF0C2D2F220F2F5FC92CEA2C02E0EF
:101D200041E04F0D6B2D6D1B8D2D8C1B0E94EA0C1D
:101D3000CC23E1F12C2F220F2F5F41E06B2D6C1B88
:101D40008D2F8D0D0E94EA0C811017C006C0CC2388
:101D500021F117FD24C0811011C02D2F220F2F5FFC
:101D6000C92CEA2C02E041E04F0D6B2D6D1B8C2F2E
:101D70008D0D8F190E94EA0CCD13F12C2C2F220F00
:101D80002F5F41E04F0DC92CEA2C02E06B2D6C1B3C
:101D90008D2D8D1B0E94EA0C09C017FF07C01A5F2A
:101DA0008C2F880F880F180FF39409C08C2F8D1B70
:101DB000880F880F165F180FD150F12C812CCF5F40
:101DC0009ECFDF91CF911F910F91FF90EF90DF9009
:101DD000CF90BF90AF909F908F900895CF92EF9249
:101DE0000F93C02EE12C02E00E94EA0C0F91EF90BD
:101DF000CF9008951F93CF93DF938093D504EB0189
:101E000010E08991882339F00E94F50A8091D3046B
:101E10008F5F180FF6CF812FDF91CF911F9108951B
:101E20002F923F924F925F926F927F928F929F92EA
:101E3000AF92BF92CF92DF92EF92FF920F931F93D8
:101E4000CF93DF9300D000D01F92CDB7DEB78C8345
:101E5000D62E0B83F42EF81A3F2D822F861B8D83EE
:101E60001F140CF4C9C0F194982F97FD91959D8390
:101E700091E0311101C090E0992E919418164CF028
:101E800091E0811101C090E0C92EC19404C0992451
:101E90009394CC24C3946D8066945F2C56948D2CBF
:101EA000869486948694022F0695069506950819C1
:101EB00007FD01950F5F8D81F81618F0FA821982DF
:101EC00004C09D819A8381E08983842F9C81491776
:101ED00008F4892F9C81941708F4492F841738F04F
:101EE000E42FF0E0EA52FB4F10824F5FF7CF212C36
:101EF000712C10E0822D90E0801791070CF086C0C5
:101F00006D2D8C810E94C90A3C80E32C8A81781651
:101F100050F5498141110AC08D81580E5F1410F0AF
:101F20005F18DC0C9C81990D9C8309C06F0C4D815E
:101F3000641620F0641A8C81890D8C83DC0C8D2D45
:101F400086958695869588120EC09C819E1508F40C
:101F5000E92E4C81341608F4342E6D2D8C810E94AC
:101F6000C90A7394D3CF682D8E2D0E940B16BE2CF8
:101F700044244A943B1420F1BE1419F08B2D8F7326
:101F800011F40E94DB150E94DB152B2D30E09B81A4
:101F9000F901EA52FB4F913019F49081982B03C05C
:101FA0009081909598234FEF441202C098134B2CC8
:101FB000F901EA52FB4F90830E941316B394DACFD3
:101FC00047FC14C0682D842D0E940B160FC0AE2C48
:101FD000B12CE41430F0F501EA52FB4F80810E94ED
:101FE0002716F501EA52FB4F1082E3943E1478F76E
:101FF0008C0C739423947ECF9D8119160CF447CFDB
:102000009D8191959D83992493943ACF0F900F9041
:102010000F900F900F90DF91CF911F910F91FF9034
:10202000EF90DF90CF90BF90AF909F908F907F9078
:102030006F905F904F903F902F9008952F923F9216
:102040004F925F926F927F928F929F92AF92BF92C8
:10205000CF92DF92EF92FF920F931F93CF93DF9374
:10206000CDB7DEB72F970FB6F894DEBF0FBECDBF4A
:102070008E834B832B873C87962E969496949694CA
:1020800067706983B901842F0E94FA0E809F502CDB
:1020900011242B81222311F087E001C085E08E9D61
:1020A000402C1124B12C812CF12CA12C10E01D828C
:1020B000D12C842D90E09A878987D41408F0D6C05B
:1020C0006D2C712CF981EF2FF0E0F887EF832981D7
:1020D000211106C089859A85861997090897C4F445
:1020E000452D692D8E810E94220B89859A8586193E
:1020F0009709EF81F8858E0F9F1F09972CF0F8E064
:102100002981F21BFF8706C0342D3D193F8702C08D
:1021100088E08F87692D8E810E940B1688E090E001
:10212000EF858E1B91092FEF30E002C03595279582
:102130008A95E2F7098001C0220F0A94EAF72C83FE
:1021400031E0098001C0330F0A94EAF73D878B859F
:1021500089839C859A836F2C7A2C212C312C1E86A6
:102160002B82251408F07BC09091D4048091D30475
:10217000891718F0EB81E1112AC01092D404E9818B
:10218000FA818191FA83E9830E94F50A9093D2043F
:102190008093D104FE85F01719F02B8121111AC00C
:1021A0008C2D0E94D80A8D838091D4048F5F8093F8
:1021B000D4048091D1049091D20401969093D204DA
:1021C0008093D1043F85383079F01E8606C0EE85B5
:1021D000E01731F38F85883021F0F101EA52FB4F8F
:1021E00010819E8591112BC0ED818E2F90E0F1E042
:1021F0000F2C02C0959587950A94E2F7EF120BC059
:102200000F8001C0880F0A94EAF7B82E6F846F0C14
:102210008C807A2C13C02D856F2C7A2C9F85B12C45
:10222000992359F080FDB22A7394E71003C0869574
:102230006394712C220F9150F3CF8C801E86882DD1
:1022400080951823882D8B21182B812F0E9427160B
:102250002E852F5F2E873FEF231A330A81CF939469
:102260009F85D90E1982F62CA72C27CF852D2F9666
:102270000FB6F894DEBF0FBECDBFDF91CF911F9197
:102280000F91FF90EF90DF90CF90BF90AF909F9015
:102290008F907F906F905F904F903F902F90089518
:1022A000CF92EF920F93C02EEE24E39401E00E94B0
:1022B0001E100F91EF90CF9008952F923F924F9262
:1022C0005F926F927F928F929F92AF92BF92CF92C6
:1022D000DF92EF92FF920F931F93CF93DF93CDB7CF
:1022E000DEB763970FB6F894DEBF0FBECDBFD82E12
:1022F0004A8329831801EB86562E56945694569499
:102300006770962EB801842F0E94FA0E8C9D602C67
:1023100011242A81222311F087E001C085E03B854A
:10232000839F402C11244981423041F48150898798
:10233000D394D4181A8651E05E8305C087E08A875B
:1023400019869FEF9E831D821B8200E01B8AE62D6B
:10235000F0E0F887EF833B89361508F001C1F98179
:10236000F23019F491100EC006C02981213019F401
:1023700037E0931207C08F8198854B89841B9109A0
:1023800008975CF5442D652D8D2D0E94220B5981F7
:10239000523061F48F819885EB898E1B9109890DEC
:1023A000911D0997B4F018E0191918C0F981F1309E
:1023B00081F48F8198852B89821B910928E030E078
:1023C00029193109820F931F09971CF011E0190D8B
:1023D00005C0162D3B89131B01C018E0652D8D2DFE
:1023E0000E940B16412F50E088E090E0841B950B73
:1023F000EFEFF0E002C0F595E7958A95E2F7CF019F
:102400009927F981F23041F4282F092C01C0220FBD
:102410000A94EAF72A8B0CC0292D30E02F5F3F4F3A
:10242000241B350B482F01C0440F2A95EAF74A8B2D
:1024300081E001C0880F9A94EAF78C877101598571
:102440005C83BB80912C9D81892F90E0988B8F8736
:10245000EA89E095E98B941408F076C0FD81F09349
:10246000D404F10180810E94F50A2F853889820FFA
:10247000931F9093D2048093D1048A2D0E94D80A8E
:1024800041E050E00C8002C0440F551F0A94E2F76F
:102490005E874D8771017C84BB801A83812C3A81D1
:1024A0003323C1F1282F30E0ED85FE852E233F2315
:1024B000232B09F08728F981F23011F4770C01C041
:1024C0007694B394CB1022C08091D4049091D3041D
:1024D000891749F08F5F8093D4048091D104909143
:1024E000D20401960BC01092D404F7018181882395
:1024F00049F0FFEFEF1AFF0A0E94F50A9093D20409
:102500008093D1048A2D0E94D80AB12C2A812150AF
:102510002A83C5CF7B84790C4A898422971479F069
:10252000183029F0E92DF0E0EA52FB4F008159897B
:1025300005230829802F0E9427169394EFCF8C81C2
:102540009E81891B8C8387CFEE815E0EF091D4042F
:10255000FD832B89210F2B8B17019A84BB82FBCE25
:10256000862D63960FB6F894DEBF0FBECDBFDF9108
:10257000CF911F910F91FF90EF90DF90CF90BF9080
:10258000AF909F908F907F906F905F904F903F9013
:102590002F900895AF92BF92CF92DF92EF92FF9269
:1025A0000F931F93CF93DF934423A1F1222391F143
:1025B000D02E122FC42FF62ED82F4330C0F08EEF1E
:1025C000A82EA40EBB24B394BD0EC02EE12C02E0B5
:1025D00021E04A2D8B2D0E94EA0C123040F06FEF63
:1025E0006F0D610F21E04A2D8B2D0E94EA0CCD2C3E
:1025F000E12C02E0212F41E06F2D8D2F0E94EA0C8B
:10260000C23040F08FEF8D0F212F41E06F2D8C0FE6
:102610000E94EA0CDF91CF911F910F91FF90EF90F4
:10262000DF90CF90BF90AF900895FF920F931F93CC
:10263000CF93DF93F62E90E0809725E0289F8001CE
:10264000299F100D1124C0E0D0E0F801EC0FFD1F10
:10265000E956FE4F8491F11001C080950E94271623
:102660002196C530D10589F7F11002C08FEF01C066
:1026700080E0DF91CF911F910F91FF900C9427166E
:10268000CF93DF93C62F6AE00E94042ED92F6C2FC0
:10269000805D0E9415136C2F80E38D0FDF91CF9129
:1026A0000C9415136091CD050C9440136091D505E1
:1026B0000C9440131F93CF93DF93162FEC01899155
:1026C000882321F0612F0E941513F9CFDF91CF915C
:1026D0001F9108956091D5050C945A136091D5050A
:1026E0000C941513ECEBF0E080818F70806C80838C
:1026F0000895459A449A10925905109258051092DF
:1027000057051092560580E28093B800ECEBF0E09C
:1027100080818460808310929D05808181608083A8
:102720008081806480837894089580E28093B800EB
:102730000895ECEBF0E080818F70806A80830895CB
:10274000ECEBF0E080818F70806D80830895809144
:10275000BC0087FFFCCF08958093BB00ECEBF0E05A
:1027600080818F7080688083089581110C9472132A
:102770008091BC008F7080688093BC000895809128
:10278000BB000895FF920F931F93CF93DF93C82F41
:10279000162FF42E052F8091BC008E7F8093BC00F5
:1027A0000E9499130E94A7138C2F8E7F0E94AC1356
:1027B0000E94A7138091B900883169F4CF2DD02FE2
:1027C000112339F089910E94AC130E94A713115074
:1027D000F7CFC0E001C0C1E00E94A0138091BC000F
:1027E00084FFFCCF8091BC0081608093BC008C2F63
:1027F000DF91CF911F910F91FF900895FF920F935A
:102800001F93CF93DF93C82F162FF42E052F80919F
:10281000BC008E7F8093BC000E9499130E94A71376
:102820008C2F81600E94AC130E94A7138091B90085
:102830008034B9F4CF2DD02F123048F00E9472139B
:102840000E94A7138091BB0089931150F5CF80E0BF
:102850000E94B5130E94A7138091BB008883C0E03B
:1028600001C0C1E00E94A0138091BC0081608093F0
:10287000BC008C2FDF91CF911F910F91FF90089595
:102880001F920F920FB60F9211242F933F934F93E5
:102890005F936F937F938F939F93AF93BF93EF93C8
:1028A000FF938091B900887F803609F490C078F555
:1028B000883209F45CC090F4803109F456C038F4D1
:1028C000882309F4E6C0883009F44FC0EAC0883193
:1028D00009F44DC0803209F467C0E3C0803409F4C4
:1028E0008DC058F4803309F45FC0883309F0D9C033
:1028F0008091BC008F708068D0C0803509F457C0CB
:10290000883509F445C0883409F0CBC04DC08839FA
:1029100009F474C0A8F4883709F459C038F488362B
:1029200009F455C0803709F452C0BBC0883809F497
:1029300065C0803909F451C0803809F0B2C04DC07B
:10294000803B09F472C038F4803A09F45BC0883ADD
:1029500009F46BC0A6C0803C09F496C0883C09F419
:1029600093C0883B09F472C09CC080E00EC0E09127
:102970007C0580917B05E817B8F481E08E0F809389
:102980007C05F0E0E358FA4F80810E94AC1389C0C7
:10299000E0915A0581E08E0F80935A058091BB002B
:1029A000F0E0E55AFA4F80830E94A01378C080912E
:1029B000BB00E0915A0591E09E0F90935A05F0E01C
:1029C000E55AFA4F808390E00E949D1A17C085E077
:1029D00080939D0510925A054BC0E0915A0581E005
:1029E0008E0F80935A059091BB00F0E0E55AFA4FA4
:1029F0009083803218F40E94721353C080E00E94CA
:102A0000B5134FC08091BC008F70806C8093BC0068
:102A1000E0915805F0915905309709F440C06BE5F5
:102A200075E080915A0509953AC084E080939D0530
:102A3000E0915605F0915705309731F06DE775E05C
:102A400080E2099580937B0510927C05E0917C05DE
:102A500081E08E0F80937C05F0E0E358FA4F80818F
:102A60008093BB0090917C0580917B05981728F49A
:102A70008091BC008F70806C04C08091BC008F700E
:102A800080688093BC000DC08091BC008F70806C0A
:102A900004C08091BC008F70806D8093BC00109248
:102AA0009D05FF91EF91BF91AF919F918F917F9184
:102AB0006F915F914F913F912F910F900FBE0F90AB
:102AC0001F901895F89440985A98882321F08130E7
:102AD00019F45A9A01C0409A8BB1806F8BB985B1B5
:102AE0008F6085B92F988AB18F708AB984B1807F41
:102AF00084B92D9A2C9A0000000089B193B12C98CA
:102B000087FF08C000000000000000002C9A0000B1
:102B10000000F1CF2D988AB1806F8AB984B18F609F
:102B200084B978940895CF93C62FF8940E946215C3
:102B30002F982D982C9A8AB1806F8AB984B18F60B2
:102B400084B98BB18F708BB98BB19C2F907F892BFF
:102B50008BB985B1807F85B985B1CF70C82BC5B9D8
:102B60000000000000000000000000000000000065
:102B70002C987894CF910895682FEEE9F5E0818341
:102B8000829586958695837080836F7360640C94BC
:102B90009315682F67706093A00580919E05E82FBC
:102BA000F0E0E256FA4F9381691721F06383686B76
:102BB0000C9493150895F89480919E050E946215D7
:102BC0002F9A8AB18F708AB984B1807F84B92D9A87
:102BD0002C9A00000000000000000000000000002F
:102BE000000029B193B12C982D987894207F892FDB
:102BF0008F70822B089560EC80E00E9493156FE344
:102C000080E00E94931560EC81E00E9493156FE3D1
:102C100081E00C949315CF93C62F0E94BC158C2F86
:102C2000CF910C94C91580919F058F3718F080E0E3
:102C30000C94BC158F5F80939F05982F9F7331F480
:102C40000E94BC158091A0050C94C9150895CF93DE
:102C5000C82FF89480919E050E9462152F9A2D9896
:102C60002C9A8AB1806F8AB984B18F6084B98BB194
:102C70008F708BB98BB19C2F907F892B8BB985B1CD
:102C8000807F85B985B1CF70C82BC5B90000000021
:102C90000000000000000000000000002C98789464
:102CA000CF910C9413161F93CF93DF9391E0813053
:102CB00009F090E0D92FD195C0E06C2F80E00E9400
:102CC0000B1610E08D2F0E9427161F5F1038D1F7CA
:102CD000CF5FC83091F7DF91CF911F910C94FB1516
:102CE0002F982D982C9840985A98279A259A249A8C
:102CF000389A529A9BB19F709BB995B1907F95B9C4
:102D00009AB1906F9AB994B19F6094B9EEE9F5E0E9
:102D10009FEF938394830C94531680E28093710108
:102D20008091AC058093AD0581E08093700108959A
:102D30001F920F920FB60F9211242F933F934F9330
:102D40005F936F937F938F939F93AF93BF93EF9313
:102D5000FF938091B205882329F08091B2058150BC
:102D60008093B2058091C604882329F08091C6041F
:102D700081508093C6048091C704882359F08091C4
:102D8000C70481508093C7048091C704811102C099
:102D90000E9491048091A905813009F092C0809130
:102DA000A4059091A505892B09F08BC08091B005F1
:102DB0009091B105892B09F07AC09091AD05809171
:102DC000AC053091700198131CC03130D1F4809162
:102DD0007101803219F41092710103C08E5F8093EB
:102DE00071018091710190E0FC01E957FC4F249141
:102DF0002093AD05FC01E857FC4FE491E20FE0930E
:102E0000AC058091AD05313001F51092700190E074
:102E1000FC01E15CFB4FE49129E0E29FF001112409
:102E2000F093AF05E093AE05FC01E755FC4F8491AC
:102E300023E6829FC001112463E070E00E941E2EF1
:102E40007093B1056093B00510C091E0909370014C
:102E50001092AF051092AE0521E330E03093B1053A
:102E60002093B0058F5F8093AD058091AE05909162
:102E7000AF05892B21F410928100439818C010925D
:102E8000800089E08093810083E080936F0020912F
:102E9000AE053091AF0540E050E060E079E08DE3B1
:102EA00090E00E94462E3093890020938800809104
:102EB000B0059091B10501979093B1058093B0054D
:102EC0000FC08091A6059091A705019649F4109234
:102ED000810043981092A7051092A6050E948D16B6
:102EE000FF91EF91BF91AF919F918F917F916F91E2
:102EF0005F914F913F912F910F900FBE0F901F90B8
:102F000018951F920F920FB60F9211248F939F93D3
:102F100098B188E0892788B99F918F910F900FBE53
:102F20000F901F9018951F920F920FB60F921124B9
:102F30002F933F934F935F936F937F938F939F93C1
:102F4000AF93BF93EF93FF930E948117FF91EF918F
:102F5000BF91AF919F918F917F916F915F914F91B1
:102F60003F912F910F900FBE0F901F9018951E9BB1
:102F700018C08091A305813029F51092A305109205
:102F8000A5051092A4051092A7051092A6058091A0
:102F9000A9058130B9F41092A905109281004398D7
:102FA0000FC08091A30581110DC081E08093A3051E
:102FB0001092A5051092A4051092A7051092A605DF
:102FC0000C948D160895EF92FF920F931F93CF9359
:102FD000DF937B018A01C82FD0E0CC0FDD1FCE012B
:102FE00008960E94872E68E10E94042EF7019083C4
:102FF000CE0109960E94872E6CE30E94042EF801F0
:103000009083DF91CF911F910F91FF90EF900895E2
:103010000F931F93CF93DF9300D0CDB7DEB76983B3
:103020004A83082F10E0000F111F6981C80108961C
:103030000E948F2E6A81C80109960F900F90DF9130
:10304000CF911F910F910C948F2E6AE00E94042E55
:10305000292F30E1839FC0011124822B0895CF9343
:10306000C62F1092800029E02093810023E0209356
:103070006F009C0140E050E060E079E08DE390E07B
:103080000E94462E3093890020938800C93140F079
:103090008FE493EC0197F1F700C00000C951F6CF1F
:1030A000109281004398CF910895CF93DF9380E0F1
:1030B00090E00E94872E8A3569F0C0E0D0E0FE01E2
:1030C000E958FC4F6491CE010E948F2E2196C031A9
:1030D000D105A9F7DF91CF910895CF93DF93E82F22
:1030E000F0E0242F30E02053384F833018F43C9622
:1030F0002150310970E06F5F7F4F620F731FEF0146
:10310000CC0FDD1FC60FD71FA901569547955695C1
:103110004795C40FD51FC90160E971E00E941E2EBA
:10312000C60FD71FC90164E670E00E941E2E9E01E3
:10313000261B370B319646E04E9FC0014F9F900DE6
:1031400011246AE070E00E941E2EC901860F971FAD
:1031500067E070E00E941E2EDF91CF9108959C01E0
:1031600083709927892B39F4C90164E670E00E94C5
:103170001E2E892B61F4C90160E971E00E941E2EA8
:103180009C0191E0232B09F090E0892F089581E0C4
:1031900008951092B6041092B5048091AA05882370
:1031A000E1F38CE38093DE051092AA058091AA05D5
:1031B0008823E1F381E08093B6040895CF93DF93F1
:1031C000CDB7DEB729970FB6F894DEBF0FBECDBFDF
:1031D0001986F894AE01475F5F4F61E080ED0E9471
:1031E000C21381110E946B2AAE014F5F5F4F67E0EF
:1031F00080ED0E94FE1378948111F4CF998197FDA0
:103200005EC08F81282F22952F708F703AE0239F08
:10321000800D1124809377018E8184FB222720F971
:10322000220F322F330F330F230F8F70820F8093B3
:1032300076018D81282F2695269526952670322F8A
:10324000330F330F230F8F70820F809375013B81F3
:10325000832F82958F70232F2F7036FF0FC035FB81
:10326000332730F98170880F482F440F440F840FA3
:103270004CE0349F800D1124280F05C083703AE084
:10328000839F200D1124209374018A81282F269575
:10329000269526952E70322F330F330F230F8F7004
:1032A000820F80937301892F82958F709F704AE0FF
:1032B000849F900D11249093720180E001C081E001
:1032C00029960FB6F894DEBF0FBECDBFDF91CF9128
:1032D00008951F920F920FB60F9211242F933F93D0
:1032E0004F935F936F937F938F939F93AF93BF930E
:1032F000CF93EF93FF93A8958091AB05813279F43A
:103300001092AB05C09172018091B305813059F4E0
:103310001092A7051092A6051092B30504C08F5F06
:103320008093AB057DC00E94B7170E94DE18809184
:103330007201C81761F18091CB04882329F0809134
:10334000CB0481508093CB048091A9058130F9F49E
:103350008091A4059091A505019711F40E948D1606
:103360008091A4059091A505009729F0019790936D
:10337000A5058093A4058091A6059091A705181630
:1033800019062CF401979093A7058093A6058091C8
:10339000AA05811112C09091DE05809172019817E3
:1033A00061F086E0E2E7F1E0AEEDB5E001900D926C
:1033B0008A95E1F781E08093AA058091A305813089
:1033C00079F59091A905911115C090917201911113
:1033D00011C0209173019091D40529130BC0209145
:1033E00074019091CE05291305C08093A90588E04A
:1033F00097E012C08091A905813091F48091A605D3
:103400009091A705892B61F41092A9051092A5054A
:103410001092A4058FEF9FEF9093A7058093A605C8
:10342000FF91EF91CF91BF91AF919F918F917F913C
:103430006F915F914F913F912F910F900FBE0F9021
:103440001F901895CF93DF93CDB7DEB728970FB6AF
:10345000F894DEBF0FBECDBF1982809172010E9429
:1034600025188A83809173010E9425188B8380918F
:1034700074010E9425188C831D82809175010E9421
:1034800025188E83809176010E9425188F83809164
:1034900077010E9425188887F894AE014F5F5F4F2F
:1034A00068E080ED0E94C213789481110E946B2A1B
:1034B00028960FB6F894DEBF0FBECDBFDF91CF9137
:1034C00008950E9479130E94DE1881110E94221A29
:1034D0000E94DE1887E08093B10081E08093700045
:1034E000789408959093C5008093C40088E18093F8
:1034F000C1008EE08093C200519A50980895909137
:10350000C00095FFFCCF8093C60080E090E0089556
:10351000CF93C82F82958F708A3010F4805D01C0E0
:10352000895A0E947F1A8C2F8F708A3010F4805D28
:1035300001C0895ACF910C947F1ACF93C82F892F3D
:103540000E94881A8C2FCF910C94881A8091C00009
:1035500087FFFCCF8091C60008958091C0008078DD
:10356000089508950895089508950895CF92EF92CB
:103570000F931F93CF93DF9300D01F92CDB7DEB789
:10358000861304C08091B1048823F1F0142F862F94
:10359000BE016F5F7F4F0E946F03C090D505009101
:1035A000B805019F102D11248091B605E090B70554
:1035B0009E012F5F3F4F41E06091B50593E1199F58
:1035C000800D11240E941E100F900F900F90DF911C
:1035D000CF911F910F91EF90CF900895CF92EF92DE
:1035E0000F93823041F40091CD0528E340E860E07C
:1035F00080E00E94EE0EC090D5059091B8058091B4
:10360000B605E090B705092F21ED32E041E0609169
:10361000B5055DE0959F800D11240E941E108091DC
:10362000B9058130A1F4C090D5059091B80580917D
:10363000B605E090B705092F21ED32E041E0609139
:10364000B50550E2959F800D11240E941E100F9128
:10365000EF90CF9008950F93CF93DF93CDB7DEB760
:1036600029970FB6F894DEBF0FBECDBF40E069E3E7
:1036700082E00E94C0038091B604811105C0809150
:10368000B104882309F47DC08091B504813029F00C
:103690008091B104813009F04AC00091D505409174
:1036A000B7046091B9048091B8040E946D18E82FA6
:1036B000F0E0EE0FFF1FE65BFE4F2081318141E01D
:1036C0006091B40582E10E9450110091D505E0910E
:1036D000B804F0E0EE0FFF1FEA5AFE4F208131815F
:1036E00041E06091B4058AE20E9450118091B904D2
:1036F000BE016F5F7F4F0E946F038CE28B8380E27D
:103700008C8382E38D8380E38E838091B704BE0136
:10371000695F7F4F0E946F030091D5059E012F5F67
:103720003F4F41E06091B40582E40E9450116091E6
:10373000BD048091C00440E00E94B61A6091BE04AE
:103740008091C10441E00E94B61A8091B905813090
:1037500039F46091BF048091C20442E00E94B61A1D
:103760008091B90581110DC00091D5058091BF04EC
:1037700080FF0091CD0526E044E068E18EE30E94E1
:10378000EE0E29960FB6F894DEBF0FBECDBFDF91C7
:10379000CF910F9108951092B90594E09093B605DA
:1037A00022E02093B5059093B80595E09093B70576
:1037B0009CE29093B4050C94EE1A91E09093B905B5
:1037C00090E19093B6059CE09093B50592E09093BC
:1037D000B8059093B70595E29093B4050C94EE1A52
:1037E000FC012281203429F423812F3111F422E0BD
:1037F00001C026E0362FFC01DB018D9181938A2FD9
:10380000831B8217D0F308952F923F924F925F92BD
:103810006F927F928F929F92AF92BF92CF92DF92E0
:10382000EF92FF920F931F93CF93DF93CDB7DEB745
:103830002A970FB6F894DEBF0FBECDBF8D839A874F
:103840001B0129013A01E982FA820B831C831A2D9C
:10385000082DCA01B9010E94B32D4B015C016C2DEA
:1038600070E080E090E00E947B2C6B017C019B016A
:10387000AC01C501B4010E94462D0E94432C605C3E
:10388000F1016083C301B2010E94CC2B9058A701C3
:1038900096010E94462D0E94432C615EF1016183D6
:1038A00029813A814B815C81C301B2010E94602B66
:1038B0004B015C010E94B32D6E837F8388879987BB
:1038C000612F70E080E090E00E947B2C6B017C0116
:1038D0009B01AC016E817F81888599850E94462D70
:1038E0000E94432C605CF1016283C501B4010E9417
:1038F000CC2B9058A70196010E94462D0E94432C84
:10390000615EF101638329813A814B815C81C3014E
:10391000B2010E945F2B4B015C010E94B32D9B0101
:10392000AC01C701B6010E94462D0E94432C605C89
:10393000F1016483C501B4010E94CC2B9058A7010A
:1039400096010E94462D0E94432C615EF101658321
:103950009D81A92FBA858A2F891B801730F42D915C
:1039600081912817C1F381E001C080E02A960FB64B
:10397000F894DEBF0FBECDBFDF91CF911F910F91A5
:10398000FF90EF90DF90CF90BF90AF909F908F907F
:103990007F906F905F904F903F902F9008950F937E
:1039A0001F93CF93DF93EC01162F062F2B814A81B3
:1039B000698188810E94100F8A81803419F48B817B
:1039C0008F3169F0012F2D814C81698188810E949E
:1039D000100F2D814C816B818A810E94100FDF9125
:1039E000CF911F910F910895CF92DF92EF92FF92A6
:1039F0000F931F93CF93DF93813009F072C0009132
:103A0000D50520E04EE16FE180E40E94510B40912A
:103A1000D5056FE180E40E94B40CC0E003E06C2F98
:103A20000C2E000C770B880B990B0E947B2C22E943
:103A30003AE046E05FE30E94462D6B017C010E9464
:103A4000B32D2DEC3CEC40EE51E40E94462D0E943B
:103A5000432C162FC701B6010E94CC2B90582DEC99
:103A60003CEC40EE51E40E94462D0E94432CD62FA0
:103A70004091D5056FE16D0F80E4810F0E94B40C79
:103A80008C2F602F0E94102E911115C0C11102C001
:103A9000D15009C0C33011F41F5F05C0C63011F406
:103AA000DF5F01C011504091D5056FE16D0F80E4DB
:103AB000810F0E94B40CCF5FCC3009F0B0CFE6ECA0
:103AC000F5E0C0ECD5E0AAEBB5E02CEC35E088E2FF
:103AD000819389938D932E173F07D1F71092CF05CD
:103AE00018C08091D305811114C06091CD0586EC7A
:103AF00095E00E94CF1C4091D5056FE180E4DF91F5
:103B0000CF911F910F91FF90EF90DF90CF900C9489
:103B1000B40CDF91CF911F910F91FF90EF90DF9048
:103B2000CF9008954F925F926F927F928F929F9263
:103B3000AF92BF92CF92DF92EF92FF920F931F93BB
:103B4000CF93DF93CDB7DEB766970FB6F894DEBF9D
:103B50000FBECDBF8091B404813009F0A8C0809120
:103B6000D005813009F099C06091D40570E080E003
:103B700090E00E94792C20E537E746ED5DE30E9456
:103B8000462D6B017C010E94B32D2B013C01C70126
:103B9000B6010E94CC2B6B8B7C8B8D8B9E8B809186
:103BA000CE051091D4056CE00E94042E692F70E0C0
:103BB00080E090E00E947B2C22E93AE046E05FE35F
:103BC0000E94462D6B017C01612F70E080E090E047
:103BD0000E94792C25E33AEF4EE05CE30E94462DEB
:103BE0009B01AC01C701B6010E94602B6B017C01F7
:103BF0000E94B32D4B015C01C701B6010E94CC2B82
:103C00006B017C010091D50520E047E066E386E783
:103C10000E94510B0091D5056B897C898D899E8905
:103C2000905820E030E040EE50E40E94462D0E9483
:103C3000432C16E3160F20E030E040EE50E4C301C1
:103C4000B2010E94462D0E94432C46E7460F212FC9
:103C500066E386E70E94100F0091D505C701B60103
:103C6000905820E030E040EA50E40E94462D0E9447
:103C7000432C16E3160F20E030E040EA50E4C50183
:103C8000B4010E94462D0E94432C46E7460F212F87
:103C900066E386E70E94100F0AC00091CD0521E17E
:103CA00041E16EE28EE60E94EE0E1092CF05809109
:103CB000B304813031F48091B20483FB882780F90A
:103CC00001C080E09091CF05981769F08093CF05EF
:103CD000C090CD0524E0E22E02E021E141E16EE258
:103CE0008EE60E94EA0C8091B604813021F080912A
:103CF000B104813019F41092DB0505C08091DB0519
:103D00008F5F8093DB0542E069E382E00E94C0039D
:103D10008091D3058130D1F56091BF041091DB050E
:103D200070E080E090E00E94792C20E537E746EDD6
:103D30005DE30E94462D6B017C01612F70E080E005
:103D400090E00E947B2C28E93EE24EEF5BE30E946C
:103D5000462D9B01AC01C701B6010E94602B9B015F
:103D6000AC0116E0812E07E1A02E8BE1C82E1DECE0
:103D7000E12E1CECF12E0CEC1DE3BE01635F7F4FC6
:103D800086EC95E00E94041CB82E01C0B12C8091F5
:103D9000B604813029F08091B104813009F085C0EA
:103DA0006091BE041091BF0470E080E090E00E943A
:103DB000792C20E537E746ED5DE30E94462D6B0147
:103DC0007C01612F70E080E090E00E94792C29E86E
:103DD00033EC44EE5AE30E94462D9B01AC01C7012F
:103DE000B6010E94602B9B01AC01E2E08E2EF8E050
:103DF000AF2EABE1CA2E1CE7E12E19EDF12E00E249
:103E000010E4BE01695F7F4F80EC95E00E94041CC6
:103E1000D82E81E0D81659F09091C0048091BD044D
:103E2000981305C08091B104813009F041C08091A0
:103E3000BD041091BE046CE00E94042E692F70E056
:103E400080E090E00E947B2C22E93AE046E05FE3CC
:103E50000E94462D2B013C01612F70E080E090E034
:103E60000E94792C25E33AEF4EE05CE30E94462D58
:103E70009B01AC01C301B2010E94602B9B01AC010C
:103E800086E0882E95E0A92E64E1C62E1CE7E12E7F
:103E900019EDF12E00E210E4BE016F5F7F4F8AEB57
:103EA00095E00E94041C182F04C010E0D12C01C022
:103EB00010E08091D3058130C9F4B81621F08091CB
:103EC000B104813099F46091CD0586EC95E00E94B3
:103ED000CF1CBE01635F7F4F86EC95E00E94F01B14
:103EE0006091D50586EC95E00E94CF1C81E0D81644
:103EF00021F08091B1048130E1F46091CD0580EC36
:103F000095E00E94CF1CBE01695F7F4F80EC95E079
:103F10000E94F01B6091D50580EC95E00E94CF1CBB
:103F20008091D305813071F46091D50586EC95E0E0
:103F300007C081E0B81206C06091D50580EC95E01D
:103F40000E94CF1C113021F08091B104813011F515
:103F50006091CD058AEB95E00E94CF1CBE016F5F9A
:103F60007F4F8AEB95E00E94F01B6091D5058AEBAC
:103F700095E00E94CF1C8091D305813031F460918F
:103F8000D50586EC95E00E94CF1C6091D50580ECAC
:103F900095E009C081E0B81611F0D81206C0609112
:103FA000D5058AEB95E00E94CF1C66960FB6F89473
:103FB000DEBF0FBECDBFDF91CF911F910F91FF905C
:103FC000EF90DF90CF90BF90AF909F908F907F90B9
:103FD0006F905F904F9008951092D3050C94F41C4D
:103FE00091E09093D3050C94F41CAF92BF92CF92C2
:103FF000DF92EF92FF920F931F93CF93DF93D82E10
:10400000862F91E03AE0632FA91218C00E94042E77
:10401000182F842F0E94042EF82E822F0E94042E27
:10402000B82E802F0E94042EA82E8E2D0E94042EC2
:10403000E82E8C2D0E94042EC82E17C00E94042E3C
:10404000192F842F0E94042EF92E822F0E94042EF5
:10405000B92E802F0E94042EA92E8E2D0E94042E90
:10406000E92E8C2D0E94042EC92E1A1108C0FE10B4
:1040700006C0BC1004C08091B1048823C9F1DDE002
:10408000C0E091E01C1390E0FC1201C09260BC12F1
:1040900001C0946081E0AC1280E0EC1201C082604B
:1040A000CC1201C08460981306C09091B104913085
:1040B000D9F48823C9F0E82FF0E0EB52FB4F2491AC
:1040C000843018F40091D50502C00091CD0545E07B
:1040D0006D2D8D2F0E94660E0091D50520E045E0E4
:1040E0006D2D8D2F0E94510BCF5FD45FCA3049F6E2
:1040F000DF91CF911F910F91FF90EF90DF90CF90C4
:10410000BF90AF900895EF92FF920F93CF93DF93FC
:104110008091DB0581117DC08EE28093CF0581E027
:104120008093DB058091CD050E9453160091D50543
:1041300022E034E040E061E081E00E94501125ED92
:10414000E22E24E0F22ECEE0D0E0D33019F400913C
:10415000CD0502C00091D505F701249145E06C2FF3
:104160008EE00E94660E0091D50520E045E06C2FA0
:104170008EE00E94510BD11103C00091D50502C001
:104180000091CD05F7013496249145E06C2F86E42B
:104190000E94660E0091D50520E045E06C2F86E474
:1041A0000E94510BDF5FFFEFEF1AFF0AC25FD430AE
:1041B00061F60091D50520E134E040E06CE089E152
:1041C0000E9450119EE2E92E92E0F92EC6E1009184
:1041D000D505F701219131917F0140E06C2F89E1F4
:1041E0000E945011C95FC03491F78EE1E82E82E041
:1041F000F82EC8E00091D505F701219131917F019A
:1042000040E06C2F81E50E945011C95FC03491F7E6
:1042100002C01092DB05DF91CF910F91FF90EF90DC
:104220000895AF92CF92EF920F93CF93DF9300D088
:104230001F92CDB7DEB78091CF05813021F48091F8
:10424000B604813041F08091CF05882359F08091E8
:10425000DB05811107C081E00E94BC0283E00E945F
:10426000BC0270C08091DB058130E1F48091B6041E
:10427000813009F067C08091CF0581508093CF05D0
:104280008091CF05BE016F5F7F4F0E946F03009149
:10429000D5059E012F5F3F4F40E061E088E70E9417
:1042A000501150C040E06AE381E00E94C003809159
:1042B000B604811105C08091B104882309F442C07D
:1042C000C090BD04E090BE040091BF042091C004E2
:1042D0004091C1046091C204AA24A3948DE00E947D
:1042E000F51FC090BD04E090BE040091BF04209172
:1042F000C0044091C1046091C204A12C89E10E94D4
:10430000F51FC090B704E090B8040091B904209163
:10431000BA044091BB046091BC04AA24A39485E232
:104320000E94F51FC090B704E090B8040091B90452
:104330002091BA044091BB046091BC04A12C81E39C
:104340000E94F51F0F900F900F90DF91CF910F916A
:10435000EF90CF90AF900895AF92CF92EF92FF92EF
:104360000F931F93CF93DF9300D0CDB7DEB780E3D9
:1043700089831A8210E00091D505145F9E012F5F9A
:104380003F4F40E061E0812F0E94501189818F5F93
:104390008983183781F7A090D505CC24C394EE24E7
:1043A000E39409E514E021E040E06AE181E00E9445
:1043B0005D11A090D50502E614E021E040E061E344
:1043C00081E00E945D1110E0F12C8DE0E82EE10EFD
:1043D000F11002C01D3348F40091D50520E045E0FE
:1043E0006DE06F0D8E2D0E94510B8CE0F80E80E376
:1043F000F812EECF145F183739F71092CF051092EC
:10440000DB050F900F90DF91CF911F910F91FF90DF
:10441000EF90CF90AF900895CF92DF92EF92FF92FE
:104420000F931F93CF93DF93C82FD42F122F70E0D9
:1044300080E090E00E94792C9B01AC0160E070E08C
:1044400080E891E40E94D12B6B017C01612F70E028
:1044500080E090E00E947B2CA70196010E94462DEF
:1044600020E030E040E05FE30E94602B0E944A2C95
:10447000162F6D2F70E080E090E00E947B2CA7014A
:1044800096010E94462D20E030E040E05FE30E946C
:10449000602B0E944A2C611304C08091B1048130CA
:1044A00091F40091CD05C85F23E044E16C2F89E6CB
:1044B0000E94CA120091D50523E042E06C2F8AE6E3
:1044C000810F0E94EE0EDF91CF911F910F91FF900F
:1044D000EF90DF90CF9008950F931F93CF93DF93CA
:1044E0008091B504813029F08091B104813009F0C8
:1044F00051C0C8E7D1E081E09091B9042981291326
:1045000005C09091B8042A81291721F027968F5F62
:10451000843091F79091CC059817E1F18093CC0508
:1045200088818823C9F06B817C8180E00E94FA0E2B
:10453000182F6D817E816115710521F080E00E9448
:10454000FA0E180F81E890E0811B910997FD019602
:1045500095958795182F01C012E00091CD0527E0B1
:1045600040E860E080E00E94EE0E0091D5052B81CE
:104570003C8140E061E0812F0E945011810F2D812C
:104580003E812115310531F00091D50540E061E013
:104590000E945011DF91CF911F910F9108950F93B9
:1045A000CF93DF93C82F8D7F843129F0CA3019F063
:1045B000CD3091F535C00091D50522E241E067E1AB
:1045C00088E00E94EE0E0091D50521E043E568E306
:1045D00089E00E94EE0ED8E14091D5056D2F87E06D
:1045E0000E94B40CDB5FDB33B9F7C43181F4409136
:1045F000D50569E385E20E94B40C4091D50569E3D5
:1046000080E40E94B40CCAE3D0E188E412C0CA304E
:1046100049F0C63139F0CCCFC83141F0C6E307C00C
:10462000CAE305C0CAE3DDE08BE403C0CBE3DAE014
:104630008EE40091D50521E132E040E06C2F0E942C
:1046400050110091D50525E132E040E06C2F8CE25D
:104650000E9450110091D50529E132E040E06C2F15
:104660008D2F0E945011DF91CF910F9108959F924D
:10467000AF92BF92CF92DF92EF92FF920F931F9370
:10468000CF93DF9300D01F92CDB7DEB7421305C0A2
:104690009091B104992309F498C0B02EA22ED62E81
:1046A000F82E642F70E080E090E00E947B2C28E3DD
:1046B00039EA4BEF5EE30E94462D20E030E040E017
:1046C0005FE30E94602B0E944A2C962E6A2D70E0B8
:1046D00080E090E00E947B2C28E339EA4BEF5EE318
:1046E0000E94462D20E030E040E05FE30E94602B16
:1046F0000E944A2C162F961204C08091B10481307A
:1047000031F521E0210F85E0E81218C00091D505B0
:1047100066E3611B4D2D8F2D0E94CA121230B8F036
:10472000C090D50567E3611B95E0E92E00E02FEF0F
:10473000210F4EEF4D0D81E08F0D07C0C090D505C4
:1047400066E3611B01E04D2D8F2D0E94EA0CBE0136
:104750006F5F7F4F8A2D0E946F030091D5058EE217
:10476000A82EEA2CE11A9E012F5F3F4F41E06E2DEB
:104770008F2D8B0D0E9450110091CD0565E3611BBB
:1047800021E04D2D8F2D0E94EE0E0091CD0527E0EA
:104790004B2D6E2D8F2D0E94EE0E0091CD054FEF0B
:1047A0004B0D81E08D0D8F0D27E06E2D8B190E9432
:1047B000EE0E191550F40091CD05292D211B6A2DFF
:1047C00069194D2D8F2D0E94EE0E0F900F900F90B6
:1047D000DF91CF911F910F91FF90EF90DF90CF90DD
:1047E000BF90AF909F9008950F93CF93DF93EC010C
:1047F000623001F50091CD0520E344E660E180E000
:104800000E94EE0E0091D5059E0140E069E082E035
:104810000E945011282F30E0213331050CF061C087
:104820000091CD0541E3481B25E069E08E5F0E94C1
:10483000EE0E57C00091D50521E040E867E080E02A
:104840000E94EE0E0091D50521E040E86FE080E087
:104850000E94EE0E0091D50529E341E067E085E670
:104860000E94EE0E8FEF8093CC050E946C22009187
:10487000D5059E0140E069E082E00E945011009160
:10488000D50527E634E040E069E088E60E94501153
:10489000C2E1D0E029E132E00091D50540E06C2F83
:1048A00089E60E9450110091D50527E046E166E0B7
:1048B0006C0F88E60E94CA120091D50521E042E102
:1048C00069E06C0F8AE60E94EE0EDF5FC03349F0AC
:1048D000D13019F021E132E002C025E132E0C15FC0
:1048E000DBCFDF91CF910F91089541E069E083E341
:1048F0000E94C0038091B604811104C08091B1046C
:104900008823C9F10E946C229091BF048091C20457
:10491000981304C08091B104813041F42091BF0408
:104920004091C2046BE380E30E940C229091BE048C
:104930008091C104981304C08091B104813041F486
:104940002091BE044091C1046BE381E20E940C22DD
:104950009091BD048091C004981304C08091B1046B
:10496000813041F42091BD044091C00467E182E1AF
:104970000E940C2281E008952F923F924F925F9205
:104980006F927F928F929F92AF92BF92CF92DF925F
:10499000EF92FF920F931F93CF93DF9300D000D03D
:1049A00000D0CDB7DEB7641307C0201305C09091C7
:1049B000B104992309F44BC1902E122F842EB82EE6
:1049C00070E080E090E00E947B2C28E339EA4BEF16
:1049D0005EE30E94462D20E030E040E05FE30E946D
:1049E000602B0E944A2C562E682D70E080E090E0EB
:1049F0000E947B2C28E339EA4BEF5EE30E94462DB0
:104A000020E030E040E05FE30E94602B0E944A2CEF
:104A1000A62E612F70E080E090E00E947B2C28E3BE
:104A200039EA4BEF5EE30E94462D20E030E040E0A3
:104A30005FE30E94602B0E944A2C362E602F70E0AC
:104A400080E090E00E947B2C28E339EA4BEF5EE3A4
:104A50000E94462D20E030E040E05FE30E94602BA2
:104A60000E944A2C462E531430F4F32CF51826E3FA
:104A7000D22ED31805C0F52CF31826E3D22ED51864
:104A8000F11002C0FF24F394A41428F4242C2A1853
:104A900016E3141904C02A2C241816E31A1921103D
:104AA00002C0222423945A1006C0341004C08091FE
:104AB000B104813081F4981418F001E082E002C062
:104AC00000E083E0C090D505E82E222D4DE0612F57
:104AD0008B2D0E94EA0C092D081907FF05C08DE2F5
:104AE0008983019521E001C020E00A306CF0E1E00B
:104AF000F0E0EC0FFD1FE20FF11D802F6AE00E9435
:104B0000102E805D80832F5FE1E0F0E0EC0FFD1F51
:104B1000E20FF11D802F6AE00E94102E905D9083BD
:104B20002F5FE1E0F0E0EC0FFD1FE20FF11D1082BE
:104B3000220F220F99249A94920E0091D5058DE0B0
:104B4000882E891886946B2C680C9E012F5F3F4F2E
:104B500040E05AEF752E710E672D862D0E94501180
:104B60000091CD0526E0482D672D8B2D0E94EE0E7D
:104B70000091CD0526E0482D672D892D860D0E94D8
:104B8000EE0E5A1003C0341409F461C00091CD0533
:104B900021E04DE06FEF610F8B2D0E94EE0E8D2C0A
:104BA000912C8F2D90E09E838D83612E712CD116D8
:104BB000C8F4930126503109880D991D8217930777
:104BC00024F426E02F0D71F002C0212F2D19C09082
:104BD000D50535E0E32E02E04DE06AEF6D0D8B2D3B
:104BE0000E94EA0C53100FC0A41468F45A100BC0B2
:104BF000C090D50595E0E92E02E021E04DE06D2D55
:104C00008B2D0E94EA0C620C711C8D819E81880D97
:104C1000991D68167906DCF495E0891A91086814E4
:104C2000790434F0622D610FFD0C2F2D261B04C07A
:104C300026E02F0D6AEF6D0D222349F0C090D505B7
:104C400085E0E82E02E04DE08B2D0E94EA0C2696CE
:104C50000FB6F894DEBF0FBECDBFDF91CF911F918D
:104C60000F91FF90EF90DF90CF90BF90AF909F900B
:104C70008F907F906F905F904F903F902F9008950E
:104C8000EF920F930E947524882399F12091BF041D
:104C90004091C20485E0E82E02E06FE089E40E94C2
:104CA00037230091BF042091C2044091BE0460915B
:104CB000C1048BE30E94BC242091BE044091C10436
:104CC00002E06FE08BE20E9437230091BE04209146
:104CD000C1044091BD046091C0048DE10E94BC24D8
:104CE0002091BD044091C00402E06FE08DE00E947D
:104CF00037230F91EF900895682F82E894E00E9487
:104D0000F4238AE00C94CF228F929F92AF92BF92AD
:104D1000CF92DF92EF92FF92CF93DF93D82F70E084
:104D200080E090E00E947B2C2BED3FE049E45FE3C4
:104D30000E94462D24EE3BEC46E150E40E945F2B9E
:104D40004B015C010E94B32D6B017C01C501B401D4
:104D50000E94CC2BB090D505905826E636E646E565
:104D600051E40E94462D0E94432CC4E2C60F26E661
:104D700036E646E551E4C701B6010E94462D0E9481
:104D8000432C862F4B2D6C2F8D0FDF91CF91FF90F1
:104D9000EF90DF90CF90BF90AF909F908F900C944A
:104DA000B40C4F925F926F927F92AF92BF92CF926C
:104DB000DF92EF92FF920F931F93CF93DF9300D078
:104DC0001F92CDB7DEB7641305C09091B10499234B
:104DD00009F493C0F42EE62E182F70E080E090E0E6
:104DE0000E947B2C2CE739ED40EA5DE30E94462DC2
:104DF00024EE3BEC46E150E40E945F2B2B013C018A
:104E00000E94B32D26E636E646E551E40E94462D83
:104E10000E94432CB62EC301B2010E94CC2B9058A5
:104E200026E636E646E551E40E94462D0E94432CD4
:104E3000A62E6F2D70E080E090E00E947B2C2CE786
:104E400039ED40EA5DE30E94462D24EE3BEC46E15D
:104E500050E40E945F2B2B013C010E94B32D26E6FB
:104E600036E646E551E40E94462D0E94432CD62E9C
:104E7000C301B2010E94CC2B905826E636E646E5E7
:104E800051E40E94462D0E94432CC62EBD1006C040
:104E9000A61204C08091B1048130F1F40091CD05D7
:104EA00024E22A0D4B2D410F64E2812F0E94100F46
:104EB0000091D50524E22C0D4D2D410F64E2812F88
:104EC0000E94100F8E2D6AE00E94042E911104C0E2
:104ED000682F812F0E948426BE016F5F7F4F8F2D28
:104EE0000E946F030091D5059E012F5F3F4F41E067
:104EF0006AE28BEF810F0E9450110F900F900F907C
:104F0000DF91CF911F910F91FF90EF90DF90CF90A5
:104F1000BF90AF907F906F905F904F9008950E94E8
:104F200075248823A9F04091BF046091C20483E5F1
:104F30000E94D1264091BE046091C10482E30E9488
:104F4000D1264091BD046091C00481E10C94D1262A
:104F500008950F93CF93DF93682F8AE894E00E941F
:104F6000F423C1E10091D50520E04FE064E28C2FED
:104F70000E94510BD0E06D2F8C2F0E948426DF5FA2
:104F8000D730C9F7CF5DC43769F78BE0DF91CF9198
:104F90000F910C94CF22BF92CF92DF92EF92FF92AB
:104FA0000F931F93CF93DF93F82EE22E70E0042F20
:104FB00010E082E0F81217C0072E000C880B990B46
:104FC0000E947B2C20E030E040E45FE30E94462D0D
:104FD00020E030E040E850E40E94602BB62EC72E5F
:104FE000D82EC92F1EC0072E000C880B990B0E94CB
:104FF0007B2C2AE939E949E95EE30E94462D20E04D
:1050000030E040E850E40E94602BB62EC72ED82E28
:10501000C92FF11006C00E944A2CD4E3D60FC7E274
:105020003DC02FEF3FEF4FEF5EE36B2D7C2D8D2DBD
:105030009C2F0E94462D0E944A2CD4E3D61B81E06F
:1050400028ED33EB4DE55FE36B2D7C2DF8121EC090
:105050008D2D9C2F0E94462D0E944A2CC7E2C60F20
:10506000B801110F880B990B0E947B2C20E030E0D7
:1050700040E45FE30E94462D20E030E040E850E449
:105080000E94602BB62EC72E8C0135C08D2D9C2F13
:105090000E94462D0E944A2CC7E2C61BB801110F80
:1050A000880B990B0E947B2C2AE939E949E95EE3D8
:1050B0000E94462D20E030E040E850E40E94602B42
:1050C000562F472F382F292FB62EC72E082F192FCE
:1050D00082E0F81210C0652F742F832F922F0E9448
:1050E0004A2C44E3460F0E2D27E26C2F8D2F0E9491
:1050F000100F24E12FC02FEF3FEF4FEF5EE36B2D3A
:105100007C2DC8010E94462D0E944A2C84E3D82E93
:10511000D61A28ED33EB4DE55FE36B2D7C2DC801EE
:10512000F11006C00E94462D0E944A2C695D07C0FE
:105130000E94462D0E944A2C87E2861B682F0E2D66
:105140002C2F4D2F8D2D0E94100F81E0F81204C0DE
:105150000E2D2AE34AE203C00E2D2C2F4AE46C2FB9
:105160008D2F0E94100FDF91CF911F910F91FF9013
:10517000EF90DF90CF90BF9008950F931F93CF9340
:10518000DF9300D01F92CDB7DEB70E94752488232D
:1051900009F4D0C09091BF048091C204981304C058
:1051A0008091B104813089F48091BF04BE016F5FAA
:1051B0007F4F0E946F030091D5059E012F5F3F4FE7
:1051C00041E061E28FE40E9450119091BE04809111
:1051D000C104981304C08091B104813089F4809196
:1051E000BE04BE016F5F7F4F0E946F030091D50523
:1051F0009E012F5F3F4F41E061E380E10E9450112B
:105200009091BD048091C004981304C08091B104B2
:10521000813089F48091BD04BE016F5F7F4F0E9491
:105220006F030091D5059E012F5F3F4F41E061E183
:1052300080E10E9450119091BF048091C2049817A0
:1052400099F19091BE048091C10498132DC0909162
:10525000BD048091C004981327C08091B1048111CE
:1052600023C06091C2041091BF0470E080E090E020
:105270000E947B2C2AE939E949E95EE30E94462D28
:105280000E944A2C062F612F70E080E090E00E947F
:105290007B2C2AE939E949E95EE30E94462D0E9408
:1052A0004A2C061709F446C02091CD054091C1044F
:1052B0006091C20480E00E94CB272091CD054091EF
:1052C000C0046091C10481E00E94CB272091CD05EC
:1052D0004091C2046091C00482E00E94CB272091DB
:1052E000D5054091BE046091BF0480E00E94CB27A9
:1052F0002091D5054091BD046091BE0481E00E94DB
:10530000CB272091D5054091BF046091BD0482E078
:105310000E94CB270091D50523E04AE067E284E3B1
:105320000E94510B0091D50521E040E167E284E342
:105330000E94510B0F900F900F90DF91CF911F9112
:105340000F9108950F93682F85E994E00E94F4234C
:105350000091D50520E046E167E284E30E94510B0D
:105360000091D50521E132E040E069E28FE40E943E
:1053700050110091D50525E132E040E069E38FE06E
:105380000E9450110091D50529E132E040E069E129
:105390008EE00E9450114091D50567E284E30F91A1
:1053A0000C94B40CFF920F931F93CF93DF93182F9D
:1053B000842FF090D5050E94042ED82F822F0E94B2
:1053C000042ED81304C09091B1049923B9F1C82FC9
:1053D0000091D5058CE0D89FD02D1124D75E25E013
:1053E00045E06D2F812F0E94660E0091D50520E0CB
:1053F00045E06D2F812F0E94510BCC2339F0C13035
:1054000039F410FD07C0F090CD0504C023E003C0BF
:1054100022E001C021E08CE0C89FC02D1124C75EAE
:105420000F2D45E06C2F812F0E94660E0091D5054F
:1054300020E045E06C2F812F0E94510BDF91CF912E
:105440001F910F91FF9008950E9475248823C1F049
:105450002091BF044091C20464E183E50E94D229F7
:105460002091BE044091C10464E182E30E94D229EC
:105470002091BD044091C00468E081E10C94D229E0
:1054800008950F931F93CF93DF93682F81EA94E0E1
:105490000E94F423C9E00091D50527E241E162E1D1
:1054A0008C2F0E94CA12D9E118E01C0F0091D5057B
:1054B00020E045E06D2F812F0E94510BD45FDD333A
:1054C000A9F7CF5DCC3639F78DE0DF91CF911F91F1
:1054D0000F910C94CF22789464E680EA9FE00E94BA
:1054E0002F182FEF80E792E0215080409040E1F7A5
:1054F00000C0000064E680EA9FE00E942F182FEFB2
:1055000089E698E1215080409040E1F700C000001A
:10551000E3CF14BE0FB6F894A8958091600088611F
:1055200080936000109260000FBE8AE190E00E94BC
:10553000721A3B9A8CE38093DE050E94611A0E94E6
:10554000551886E090E00E94872E81708093CD05EB
:105550009091CD0581E0911180E08093D50587E0A1
:1055600090E00E94872E83708093A8058091A80503
:1055700044ED55E06EEC75E00E94E3170E9497043D
:105580000E94B71782E084BD83E085BD8DE787BDAB
:1055900080916E00826080936E00539A80E28093C7
:1055A000B0008091B00083608093B0008091B10022
:1055B00088608093B10080E18093B30081E090E047
:1055C0000E94872E61E10E94042E9093B400259AD8
:1055D00064E680EA9FE00E942F189FE088E10FB602
:1055E000F894A895809360000FBE9093600080911E
:1055F000CD050E9470160E9457040E94C91881E0D0
:105600000E94BC02CBE4D4E008E512E080E6E82E7C
:1056100089E0F82EC093B2058091C9048823B9F0BF
:105620008091A905813099F49091C90490FF03C03D
:105630008093B30535C01093A5050093A405F0929F
:10564000A705E092A60510928100439829C0809199
:10565000C90480FF06C00E9415070E94C91881E096
:105660001DC08091C90481FF08C08091C9040E94B7
:10567000A702811102C0D093C9048091C90482FF9E
:105680000FC0D090B0040E9457039091B004D9127B
:1056900005C08091C9040E94A70202C00E94BC02FA
:1056A0001092C90483E00E94BC028091B20581116E
:1056B000FCCF8091B2048F5F8093B204ABCF50587F
:1056C000BB27AA270E94772B0C94F82C0E94BF2C92
:1056D00038F00E94C62C20F039F49F3F19F426F4CC
:1056E0000C94BC2C0EF4E095E7FB0C94B62CE92F3F
:1056F0000E941D2D58F3BA17620773078407950798
:1057000020F079F4A6F50C943F2D0EF4E0950B2EC5
:10571000BA2FA02D0B01B90190010C01CA01A00103
:105720001124FF27591B99F0593F50F4503E68F15E
:105730001A16F040A22F232F342F4427585FF3CF9F
:10574000469537952795A795F0405395C9F77EF470
:105750001F16BA0B620B730B840BBAF09150A1F0B9
:10576000FF0FBB1F661F771F881FC2F70EC0BA0F3F
:10577000621F731F841F48F4879577956795B795C7
:10578000F7959E3F08F0B0CF9395880F08F09927C2
:10579000EE0F9795879508950E94CF2CE3950C9472
:1057A000092D0E94E52B0C94F82C0E94C62C58F071
:1057B0000E94BF2C40F029F45F3F29F00C94B62CD6
:1057C00051110C94402D0C94BC2C0E941D2D68F39B
:1057D0009923B1F3552391F3951B550BBB27AA27AA
:1057E00062177307840738F09F5F5F4F220F331FE4
:1057F000441FAA1FA9F335D00E2E3AF0E0E832D0AC
:1058000091505040E695001CCAF72BD0FE2F29D0AE
:10581000660F771F881FBB1F261737074807AB0780
:10582000B0E809F0BB0B802DBF01FF2793585F4FF5
:105830003AF09E3F510578F00C94B62C0C94402D14
:105840005F3FE4F3983ED4F3869577956795B795D7
:10585000F7959F5FC9F7880F911D9695879597F9E2
:105860000895E1E0660F771F881FBB1F621773075B
:105870008407BA0720F0621B730B840BBA0BEE1F70
:1058800088F7E09508950E944A2C6894B1110C9411
:10589000402D08950E94252D88F09F5798F0B92F2C
:1058A0009927B751B0F0E1F0660F771F881F991F55
:1058B0001AF0BA95C9F714C0B13091F00E943F2D8B
:1058C000B1E008950C943F2D672F782F8827B85F9B
:1058D00039F0B93FCCF3869577956795B395D9F7AD
:1058E0003EF490958095709561957F4F8F4F9F4FB7
:1058F0000895E89409C097FB3EF4909580957095C3
:1059000061957F4F8F4F9F4F9923A9F0F92F96E90B
:10591000BB279395F695879577956795B795F11180
:10592000F8CFFAF4BB0F11F460FF1BC06F5F7F4F1D
:105930008F4F9F4F16C0882311F096E911C077232F
:1059400021F09EE8872F762F05C0662371F096E838
:10595000862F70E060E02AF09A95660F771F881F07
:10596000DAF7880F9695879597F9089597F99F67C5
:1059700080E870E060E008959FEF80EC08950024D7
:105980000A941616170618060906089500240A94A4
:10599000121613061406050608950C94BC2C0E94DA
:1059A000252DD8F3E894E0E0BB279F57F0F02AEDCF
:1059B0003FE049EC06C0EE0FBB0F661F771F881F44
:1059C00028F0B23A62077307840728F0B25A620BD4
:1059D000730B840BE3959A9572F7803830F49A959F
:1059E000BB0F661F771F881FD2F790480C94BD2D00
:1059F000092E0394000C11F4882352F0BB0F40F4DD
:105A0000BF2B11F460FF04C06F5F7F4F8F4F9F4F1C
:105A10000895EF93E0FF07C0A2EA2AED3FE049ECCA
:105A20005FEB0E94772B0E94F82C0F90039401FCEF
:105A30009058E8E6F0E00C94C92D57FD9058440FBB
:105A4000551F59F05F3F71F04795880F97FB991FDD
:105A500061F09F3F79F0879508951216130614069A
:105A6000551FF2CF4695F1DF08C016161706180627
:105A7000991FF1CF86957105610508940895E89402
:105A8000BB2766277727CB0197F908950E94592DE8
:105A90000C94F82C0E94BF2C38F00E94C62C20F0E9
:105AA000952311F00C94B62C0C94BC2C11240C945E
:105AB000402D0E941D2D70F3959FC1F3950F50E06E
:105AC000551F629FF001729FBB27F00DB11D639FB0
:105AD000AA27F00DB11DAA1F649F6627B00DA11D56
