:100000000C9440030C945D030C945D030C94D80590
:100010000C945D030C945D030C945D030C945D03E0
:100020000C945D030C94461B0C945D030C945819BE
:100030000C945D030C9446190C9455180C945D03B4
:100040000C945D030C945D030C945D030C945D03B0
:100050000C945D030C943A050C945D030C945D03C1
:100060000C949B150C945D0305A84CCDB2D44EB9ED
:100070003836A9020C50B9918688083CA6AAAA2A4B
:10008000BE000000803F200000000037000000009C
:100090006300030000AA1F0A1F0AA2151F15087992
:1000A00004130000820402000023000000004E112F
:1000B000000000510E0000006A040A0000640E04F3
:1000C000000050080000006404040000300000003C
:1000D0000078040300007F111F0000721F10000051
:1000E0007D1517000075151F000067041F000077BD
:1000F000151D00007F151D0000611D0300007F1508
:100100001F000077151F00002A00000000500A00A1
:100110000000440A0000006A0A0A00004A040000C5
:100120000061150200008E040200007E051E000022
:100130007F150A00006E111100007F110E00005F94
:10014000150000005F050000006E111D00007F0417
:100150001F00003F00000000500F0000007F041B44
:1001600000005F10000000BF0204021F9F02041F76
:10017000006E110E00007F0502000082151D1200A6
:100180007F051A00007215090000611F0100007F41
:10019000101F00006F100F0000AF100C100F7B0439
:1001A0001B0000631C03000079151300005F1100A1
:1001B00000007408140000511F00000062010200DA
:1001C0000070101000004102000000641F110000C8
:1001D0003F00000000711F04000084150E0400841D
:1001E0000E150400000000000000005F0000000782
:1001F000000700147F147F14242A7F2A1223130877
:10020000646236495522500005030000001C22415B
:10021000000041221C00082A1C2A0808083E080881
:100220000050300000080808080800606000002046
:10023000100804023E5149453E00427F40004261A1
:100240005149462141454B311814127F102745452D
:1002500045393C4A49493001710905033649494944
:1002600036064949291E0036360000005636000081
:10027000000814224114141414144122140800021A
:1002800001510906324979413E7E1111117E7F49A3
:100290004949363E414141227F4141221C7F494923
:1002A00049417F090901013E414151327F08080857
:1002B0007F00417F41002040413F017F08142241DF
:1002C0007F404040407F0204027F7F0408107F3E51
:1002D0004141413E7F090909063E4151215E7F09A6
:1002E000192946464949493101017F01013F4040F2
:1002F000403F1F2040201F7F2018207F63140814D8
:10030000630304780403615149454300007F414180
:10031000020408102041417F000004020102044051
:1003200040404040000102040020545454787F486B
:100330004444383844444420384444487F38545472
:100340005418087E090102081454543C7F08040420
:100350007800447D40002040443D00007F10284448
:1003600000417F40007C041804787C08040478383D
:10037000444444387C14141408081414187C7C0871
:100380000404084854545420043F4440203C404056
:10039000207C1C2040201C3C4030403C442810283D
:1003A000440C5050503C4464544C440008364100C6
:1003B00000007F0000004136080008082A1C0808D9
:1003C0001C2A08084932433A204255535F4552528D
:1003D0004F520D0A004932433A204E4F5F494E4674
:1003E0004F0D0A004932433A2053542D3E444154A4
:1003F000415F4E41434B206F72204C4153545F4448
:100400004154410D0A004932433A2053542D3E4491
:100410004154415F41434B0D0A004932433A205356
:10042000542D3E534C415F41434B0D0A004932432A
:100430003A2053522D3E53525F53544F500D0A00F1
:100440004932433A2053522D3E444154415F4E417C
:10045000434B0D0A004932433A2053522D3E44414A
:1004600054415F41434B0D0A004932433A205352F5
:100470002D3E534C415F41434B0D0A004932433AF4
:10048000204D522D3E534C415F41434B0D0A0049D4
:1004900032433A204D522D3E444154415F41434B3B
:1004A0000D0A004932433A204D542D3E4152425FDD
:1004B0004C4F53540D0A004932433A204D54522DAB
:1004C0003E534C415F4E41434B206F72204D542DA3
:1004D0003E444154415F4E41434B0D0A0049324373
:1004E0003A204D522D3E444154415F4E41434B0D05
:1004F0000A004932433A204D542D3E534C415F414E
:10050000434B206F7220444154415F41434B0D0ADD
:10051000004932433A204D2D3E53544152540D0A66
:1005200000C30800100105010000090F0A1E0B2D71
:1005300000000E0E1D0E1D2B0F3A0E2B0F480A52F7
:100540000F610A520F000E0E1D0E1D6B0E790D6B02
:100550000E861003030303030303030303060303CD
:100560000603030303060303030303030303030355
:100570000303030303030303030303030306060345
:100580000303030303030303030303030306030338
:100590000303030303030303030306060303030325
:1005A000060303060C03030303030303030303030C
:1005B0000303030603030303030303030C0C0303F6
:1005C00003030603030303030303030604040404F1
:1005D00004040303030303030603030303040404E3
:1005E00003030303030C0C0C0C9292009200749210
:1005F00000AE000057000074000057004900006280
:10060000006E006862005792AEC4009BAE0092007C
:1006100074826E0000AEA49B8A0092005C6274003B
:1006200062748200AEA49B8A009200E800E8E800B1
:1006300000008A00008200740000007474007400DE
:100640007482009274006257000074740074007425
:100650008292000092740057005C00629B009B62D3
:1006600000006EC4C4C4AE9B927400625700006E5A
:100670009B009B9B9282744900493A000000000055
:1006800011241FBECFEFD8E0DEBFCDBF14E0A0E045
:10069000B1E0E6E6F3E602C005900D92AC3DB1078D
:1006A000D9F726E0ACEDB4E001C01D92A431B20749
:1006B000E1F70E94D32D0C94B1310C94000080918D
:1006C000EA048093ED048091E9048093EC04809126
:1006D000E8048093EB048091E4048093E704809124
:1006E000E3048093E6048091E2048093E504089596
:1006F0009091DC04E0910001F091010128E0929FCB
:10070000E00DF11D11240680F781E02D309719F0DE
:10071000099581E0089580E008951F93CF93DF93BA
:10072000182F8091DC04C0910001D091010198E064
:10073000899FC00DD11D11248091D3058093DF04C2
:100740008091D4058093E1048091E1048130C1F46B
:1007500080910E068093EA0480910F068093E9044D
:10076000809110068093E804809111068093E40440
:10077000809112068093E304809113068093E20433
:100780008881882309F446C0133099F51092E0045B
:100790008091CD05813059F49091FA059130E9F0BE
:1007A0008093FA058093E0041092EE0416C09091B5
:1007B000E4048091E70498130AC09091E3048091C7
:1007C000E604981304C08091FA05823031F082E08B
:1007D0008093FA0581E08093E004EC81FD81099526
:1007E0008091E104813011F40E945F031092DD04D6
:1007F00011C0113031F41092FA058091F7050E9472
:100800001B180E945F0381E08093DD04EA81FB8175
:10081000812F09958091E104813021F41092E10447
:100820001092D405DF91CF911F9108958091DC043F
:100830008F5F8093DC048091DC04893010F010928B
:10084000DC048091DC04E0910001F091010198E06A
:10085000899FE00DF11D112481810895FB016AE05B
:100860000E941831805D8083905D9183128208958B
:10087000CF92DF92EF92FF920F931F93CF93DF936C
:1008800000D000D000D0CDB7DEB7182FF62EE42E62
:10089000D090DE048091E004813009F062C0809144
:1008A000FA058130F1F48091F805BE016F5F7F4F4A
:1008B0000E942E048AE38B838091FE05BE016C5F4B
:1008C0007F4F0E942E040091FF059E012F5F3F4F36
:1008D00040E06F2D812F0E94701291E0E916B1F176
:1008E00040C00091F70527E043E16FEF6F0D8FEFF8
:1008F000810F0E94F50F1092EE0481E0E81231C0E2
:1009000080E289830091FF05E091E304F0E0EE0FBF
:10091000FF1FEA5AFE4F2081318140E06F2D812F69
:100920000E947012E82E8091E404BE016E5F7F4F3A
:100930000E942E040091FF059E012F5F3F4F40E073
:100940006F2D8E2D810F0E9470128E0D873148F40D
:100950000091F70547E1481B25E06F2D810F0E94AC
:10096000F50F8091DF049091EE04813061F42D2D1C
:100970002F7030E0283031050CF480E08917A1F0A9
:100980008093EE0404C0913079F41092EE04C0908C
:10099000F7056FEF6F0D84E0E82E02E027E043E1FA
:1009A0008FEF810F0E94F10D26960FB6F894DEBFEF
:1009B0000FBECDBFDF91CF911F910F91FF90EF90B0
:1009C000DF90CF9008950F930091FF0529E432E066
:1009D00041E06EE081E20E9470120091FF0524E583
:1009E00032E041E06EE182E10E9470122FEF8DE370
:1009F00099E4215080409040E1F700C0000064E697
:100A000086EA9EE00E94071A64E680EA9FE00F9162
:100A10000C94071A80917A00877F80937A008091E6
:100A20007A00806480937A0080917A0084FFFCCF02
:100A300080917800909179000895EAE7F0E0808154
:100A400088648083089526982E9A81E080936800B8
:100A5000EBE6F0E080818064808382E080937C001C
:100A600010927B00EAE7F0E08FE880838081806469
:100A7000808308951F920F920FB60F9211242F9327
:100A80003F934F935F936F937F938F939F93AF9316
:100A9000BF93EF93FF9378948091780090917900C1
:100AA000803E22E0920770F01092F3041092F50459
:100AB0008091F004813021F48093EF041092F004CF
:100AC00084E163C0833622E0920770F18091F504DF
:100AD00082FD5AC08FE19EE40197F1F700C000004B
:100AE0000E940A05825692408E37910508F04CC04C
:100AF0008AEF8093F1048091F104882369F00E94C9
:100B00000A05825692408E379105A8F31092F5049B
:100B100084E08093F40438C01092F40484E080935D
:100B2000F5048093F30430C08F309140B0F0809191
:100B3000F50481FD10C08FE19EE40197F1F700C03C
:100B400000000E940A058E50914085359140E0F4E6
:100B500082E08093F40482E013C08091F50480FD6C
:100B60000EC08FE19EE40197F1F700C000000E94E3
:100B70000A058F30914040F481E08093F40481E0D5
:100B80008093F5041092F30482E08093F204FF91C5
:100B9000EF91BF91AF919F918F917F916F915F91F5
:100BA0004F913F912F910F900FBE0F901F9018956E
:100BB0001F920F920FB60F92112478940F900FBED0
:100BC0000F901F9018959091EF04913021F410929E
:100BD000F9041092EF049091F304992369F091E0E5
:100BE0009093F0049091F9049A3020F49F5F9093D1
:100BF000F90404C08E5F03C01092F9048F5F86175A
:100C000018F00E941831892F08950F931F93CF93E6
:100C1000DF938C01EB0166E080E00E94C717C801FA
:100C20000E94A914209759F067E080E00E94C7173E
:100C3000CE01DF91CF911F910F910C94A914DF91F8
:100C4000CF911F910F9108950F931F93CF93DF932F
:100C5000EC018B0166E080E00E94C71787EB92E011
:100C60000E94A914CE010E94A91467E080E00E94AE
:100C7000C7178AEC92E00E94A914C801DF91CF91B6
:100C80001F910F910C94A9140F931F93CF93DF938F
:100C9000C82F062F142FD22F63E088E00E94C717B9
:100CA0008CED92E00E94A9144C2F612F802F0E949E
:100CB0004C1AA82FB0E0AA0FBB1FA65BBE4F8D91A8
:100CC0009C910E94A914DC3019F46091F70502C0D0
:100CD0006091FF05E02FF0E0EE0FFF1FEA5AFE4F94
:100CE000808191810E94991480E20E94AD14812F2D
:100CF000DD3019F40E94911402C00E9495148CE218
:100D00000E94AD1484E1DE3049F40E9491148C2FCE
:100D1000DF91CF911F910F910C9491140E94951423
:100D20008C2FDF91CF911F910F910C9495140F93FD
:100D3000CF93C82F0091FF0521E047E0682F80E0A6
:100D40000E94F50F0091FF056FEF6C0F23E041E06B
:100D500085E00E94FF130091FF056EEF6C0F25E008
:100D600041E084E00E94FF13CF910F91089580919C
:100D7000F304882349F02FE789EA93E0215080406B
:100D80009040E1F700C0000008958091F404809342
:100D9000F8041092F40480FD16C081FF03C0109285
:100DA000F90406C0811104C08091F304882321F066
:100DB0008AE08093F60405C09091F60481E09923BF
:100DC00019F080E0089581E00895CF93C82F64E082
:100DD00088E00E94C71782EE92E00E94A9148091D9
:100DE000F705811108C088E493E00E94A9146C2FD4
:100DF00080EF92E003C06C2F87EF92E0CF910C94CC
:100E0000991462E080E50E94C71780910A060E944B
:100E100095148AE30E94AD14809109060E949514EE
:100E20008AE30E94AD14809108060C949514AF9249
:100E3000BF92CF92EF920F93CF93DF93EC015B01C0
:100E400081E08093F70460E080E00E94C7178FEF95
:100E500092E00E94A914C090F705E12C00E028E080
:100E600042E060E08EE70E94F10D61E088E00E94C0
:100E7000C71785E193E00E94A91462E088E00E9410
:100E8000C7178AE293E00E94A9140E9401074091CB
:100E90000B0660910C0680910D0627E00E94440627
:100EA0008091FF050E94E50665E088E00E94C71773
:100EB00087E393E00E94A9148091B4000E949514E6
:100EC000B501CE010E940506C090F70520E142E081
:100ED00060E38EE70E94F10DC090F70528E248E03C
:100EE00068E080E00E94F10D1092F704DF91CF914D
:100EF0000F91EF90CF90BF90AF9008959F92AF92D7
:100F0000BF92CF92DF92EF92FF920F931F93CF93F6
:100F1000DF9300D000D0CDB7DEB781E08093F70437
:100F20008091F7050E941B181092F7046AE473E0A1
:100F300080E693E00E9417078AE08093F6041092FF
:100F4000F4041092F9048091CC05853009F4A9C10C
:100F5000D0F4882391F1843009F0B2C387E0809304
:100F6000CC0510910B06F0900C06D0900D0681E098
:100F70008093F7048BE10E9497061092F70407E034
:100F8000CC24C39437C2873009F4DEC28F3009F015
:100F900097C388E08093CC0581E08093F70460E0FC
:100FA00070E089EA93E00E9405068BE20E949706B2
:100FB0001092F70418E001E03AC385E08093CC0575
:100FC00081E08093F7048BE00E9497061092F7046B
:100FD0000E94C506813009F46FC38091F80481FF37
:100FE000F7CF81E08093F7043AE0B32E42E1A42EDC
:100FF00052E0952EB092F6041092F9048091CC053F
:101000008131E9F048F4853081F0803121F581E1CA
:101010008093CC0581E01CC08231B1F08331D9F4DA
:1010200084E18093CC0584E013C080E18093CC05FB
:101030008091F7050E941B181092FA0410C0A0922C
:10104000CC059092FA040BC083E18093CC0583E039
:101050008093FA0404C085E08093CC052DC3F09002
:10106000D20560E080E00E94C71786E793E00E9407
:10107000A91400E011E0100F612F88E00E94C7174B
:1010800087E893E00E94A914812F0E9495148EE8AE
:1010900093E00E94A914AE014F5F5F4FBE016E5FE7
:1010A0007F4F802F0E94A6198A810E9495148AE39F
:1010B0000E94AD1489810E949514143011F0012F03
:1010C000D9CF65E088E00E94C71786E993E00E94C7
:1010D000A9148091D2058F5F0E9495148091CC0550
:1010E0006AE473E0843119F080E693E002C089EA93
:1010F00093E00E940506C090F705E12C00E028E28D
:1011000047E068E080E00E94F10D8091FA04880FCA
:10111000880F880F855F0E9497068091FA048430BB
:1011200041F0AE014D5F5F4FBE016C5F7F4F0E948B
:10113000A61915E00E94C506813009F4ADC0809162
:10114000F80481FF55C01530E1F48091FA04843031
:1011500081F465E084E70E94C71781E08F0D0E944B
:1011600091146FEB73E084EC93E00E94240614E189
:101170003FC068EC73E08DEC93E00E94240615E616
:1011800037C0153641F461ED73E086ED93E00E94BF
:10119000240616E62DC0143181F465E084E70E9430
:1011A000C71781E08F0D0E9495146F2D8FE090E09E
:1011B0000E94A331F092D20506C04B816C818091D0
:1011C000FA040E94D5198091CC056AE473E0843159
:1011D00019F080E693E002C089EA93E00E940506D8
:1011E0004EEF55E068EF75E08F2D0E94A61915E0CF
:1011F0008091F80482FD04C08091F304882309F1F2
:10120000143171F4F39483E08F1508F4F12C65E048
:1012100084E70E94C71781E08F0D0E94911411C0CE
:10122000153641F48C818F5F8C838C81883148F036
:101230001C8207C0163629F48B816CE30E94E305FB
:101240008B838091F804811104C08091F30488237A
:1012500001F16091FA046430E1F00B81DC806F5F92
:1012600082E60E94C7178D2D153619F40E9491143D
:1012700002C00E9495146091FA046F5F84E70E9497
:10128000C717802F163619F40E94911402C00E94CD
:1012900095140E94B7064ECF8091F6048111AACE14
:1012A00014C084E08093CC05F0900A06D090090623
:1012B000C090080681E08093F70483E10E949706BE
:1012C00014E00E94C506813019F41092F704F4C1AD
:1012D0008091F80481FF36C0143041F468EC73E06B
:1012E0008DEC93E00E94240615E62CC0153641F4DF
:1012F00061ED73E086ED93E00E94240616E622C0BD
:10130000163641F46AED73E08FED93E00E942406F7
:1013100017E618C06AE473E080E693E00E940506D1
:10132000F0920A06D0920906C0920806E0900D06D7
:1013300000910C0620910B064F2D6D2D8C2D0E94D7
:101340000E1C14E00091F80402FD04C08091F30427
:101350008823B9F0153631F4F39487E18F1588F4BA
:10136000F12C0FC0163631F46CE38D2D0E94E3058D
:10137000D82E07C0173629F46CE38C2D0E94E305A4
:10138000C82E011104C08091F304882311F162E09A
:1013900080E50E94C7178F2D153619F40E9491140D
:1013A00002C00E9495148AE30E94AD148D2D16365A
:1013B00019F40E94911402C00E9495148AE30E94BD
:1013C000AD148C2D173619F40E94911402C00E949E
:1013D00095140E94B70675CF8091F80481FD0FC067
:1013E0008091F80482FD4CC08091F304811148C0C3
:1013F0000E94B7060E94C506813071F75DC1C09298
:10140000F704073041F463EE73E088EE93E00E9446
:1014100024060CE02CC00C3041F46CEE73E081EF3C
:1014200093E00E9424060DE022C00D3041F465EFE8
:1014300073E08AEF93E00E9424060EE018C06AE48D
:1014400073E080E693E00E940506D0920D06F092CC
:101450000C0610930B0640910A06609109068091D4
:101460000806ED2C0F2D212F0E940E1C07E0202FC7
:10147000412F6F2D8D2D0E9444061092F704B0CF9E
:101480000E3089F464E68D2D0E94E305D82E90E09D
:101490000E948D1A81114DC082E0F8124AC01D31A0
:1014A00008F447C041C00C3001F581E08F0D8D304C
:1014B000C0F5823071F41E3108F01DE18D2D90E0F1
:1014C0000E948D1A22E0F22E811133C01D3161F18C
:1014D00030C0843031F0863021F09F2D9D7F9830D0
:1014E00029F51F3118F11EE121C00D3011F51F5FE4
:1014F0001032F0F482E0F8120BC01E31C8F48D2DCA
:1015000090E00E948D1A811114C01D3189F011C024
:101510008F2D8D7F843011F0893059F41F3141F0C7
:1015200008C0FF24F39405C01CE103C0F82E01C0DD
:1015300011E0C092F704202F412F6F2D8D2D0E94B6
:1015400044061092F70454CF8FE08093CC0581E0DD
:101550008093F70483E20E9497061092F7041FE03D
:1015600001E00E94C506813029F46091F70588E00A
:1015700090E065C08091F80481FF1DC00093F704DE
:101580001F3061F48091F7050E94E5066EEF73E06D
:1015900084E194E00E9405061AE60BC08091FF05E5
:1015A0000E94E5066AE473E080E693E00E94050687
:1015B0001FE01092F7048091F80482FD04C080912E
:1015C000F3048823D9F01A36C9F48091F705909175
:1015D000FF059093F7058093FF056EEF73E084E1BC
:1015E00094E00E9417070093F70483E20E94970695
:1015F0008091F7050E94E5061092F7040E94B70655
:10160000B0CF8091F80481FD1DC08091F80482FD67
:1016100033C08091F30481112FC08091F8048111AF
:1016200039C08091F304811135C00E94B7060E9431
:10163000C506813031F76091B40083E090E00E94EC
:10164000A3313AC00093F70465E084E70E94C7170E
:10165000183041F46EEF73E084E194E00E940506D7
:1016600019E607C06AE473E089EA93E00E94050680
:1016700018E01092F704C9CF193679F68091B400BA
:101680008F5F8093B4008091B400813130F210926A
:10169000B400C3CF0093F70465E084E70E94C71746
:1016A0008091B400193619F40E94911402C00E946E
:1016B00095141092F704B9CF8091F604811136CCBD
:1016C0001092CC050F900F900F900F90DF91CF915B
:1016D0001F910F91FF90EF90DF90CF90BF90AF9050
:1016E0009F900895E82FF0E0E050FB4F677081E095
:1016F00090E0062E01C0880F0A94EAF79081982B9B
:10170000908308952091FE049091FD04291789F09B
:101710009091FF04E091FB04F091FC04911105C04D
:10172000EA57FF4FE491EF7105C0EC51FE4FE49191
:1017300001C0E0E0811101C0E0958E2F0895DF9295
:10174000EF92FF920F931F93CF93DF93082FD42E26
:101750000E94C71780E0E82E85E0F82EE70110E030
:10176000005015408C2F8E198D1588F4882339F080
:10177000C8018C0F9D1F8F739927892B11F40E942C
:1017800094170E94941789930E94D617EBCFDF918C
:10179000CF911F910F91FF90EF90DF90089590915E
:1017A000FF04282F30E091111FC09FE9980F9A3154
:1017B00020F08B3720F08AE103C080E201C080E096
:1017C00020523109281B310945E0429FC001439F47
:1017D000900D1124FC01EA57FF4FE491E295E69544
:1017E000E770E093FD04089545E04093FD04205226
:1017F0003109429FC001439F900D112408952F92FB
:101800003F924F925F926F927F928F929F92AF9290
:10181000BF92CF92DF92EF92FF920F931F93CF93DD
:10182000DF93CDB7DEB72F970FB6F894DEBF0FBEAC
:10183000CDBFB82EA62E842E2A830C83262F30E00F
:101840003F872E87242F30E08E859F85820F931F40
:1018500013E0959587951A95E1F78F8391E09B8327
:101860009A81923009F01B8280E0E82FF0E0E05C82
:10187000FA4F10828F5F8816C0F78E859F85821B76
:10188000930BB3E095958795BA95E1F78887282D56
:101890002195220F2D5F2983612C712C2B2D30E097
:1018A0003E832D8330E43B1939879B2D990F9A870E
:1018B0002FEF2B0D2B873884360C9F81931508F45E
:1018C00038C1982C598100E01FEF212C90E0E32CC7
:1018D000F12C99160CF4B4C03A81332351F0333013
:1018E00019F4222031F095C0892F81702B81821349
:1018F00090C0C92CDD24C7FCD0942E853F852C0DCB
:101900003D1DA3E035952795AA95E1F72E153F05D6
:1019100061F4692D6A0D80E4890F5D879C870E94C0
:10192000720B81E05D859C8501C080E06E857F85BE
:101930006C197D09F3E075956795FA95E1F7492EE5
:10194000552447FC50946E157F0559F46A2D69198A
:1019500080E4890F5D879C870E94720B5D859C8562
:1019600002C0813091F46D817E81640D751DE12F7F
:10197000F0E06E177F0714F4192F1B0DE02FF0E035
:10198000E617F70714F4092F0B0D6E857F85640D9C
:10199000751DE3E075956795EA95E1F76E157F058E
:1019A00061F4692F6A0D80E4890D5D879C870E9430
:1019B000720B81E05D859C8501C080E02E853F85AE
:1019C0002419350943E0359527954A95E1F72E15F9
:1019D0003F0559F46A2D691B80E4890D5D879C875A
:1019E0000E94720B5D859C8502C0813091F42D812F
:1019F0003E81C20ED31E212F30E0C216D30614F44E
:101A0000192D1B0D202F30E02C153D0514F4092D48
:101A10000B0D57FF06C05A5F892F880F880F580F8C
:101A200007C0565F892F8919880F880F580F9A941D
:101A30009F5F32E0231611F023944BCF212C49CF26
:101A40001F3F09F472C041E0400F411B632D812FFD
:101A50000E949F0B632D812F0E94C717F984F10EFE
:101A6000E12CC02ED12CC11AD1082E2D2F0D8E2D78
:101A700090E0C816D906B4F030E0FC01E050FB4F0E
:101A80009C81D901A050BB4F913021F49C91808161
:101A9000892B04C08C918095908189230E94EA173C
:101AA000E394E3CFFB2CF01A0F2D0B0DEA84E11A1F
:101AB000EB1002C08B8501C08E2D801758F041E0DD
:101AC000401B480F632D802F0E949F0B632D802F9A
:101AD0000E94C71790E4D92EDF18C12CF12CE01A10
:101AE000F1082D2D2C198C2D90E0E816F906ECF05C
:101AF000022F10E0203499F0FC01E050FB4F2C81C4
:101B0000D801A050BB4F213021F49C918081892BBA
:101B100004C08C918095908189230E94EA17F80176
:101B2000E050FB4F1082C394DCCF3FEF631A730A7F
:101B3000C2CE2F960FB6F894DEBF0FBECDBFDF9199
:101B4000CF911F910F91FF90EF90DF90CF90BF90BA
:101B5000AF909F908F907F906F905F904F903F904D
:101B60002F900895EF92FF920F931F93CF93DF93DF
:101B70001F92CDB7DEB7182F862F8770EE24E3941F
:101B8000F12C01C0EE0C8A95EAF7062F0695069512
:101B90000695602F812F49830E94C7170E949417D2
:101BA0000E9494174981413011F4E82A02C0E09460
:101BB000E8228E1571F0602F812F0E94C7178E2D9D
:101BC0000F90DF91CF911F910F91FF90EF900C94A8
:101BD000EA170F90DF91CF911F910F91FF90EF9037
:101BE00008952F923F924F925F926F927F928F92C1
:101BF0009F92AF92BF92CF92DF92EF92FF920F939C
:101C00001F93CF93DF93CDB7DEB72B970FB6F89422
:101C1000DEBF0FBECDBF982E842EB22E3E2DA62E37
:101C2000A694A694A694462F4770242E011117C09F
:101C3000323039F4842F63E00E941831F92EF19488
:101C40002DC0333031F4842F6E2D0E941831F92EBF
:101C500026C1313009F022C16170F62E20C1013059
:101C600051F5323079F4842F90E0820F911D9195D7
:101C70008195910963E070E00E944631FF24F3945E
:101C8000F80E0CC0333061F4842F90E0820F911D68
:101C9000019763E070E00E944631F82ED12C22C0FB
:101CA000313009F0FBC0FF24F394F20EF40E5F2DE7
:101CB0005170F52EF4C0023009F0F0C0D82E323049
:101CC00029F4862F90E0841B910907C0333009F076
:101CD000E8C0842F90E0861B910963E070E00E94C9
:101CE0004631F82EF7FE02C083E0F80E712CE12C8D
:101CF000412C312CAB2DB0E0BB83AA8308E010E06F
:101D0000BEEFB30FBC83ED2DFF27E7FDF095FE83FB
:101D1000ED833B1408F0CEC0432D50E0598748872F
:101D200021100BC04A815B8188859985481B590B1E
:101D30004830510514F0343051F4482D6A2D892D66
:101D40003B870E949F0B41E049833B8501C019827C
:101D50006A2D892D3B870E94C717E22DF0E06A812A
:101D60007B8188859985681B790BA8014E1B5F0BC9
:101D70003B85641775071CF42B2C231803C098E0CF
:101D80009219292EAC81A23060F48D819E818F0D35
:101D9000911DF7FC9A9563E070E00E944631782E21
:101DA00008C0313031F48F2D8D2580FF18C095E5A6
:101DB000E92EA801421951098FEF90E002C09595D4
:101DC00087954A95E2F7AC010E2E01C0440F0A94A4
:101DD000EAF7642E542E509460E075E01FC08AEA42
:101DE000E82EE7CFE42CE094CC2009F442C0E8E0F0
:101DF0002E1609F443C045208E2D8621482A842DB5
:101E00003B876F837A870E94EA173B856F817A85CB
:101E1000F2E07F16A9F173946F5F7F4F862F40E049
:101E200055E0841B881570F54981413011F4DB01C0
:101E30004C903323C1F13530C9F1313039F4B1E080
:101E4000CB1611F0811133C0E09431C0323039F437
:101E5000E72DFF27E7FDF095E65EFD4F08C0333024
:101E600009F6E72DFF27E7FDF095E95EFD4FE080DD
:101E70001EC0343009F4BBCFE094B9CF4E2CBFCF95
:101E8000712CCACFA394323019F4F394F39403C0A5
:101E9000333009F4F394320C212C3BCFF12CD12CAC
:101EA00025CFF12C23CFEE24EA9401C0E12CCC20E5
:101EB00019F39DCF2B960FB6F894DEBF0FBECDBFA2
:101EC000DF91CF911F910F91FF90EF90DF90CF9016
:101ED000BF90AF909F908F907F906F905F904F904A
:101EE0003F902F9008958F929F92AF92BF92CF9282
:101EF000DF92EF92FF920F931F93CF93DF93D82E31
:101F0000B62EA22E902E142FD42FD195DD0FDD5F8B
:101F1000F12C88248394C0E01C170CF459C0C1171D
:101F2000F9F0D7FD34C081E0881201C0FF0CC92C44
:101F3000EA2C02E0212F220F41E04F0D6B2D611B97
:101F40008D2D8C1B0E94F10DCC23B9F12C2F220F6B
:101F500041E06B2D6C1B812F8D0D0E94F10D04C093
:101F6000CC2399F0D7FD13C0811018C0C92CEA2CDE
:101F700002E0212F220F41E04F0D6B2D611B8C2FB2
:101F80008D0D8F190E94F10D09C0D7FF16C0DA5FC1
:101F90008C2F880F880FD80FF39418C0C113F12C21
:101FA00041E04F0DC92CEA2C02E02C2F220F6B2DA3
:101FB0006C1B8D2D811B0E94F10DD65F8C2F811B18
:101FC000880F880FD80F1150F12C812CCF5FA4CF30
:101FD000DF91CF911F910F91FF90EF90DF90CF9005
:101FE000BF90AF909F908F900895CF92EF920F93F4
:101FF000C02EE12C02E00E94F10D0F91EF90CF90E6
:102000000895482F80E055E0FB012191BF01222374
:1020100011F141111EC09FE9920F9A3120F02B3728
:1020200020F09AE103C090E201C090E030E020523D
:102030003109291B3109529FF001539FF00D1124E2
:10204000EA57FF4FE4918F5FE295E695E7708E0FB8
:10205000DBCF8A5FD9CF08952F923F924F925F9244
:102060006F927F928F929F92AF92BF92CF92DF92A8
:10207000EF92FF920F931F93CF93DF9300D000D086
:1020800000D0CDB7DEB7782F6E830A83142F181BCC
:10209000312FF22EF61A9F2D17FD1195F7FCF194B2
:1020A00013163CF081E0311101C080E0682E61948C
:1020B00002C06624639419163CF081E0911101C0BE
:1020C00080E0982E919402C099249394BF2CB694EA
:1020D000A12EA694DE80D694D694D69426952695E5
:1020E000269530E02D19310937FF03C03195219530
:1020F000310922242394220E1F1520F43F2C91E055
:10210000998302C0312E1982542F741758F4572F17
:1021100009C030E02817390764F0FC01E050FB4F9C
:1021200010825F5F852F90E0242F471790F7272FAD
:10213000F0CF712CC12C721408F08EC06E81872FE5
:102140007D830E94720B7D81872EE72EC31440F59C
:102150009981911109C0AF0CA11620F0A11A9E819E
:10216000990D9E83760D08C0B10EBF1410F0BF18F4
:10217000760D9E81990D9E838E8186958695869596
:10218000D8120EC07E1508F4E72E871608F4872EA5
:102190006E81872F7D830E94720BC3947D81D6CF81
:1021A0006D2D8E2D7D830E94C7175E2C0FEF7D81D4
:1021B000851438F15E1419F0852D8F7321F47D8319
:1021C0000E9494177D817D830E949417252D30E015
:1021D0007D819A81F901E050FB4F4081913011F4EB
:1021E000482B02C0409548230F3F11F48413052D5E
:1021F000F901E050FB4F40837D830E94D617539432
:10220000D6CF07FD06C06D2D802F7D830E94C71796
:102210007D81402E552447FC50948E14C8F04E2DDD
:1022200050E007FD0FC04415550564F0FA01E05079
:10223000FB4F8081EB825C837D830E94EA177D8166
:102240005C814B81FA01E050FB4F1082E394E5CFB3
:10225000C394D90C73946FCF26960FB6F894DEBF53
:102260000FBECDBFDF91CF911F910F91FF90EF90E7
:10227000DF90CF90BF90AF909F908F907F906F90A6
:102280005F904F903F902F9008952F923F924F92E2
:102290005F926F927F928F929F92AF92BF92CF92F6
:1022A000DF92EF92FF920F931F93CF93DF93CDB7FF
:1022B000DEB760970FB6F894DEBF0FBECDBF8D833B
:1022C0002A873B87B62EB694B694B6946770562E7E
:1022D0004093FF04B901842F4E870E940110809F14
:1022E000902C11244E85411102C085E001C087E089
:1022F0008E9D802C1124F12CA12C188AD12C1F86A4
:102300001B8210E0882D90E099878887181508F0C7
:10231000CDC0612E712CE52DF0E0FF83EE835110CE
:1023200007C0488559854619570948305105BCF4FE
:10233000492D6B2D8D810E949F0B2885398526198B
:1023400037098E819F81280F391F2930310524F0EC
:1023500038E0232E251805C0282C211A02C028E0B9
:10236000222E6B2D8D810E94C71728E030E02219A4
:102370003109EFEFF0E002C0F595E7952A95E2F715
:10238000052C01C0EE0F0A94EAF7EC8321E001C0AE
:10239000220F5A94EAF72C872A8529832B852A83D2
:1023A00068887D2C412C512C312C262D220D2D8717
:1023B000542D491408F071C09091FE048091FD04E1
:1023C000891710F051116FC01092FE04E981FA8153
:1023D0008191FA83E9835E870E94CF0B9093FC047E
:1023E0008093FB045E85301611F0511113C08C2DC3
:1023F0000E94820B8B838091FE048F5F8093FE048A
:102400008091FB049091FC0401969093FC048093CE
:10241000FB04312CF8E02F1629F0F201E050FB4FBD
:1024200020812F87311029C02B81822F90E0E1E09D
:10243000088802C0959587950A94E2F7EE120AC0C3
:102440000E8001C0880F0A94EAF7F82E6D84AC80E4
:102450007D2C13C05C85922D68887D2CF12C9923EE
:1024600059F080FDF52A73947E1003C0869563941D
:10247000712C550F9150F3CFAC808A2D80952F850C
:1024800028238F2D8A21282B2F87822F0E94EA173D
:1024900033948FEF481A580A8BCFB394120D512CF6
:1024A000688AD72C33CF3012B5CFA1CF892D609653
:1024B0000FB6F894DEBF0FBECDBFDF91CF911F9155
:1024C0000F91FF90EF90DF90CF90BF90AF909F90D3
:1024D0008F907F906F905F904F903F902F900895D6
:1024E000CF92EF920F93C02EEE24E39401E00E946E
:1024F00045110F91EF90CF9008952F923F924F92F8
:102500005F926F927F928F929F92AF92BF92CF9283
:10251000DF92EF92FF920F931F93CF93DF93CDB78C
:10252000DEB765970FB6F894DEBF0FBECDBFD82ECD
:1025300029832801762E7694769476946770962E69
:102540004093FF04B801842F4A8B0E9401108C9D98
:10255000802C11244A89411102C085E001C087E026
:102560008E9D202D11242D833981323041F48150EC
:102570008B87D394D21A1C8651E05E8305C027E076
:102580002C871B863FEF3E83612C1C82F12CB12CE3
:1025900010E0282D30E038872F83181508F015C17A
:1025A000992031F03981323061F047E0941619F00A
:1025B0005981513031F08F819885811B910908979D
:1025C00044F54D81672D8D2D0E949F0B298122306E
:1025D00059F48F819885811B9109890D911D099767
:1025E000ACF008E0091916C03981313079F488E07F
:1025F00090E0891991092F813885211B3109820FBB
:10260000931F09971CF001E0090D04C0082D011B60
:1026100001C008E0672D8D2D0E94C717202F30E0E4
:1026200048E0242E312C221A330A4FEF50E002C02A
:10263000559547952A94E2F71A013324598152306F
:1026400031F4092C01C0220C0A94EAF709C0892D43
:1026500090E00196821B930B01C0220C8A95EAF749
:1026600081E001C0880F9A94EAF78D8720E035E079
:102670003B832A8392013B84FB8A912C5C81452F0A
:1026800050E05F874E87422D4095488B8A81E0E07D
:10269000F5E08E1B5D81851708F08DC0083019F0BC
:1026A000EA81FB81B08091106DC02C812093FE04E3
:1026B000F20180810E94CF0B2E853F85820F931FF0
:1026C0009093FC048093FB048A2D0E94820B41E0CE
:1026D00050E0032C02C0440F551F0A94E2F75A87BA
:1026E000498792014D85502FFB8A612C552309F4AF
:1026F00049C0682F70E0E985FA856E237F23672B38
:1027000009F0642AF981F23011F4440F01C04695B2
:102710009B899F5F9B8B9C1133C08091FE0490919D
:10272000FD04891779F08F5F8093FE048091FB048C
:102730009091FC0401969093FC048093FB043D8BE4
:102740002C8B14C0F9013196FD8BEC8B1092FE049A
:10275000F9018181882351F04A8B598B0E94CF0B5C
:102760009093FC048093FB0459894A898A2D4A8BF3
:10277000598B0E94820B2C893D891B8A59894A8971
:102780005150B4CF4889B422862D8221B82A8B2D8E
:10279000298B3A8B0E94EA17939429893A899E10D3
:1027A00003C05E81351A912C4A815B814F5F5F4F78
:1027B0005B834A836BCF5E81750E100F5091FE04D0
:1027C0005C8329019C84FB88E8CE882D65960FB632
:1027D000F894DEBF0FBECDBFDF91CF911F910F9157
:1027E000FF90EF90DF90CF90BF90AF909F908F9031
:1027F0007F906F905F904F903F902F900895AF9291
:10280000BF92CF92DF92EF92FF920F931F93CF93DD
:10281000DF93D82E162FC42FD22FF02E442391F100
:10282000222381F14330B0F0C02EE12C02E021E000
:102830005EEFA52EA40E4A2DBB24B394B80E8B2DAB
:102840000E94F10D6FEF610F6D0F21E04A2D8B2D6E
:102850000E94F10DCF2CE12C02E02D2F41E0612FE1
:102860008D2D0E94F10DC23010F4D23058F08FEF50
:102870008D0DCF2CE12C02E02D2F41E0612F8C0F2C
:102880000E94F10DDF91CF911F910F91FF90EF907A
:10289000DF90CF90BF90AF900895FF920F931F935A
:1028A000CF93DF93F62E90E0809725E0289F80015C
:1028B000299F100D1124C0E0D0E00C511E4FF801EB
:1028C000EC0FFD1F8491F11001C080950E94EA1762
:1028D0002196C530D10599F7F11002C08FEF01C0E4
:1028E00080E0DF91CF911F910F91FF900C94EA1738
:1028F0001F93CF93DF931F92CDB7DEB7162F6AE0F9
:102900000E941831612F805D99830E944D14612FC0
:10291000998180E3890F0F90DF91CF911F910C94E3
:102920004D146091F7050C9478146091FF050C9498
:1029300078141F93CF93DF93162FEC01899188238E
:1029400021F0612F0E944D14F9CFDF91CF911F919B
:1029500008956091FF050C9499146091FF050C9403
:102960004D14ECEBF0E080818F70806C80830895D3
:10297000459A449A1092830510928205109281051F
:102980001092800580E28093B800ECEBF0E080814B
:10299000846080831092C7058081816080838081FC
:1029A000806480837894089580E28093B8000895CD
:1029B000ECEBF0E080818F70806A80830895ECEB0F
:1029C000F0E080818F70806D808308958091BC00DD
:1029D00087FFFCCF08958093BB00ECEBF0E0808193
:1029E0008F7080688083089581110C94B114809158
:1029F000BC008F7080688093BC0008958091BB00FC
:102A00000895EF92FF921F93CF93DF9300D01F9210
:102A1000CDB7DEB7162F9091BC009E7F9093BC007F
:102A20004A835B8389830E94D8140E94E6148981BB
:102A30008E7F0E94EB140E94E6148091B9004A81B7
:102A40005B81883171F47A01112349F0F70181919A
:102A50007F010E94EB140E94E6141150F5CF80E034
:102A600001C081E089830E94DF1489819091BC00BC
:102A700094FFFCCF9091BC0091609093BC000F90AC
:102A80000F900F90DF91CF911F91FF90EF900895DD
:102A9000EF92FF921F93CF93DF9300D000D0CDB77A
:102AA000DEB79091BC009E7F9093BC004B835C830B
:102AB0006A8389830E94D8140E94E6148981816008
:102AC0000E94EB140E94E6148091B9004B815C8156
:102AD0006A818034E1F47A01162F140F812F8E1948
:102AE000823050F00E94B1140E94E6148091BB0025
:102AF000F70181937F01F2CF80E00E94F4140E94DD
:102B0000E6148091BB00F701808380E001C081E082
:102B100089830E94DF149091BC0091609093BC0067
:102B200089810F900F900F900F90DF91CF911F919F
:102B3000FF90EF9008951F920F920FB60F921124FD
:102B40002F933F934F935F936F937F938F939F93B5
:102B5000AF93BF93EF93FF938091B900887F88363E
:102B600009F4B6C008F042C0803309F49BC0A8F451
:102B7000803109F469C038F4882309F434C18830FD
:102B800009F462C03DC1803209F48CC0883209F476
:102B900062C0883109F034C15EC0883409F482C053
:102BA00038F4883309F486C0803409F48DC028C114
:102BB000883509F466C0803609F48AC0803509F08A
:102BC0001FC160E08FE894E00E94AF1C8091BB00C1
:102BD000E091840591E09E0F90938405F0E0EB571F
:102BE000FA4F808390E00E949B1C6EC0803A09F4EB
:102BF00099C0A8F4803809F476C038F4803709F415
:102C000067C0883709F464C0FBC0803909F46BC021
:102C1000883909F47EC0883809F0F2C07AC0883B50
:102C200009F4AEC038F4883A09F494C0803B09F442
:102C300091C0E6C0883C09F4C6C0883F09F4CDC005
:102C4000803C09F0DDC0BFC060E081E195E00E94FA
:102C5000AF1C80E013C060E082EF94E00E94AF1CE4
:102C6000E091A6058091A505E81708F581E08E0F93
:102C70008093A605F0E0E955FA4F80810E94EB149D
:102C8000BFC060E08DED94E00E94AF1CE091840530
:102C900081E08E0F809384058091BB00F0E0EB57BC
:102CA000FA4F808360E087EB94E00E94AF1C0E94A3
:102CB000DF14A4C060E083EA94E00E94AF1C80911E
:102CC000BC008F70806898C060E08CE794E024C0FE
:102CD00060E089E694E00E94AF1C85E08093C70520
:102CE0001092840564C060E085E594E00E94AF1C0A
:102CF000E091840581E08E0F809384059091BB0064
:102D0000F0E0EB57FA4F9083803240F40E94B11408
:102D100077C060E080E494E00E94AF1C80E00E94F5
:102D2000F4146EC060E08DE294E00E94AF1C8091CC
:102D3000BC008F70806C8093BC00E0918205F091A4
:102D40008305309709F45AC065E875E080918405E1
:102D5000099554C060E08AE194E00E94AF1C84E0D1
:102D60008093C705E0918005F0918105309731F09F
:102D700067EA75E080E209958093A5051092A605A3
:102D800060E086E094E00E94AF1CE091A60581E03F
:102D90008E0F8093A605F0E0E955FA4F808180936D
:102DA000BB009091A6058091A505981728F4809105
:102DB000BC008F70806C04C08091BC008F708068F4
:102DC0008093BC001DC060E084EE93E00E94AF1CC5
:102DD0008091BC008F70806C0FC060E085ED93E047
:102DE0000E94AF1C0DC060E084EC93E00E94AF1C19
:102DF0008091BC008F70806D8093BC001092C705DD
:102E0000FF91EF91BF91AF919F918F917F916F91C2
:102E10005F914F913F912F910F900FBE0F901F9098
:102E20001895F89440985A98882321F0813019F425
:102E30005A9A01C0409A8BB1806F8BB985B18F606F
:102E400085B92F988AB18F708AB984B1807F84B98F
:102E50002D9A2C9A0000000089B193B12C9887FF1D
:102E600008C000000000000000002C9A00000000D4
:102E7000F1CF2D988AB1806F8AB984B18F6084B9FF
:102E800078940895CF93DF931F92CDB7DEB7F8946F
:102E900069830E9411172F982D982C9A8AB1806F00
:102EA0008AB984B18F6084B98BB18F708BB99BB1B3
:102EB0006981862F807F892B8BB985B1807F85B909
:102EC00085B16F70682B65B900000000000000003C
:102ED00000000000000000002C9878940F90DF9113
:102EE000CF9108958093C805682F6F7360648295B1
:102EF0008695869583700C9442179091C80592959B
:102F000096959695937087708093C905E92FF0E0A8
:102F1000E653FA4F2081821731F08083682F686B67
:102F2000892F0C94421708958091C8058295869543
:102F300086958370F8940E9411172F9A8AB18F702A
:102F40008AB984B1807F84B92D9A2C9A0000000040
:102F500000000000000000000000000089B193B1F3
:102F60002C982D9878949F70807F892B089560EC21
:102F700080E00E9442176FE380E00E94421760ECFD
:102F800081E00E9442176FE381E00C944217CF93D7
:102F9000DF931F92CDB7DEB769830E9472176981F4
:102FA000862F0F90DF91CF910C947D178091C805EB
:102FB0008F3718F080E00C9472178F5F8093C805EC
:102FC000982F9F7331F40E9472178091C9050C9459
:102FD0007D170895CF93C82F8091C8058295869557
:102FE00086958370F8940E9411172F9A2D982C9A29
:102FF0009AB1906F9AB994B19F6094B99BB19F7048
:103000009BB98BB19C2F907F982B9BB995B1907FEA
:1030100095B995B18C2F8F70892B85B90000000070
:103020000000000000000000000000002C987894D0
:10303000CF910C94D6171F93CF93DF9391E08130FB
:1030400009F090E0192F1195C0E06C2F80E00E94EC
:10305000C717D0E0812F0E94EA17DF5FD038D1F781
:10306000CF5FC83091F7DF91CF911F910C94B717C4
:103070002F982D982C9840985A98279A259A249AF8
:10308000389A529A9BB19F709BB995B1907F95B930
:103090009AB1906F9AB994B19F6094B99FEF909351
:1030A000CA059093CB050C941B181F920F920FB674
:1030B0000F9211242F933F934F935F936F937F93BE
:1030C0008F939F93AF93BF93EF93FF938091DC0512
:1030D000882329F08091DC0581508093DC05809164
:1030E000F104882329F08091F10481508093F10448
:1030F0008091F204882359F08091F20481508093EA
:10310000F2048091F204811102C00E941D05809199
:10311000D305813009F092C08091CE059091CF0502
:10312000892B09F08BC08091DA059091DB05892B02
:1031300009F07AC09091D7058091D6052091700151
:1031400098131CC02130D1F480917101803219F4A0
:103150001092710103C08E5F8093710180917101A3
:1031600090E0FC01EF5CFA4F34913093D705FC01FD
:10317000EE5CFA4F8491830F8093D6058091D7053A
:10318000213001F51092700190E0FC01E751FA4FF7
:10319000E49129E0E29FF0011124F093D905E09336
:1031A000D805FC01ED5AFA4F849123E6829FC001B5
:1031B000112463E070E00E9432317093DB0560936C
:1031C000DA0510C091E0909370011092D905109229
:1031D000D80521E330E03093DB052093DA058F5FDB
:1031E0008093D7058091D8059091D905892B21F43A
:1031F00010928100439818C01092800089E080935B
:10320000810083E080936F002091D8053091D9052B
:1032100040E050E060E079E08DE390E00E945A31B8
:1032200030938900209388008091DA059091DB0526
:1032300001979093DB058093DA0517C08091D00544
:103240009091D105019689F41092810043981092D3
:10325000D1051092D00580E2809371018091D6054E
:103260008093D70581E080937001FF91EF91BF912A
:10327000AF919F918F917F916F915F914F913F910E
:103280002F910F900FBE0F901F9018951F920F92C5
:103290000FB60F9211248F939F9388B198E08927DE
:1032A00088B99F918F910F900FBE0F901F90189526
:1032B0001F920F920FB60F9211248F939F9388B194
:1032C00098E0892788B99F918F910F900FBE0F903A
:1032D0001F9018951E9B21C08091CD058130A9F5C6
:1032E0001092CD051092CF051092CE051092D10507
:1032F0001092D0058091D305813039F51092D30515
:103300001092810090E2909371019091D605909374
:10331000D70580937001439808958091CD05811160
:1033200014C081E08093CD051092CF051092CE0598
:103330001092D1051092D00590E290937101909176
:10334000D6059093D705809370010895EF92FF9270
:103350000F931F93CF93DF938B017A01882359F04A
:10336000282F30E021503109220F331FC90109965F
:10337000E9012A9604C0C2E0D0E081E090E00E941A
:103380009B3168E10E941831F8019083CE010E94C0
:103390009B316CE30E941831F7019083DF91CF914C
:1033A0001F910F91FF90EF9008950F931F93CF936C
:1033B000DF9300D0CDB7DEB769834A83882361F0FD
:1033C000282F30E021503109220F331FC9010996FF
:1033D0008901065F1F4F04C002E010E081E090E029
:1033E00069810E94A3316A81C8010F900F90DF911B
:1033F000CF911F910F910C94A3316AE00E94183174
:10340000292F30E1839FC0011124822B0895CF938F
:103410009C01C62F1092800089E08093810083E098
:1034200080936F0040E050E060E079E08DE390E051
:103430000E945A313093890020938800C93140F0AE
:103440008FE493EC0197F1F700C00000C951F6CF6B
:10345000109281004398CF910895CF93DF9380E03D
:1034600090E00E949B31833CA1F0C1E0D0E0FE01DE
:10347000EF5DFA4F6491CE010E94A3312196C031D5
:10348000D105A9F763EC80E090E0DF91CF910C9437
:10349000A331DF91CF910895CF93DF93C82FD0E070
:1034A000E42FF0E0E053F84F833010F42C9631977E
:1034B000262F30E02F5F3F4F2E0F3F1FCE01880F8A
:1034C000991F280F391FCF01969587959695879557
:1034D000280F391FCF0160E971E00E943231260FB9
:1034E000371FCF0164E670E00E943231261B370B94
:1034F000219646E04C9FC0014D9F900D11246AE03B
:1035000070E00E943231260F371FC90167E070E07A
:103510000E943231DF91CF9108959C0183709927E9
:10352000892B39F4C90164E670E00E943231892B9D
:1035300059F4C90160E971E00E94323121E0892B20
:1035400009F020E0822F089581E008951092E104AF
:103550008091D4058823E1F38CE380930E061092CA
:10356000D4058091D4058823E1F381E08093E104C0
:103570000895CF93DF93CDB7DEB729970FB6F894B0
:10358000DEBF0FBECDBF1986F894AE01475F5F4F17
:1035900061E080ED0E94011581110E94B52DAE0100
:1035A0004F5F5F4F67E080ED0E944815789481116E
:1035B000F4CF8981282F2695269526952E70922F57
:1035C000990F990F920F282F2F70920F9093080642
:1035D0003A81232F2695269526952E70922F990FA6
:1035E000990F920F3F70930F909309069B81292F9B
:1035F00022952F70392F3F7096FF11C095FB4427FD
:1036000040F92170220F922F990F990F920F2CE001
:10361000429F900D1124930F90930A0607C02370C8
:103620009AE0299F300D112430930A063D81232F03
:103630002695269526952670922F990F990F920F11
:103640003F70930F90930B063E8134FB222720F9A5
:10365000220F922F990F990F920F3F70930F909313
:103660000C069F81292F22952F709F703AE0239F8F
:10367000900D112490930D06807829960FB6F8943A
:10368000DEBF0FBECDBFDF91CF9108951F920F9285
:103690000FB60F9211242F933F934F935F936F9325
:1036A0007F938F939F93AF93BF93CF93EF93FF93AA
:1036B000A8958091D505813279F41092D505C091F5
:1036C00008068091DD05813059F41092D1051092E1
:1036D000D0051092DD0504C08F5F8093D5058CC0A6
:1036E0000E946A190E94B91A809108068C17D9F1B4
:1036F0008091F604882329F08091F604815080930C
:10370000F6042091D305213021F58091CE059091CA
:10371000CF058130910551F430E230937101309141
:10372000D6053093D7052093700102C0009729F089
:1037300001979093CF058093CE058091D00590910D
:10374000D105181619062CF401979093D105809392
:10375000D0058091CC05882331F08091F704811148
:1037600002C00E9401078091D405811112C090917E
:103770000E0680910806981761F086E0E8E0F6E012
:10378000AEE0B6E001900D928A95E1F781E080937A
:10379000D4058091CD05813079F59091D3059111B3
:1037A00015C090910806911111C0209109069091C1
:1037B000FE0529130BC020910A069091F8052913E4
:1037C00005C08093D30588E097E012C08091D305AF
:1037D000813091F48091D0059091D105892B61F4CD
:1037E0001092D3051092CF051092CE058FEF9FEF68
:1037F0009093D1058093D005FF91EF91CF91BF9128
:10380000AF919F918F917F916F915F914F913F9178
:103810002F910F900FBE0F901F901895EF920F935E
:10382000CF93DF93CDB7DEB72B970FB6F894DEBFFB
:103830000FBECDBF19822B874A8769870E94FD1969
:103840008A836985862F0E94FD198B834A85842F80
:103850000E94FD198C831D822B85822F0E94FD19E9
:103860008E83802F0E94FD198F838E2D0E94FD195B
:103870008887F894AE014F5F5F4F68E080ED0E944B
:103880000115789481110E94B52D2B960FB6F894EE
:10389000DEBF0FBECDBFDF91CF910F91EF900895A6
:1038A000EF920F930E94B8140E94B91A882349F02E
:1038B00061E1E62E01E021E04CE060E080E00E9462
:1038C0000E1C0E94B91A87E08093B10081E08093BA
:1038D000700078940F91EF9008959093C5008093B5
:1038E000C40088E18093C1008EE08093C200519AA9
:1038F000509808959091C00095FFFCCF8093C6002A
:1039000080E090E00895CF93C82F82958F708A3021
:1039100010F4805D01C0895A0E947A1C8C2F8F7030
:10392000282F30E02A30310514F4805D01C0895A17
:10393000CF910C947A1CCF93C82F892F0E94831C9F
:103940008C2FCF910C94831C8091C00087FFFCCFFB
:103950008091C60008958091C000807808950895F0
:103960000895089508950895CF92EF920F931F93AD
:10397000CF93DF9300D01F92CDB7DEB7162FBE01D5
:103980006F5F7F4F0E942E04C090FF050091E205FB
:10399000019F902D11248091E005E090E1059E01AA
:1039A0002F5F3F4F41E06091DF0553E1959F800D10
:1039B00011240E9445110F900F900F90DF91CF912D
:1039C0001F910F91EF90CF900895CF92EF920F93A8
:1039D000823041F40091F70528E340E860E080E0A0
:1039E0000E94F50FC090FF059091E2058091E005DF
:1039F000E090E105092F20EE32E041E06091DF0523
:103A00005DE0959F800D11240E9445118091E30592
:103A10008130A1F4C090FF059091E2058091E0050E
:103A2000E090E105092F20EE32E041E06091DF05F2
:103A300050E2959F800D11240E9445110F91EF9047
:103A4000CF9008950F93CF93DF93CDB7DEB729972B
:103A50000FB6F894DEBF0FBECDBF40E069E382E051
:103A60000E9438048091E104811105C08091DD0439
:103A7000882309F492C09091E4048091E70498139C
:103A800011C09091E3048091E60498130BC09091CB
:103A9000E2048091E504981305C08091DD04813033
:103AA00009F04AC00091FF054091E2046091E404EE
:103AB0008091E3040E944C1AE82FF0E0EE0FFF1F04
:103AC000E65BFE4F2081318141E06091DE0582E1BD
:103AD0000E9470120091FF05E091E304F0E0EE0F08
:103AE000FF1FEA5AFE4F2081318141E06091DE05DF
:103AF0008AE20E9470128091E404BE016F5F7F4FE2
:103B00000E942E048CE28B8380E28C8382E38D837F
:103B100080E38E838091E204BE01695F7F4F0E9443
:103B20002E040091FF059E012F5F3F4F41E0609101
:103B3000DE0582E40E9470129091E8048091EB040B
:103B4000981304C08091DD04813029F48091E80449
:103B500060E00E94B41C9091E9048091EC049813F9
:103B600004C08091DD04813029F48091E90461E092
:103B70000E94B41C8091E305813079F49091EA04AD
:103B80008091ED04981304C08091DD04813029F404
:103B90008091EA0462E00E94B41C29960FB6F89462
:103BA000DEBF0FBECDBFDF91CF910F910895109270
:103BB000E30594E09093E00522E02093DF059093E5
:103BC000E20595E09093E1059CE29093DE050C946C
:103BD000E51C91E09093E30590E19093E0059CE073
:103BE0009093DF0592E09093E2059093E10595E2D2
:103BF0009093DE050C94E51CFC012281203429F40D
:103C000023812F3111F422E001C026E0362FDC01A0
:103C1000FB0181918D938E2F831B8217D0F3089522
:103C20002F923F924F925F926F927F928F929F92CC
:103C3000AF92BF92CF92DF92EF92FF920F931F93BA
:103C4000CF93DF93CDB7DEB72A970FB6F894DEBFD8
:103C50000FBECDBF8D839A871B0129013A01E982EE
:103C6000FA820B831C831A2D082DCA01B9010E9408
:103C7000CE304B015C016C2D70E080E090E00E9442
:103C8000A62F6B017C019B01AC01C501B4010E9410
:103C90006B300E94732F605CF1016083C301B2013D
:103CA0000E94082F9058A70196010E946B300E9435
:103CB000732F615EF101618329813A814B815C81BF
:103CC000C301B2010E94A42E4B015C010E94CE30C0
:103CD0006E837F8388879987612F70E080E090E012
:103CE0000E94A62F6B017C019B01AC016E817F813C
:103CF000888599850E946B300E94732F605CF1016A
:103D00006283C501B4010E94082F9058A701960153
:103D10000E946B300E94732F615EF10163832981E1
:103D20003A814B815C81C301B2010E94A32E4B01F9
:103D30005C010E94CE30A70196010E946B300E9468
:103D4000732F605CF1016483C501B4010E94082FE8
:103D50009058A70196010E946B300E94732F615EFC
:103D6000F10165839D81D101E92FFA858E2F891B91
:103D7000801730F421918D912817C1F381E001C0A3
:103D800080E02A960FB6F894DEBF0FBECDBFDF915C
:103D9000CF911F910F91FF90EF90DF90CF90BF9048
:103DA000AF909F908F907F906F905F904F903F90DB
:103DB0002F9008950F931F93CF93DF93EC01162F4D
:103DC000062F2B814A81698188810E942C108A816B
:103DD000803419F48B818F3169F0012F2D814C8152
:103DE000698188810E942C102D814C816B818A8190
:103DF0000E942C10DF91CF911F910F910895CF92C7
:103E0000DF92EF92FF920F931F93CF93DF93813056
:103E100009F071C00091FF0520E04EE16FE180E400
:103E20000E94FF0B4091FF056FE180E40E94B20DFC
:103E3000C0E0D3E06C2F772767FD7095872F972F11
:103E40000E94A62F22E93AE046E05FE30E946B3031
:103E50006B017C010E94CE302DEC3CEC40EE51E435
:103E60000E946B300E94732F162FC701B6010E946B
:103E7000082F90582DEC3CEC40EE51E40E946B3042
:103E80000E94732F062F4091FF056FE1600F80E4C1
:103E9000810F0E94B20D8C2F6D2F0E942431911141
:103EA00015C0C11102C0015009C0C33011F41F5F19
:103EB00005C0C63011F40F5F01C011504091FF05DD
:103EC0006FE1600F80E4810F0E94B20DCF5FCC30B4
:103ED00009F0B0CFE0EFF5E0CAEED5E0A4EEB5E032
:103EE00088E2819389938D9395E0E63FF907C9F7BE
:103EF0001092F90518C08091FD05811114C06091E0
:103F0000F70580EF95E00E94DA1E4091FF056FE112
:103F100080E4DF91CF911F910F91FF90EF90DF90A0
:103F2000CF900C94B20DDF91CF911F910F91FF9024
:103F3000EF90DF90CF9008954F925F926F927F92B3
:103F40008F929F92AF92BF92CF92DF92EF92FF92A9
:103F50000F931F93CF93DF93CDB7DEB76A970FB65A
:103F6000F894DEBF0FBECDBF1091DE048091E00457
:103F7000813009F0AEC08091FA05813009F09FC010
:103F80006091FE0570E080E090E00E94A42F20E5A3
:103F900037E746ED5DE30E946B306B017C010E94C8
:103FA000CE304B015C01C701B6010E94082F2B01E6
:103FB0003C018091F8050091FE056CE00E941831EB
:103FC000692F70E080E090E00E94A62F22E93AE09D
:103FD00046E05FE30E946B306B017C01602F70E074
:103FE00080E090E00E94A42F25E33AEF4EE05CE3EE
:103FF0000E946B309B01AC01C701B6010E94A42E48
:104000006B017C010E94CE306B8B7C8B8D8B9E8BE9
:10401000C701B6010E94082F6F8B788F898F9A8F06
:104020000091FF0520E047E066E386E70E94FF0B72
:104030000091FF05C301B201905820E030E040EE4E
:1040400050E40E946B300E94732F762E86E3780E28
:1040500020E030E040EE50E4C501B4010E946B3036
:104060000E94732F462F4A58272D66E386E70E9449
:104070002C100091FF056F89788D898D9A8D90584D
:1040800020E030E040EA50E40E946B300E94732F41
:10409000B62E86E3B80E20E030E040EA50E46B89AB
:1040A0007C898D899E890E946B300E94732F462FD8
:1040B0004A582B2D66E386E70E942C100AC0009117
:1040C000F70521E141E16EE28EE60E94F50F1092C4
:1040D000F9058091DF04813071F41F70812F90E029
:1040E00021E008970CF420E08091F9052817A1F051
:1040F0002093F90506C08091F905813069F410928A
:10410000F905C090F70584E0E82E02E021E141E1E5
:104110006EE28EE60E94F10D8091E104813021F083
:104120008091DD04813019F41092050605C080915C
:1041300005068F5F809305069091E4048091E70463
:1041400098130AC09091E3048091E604981304C088
:104150008091DD04813091F50091FF05E091E30449
:10416000F0E0EE0FFF1FEA5AFE4F2081318140E060
:1041700069E382E00E94701212E0180F80E28983E6
:104180008091E404BE016E5F7F4F0E942E04009177
:10419000FF059E012F5F3F4F40E069E3812F0E94A2
:1041A0007012810F9EEF980F983140F40091F7053F
:1041B0004AE1481B25E069E30E94F50F8091FD0567
:1041C0008130D1F56091EA041091050670E080E03D
:1041D00090E00E94A42F20E537E746ED5DE30E94C2
:1041E0006B306B017C01612F70E080E090E00E94F9
:1041F000A62F28E93EE24EEF5BE30E946B309B0165
:10420000AC01C701B6010E94A42E9B01AC0196E04F
:10421000892E67E1A62E7BE1C72E1DECE12E1CEC5A
:10422000F12E0CEC1DE3BE01635F7F4F80EF95E044
:104230000E94101EB82E01C0B12C8091E104813083
:1042400029F08091DD04813009F085C06091E90496
:104250001091EA0470E080E090E00E94A42F20E535
:1042600037E746ED5DE30E946B306B017C01612F07
:1042700070E080E090E00E94A42F29E833EC44EE47
:104280005AE30E946B309B01AC01C701B6010E944A
:10429000A42E9B01AC01F2E08F2EA8E0AA2EBBE178
:1042A000CB2E1CE7E12E19EDF12E00E210E4BE0149
:1042B000695F7F4F8AEE95E00E94101E982E81E084
:1042C000981659F09091EB048091E804981305C07A
:1042D0008091DD04813009F041C08091E8041091A3
:1042E000E9046CE00E941831692F70E080E090E0F2
:1042F0000E94A62F22E93AE046E05FE30E946B307D
:104300006B017C01612F70E080E090E00E94A42F9F
:1043100025E33AEF4EE05CE30E946B309B01AC0179
:10432000C701B6010E94A42E9B01AC0196E0892E24
:1043300065E0A62E74E1C72E1CE7E12E19EDF12EE3
:1043400000E210E4BE016F5F7F4F84EE95E00E94B3
:10435000101E182F04C010E0912C01C010E08091B5
:10436000FD058130C9F4B81621F08091DD0481305B
:1043700099F46091F70580EF95E00E94DA1EBE0186
:10438000635F7F4F80EF95E00E94FC1D6091FF0509
:1043900080EF95E00E94DA1E81E0981621F080916E
:1043A000DD048130E1F46091F7058AEE95E00E942A
:1043B000DA1EBE01695F7F4F8AEE95E00E94FC1D08
:1043C0006091FF058AEE95E00E94DA1E8091FD055E
:1043D000813071F46091FF0580EF95E007C081E0C6
:1043E000B81206C06091FF058AEE95E00E94DA1EC1
:1043F000113021F08091DD04813011F56091F705D5
:1044000084EE95E00E94DA1EBE016F5F7F4F84EE5E
:1044100095E00E94FC1D6091FF0584EE95E00E94EE
:10442000DA1E8091FD05813031F46091FF0580EF47
:1044300095E00E94DA1E6091FF058AEE95E009C0C2
:1044400081E0B81611F0981206C06091FF0584EE65
:1044500095E00E94DA1E6A960FB6F894DEBF0FBE92
:10446000CDBFDF91CF911F910F91FF90EF90DF9023
:10447000CF90BF90AF909F908F907F906F905F9004
:104480004F9008951092FD050C94FF1E91E09093BB
:10449000FD050C94FF1E8F929F92AF92BF92CF9218
:1044A000DF92EF92FF920F931F93CF93DF931F92B0
:1044B000CDB7DEB7F82E862F91E03AE0632FA91230
:1044C00018C00E941831D82E842F0E941831B82E9F
:1044D000822F0E941831A82E802F0E941831982E0A
:1044E0008E2D0E941831E82E8C2D0E941831982FA5
:1044F00016C00E941831D92E842F0E941831B92E6F
:10450000822F0E941831A92E802F0E941831992ED7
:104510008E2D0E941831E92E8C2D0E941831D91051
:1045200007C0BE1005C0A91203C0882009F443C00B
:104530002DE0C22E10E031E0D11230E0B11201C006
:104540003260A11201C0346021E0911220E0E1123A
:1045500001C02260911301C02460321305C081E0C4
:10456000881223C0222309F130E0220F331FF90102
:10457000E35EFD4F8081811103C00091FF0502C001
:104580000091F705F901E35EFD4F218145E06F2DB4
:104590008C2D99830E94730F0091FF0520E045E068
:1045A0006F2D8C2D0E94FF0B99811F5F8CE0C80E30
:1045B0001A3009F0C0CF0F90DF91CF911F910F916A
:1045C000FF90EF90DF90CF90BF90AF909F908F9033
:1045D0000895FF920F931F93CF93DF938091050669
:1045E000811172C08EE28093F90581E08093050607
:1045F0008091F7050E941B180091FF052AE234E024
:1046000040E061E081E00E947012C6E2D2E01EE06C
:10461000F12C83E0F81203C00091F70502C000916D
:10462000FF05FE013897208145E0612F8EE00E9452
:10463000730F0091FF0520E045E0612F8EE00E949E
:10464000FF0BF11003C00091FF0502C00091F705B8
:10465000288145E0612F86E40E94730F0091FF05D9
:1046600020E045E0612F86E40E94FF0BF394229640
:10467000125F84E0F812CDCF0091FF0528E334E00B
:1046800040E06CE089E10E947012CDE3D2E016E1D7
:104690000091FF052991399140E0612F89E10E9445
:1046A0007012195F1034A1F7CDE2D2E018E000914A
:1046B000FF052991399140E0612F81E50E94701238
:1046C000195F1034A1F702C010920506DF91CF9157
:1046D0001F910F91FF9008958F92AF92CF92EF921A
:1046E0000F93CF93DF9300D01F92CDB7DEB78091A9
:1046F000F905813021F48091E104813041F080910D
:10470000F905882359F080910506811107C081E0E1
:104710000E948D0383E00E948D0378C0809105067E
:104720008130E1F48091E104813009F06FC0809123
:10473000F90581508093F9058091F905BE016F5FFD
:104740007F4F0E942E040091FF059E012F5F3F4F77
:1047500040E061E088E70E94701258C040E06AE3E0
:1047600081E00E9438048091E104811105C08091AC
:10477000DD04882309F44AC08090DD04C090E80479
:10478000E090E9040091EA042091EB044091EC04EC
:104790006091ED04AA24A3948DE00E944B228090A6
:1047A000DD04C090E804E090E9040091EA0420915F
:1047B000EB044091EC046091ED04A12C89E10E948E
:1047C0004B228090DD04C090E204E090E30400916D
:1047D000E4042091E5044091E6046091E704AA24F2
:1047E000A39485E20E944B228090DD04C090E204F5
:1047F000E090E3040091E4042091E5044091E60494
:104800006091E704A12C81E30E944B220F900F904E
:104810000F90DF91CF910F91EF90CF90AF908F904D
:104820000895AF92CF92EF920F931F93CF93DF93A0
:1048300000D000D01F92CDB7DEB780E389831A8203
:104840001CE00091FF059E012F5F3F4F40E061E0BB
:10485000812F0E94701289818F5F8983145F1438C1
:1048600081F7A090FF05CC24C394EE24E39401E8E3
:1048700014E021E040E06AE181E00E947D12A09016
:10488000FF050AE814E021E040E061E381E00E94D6
:104890007D125DE090E03DE010E0111102C0963025
:1048A00070F40091FF0520E045E0632F852F3C83E5
:1048B0005D839B830E94FF0B9B815D813C811F5F19
:1048C000345F143051F79F5F545F9A3021F7109294
:1048D000F905109205060F900F900F900F900F9012
:1048E000DF91CF911F910F91EF90CF90AF900895EE
:1048F000CF92DF92EF92FF920F931F93CF93DF93AC
:10490000C82FD42F122F70E080E090E00E94A42FD7
:104910009B01AC0160E070E080E891E40E940B2F05
:104920006B017C016D2F70E080E090E00E94A62F6B
:104930009B01AC01C701B6010E946B3020E030E062
:1049400040E05FE30E94A42E0E94782FD62F612FB3
:1049500070E080E090E00E94A62F9B01AC01C701AF
:10496000B6010E946B3020E030E040E05FE30E943F
:10497000A42E0E94782F162FD61304C08091DD0438
:104980008130F1F40091F70588E0F82EFC0ED6593D
:1049900021E042E06F2D8D2F0E94F50F0091F70569
:1049A0006AE06C0F21E042E08D2F0E94F50F00912C
:1049B000FF0523E042E06F2D8AE6810F0E94F50F8C
:1049C000DF91CF911F910F91FF90EF90DF90CF90EB
:1049D00008950F931F93CF93DF939091E4048091F8
:1049E000E704981306C09091E3048091E6049817B9
:1049F00021F0C2E7D1E081E00FC08091DD04813079
:104A000009F052C0F6CF2091E3049A81291751F0A2
:104A10008F5F2796843031F02091E4049981291327
:104A2000F7CFF1CF9091F6059817F1F18093F60545
:104A300088818823D9F06B817C8180E00E940110FD
:104A4000182F6D817E816115710521F080E00E9433
:104A50000110180F21E830E0211B310937FF02C097
:104A60002F5F3F4F35952795122F01C012E000911F
:104A7000F70527E040E860E080E00E94F50F009134
:104A8000FF052B813C8140E061E0812F0E94701284
:104A9000810F2D813E812115310531F00091FF05F7
:104AA00040E061E00E947012DF91CF911F910F9161
:104AB00008950F93CF93DF938A30F1F40091FF05AF
:104AC00022E241E067E188E00E94F50F0091FF05D6
:104AD00021E043E568E389E00E94F50FC8E14091D9
:104AE000FF056C2F87E00E94B20DCB5FCB33B9F787
:104AF000CAE3DDE08BE405C08D3009F1C6E3DAE0FE
:104B00008EE40091FF052AE032E040E06C2F0E9425
:104B100070120091FF052EE032E040E06C2F8CE235
:104B20000E9470120091FF0522E132E040E06C2FFC
:104B30008D2F0E947012DF91CF910F910895CAE3DB
:104B4000DECF4F925F926F927F928F929F92AF9241
:104B5000BF92CF92DF92EF92FF920F931F93CF936A
:104B6000DF9300D000D0CDB7DEB7182FD62EF02EB1
:104B7000BC2C0F89622F70E080E090E04C830E9493
:104B8000A62F2B013C014C81642F70E080E090E067
:104B90000E94A42F9B01AC01C301B2010E940B2F04
:104BA0002B013C016E2D70E080E090E00E94A62F6A
:104BB0009B01AC01C301B2010E946B3020E030E0E8
:104BC00040E05FE30E94A42E0E94782F962E6C2D69
:104BD00070E080E090E00E94A62F9B01AC01C30131
:104BE000B2010E946B3020E030E040E05FE30E94C1
:104BF000A42E0E94782F762E6D2C661A961204C071
:104C00008091DD04813021F521E0270D0530B9F4D4
:104C10000091FF054F2D662D812F0E94FF1381E02B
:104C20008715B0F4C090FF0525E0E22E00E02FEFDD
:104C3000270D4EEF4F0D61E0660D810F07C0C0904C
:104C4000FF05E02E01E04F2D662D812F0E94F10D12
:104C5000BE016F5F7F4F8B2D0E942E040091FF05D8
:104C6000E62CE80C9E012F5F3F4F41E06E2D812F17
:104C70008A0D0E9470120091F7056FEF660D21E01A
:104C80004F2D812F0E94F50F0091F705B82CB0949D
:104C90002B2D4A2D6E2D812F0E94F50F0091F705C7
:104CA0004FEF4A0D8F2D8A198F5F2B2D6E2D810F9F
:104CB0000E94F50F791458F40091F705292D271952
:104CC0006D2D680D69194F2D812F0E94F50F0F90E2
:104CD0000F900F900F90DF91CF911F910F91FF9048
:104CE000EF90DF90CF90BF90AF909F908F907F908C
:104CF0006F905F904F9008950F93CF93DF93EC01E7
:104D0000623001F50091F7052FE244E660E180E0B2
:104D10000E94F50F0091FF059E0140E069E082E0EE
:104D20000E947012282F30E0213331050CF06AC048
:104D30000091F70541E3481B25E069E08E5F0E9482
:104D4000F50F60C00091FF0521E040E867E080E0DA
:104D50000E94F50F0091FF0521E040E86FE080E040
:104D60000E94F50F0091FF0529E341E067E085E629
:104D70000E94F50F8FEF8093F6050E94E9240091C1
:104D8000FF059E0140E069E082E00E947012009100
:104D9000FF052FE834E040E069E086E50E947012EC
:104DA0000091FF0523E934E040E069E088E60E94D5
:104DB0007012C2E1D0E022E132E00091FF0540E054
:104DC0006C2F89E60E9470120091FF0527E046E1F2
:104DD00066E06C0F88E60E94FF130091FF0521E05A
:104DE00042E169E06C0F8AE60E94F50FDF5FD33085
:104DF00049F0D13019F02AE032E002C02EE032E072
:104E0000C15FDBCFDF91CF910F91089541E069E061
:104E100083E30E9438048091E104811104C08091F1
:104E2000DD048823C9F10E94E9249091EA0480916D
:104E3000ED04981304C08091DD04813041F4209189
:104E4000EA044091ED046BE380E30E9478249091A2
:104E5000E9048091EC04981304C08091DD04813052
:104E600041F42091E9044091EC046BE381E20E945B
:104E700078249091E8048091EB04981304C0809109
:104E8000DD04813059F42091E8044091EB0467E19E
:104E900082E10E94782402C080E0089581E00895B4
:104EA0003F924F925F926F927F928F929F92AF92BA
:104EB000BF92CF92DF92EF92FF920F931F93CF9307
:104EC000DF93CDB7DEB728970FB6F894DEBF0FBEDD
:104ED000CDBF782EF42E122FB02E70E080E090E03F
:104EE0000E94A62F28E339EA4BEF5EE30E946B3065
:104EF00020E030E040E05FE30E94A42E0E94782F83
:104F0000862E6F2D70E080E090E00E94A62F28E3AF
:104F100039EA4BEF5EE30E946B3020E030E040E086
:104F20005FE30E94A42E0E94782F962E612F70E0DE
:104F300080E090E00E94A62F28E339EA4BEF5EE381
:104F40000E946B3020E030E040E05FE30E94A42E3E
:104F50000E94782F562E602F70E080E090E00E9433
:104F6000A62F28E339EA4BEF5EE30E946B3020E086
:104F700030E040E05FE30E94A42E0E94782F462E8E
:104F8000851428F4652C681816E3151904C0682CDC
:104F9000651816E31819611002C06624639494140E
:104FA00030F4342C3918E6E3DE2ED41805C0392C41
:104FB000341876E3D72ED918311002C03324339435
:104FC000891006C0541004C08091DD04813081F442
:104FD000BF1418F400E083E002C001E082E0C0905A
:104FE000FF05E82E232D4DE06D2D872D0E94F10D3C
:104FF000BF18B7FE04C08DE2898321E001C020E024
:105000008B2D992787FD909597FF03C091958195EA
:105010009109382F8A3064F0E1E0F0E0EC0FFD1FD9
:10502000E20FF11D6AE00E942431805D80832F5FD2
:10503000E1E0F0E0EC0FFD1FE20FF11D832F6AE0CD
:105040000E942431905D90832F5FE1E0F0E0EC0F4F
:10505000FD1FE20FF11D1082B22EBB0CBB0CBA94E7
:105060000091FF054DE0E42EF12CEB18F108F594CA
:10507000E794A72CAE0C9E012F5F3F4F40E06AEFF4
:10508000F62EFD0C6F2D8A2D0E9470120091F705EF
:1050900026E04E2D6F2D872D0E94F50F0091F7050C
:1050A00026E04E2D6F2D8A2D8B0D0E94F50F891055
:1050B00003C0541409F468C00091F70521E04DE0E5
:1050C0006FEF6D0D872D0E94F50FA12EB12C862D4F
:1050D00090E09E838D838D2D90E098878F831D15A2
:1050E000E0F49C01265031098D819E818A0D9B1D23
:1050F000821793071CF426E0260D02C02D2D211BDC
:10510000222359F0C090FF0535E0E32E02E04DE088
:105110006AEF610F872D0E94F10D85100FC0941466
:1051200068F489100BC0C090FF0595E0E92E02E0FD
:1051300021E04DE0612F872D0E94F10D8F81988530
:10514000830D911D2D813E812A0D3B1D82179307F2
:10515000DCF425E0A21AB1088A159B0534F0632D12
:105160006D0D262D210F261B04C026E0260D6AEFAB
:10517000610F222349F0C090FF0585E0E82E02E090
:105180004DE0872D0E94F10D28960FB6F894DEBFF2
:105190000FBECDBFDF91CF911F910F91FF90EF9088
:1051A000DF90CF90BF90AF909F908F907F906F9047
:1051B0005F904F903F9008958F92AF92CF92EF9271
:1051C0000F930E940627882309F48AC09091EA046D
:1051D0008091ED04981304C08091DD04813091F436
:1051E000C090EA04E090ED0485E08F9388EF882E6C
:1051F00092E0A92E0FE02DE14BE366E389E40E94E3
:10520000A1250F909091E9048091EC0498130AC0B5
:105210009091EA048091ED04981304C08091DD041C
:10522000813059F40091EA042091ED044091E904A1
:105230006091EC048BE30E9450279091E9048091E7
:10524000EC04981304C08091DD04813091F4C09087
:10525000E904E090EC0485E08F93B8EF8B2E02E038
:10526000A02E0FE02DE14BE366E38BE20E94A12527
:105270000F909091E8048091EB0498130AC09091EC
:10528000E9048091EC04981304C08091DD0481301E
:1052900059F40091E9042091EC044091E8046091F4
:1052A000EB048DE10E9450279091E8048091EB047B
:1052B000981304C08091DD04813091F4C090E8041B
:1052C000E090EB0485E08F93F8EF8F2EA2E0AA2EFA
:1052D0000FE02DE14BE366E38DE00E94A1250F90E6
:1052E0000F91EF90CF90AF908F900895682F8EEA36
:1052F00094E00E947C268AE00C9459258F929F921C
:10530000AF92BF92CF92DF92EF92FF92CF93DF9353
:10531000C82F70E080E090E00E94A62F2BED3FE0C8
:1053200049E45FE30E946B3024EE3BEC46E150E43D
:105330000E94A32E6B017C010E94CE304B015C01C8
:10534000C701B6010E94082FF090FF05905826E68D
:1053500036E646E551E40E946B300E94732FD62F4B
:10536000DC5D26E636E646E551E4C501B4010E945F
:105370006B300E94732F862F4F2D6D2F8C0FDF9176
:10538000CF91FF90EF90DF90CF90BF90AF909F9024
:105390008F900C94B20D7F928F929F92AF92BF929A
:1053A000CF92DF92EF92FF920F931F93CF93DF93F1
:1053B00000D01F92CDB7DEB7182FA62EB42E70E006
:1053C00080E090E00E94A62F2CE739ED40EA5DE3F3
:1053D0000E946B3024EE3BEC46E150E40E94A32E89
:1053E0006B017C010E94CE3026E636E646E551E4AC
:1053F0000E946B300E94732F962EC701B6010E9447
:10540000082F905826E636E646E551E40E946B30B8
:105410000E94732F862E6B2D70E080E090E00E943A
:10542000A62F2CE739ED40EA5DE30E946B3024EEB5
:105430003BEC46E150E40E94A32E6B017C010E94EC
:10544000CE3026E636E646E551E40E946B300E94F7
:10545000732F762EC701B6010E94082F905826E6BA
:1054600036E646E551E40E946B300E94732FF62E1B
:10547000971006C0861204C08091DD048130F1F4DB
:105480000091F70524E2280D492D410F64E2812F98
:105490000E942C100091FF0524E22F0D472D410F93
:1054A00064E2812F0E942C108A2D6AE00E9418313C
:1054B000911104C0682F812F0E947E29BE016F5F69
:1054C0007F4F8B2D0E942E040091FF059E012F5FC0
:1054D0003F4F41E06AE28BEF810F0E9470120F9004
:1054E0000F900F90DF91CF911F910F91FF90EF9050
:1054F000DF90CF90BF90AF909F908F907F90089556
:105500000E940627882399F19091EA048091ED0486
:10551000981304C08091DD04813039F44091EA048D
:105520006091ED0483E50E94CB299091E90480917C
:10553000EC04981304C08091DD04813039F440916B
:10554000E9046091EC0482E30E94CB299091E80485
:105550008091EB04981304C08091DD04813039F40C
:105560004091E8046091EB0481E10C94CB2908950B
:105570000F93CF93DF93682F86EB94E00E947C26F5
:10558000C1E10091FF0520E04FE064E28C2F0E9412
:10559000FF0BD0E06D2F8C2F0E947E29DF5FD7306C
:1055A000C9F7CF5DC43769F78BE0DF91CF910F91D9
:1055B0000C945925AF92BF92CF92DF92EF92FF9257
:1055C0000F931F93CF93DF93182FA62ED22EF02E7A
:1055D000642F70E0882777FD8095982F1230E0F4D3
:1055E0000E94A62F2AE939E949E95EE30E946B305F
:1055F00020E030E040E850E40E94A42E9B01AC0182
:10560000C62EE32E082FC52F111118C00E94782F27
:10561000D62FDC5CC7E237C00E94A62F20E030E026
:1056200040E45FE30E946B3020E030E040E850E46B
:105630000E94A42EC62EE72E082FC92F2FEF3FEF72
:105640004FEF5EE36C2D7E2D802F9C2F0E946B30E0
:105650000E94782FD4E3D61B28ED33EB4DE55FE3B2
:105660006C2D7E2D802F9C2F113039F40E946B30D1
:105670000E94782FC62FC95D06C00E946B300E9421
:10568000782FC7E2C61B6D2D70E081E08A15F8F017
:10569000882777FD8095982F0E94A62F2AE939E95F
:1056A00049E95EE30E946B3020E030E040E850E4DE
:1056B0000E94A42EAC016B01E82E052FA1101CC086
:1056C0000E94782FB62E84E3B80E67E23CC088278C
:1056D00077FD8095982F0E94A62F20E030E040E4CF
:1056E0005FE30E946B3020E030E040E850E40E942D
:1056F000A42E6B01E82E092F2FEF3FEF4FEF5EE353
:10570000B6018E2D902F0E946B300E94782F84E37B
:10571000B82EB61A81E028ED33EB4DE55FE3B60114
:10572000A81208C08E2D902F0E946B300E94782FF7
:10573000695D09C08E2D902F0E946B300E94782FDA
:10574000862F67E2681B0F2D123058F42C2F4D2F37
:105750008B2D0E942C1011110BC00F2D2C2F4AE401
:105760000FC0262F4B2D6C2F8D2F0E942C1005C0A3
:10577000113019F40F2D2AE302C00F2D24E14AE263
:105780006C2F8D2F0E942C10DF91CF911F910F91C4
:10579000FF90EF90DF90CF90BF90AF9008950F9360
:1057A0001F93CF93DF9300D01F92CDB7DEB70E9437
:1057B0000627882309F4D6C09091EA048091ED046D
:1057C000981304C08091DD04813089F48091EA044B
:1057D000BE016F5F7F4F0E942E040091FF059E0166
:1057E0002F5F3F4F41E061E28FE40E947012909181
:1057F000E9048091EC04981304C08091DD048130A9
:1058000089F48091E904BE016F5F7F4F0E942E04EE
:105810000091FF059E012F5F3F4F41E061E380E172
:105820000E9470129091E8048091EB04981304C0D8
:105830008091DD04813089F48091E804BE016F5FBE
:105840007F4F0E942E040091FF059E012F5F3F4F66
:1058500041E061E180E10E9470129091EA04809140
:10586000ED04981799F19091E9048091EC04981354
:105870002DC09091E8048091EB04981327C080918B
:10588000DD04811123C06091ED040091EA0470E011
:1058900080E090E00E94A62F2AE939E949E95EE319
:1058A0000E946B300E94782F162F602F70E080E0EE
:1058B00090E00E94A62F2AE939E949E95EE30E94B7
:1058C0006B300E94782F161709F44CC00091F70531
:1058D0002091EC044091ED0461E080E00E94DA2A1E
:1058E0000091F7052091EB044091EC0462E081E027
:1058F0000E94DA2A0091F7052091ED044091EB0413
:1059000060E082E00E94DA2A0091FF052091E9041C
:105910004091EA0461E080E00E94DA2A0091FF05EC
:105920002091E8044091E90462E081E00E94DA2AD3
:105930000091FF052091EA044091E80460E082E0D4
:105940000E94DA2A0091FF0523E04AE067E284E33F
:105950000E94FF0B0091FF0521E040E167E284E334
:105960000E94FF0B0F900F900F90DF91CF911F912E
:105970000F9108950F93682F81EC94E00E947C268C
:105980000091FF0520E046E167E284E30E94FF0BFF
:105990000091FF052AE032E040E069E28FE40E94D6
:1059A00070120091FF052EE032E040E069E38FE0E5
:1059B0000E9470120091FF0522E132E040E069E1AF
:1059C0008EE00E9470124091FF0567E284E30F9120
:1059D0000C94B20DEF92FF920F931F93CF93DF932E
:1059E000C82FF62E842FE22E1091FF050091FF059F
:1059F0000E9418319CE0899FD02D1124D75E25E0AC
:105A000045E06D2F8C2F0E94730F0091FF0520E061
:105A100045E06D2F8C2F0E94FF0B8E2D6F2D0E9465
:105A20001831882339F0813039F4C0FD07C0109156
:105A3000F70504C023E003C022E001C021E0DCE060
:105A40008D9FD02D1124D75E012F45E06D2F8C2F17
:105A50000E94730F0091FF0520E045E06D2F8C2F11
:105A60000E94FF0BDF91CF911F910F91FF90EF905C
:105A700008950E940627882309F44CC08091EA0407
:105A80004091ED0424E1622F0E941831382F842FB9
:105A90000E941831381304C08091DD04813041F434
:105AA0002091EA044091ED0464E183E50E94EA2C30
:105AB0008091E9044091EC0424E1622F0E941831A6
:105AC000382F842F0E941831381304C08091DD04D0
:105AD000813041F42091E9044091EC0464E182E3D7
