:100000000C945B030C9478030C9478030C944F05C8
:100010000C9478030C9478030C9478030C94780374
:100020000C9478030C94A31C0C9478030C9456192C
:100030000C9478030C9444190C9459180C9478037C
:100040000C9478030C9478030C9478030C94780344
:100050000C9478030C94A7040C9478030C94780304
:100060000C944D150C94780305A84CCDB2D44EB920
:100070003836A9020C50B9918688083CA6AAAA2A4B
:10008000BE000000803F000000000000005F000094
:100090000007000700147F147F14242A7F2A1223EC
:1000A0001308646236495522500005030000001C05
:1000B0002241000041221C00082A1C2A0808083E90
:1000C00008080050300000080808080800606000B8
:1000D0000020100804023E5149453E00427F400086
:1000E00042615149462141454B311814127F102776
:1000F000454545393C4A49493001710905033649AE
:10010000494936064949291E003636000000563650
:10011000000000081422411414141414412214087D
:10012000000201510906324979413E7E1111117ECA
:100130007F494949363E414141227F4141221C7F4E
:10014000494949417F090901013E414151327F0836
:1001500008087F00417F41002040413F017F081493
:1001600022417F404040407F0204027F7F0408100C
:100170007F3E4141413E7F090909063E4151215ED2
:100180007F09192946464949493101017F01013F4B
:100190004040403F1F2040201F7F2018207F6314D5
:1001A0000814630304780403615149454300007F48
:1001B0004141020408102041417F00000402010275
:1001C0000440404040400001020400205454547850
:1001D0007F484444383844444420384444487F38B5
:1001E00054545418087E090102081454543C7F08E2
:1001F00004047800447D40002040443D00007F100E
:10020000284400417F40007C041804787C080404E2
:100210007838444444387C14141408081414187CA6
:100220007C080404084854545420043F4440203CB3
:100230004040207C1C2040201C3C4030403C442856
:100240001028440C5050503C4464544C4400083630
:10025000410000007F0000004136080008082A1C09
:1002600008081C2A0808010000000000011700000F
:100270000000030300030000050A1F0A1F0A05020D
:10028000151F1508031904130000040204020000DE
:10029000010300000000020E1100000002110E0018
:1002A0000000030A040A000003040E040000021008
:1002B0000800000003040404000001100000000016
:1002C000031804030000031F111F000003121F1076
:1002D0000000031D151700000315151F000003077C
:1002E000041F00000317151D0000031F151D00004B
:1002F00003011D030000031F151F00000317151F36
:100300000000010A0000000002100A0000000204C0
:100310000A000000030A0A0A0000020A04000000A2
:10032000030115020000040E04020000031E051E56
:100330000000031F150A0000030E11110000031F27
:10034000110E0000021F15000000021F0500000032
:10035000030E111D0000031F041F0000011F0000F9
:10036000000002100F000000031F041B0000021F0A
:1003700010000000051F0204021F041F02041F00DA
:10038000030E110E0000031F050200000402151DDC
:100390001200031F051A00000312150900000301D3
:1003A0001F010000031F101F0000030F100F0000AB
:1003B000050F100C100F031B041B000003031C038C
:1003C0000000031915130000021F110000000314A0
:1003D0000814000002111F000000030201020000C7
:1003E00003101010000002010200000003041F119E
:1003F0000000011F0000000003111F04000004049E
:10040000150E040004040E1504004932433A20423C
:1004100055535F4552524F520D0A004932433A201C
:100420004E4F5F494E464F0D0A004932433A205322
:10043000542D3E444154415F4E41434B206F722046
:100440004C4153545F444154410D0A004932433AF0
:100450002053542D3E444154415F41434B0D0A000B
:100460004932433A2053542D3E534C415F41434B54
:100470000D0A004932433A2053522D3E53525F53E6
:10048000544F500D0A004932433A2053522D3E44F6
:100490004154415F4E41434B0D0A004932433A20DB
:1004A00053522D3E444154415F41434B0D0A004994
:1004B00032433A2053522D3E534C415F41434B0D42
:1004C0000A004932433A204D522D3E534C415F4180
:1004D000434B0D0A004932433A204D522D3E4441D0
:1004E00054415F41434B0D0A004932433A204D5479
:1004F0002D3E4152425F4C4F53540D0A0049324346
:100500003A204D54522D3E534C415F4E41434B20B7
:100510006F72204D542D3E444154415F4E41434B38
:100520000D0A004932433A204D522D3E4441544178
:100530005F4E41434B0D0A004932433A204D542D42
:100540003E534C415F41434B206F72204441544124
:100550005F41434B0D0A004932433A204D2D3E5333
:10056000544152540D0A009292009200749200AECF
:100570000000570000740000570049000062006E40
:10058000006862005792AEC4009BAE009200748275
:100590006E0000AEA49B8A0092005C6274006274DC
:1005A0008200AEA49B8A009200E800E8E800000008
:1005B0008A00008200740000007474007400748269
:1005C0000092740062570000747400740074829288
:1005D000000092740057005C00629B009B62000068
:1005E0006EC4C4C4AE9B927400625700006E9B0040
:1005F0009B9B9282744900493A0000000003030368
:1006000003030303030303060303060303030306B1
:1006100003030303030303030303030303030303AA
:100620000303030303030306060303030303030394
:100630000303030303030306030303030303030387
:1006400003030303060603030303060303060C0365
:100650000303030303030303030303030306030367
:100660000303030303030C0C030303030603030345
:100670000303030303060404040404040303030341
:100680000303060303030304040403030303030C2B
:100690000C0C0C000E0E1D0E1D2B0F3A0E2B0F48CE
:1006A0000A520F610A520F000E0E1D0E1D6B0E79BD
:1006B0000D6B0E86100011241FBECFEFD8E0DEBFF9
:1006C000CDBF14E0A0E0B1E0E0E4FBE602C005909D
:1006D0000D92A83EB107D9F716E0A8EEB4E001C02C
:1006E0001D92A232B107E1F70E94B51D0C949E3510
:1006F0000C9400001092ED049091FF05913049F4A4
:1007000080914F058130D9F090934F059093ED047F
:1007100008959091610580915505981751F4909135
:10072000570580914D05981721F480914F0582302F
:1007300031F082E080934F0581E08093ED040895CD
:10074000282F8091EA0490E033E0880F991F3A95B2
:10075000E1F7E0915305F0915405E80FF91F068089
:10076000F781E02D309711F480E0089580914005E5
:100770008093E904822F099581E008958091EA042D
:100780008F5F8093EA048091EA04893010F0109220
:10079000EA048091EA0490E043E0880F991F4A95AB
:1007A000E1F7E0915305F0915405E80FF91F8181BD
:1007B0000895809163058093640580916805809316
:1007C0005D05809167058093620580916105809346
:1007D00055058091570580934D0580915005809374
:1007E0004B0508951F93CF93DF93182F8091EA0450
:1007F00090E053E0880F991F5A95E1F7C091530597
:10080000D0915405C80FD91F809140058093E90409
:100810008091E8048130C1F48091FC0580936305E8
:100820008091FE05809368058091F50580936705AA
:100830008091F805809361058091010680935705AA
:100840008091040680935005113011F40E94D90361
:1008500088818823B9F0133071F40E947A03EC8107
:10086000FD8109958091E804813011F40E94D9033B
:100870001092EC0407C081E08093EC04EA81FB81D4
:10088000812F0995DF91CF911F910895282FFB01AA
:100890006AE00E940B35805D8083822F0E940B35B9
:1008A000905D9183128208950F930091590581E222
:1008B0006EE041E020E031E00E94361000915905E1
:1008C00082E16EE141E02BE031E00E94361080E3EE
:1008D00095E728EC30E0F9013197F1F70197D9F766
:1008E00086EA9EE064E60E94A41980EA9FE064E63E
:1008F0000E94A4190F91089526982E9A81E0809362
:100900006800EBE6F0E080818064808382E0809381
:100910007C0010927B00EAE7F0E08EE88083808123
:1009200080648083089580917A00877F80937A0025
:1009300080917A00806480937A0080917A0084FFAD
:10094000FCCF2091780030917900C90108951F9261
:100950000F920FB60F9211242F933F934F935F93F3
:100960006F937F938F939F93AF93BF93EF93FF9377
:100970007894809178009091790022E0803E9207EF
:1009800028F01092F0041092EE0473C022E0833637
:10099000920798F18091EE0482FD6BC080E29EE4A4
:1009A0000197F1F70E949304825692408E37910589
:1009B00008F05FC086E98093F10412C00E9493049E
:1009C000825692408E37910558F08091EE048B7FCD
:1009D0008093EE048091EF0484608093EF0449C01B
:1009E0008091F104882351F78091EE048460809314
:1009F000EE048091F00484603AC08F509140E8F09A
:100A00008091EE0481FD10C080E29EE40197F1F731
:100A10000E9493048E5091408555914050F58091ED
:100A2000EF0482608093EF048091EE0482608093F3
:100A3000EE048091F00482601AC08091EE0480FD83
:100A40000EC080E29EE40197F1F70E9493048F505C
:100A5000914078F48091EF0481608093EF0480915D
:100A6000EE0481608093EE048091F00481608093B5
:100A7000F00480917A00886480937A00FF91EF916E
:100A8000BF91AF919F918F917F916F915F914F91A6
:100A90003F912F910F900FBE0F901F9018951F92AE
:100AA0000F920FB60F92112478940F900FBE0F90F3
:100AB0001F901895AF92BF92CF92DF92EF92FF9264
:100AC0000F931F938C017B016A01590180E066E05E
:100AD0000E94C417C8010E94FF13C7010E94FF13A0
:100AE00080E067E00E94C417C6010E94FF13C501A1
:100AF0000E94FF131F910F91FF90EF90DF90CF9016
:100B0000BF90AF9008950F931F93CF93DF938C0105
:100B1000EB0180E066E00E94C417C8010E94FF1349
:100B2000209739F080E067E00E94C417CE010E9450
:100B3000FF13DF91CF911F910F9108951F93182FED
:100B400088E064E00E94C4178DE791E00E94FF13E3
:100B500080914A05882339F48BE891E00E94FF13C5
:100B60008DE891E002C084E991E0612F0E94EE13CC
:100B70001F910895EF92FF920F931F93E82E162F67
:100B8000F42E022F88E063E00E94C4178CE991E004
:100B90000E94FF138E2D612F4F2D0E94C919E82F3F
:100BA000F0E0EE0FFF1FE653FD4F808191810E9420
:100BB000FF13EE2DF0E0EE0FFF1FE357FD4F808196
:100BC00091810C3019F460914A0502C06091590579
:100BD0000E94EE1380E20E94E9130D3021F4812F70
:100BE0000E94201403C0812F0E941B148CE20E94DB
:100BF000E9130E3039F484E10E9420148F2D0E94F5
:100C0000201406C084E10E941B148F2D0E941B1427
:100C10001F910F91FF90EF9008950F931F93182F3E
:100C20000091590580E0612F47E021E00E94F71113
:100C300040915905115085E0612F0E947B1240912F
:100C400059051E5F85E0612F0E947B124091590576
:100C5000135084E0612F0E947B12409159051C5F64
:100C600084E0612F0E947B121F910F910895CF9213
:100C7000EF920F938091F3048F5F8093F30480E0F1
:100C800060E00E94C41782EA91E00E94FF13C090C6
:100C90004A058EE760E042E028E000E0EE240E9492
:100CA000431088E061E00E94C41788EB91E00E9445
:100CB000FF1388E062E00E94C4178DEC91E00E946F
:100CC000FF138091F6050E941B148AE30E94E9132A
:100CD0008091FB050E941B148AE30E94E913809116
:100CE00008060E941B14809107066091FA05409146
:100CF000F90527E00E94BA05809159050E949E05DA
:100D000088E065E00E94C4178AED91E00E94FF131D
:100D10008091B4000E941B148DEF92E06FE373E0AA
:100D20000E948305C0904A058EE760E342E020E11F
:100D30000E944310C0904A0580E068E048E028E245
:100D40000E9443108091F30481508093F3040F912B
:100D5000EF90CF900895BF92CF92DF92EF92FF92E3
:100D60000F931F93CF93DF93D090F605F090FB0580
:100D7000109108060E9437068091F3048F5F8093DC
:100D8000F30483E10E940D068091F3048150809367
:100D9000F3048AE08093F20404E02AE0B22EC8EC67
:100DA000D0E08091EF0480FDD4C08091EF048823CF
:100DB00021F48091F004882319F0B092F20407C066
:100DC0008091F204882319F410923F05C2C08091EB
:100DD000EF0481FF77C01092EF048091F3048F5FDE
:100DE0008093F304043099F480E562E00E94C41714
:100DF0008D2D0E94201488ED92E06DEE71E04BEE97
:100E000052E021EF31E00E945A0505E656C0053652
:100E1000C9F480E562E00E94C4178D2D0E941B1466
:100E20008AE30E94E9138F2D0E94201488ED92E03E
:100E300066EF71E04BEE52E02AEF31E00E945A0576
:100E400006E63BC00636C9F482E662E00E94C4179B
:100E50008F2D0E941B148AE30E94E913812F0E94A8
:100E6000201488ED92E06FEF71E04BEE52E023E04A
:100E700032E00E945A0507E620C084E762E00E9443
:100E8000C417812F0E941B148DEF92E06FE373E073
:100E90000E948305D092F605F092FB051093080698
:100EA0000091FA05E0900706C090F905812F6F2D9B
:100EB0004D2D20E00E945C1A04E08091F3048150E3
:100EC0008093F3048091EF0482FD04C08091F004CC
:100ED00082FF67CF1092EF048091F3048F5F8093BD
:100EE000F304053659F4D39487E18D1508F4DD2415
:100EF00080E562E00E94C4178D2D18C0063659F4B3
:100F0000F3948BE38F1508F4FF2482E662E00E94DD
:100F1000C4178F2D0BC0073659F41F5F1C3308F020
:100F200010E084E762E00E94C417812F0E94201421
:100F30008091F30481508093F3048091F00482FF48
:100F400030CF8CED95E0FE013197F1F70197D9F79D
:100F500028CFDF91CF911F910F91FF90EF90DF90FD
:100F6000CF90BF900895FF920F931F93CF93DF937D
:100F70000E9437068091F3048F5F8093F30483E22D
:100F80000E940D068091F30481508093F3048AE05F
:100F90008093F2041FE03AE0F32EC8ECD0E001E0C9
:100FA0008091EF0480FF07C060914A0588E090E0DF
:100FB0000E9490357FC08091EF04882321F48091B6
:100FC000F004882319F0F092F2040DC08091F2042D
:100FD000882349F460914A0588E090E00E949035AA
:100FE00010923F0567C08091EF0481FF25C01092E9
:100FF000EF048091F3048F5F8093F3041F3061F45A
:1010000080914A050E949E0589E293E065E573E0C0
:101010000E9483051AE60BC0809159050E949E0527
:101020008DEF92E06FE373E00E9483051FE08091F3
:10103000F30481508093F3048091EF0482FD04C097
:101040008091F00482FFACCF1092EF041A3631F594
:1010500080914A05882329F400934A051092590586
:1010600004C010924A05009359058091F3048F5FE4
:101070008093F3040E94370689E293E065E573E00C
:101080000E94830583E20E940D0680914A050E941A
:101090009E058091F30481508093F3048091F004C5
:1010A00082FF7ECF8CED95E0FE013197F1F701973D
:1010B000D9F776CFDF91CF911F910F91FF900895CF
:1010C000BF92CF92DF92EF92FF920F931F93CF9335
:1010D000DF93F090FA0510910706D090F9050E9471
:1010E00037068091F3048F5F8093F3048BE10E94B5
:1010F0000D068091F30481508093F3048AE080937D
:10110000F20407E07AE0B72EC8ECD0E08091EF045B
:1011100080FD03C18091EF04882321F48091F004C5
:10112000882319F0B092F20407C08091F20488235A
:1011300019F410923F05F1C08091EF0481FF67C060
:101140001092EF048091F3048F5F8093F3040730D3
:1011500091F4812F6F2D4D2D2CE00E94BA0588ED62
:1011600092E068E072E04BEE52E02CE032E00E9448
:101170005A050CE047C00C3091F4812F6F2D4D2D96
:101180002DE00E94BA0588ED92E061E172E04BEE3D
:1011900052E025E132E00E945A050DE033C00D30E7
:1011A00091F4812F6F2D4D2D2EE00E94BA0588ED10
:1011B00092E06AE172E04BEE52E02EE132E00E94F2
:1011C0005A050EE01FC0812F6F2D4D2D27E00E9484
:1011D000BA058DEF92E06FE373E00E948305D09231
:1011E000F90510930706F092FA05809108066091C0
:1011F000FB054091F60520E00F2DE12ECD2C0E943D
:101200005C1A07E08091F30481508093F30480918D
:10121000EF0482FD04C08091F00482FF77CF10922A
:10122000EF048091F3048F5F8093F3040C3031F569
:101230001F5F1D3010F011E056C0123089F48DE1AF
:101240008F1510F46DE1F62E8D2D90E00E941E1A80
:10125000882309F048C08DE1F81609F442C043C064
:10126000143031F0163021F0193011F01B30D9F55F
:101270008EE18F15C0F55EE1F52E35C00D30F9F425
:10128000F3948FE18F1508F445C0123061F48DE1BD
:101290008F1508F43FC08D2D90E00E941E1A882300
:1012A00011F58DE109C0143031F0163021F01930FC
:1012B00011F01B30C1F48FE1F81661F114C00E304B
:1012C00091F4D39483E68D1508F4DD248D2D90E000
:1012D0000E941E1A882339F4123029F48CE18F15EC
:1012E00010F44CE1F42E812F6F2D4D2D202F0E94F4
:1012F000BA058091F30481508093F3048091F00447
:1013000082FF04CF8CED95E0FE013197F1F7019754
:10131000D9F7FCCEFF24F394E6CFDF91CF911F9154
:101320000F91FF90EF90DF90CF90BF9008950F93B3
:101330001F93CF93DF930E9437068091F3048F5F52
:101340008093F30483E193E060E070E00E94830502
:101350008BE20E940D068091F30481508093F30488
:101360008AE08093F20418E00AE0C8ECD0E08091B3
:10137000EF0480FF07C06091B40083E090E00E941A
:10138000903589C08091EF04882321F48091F00486
:10139000882319F00093F2040DC08091F204882391
:1013A00049F46091B40083E090E00E94903510927F
:1013B0003F0571C08091EF0481FF2DC01092EF04B2
:1013C0008091F3048F5F8093F304183081F484E7F5
:1013D00065E00E94C4178091B4000E94201489E245
:1013E00093E065E573E00E94830519E60FC084E78A
:1013F00065E00E94C4178091B4000E941B1483E131
:1014000093E06FE373E00E94830518E08091F3049A
:1014100081508093F3048091EF0482FD04C0809199
:10142000F00482FFA4CF1092EF04193641F58091A9
:10143000B4008F5F8093B4008091B400813110F0CC
:101440001092B4008091F3048F5F8093F3040E94A4
:10145000370689E293E065E573E00E9483058BE23D
:101460000E940D0684E765E00E94C4178091B400D5
:101470000E9420148091F30481508093F3048091A2
:10148000F00482FF74CF8CED95E0FE013197F1F707
:101490000197D9F76CCFDF91CF911F910F910895EC
:1014A000CF92DF92EF92FF920F931F93DF93CF9330
:1014B00000D0CDB7DEB78091F3048F5F8093F30443
:1014C00080E060E00E94C41783E292E00E94FF1374
:1014D00000E0E2E0CE2ED12CCC0EDD1E7E01089481
:1014E000E11CF11C102F1F5F88E0612F0E94C417C0
:1014F00084E392E00E94FF13812F0E941B148BE370
:1015000092E00E94FF13802FB701A6010E94E91B01
:1015100089810E941B148AE30E94E9138A810E9438
:101520001B14012F1430F1F688E065E00E94C41707
:1015300083E492E00E94FF13809100068F5F0E9477
:101540001B1480913F05843119F08DEF92E002C0A9
:1015500083E193E06FE373E00E948305C0904A0546
:1015600080E068E047E028E200E0EE240E944310BB
:101570008091F30481508093F3040F900F90CF91EA
:10158000DF911F910F91FF90EF90DF90CF90089522
:10159000DF92EF92FF920F931F93DF93CF9300D0D0
:1015A000CDB7DEB7009100060E94500A8091F30487
:1015B0008F5F8093F30480916905880F880F880FEF
:1015C000855F0E940D068091F30481508093F3049F
:1015D0008AE08093F20480916905843051F0809113
:1015E0006905BE016F5F7F4FAE014E5F5F4F0E9486
:1015F000E91B15E0AAE0DA2EF8ECEF2EF12C809131
:10160000EF0480FF03C01092EF0400C18091EF044B
:10161000882321F48091F004882319F0D092F204F9
:1016200007C08091F204882319F410923F05EEC0A0
:101630008091EF0481FF9AC01092EF048091F3042F
:101640008F5F8093F304153069F5809169058430CC
:10165000A1F484E765E00E94C417802F8F5F0E9489
:10166000201488ED92E066E572E04BEE52E02AE548
:1016700032E00E945A0514E174C0609169056F5F01
:1016800082E60E94C41789810E94201488ED92E0AE
:101690006DEE71E04BEE52E021EF31E00E945A0511
:1016A00015E65FC01536F1F4609169056F5F82E65B
:1016B0000E94C41789810E941B14609169056F5FA5
:1016C00084E70E94C4178A810E94201488ED92E06A
:1016D00066EF71E04BEE52E02AEF31E00E945A05CE
:1016E00016E63FC0143181F484E765E00E94C41718
:1016F000802F8F5F0E941B148FE090E0602F0E946C
:1017000090350093000618C0609169056F5F82E60E
:101710000E94C41789810E941B14609169056F5F44
:1017200084E70E94C4178A810E941B148091690576
:1017300069814A810E94731C802F6CE475E048E542
:1017400055E00E94E91B80913F05843119F08DEF2F
:1017500092E002C083E193E06FE373E00E948305AF
:1017600015E08091F30481508093F3048091EF049D
:1017700082FD04C08091F00482FF41CF1092EF04FB
:101780008091F3048F5F8093F304143159F40F5F59
:10179000043008F000E084E765E00E94C417802F61
:1017A0008F5F21C0153679F489818F5F89838981A4
:1017B000883108F01982609169056F5F82E60E94A6
:1017C000C417898110C0163681F48A818F5F8A839D
:1017D0008A818C3308F01A82609169056F5F84E713
:1017E0000E94C4178A810E9420148091F3048150C2
:1017F0008093F3048091F00482FF01CF8CED95E09B
:10180000F7013197F1F70197D9F7F9CE0F900F90C3
:10181000CF91DF911F910F91FF90EF90DF9008958E
:1018200080913F058131B9F0823128F4853041F053
:10183000803121F50BC0823199F08331F9F415C064
:1018400080E180933F051092690515C081E1809386
:101850003F0581E00EC082E180933F0582E009C030
:1018600083E180933F0583E004C084E180933F05DA
:1018700084E0809369050E94C80A089585E08093FA
:101880003F0508950E9437068091F3048F5F80938F
:10189000F3048BE00E940D068091F3048150809345
:1018A000F3048AE08093F2049AE08091EF0480FDD3
:1018B00045C08091EF04882321F48091F0048823AF
:1018C00019F09093F20407C08091F204882319F470
:1018D00010923F0508958091EF0481FF24C010927B
:1018E000EF048091F3048F5F8093F30480914A05A5
:1018F0000E942A180E94100C80913F05853021F02B
:1019000080913F058823B1F780913F05853029F408
:101910008091EF0481608093EF048091F304815003
:101920008093F30408958091EF0482FD04C08091B8
:10193000F00482FFBACF1092EF04B7CF08958091E0
:101940003F05882371F48091F3048F5F8093F30443
:1019500080914A050E942A188091F3048150809357
:10196000F30480913F05853091F0863028F4882378
:1019700041F0843021F511C08730A9F08F30F9F49F
:1019800018C085E080933F050E94420C089584E0D2
:1019900080933F050E94AB06089587E080933F0542
:1019A0000E94600808958FE080933F050E94B3076E
:1019B000089588E080933F050E949709089510924A
:1019C0003F050895982FFB0181568A3110F480E27B
:1019D00003C09B3718F08AE1808301C01082892FF1
:1019E00090E080972081821B9109FC01EE0FFF1F80
:1019F000E80FF91FEE0FFF1FEA59FD4FE4918E2FFC
:101A00000895CF92DF92EF92FF920F931F93DF938F
:101A1000CF930F92CDB7DEB7082F7B0110E06E0198
:101A20000894C11CD11C0CC0002331F4B6010E94E3
:101A3000E20C1F5F180F01C01A5F0894E11CF11C33
:101A4000F7018081882381F7812F0F90CF91DF915B
:101A50001F910F91FF90EF90DF90CF900895282F66
:101A60009091EB058091EA05981711F480E00FC082
:101A70008091EC05E091ED05F091EE05882321F4CD
:101A8000EA59FD4F849103C0EA57FF4F8491222306
:101A900009F4809508951F93DF93CF930F92CDB7EC
:101AA000DEB7182F8091EC058823C9F4812FBE0181
:101AB0006F5F7F4F0E94E20C8093EA05298180EEE0
:101AC0009FEF821B9109810F911D9C01220F331FF3
:101AD000280F391F220F331F2F5F3F4F08C085E0AB
:101AE0008093EA05189F90011124205A3040C901C3
:101AF0000F90CF91DF911F910895EF92FF920F9376
:101B00001F93CF93DF93E82EF62E042FCAE6D5E07D
:101B100010E00CC0812F8E0D6F2D0E94C4170E9403
:101B20001F1788830E941F1789931F5F101790F358
:101B3000DF91CF911F910F91FF90EF9008952F9219
:101B40003F924F925F926F927F928F929F92AF924D
:101B5000BF92CF92DF92EF92FF920F931F93DF938A
:101B6000CF93CDB7DEB764970FB6F894DEBF0FBE44
:101B7000CDBF982E862EF42EB22ED12EED86CE8697
:101B8000AF864093EC05842F602F712F0E94010DCA
:101B90002E85829F802D11248C87FF2011F087E0F5
:101BA00001C085E03D85839F302D11243A8342E0BA
:101BB000B41639F09F825FEF58871E8287E08D83CD
:101BC00008C081508E839A81991A9F82E1E0E8874C
:101BD0001D82F82DF695F695F695FA87182D177053
:101BE000202F3D2DC9019C8B8B8B3C01DD243324A0
:101BF000AA241B86198622242C85822E9924A401CE
:101C0000485F5F4F5A8B498BF3C0112329F052E094
:101C1000B51661F0173019F081E0B81639F0C4013B
:101C20008D199109089714F008E022C08F816A8508
:101C30004A810E947D0D92E0B91651F4C401810FD2
:101C4000911D8D19910909978CF008E0011B10C0B6
:101C5000E1E0BE1659F489899A898D199109811B91
:101C6000910909971CF0012F0F5F02C00C850D1917
:101C70008F816A850E94C417402F50E088E090E071
:101C8000841B950B2FEF30E002C0359527958A9580
:101C9000E2F730E082E0B81639F4012E02C0220FDC
:101CA000331F0A94E2F70AC0812F90E00196841B4B
:101CB000950B02C0220F331F8A95E2F7422E81E076
:101CC00090E002C0880F991F1A95E2F789835E8021
:101CD000CC24EE24922F9095988B7AC0083029F06E
:101CE000EC2DF0E0E659FA4F3080EE2009F060C0AC
:101CF000E985E093EB05F30180810E944B0D209173
:101D0000EB05820F911D9093EE058093ED058F8575
:101D10000E942F0D282F41E050E0052C02C0440FF7
:101D2000551F0A94E2F75C834B83AB84F02E198134
:101D30007C8A6B8A22243AC0822F90E0EB81FC815E
:101D40008E239F23892B09F0212AF2E0BF1611F47C
:101D5000110F01C01695A3943E85A31631F59091FD
:101D6000EB058091EA05981749F09F5F9093EB058A
:101D70008091ED059091EE0501960EC04B895C892E
:101D80004F5F5F4F5C8B4B8B1092EB05FA018081AC
:101D9000882331F00E944B0D9093EE058093ED0562
:101DA0008F850E942F0D282FAA24FA94FF2021F658
:101DB000822D8421F8893F22382A832D0E94DE1744
:101DC000E3942D85E21619F43885531AEE24C39452
:101DD0004A81C41608F482CF5A858885580F5A87DD
:101DE000D00E9091EB0599876B887C881D81AB861E
:101DF000EC85DE1608F409CF8E2F64960FB6F894A2
:101E0000DEBF0FBECDBFCF91DF911F910F91FF902D
:101E1000EF90DF90CF90BF90AF909F908F907F908A
:101E20006F905F904F903F902F9008952F923F9228
:101E30004F925F926F927F928F929F92AF92BF92DA
:101E4000CF92DF92EF92FF920F931F93DF93CF9386
:101E5000CDB7DEB72D970FB6F894DEBF0FBECDBF5E
:101E60008C83F62E142F2F8338870D832E2CCE8251
:101E70004093EC05842FB9010E94010D2D81829FB2
:101E8000302C1124112311F087E001C085E06F2C64
:101E900066946694669467E0E62EEF20829D402C5F
:101EA0001124BB241B82CC2400E0552488247724F1
:101EB0009924AA24842D90E09B878A87BAC0EE20BB
:101EC00041F48A859B858B199109089714F018E0D5
:101ED00012C08C81662D432D0E947D0D8A859B85C5
:101EE0008E0D911D8B19910909971CF018E01E1990
:101EF00002C0142D1B198C81662D0E94C41788E026
:101F000090E0811B9109EFEFF0E002C0F595E795B5
:101F10008A95E2F70E2C01C0EE0F0A94EAF7EA83E5
:101F2000F1E00E2C01C0FF0F0A94EAF7F9832F812C
:101F30003885C9019D878C87FF24DD24212F270D3B
:101F400029876FC09091EB058091EA05891710F001
:101F5000FF2069F41092EB05EC85FD858191FD87EA
:101F6000EC870E944B0D9093EE058093ED05FD816B
:101F7000DF1611F0FF2099F48E810E942F0D8B83C4
:101F80008091EB058F5F8093EB058091ED0590913B
:101F9000EE0501969093EE058093ED05DD24183053
:101FA00029F0EF2DF0E0E659FA4FC080DD2071F501
:101FB0002B81822F90E031E0231679F4072C02C0A8
:101FC000959587950A94E2F7A82E0E2C01C0AA0CCD
:101FD0000A94EAF78984052D18C0072C02C095954C
:101FE00087950A94E2F7052D872C212F9981AA2441
:101FF0000AC080FDA92A0F5F021519F48695839403
:1020000000E0990F21502223A1F79A80892D809515
:10201000C8228A2D8921C82A8C2D0E94DE17D394CC
:10202000F394F31408F48ECF6394B10EEE24782C5D
:10203000502EB41408F443CF832D2D960FB6F89488
:10204000DEBF0FBECDBFCF91DF911F910F91FF90EB
:10205000EF90DF90CF90BF90AF909F908F907F9048
:102060006F905F904F903F902F900895CF92EF9296
:102070000F93C02E01E0EE24E3940E94160F0F91FF
:10208000EF90CF9008952F923F924F925F926F9270
:102090007F928F929F92AF92BF92CF92DF92EF92F8
:1020A000FF920F931F93DF93CF93CDB7DEB72797A0
:1020B0000FB6F894DEBF0FBECDBF582E362F4A8321
:1020C000922E1E2DCB82B7E0CB2EC6220023B1F478
:1020D000123039F48C2D63E00E940B35092F0195E5
:1020E0001EC0133031F48C2D63E00E940B35092F94
:1020F00016C0113009F014C1062F26C0013039F581
:10210000123079F48C2D90E0820F911D909581957D
:102110009F4F63E070E00E943835082F0F5F20E08A
:102120002DC0133059F48C2D90E00197820F911D32
:1021300063E070E00E943835082FF1CF113009F0CC
:10214000EFC00C2D0F5F020F017020E019C00230AC
:1021500009F0E6C0282F123029F4862F90E08C1960
:10216000910907C0133009F0DCC08C2D90E0861B6C
:10217000910963E070E00E943835082F07FD0D5F7C
:10218000A32EA694A694A694BB24FF24EE24DD24BB
:10219000692C7724A8E02A2E312C312F32503C8331
:1021A000822F992787FD90959F838E83B5C0CC2081
:1021B00049F4C3018B199109089724F0143011F0E8
:1021C000198207C0852D6A2D4A810E947D0D91E0FC
:1021D0009983852D6A2D0E94C417EC2DF0E09301A0
:1021E0002B193109C1018E1B9F0B281739071CF4CD
:1021F000C92CCB1803C0A8E0AC19CA2EBC81B230E0
:1022000070F4802F992787FD90952E813F81820F52
:10221000931F63E070E00E943835D82E11C0113052
:1022200079F4802F992787FD9095AE81BF818A2709
:102230009B2780FF03C0F5E5EF2E02C07AEAE72E68
:10224000C1018C1991092FEF30E002C03595279517
:102250008A95E2F7C90102C0880F991FEA95E2F753
:10226000882E482E409490E049C03981313029F4BD
:10227000E92FF0E0E659FA4FF080112319F4EE242B
:10228000EA9421C0153011F4EE241DC0113031F450
:102290008B818130B9F09923B1F414C0123039F434
:1022A000ED2DFF27E7FDF095E559FC4F08C01330F1
:1022B00041F4ED2DFF27E7FDF095E259FC4FE0805A
:1022C00002C0EF2CE094AB81AA2319F4143009F07A
:1022D000E094B8E0CB1611F4FE2C04C08E2D8821BA
:1022E000F420F82A8F2D9D830E94DE179D81E2E065
:1022F000DE1611F4DD2401C0D3949F5FFA819F178D
:1023000008F4B3CF123011F40E5F03C0133009F498
:102310000F5FA394BC0CCC24B91408F448CF03C0BD
:1023200020E000E02DCF27960FB6F894DEBF0FBE59
:10233000CDBFCF91DF911F910F91FF90EF90DF9074
:10234000CF90BF90AF909F908F907F906F905F9055
:102350004F903F902F9008958F929F92AF92BF928F
:10236000CF92DF92EF92FF920F931F93D82EA62E5B
:10237000B42E922E802E82E08417A8F41D2D1F5FAC
:102380000EEFF02EF40E812F4F2D21E002E0EE240F
:10239000C82C0E9443106A2D6150690D812F4F2D6A
:1023A00021E00E9443108D2D6A2D41E0292D02E08D
:1023B000EE24C82C0E94431081E08B1510F0891583
:1023C00058F4DA948D2D8B0D6A2D41E0292D02E011
:1023D000EE24C82C0E9443101F910F91FF90EF90A4
:1023E000DF90CF90BF90AF909F908F900895CF9245
:1023F000EF920F93C02E02E0EE240E9443100F9143
:10240000EF90CF9008952F923F924F925F926F92EC
:102410007F928F929F92AF92BF92CF92DF92EF9274
:10242000FF920F931F93CF93DF93382E262E622EA9
:10243000702ED42E842F90E0880F991F909581954F
:102440009F4F182F1D5FC0E0D0E088243EC0F22CC3
:10245000FD184D2C552447FC50945201AA0CBB1C6E
:102460008C2F830D6F2D41E02A2D02E0E62CC72C26
:102470000E944310832D8C1B6F2D41E02A2D0E945A
:102480004310F22CFC1A8D2D830D6F2D41E0282D69
:102490000E944310832D8D196F2D41E0282D0E943D
:1024A000431017FF05C01A5F882D880F180F0AC048
:1024B000165FCE0184199509880F991F880F991FFF
:1024C000180FDA94219682E0880EDC160CF0BFCF4C
:1024D000DF91CF911F910F91FF90EF90DF90CF9000
:1024E000BF90AF909F908F907F906F905F904F9034
:1024F0003F902F900895EF92FF920F931F93E82E35
:10250000142F262F277081E090E0082F01C0000FC4
:102510002A95EAF7F62EF694F694F6948E2D6F2D02
:102520000E94C4170E941F170E941F17113019F430
:10253000102F182B03C0102F10951823811739F076
:102540008E2D6F2D0E94C417812F0E94DE171F91C0
:102550000F91FF90EF9008958F929F92AF92BF924C
:10256000CF92DF92EF92FF920F931F93F82EB62E29
:10257000802E481B261B842F992787FD909597FF57
:1025800003C0909581959F4FA82E822F992787FD94
:10259000909597FF03C0909581959F4FD82E141664
:1025A0001CF49924939406C0442311F4992402C086
:1025B00099249A9412161CF4CC24C39406C02223A6
:1025C00011F4CC2402C0CC24CA948F2D6B2D482D3D
:1025D0000E947B12AD14A8F01A2D1695EF2CFB2C3F
:1025E00000E00CC01D0D1A1510F01A19FC0CE90CB6
:1025F0008E2D6F2D482D0E947B120F5F0A1590F3D0
:1026000013C01D2D1695EF2CFB2C00E01A0D1D1587
:1026100010F01D19E90CFC0C8E2D6F2D482D0E9419
:102620007B120F5F0D1590F31F910F91FF90EF90AC
:10263000DF90CF90BF90AF909F908F9008956F9252
:102640007F928F929F92AF92BF92CF92DF92EF9242
:10265000FF920F931F93CF93DF93882E962EA22E77
:10266000B02EC42E8EEF4802C001112463E0D62E96
:10267000D80EC0E0D0E07724622E6A946CC0AA2005
:10268000C1F021E0261568F0AE014170507020E0E5
:1026900030E092E0A91611F421E030E04217530730
:1026A00041F023E0A216F1F563E00E94173599236B
:1026B000C9F51C2F180DEC2CE90C812F6E2D4B2D1C
:1026C0000E947B12F92CFC18812F6F2D4B2D0E943C
:1026D0007B12182D1C1B812F6E2D4B2D0E947B12FF
:1026E000812F6F2D4B2D0E947B121C2D180DFC2E5F
:1026F000F90C812F6F2D4B2D0E947B12392D3C1B25
:10270000032F812F632F4B2D0E947B12182D1C1934
:10271000812F6F2D4B2D0E947B12812F602F4B2D0F
:102720000E947B12D7FE04C0D70C86E0D80E10C0E2
:102730009AE0D90E8C2D992787FD90959E01281B34
:10274000390BC901880F991F880F991FD80ECA9499
:10275000219634E0730E8C2FCC160CF090CFDF91C5
:10276000CF911F910F91FF90EF90DF90CF90BF908E
:10277000AF909F908F907F906F900895FF920F93EE
:102780001F93CF93DF93F62E95E0899FC00111240C
:10279000EC01CA51D0408C0105511040FE018491DA
:1027A000FF2009F480950E94DE172196C017D107FB
:1027B000A9F7FF2011F48FEF01C080E00E94DE171F
:1027C00080E00E946B17DF91CF911F910F91FF90D6
:1027D0000895609159050E94BE1308951F93CF93E9
:1027E000DF93EC01162F04C0612F0E94BE132196C7
:1027F00088818823C9F7DF91CF911F910895609157
:1028000059050E94EE1308950F931F93182F062F5A
:102810006AE00E940B35805D602F0E94BE13812FFD
:102820006AE00E940B35892F805D602F0E94BE13E5
:102830001F910F910895609159050E940414089505
:1028400060914A050E9404140895459A449A109292
:102850003B0510923A0510923D0510923C0580E22E
:102860008093B800ECEBF0E080818460808310926C
:10287000F404808181608083808180648083789487
:10288000089580E28093B8000895ECEBF0E0808139
:102890008F70806A80830895ECEBF0E080818F7008
:1028A000806D808308958091BC0087FFFCCF0895E0
:1028B0008093BB00ECEBF0E080818F7080688083B8
:1028C0000895882329F08091BC008F70806C04C02B
:1028D0008091BC008F7080688093BC0008958091C7
:1028E000BB000895982F8091F4048823E1F782E0DB
:1028F0008093F4049E7F9093F504A6EFB4E0FA0170
:1029000002C081918D938E2F841B8617D0F3109275
:102910001605609317058091BC008F70806A8093C4
:10292000BC000895982F8091F4048823E1F783E098
:102930008093F40491609093F504109238056093AD
:1029400039058091BC008F70806A8093BC008091B3
:10295000F4048823E1F7A8E1B5E0FA0102C08D9103
:1029600081938E2F841B8617D0F30895982FFA0138
:102970008091BC008E7F8093BC008091BC008F70E2
:10298000806A8093BC008091BC0087FFFCCF9E7F53
:102990009093BB008091BC008F7080688093BC00D6
:1029A0008091BC0087FFFCCF8091B900883189F00D
:1029B00091E012C080818093BB008091BC008F7039
:1029C00080688093BC008091BC0087FFFCCF31966B
:1029D0006150662379F790E08091BC008F70806D24
:1029E0008093BC008091BC0084FFFCCF8091BC0030
:1029F00081608093BC00892F08951F93CF93DF934C
:102A0000982F162FEA018091BC008E7F8093BC0026
:102A10008091BC008F70806A8093BC008091BC0064
:102A200087FFFCCF91609093BB008091BC008F70BA
:102A300080688093BC008091BC0087FFFCCF8091B0
:102A4000B900803469F091E018C08FEF0E946114E2
:102A50008091BC0087FFFCCF8091BB00899311500F
:102A6000123098F780E00E9461148091BC0087FFCB
:102A7000FCCF8091BB00888390E08091BC008F7078
:102A8000806D8093BC008091BC0081608093BC000D
:102A9000892FDF91CF911F9108951F920F920FB64A
:102AA0000F9211242F933F934F935F936F937F93D4
:102AB0008F939F93AF93BF93EF93FF938091B90050
:102AC000887F883609F4CBC0893688F5803309F4CD
:102AD00095C08133B0F4803109F45AC0813138F4A3
:102AE000882309F43EC1883009F048C151C08032C2
:102AF00009F484C0883209F453C0883109F03EC11A
:102B00004FC0883409F47AC0893438F4883309F422
:102B100078C0803409F032C192C0883509F45DC0B4
:102B2000803609F49CC0803509F028C174C0803A11
:102B300009F4BEC0813AB0F4803809F49BC08138F2
:102B400038F4803709F48BC0883709F017C187C083
:102B5000803909F48FC0883909F4A1C0883809F098
:102B60000DC19DC0883B09F4D1C0893B38F4883A37
:102B700009F4B6C0803B09F001C1B2C0883C09F439
:102B8000E0C0883F09F4E7C0803C09F0F7C0D9C035
:102B900087E595E060E00E940A1F8091F50414C06B
:102BA00088E395E060E00E940A1F909116058091ED
:102BB0001705981708F0DAC0E92FF0E0EA50FB4F4C
:102BC00080819F5F909316058093BB008091BC002D
:102BD0008F7080688093BC00D1C083E295E060E094
:102BE0000E940A1F809138059091BB00E82FF0E009
:102BF000E85EFA4F90838F5F809338058DEF94E005
:102C0000B2C089EE94E060E00E940A1F8091BC008F
:102C10008F708068AFC085ED94E060E00E940A1F6D
:102C20008091BB0090913805E92FF0E0E85EFA4F03
:102C300080839F5F9093380590E00E94F51E82ECA0
:102C400094E060E00E940A1F2091380530E08091F6
:102C5000390590E001972817390734F51EC08FEA2F
:102C600094E060E00E940A1F85E08093F4041092D3
:102C7000380562C08BE994E060E00E940A1F8091F1
:102C800038059091BB00E82FF0E0E85EFA4F9083A2
:102C90008F5F80933805803238F48FEF06C086E866
:102CA00094E060E00E940A1F80E00E94611466C008
:102CB00083E794E060E00E940A1F8091BC008F705F
:102CC000806C8093BC00E0913A05F0913B05309711
:102CD00009F452C08091380568E175E009954CC04F
:102CE00080E694E060E00E940A1F84E08093F40490
:102CF000E0913C05F0913D05309731F080E266EFC0
:102D000074E0099580931705109216058CE494E001
:102D100060E00E940A1F90911605E92FF0E0EA504A
:102D2000FB4F80818093BB009F5F9093160580913D
:102D30001705981708F04ACF8091BC008F70806CFF
:102D400049CF8AE294E060E00E940A1F8091BC00B3
:102D50008F70806C0FC08BE194E060E00E940A1FCE
:102D60000DC08AE094E060E00E940A1F8091BC00E0
:102D70008F70806D8093BC001092F404FF91EF91EE
:102D8000BF91AF919F918F917F916F915F914F9183
:102D90003F912F910F900FBE0F901F9018952F9875
:102DA0002D982C9840985A98279A259A249A389AC0
:102DB000529A8BB18F708BB985B1807F85B98AB1FA
:102DC000806F8AB984B18F6084B90895089540985E
:102DD0005A98882319F0813021F402C0409A08954E
:102DE0005A9A0895F8940E94E7168BB1806F8BB9B8
:102DF00085B18F6085B92F988AB18F708AB984B1F7
:102E0000807F84B92D9A2C9A000000000AC02C986B
:102E100000000000000000002C9A000000000000EC
:102E2000000089B193B187FDF2CF2C982D988AB11B
:102E3000806F8AB984B18F6084B978940895F894CA
:102E40008091EF0582958695869583700E94F21693
:102E50002F9A8AB18F708AB984B1807F84B92D9AF4
:102E60002C9A00000000000000000000000000009C
:102E7000000099B183B12C982D9878948F70907F31
:102E8000892B08951F93162FF8940E94F2162F98FD
:102E90002D982C9A8AB1806F8AB984B18F6084B9D9
:102EA0008BB18F708BB99BB1812F807F892B8BB9B0
:102EB00085B1807F85B985B11F70812B85B90000F0
:102EC00000000000000000000000000000002C983E
:102ED00078941F9108951F93182F106C80E0612F34
:102EE0000E94421781E0612F0E9442171F910895AE
:102EF000F8940E94F2162F988AB18F708AB984B123
:102F0000807F84B92D9A2C9A0000000000000000F8
:102F1000000000000000000029B183B12C982D981A
:102F20009AB1906F9AB994B19F6094B978948F7068
:102F3000207F822B08958093EF0580E060E40E945B
:102F400042171092F10581E060E40E94421710924E
:102F5000F3058091EF05682F6F7360648295869505
:102F6000869583700E94421708951F93182F8093AF
:102F7000F005186B80E0612F0E94421781E0612FFD
:102F80000E9442171F9108951F93182F862F0E94A9
:102F9000B517812F0E949B171F91089580E00E9412
:102FA0006B1780E060E00E94C4171092F105109248
:102FB000F2051092F3051092F40508950F931F93F4
:102FC000182F0091EF050295069506950370F89469
:102FD000802F0E94F2162F9A2D982C9A8AB1806F1A
:102FE0008AB984B18F6084B98BB18F708BB99BB172
:102FF000812F807F892B8BB985B1807F85B985B181
:103000001F70812B85B90000000000000000000047
:103010000000000000002C987894E02FF0E0EE0F04
:10302000FF1FEF50FA4F80818F5F80838091EF0503
:103030008F5F8093EF0587FF0AC08091F0058F5F57
:103040008093F0050E94B51780E00E949B171F91A6
:103050000F910895FF920F931F93813011F0FF2479
:1030600002C0FF24FA9400E080E0602F0E94C417A1
:1030700010E08F2D0E94DE171F5F1038D1F70F5F11
:10308000083091F71F910F91FF9008951F93182F0B
:103090000E94CF1680E06FE30E94421781E06FE349
:1030A0000E944217812F0E942A180E94CE171F915A
:1030B00008951F920F920FB60F9211242F933F93F2
:1030C0004F935F936F937F938F939F93AF93BF9330
:1030D000EF93FF938091020690910306892B49F0AC
:1030E00080910206909103060197909303068093C6
:1030F00002068091F104882329F08091F104815027
:103100008093F10480914005813009F094C0809152
:10311000410590914205892B09F08DC080910506EB
:1031200090910606892B09F07CC09091470580910B
:103130004805981701F5809172038130E1F4809180
:103140007103803219F41092710303C08E5F809373
:103150007103E09171032E2F30E0C9018D56994F14
:10316000FC018491809347052C56394FF9019491C5
:10317000980F9093480580917203E0914705813044
:1031800009F5109272032E2F30E0F901E959FA4F38
:10319000E49189E0E89FC001112490934605809353
:1031A000450523503A4FF90194918FE5989FC0014E
:1031B000112463E070E00E9424357093060660934A
:1031C000050610C081E080937203109246051092AC
:1031D00045058FE290E09093060680930506EF5F29
:1031E000E0934705209145053091460521153105AD
:1031F00021F410928100439814C01092800089E05D
:103200008093810083E080936F0040E050E060E0B5
:1032100079E08DE390E00E944B3530938900209354
:103220008800809105069091060601979093060606
:103230008093050618C080914305909144058F5FE7
:103240009F4F89F410928100439810924405109288
:10325000430580E280937103809148058093470580
:1032600081E080937203FF91EF91BF91AF919F91A5
:103270008F917F916F915F914F913F912F910F901F
:103280000FBE0F901F9018951F920F920FB60F92BE
:1032900011248F939F9388B198E0892788B99F91D3
:1032A0008F910F900FBE0F901F9018951F920F9245
:1032B0000FB60F9211248F939F9388B198E08927BE
:1032C00088B99F918F910F900FBE0F901F90189506
:1032D0001E9B21C08091FF058130A9F51092FF054A
:1032E0001092420510924105109244051092430538
:1032F00090914005913039F510924005109281006F
:1033000080E28093710380914805809347059093F4
:103310007203439808958091FF058823A1F481E00A
:103320008093FF05109242051092410510924405CA
:103330001092430590E29093710390914805909309
:1033400047058093720308951F93162F10928000F3
:1033500029E02093810023E020936F009C0140E04E
:1033600050E060E079E08DE390E00E944B353093CF
:1033700089002093880020E533EC04C0C90101973F
:10338000F1F719511931D0F71092810043981F912C
:103390000895CF93DF93C82FD0E0E42FF0E0E053FF
:1033A000F84F833010F42C963197262F30E02F5FA2
:1033B0003F4F2E0F3F1FCE01880F991F280F391F37
:1033C000CF019695879596958795280F391FCF0140
:1033D00060E971E00E942435260F371FCF0164E6B3
:1033E00070E00E942435261B370BAE014F5F5F4F04
:1033F000CA01880F991F840F951F880F991F6AE0D3
:1034000070E00E942435C901860F971F67E070E0C5
:103410000E942435DF91CF910895482F6AE00E94E1
:103420000B35282F30E0B4E0220F331FBA95E1F7B7
:10343000842F0E940B35892F822B0895FC01837005
:103440009070892B39F4CF0164E670E00E94243536
:10345000892B49F420E030E0CF0160E971E00E945F
:103460002435892B11F421E030E0822F0895109249
:10347000E80480913E058823E1F38CE38093FC050A
:1034800010923E0580913E058823E1F381E0809310
:10349000E804089588E592E0909342058093410501
:1034A00080E699E090934405809343051092810053
:1034B000439810923F050895CF92DF92EF92FF92CA
:1034C0000F931F93DF93CF93CDB7DEB728970FB637
:1034D000F894DEBF0FBECDBF162FF42ED22EFE0104
:1034E000319698E0DF011D929A95E9F719820E94C2
:1034F0000D1A8A83812F0E940D1A8B838F2D0E94B3
:103500000D1A8C838D2D0E940D1A8D83802F0E94A1
:103510000D1A8E838E2D0E940D1A8F838C2D0E9482
:103520000D1A8887F89480ED68E0AE014F5F5F4F19
:103530000E94B61478948823D9F008EC10E080EA51
:103540009FE064E60E94A41988EE93E0F8013197A9
:10355000F1F70197D9F780EA9FE064E60E94A41989
:1035600080E197E2F8013197F1F70197D9F7E7CFBA
:1035700028960FB6F894DEBF0FBECDBFCF91DF9176
:103580001F910F91FF90EF90DF90CF9008950F93D0
:103590001F93DF93CF93CDB7DEB729970FB6F8947B
:1035A000DEBF0FBECDBF1982F89480ED61E0AE01A1
:1035B0004F5F5F4F0E94B6148823E1F008EC10E0E3
:1035C000789480EA9FE064E60E94A41988EE93E074
:1035D000F8013197F1F70197D9F780EA9FE064E6A7
:1035E0000E94A41980E197E2F8013197F1F7019761
:1035F000D9F7E6CF80ED67E0AE014E5F5F4F0E94E6
:10360000FD1478948823D9F008EC10E080EA9FE05C
:1036100064E60E94A41988EE93E0F8013197F1F76F
:103620000197D9F780EA9FE064E60E94A41980E13F
:1036300097E2F8013197F1F70197D9F7E7CF7A814F
:10364000872F82958F7090E0877090709C01F3E0D7
:10365000220F331FFA95E1F7880F991F280F391FA2
:10366000872F8F70820F809308064B81842F82955D
:103670008F7090E0877090709C0163E0220F331F81
:103680006A95E1F7880F991F280F391F4F70420F75
:103690004093FB058C81482F42954F70682F6F70C7
:1036A00086FF22C082958695877090E08170907029
:1036B0009C01220F331F280F391F220F331F220FA7
:1036C000331F842F90E081709070AC01B3E0440F01
:1036D000551FBA95E1F7880F991F480F591F240FFE
:1036E000260F2093F60511C0842F90E08370907010
:1036F0009C01F3E0220F331FFA95E1F7880F991F21
:10370000280F391F620F6093F6054E81842F829532
:103710008F7090E0837090709C0163E0220F331FE4
:103720006A95E1F7880F991F280F391F4F70420FD4
:103730004093FA054F81842F82958F7090E08170BD
:1037400090709C0103E0220F331F0A95E1F7880F68
:10375000991F280F391F4F70420F40930706288585
:10376000822F82958F703AE0839FC00111242F70C1
:10377000280F2093F905872F807829960FB6F894A3
:10378000DEBF0FBECDBFCF91DF911F910F91089586
:10379000CF92EF920F930E9425140E94C71A88239C
:1037A00059F080E060E04CE020E001E0EE24E3949A
:1037B000AFE0CA2E0E945C1A0E94C71A87E080936D
:1037C000B10081E08093700078940F91EF90CF90DA
:1037D0000895EF92FF920F931F93CF93DF938B0186
:1037E0007A01882329F481E090E0C2E0D0E012C0A1
:1037F000813029F489E090E0CAE0D0E00BC082304B
:1038000029F08DE090E0CEE0D0E004C08BE090E0C5
:10381000CCE0D0E00E94883568E10E940B35F801C9
:103820009083CE010E9488356CE30E940B35F7012E
:103830009083DF91CF911F910F91FF90EF900895AA
:1038400080E090E00E948835833C09F44BC081E021
:1038500090E068E00E94903582E090E060E00E9495
:10386000903583E090E060E10E94903584E090E044
:1038700061E00E94903585E090E065E00E9490351F
:1038800086E090E061E00E94903588E090E060E0A2
:103890000E94903589E090E069E00E9490358AE0CE
:1038A00090E06FE00E9490358BE090E06AE00E942B
:1038B00090358CE090E06EE10E9490358DE090E0D4
:1038C0006BE00E9490358EE090E06DE20E949035B2
:1038D0008FE090E060E00E94903580E090E063EC43
:1038E0000E94903508950F931F93DF93CF9300D0DC
:1038F000CDB7DEB769834A83882329F481E090E05D
:1039000002E010E012C0813029F489E090E00AE082
:1039100010E00BC0823029F08DE090E00EE010E066
:1039200004C08BE090E00CE010E069810E949035CB
:103930006A81C8010E9490350F900F90CF91DF915E
:103940001F910F9108951F920F920FB60F9211249D
:10395000FF920F931F932F933F934F935F936F9318
:103960007F938F939F93AF93BF93EF93FF93A8950C
:1039700080914905853389F410924905F090080635
:103980001091FB050091F6050E9468190E94C71A64
:103990008091F605801729F407C08F5F8093490551
:1039A000D0C00093FD0504C08091FB05811711F084
:1039B0001093F705809108068F15B1F18091F204FC
:1039C000882329F08091F20481508093F204909131
:1039D00040059130C9F420914105309142052115EF
:1039E000310591F02130310549F480E28093710373
:1039F0008091480580934705909372032150304091
:103A0000309342052093410580914005813061F457
:103A10008091430590914405181619062CF40197DE
:103A2000909344058093430580913F05853081F054
:103A300080913F05873061F080913F058A3041F0E9
:103A400080913F05883021F080913F058F30D1F47F
:103A50008091F3048823B1F480E562E00E94C417EA
:103A60008091F6050E941B148AE30E94E91380915D
:103A7000FB050E941B148AE30E94E913809108064B
:103A80000E941B1480913E05882309F59091FC0546
:103A9000809108069817D9F0809108068093FC055C
:103AA0008091FB058093FE058091F6058093F505D6
:103AB0008091FA058093F8058091070680930106AE
:103AC0008091F9058093040681E080933E05809102
:103AD000FF058130B1F480914005813091F48091EF
:103AE000430590914405892B61F410924005109292
:103AF0004205109241058FEF9FEF9093440580930C
:103B000043052091FF052130E1F480914005882391
:103B1000C1F4809108068823A1F49091FB0580915F
:103B20005805981771F49091F60580914C059817F7
:103B300041F42093400588E097E0909344058093FA
:103B40004305FF91EF91BF91AF919F918F917F912D
:103B50006F915F914F913F912F911F910F91FF9026
:103B60000F900FBE0F901F9018951F93CF93DF9368
:103B700014BE88E10FB6F894809360001092600044
:103B80000FBE8AE190E00E94B51E3B9A8CE38093C1
:103B9000FC050E94C81B0E94201C88E090E00E9447
:103BA0008835817080934A0580914A0590E088238A
:103BB00009F491E0909359058FE090E00E948835D8
:103BC000837080930006809100066CE475E048E500
:103BD00055E00E94E91B0E947C041092FF051092A0
:103BE0004005109242051092410510924405109232
:103BF00043050E94681982E084BD83E085BD8DE79E
:103C000087BD80916E00826080936E00539A80E23F
:103C10008093B0008091B00083608093B000809169
:103C2000B10088608093B10080E18093B30083E0AD
:103C300090E00E9488358093B400259A80EA9FE046
:103C400064E60E94A4192FE088E190E00FB6F89492
:103C5000A895809360000FBE2093600080914A0574
:103C60000E9446180E9454040E94371A85E391E08E
:103C700090935405809353051092EA0410923F05E7
:103C800081E00E94F20310E0CBE4D0E0D093030681
:103C9000C09302068091EF04882361F08091400573
:103CA000813041F480913F05882321F40E944A1A13
:103CB0001092EF048091EF0480FF10C01092EF0487
:103CC0000E949F0C8091F20480913F05882371F53A
:103CD0000E94371A81E00E94F20328C08091EF040D
:103CE00081FF0AC08091EF040E94A003882311F491
:103CF00011E002C01092EF048091EF0482FD02C037
:103D00001130A1F41091EA040E94BE03982F809113
:103D1000EA04181721F0892F0E94F20304C0809151
:103D2000EF040E94A0031092EF0410E080913F0581
:103D3000882379F480913E058093E80483E00E9413
:103D4000F2038091E804813021F41092E80410928B
:103D50003E058091020690910306892BD1F7809150
:103D6000EB048F5F8093EB0491CF9093C500809319
:103D7000C40088E18093C1008EE08093C200519A14
:103D800050980895982F8091C00085FFFCCF9093A4
:103D9000C60080E090E00895282F982F92959F709C
:103DA0009A3030F48091C00085FFFCCF905D05C053
:103DB0008091C00085FFFCCF995A9093C600822F56
:103DC00090E08F7090700A973CF48091C00085FF5E
:103DD000FCCF2F70205D06C08091C00085FFFCCF16
:103DE0002F70295A2093C60008951F93182F892FEA
:103DF0000E94CC1E812F0E94CC1E1F91089580919D
:103E0000C00087FFFCCF8091C60008958091C0005C
:103E10008078089508950895089508950895CF929B
:103E2000EF92FF920F931F93DF93CF9300D00F92E7
:103E3000CDB7DEB7162F7E010894E11CF11CB70147
:103E40000E94460400910E06C090590583E1089F28
:103E5000C0011124189F102D112480910C06810F90
:103E60006091090641E09701E0900B060E94160F51
:103E70000F900F900F90CF91DF911F910F91FF90B6
:103E8000EF90CF900895CF92EF92FF920F93DF9330
:103E9000CF9300D000D000D0CDB7DEB7C090EB04F8
:103EA0008091ED04813049F580914F058130D9F43E
:103EB00080914C057E010894E11CF11CB7010E9421
:103EC00046048AE38B8380915805BE016C5F7F4F67
:103ED0000E9446040091590582E069E340E09701A1
:103EE0000E9436100AC000914A0581E068E343E170
:103EF00027E00E94F71110924E058091E90481306D
:103F000079F420E08C2D90E08F70907008970CF081
:103F100021E080914E052817A1F020934E0506C0A0
:103F200080914E05813069F410924E05C0904A058B
:103F300081E068E343E127E002E094E0E92E0E949B
:103F4000431026960FB6F894DEBF0FBECDBFCF91BB
:103F5000DF910F91FF90EF90CF900895CF92EF9265
:103F60000F931F93182F813029F480914A050E94E6
:103F70002A1808C000914A0580E060E040E828E384
:103F80000E94F71100910E06C090590580910C0611
:103F9000800F2CE0029F90011124820F609109068E
:103FA00041E023E733E0E0900B060E94160F80917A
:103FB0000A068130A1F400910E06C0905905802FA9
:103FC0008295880F807E90910C06890F609109067A
:103FD00041E023E733E0E0900B060E94160F11301A
:103FE00021F410924F0510924E051F910F91EF9002
:103FF000CF90089591E090930A0690E190930C067B
:104000009CE09093090692E090930E0690930B0625
:1040100095E290930D060E94AE1F089510920A0635
:1040200024E020930C0692E09093090620930E065C
:1040300095E090930B069CE290930D060E94AE1FB4
:104040000895EF92FF920F931F93DF93CF93CDB715
:10405000DEB729970FB6F894DEBF0FBECDBF0E9422
:10406000431F8091E804882329F48091EC0488237D
:1040700009F493C09091610580915505981789F4D2
:104080009091570580914D05981759F490915005DE
:1040900080914B05981729F48091EC04813009F048
:1040A0004BC010910D0680915705609161054091BC
:1040B00050050E94C91900915905E82FF0E0EE0F54
:1040C000FF1FE653FD4F2081318182E1612F41E0E6
:1040D0000E943610E091570500915905F0E0EE0F6F
:1040E000FF1FE357FD4F208131818AE260910D0669
:1040F00041E00E943610809161057E010894E11C28
:10410000F11CB7010E9446048CE28B8380E28C8311
:1041100082E38D8380E38E8380915005BE01695FC9
:104120007F4F0E9446040091590582E460910D067C
:1041300041E097010E9436109091670580916205D9
:10414000981721F48091EC04813029F4809167055F
:1041500060E00E940F1F9091680580915D0598179F
:1041600021F48091EC04813029F48091680561E0AC
:104170000E940F1F80910A06813079F490916305A7
:1041800080916405981721F48091EC04813029F422
:104190008091630562E00E940F1F29960FB6F89484
:1041A000DEBF0FBECDBFCF91DF911F910F91FF906A
:1041B000EF900895CF93DF93EC018A81803429F446
:1041C0008B818F3111F492E001C096E020E030E065
:1041D000FE01E20FF31FDB01A20FB31F8C9180835E
:1041E0002F5F3F4F2917A0F3DF91CF9108952F92B2
:1041F0003F924F925F926F927F928F929F92AF9277
:10420000BF92CF92DF92EF92FF920F931F93DF93B3
:10421000CF93CDB7DEB72B970FB6F894DEBF0FBEA6
:10422000CDBF382E292E7A8369832B833C834D831F
:104230005E83EF82F88609871A874A2C8B86CA012B
:10424000B9010E94C1344B015C01DD24EE24D7FC8E
:10425000E094FE2CC701B6010E9499337B018C01CA
:10426000C501B401A80197010E945E340E94663323
:10427000605CE981FA8160836B817C818D819E81A4
:104280000E94FB329058A80197010E945E340E9460
:104290006633615EE981FA8161836B817C818D8106
:1042A0009E812F81388549855A850E9497327B01EE
:1042B0008C01C8010E94C1345B016C015524662445
:1042C00057FC6094762CC301B2010E9499333B01E4
:1042D0004C01C601B501A40193010E945E340E9405
:1042E0006633605CE981FA816283B701C8010E948C
:1042F000FB329058A40193010E945E340E94663301
:10430000615EE981FA8163836B817C818D819E810D
:104310002F81388549855A850E9496327B018C0110
:10432000C8010E94C134A40193010E945E340E941E
:104330006633605CE981FA816483B701C8010E9439
:10434000FB329058A40193010E945E340E946633B0
:10435000615EE981FA816583232D322DC901DC017B
:1043600020E030E00CC08D91E981FA81E20FF31F6B
:1043700090812F5F3F4F891711F081E004C0FB85CA
:104380002F1788F380E02B960FB6F894DEBF0FBE90
:10439000CDBFCF91DF911F910F91FF90EF90DF90F4
:1043A000CF90BF90AF909F908F907F906F905F90D5
:1043B0004F903F902F9008950F931F93CF93DF93CB
:1043C000EC01162F888169814A812B81012F0E947F
:1043D000AC128A81803419F48B818F3169F0888125
:1043E00069814C812D81012F0E94AC128A816B81E1
:1043F0004C812D810E94AC12DF91CF911F910F91C2
:104400000895CF92DF92EF92FF920F931F93813026
:1044100009F07DC080914A050E942A180091590533
:1044200080E46FE14EE120E00E941F1340915905A6
:1044300080E46FE10E947B12DD246D2D772767FDFC
:104440007095872F972F0E94993322E93AE046E032
:104450005FE30E945E347B018C01C8010E94C1347D
:104460002DEC3CEC40EE51E40E945E340E94663339
:10447000C62EB701C8010E94FB322DEC3CEC40EE89
:1044800051EC0E945E340E946633062F409159051C
:10449000615E8C2D805C0E947B128D2D63E00E94FA
:1044A00017359923B9F4DD2011F401500BC083E0D6
:1044B000D81611F4C39406C086E0D81611F40F5F25
:1044C00001C0CA9440915905015E8C2D805C602F1B
:1044D0000E947B12D3948CE0D81609F0AECF80E016
:1044E00090E028E2FC01EB5EF94F2083FC01E15FE4
:1044F000F94F2083FC01E55EF94F20830196863059
:10450000910581F710924F0510924E0510C08091D1
:104510005605882361F460914A0585E196E00E9482
:10452000DC214091590580E46FE10E947B121F91CC
:104530000F91FF90EF90DF90CF90089591E09093CE
:1045400056050E9401220895109256050E940122EC
:1045500008953F924F925F926F927F928F929F92B7
:10456000AF92BF92CF92DF92EF92FF920F931F9381
:10457000DF93CF93CDB7DEB760970FB6F894DEBF69
:104580000FBECDBF3090EB048091ED04813009F077
:10459000F7C080914F05813009F0B6C06091580591
:1045A00070E080E090E00E94973320E537E746ED29
:1045B0005DE30E945E347B018C01C8010E94C1341E
:1045C0006D877E878F87988BB701C8010E94FB3269
:1045D00069877A878B879C8780914C05E090580586
:1045E0006CE00E940B35692F70E0882777FD80957D
:1045F000982F0E94993322E93AE046E05FE30E9457
:104600005E345B016C01FF2400E010E0C801B701DB
:104610000E94973325E33AEF4EE05CE30E945E345C
:104620009B01AC01C601B5010E9497327B018C0150
:10463000C8010E94C1346D837E838F839887B70140
:10464000C8010E94FB322B013C0100914A0582E027
:1046500069E347E125E00E94F7110091590589E0DF
:1046600066E347E020E00E941F13009159056D8525
:104670007E858F85988920E030E040EE50E40E94EE
:104680005E340E9466334B015C0189E0880E6985C7
:104690007A858B859C8520E030E040EE50EC0E94CE
:1046A0005E340E9466336B017C0186E3C80E89E0AC
:1046B00066E3482D2C2D0E94AC12009159056D81A6
:1046C0007E818F81988520E030E040EA50E40E94AE
:1046D0005E340E9466334B015C0189E0880EC301A1
:1046E000B20120E030E040EA50EC0E945E340E94CB
:1046F00066336B017C0186E3C80E89E066E3482DD2
:104700002C2D0E94AC123CC000914A0581E06EE263
:1047100041E121E10E94F71110924E05E091570509
:1047200000915905F0E0EE0FFF1FE357FD4F208188
:10473000318182E069E340E00E943610182F1E5F4D
:1047400080E2898380916105BE016E5F7F4F0E9488
:10475000460400915905812F69E340E09E012F5FD7
:104760003F4F0E9436108250810F883148F40091EB
:104770004A0548E1481B8E5F69E325E00E94F71176
:104780008091E904813079F420E0832D90E08F70EE
:10479000907008970CF021E080914E052817A1F049
:1047A00020934E0506C080914E05813069F4109229
:1047B0004E05C0904A0581E06EE241E121E102E050
:1047C00094E0E92E0E94431060960FB6F894DEBF85
:1047D0000FBECDBFCF91DF911F910F91FF90EF9052
:1047E000DF90CF90BF90AF909F908F907F906F9011
:1047F0005F904F903F9008957F928F929F92AF92DB
:10480000BF92CF92DF92EF92FF920F931F93DF93AD
:10481000CF93CDB7DEB762970FB6F894DEBF0FBE69
:10482000CDBF0E94A9228091E804813021F08091BF
:10483000EC04813019F41092600505C08091600588
:104840008F5F8093600580915605813011F0772449
:1048500040C060916305E090600570E080E090E00A
:104860000E94973320E537E746ED5DE30E945E3412
:104870005B016C01FF240027F7FC0095102FC80195
:10488000B7010E94993328E93EE24EEF5BE30E94B4
:104890005E349B01AC01C601B5010E9497329B01B9
:1048A000AC0185E196E0BE016F5F7F4F0F2EFDECFE
:1048B000EF2EFCECFF2EFCEC0F2FFDE31F2FF02D55
:1048C000EBE1CE2EB7E1AB2EA6E08A2E0E94F720B8
:1048D000782E8091E804813031F08091EC048130B1
:1048E00011F099244BC060916805E090630570E079
:1048F00080E090E00E94973320E537E746ED5DE3E6
:104900000E945E345B016C01FF2400E010E0C801EE
:10491000B7010E94973329E833EC44EE5AE30E9432
:104920005E349B01AC01C601B5010E9497329B0128
:10493000AC018FE096E0BE01695F7F4F0F2EFCE770
:10494000EF2EF9EDFF2EF0E20F2FF0E41F2FF02DE8
:10495000FBE1CF2EE8E0AE2EB2E08B2E0E94F720D6
:10496000982E81E0981661F090916205809167051C
:10497000981731F48091EC04813011F010E044C0BC
:1049800080916705E09068056CE00E940B35692F07
:1049900070E0882777FD8095982F0E94993322E94F
:1049A0003AE046E05FE30E945E345B016C01FF2465
:1049B00000E010E0C801B7010E94973325E33AEF09
:1049C0004EE05CE30E945E349B01AC01C601B50180
:1049D0000E9497329B01AC018BE196E0BE01635FC0
:1049E0007F4F0F2EFCE7EF2EF9EDFF2EF0E20F2F99
:1049F000F0E41F2FF02DA4E1CA2EF5E0AF2EE6E083
:104A00008E2E0E94F720182F809156058130C9F410
:104A1000781621F08091EC04813099F460914A0578
:104A200085E196E00E94DC2185E196E0BE016F5FA2
:104A30007F4F0E94DA206091590585E196E00E943F
:104A4000DC2181E0981621F08091EC048130E1F4C2
:104A500060914A058FE096E00E94DC218FE096E0AD
:104A6000BE01695F7F4F0E94DA20609159058FE097
:104A700096E00E94DC2180915605813071F46091AE
:104A8000590585E196E007C081E0781631F4609120
:104A900059058FE096E00E94DC21113021F08091D1
:104AA000EC04813011F560914A058BE196E00E949B
:104AB000DC218BE196E0BE01635F7F4F0E94DA202C
:104AC000609159058BE196E00E94DC2180915605AA
:104AD000813031F46091590585E196E00E94DC2136
:104AE000609159058FE096E009C081E0781611F0D9
:104AF000981631F4609159058BE196E00E94DC2113
:104B000062960FB6F894DEBF0FBECDBFCF91DF9196
:104B10001F910F91FF90EF90DF90CF90BF90AF90DB
:104B20009F908F907F900895FF920F931F93CF9344
:104B3000DF9380914A050E942A180091590581E06F
:104B400061E040E025E733E00E943610C1E0D4E0A8
:104B5000FF241EE083E0F81619F400914A0502C014
:104B6000009159058EE0612F45E028810E940312D3
:104B7000009159058EE0612F45E020E00E941F134F
:104B8000FF2019F40091590502C000914A0586E4FE
:104B9000612F45E028850E9403120091590586E4A3
:104BA000612F45E020E00E941F13F394125F2296CC
:104BB00084E0F81679F60091590589E16CE040E04F
:104BC00023E833E00E943610C2E9D3E016E10091F9
:104BD00059052991399189E1612F40E00E943610F1
:104BE000195F1034A1F7C0EFD3E018E00091590528
:104BF0002991399181E5612F40E00E943610195FBB
:104C00001034A1F7DF91CF911F910F91FF9008957C
:104C100080915605882349F48EE28093600581E0F7
:104C2000809356050E949425089510925605089584
:104C30007F928F929F92AF92BF92CF92DF92EF922C
:104C4000FF920F931F93DF93CF93CDB7DEB7782EEC
:104C50008A2D982C8130D1F4862F6AE00E940B3582
:104C6000B82E842F0E940B35D82E822F0E940B3530
:104C7000F82E802F0E940B35882E8E2D0E940B352A
:104C8000A82E8C2D0E940B35C82E19C0862F6AE0E5
:104C90000E940B35B92E842F0E940B35D92E822FFE
:104CA0000E940B35F92E802F0E940B35892E8E2DF8
:104CB0000E940B35A92E8C2D0E940B35C92EB814DD
:104CC00039F4DA1429F4FC1419F4992009F446C0D3
:104CD00010E02DE0E22E80E0B11609F481E0D1165B
:104CE00009F48260F11609F48460E0E0811609F4A9
:104CF000E1E0A11609F4E260C11609F4E4608E1740
:104D000029F481E0981621F5EE2311F1AE2FB0E0E1
:104D1000FD01EE0FFF1FE050FC4F8081882319F446
:104D20000091590502C000914A05AA0FBB1FA0506F
:104D3000BC4F8E2D672D45E011962C910E940312D9
:104D4000009159058E2D672D45E020E00E941F132C
:104D50001F5F8CE0E80E1A3009F0BDCFCF91DF91D4
:104D60001F910F91FF90EF90DF90CF90BF90AF9089
:104D70009F908F907F900895CF92EF92FF920F9324
:104D8000DF93CF9300D000D000D0CDB7DEB7C09076
:104D9000EB048091ED04813049F580914F0581301D
:104DA000D9F480914C057E010894E11CF11CB701F7
:104DB0000E9446048AE38B8380915805BE016C5F94
:104DC0007F4F0E9446040091590581E06AE340E06C
:104DD00097010E9436100AC000914A0580E069E3FD
:104DE00043E127E00E94F71110924E058091E904FB
:104DF000813079F420E08C2D90E08F7090700897CE
:104E00000CF021E080914E052817A1F020934E056B
:104E100006C080914E05813069F410924E05C09015
:104E20004A0580E069E343E127E002E034E0E32E55
:104E30000E94431026960FB6F894DEBF0FBECDBF7A
:104E4000CF91DF910F91FF90EF90CF900895AF92A7
:104E5000CF92EF92FF920F931F93DF93CF9300D0E7
:104E60000F92CDB7DEB780914A050E942A1880E3E1
:104E700089831A821CE07E010894E11CF11C0091D8
:104E80005905812F61E040E097010E943610898129
:104E90008F5F8983145F143891F7A090590581E0E2
:104EA0006AE140E021E008E813E0EE24E394CC243A
:104EB000C3940E949F0DA090590581E061E340E0FA
:104EC00021E00DE813E00E949F0D90E05DE0C52E0B
:104ED00017C0112311F4963050F4009159058C2D10
:104EE0006E2D45E020E09B830E941F139B811F5F76
:104EF0008CE0E80E143069F79F5FC80E9A3021F0FD
:104F000010E04DE0E42EE5CF10924F0510924E05D3
:104F100010926005109256050F900F900F90CF9150
:104F2000DF911F910F91FF90EF90CF90AF90089578
:104F30008F92AF92CF92EF92FF920F93DF93CF9326
:104F400000D00F92CDB7DEB780916005813021F49B
:104F50008091E804813041F080916005882341F020
:104F600080915605882321F481E00E94F20320C03D
:104F7000809156058130E1F48091E804813009F098
:104F80006CC08091600581508093600580916005C0
:104F90007E010894E11CF11CB7010E9446040091B7
:104FA000590588E761E040E097010E94361055C03E
:104FB0000E94BC268091E804882329F48091EC04A7
:104FC000882309F44AC06091640540915D052091F1
:104FD000620500916305E0906805C09067058090C8
:104FE000EC048DE0AA24A3940E9418266091640525
:104FF00040915D052091620500916305E090680590
:10500000C09067058090EC0489E1AA240E941826CC
:105010006091550540914D0520914B05009161052A
:10502000E0905705C09050058090EC0485E2AA24DA
:10503000A3940E9418266091550540914D0520913A
:105040004B0500916105E0905705C0905005809098
:10505000EC0481E3AA240E9418260F900F900F9071
:10506000CF91DF910F91FF90EF90CF90AF908F9005
:1050700008955F926F927F928F929F92AF92BF92AC
:10508000CF92DF92EF92FF920F931F93582EE42E50
:10509000A22E70E080E090E00E9497339B01AC016B
:1050A00060E070E080E891E40E94FE323B014C0138
:1050B000FF240027F7FC0095102FC801B7010E94BC
:1050C00099339B01AC01C401B3010E945E3420E01E
:1050D00030E040E05FE30E9497320E946B33162F6E
:1050E000BB24CC24B7FCC094DC2CC601B5010E94C3
:1050F00099339B01AC01C401B3010E945E3420E0EE
:1051000030E040E05FE30E9497320E946B33A62EAE
:10511000161721F48091EC04813049F5165998E076
:10512000E92EE50C00914A05812F6E2D42E021E029
:105130000E94F7118AE0F82EF50C00914A05812FA4
:105140006F2D42E021E00E94F7111A2D16590091AF
:105150005905812F6E2D42E021E00E94F711009148
:105160005905812F6F2D42E021E00E94F7111F9118
:105170000F91FF90EF90DF90CF90BF90AF909F90F6
:105180008F907F906F905F9008950F931F93CF93B0
:10519000DF939091610580915505981759F490918E
:1051A000570580914D05981729F48091EC048130C2
:1051B00009F051C021E0CEE9D4E0909161058981E8
:1051C000981729F4909157058A81981721F02F5F3D
:1051D0002796243091F7809121068217E1F12093E0
:1051E00021068881882311F412E018C06B817C812C
:1051F00080E00E94010D082F6D817E81611571058F
:1052000021F080E00E94010D080F81E890E0801BF2
:10521000910962E070E00E943835162F00914A052E
:1052200080E060E040E827E00E94F7110091590516
:105230002B813C81812F61E040E00E9436102D815E
:105240003E812115310539F000915905810F61E04A
:1052500040E00E943610DF91CF911F910F91089589
:105260000E94C5289091630580916405981721F4E8
:105270008091EC04813041F44091640520916305F4
:1052800080E36BE30E9439289091680580915D0569
:10529000981721F48091EC04813041F440915D0530
:1052A0002091680581E26BE30E943928909167059F
:1052B00080916205981721F48091EC04813041F4CB
:1052C000409162052091670582E167E10E943928DB
:1052D0000895FF920F931F93CF93DF93EC016230F9
:1052E00001F500914A0580E060E144E62FE20E946A
:1052F000F7110091590582E069E040E09E010E94AB
:105300003610282F90E0C0970CF075C000914A0528
:1053100040E3421B822F8E5F69E025E00E94F71177
:105320006AC080914A050E942A180091590580E0C0
:1053300067E040E821E00E94F7110091590580E004
:105340006FE040E821E00E94F7110091590585E6E1
:1053500067E041E029E30E94F7118FEF8093210677
:105360000E94C5280091590582E069E040E09E0155
:105370000E9436100091590586E569E040E020E181
:1053800034E00E9436100091590588E669E040E05B
:1053900024E134E00E9436102BE131E0FF2412E1D9
:1053A00009C081E0F81619F024E231E002C020E2E1
:1053B00031E0115F0091590589E6612F40E00E94BC
:1053C000361000915905612F6A5F88E646E127E0B3
:1053D0000E94AC1100915905612F675F8AE642E196
:1053E00021E00E94F711F39483E0F816D1F61092B1
:1053F0004F0510924E05DF91CF911F910F91FF90B5
:1054000008952F923F924F925F926F927F928F9268
:105410009F92AF92BF92CF92DF92EF92FF920F9343
:105420001F93DF93CF9300D000D00F92CDB7DEB79C
:10543000982E6C83442E202ECD823A2C30E04427C7
:1054400037FD4095542FCA01B9010E9499335B0181
:105450006C01552466247724C301B2010E9497335E
:105460009B01AC01C601B5010E94FE325B016C01DB
:10547000FF240027F7FC0095102FC801B7010E94F8
:1054800099339B01AC01C601B5010E945E3420E056
:1054900030E040E05FE30E9497320E946B33462E7B
:1054A0008D81682F70E0882777FD8095982F0E9466
:1054B00099339B01AC01C601B5010E945E3420E026
:1054C00030E040E05FE30E9497320E946B33A62EEB
:1054D000461621F48091EC04813041F51C811A19A3
:1054E0002A2D2F5F8A8D8530C1F400915905892DB1
:1054F000612F422D0E94AC1181E08A15B8F4C09052
:1055000059051F5F422D42502A2D2150892D8F5F52
:10551000612F00E035E0E32E07C0C0905905892DCA
:10552000612F422D01E0EA8C0E9443108D817E01A3
:105530000894E11CF11CB7010E9446041C811A1951
:10554000D12ED80C00915905832D890D6D2D41E088
:1055500097010E94361000914A051150892D612F44
:10556000422D21E00E94F711182D109500914A0557
:10557000892D6D2D432D212F0E94F71100914A0591
:10558000892D8F5F820D83196D2D3A94432D212F24
:105590000E94F711A41460F400914A058C81880ED2
:1055A00084184A18892D682D422D242D0E94F71148
:1055B0000F900F900F900F900F90CF91DF911F9150
:1055C0000F91FF90EF90DF90CF90BF90AF909F90A2
:1055D0008F907F906F905F904F903F902F900895A5
:1055E000CF92EF920F931F93DF93CF93CDB7DEB798
:1055F00027970FB6F894DEBF0FBECDBFE090EB0447
:105600008091ED04813009F05FC080E28983809150
:105610004F058130D9F480914C05BE016E5F7F4FFC
:105620000E9446048AE38C8380915805BE016B5F1B
:105630007F4F0E9446040091590582E369E040E0F3
:105640009E012F5F3F4F0E94361033C080914E0560
:10565000813051F400914A0583E368E043E127E09B
:105660000E94AC1110924E05E0915705009159052A
:10567000F0E0EE0FFF1FE357FD4F2081318182E301
:1056800069E040E00E943610182F1E5C8091610591
:10569000BE016E5F7F4F0E94460400915905812F25
:1056A00069E040E09E012F5F3F4F0E943610825319
:1056B000810F883148F400914A0548E1481B8E5C0F
:1056C00069E025E00E94F7118091E904813079F4C6
:1056D00020E08E2D90E08F70907008970CF021E004
:1056E00080914E052817A1F020934E0506C08091A9
:1056F0004E05813069F410924E05C0904A0583E34F
:1057000068E043E127E002E054E0E52E0E94431008
:1057100027960FB6F894DEBF0FBECDBFCF91DF91B5
:105720001F910F91EF90CF900895FF920F931F93C9
:105730008A30F1F40091590588E067E141E022E206
:105740000E94F7110091590589E068E343E521E0E3
:105750000E94F71108E14091590587E0602F0E94EF
:105760007B120B5F0B33B9F78BE4FDE0FF2E0AC011
:105770008D3029F08EE4EAE0FE2E16E304C08EE4BC
:105780007AE0F72E1AE300915905612F40E024E2F8
:1057900031E00E943610009159058CE2612F40E003
:1057A00020E231E00E943610009159058F2D612FC3
:1057B00040E02BE131E00E9436101F910F91FF90E5
:1057C00008952F923F924F925F926F927F928F92A5
:1057D0009F92AF92BF92CF92DF92EF92FF920F9380
:1057E0001F93DF93CF9300D000D0CDB7DEB7482E04
:1057F000242EC22E102F70E0882777FD8095982FD9
:105800000E94993328E339EA4BEF5EE30E945E344D
:1058100020E030E040E05FE30E9497320E946B336B
:10582000562E622D70E0882777FD8095982F0E9474
:10583000993328E339EA4BEF5EE30E945E3420E0BF
:1058400030E040E05FE30E9497320E946B33662EA7
:10585000DD24EE24D7FCE094FE2CC701B6010E94A3
:10586000993328E339EA4BEF5EE30E945E3420E08F
:1058700030E040E05FE30E9497320E946B33762E67
:10588000602F70E0882777FD8095982F0E949933CC
:1058900028E339EA4BEF5EE30E945E3420E030E01B
:1058A00040E05FE30E9497320E946B33962E5714BC
:1058B00030F4872C8518A6E3AA2EA71805C0852CDE
:1058C0008718F6E3AF2EA518882011F48824839456
:1058D000691430F4392C3618E6E3BE2EB91805C029
:1058E000362C391876E3B72EB618332011F433244A
:1058F0003394561431F4791421F48091EC048130FE
:1059000081F4121518F092E001E002C093E000E08B
:10591000C0905905842D6B2D4DE0232DE92E0E945A
:105920004310012F021907FD02C050E003C08DE2B1
:10593000898351E0112707FD109517FF03C01095CB
:1059400001951F4F402F0A3054F0FE01E50FF11D65
:10595000802F6AE00E941735805D81835F5F9E0122
:105960002F5F3F4FF901E50FF11D842F6AE00E9480
:105970001735905D90835F5FE52EFF24F901EE0DF2
:10598000FF1D1082EE0CFF1CEE0CFF1CEA948DE054
:1059900090E08E19910962E070E00E943835D62EB1
:1059A000C62EC40C1B2D1650009159058C2D612F4D
:1059B00040E00E94361000914A05842D612F4D2D44
:1059C00026E00E94F71100914A058C2D8E0D612F63
:1059D0004D2D26E00E94F711561419F4791409F49C
:1059E0005EC000914A056B2D6150842D4DE021E091
:1059F0000E94F711AB14E0F42A2D30E0280D311D80
:105A00008B2D90E00697281739071CF4282D2A5F64
:105A100002C02B2D2A19222359F0C09059056A2D56
:105A20006650842D4DE002E055E0E52E0E944310C3
:105A3000571479F4691468F4561459F4C090590550
:105A4000842D6A2D4DE021E002E035E0E32E0E9436
:105A500043104A2D50E02B2D30E0230D311DCA019B
:105A6000880D911D28173907D4F44550504024174C
:105A7000350734F0632D6B0D282D2A0D261B04C02D
:105A8000282D2A5F6A2D6650222349F0C0905905BF
:105A9000842D4DE002E095E0E92E0E9443100F9026
:105AA0000F900F900F90CF91DF911F910F91FF906A
:105AB000EF90DF90CF90BF90AF909F908F907F90AE
:105AC0006F905F904F903F902F900895682F8AEBD2
:105AD00094E00E9469298AE00E94952B08958F9294
