:100000000C946F020C948C020C948C020C94AA0534
:100010000C948C020C948C020C948C020C948C0228
:100020000C948C020C94BC1A0C948C020C944B19FA
:100030000C948C020C945D190C9462180C948C0234
:100040000C948C020C948C020C948C020C948C02F8
:100050000C948C020C940C050C948C020C948C0265
:100060000C941F160C948C0205A84CCDB2D44EB93A
:100070003836A9020C50B9918688083CA6AAAA2A4B
:10008000BE000000803F49922449249200010205ED
:100090000A0F121617191B1E212326272A2D30336B
:1000A00036393C3F424548494B4D505255595C5FAB
:1000B000626567696C6F707275777C8083868A8DE4
:1000C000909396999EA1A4A7A9ACAEB1B4B6B9BAC3
:1000D000BDC12037630003AA1F0A1F0AA2151F15FE
:1000E000087904138A151208234E11510E6A040A66
:1000F000640E045008640404307804037F111F72F6
:100100001F107D151775151F67041F77151D7F15A7
:100110001D611D037F151F77151F2A500A440A6AA7
:100120000A0A4A046115028815190E7E051E7F15FC
:100130000A6E11117F110E5F155F056E111D7F0490
:100140001F3F500F7F041B5F10BF0204021F9F025E
:10015000041F6E110E7F05028E1109167F051A729B
:100160001509611F017F101F6F100FAF100C100FCA
:100170007B041B631C037915135F11630418511F63
:100180006201027010104102641F113F711F04844C
:10019000150E04840E1504000000000000005F002E
:1001A000000007000700147F147F14242A7F2A12FE
:1001B00023130864623649552250000503000000ED
:1001C0001C2241000041221C00082A1C2A080808A1
:1001D0003E08080050300000080808080800606069
:1001E000000020100804023E5149453E00427F4075
:1001F0000042615149462141454B311814127F108C
:1002000027454545393C4A494930017109050336BE
:1002100049494936064949291E003636000000562C
:10022000360000000814224114141414144122143E
:1002300008000201510906324979413E7E1111112F
:100240007E7F494949363E414141227F4141221C3E
:100250007F494949417F090901013E414151327FAE
:100260000808087F00417F41002040413F017F088E
:100270001422417F404040407F0204027F7F0408F7
:10028000107F3E4141413E7F090909063E4151210F
:100290005E7F09192946464949493101017F01011B
:1002A0003F4040403F1F2040201F7F2018207F6399
:1002B00014081463030478040361514945430000A2
:1002C0007F4141020408102041417F0000040201E7
:1002D00002044040404040000102040020545454B5
:1002E000787F484444383844444420384444487F64
:1002F0003854545418087E090102081454543C7FA1
:100300000804047800447D40002040443D00007F04
:1003100010284400417F40007C041804787C0804C5
:10032000047838444444387C14141408081414180D
:100330007C7C080404084854545420043F44402062
:100340003C4040207C1C2040201C3C4030403C4431
:10035000281028440C5050503C4464544C4400082D
:1003600036410000007F0000004136080008082ADE
:100370001C08081C2A08085A100105010000000882
:1003800000090F0A1E0B2D000E0E1D0E1D2B0F3A1D
:100390000E2B0F480A520F610A520F000E0E1D0E4F
:1003A0001D6B0E790D6B0E8610030303030303030D
:1003B0000303030603030603030303060303030304
:1003C00003030303030303030303030303030303FD
:1003D00003030306060303030303030303030303E7
:1003E00003030306030303030303030303030303DA
:1003F000060603030303060303060C0303030303B8
:1004000003030303030303030306030303030303B9
:1004100003030C0C03030303060303030303030397
:100420000306040404040404030303030303060390
:1004300003030304040403030303030C0C0C0C92D6
:1004400092009200749200AE000057000074000009
:10045000570049000062006E006862005792AEC407
:10046000009BAE00920074826E0000AEA49B8A00D6
:1004700092005C62740062748200AEA49B8A009257
:1004800000E800E8E80000008A0000820074000034
:10049000007474007400748200927400625700004B
:1004A0007474007400748292000092740057005CAF
:1004B00000629B009B6200006EC4C4C4AE9B927439
:1004C00000625700006E9B009B9B9282744900491A
:1004D0003A00000000050203010103020500112497
:1004E0001FBECFEFD8E0DEBFCDBF14E0A0E0B1E08B
:1004F000ECE1FEE502C005900D92A03BB107D9F7F3
:1005000025E0A0EBB4E001C01D92A53EB207E1F7E3
:100510000E94F62A0C940C2F0C9400008091BF04CA
:100520008093C2048091BE048093C1048091BD0475
:100530008093C0048091B9048093BC048091B80476
:100540008093BB048091B7048093BA0408951F93ED
:10055000CF93DF939091B004C0910001D09101013D
:1005600028E0929FC00DD11D11242E813F81232BA5
:1005700049F0182F0E949C0EEE81FF81812F099572
:1005800081E001C080E0DF91CF911F9108950F932A
:100590001F93CF939091B00400910001109101013D
:1005A00028E0929F000D111D11249091AA059093AF
:1005B000B3049091AB059093B6049091B60491303A
:1005C00069F59091DF059093BF049091E0059093B9
:1005D000BE049091E1059093BD049091E205909343
:1005E000B9049091E3059093B8049091E405909339
:1005F000B7042091B9049091BC0429130CC0209138
:10060000B8049091BB04291306C02091B7049091BF
:10061000BA04291719F091E09093B504D8019C9180
:10062000992309F441C0C82F0E949C0EC33051F594
:100630001092B4048091A405813059F49091D105B1
:10064000913089F08093D1058093B4041092C30453
:100650000AC08091D105823031F082E08093D105CB
:1006600081E08093B404D8011496ED91FC91159724
:1006700009958091B604813011F40E948E02109287
:10068000B10412C0C13021F41092D1050E94ED14C2
:100690000E948E0281E08093B104D8011296ED9100
:1006A000FC9113978C2F09958091B604813031F419
:1006B0001092B6041092B5041092AB05CF911F9121
:1006C0000F9108958091B0048F5F8093B004809162
:1006D000B004893010F01092B0048091B004E09121
:1006E0000001F091010198E0899FE00DF11D1124B6
:1006F00081810895FB016AE00E94732E805D8083F2
:10070000905D918312820895FF920F931F93CF9370
:10071000DF9300D000D0CDB7DEB7082FF62E0E94B1
:100720009C0EE091B804F0E0EE0FFF1FEA5AFE4F76
:100730002081318140E06F2D802F0E942413182FDB
:1007400080E289838091B904BE016E5F7F4F0E9471
:100750007A039E012F5F3F4F40E06F2D802F810F66
:100760000E942413180F173160F40E94970E47E17E
:10077000411B25E06F2D802F810F0E94CC100E941D
:100780009C0E0F900F900F900F90DF91CF911F91C3
:100790000F91FF900895EF92FF920F931F93CF93C5
:1007A000DF9300D000D000D0CDB7DEB7F82E162FE3
:1007B000042F423071F48091B504813029F080918A
:1007C000B104813009F06EC0612F8F2D0E94840327
:1007D00069C08091B404813029F08091B5048130E2
:1007E00009F042C08091D105813061F58091B40457
:1007F0008130D1F50E949C0E8091CF05BE016F5FC4
:100800007F4F0E947A038AE38B838091D505BE01D6
:100810006C5F7F4F0E947A039E012F5F3F4F40E045
:10082000612F8F2D0E942413E82E0130E9F40E94DD
:10083000970E47E14E1925E0612F8F2D8E0D0E94F6
:10084000CC1012C00E94970E27E043E16FEF610FBA
:100850008FEF8F0D0E94CC101092C304013021F451
:10086000612F8F2D0E9484038091B304813031F475
:100870008091B20483FB882780F901C080E09091C9
:10088000C304891769F08093C3046FEF610F84E09C
:10089000E82E02E027E043E18FEF8F0D0E94D40E97
:1008A0000E949C0E26960FB6F894DEBF0FBECDBFF9
:1008B000DF91CF911F910F91FF90EF9008952AE360
:1008C00032E041E06EE081E20E94241325E432E050
:1008D00041E06EE182E10E9424132FEF8DE399E461
:1008E000215080409040E1F700C0000064E686EAB5
:1008F0009EE00E94031A64E680EA9FE00C94031ACB
:10090000CF93DF93E82FF0E0242F30E02053384FCF
:10091000833018F43C962150310970E06F5F7F4FAF
:10092000620F731FEF01CC0FDD1FC60FD71FA90188
:100930005695479556954795C40FD51FC90160E94F
:1009400071E00E948D2EC60FD71FC90164E670E0CA
:100950000E948D2E9E01261B370B319646E04E9F3E
:10096000C0014F9F900D11246AE070E00E948D2E0F
:10097000C901860F971F67E070E00E948D2EDF91FE
:10098000CF9108959C0183709927892B39F4C9016F
:1009900064E670E00E948D2E892B61F4C90160E944
:1009A00071E00E948D2E9C0191E0232B09F090E0D4
:1009B000892F089581E0089580917A00877F809340
:1009C0007A0080917A00806480937A0080917A0026
:1009D00084FFFCCF80917800909179000895EAE738
:1009E000F0E0808188648083089526982E9A81E0C3
:1009F00080936800EBE6F0E080818064808382E091
:100A000080937C0010927B00EAE7F0E08FE880831F
:100A100080818064808308951F920F920FB60F9299
:100A200011242F933F934F935F936F937F938F93F3
:100A30009F93AF93BF93EF93FF9378948091780047
:100A400090917900803E22E0920770F01092C804E5
:100A50001092CA048091C504813021F48093C404AB
:100A60001092C50484E163C0833622E0920770F1DE
:100A70008091CA0482FD5AC08FE19EE40197F1F78C
:100A800000C000000E94DC04825692408E3791051F
:100A900008F04CC08AEF8093C6048091C604882376
:100AA00069F00E94DC04825692408E379105A8F3CB
:100AB0001092CA0484E08093C90438C01092C9041B
:100AC00084E08093CA048093C80430C08F30914082
:100AD000B0F08091CA0481FD10C08FE19EE40197BF
:100AE000F1F700C000000E94DC048E509140853573
:100AF0009140E0F482E08093C90482E013C08091C9
:100B0000CA0480FD0EC08FE19EE40197F1F700C09A
:100B100000000E94DC048F30914040F481E080931B
:100B2000C90481E08093CA041092C80482E08093D3
:100B3000C704FF91EF91BF91AF919F918F917F91EA
:100B40006F915F914F913F912F910F900FBE0F903A
:100B50001F9018951F920F920FB60F921124789440
:100B60000F900FBE0F901F9018959091C404913074
:100B700021F41092CD041092C4049091C8049923DA
:100B800069F091E09093C5049091CD049A3020F4DF
:100B90009F5F9093CD0404C08E5F03C01092CD047C
:100BA0008F5F0E94732E892F08950F931F93CF9309
:100BB000DF938C01EB0166E080E00E944D18C801D4
:100BC0000E944F15209759F067E080E00E944D1871
:100BD000CE01DF91CF911F910F910C944F15DF91B2
:100BE000CF911F910F9108950F931F93CF93DF9390
:100BF0008C01EB0166E080E00E944D1888EA92E0EB
:100C00000E944F15C8010E944F1567E080E00E94C6
:100C10004D188BEB92E00E944F15CE010E944F15AC
:100C20008B81811108C089E393E0DF91CF911F91FF
:100C30000F910C944F15DF91CF911F910F91089553
:100C4000CF93DF9362E080E50E944D18C2E7D1E0C8
:100C50008A810E9438158AE30E940C1589810E94BE
:100C600038158AE30E940C158881DF91CF910C948E
:100C700038150F931F93CF93DF93082FC62F142F90
:100C8000D22F63E088E00E944D188DEC92E00E9424
:100C90004F15402F612F8C2F0E948004E82FF0E029
:100CA000EE0FFF1FE65BFE4F808191810E944F1582
:100CB000D73311F40E94970EEC2FF0E0EE0FFF1FD8
:100CC000EA5AFE4F808191810E944F150E949C0E2E
:100CD00080E20E940C15812FD83319F40E9445152B
:100CE00002C00E9438158CE20E940C15D93311F411
:100CF0000E94970E84E10E943815802F0E943815BB
:100D0000DF91CF911F910F910C949C0ECF93C82F20
:100D100064E088E00E944D1883ED92E00E944F1538
:100D20008091CE0581110AC089E393E00E944F159E
:100D30008C2F0E94940E81EE92E005C08C2F0E94B1
:100D4000940E88EE92E00E944F15CF910C949C0E69
:100D5000CF92DF92EF920F93CF93DF93EC016B0171
:100D600060E080E00E944D180E949C0E80EF92E0AF
:100D70000E944F1585E0E82E02E028E042E060E0A6
:100D80008EE70E94D40E61E088E00E944D1886E054
:100D900093E00E944F1562E088E00E944D188BE1BD
:100DA00093E00E944F150E942006E2E7F1E04381A4
:100DB0006481858122E00E9439068091D6050E94D7
:100DC000860665E088E00E944D1888E293E00E9464
:100DD0004F158091B4000E943815B601CE010E94D3
:100DE000D50520E142E060E38EE70E94D40E28E2C0
:100DF00048E068E080E00E94D40EDF91CF910F912F
:100E0000EF90DF90CF900895CF93C82F21E047E077
:100E1000682F80E00E94CC106FEF6C0F23E041E060
:100E200085E00E9499146EEF6C0F25E041E084E0AC
:100E3000CF910C9499148091C804882349F02FE72E
:100E400089EA93E0215080409040E1F700C0000023
:100E50000895CF938091C9048093CC041092C90463
:100E600080FD2DC081FF03C01092CD0406C081110A
:100E700004C08091C804882321F08AE08093CB04C9
:100E800004C08091CB048823D1F0909172018091AD
:100E9000CF04981739F081E08093CE0480917201DD
:100EA0008093CF04C091D004C1110BC08091CE04B7
:100EB000813041F41092CE040E94200603C0C1E0AC
:100EC00001C0C0E08C2FCF910895BF92CF92DF92E6
:100ED000EF92FF920F931F93CF93DF9300D000D038
:100EE000CDB7DEB70E94ED14809172018093CF04DC
:100EF0001092CE041092D0041FEF6AE0D62E143068
:100F000031F06BE373E081E593E00E94A806D09294
:100F1000CB041092C9041092CD04123009F493C28C
:100F200090F4112309F448C1113009F048C310911D
:100F3000750100917601E09077018BE10E94040732
:100F400042E0F42EE3C1133009F4CCC21F3F09F094
:100F500036C38BE00E9404070E942907813009F400
:100F60001EC38091CC0481FFF7CF81E08093D00431
:100F70001FEFD092CB041092CD04143031F01F3FFC
:100F800039F40E94ED1410E004C01092D00407C39D
:100F90001F5FF090A90560E080E00E944D180E945C
:100FA0009C0E87E693E00E944F1501E0602F88E0D9
:100FB0000E944D1888E793E00E944F15802F0E94F1
:100FC00038158FE793E00E944F15AE014F5F5F4FDA
:100FD000BE016E5F7F4F8FEF800F0E94AD198A8137
:100FE0000E9438158AE30E940C1589810E943815E9
:100FF0000F5F0530D9F665E088E00E944D1887E85C
:1010000093E00E944F158091A9058F5F0E943815CB
:1010100055E0E52E02E028E247E068E080E00E942B
:10102000D40E6BE373E0143019F081E593E002C055
:101030008AE993E00E94D505812F880F880F880FD9
:10104000855F0E940407143049F0AE014D5F5F4F89
:10105000BE016C5F7F4F812F0E94AD1900E0BB2461
:10106000B394B10E0E942907813009F4A0C0809189
:10107000CC0481FF4DC0011119C0143079F465E032
:1010800084E70E944D1881E08F0D0E94451560EBAA
:1010900073E0CB010E94F40503E33AC064EB73E014
:1010A00089EB93E00E94F40504E332C0043339F481
:1010B0006DEB73E0CB010E94F40505E329C0033317
:1010C000A1F465E084E70E944D1881E08F0D0E9435
:1010D00038156F2D87E090E00E94FE2EF092A90552
:1010E0006BE373E08AE993E009C04B816C81812F47
:1010F0000E94D2196BE373E081E593E00E94D5056D
:1011000045ED55E06FEC75E08F2D0E94AD1900E0C4
:101110008091CC0482FD04C08091C804882309F129
:10112000033371F4F39483E08F1508F4F12C65E038
:1011300084E70E944D1881E08F0D0E94451511C073
:10114000043341F48C818F5F8C838C81883148F02B
:101150001C8207C0053329F48B816CE30E94B5051E
:101160008B838091CC04811104C08091C8048823B2
:10117000D9F01430C9F0EB80CC806B2D82E60E9450
:101180004D188C2D043319F40E94451502C00E949D
:1011900038158AE30E940C158E2D053319F40E9430
:1011A000451502C00E9438150E941B075BCF809135
:1011B000CB048111DECEF3C183E10E940407E12C50
:1011C000F12C00E011E0BB24B3940E942907813088
:1011D00021F41092D00411E0E5C18091CC0481FF8C
:1011E00035C0B092D004113071F400917401F090C8
:1011F0007301E090720164EB73E089EB93E00E946D
:10120000F40514E323C0143339F46DEB73E0CB0120
:101210000E94F40515E31AC0153339F461EC73E04C
:10122000CB010E94F40516E311C06BE373E081E586
:1012300093E00E94D50500937401F0927301E0924F
:1012400072010E94751B1092D00411E0C090CC0472
:10125000C2FC04C08091C8048823C1F0143331F467
:101260000F5F083108F4A3C100E0A1C1153331F4C8
:101270006CE38F2D0E94B505F82E18C01633B1F41B
:101280006CE38E2D0E94B505E82E10C0C11004C07D
:101290008091C804882349F162E080E50E944D18DE
:1012A000143351F4802F0E94451509C0CC2081F3DE
:1012B00062E080E50E944D18802F0E9438158AE375
:1012C0000E940C158F2D153319F40E94451502C08C
:1012D0000E9438158AE30E940C158E2D163319F4DE
:1012E0000E94451502C00E9438150E941B076DCF51
:1012F0008091CC0481FD0FC08091CC0482FD44C05C
:101300008091C804811140C00E941B070E942907D8
:10131000813071F746C182E0F81208C065EC73E0D5
:10132000CB010E94F40537E3F32E27C087E3F812C0
:1013300008C069EC73E0CB010E94F40528E3F22EAB
:101340001CC088E3F81209C06DEC73E082ED93E0F5
:101350000E94F40599E3F92E10C06BE373E081E578
:1013600093E00E94D505E0927701009376011093F7
:1013700075010E94751B82E0F82E2F2D412F602FE2
:101380008E2D0E943906B8CF89E3F81211C064E6A9
:101390008E2D0E94B505E82E90E00E94C2048111B6
:1013A0004BC0023009F048C01D3108F445C03FC0B1
:1013B00087E3F8121EC081E0800F8D30B0F58230D7
:1013C00069F41E3108F01DE18E2D90E00E94C204E8
:1013D00002E0811131C01D3151F12EC0843029F05D
:1013E000863019F00D7F083021F51F3110F11EE114
:1013F00020C088E3F81220C01F5F1032E0F40230F2
:1014000059F41E31C0F48E2D90E00E94C204811167
:1014100013C01D3181F010C0802F8D7F843011F0FA
:10142000893051F41F3139F007C001E005C01CE1DB
:1014300003C0082F01C011E02F2D412F602F8E2DEA
:101440000E94390661CF83E20E94040713E00E94E4
:101450002907813041F46091CE0586E090E00E943A
:10146000FE2E13E09FC08091CC0481FF19C0133081
:1014700061F48091CE050E94860666ED73E08CEEE5
:1014800093E00E94D5051AE30BC08091D6050E9417
:1014900086066BE373E081E593E00E94D50513E0D7
:1014A0008091CC0482FD04C08091C8048823B9F0E7
:1014B0001A33A9F48091CE059091D6059093CE056C
:1014C0008093D60566ED73E08CEE93E00E94A8064B
:1014D00083E20E9404078091CE050E9486060E9446
:1014E0001B07B5CF60E070E08AE993E00E94D50564
:1014F0008BE20E94040714E00E942907813041F426
:101500006091B40081E090E00E94FE2E14E04AC099
:101510008091CC0481FF15C065E084E70E944D18DE
:10152000143041F466ED73E08CEE93E00E94D50533
:101530001BE307C06BE373E08AE993E00E94D505E3
:1015400014E08091CC0482FD04C08091C8048823FB
:1015500071F01B3361F48091B400803118F0109267
:10156000B40005C08091B4008F5F8093B400809177
:10157000CC04811104C08091C804882369F065E01F
:1015800084E70E944D188091B4001B3319F40E9427
:10159000451502C00E9438150E941B07ADCF10E010
:1015A00001C012E08091CB048111A9CC08C0CC20ED
:1015B00009F46ECE62E080E50E944D1873CE0F9064
:1015C0000F900F900F90DF91CF911F910F91FF908F
:1015D000EF90DF90CF90BF900895E82FF0E0EA52AF
:1015E000FB4F677081E090E001C0880F6A95EAF7D1
:1015F0009081892B808308959091D4048091D304A5
:10160000981791F08091D504E091D104F091D20423
:10161000811106C0EE52FF4FE4918E2F8F7105C0ED
:10162000E956FE4F849101C080E0909156059111DA
:1016300001C0809508959091D504E82FF0E09111B4
:101640001DC09FE9980F9A3120F08B3720F480E07D
:1016500003C080E201C08AE1B097E81BF109E457BA
:10166000FF4FE4918E2F90E0FC01EE52FF4FE4918A
:10167000E295E695E770E093D304089525E0209382
:10168000D304B0972E9FC0012F9F900D1124089571
:10169000CF92DF92EF92FF920F931F93CF93DF933E
:1016A000D82FC62ED42E06ED14E0C0E090E09C01A9
:1016B000265D34407901CD15B9F0CC2339F0C7014E
:1016C000800F911F8F739927892B39F46C2D8C2FE4
:1016D0008D0F0E944D180E94D3170E94D317F80156
:1016E00081938F01CF5FE7CFDF91CF911F910F9152
:1016F000FF90EF90DF90CF9008952F923F924F92FE
:101700005F926F927F928F929F92AF92BF92CF9291
:10171000DF92EF92FF920F931F93CF93DF93CDB79A
:10172000DEB762970FB6F894DEBF0FBECDBFF82EBE
:101730002C87B62EB694B694B6946770CA01880FFB
:10174000991F9401280F391F38872F83280F391FBD
:101750003B872A8710E08E2D90E09E878D87F401CD
:10176000E40FF51FF88BEF87802F90E09C012A5241
:101770003B4F3A8B298B1E1508F0C3C0812E912C4C
:10178000462F50E05E834D832D853E85281939090B
:1017900088E090E0841B950B281739071CF4DE2C99
:1017A000D11A03C028E0D22ED61A88E090E08D1915
:1017B000910922242A94312C02C0359427948A95C9
:1017C000E2F7C1010D8002C0880F991F0A94E2F769
:1017D0009C838B839B819987E7E0ED1528F0402F50
:1017E0006B2D8F2D0E94480B6B2D8F2D0E944D1855
:1017F00086ED282E84E0382E6A847B844F805884BE
:101800002F8538893A8329833B8130953B83298909
:101810003A892215330509F470C041E0C41213C09F
:10182000E981FA81A11002C0849101C0808190E019
:10183000082C02C0959587950A94E2F7092E000CB2
:10184000AA0BBB0B28C0F2E0CF1211C0F201A1100D
:1018500003C08591949102C080819181082C02C0BF
:10186000969587950A94E2F7A0E0B0E014C0F301E2
:10187000A11005C085919591A591B49104C0808176
:101880009181A281B381082C04C0B695A795979544
:1018900087950A94D2F70C8404C0B695A7959795BE
:1018A00087950A94D2F70D8004C0880F991FAA1F4C
:1018B000BB1F0A94D2F7282F30915605311101C071
:1018C0002095F8E0DF1639F0F1018081FB818F234C
:1018D00039852323282B822F0E94F1174FEF241ADA
:1018E000340A54E0650E711C89819A8101969A83AD
:1018F0008983F20132962F018ACFB3941D0D60E0E7
:101900003ACF62960FB6F894DEBF0FBECDBFDF911F
:10191000CF911F910F91FF90EF90DF90CF90BF90EC
:10192000AF909F908F907F906F905F904F903F907F
:101930002F9008958F929F92AF92CF92EF920F9334
:101940001F934801A12CCC24C394E22E042F20E045
:1019500040E050E00E947D0B1F910F91EF90CF90DF
:10196000AF909F908F9008958F929F92AF92CF9259
:10197000EF920F931F934801AA24A394CC24C394FD
:10198000E22E042F20E040E050E00E947D0B1F91EA
:101990000F91EF90CF90AF909F908F9008958F927E
:1019A0009F92AF92CF92EF920F931F934801A12C79
:1019B00092E0C92EE22E042F20E040E050E00E9489
:1019C0007D0B1F910F91EF90CF90AF909F908F90D4
:1019D00008958F929F92AF92CF92EF920F931F93A1
:1019E0004801AA24A39492E0C92EE22E042F20E0FD
:1019F00040E050E00E947D0B1F910F91EF90CF903F
:101A0000AF909F908F9008958F929F92AF92CF92B8
:101A1000EF920F931F934801A12C93E0C92EE22E61
:101A2000042F20E040E050E00E947D0B1F910F91B9
:101A3000EF90CF90AF909F908F9008958F929F924C
:101A4000AF92CF92EF920F931F934801AA24A394D1
:101A500093E0C92EE22E042F20E040E050E00E94E7
:101A60007D0B1F910F91EF90CF90AF909F908F9033
:101A700008952F923F924F925F926F927F928F9232
:101A80009F92AF92BF92CF92DF92EF92FF920F930D
:101A90001F93CF93DF93D82FF62EE42EA22E842F00
:101AA000880F93E0B92EB81A862F90E050E09C0181
:101AB000240F351F63E0359527956A95E1F7722E5F
:101AC0009924939422E0A212912C20E0E22FF0E0DE
:101AD000EA5EFA4F10822F5FE216C0F7841B950B67
:101AE00023E0959587952A95E1F7C82F30E4832E5A
:101AF000682C6D1A5D2E550C44244A944D0E7C16AC
:101B000008F4FCC00E2D3B2CC12CDD24DA94212CD2
:101B100010E001170CF473C0AA2051F033E0A312B7
:101B200003C0222029F050C0812F817089114CC040
:101B30006F2D600F862F869586958695C81306C0F3
:101B400080E4810F0E94ED0A81E001C080E06F2DEA
:101B5000601B962F969596959695C91305C080E4BF
:101B6000810F0E94ED0A02C0813041F4812F8D0F58
:101B70008D1508F4D82EC81608F4C82E6F2D610FE5
:101B8000862F869586958695C81306C080E4800FBB
:101B90000E94ED0A81E001C080E06F2D611B962F4D
:101BA000969596959695C91305C080E4800F0E947E
:101BB000ED0A02C0813041F4802F8D0F8D1508F49D
:101BC000D82EC81608F4C82E37FE08C096E0930D2C
:101BD000812F880F880F392E380E09C0812F801B66
:101BE000880F880F9AE0930D382E390E015082E04D
:101BF000281611F0239401C0212C1F5F8ACF2FEFEC
:101C0000D21202C0CF5F7BCF41E04C0D4D196C2F3B
:101C10008D2D0E94480B6C2F8D2D0E944D18262C67
:101C20002D0C312C0C2D10E00D191109832D820D76
:101C3000A32DB0E00A171B07B4F020915605AA5255
:101C4000BB4F90E0FC01EA52FB4F213021F49C9104
:101C50008081892B04C0808180959C9189230E947A
:101C6000F1173394E3CF3D2F3C19C32E1D2F130FD3
:101C7000052D0D19D01302C0442D01C0402F41176E
:101C800058F081E0811B480F6C2F812F0E94480B78
:101C90006C2F812F0E944D18282C2C18312C802F4E
:101CA00090E09C01211B31098901222D2319832DEC
:101CB00090E0081719070CF4A5CFC22ED12C2034C0
:101CC000B9F020915605FC01EA52FB4F213039F45E
:101CD0009081F601EA52FB4F8081892B07C0D60123
:101CE000AA52BB4F8C918095908189230E94F11755
:101CF000F601EA52FB4F10823394D7CFDF91CF9198
:101D00001F910F91FF90EF90DF90CF90BF90AF9019
:101D10009F908F907F906F905F904F903F902F900B
:101D200008958091560508958093560508958091F1
:101D3000CE058093560508958091D605809356056B
:101D400008950F931F93CF93DF93082F862F8770EB
:101D5000C1E0D0E001C0CC0F8A95EAF7162F1695A6
:101D600016951695612F802F0E944D180E94D3174B
:101D70000E94D31790915605913011F4C82B02C0E0
:101D8000C095C823C81759F0612F802F0E944D18A5
:101D90008C2FDF91CF911F910F910C94F117DF9150
:101DA000CF911F910F9108952F923F924F925F9282
:101DB0006F927F928F929F92AF92BF92CF92DF925B
:101DC000EF92FF920F931F93CF93DF93CDB7DEB7C0
:101DD00027970FB6F894DEBF0FBECDBF782E642EC6
:101DE000D22E1E2D862E869486948694262F2770BA
:101DF000C22E011117C0123039F4822F63E00E9405
:101E0000732E91959E834AC0133031F4822F6E2D2C
:101E10000E94732E9E8323C1113009F01FC161708F
:101E20006E831DC1013031F5123069F4822F90E0CC
:101E30008D0D911D91958195910963E070E00E944F
:101E4000A12E8F5F0BC0133061F4822F90E08D0DB7
:101E5000911D019763E070E00E94A12E8E8300E047
:101E60001DC0113009F0FAC081E08D0D820F817024
:101E70008E83F5C0082F123029F4862F90E0821B44
:101E8000910907C0133009F0ECC0822F90E0861B47
:101E9000910963E070E00E94A12E8E834E8147FF7E
:101EA00002C04D5F4E83F12C1F82E12C912C4D2CF2
:101EB000512C5EEF510F5B83802F002E000C990B8D
:101EC0009D838C839D1408F0CEC0A92CB12CC11029
:101ED00007C0C2018A199B09089714F0143041F415
:101EE000462D682D872D0E94480B91E0998301C0F3
:101EF0001982682D872D0E944D182C2D30E0A201EB
:101F00004A195B0988E090E0821B930B4817590738
:101F10001CF4CD2CC91803C0E8E0EC19CE2EFB81CF
:101F2000F23068F48C819D814E81840F911D47FDB4
:101F30009A9563E070E00E94A12EF82E08C011303F
:101F400031F48E81802780FD1CC05AEA5F8388E0CF
:101F500090E08C199109EFEFF0E002C0F595E7955C
:101F60008A95E2F7CF0101C0880F2A95EAF7282E5B
:101F7000F82FF095FA8386EDA82E84E0B82E312C48
:101F80002DC045E54F83E3CF5981513011F4F50160
:101F9000E08080915605112309F441C0153009F401
:101FA00041C0113011F58130E1F03320D1F08823A8
:101FB00009F43AC0F8E0CF1609F43DC02A81E222C4
:101FC0008F818221E82A8E2D0E94F11742E0F416BB
:101FD000A1F1F39433945FEFA51AB50A3610D4CF6C
:101FE0002EC0FF81F095FF83E2CF123049F4EF2D30
:101FF0000F2C000CFF0BE757FF4F24912F83D7CFF7
:10200000133049F4EF2D0F2C000CFF0BEA57FF4F54
:1020100044914F83CCCF5E2D50955F83C8CF9FEF07
:102020009F83C5CF1F82C3CF143009F4C3CFEF8184
:10203000E095EF83BFCFEF80C6CFF12CCBCF839459
:10204000123021F48E818E5F8E8305C0133019F417
:102050009E819F5F9E839C0CC12C34CF1E8200E02A
:1020600022CF1E8220CF27960FB6F894DEBF0FBE78
:10207000CDBFDF91CF911F910F91FF90EF90DF9037
:10208000CF90BF90AF909F908F907F906F905F9018
:102090004F903F902F900895AF92BF92CF92DF92D2
:1020A000EF92FF920F931F93CF93DF93D82EC62EFC
:1020B000B22ED42F842F880F13E0181BF12CAA24E2
:1020C000A394C0E0DC170CF45CC0CD1711F117FD30
:1020D00046C081E0A81201C0FF0C2D2F220F2F5FF8
:1020E000EB2C02E041E04F0D6C2D6D1B8D2D8C1BF8
:1020F0000E94D40ECC23D1F12C2F220F2F5F41E070
:102100006C2D6C1B8D2F8D0D0E94D40EA11016C04E
:1021100006C0CC2311F117FD22C0A11010C02D2F35
:10212000220F2F5FEB2C02E041E04F0D6C2D6D1B59
:102130008C2F8D0D8F190E94D40ECD13F12C2C2FC6
:10214000220F2F5F41E04F0DEB2C02E06C2D6C1B3A
:102150008D2D8D1B0E94D40E09C017FF07C01A5F7A
:102160008C2F880F880F180FF39409C08C2F8D1BAC
:10217000880F880F165F180FD150F12CA12CCF5F5C
:10218000A1CFDF91CF911F910F91FF90EF90DF9042
:10219000CF90BF90AF900895EF920F93E12C02E0A3
:1021A0000E94D40E0F91EF9008951F93CF93DF9369
:1021B0008093D504EB0110E08991882339F00E94C7
:1021C0001B0B8091D3048F5F180FF6CF812FDF9107
:1021D000CF911F9108952F923F924F925F926F92ED
:1021E0007F928F929F92AF92BF92CF92DF92EF92A7
:1021F000FF920F931F93CF93DF9300D000D0CDB702
:10220000DEB78B83E62EF42EF81A3F2D822F861B25
:102210008C831F140CF4C7C0F194982F97FD9195EF
:102220009C8391E0311101C090E0992E9194181691
:102230004CF091E0811101C090E0C92EC19404C01E
:1022400099249394CC24C3947C8076946F2C6694C8
:102250008E2C869486948694022F06950695069574
:10226000081907FD01950F5F8C81F81618F0FA82A6
:10227000198204C09C819A8381E08983842F9B8189
:10228000491708F4892F9B81941708F4492F841764
:1022900038F0E42FF0E0EA52FB4F10824F5FF7CFA7
:1022A000312C212C10E0832D90E0801791070CF049
:1022B00084C06E2D8B810E94ED0A4B80D42C8A81C4
:1022C000281650F52394498141110AC08C81680E6B
:1022D0006F1410F06F18EC0C9B81990D9B8309C053
:1022E0007F0C4C81741620F0741A8B81890D8B83BE
:1022F000EC0C8E2D86958695869588120DC09B8157
:102300009D1508F4D92E4B81441608F4442E6E2DE9
:102310008B810E94ED0AD3CFBD2C55245A944B14C7
:1023200038F1BD1419F08B2D8F7331F4682D8B2D7E
:102330000E944D180E94D3170E94D3179091560502
:102340002B2D30E0F901EA52FB4F913019F49081C6
:10235000982B03C09081909598234FEF541202C0A0
:1023600098135B2CF901EA52FB4F9083B394D7CFBB
:1023700057FC14C0682D852D0E944D180FC0AD2C40
:10238000B12CD51430F0F501EA52FB4F80810E9448
:10239000F117F501EA52FB4F1082D3944D1478F7F0
:1023A0008C0C339480CF9C8119160CF449CF9C81FE
:1023B00091959C83992493943CCF0F900F900F900C
:1023C0000F90DF91CF911F910F91FF90EF90DF90D1
:1023D000CF90BF90AF909F908F907F906F905F90C5
:1023E0004F903F902F9008952F923F924F925F927F
:1023F0006F927F928F929F92AF92BF92CF92DF9215
:10240000EF92FF920F931F93CF93DF93CDB7DEB779
:102410002E970FB6F894DEBF0FBECDBF8D834C83D1
:102420002A873B87962E9694969496946770698334
:10243000B901842F0E94D510809F802D11248B8399
:102440002C81222311F087E001C085E08E9DD02CE5
:102450001124B12C812CF12CA12C10E0312CC12C99
:102460008D2D90E099878887CD1408F0D3C06C2C0F
:10247000712CF981EF2FF0E0FF83EE832981211188
:1024800006C088859985861997090897C4F44B81F9
:10249000692D8D810E94480B888599858619970939
:1024A000EE81FF818E0F9F1F09972CF0F8E02981A4
:1024B000F21BFE8706C03D2D3C193E8702C088E016
:1024C0008E87692D8D810E944D1888E090E0EE8501
:1024D0008E1B91092FEF30E002C0359527958A9524
:1024E000E2F7098001C0220F0A94EAF72C8331E059
:1024F000098001C0330F0A94EAF73C878A858983F3
:102500009B859A836F2C7A2C412C512C1D86242C70
:102510003B81431608F077C09091D4048091D30496
:10252000891710F0211028C01092D404E981FA8193
:102530008191FA83E9830E941B0B9093D2048093CC
:10254000D104FD85F01711F0211019C00E94FC0A7A
:10255000382E8091D4048F5F8093D4048091D1046D
:102560009091D20401969093D2048093D1042E8549
:10257000283079F01D8606C09D85901739F33E8579
:10258000383021F0F201EA52FB4F10818D85811124
:102590002AC0832D90E0E1E00F2C02C0959587952D
:1025A0000A94E2F7EE120BC00E8001C0880F0A9465
:1025B000EAF7B82E6E846F0C8C807A2C13C02C85B1
:1025C0006F2C7A2C9E85B12C992359F080FDB22A6C
:1025D0007394E71003C086956394712C220F915079
:1025E000F3CF8C801D86882D80951823882D8B2114
:1025F000182B812F0E94F117FD85FF5FFD872FEFBC
:10260000421A520A84CF93948E85C80E1982F62CF2
:10261000A72C2ACF8B812E960FB6F894DEBF0FBE63
:10262000CDBFDF91CF911F910F91FF90EF90DF9081
:10263000CF90BF90AF909F908F907F906F905F9062
:102640004F903F902F900895EF920F93EE24E394D4
:1026500001E00E94F4110F91EF9008952F923F92A4
:102660004F925F926F927F928F929F92AF92BF92A2
:10267000CF92DF92EF92FF920F931F93CF93DF934E
:10268000CDB7DEB762970FB6F894DEBF0FBECDBFF1
:10269000D82E4A8329832801662E66946694669410
:1026A0006770A62EB801842F0E94D5108C9D702CC7
:1026B00011242A81222311F087E001C085E08E9D3C
:1026C000302D11243E834981423041F48150898765
:1026D000D394D31A1A8651E05D8305C087E08A87B8
:1026E00019869FEF9D831C82F12C00E01A8AE72D4A
:1026F000F0E0F887EF834A89471508F000C1F981B7
:10270000F23019F4A1100EC006C02981213019F44D
:1027100037E0A31207C08F8198854A89841B9109ED
:1027200008975CF54E81662D8D2D0E94480B5981CE
:10273000523061F48F819885EA898E1B91098A0D48
:10274000911D0997B4F018E01A1918C0F981F130F9
:1027500081F48F8198852A89821B910928E030E0D5
:102760002A193109820F931F09971CF011E01A0DE5
:1027700005C0172D3A89131B01C018E0662D8D2D59
:102780000E944D18412F50E088E090E0841B950B8B
:10279000EFEFF0E002C0F595E7958A95E2F7CF01FB
:1027A0009927F981F23041F4282F0A2C01C0220F19
:1027B0000A94EAF7298B0CC02A2D30E02F5F3F4F97
:1027C000241B350B482F01C0440F2A95EAF7498B8B
:1027D00081E001C0880FAA94EAF78B87120159851E
:1027E0005B83BF2CA12C9C81892F90E09F878E87D3
:1027F000E989E095E88BEE81AE1608F074C0FC81A3
:10280000F093D404F20180810E941B0B2E853F853A
:10281000820F931F9093D2048093D1040E94FC0AEC
:1028200041E050E00B8002C0440F551F0A94E2F7CC
:102830005D874C8712018B84BF2C1A83912C3A81BF
:102840003323B9F1282F30E0EC85FD852E233F237B
:10285000232B09F09828F981F23011F4880C01C07B
:102860008694B394CB1021C08091D4049091D3046A
:10287000891749F08F5F8093D4048091D10490919F
:10288000D20401960BC01092D404F10181818823F7
:1028900049F0FFEF2F1A3F0A0E941B0B9093D204BE
:1028A0008093D1040E94FC0AB12C2A8121502A83F2
:1028B000C6CF8A2C8E0C49899422A81479F018303E
:1028C00029F0EA2DF0E0EA52FB4F008158890523F8
:1028D0000929802F0E94F117A394EFCF8B819D814E
:1028E000891B8B8388CFFD816F0E2091D4042C83AC
:1028F0003A89310F3A8B2101AA84FB2CFCCE872D1B
:1029000062960FB6F894DEBF0FBECDBFDF91CF91B8
:102910001F910F91FF90EF90DF90CF90BF90AF90FD
:102920009F908F907F906F905F904F903F902F90EF
:102930000895CF92DF92EF92FF920F931F93CF9360
:10294000DF93442389F1222379F1122FC42FF62E2D
:10295000D82F4330B8F08EEFC82EC40EDD24D394A8
:10296000DD0EE12C02E021E04C2D8D2D0E94D40ED5
:10297000123040F06FEF6F0D610F21E04C2D8D2D67
:102980000E94D40EE12C02E0212F41E06F2D8D2F0B
:102990000E94D40EC23040F08FEF8D0F212F41E006
:1029A0006F2D8C0F0E94D40EDF91CF911F910F914C
:1029B000FF90EF90DF90CF90089560EC80E00E9450
:1029C0006F176FE380E00E946F1760EC81E00E9458
:1029D0006F176FE381E00C946F171F93CF93DF9312
:1029E0009091CE0581E0911101C080E0D82FD19562
:1029F000C0E06C2F80E00E944D1810E08D2F0E94E7
:102A0000F1171F5F1038D1F7CF5FC83091F7DF9112
:102A1000CF911F910C94DD140F931F93CF93DF93ED
:102A200090E0809725E0289F8001299F100D1124B8
:102A3000C0E0D0E0F801EC0FFD1FE956FE4F849195
:102A400090915605911101C080950E94F117219631
:102A5000C530D10579F780915605811102C08FEFFD
:102A600001C080E0DF91CF911F910F910C94F1177D
:102A7000CF936AE00E94732EC92F805D0E940C15CF
:102A800080E38C0FCF910C940C15CF93C82F0E942C
:102A9000970E8C2F0E943815CF910C949C0ECF93DB
:102AA000DF93EC018991882319F00E940C15FACF6D
:102AB000DF91CF910895ECEBF0E080818F70806D15
:102AC000808308958091BC0087FFFCCF0895809398
:102AD000BB00ECEBF0E080818F708068808308950C
:102AE000ECEBF0E080818F70806C80830895ECEBDC
:102AF000F0E080818F70806880830895459A449AC1
:102B000010925A05109259051092580510925705C7
:102B100080E28093B800ECEBF0E0808184608083F9
:102B200010929E0580818160808380818064808393
:102B300078940895FF920F931F93CF93DF93C82F3C
:102B4000162FF42E052F8091BC008E7F8093BC0041
:102B50008091BC008F70806A8093BC000E946215D7
:102B60008C2F8E7F0E9467150E9462158091B9009C
:102B7000883169F4CF2DD02F112339F089910E942B
:102B800067150E9462151150F7CFC0E001C0C1E087
:102B90000E945B158091BC0084FFFCCF8091BC003B
:102BA00081608093BC008C2FDF91CF911F910F919A
:102BB000FF900895FF920F931F93CF93DF93C82F39
:102BC000162FF42E052F8091BC008E7F8093BC00C1
:102BD0008091BC008F70806A8093BC000E94621557
:102BE0008C2F81600E9467150E9462158091B90048
:102BF0008034B1F4CF2DD02F123048F00E947015E0
:102C00000E9462158091BB0089931150F5CF0E94FC
:102C100077150E9462158091BB008883C0E001C0D7
:102C2000C1E00E945B158091BC0081608093BC0074
:102C30008C2FDF91CF911F910F91FF9008951F92DC
:102C40000F920FB60F9211242F933F934F935F93E0
:102C50006F937F938F939F93AF93BF93EF93FF9364
:102C60008091B900887F803609F48DC078F588326C
:102C700009F45CC090F4803109F456C038F488231C
:102C800009F4E2C0883009F44FC0E6C0883109F485
:102C90004DC0803209F467C0DFC0803409F48AC0B7
:102CA00058F4803309F45FC0883309F0D5C08091AF
:102CB000BC008F708068CCC0803509F457C088355F
:102CC00009F445C0883409F0C7C04DC0883909F4FB
:102CD00071C0A8F4883709F456C038F4883609F46E
:102CE00052C0803709F44FC0B7C0883809F462C0B9
:102CF000803909F44EC0803809F0AEC04AC0803B2C
:102D000009F46EC038F4803A09F457C0883A09F4DF
:102D100067C0A2C0803C09F492C0883C09F48FC00F
:102D2000883B09F46EC098C080E00EC0E0917D053C
:102D300080917C05E817B8F481E08E0F80937D05C3
:102D4000F0E0E258FA4F80810E94671585C0E0915B
:102D50005B0581E08E0F80935B058091BB00F0E006
:102D6000E45AFA4F80830E945B1574C08091BB00C7
:102D7000E0915B0591E09E0F90935B05F0E0E45AD3
:102D8000FA4F808317C085E080939E0510925B0503
:102D90004AC0E0915B0581E08E0F80935B059091C6
:102DA000BB00F0E0E45AFA4F9083803218F40E949E
:102DB000701552C00E9477154FC08091BC008F7073
:102DC000806C8093BC00E0915905F0915A053097D2
:102DD00009F440C06CE575E080915B0509953AC047
:102DE00084E080939E05E0915705F0915805309757
:102DF00031F06EE775E080E2099580937C051092D2
:102E00007D05E0917D0581E08E0F80937D05F0E0EA
:102E1000E258FA4F80818093BB0090917D058091AC
:102E20007C05981728F48091BC008F70806C04C0DA
:102E30008091BC008F7080688093BC000DC0809131
:102E4000BC008F70806C04C08091BC008F70806D5E
:102E50008093BC0010929E05FF91EF91BF91AF91BE
:102E60009F918F917F916F915F914F913F912F91A2
:102E70000F900FBE0F901F901895F8948BB1806F34
:102E80008BB985B18F6085B92F988AB18F708AB957
:102E900084B1807F84B92D9A2C9A0000000089B1FA
:102EA00093B12C9887FF08C00000000000000000CC
:102EB0002C9A00000000F1CF2D988AB1806F8AB95A
:102EC00084B18F6084B9789408955A98409A08958F
:102ED000811102C00C94651740985A9A0895CF93B7
:102EE000DF93D82FC62FF89480919F058D1719F086
:102EF0008D2F0E9468170E943D172F982D982C9AAD
:102F00008AB1806F8AB984B18F6084B98BB18F70B8
:102F10008BB98BB19C2F907F892B8BB985B1807F2A
:102F200085B985B1CF70C82BC5B90000000000007D
:102F3000000000000000000000002C9880919F0518
:102F4000D8130E9468177894DF91CF910895CF939A
:102F5000DF93C091A005DC2FD295D695D695D3707E
:102F600080919F05D81729F08D2F0E946817D09364
:102F70009F056C2F6F73606480919F05DF91CF91E7
:102F80000C946F17682F8093A10580919F05E82FFF
:102F9000F0E0E156FA4F9381691721F06383686B83
:102FA0000C946F170895F8940E943D172F9A8AB1D8
:102FB0008F708AB984B1807F84B92D9A2C9A0000D1
:102FC000000000000000000000000000000029B127
:102FD00093B12C982D987894207F892F8F70822B15
:102FE0000895CF93C82FF8940E943D172F9A2D98DB
:102FF0002C9A8AB1806F8AB984B18F6084B98BB101
:103000008F708BB98BB19C2F907F892B8BB985B139
:10301000807F85B985B1CF70C82BC5B9000000008D
:103020000000000000000000000000002C987894D0
:103030008091A0058F3720F080E48093A0050CC01C
:103040008F5F8093A0058F7339F40E94A71780913A
:10305000A105CF910C94C217CF9108952F982D9868
:103060002C9840985A98279A259A249A389A529AD6
:103070008BB18F708BB985B1807F85B98AB1806F34
:103080008AB984B18F6084B90E946517EFE9F5E0D1
:1030900010828FEF838384830895CF93C62F80930C
:1030A000A0050E94A7178C2FCF910C94C21780E225
:1030B000809371018091AD058093AE0581E080938E
:1030C000700108951F920F920FB60F9211242F9343
:1030D0003F934F935F936F937F938F939F93AF93A0
:1030E000BF93EF93FF938091B305882329F08091DC
:1030F000B30581508093B3058091C604882329F0DD
:103100008091C60481508093C6048091C7048823AF
:1031100059F08091C70481508093C7048091C704FF
:10312000811102C00E94EF048091AA05813009F04C
:1031300092C08091A5059091A605892B09F08BC0BE
:103140008091B1059091B205892B09F07AC09091D8
:10315000AE058091AD053091700198131CC03130DF
:10316000D1F480917101803219F41092710103C081
:103170008E5F809371018091710190E0FC01E957AD
:10318000FC4F24912093AE05FC01E857FC4FE491DD
:10319000E20FE093AD058091AE05313001F510925C
:1031A000700190E0FC01E15CFB4FE49129E0E29FBB
:1031B000F0011124F093B005E093AF05FC01E75551
:1031C000FC4F849123E6829FC001112463E070E0EC
:1031D0000E948D2E7093B2056093B10510C091E0EE
:1031E000909370011092B0051092AF0521E330E08A
:1031F0003093B2052093B1058F5F8093AE05809127
:10320000AF059091B005892B21F41092810043986D
:1032100018C01092800089E08093810083E0809341
:103220006F002091AF053091B00540E050E060E0C4
:1032300079E08DE390E00E94B52E309389002093D1
:1032400088008091B1059091B20501979093B205E5
:103250008093B1050FC08091A7059091A8050196B4
:1032600049F41092810043981092A8051092A70586
:103270000E945718FF91EF91BF91AF919F918F914D
:103280007F916F915F914F913F912F910F900FBE62
:103290000F901F9018951F920F920FB60F92112446
:1032A0008F939F9398B188E0892788B99F918F91D8
:1032B0000F900FBE0F901F9018951F920F920FB690
:1032C0000F9211242F933F934F935F936F937F93AC
:1032D0008F939F93AF93BF93EF93FF930E944B19EC
:1032E000FF91EF91BF91AF919F918F917F916F91DE
:1032F0005F914F913F912F910F900FBE0F901F90B4
:1033000018951E9B18C08091A405813029F5109254
:10331000A4051092A6051092A5051092A80510927A
:10332000A7058091AA058130B9F41092AA051092E0
:10333000810043980FC08091A40581110DC081E0E8
:103340008093A4051092A6051092A5051092A805D9
:103350001092A7050C9457180895EF92FF920F93BF
:103360001F93CF93DF937B018A01C82FD0E0CC0F4E
:10337000DD1FCE0108960E94F62E68E10E94732E92
:10338000F7019083CE0109960E94F62E6CE30E940D
:10339000732EF8019083DF91CF911F910F91FF90D1
:1033A000EF9008950F931F93CF93DF9300D0CDB785
:1033B000DEB769834A83082F10E0000F111F69816F
:1033C000C80108960E94FE2E6A81C80109960F90D6
:1033D0000F90DF91CF911F910F910C94FE2E982F9B
:1033E00092959F7069238F709AE0699F800D1124D8
:1033F00008956AE00E94732E292F30E1839FC00157
:103400001124822B0895CF93C62F1092800029E0BB
:103410002093810023E020936F009C0140E050E066
:1034200060E079E08DE390E00E94B52E3093890052
:1034300020938800C93140F08FE493EC0197F1F7B5
:1034400000C00000C951F6CF109281004398CF917F
:103450000895CF93DF9380E090E00E94F62E8A35A6
:1034600069F0C0E0D0E0FE01E958FC4F6491CE0164
:103470000E94FE2E2196C031D105A9F7DF91CF9190
:1034800008951092B6041092B5048091AB0588237C
:10349000E1F38CE38093DF051092AB058091AB05DF
:1034A0008823E1F381E08093B60408950F931F937E
:1034B000CF93DF93CDB7DEB729970FB6F894DEBF71
:1034C0000FBECDBF1986F894AE01475F5F4F61E034
:1034D00080ED0E949A1581110E94D82AAE014F5F9B
:1034E0005F4F67E080ED0E94DA1578948111F4CF88
:1034F000098107FD35C06FE08F810E94EF1980932D
:10350000770161E08E810E94EF198093760163E07C
:103510008D810E94EF19809375011B8116FF0CC0ED
:1035200061E0812F0E94EF1915FB112710F99CE033
:10353000199F800D112404C063E0812F0E94EF19B0
:103540008093740167E08A810E94EF198093730170
:1035500067E0802F0E94EF198093720180E001C024
:1035600081E029960FB6F894DEBF0FBECDBFDF9184
:10357000CF911F910F9108951F920F920FB60F9246
:1035800011242F933F934F935F936F937F938F9368
:103590009F93AF93BF93CF93EF93FF93A8958091A1
:1035A000AC05813279F41092AC05C0917201809122
:1035B000B405813059F41092A8051092A705109215
:1035C000B40504C08F5F8093AC057DC00E94811953
:1035D0000E94561A80917201C81761F18091CB0444
:1035E000882329F08091CB0481508093CB04809173
:1035F000AA058130F9F48091A5059091A60501975F
:1036000011F40E9457188091A5059091A605009786
:1036100029F001979093A6058093A5058091A705B1
:103620009091A805181619062CF401979093A805F7
:103630008093A7058091AB05811112C09091DF05A1
:1036400080917201981761F086E0E2E7F1E0AFED5A
:10365000B5E001900D928A95E1F781E08093AB058A
:103660008091A405813079F59091AA05911115C03A
:1036700090917201911111C0209173019091D50523
:1036800029130BC0209174019091CF05291305C017
:103690008093AA0588E097E012C08091AA05813046
:1036A00091F48091A7059091A805892B61F410925F
:1036B000AA051092A6051092A5058FEF9FEF909393
:1036C000A8058093A705FF91EF91CF91BF91AF918E
:1036D0009F918F917F916F915F914F913F912F912A
:1036E0000F900FBE0F901F901895CF93DF93CDB71B
:1036F000DEB728970FB6F894DEBF0FBECDBF198294
:10370000809172010E94F9198A83809173010E944D
:10371000F9198B83809174010E94F9198C831D82A1
:10372000809175010E94F9198E83809176010E9423
:10373000F9198F83809177010E94F9198887F8948D
:10374000AE014F5F5F4F68E080ED0E949A1578945C
:1037500081110E94D82A28960FB6F894DEBF0FBEBA
:10376000CDBFDF91CF9108950E947E150E94561A19
:1037700081110E94751B0E94561A87E08093B10048
:1037800081E080937000789408959093C5008093B1
:10379000C40088E18093C1008EE08093C200519AFA
:1037A000509808959091C00095FFFCCF8093C6007B
:1037B00008958091C00087FFFCCF8091C6000895D6
:1037C0008091C0008078089508950895089508951F
:1037D0000895089508950895EF920F931F93CF933E
:1037E000DF9300D01F92CDB7DEB7861304C080915F
:1037F000B1048823E1F0142F862FBE016F5F7F4F45
:103800000E947A030091B905019F102D1124809127
:10381000B705E090B8059E012F5F3F4F41E06091F2
:10382000B60593E1199F800D11240E94F4110F90A9
:103830000F900F90DF91CF911F910F91EF9008950E
:10384000EF920F93823051F40E94970E28E340E8E4
:1038500060E080E00E94CC100E949C0E9091B9051F
:103860008091B705E090B805092F21ED32E041E0E5
:103870006091B6055DE0959F800D11240E94F411C2
:103880008091BA05813091F49091B9058091B70586
:10389000E090B805092F21ED32E041E06091B605D6
:1038A00050E2959F800D11240E94F4110F91EF902A
:1038B0000895CF93DF93CDB7DEB729970FB6F8946D
:1038C000DEBF0FBECDBF40E069E382E00E94CB03C4
:1038D0008091B604811105C08091B104882309F458
:1038E00077C08091B504813029F08091B104813096
:1038F00009F044C04091B7046091B9048091B804C4
:103900000E948004E82FF0E0EE0FFF1FE65BFE4F01
:103910002081318141E06091B50582E10E9424134C
:10392000E091B804F0E0EE0FFF1FEA5AFE4F20814D
:10393000318141E06091B5058AE20E9424138091B3
:10394000B904BE016F5F7F4F0E947A038CE28B83C4
:1039500080E28C8382E38D8380E38E838091B70441
:10396000BE01695F7F4F0E947A039E012F5F3F4F28
:1039700041E06091B50582E40E9424136091BD048A
:103980008091C00440E00E94EC1B6091BE048091D5
:10399000C10441E00E94EC1B8091BA05813039F4EA
:1039A0006091BF048091C20442E00E94EC1B8091B0
:1039B000BA0581110DC08091BF0480FF0E94970E4F
:1039C00026E044E068E18EE30E94CC100E949C0E49
:1039D00029960FB6F894DEBF0FBECDBFDF91CF9111
:1039E00008951092BA0594E09093B70522E02093D1
:1039F000B6059093B90595E09093B8059CE2909335
:103A0000B5050C94201C91E09093BA0590E1909339
:103A1000B7059CE09093B60592E09093B90590931A
:103A2000B80595E29093B5050C94201CFC01228109
:103A3000203429F423812F3111F422E001C026E043
:103A4000362FFC01DB018D9181938A2F831B821716
:103A5000D0F308952F923F924F925F926F927F9290
:103A60008F929F92AF92BF92CF92DF92EF92FF928E
:103A70000F931F93CF93DF93CDB7DEB72A970FB67F
:103A8000F894DEBF0FBECDBF8D839A871B0129013D
:103A90003A01E982FA820B831C831A2D082DCA0190
:103AA000B9010E94222E4B015C016C2D70E080E078
:103AB00090E00E94EA2C6B017C019B01AC01C501E6
:103AC000B4010E94B52D0E94B22C605CF1016083AC
:103AD000C301B2010E943B2C9058A70196010E949D
:103AE000B52D0E94B22C615EF101618329813A817A
:103AF0004B815C81C301B2010E94CF2B4B015C0161
:103B00000E94222E6E837F8388879987612F70E0C1
:103B100080E090E00E94EA2C6B017C019B01AC01EB
:103B20006E817F81888599850E94B52D0E94B22C77
:103B3000605CF1016283C501B4010E943B2C905886
:103B4000A70196010E94B52D0E94B22C615EF10181
:103B5000638329813A814B815C81C301B2010E9458
:103B6000CE2B4B015C010E94222E9B01AC01C701B0
:103B7000B6010E94B52D0E94B22C605CF1016483F5
:103B8000C501B4010E943B2C9058A70196010E94E8
:103B9000B52D0E94B22C615EF10165839D81A92F34
:103BA000BA858A2F891B801730F42D9181912817AF
:103BB000C1F381E001C080E02A960FB6F894DEBF21
:103BC0000FBECDBFDF91CF911F910F91FF90EF906E
:103BD000DF90CF90BF90AF909F908F907F906F902D
:103BE0005F904F903F902F900895CF93DF93EC011B
:103BF0002B814A81698188810E94EB108A818034FF
:103C000019F48B818F3171F02D814C81698188810C
:103C10000E94EB102D814C816B818A81DF91CF91C5
:103C20000C94EB10DF91CF910895CF92DF92EF9239
:103C3000FF920F931F93CF93DF93813009F06AC0F7
:103C400020E04EE16FE180E40E94390D6FE180E4F5
:103C50000E94A10EC0E003E06C2F0C2E000C770B2D
:103C6000880B990B0E94EA2C22E93AE046E05FE3D8
:103C70000E94B52D6B017C010E94222E2DEC3CECA4
:103C800040EE51E40E94B52D0E94B22C162FC701C0
:103C9000B6010E943B2C90582DEC3CEC40EE51E4D8
:103CA0000E94B52D0E94B22CD62F6FE16D0F80E4DB
:103CB000810F0E94A10E8C2F602F0E947F2E9111E8
:103CC00013C0C11102C0D15009C0C33011F41F5F2D
:103CD00005C0C63011F4DF5F01C011506FE16D0FF8
:103CE00080E4810F0E94A10ECF5FCC3009F0B4CFE9
:103CF000E7ECF5E0C1ECD5E0ABEBB5E02DEC35E061
:103D000088E2819389938D932E173F07D1F7109204
:103D1000D00518C08091D405811114C00E94970E5F
:103D200087EC95E00E94F51D0E949C0E6FE180E4F7
:103D3000DF91CF911F910F91FF90EF90DF90CF9087
:103D40000C94A10EDF91CF911F910F91FF90EF90F6
:103D5000DF90CF9008954F925F926F927F928F92F3
:103D60009F92AF92BF92CF92DF92EF92FF920F930A
:103D70001F93CF93DF93CDB7DEB766970FB6F89456
:103D8000DEBF0FBECDBF8091B404813009F0A4C066
:103D90008091D105813009F093C06091D50570E024
:103DA00080E090E00E94E82C20E537E746ED5DE3F7
:103DB0000E94B52D6B017C010E94222E2B013C013B
:103DC000C701B6010E943B2C6B8B7C8B8D8B9E8B2D
:103DD0008091CF051091D5056CE00E94732E692F5C
:103DE00070E080E090E00E94EA2C22E93AE046E0B0
:103DF0005FE30E94B52D6B017C01612F70E080E0D4
:103E000090E00E94E82C25E33AEF4EE05CE30E944C
:103E1000B52D9B01AC01C701B6010E94CF2B6B01F0
:103E20007C010E94222E4B015C01C701B6010E9459
:103E30003B2C6B017C0120E047E066E386E70E94B3
:103E4000390D6B897C898D899E89905820E030E0FE
:103E500040EE50E40E94B52D0E94B22C16E3160FDE
:103E600020E030E040EE50E4C301B2010E94B52DE5
:103E70000E94B22C46E7460F212F66E386E70E9498
:103E8000EB10C701B601905820E030E040EA50E462
:103E90000E94B52D0E94B22C16E3160F20E030E0F0
:103EA00040EA50E4C501B4010E94B52D0E94B22C35
:103EB00046E7460F212F66E386E70E94EB100CC011
:103EC0000E94970E21E141E16EE28EE60E94CC1045
:103ED0000E949C0E1092D0058091B304813031F481
:103EE0008091B20483FB882780F901C080E0909123
:103EF000D005981759F08093D00524E0E22E02E017
:103F000021E141E16EE28EE60E94D40E8091B6047A
:103F1000813021F08091B104813019F41092DC05D8
:103F200005C08091DC058F5F8093DC0542E069E38A
:103F300082E00E94CB038091D4058130D1F560915D
:103F4000BF041091DC0570E080E090E00E94E82C56
:103F500020E537E746ED5DE30E94B52D6B017C015E
:103F6000612F70E080E090E00E94EA2C28E93EE2B8
:103F70004EEF5BE30E94B52D9B01AC01C701B6017A
:103F80000E94CF2B9B01AC0116E0812E07E1A02EF1
:103F90008BE1C82E1DECE12E1CECF12E0CEC1DE388
:103FA000BE01635F7F4F87EC95E00E942A1DB82E0B
:103FB00001C0B12C8091B604813029F08091B10408
:103FC000813009F085C06091BE041091BF0470E09B
:103FD00080E090E00E94E82C20E537E746ED5DE3C5
:103FE0000E94B52D6B017C01612F70E080E090E0B4
:103FF0000E94E82C29E833EC44EE5AE30E94B52DE8
:104000009B01AC01C701B6010E94CF2B9B01AC0103
:10401000E2E08E2EF8E0AF2EABE1CA2E1CE7E12ED7
:1040200019EDF12E00E210E4BE01695F7F4F81ECD3
:1040300095E00E942A1DD82E81E0D81659F0909163
:10404000C0048091BD04981305C08091B1048130F3
:1040500009F041C08091BD041091BE046CE00E9443
:10406000732E692F70E080E090E00E94EA2C22E934
:104070003AE046E05FE30E94B52D2B013C01612F41
:1040800070E080E090E00E94E82C25E33AEF4EE0FB
:104090005CE30E94B52D9B01AC01C301B2010E94FB
:1040A000CF2B9B01AC0186E0882E95E0A92E64E120
:1040B000C62E1CE7E12E19EDF12E00E210E4BE0140
:1040C0006F5F7F4F8BEB95E00E942A1D182F04C075
:1040D00010E0D12C01C010E08091D4058130C9F4EA
:1040E000B81621F08091B104813099F40E94970EA6
:1040F00087EC95E00E94F51DBE01635F7F4F87EC62
:1041000095E00E94161D0E949C0E87EC95E00E948F
:10411000F51D81E0D81621F08091B1048130D1F4F1
:104120000E94970E81EC95E00E94F51DBE01695F2B
:104130007F4F81EC95E00E94161D0E949C0E81EC41
:1041400095E00E94F51D8091D405813051F487ECF3
:1041500095E005C081E0B81204C081EC95E00E94B2
:10416000F51D113021F08091B1048130F1F40E94ED
:10417000970E8BEB95E00E94F51DBE016F5F7F4FA0
:104180008BEB95E00E94161D0E949C0E8BEB95E038
:104190000E94F51D8091D405813021F487EC95E0D3
:1041A0000E94F51D81EC95E007C081E0B81611F082
:1041B000D81204C08BEB95E00E94F51D66960FB6F1
:1041C000F894DEBF0FBECDBFDF91CF911F910F914D
:1041D000FF90EF90DF90CF90BF90AF909F908F9027
:1041E0007F906F905F904F9008951092D4050C943B
:1041F000151E91E09093D4050C94151EAF92BF92BA
:10420000CF92DF92EF92FF920F931F93CF93DF93A2
:10421000B82E862F91E03AE0632FA91218C00E94B1
:10422000732EF82E842F0E94732ED82E822F0E9478
:10423000732EA82E802F0E94732E082F8E2D0E9481
:10424000732EE82E8C2D0E94732EC82E17C00E944C
:10425000732EF92E842F0E94732ED92E822F0E9446
:10426000732EA92E802F0E94732E092F8E2D0E944F
:10427000732EE92E8C2D0E94732EC92EF01209C0C8
:10428000DE1007C0AC1005C08091B104882309F48A
:104290003AC0DDE0C0E091E0FC1290E0DC1201C029
:1042A0009260AC1201C0946081E00C1380E0EC12CB
:1042B00001C08260CC1201C08460981306C0909146
:1042C000B1049130E1F48823D1F0E82FF0E0EB5213
:1042D000FB4F1491843018F40E949C0E02C00E947F
:1042E000970E212F45E06B2D8D2F0E944C100E94C0
:1042F0009C0E20E045E06B2D8D2F0E94390DCF5F85
:10430000D45FCA3041F6DF91CF911F910F91FF909A
:10431000EF90DF90CF90BF90AF9008950F931F93D1
:10432000CF93DF938091DC0581116CC08EE2809386
:10433000D00581E08093DC050E94ED1422E034E09A
:1043400040E061E081E00E94241305ED14E0CEE03E
:10435000D0E0D33019F40E94970E02C00E949C0E48
:10436000F801249145E06C2F8EE00E944C100E94D1
:104370009C0E20E045E06C2F8EE00E94390DD1119B
:1043800003C00E949C0E02C00E94970EF801349652
:10439000249145E06C2F86E40E944C100E949C0EF4
:1043A00020E045E06C2F86E40E94390DDF5F0F5F4F
:1043B0001F4FC25FD43069F620E134E040E06CE08A
:1043C00089E10E9424130EE212E0C6E1F801219176
:1043D00031918F0140E06C2F89E10E942413C95F65
:1043E000C034A1F70EE112E0C8E0F801219131914B
:1043F0008F0140E06C2F81E50E942413C95FC03417
:10440000A1F702C01092DC05DF91CF911F910F91AF
:104410000895AF92CF92EF920F93CF93DF9300D096
:104420001F92CDB7DEB78091D005813021F4809105
:10443000B604813041F08091D005882359F08091F5
:10444000DC05811107C081E00E94C70283E00E9461
:10445000C7026EC08091DC058130D1F48091B60432
:10446000813009F065C08091D00581508093D005DE
:104470008091D005BE016F5F7F4F0E947A039E013D
:104480002F5F3F4F40E061E088E70E94241350C057
:1044900040E06AE381E00E94CB038091B604811181
:1044A00005C08091B104882309F442C0C090BD04C6
:1044B000E090BE040091BF042091C0044091C1046B
:1044C0006091C204AA24A3948DE00E94FE20C090B3
:1044D000BD04E090BE040091BF042091C00440914F
:1044E000C1046091C204A12C89E10E94FE20C09009
:1044F000B704E090B8040091B9042091BA04409147
:10450000BB046091BC04AA24A39485E20E94FE200F
:10451000C090B704E090B8040091B9042091BA04A7
:104520004091BB046091BC04A12C81E30E94FE2059
:104530000F900F900F90DF91CF910F91EF90CF9050
:10454000AF900895CF92EF92FF920F931F93CF9366
:10455000DF9300D0CDB7DEB780E389831A8210E005
:10456000145F9E012F5F3F4F40E061E0812F0E946A
:10457000241389818F5F8983183791F7CC24C394E2
:10458000EE24E39409E514E021E040E06AE181E0F3
:104590000E942E1302E614E021E040E061E381E096
:1045A0000E942E1310E000E08DE0F82EF10E0111B4
:1045B00002C01D3338F420E045E06DE0600F8F2D20
:1045C0000E94390D045F003391F7145F183759F7D3
:1045D0001092D0051092DC050F900F90DF91CF91D3
:1045E0001F910F91FF90EF90CF900895CF92DF929F
:1045F000EF92FF921F93CF93DF93C82FD42F122FE8
:1046000070E080E090E00E94E82C9B01AC0160E04B
:1046100070E080E891E40E94402C6B017C01612FE6
:1046200070E080E090E00E94EA2CA70196010E94D1
:10463000B52D20E030E040E05FE30E94CF2B0E94E8
:10464000B92C162F6D2F70E080E090E00E94EA2CCC
:10465000A70196010E94B52D20E030E040E05FE325
:104660000E94CF2B0E94B92C611304C08091B10429
:104670008130C9F40E94970EC85F23E044E16C2F9B
:1046800089E60E9499140E949C0E23E042E06C2F60
:104690008AE6810FDF91CF911F91FF90EF90DF901D
:1046A000CF900C94CC10DF91CF911F91FF90EF90A1
:1046B000DF90CF9008950F931F93CF938091B5040F
:1046C000813029F08091B104813009F059C008E7A8
:1046D00011E081E09091B904F8012181291305C00E
:1046E0009091B8042281291729F0095F1F4F8F5F2D
:1046F000843081F79091CD05981709F441C08093DB
:10470000CD05F80180818823D1F06381748180E038
:104710000E94D510C82FF801658176816115710559
:1047200021F080E00E94D510C80F81E890E08C1B3A
:10473000910997FD019695958795C82F01C0C2E014
:104740000E94970E27E040E860E080E00E94CC10D5
:104750000E949C0EF8012381348140E061E08C2F9F
:104760000E9424138C0FF801258136812115310513
:1047700039F040E061E0CF911F910F910C94241328
:10478000CF911F910F910895CF93DF93C82F8D7F05
:10479000843129F0CA3019F0CD3041F52BC022E226
:1047A00041E067E188E00E94CC1021E043E568E346
:1047B00089E00E94CC10D8E16D2F87E00E94A10E05
:1047C000DB5FDB33C9F7C43161F469E385E20E9442
:1047D000A10E69E380E40E94A10ECAE3D0E188E45F
:1047E00012C0CA3049F0C63139F0D6CFC83141F0D5
:1047F000C6E307C0CAE305C0CAE3DDE08BE403C03B
:10480000CBE3DAE08EE421E132E040E06C2F0E945D
:10481000241325E132E040E06C2F8CE20E94241347
:1048200029E132E040E06C2F8D2FDF91CF910C9485
:104830002413AF92BF92CF92DF92EF92FF920F9329
:104840001F93CF93DF9300D01F92CDB7DEB74213F3
:1048500005C09091B104992309F489C0C02EB22EED
:10486000D62EF82E642F70E080E090E00E94EA2CB3
:1048700028E339EA4BEF5EE30E94B52D20E030E0FB
:1048800040E05FE30E94CF2B0E94B92CA62E6B2D37
:1048900070E080E090E00E94EA2C28E339EA4BEFD8
:1048A0005EE30E94B52D20E030E040E05FE30E942F
:1048B000CF2B0E94B92C162FA61204C08091B104F0
:1048C0008130F1F421E0210F85E066E3611BE812FD
:1048D00012C04D2D8F2D0E949914123088F067E37D
:1048E000611B85E0E82E00E02FEF210F4EEF4D0D0C
:1048F00081E08F0D03C001E04D2D8F2D0E94D40E5D
:10490000BE016F5F7F4F8B2D0E947A030EE2E02E77
:10491000E11A9E012F5F3F4F41E06E2D8F2D8C0DD0
:104920000E9424130E94970E65E3611B21E04D2D28
:104930008F2D0E94CC1027E04C2D6E2D8F2D0E94C4
:10494000CC104FEF4C0D81E08D0D8F0D27E06E2DBB
:104950008C190E94CC101A1540F42A2D211B602FAF
:104960006A194D2D8F2D0E94CC100E949C0E0F9025
:104970000F900F90DF91CF911F910F91FF90EF90CB
:10498000DF90CF90BF90AF900895CF93DF93EC016D
:10499000623019F50E94970E20E344E660E180E062
:1049A0000E94CC100E949C0E9E0140E069E082E0D3
:1049B0000E942413C82F90E0C1970CF055C00E94AC
:1049C000970E41E34C1B25E069E082E08C0F0E94CA
:1049D000CC10DF91CF910C949C0E21E040E867E071
:1049E00080E00E94CC1021E040E86FE080E00E946F
:1049F000CC1029E341E067E085E60E94CC108FEF00
:104A00008093CD050E945B239E0140E069E082E037
:104A10000E94241327E634E040E069E088E60E9423
:104A20002413C2E1D0E029E132E040E06C2F89E6B6
:104A30000E94241327E046E166E06C0F88E60E949E
:104A4000991421E042E169E06C0F8AE60E94CC10E3
:104A5000DF5FC03349F0D13019F021E132E002C00C
:104A600025E132E0C15FE1CFDF91CF91089541E0D0
:104A700069E083E30E94CB038091B604811104C0F6
:104A80008091B1048823C9F10E945B239091BF04F7
:104A90008091C204981304C08091B104813041F424
:104AA0002091BF044091C2046BE380E30E94F62290
:104AB0009091BE048091C104981304C08091B10408
:104AC000813041F42091BE044091C1046BE381E246
:104AD0000E94F6229091BD048091C004981304C0F6
:104AE0008091B104813041F42091BD044091C00413
:104AF00067E182E10E94F62281E008953F924F92A1
:104B00005F926F927F928F929F92AF92BF92CF925D
:104B1000DF92EF92FF920F931F93CF93DF9300D01A
:104B200000D000D0CDB7DEB7641307C0201305C096
:104B30009091B104992309F43BC1B02E122FA42EF9
:104B4000C82E70E080E090E00E94EA2C28E339EA69
:104B50004BEF5EE30E94B52D20E030E040E05FE3E4
:104B60000E94CF2B0E94B92C662E6A2D70E080E047
:104B700090E00E94EA2C28E339EA4BEF5EE30E94C2
:104B8000B52D20E030E040E05FE30E94CF2B0E9493
:104B9000B92C762E612F70E080E090E00E94EA2C24
:104BA00028E339EA4BEF5EE30E94B52D20E030E0C8
:104BB00040E05FE30E94CF2B0E94B92C462E602F6D
:104BC00070E080E090E00E94EA2C28E339EA4BEFA5
:104BD0005EE30E94B52D20E030E040E05FE30E94FC
:104BE000CF2B0E94B92C562E641430F4F42CF618F6
:104BF00026E3D22ED41805C0F62CF41826E3D22EC4
:104C0000D618F11002C0FF24F394751428F4352C43
:104C1000371816E3151904C0372C351816E3171981
:104C2000311002C033243394671006C0451004C00D
:104C30008091B104813071F4BA1418F001E082E07F
:104C400002C000E083E0E82E232D4DE0612F8C2D83
:104C50000E94D40E0B2D0A1907FF05C08DE289832F
:104C6000019521E001C020E00A306CF0E1E0F0E0C5
:104C7000EC0FFD1FE20FF11D802F6AE00E947F2ED6
:104C8000805D80832F5FE1E0F0E0EC0FFD1FE20F1D
:104C9000F11D802F6AE00E947F2E905D90832F5F30
:104CA000E1E0F0E0EC0FFD1FE20FF11D1082220F9A
:104CB000220FBB24BA94B20E0DE00B1906959C2C62
:104CC000900E9E012F5F3F4F40E08AEFA82EA10E6D
:104CD0006A2D892D0E9424130E94970E26E0402FF2
:104CE0006A2D8C2D0E94CC1026E0402F6A2D8B2D32
:104CF000890D0E94CC10671003C0451409F456C0FA
:104D000021E04DE06FEF610F8C2D0E94CC10AD2C97
:104D1000B12C8F2D90E09E838D83812E912CD11606
:104D2000B0F49401265031098A0D9B1D8217930718
:104D300024F426E02F0D59F002C0212F2D19E12C6B
:104D400002E04DE06AEF6D0D8C2D0E94D40E6410D0
:104D50000CC0751450F4671008C0E12C02E021E08B
:104D60004DE06D2D8C2D0E94D40E830C911C8D81F5
:104D70009E818A0D9B1D88169906C4F495E0A91A98
:104D8000B1088A149B0434F0632D610FFD0C2F2DA4
:104D9000261B04C026E02F0D6AEF6D0D222331F093
:104DA000E12C02E04DE08C2D0E94D40E0E949C0E5E
:104DB00026960FB6F894DEBF0FBECDBFDF91CF9120
:104DC0001F910F91FF90EF90DF90CF90BF90AF9029
:104DD0009F908F907F906F905F904F903F9008953D
:104DE000EF920F930E943725882399F12091BF04F9
:104DF0004091C20485E0E82E02E06FE089E40E9461
:104E000019240091BF042091C2044091BE04609116
:104E1000C1048BE30E947E252091BE044091C10411
:104E200002E06FE08BE20E9419240091BE04209101
:104E3000C1044091BD046091C0048DE10E947E25B3
:104E40002091BD044091C00402E06FE08DE00E941B
:104E500019240F91EF900895682F82E894E00E9442
:104E6000C5248AE00C94C4238F929F92AF92BF9284
:104E7000CF92DF92EF92FF92CF93DF93D82F70E023
:104E800080E090E00E94EA2C2BED3FE049E45FE3F4
:104E90000E94B52D24EE3BEC46E150E40E94CE2B5F
:104EA0004B015C010E94222E6B017C01C501B40103
:104EB0000E943B2C905826E636E646E551E40E94D7
:104EC000B52D0E94B22CC4E2C60F26E636E646E5B2
:104ED00051E4C701B6010E94B52D0E94B22C862F65
:104EE0006C2F8D0FDF91CF91FF90EF90DF90CF90DF
:104EF000BF90AF909F908F900C94A10E4F925F92B5
:104F00006F927F92BF92CF92DF92EF92FF920F93B8
:104F10001F93CF93DF9300D01F92CDB7DEB76413FA
:104F200005C09091B104992309F491C0042FF62E85
:104F3000182F70E080E090E00E94EA2C2CE739ED19
:104F400040EA5DE30E94B52D24EE3BEC46E150E4DF
:104F50000E94CE2B2B013C010E94222E26E636E633
:104F600046E551E40E94B52D0E94B22CC62EC30125
:104F7000B2010E943B2C905826E636E646E551E405
:104F80000E94B52D0E94B22CB62E602F70E080E0FA
:104F900090E00E94EA2C2CE739ED40EA5DE30E94A4
:104FA000B52D24EE3BEC46E150E40E94CE2B2B01C4
:104FB0003C010E94222E26E636E646E551E40E9498
:104FC000B52D0E94B22CE62EC301B2010E943B2CEB
:104FD000905826E636E646E551E40E94B52D0E943B
:104FE000B22CD62ECE1006C0B61204C08091B104E9
:104FF0008130F1F40E94970E24E22B0D4C2D410FCD
:1050000064E2812F0E94EB100E949C0E24E22D0D81
:105010004E2D410F64E2812F0E94EB108F2D6AE02C
:105020000E94732E911104C0682F812F0E94342793
:10503000BE016F5F7F4F802F0E947A039E012F5F1A
:105040003F4F41E06AE28BEF810F0E9424130F90E3
:105050000F900F90DF91CF911F910F91FF90EF90E4
:10506000DF90CF90BF907F906F905F904F900895AA
:105070000E9437258823A9F04091BF046091C204A3
:1050800083E50E947E274091BE046091C10482E3C3
:105090000E947E274091BD046091C00481E10C9480
:1050A0007E270895CF93DF93682F8AE894E00E94CB
:1050B000C524C1E120E04FE064E28C2F0E94390D4D
:1050C000D0E06D2F8C2F0E943427DF5FD730C9F7D7
:1050D000CF5DC43779F78BE0DF91CF910C94C42377
:1050E000CF92DF92EF92FF920F931F93CF93DF93B4
:1050F000F82E70E0042F10E082E0F81216C0072EA0
:10510000000C880B990B0E94EA2C20E030E040E470
:105110005FE30E94B52D20E030E040E850E40E94BB
:10512000CF2B6B01E82EC92F1EC0072E000C880B59
:10513000990B0E94EA2C2AE939E949E95EE30E94C9
:10514000B52D20E030E040E850E40E94CF2BC62E81
:10515000D72EE82EC92FF11006C00E94B92CD4E337
:10516000D60FC7E23BC02FEF3FEF4FEF5EE3B60134
:105170008E2D9C2F0E94B52D0E94B92CD4E3D61BF6
:1051800081E028ED33EB4DE55FE3B601F8121EC078
:105190008E2D9C2F0E94B52D0E94B92CC7E2C60F00
:1051A000B801110F880B990B0E94EA2C20E030E027
:1051B00040E45FE30E94B52D20E030E040E850E499
:1051C0000E94CF2BC62EE72E8C0134C08E2D9C2F33
:1051D0000E94B52D0E94B92CC7E2C61BB801110F61
:1051E000880B990B0E94EA2C2AE939E949E95EE328
:1051F0000E94B52D20E030E040E850E40E94CF2B23
:10520000562F472F382F292FC62EE72E082F192F5C
:1052100082E0F8120FC0652F742F832F922F0E9407
:10522000B92C44E3460F27E26C2F8D2F0E94EB1020
:1052300024E12DC02FEF3FEF4FEF5EE36C2D7E2D6D
:10524000C8010E94B52D0E94B92C84E3D82ED61A2D
:1052500028ED33EB4DE55FE36C2D7E2DC801F11099
:1052600006C00E94B52D0E94B92C695D07C00E943E
:10527000B52D0E94B92C87E2861B682F2C2F4D2F4D
:105280008D2D0E94EB1081E0F81203C02AE34AE260
:1052900002C02C2F4AE46C2F8D2FDF91CF911F91EC
:1052A0000F91FF90EF90DF90CF900C94EB100F9345
:1052B0001F93CF93DF9300D01F92CDB7DEB70E942C
:1052C0003725882309F4BDC09091BF048091C204A2
:1052D000981304C08091B104813079F48091BF04A7
:1052E000BE016F5F7F4F0E947A039E012F5F3F4F89
:1052F00041E061E28FE40E9424139091BE0480910A
:10530000C104981304C08091B104813079F4809174
:10531000BE04BE016F5F7F4F0E947A039E012F5F24
:105320003F4F41E061E380E10E9424139091BD046E
:105330008091C004981304C08091B104813079F445
:105340008091BD04BE016F5F7F4F0E947A039E0172
:105350002F5F3F4F41E061E180E10E942413909173
:10536000BF048091C204981791F19091BE0480917E
:10537000C10498132CC09091BD048091C00498136F
:1053800026C08091B104811122C06091C2041091A5
:10539000BF0470E080E090E00E94EA2C2AE939E93D
:1053A00049E95EE30E94B52D0E94B92C062F612FBA
:1053B00070E080E090E00E94EA2C2AE939E949E9AE
:1053C0005EE30E94B52D0E94B92C0617D1F10E9410
:1053D000970E4091C1046091C20480E00E94702841
:1053E0004091C0046091C10481E00E947028409106
:1053F000C2046091C00482E00E9470280E949C0E4A
:105400004091BE046091BF0480E00E9470284091EA
:10541000BD046091BE0481E00E9470284091BF04E9
:105420006091BD0482E00E94702823E04AE067E2B8
:1054300084E30E94390D21E040E167E284E30E94A9
:10544000390D0F900F900F90DF91CF911F910F9119
:105450000895682F85E994E00E94C52420E046E184
:1054600067E284E30E94390D21E132E040E069E225
:105470008FE40E94241325E132E040E069E38FE0ED
:105480000E94241329E132E040E069E18EE00E94AD
:10549000241367E284E30C94A10E1F93CF93DF9350
:1054A000182F842F0E94732ED82F822F0E94732EC4
:1054B000D81304C09091B1049923A9F1C82F8CE0AE
:1054C000D89FD02D1124D75E25E045E06D2F812F88
:1054D0000E944C1020E045E06D2F812F0E94390D75
:1054E000CC2339F0C13039F410FD07C00E94970E6B
:1054F00004C023E003C022E001C021E08CE0C89F8B
:10550000C02D1124C75E45E06C2F812F0E944C10E6
:105510000E949C0E20E045E06C2F812FDF91CF91FF
:105520001F910C94390DDF91CF911F9108950E9426
:1055300037258823C1F02091BF044091C20464E163
:1055400083E50E944D2A2091BE044091C10464E18C
:1055500082E30E944D2A2091BD044091C00468E07E
:1055600081E10C944D2A08951F93CF93DF93682F08
:1055700081EA94E00E94C524C9E027E241E162E1AA
:105580008C2F0E949914D9E118E01C0F20E045E00F
:105590006D2F812F0E94390DD45FDD33B9F7CF5DB8
:1055A000CC3659F78DE0DF91CF911F910C94C42335
:1055B000789464E680EA9FE00E94031A2FEF80E768
:1055C00092E0215080409040E1F700C0000064E686
:1055D00080EA9FE00E94031A2FEF89E698E12150AC
:1055E00080409040E1F700C00000E3CF14BE0FB64A
:1055F000F894A89580916000886180936000109273
:1056000060000FBE8AE190E00E94C51B3B9A8CE3CC
:105610008093DF050E94B41B0E94291A86E090E067
:105620000E94F62E81708093CE059091CE0581E088
:10563000911180E08093D60587E090E00E94F62EDD
:1056400083708093A9058091A90545ED55E06FEC25
:1056500075E00E94AD190E94F5040E94811982E054
:1056600084BD83E085BD8DE787BD80916E0082603B
:1056700080936E00539A80E28093B0008091B000D6
:1056800083608093B0008091B10088608093B10006
:1056900080E18093B30081E090E00E94F62E61E10A
:1056A0000E94732E9093B400259A64E680EA9FE0EE
:1056B0000E94031A9FE088E10FB6F894A8958093A2
:1056C00060000FBE909360000E942E180E94ED149F
:1056D0000E949C0E0E945F040E94411A81E00E9479
:1056E000C702CBE4D4E008E512E080E6E82E89E0CA
:1056F000F82EC093B3058091C9048823B9F0809136
:10570000AA05813099F49091C90490FF03C0809359
:10571000B40535C01093A6050093A505F092A80521
:10572000E092A70510928100439829C08091C90496
:1057300080FF06C00E9465070E94411A81E01DC0DB
:105740008091C90481FF08C08091C9040E94A7020A
:10575000811102C0D093C9048091C90482FF0FC097
:10576000D090B0040E9462039091B004D91205C099
:105770008091C9040E94A70202C00E94C702109231
:10578000C90483E00E94C7028091B3058111FCCF58
:105790008091B2048F5F8093B204ABCF5058BB2787
:1057A000AA270E94E62B0C94672D0E942E2D38F01C
:1057B0000E94352D20F039F49F3F19F426F40C9403
:1057C0002B2D0EF4E095E7FB0C94252DE92F0E947C
:1057D0008C2D58F3BA17620773078407950720F0DA
:1057E00079F4A6F50C94AE2D0EF4E0950B2EBA2F9D
:1057F000A02D0B01B90190010C01CA01A0011124D7
:10580000FF27591B99F0593F50F4503E68F11A1682
:10581000F040A22F232F342F4427585FF3CF469513
:1058200037952795A795F0405395C9F77EF41F1635
:10583000BA0B620B730B840BBAF09150A1F0FF0FFF
:10584000BB1F661F771F881FC2F70EC0BA0F621FEB
:10585000731F841F48F4879577956795B795F795DB
:105860009E3F08F0B0CF9395880F08F09927EE0F70
:105870009795879508950E943E2DE3950C94782D79
:105880000E94542C0C94672D0E94352D58F00E94D4
:105890002E2D40F029F45F3F29F00C94252D511155
:1058A0000C94AF2D0C942B2D0E948C2D68F3992312
:1058B000B1F3552391F3951B550BBB27AA2762170C
:1058C0007307840738F09F5F5F4F220F331F441F19
:1058D000AA1FA9F335D00E2E3AF0E0E832D091504D
:1058E0005040E695001CCAF72BD0FE2F29D0660F3A
:1058F000771F881FBB1F261737074807AB07B0E87D
:1059000009F0BB0B802DBF01FF2793585F4F3AF082
:105910009E3F510578F00C94252D0C94AF2D5F3FE0
:10592000E4F3983ED4F3869577956795B795F79508
:105930009F5FC9F7880F911D9695879597F90895F0
:10594000E1E0660F771F881FBB1F6217730784078C
:10595000BA0720F0621B730B840BBA0BEE1F88F79B
:10596000E09508950E94B92C6894B1110C94AF2D64
:1059700008950E94942D88F09F5798F0B92F992789
:10598000B751B0F0E1F0660F771F881F991F1AF02A
:10599000BA95C9F714C0B13091F00E94AE2DB1E0B4
:1059A00008950C94AE2D672F782F8827B85F39F0B3
:1059B000B93FCCF3869577956795B395D9F73EF4C3
:1059C00090958095709561957F4F8F4F9F4F08956B
:1059D000E89409C097FB3EF4909580957095619589
:1059E0007F4F8F4F9F4F9923A9F0F92F96E9BB273F
:1059F0009395F695879577956795B795F111F8CFBB
:105A0000FAF4BB0F11F460FF1BC06F5F7F4F8F4F25
:105A10009F4F16C0882311F096E911C0772321F01B
:105A20009EE8872F762F05C0662371F096E8862FB3
:105A300070E060E02AF09A95660F771F881FDAF70A
:105A4000880F9695879597F9089597F99F6780E84D
:105A500070E060E008959FEF80EC089500240A94C0
:105A60001616170618060906089500240A94121639
:105A700013061406050608950C942B2D0E94942DF0
:105A8000D8F3E894E0E0BB279F57F0F02AED3FE021
:105A900049EC06C0EE0FBB0F661F771F881F28F06A
:105AA000B23A62077307840728F0B25A620B730B8D
:105AB000840BE3959A9572F7803830F49A95BB0F72
:105AC000661F771F881FD2F790480C942C2E092E42
:105AD0000394000C11F4882352F0BB0F40F4BF2B49
