:100000000C941D030C943A030C943A030C94FA05D7
:100010000C943A030C943A030C943A030C943A036C
:100020000C943A030C94A01A0C943A030C94B11853
:100030000C943A030C94C3180C94C8170C943A030C
:100040000C943A030C943A030C943A030C943A033C
:100050000C943A030C945C050C943A030C943A0308
:100060000C9411150C943A0305A84CCDB2D44EB99A
:100070003836A9020C50B9918688083CA6AAAA2A4B
:10008000BE000000803F49922449249200010205ED
:100090000A0F121617191B1E212326272A2D30336B
:1000A00036393C3F424548494B4D505255595C5FAB
:1000B000626567696C6F707275777C8083868A8DE4
:1000C000909396999EA1A4A7A9ACAEB1B4B6B9BAC3
:1000D000BDC12037630003AA1F0A1F0AA2151F15FE
:1000E000087904138A151208234E11510E6A040A66
:1000F000640E045008640404307804037F111F72F6
:100100001F107D151775151F67041F77151D7F15A7
:100110001D611D037F151F77151F2A500A440A6AA7
:100120000A0A4A046115028815190E7E051E7F15FC
:100130000A6E11117F110E5F155F056E111D7F0490
:100140001F3F500F7F041B5F10BF0204021F9F025E
:10015000041F6E110E7F050282151D127F051A7293
:100160001509611F017F101F6F100FAF100C100FCA
:100170007B041B631C037915135F11630418511F63
:100180006201027010104102641F113F711F04844C
:10019000150E04840E1504000000000000005F002E
:1001A000000007000700147F147F14242A7F2A12FE
:1001B00023130864623649552250000503000000ED
:1001C0001C2241000041221C00082A1C2A080808A1
:1001D0003E08080050300000080808080800606069
:1001E000000020100804023E5149453E00427F4075
:1001F0000042615149462141454B311814127F108C
:1002000027454545393C4A494930017109050336BE
:1002100049494936064949291E003636000000562C
:10022000360000000814224114141414144122143E
:1002300008000201510906324979413E7E1111112F
:100240007E7F494949363E414141227F4141221C3E
:100250007F494949417F090901013E414151327FAE
:100260000808087F00417F41002040413F017F088E
:100270001422417F404040407F0204027F7F0408F7
:10028000107F3E4141413E7F090909063E4151210F
:100290005E7F09192946464949493101017F01011B
:1002A0003F4040403F1F2040201F7F2018207F6399
:1002B00014081463030478040361514945430000A2
:1002C0007F4141020408102041417F0000040201E7
:1002D00002044040404040000102040020545454B5
:1002E000787F484444383844444420384444487F64
:1002F0003854545418087E090102081454543C7FA1
:100300000804047800447D40002040443D00007F04
:1003100010284400417F40007C041804787C0804C5
:10032000047838444444387C14141408081414180D
:100330007C7C080404084854545420043F44402062
:100340003C4040207C1C2040201C3C4030403C4431
:10035000281028440C5050503C4464544C4400082D
:1003600036410000007F0000004136080008082ADE
:100370001C08081C2A08084932433A204255535F9A
:100380004552524F520D0A004932433A204E4F5FB8
:10039000494E464F0D0A004932433A2053542D3EF0
:1003A000444154415F4E41434B206F72204C4153B6
:1003B000545F444154410D0A004932433A2053549A
:1003C0002D3E444154415F41434B0D0A00493243A5
:1003D0003A2053542D3E534C415F41434B0D0A008C
:1003E0004932433A2053522D3E53525F53544F509B
:1003F0000D0A004932433A2053522D3E44415441A4
:100400005F4E41434B0D0A004932433A2053522D6F
:100410003E444154415F41434B0D0A004932433A47
:100420002053522D3E534C415F41434B0D0A00492E
:1004300032433A204D522D3E534C415F41434B0DC8
:100440000A004932433A204D522D3E444154415F07
:1004500041434B0D0A004932433A204D542D3E4151
:1004600052425F4C4F53540D0A004932433A204DDB
:1004700054522D3E534C415F4E41434B206F7220EE
:100480004D542D3E444154415F4E41434B0D0A00B3
:100490004932433A204D522D3E444154415F4E4132
:1004A000434B0D0A004932433A204D542D3E534CE4
:1004B000415F41434B206F7220444154415F4143AF
:1004C0004B0D0A004932433A204D2D3E53544152C0
:1004D000540D0A005A100105010000000800090F20
:1004E0000A1E0B2D000E0E1D0E1D2B0F3A0E2B0F8C
:1004F000480A520F610A520F000E0E1D0E1D6B0EA0
:10050000790D6B0E86100303030303030303030338
:1005100006030306030303030603030303030303A2
:10052000030303030303030303030303030303039B
:100530000606030303030303030303030303030385
:100540000603030303030303030303030306060372
:10055000030303060303060C03030303030303035C
:100560000303030303030603030303030303030C4F
:100570000C0303030306030303030303030306043B
:100580000404040404030303030303060303030333
:1005900004040403030303030C0C0C0C929200925A
:1005A00000749200AE00005700007400005700492C
:1005B000000062006E006862005792AEC4009BAEFD
:1005C00000920074826E0000AEA49B8A0092005CD0
:1005D00062740062748200AEA49B8A009200E800FC
:1005E000E8E80000008A00008200740000007474D3
:1005F00000740074820092740062570000747400EA
:100600007400748292000092740057005C00629B38
:10061000009B6200006EC4C4C4AE9B92740062571B
:1006200000006E9B009B9B9282744900493A000037
:100630000000050203010103020511241FBECFEFD4
:10064000D8E0DEBFCDBF14E0A0E0B1E0E4EDFFE50F
:1006500002C005900D92A03BB107D9F725E0A0EBB1
:10066000B4E001C01D92A33EB207E1F70E94D72B70
:100670000C94E82F0C9400008091BF048093C20476
:100680008091BE048093C1048091BD048093C00416
:100690008091B9048093BC048091B8048093BB041A
:1006A0008091B7048093BA0408959091B004E091CA
:1006B0000001F091010128E0929FE00DF11D11244D
:1006C0000680F781E02D309719F0099581E00895B3
:1006D00080E008950F931F93CF939091B004009101
:1006E00000011091010128E0929F000D111D1124BD
:1006F0009091A8059093B3049091A9059093B604A6
:100700009091B604913069F59091DD059093BF0406
:100710009091DE059093BE049091DF059093BD0407
:100720009091E0059093B9049091E1059093B804FD
:100730009091E2059093B7042091B9049091BC0484
:1007400029130CC02091B8049091BB04291306C052
:100750002091B7049091BA04291719F091E0909371
:10076000B504D8019C91992309F441C0C82F833066
:1007700051F51092B4048091A205813059F4909102
:10078000CF05913089F08093CF058093B404109207
:10079000C3040AC08091CF05823031F082E080939B
:1007A000CF0581E08093B404D8011496ED91FC91BB
:1007B000159709958091B604813011F40E943C038D
:1007C0001092B10414C0813031F41092CF058091A1
:1007D000CC050E9483170E943C0381E08093B10402
:1007E000D8011296ED91FC9113978C2F0995809169
:1007F000B604813031F41092B6041092B504109210
:10080000A905CF911F910F9108958091B0048F5F3A
:100810008093B0048091B004893010F01092B0043D
:100820008091B004E0910001F091010198E0899F6E
:10083000E00DF11D112481810895FB016AE00E9401
:100840004F2F805D8083905D918312820895EF9297
:10085000FF920F931F93CF93DF9300D000D0CDB7BB
:10086000DEB7F82EE62E0091D405E091B804F0E052
:10087000EE0FFF1FEA5AFE4F2081318140E08F2D9D
:100880000E942112182F80E289838091B904BE0151
:100890006E5F7F4F0E941D040091D4059E012F5F63
:1008A0003F4F40E06E2D8F2D810F0E942112810F4E
:1008B000873148F40091CC0547E1481B25E06E2DB7
:1008C0008F0D0E94BF0F0F900F900F900F90DF9130
:1008D000CF911F910F91FF90EF900895CF92EF92DB
:1008E000FF920F931F93CF93DF9300D000D000D0DF
:1008F000CDB7DEB7F82E162FE42E82E048130EC0D7
:100900008091B504813029F08091B104813009F0E3
:100910006EC0612F8F2D0E94270469C08091B4049E
:10092000813029F08091B504813009F042C0809176
:10093000CF05813059F58091B4048130D1F5809193
:10094000CD05BE016F5F7F4F0E941D048AE38B833C
:100950008091D305BE016C5F7F4F0E941D04009102
:10096000D4059E012F5F3F4F40E0612F8F2D0E94E5
:10097000211291E0E9121DC00091CC0547E1481B0E
:1009800025E0612F8F0D0E94BF0F13C00091CC0591
:1009900027E043E16FEF610F8FEF8F0D0E94BF0FD4
:1009A0001092C30481E0E81204C0612F8F2D0E94D1
:1009B00027048091B304813031F48091B20483FB29
:1009C000882780F901C080E09091C304891779F0ED
:1009D0008093C304C090CC056FEF610F84E0E82ED4
:1009E00002E027E043E18FEF8F0D0E94BB0D2696BA
:1009F0000FB6F894DEBF0FBECDBFDF91CF911F9130
:100A00000F91FF90EF90CF9008950F930091D40530
:100A10002AE332E041E06EE081E20E94211200917F
:100A2000D40525E432E041E06EE182E10E9421122A
:100A30002FEF8DE399E4215080409040E1F700C012
:100A4000000064E686EA9EE00E945F1964E680EAA0
:100A50009FE00F910C945F1980917A00877F8093BB
:100A60007A0080917A00806480937A0080917A0085
:100A700084FFFCCF80917800909179000895EAE797
:100A8000F0E0808188648083089526982E9A81E022
:100A900080936800EBE6F0E080818064808382E0F0
:100AA00080937C0010927B00EAE7F0E08FE880837F
:100AB00080818064808308951F920F920FB60F92F9
:100AC00011242F933F934F935F936F937F938F9353
:100AD0009F93AF93BF93EF93FF93789480917800A7
:100AE00090917900803E22E0920770F01092C80445
:100AF0001092CA048091C504813021F48093C4040B
:100B00001092C50484E163C0833622E0920770F13D
:100B10008091CA0482FD5AC08FE19EE40197F1F7EB
:100B200000C000000E942C05825692408E3791052D
:100B300008F04CC08AEF8093C6048091C6048823D5
:100B400069F00E942C05825692408E379105A8F3D9
:100B50001092CA0484E08093C90438C01092C9047A
:100B600084E08093CA048093C80430C08F309140E1
:100B7000B0F08091CA0481FD10C08FE19EE401971E
:100B8000F1F700C000000E942C058E509140853581
:100B90009140E0F482E08093C90482E013C0809128
:100BA000CA0480FD0EC08FE19EE40197F1F700C0FA
:100BB00000000E942C058F30914040F481E080932A
:100BC000C90481E08093CA041092C80482E0809333
:100BD000C704FF91EF91BF91AF919F918F917F914A
:100BE0006F915F914F913F912F910F900FBE0F909A
:100BF0001F9018951F920F920FB60F9211247894A0
:100C00000F900FBE0F901F9018959091C4049130D3
:100C100021F41092CE041092C4049091C804992338
:100C200069F091E09093C5049091CE049A3020F43D
:100C30009F5F9093CE0404C08E5F03C01092CE04D9
:100C40008F5F0E944F2F892F08950F931F93CF938B
:100C5000DF938C01EB0166E080E00E943717C8014A
:100C60000E943B14209759F067E080E00E943717FC
:100C7000CE01DF91CF911F910F910C943B14DF9126
:100C8000CF911F910F9108950F931F93CF93DF93EF
:100C90008C01EB0166E080E00E94371788EA92E061
:100CA0000E943B14C8010E943B1467E080E00E9450
:100CB00037178BEB92E00E943B14CE010E943B144D
:100CC0008B81811108C089E393E0DF91CF911F915F
:100CD0000F910C943B14DF91CF911F910F910895C8
:100CE0000F931F93CF93DF93D82FC62F042F122F6C
:100CF00063E088E00E9437178DEC92E00E943B147D
:100D00004D2F602F8C2F0E94A419E82FF0E0EE0FDA
:100D1000FF1FE65BFE4F808191810E943B141C30D7
:100D200019F46091CC0502C06091D405EC2FF0E07D
:100D3000EE0FFF1FEA5AFE4F808191810E942B1413
:100D400080E20E943F14802F1D3019F40E9423146A
:100D500002C00E9427148CE20E943F1484E11E30DE
:100D600049F40E9423148D2FDF91CF911F910F9191
:100D70000C9423140E9427148D2FDF91CF911F9183
:100D80000F910C9427140F93CF93C82F0091D40583
:100D900021E047E0682F80E00E94BF0F0091D4055A
:100DA0006FEF6C0F23E041E085E00E949B13009100
:100DB000D4056EEF6C0F25E041E084E00E949B13A8
:100DC000CF910F9108958091C804882349F02FE7AF
:100DD00089EA93E0215080409040E1F700C0000094
:100DE00008959091C9049093CD041092C904892F5D
:100DF000817090FD16C091FF03C01092CE0406C012
:100E0000911104C09091C804992321F09AE0909325
:100E1000CB0408959091CB0481E0992319F080E0F0
:100E2000089581E00895CF93C82F64E088E00E9480
:100E3000371783ED92E00E943B148091CC0581111D
:100E400008C089E393E00E943B146C2F81EE92E08E
:100E500003C06C2F88EE92E0CF910C942B14CF93AB
:100E6000DF9362E080E50E943717C2E7D1E08A8114
:100E70000E9427148AE30E943F1489810E9427144C
:100E80008AE30E943F148881DF91CF910C9427144C
:100E9000AF92BF92CF92EF920F93CF93DF93EC017B
:100EA0005B0181E08093CC0460E080E00E94371712
:100EB00080EF92E00E943B14C090CC05E12C00E052
:100EC00028E042E060E08EE70E94BB0D61E088E030
:100ED0000E94371786E093E00E943B1462E088E0AE
:100EE0000E9437178BE193E00E943B140E942F076A
:100EF000E2E7F1E043816481858127E00E9470068A
:100F00008091D4050E94130765E088E00E9437179E
:100F100088E293E00E943B148091B4000E94271461
:100F2000B501CE010E942506C090CC0520E142E02B
:100F300060E38EE70E94BB0DC090CC0528E248E03C
:100F400068E080E00E94BB0D1092CC04DF91CF914D
:100F50000F91EF90CF90BF90AF900895AF92BF9256
:100F6000CF92DF92EF92FF920F931F93CF93DF9375
:100F700000D000D0CDB7DEB781E08093CC04809163
:100F8000CC050E9483171092CC046BE373E081E5DB
:100F900093E00E9448078AE08093CB041092C90432
:100FA0001092CE048091A105853009F4A3C1D8F434
:100FB000882399F1843009F0A4C387E08093A105C8
:100FC0001091750100917601E090770181E08093A6
:100FD000CC048BE10E94C3061092CC0447E0F42EAF
:100FE000DD24D3942DC2873009F4CFC28F3009F0AD
:100FF00088C388E08093A10581E08093CC0460E001
:1010000070E08AE993E00E9425068BE20E94C30605
:101010001092CC0418E001E02BC385E08093A10579
:1010200081E08093CC048BE00E94C3061092CC0434
:101030000E94F106813009F460C38091CD0481FFE4
:10104000F7CF81E08093CC045AE0D52E62E1B62E32
:1010500072E0A72ED092CB041092CE048091A1050D
:101060008131E9F048F4853081F0803121F581E16A
:101070008093A10581E01CC08231B1F08331D9F4A5
:1010800084E18093A10584E013C080E18093A105F1
:101090008091CC050E9483171092CF0410C0B092AB
:1010A000A105A092CF040BC083E18093A10583E04A
:1010B0008093CF0404C085E08093A1051EC3F09007
:1010C000A70560E080E00E94371787E693E00E9462
:1010D0003B1411E0612F88E00E94371788E793E006
:1010E0000E943B14812F0E9427148FE793E00E94F7
:1010F0003B14AE014F5F5F4FBE016E5F7F4F8FEFBE
:10110000810F0E9413198A810E9427148AE30E948A
:101110003F1489810E9427141F5F1530D9F665E0BE
:1011200088E00E94371787E893E00E943B14809183
:10113000A7058F5F0E9427148091A1056BE373E0E0
:10114000843119F081E593E002C08AE993E00E94BE
:101150002506C090CC05E12C00E028E247E068E0DD
:1011600080E00E94BB0D8091CF04880F880F880F0C
:10117000855F0E94C3068091CF04843041F0AE01A8
:101180004D5F5F4FBE016C5F7F4F0E94131915E0EA
:101190000E94F106813009F4A8C08091CD0481FF3E
:1011A00053C01530D9F48091CF04843079F465E0D0
:1011B00084E70E94371781E08F0D0E94231460EBB3
:1011C00073E0CB010E94440614E13EC064EB73E07F
:1011D00089EB93E00E94440615E636C0153639F4D3
:1011E0006DEB73E0CB010E94440616E62DC014316E
:1011F00081F465E084E70E94371781E08F0D0E943B
:1012000027146F2D87E090E00E94DA2FF092A70557
:1012100006C04B816C818091CF040E943819809167
:10122000A1056BE373E0843119F081E593E002C01E
:101230008AE993E00E94250643ED55E06DEC75E0E8
:101240008F2D0E94131915E08091CD0482FD04C0FA
:101250008091C804882309F1143171F4F39483E078
:101260008F1508F4F12C65E084E70E94371781E0C0
:101270008F0D0E94231411C0153641F48C818F5FAD
:101280008C838C81883148F01C8207C0163629F483
:101290008B816CE30E9405068B838091CD048111C4
:1012A00004C08091C8048823E9F06091CF046430C1
:1012B000C9F00B81EC806F5F82E60E9437178E2D9C
:1012C000153619F40E94231402C00E9427148AE3E1
:1012D0000E943F14802F163619F40E94231402C076
:1012E0000E9427140E94E30653CF8091CB04811102
:1012F000B1CE14C084E08093A10500917401F090F8
:101300007301E090720181E08093CC0483E10E943C
:10131000C30614E00E94F106813019F41092CC0447
:10132000ECC18091CD0481FF2BC0143041F464EBFB
:1013300073E089EB93E00E94440615E621C0153660
:1013400039F46DEB73E0CB010E94440616E618C039
:10135000163639F461EC73E0CB010E94440617E6BF
:101360000FC06BE373E081E593E00E9425060093D4
:101370007401F0927301E09272010E94631B14E009
:10138000D090CD04D2FC04C08091C8048823C1F061
:10139000153631F40F5F083108F4C4C100E0C2C152
:1013A000163631F46CE38F2D0E940506F82E18C016
:1013B0001736B1F46CE38E2D0E940506E82E10C09E
:1013C000D11004C08091C804882349F162E080E50F
:1013D0000E943717153651F4802F0E94231409C03C
:1013E000DD2081F362E080E50E943717802F0E94A4
:1013F00027148AE30E943F148F2D163619F40E9499
:10140000231402C00E9427148AE30E943F148E2DE9
:10141000173619F40E94231402C00E9427140E9458
:10142000E30678CF8091CD0481FD0FC08091CD047B
:1014300082FD48C08091C804811144C00E94E30627
:101440000E94F106813071F758C1D092CC0487E038
:10145000F81208C065EC73E0CB010E9444063CE042
:10146000F32E27C08CE0F81208C069EC73E0CB01C2
:101470000E9444062DE0F22E1CC08DE0F81209C037
:101480006DEC73E082ED93E00E9444069EE0F92E3D
:1014900010C06BE373E081E593E00E942506E092C3
:1014A000770100937601109375010E94631B87E01A
:1014B000F82E2F2D412F602F8E2D0E947006109236
:1014C000CC04B4CF8EE0F81211C064E68E2D0E94D9
:1014D0000506E82E90E00E94E61981114BC002300B
:1014E00009F048C01D3108F445C03FC08CE0F81237
:1014F0001EC081E0800F8D30B0F5823069F41E315E
:1015000008F01DE18E2D90E00E94E61902E08111A5
:1015100031C01D3151F12EC0843029F0863019F0D0
:101520000D7F083021F51F3110F11EE120C08DE044
:10153000F81220C01F5F1032E0F4023059F41E315F
:10154000C0F48E2D90E00E94E619811113C01D3168
:1015500081F010C0802F8D7F843011F0893051F4DC
:101560001F3139F007C001E005C01CE103C0082F9E
:1015700001C011E0D092CC042F2D412F602F8E2D71
:101580000E9470061092CC0459CF8FE08093A10581
:1015900081E08093CC0483E20E94C3061092CC04C5
:1015A0001FE001E00E94F106813029F46091CC0532
:1015B00086E090E065C08091CD0481FF1DC000935E
:1015C000CC041F3061F48091CC050E94130766EDB6
:1015D00073E08CEE93E00E9425061AE60BC0809122
:1015E000D4050E9413076BE373E081E593E00E944A
:1015F00025061FE01092CC048091CD0482FD04C02A
:101600008091C8048823D9F01A36C9F48091CC059A
:101610009091D4059093CC058093D40566ED73E04A
:101620008CEE93E00E9448070093CC0483E20E9472
:10163000C3068091CC050E9413071092CC040E942F
:10164000E306B0CF8091CD0481FD1DC08091CD0413
:1016500082FD33C08091C80481112FC08091CD04D8
:10166000811139C08091C804811135C00E94E30600
:101670000E94F106813031F76091B40081E090E082
:101680000E94DA2F3AC00093CC0465E084E70E9400
:101690003717183041F466ED73E08CEE93E00E944A
:1016A000250619E607C06BE373E08AE993E00E9420
:1016B000250618E01092CC04C9CF193679F680912E
:1016C000B4008F5F8093B4008091B400813130F218
:1016D0001092B400C3CF0093CC0465E084E70E946D
:1016E00037178091B400193619F40E94231402C0F0
:1016F0000E9427141092CC04B9CF8091CB048111A1
:1017000044CC1092A1050F900F900F900F90DF9195
:10171000CF911F910F91FF90EF90DF90CF90BF90EE
:10172000AF900895DD2009F44DCE62E080E50E947F
:10173000371752CEE82FF0E0EB52FB4F677081E095
:1017400090E001C0880F6A95EAF79081892B808329
:1017500008952091D3049091D204291789F0909193
:10176000D404E091D004F091D104911105C0EE525F
:10177000FF4FE491EF7105C0E956FE4FE49101C0BF
:10178000E0E0811101C0E0958E2F08959091D4047E
:10179000E82FF0E091111DC09FE9980F9A3120F0D9
:1017A0008B3720F480E003C080E201C08AE1B0976B
:1017B000E81BF109E457FF4FE4918E2F90E0FC0104
:1017C000EE52FF4FE491E295E695E770E093D20484
:1017D000089525E02093D204B0972E9FC0012F9F3B
:1017E000900D11240895EF92FF920F931F93CF93C2
:1017F000DF93C82F042F0E94371785EDE82E84E071
:10180000F82E10E0D0E0C55DD4401017A1F01123F0
:1018100039F0CE018E0D9F1D8F739927892B11F4FE
:101820000E9403170E940317F70181937F010E9412
:101830003F171F5FEACFDF91CF911F910F91FF906C
:10184000EF9008952F923F924F925F926F927F9206
:101850008F929F92AF92BF92CF92DF92EF92FF92C0
:101860000F931F93CF93DF9300D01F92CDB7DEB7B6
:101870008B83162FB42EA22E842F880F93E0981BF3
:101880009983862F90E050E09C01240F351F63E080
:10189000359527956A95E1F7722E9924939422E065
:1018A000A212912C20E0E22FF0E0EB5EFA4F1082C2
:1018B0002F5FB216C0F7841B950B23E09595879593
:1018C0002A95E1F78A8330E4832E682C3B81631AE2
:1018D000532E550C432E4A943A81731608F4FFC0D8
:1018E000EB2C3980C12CDD24DA94212CF12CEF145F
:1018F0000CF477C0AA2051F083E0A81203C0222084
:1019000029F054C08F2D8170891150C0612F6E0D48
:10191000862F8695869586959A81981306C080E4D1
:101920008F0D0E949A0B81E001C080E0612F6E193B
:10193000962F9695969596952A81291305C080E451
:101940008F0D0E949A0B02C0813041F48B818F0D64
:101950008D1508F4D82EC81608F4C82E612F6F0D07
:10196000862F8695869586953A81381306C080E441
:101970008E0D0E949A0B81E001C080E0612F6F19EB
:10198000962F9695969596952A81291305C080E401
:101990008E0D0E949A0B02C0813041F48B818E0D16
:1019A0008D1508F4D82EC81608F4C82E37FE08C0C6
:1019B00096E0930D8F2D880F880F392E380E09C0B1
:1019C0008F2D8E19880F880F9AE0930D382E390EBF
:1019D000EA9432E0231611F0239401C0212CF394F1
:1019E00086CF8FEFD81204C09A819F5F9A8374CFFD
:1019F00041E04C0D4D196A818D2D0E94F30B6A81D7
:101A00008D2D0E943717262C2D0C312CEC2CF12C0F
:101A1000ED18F108832D820DA32DB0E0EA16FB0628
:101A2000A4F0AB52BB4F90E0FC01EB52FB4F0130F6
:101A300021F49C918081892B04C0808180959C91A8
:101A400089230E9453173394E5CF2B812C19C22E82
:101A5000FB80F20EE52CED183B813E1102C0442DB7
:101A600001C04E2D4F1558F081E08F19480F6A8143
:101A70008F2D0E94F30B6A818F2D0E943717282C1F
:101A80002C18312C8E2D90E09C012F1931097901F1
:101A9000222D2319832D90E0E816F9060CF4A4CF2B
:101AA000C22ED12C2034A9F0FC01EB52FB4F0130A7
:101AB00039F49081F601EB52FB4F8081892B07C0EE
:101AC000D601AB52BB4F8C918095908189230E94A7
:101AD0005317F601EB52FB4F10823394D9CF0F907E
:101AE0000F900F90DF91CF911F910F91FF90EF908A
:101AF000DF90CF90BF90AF909F908F907F906F902E
:101B00005F904F903F902F900895FF920F931F93F7
:101B1000CF93DF93082FF42E862F8770C1E0D0E09B
:101B200001C0CC0F8A95EAF7162F169516951695D3
:101B3000612F802F0E9437170E9403170E940317FE
:101B400091E0F91202C0C82B02C0C095C823C81783
:101B500061F0612F802F0E9437178C2FDF91CF917A
:101B60001F910F91FF900C945317DF91CF911F910C
:101B70000F91FF9008952F923F924F925F926F9234
:101B80007F928F929F92AF92BF92CF92DF92EF920D
:101B9000FF920F931F93CF93DF93CDB7DEB72897B4
:101BA0000FB6F894DEBF0FBECDBF782E642EB22ED6
:101BB0001E2D562E569456945694462F4770D42E6A
:101BC000011117C0123039F4842F63E00E944F2FA7
:101BD00091959F834AC0133031F4842F6E2D0E945B
:101BE0004F2F9F8320C1113009F01CC161706F839A
:101BF0001AC1013031F5123069F4842F90E0820F60
:101C0000911D91958195910963E070E00E947D2F6F
:101C10008F5F0BC0133061F4842F90E0820F911D11
:101C2000019763E070E00E947D2F8F8300E01DC06C
:101C3000113009F0F7C081E0820F840F81708F832B
:101C4000F2C0082F123029F4862F90E0841B9109EE
:101C500007C0133009F0E9C0842F90E0861B91097A
:101C600063E070E00E947D2F8F835F8157FF02C089
:101C70005D5F5F83F12C1886E12CA12C8B2D90E009
:101C80009B838A839EEF910F9C83E02F002E000C94
:101C9000FF0BFE83ED83AB1408F0D0C08A2C912C8F
:101CA000D11008C08A819B8188199909089714F07E
:101CB000143041F4462D652D872D0E94F30BF1E081
:101CC000F98301C01982652D872D0E9437172D2DAC
:101CD00030E04A815B814819590988E090E0821B15
:101CE000930B481759071CF42B2C2A1803C098E0B3
:101CF000292E2D184C81423068F48D819E815F81A0
:101D0000850F911D57FD9A9563E070E00E947D2F2D
:101D1000F82E08C0113031F48F81802780FD1BC060
:101D20008AEA888788E090E082199109EFEFF0E075
:101D300002C0F595E7958A95E2F7CF0101C0880FBB
:101D40002A95EAF7482ED82ED09485ED882E84E087
:101D5000982E312C1DC0F5E5F887E4CF9E2D909587
:101D60009887CC2009F444C0F8E02F1609F447C046
:101D7000ED2088858421E82A8E2D0E94531742E0A9
:101D8000F41609F43EC0F39433945FEF851A950A74
:101D9000361409F438C04981413011F4F401E0806F
:101DA000112309F444C0153009F444C0113049F43A
:101DB000F1E0CF1611F031103EC0488540954887BC
:101DC0003AC0123049F4EF2D0F2C000CFF0BE757EF
:101DD000FF4F549158872FC0133009F0BFCFEF2D1C
:101DE0000F2C000CFF0BEA57FF4F8491888723C00C
:101DF000143009F4B9CFE885E095E887B5CFE884D9
:101E0000BBCFF12CC1CF5394123021F48F818E5F60
:101E10008F8305C0133019F49F819F5F9F83A20CAD
:101E2000D12C39CF1F8200E025CF1F8223CFEFEFC7
:101E3000E88701C01886C11097CFDDCF28960FB66E
:101E4000F894DEBF0FBECDBFDF91CF911F910F91F0
:101E5000FF90EF90DF90CF90BF90AF909F908F90CA
:101E60007F906F905F904F903F902F9008958F924A
:101E70009F92AF92BF92CF92DF92EF92FF920F9319
:101E80001F93CF93DF93D82EB62EA22E902ED42F51
:101E9000842F880F13E0181BF12C88248394C0E052
:101EA000DC170CF45FC0CD1719F117FD49C081E0B4
:101EB000881201C0FF0C2D2F220F2F5FC92CEA2C96
:101EC00002E041E04F0D6B2D6D1B8D2D8C1B0E9490
:101ED000BB0DCC23E1F12C2F220F2F5F41E06B2DA6
:101EE0006C1B8D2F8D0D0E94BB0D811017C006C07D
:101EF000CC2321F117FD24C0811011C02D2F220FFA
:101F00002F5FC92CEA2C02E041E04F0D6B2D6D1BB9
:101F10008C2F8D0D8F190E94BB0DCD13F12C2C2F02
:101F2000220F2F5F41E04F0DC92CEA2C02E06B2DF0
:101F30006C1B8D2D8D1B0E94BB0D09C017FF07C0A8
:101F40001A5F8C2F880F880F180FF39409C08C2FFD
:101F50008D1B880F880F165F180FD150F12C812C24
:101F6000CF5F9ECFDF91CF911F910F91FF90EF90A8
:101F7000DF90CF90BF90AF909F908F900895CF92B9
:101F8000EF920F93C02EE12C02E00E94BB0D0F9147
:101F9000EF90CF9008951F93CF93DF938093D40455
:101FA000EB0110E08991882339F00E94C60B8091E3
:101FB000D2048F5F180FF6CF812FDF91CF911F9141
:101FC00008952F923F924F925F926F927F928F92DD
:101FD0009F92AF92BF92CF92DF92EF92FF920F93B8
:101FE0001F93CF93DF9300D000D01F92CDB7DEB701
:101FF0008C83D62E0B83F42EF81A3F2D822F861B4E
:102000008D831F140CF4C9C0F194982F97FD9195FE
:102010009D8391E0311101C090E0992E91941816A2
:102020004CF091E0811101C090E0C92EC19404C030
:1020300099249394CC24C3946D8066945F2C569419
:102040008D2C869486948694022F06950695069587
:10205000081907FD01950F5F8D81F81618F0FA82B7
:10206000198204C09D819A8381E08983842F9C8199
:10207000491708F4892F9C81941708F4492F841775
:1020800038F0E42FF0E0EB52FB4F10824F5FF7CFB8
:10209000212C712C10E0822D90E0801791070CF01C
:1020A00086C06D2D8C810E949A0B3C80E32C8A8126
:1020B000781650F5498141110AC08D81580E5F1480
:1020C00010F05F18DC0C9C81990D9C8309C06F0C8B
:1020D0004D81641620F0641A8C81890D8C83DC0C90
:1020E0008D2D86958695869588120EC09C819E15AD
:1020F00008F4E92E4C81341608F4342E6D2D8C81B1
:102100000E949A0B7394D3CF682D8E2D0E9437179F
:10211000BE2C44244A943B1420F1BE1419F08B2D9C
:102120008F7311F40E9403170E9403172B2D30E0C8
:102130009B81F901EB52FB4F913019F49081982B60
:1021400003C09081909598234FEF441202C09813DA
:102150004B2CF901EB52FB4F90830E943F17B39435
:10216000DACF47FC14C0682D842D0E9437170FC0AA
:10217000AE2CB12CE41430F0F501EB52FB4F808112
:102180000E945317F501EB52FB4F1082E3943E146B
:1021900078F78C0C739423947ECF9D8119160CF4E0
:1021A00047CF9D8191959D83992493943ACF0F9029
:1021B0000F900F900F900F90DF91CF911F910F9183
:1021C000FF90EF90DF90CF90BF90AF909F908F9057
:1021D0007F906F905F904F903F902F9008952F9237
:1021E0003F924F925F926F927F928F929F92AF92A7
:1021F000BF92CF92DF92EF92FF920F931F93CF93F4
:10220000DF93CDB7DEB72F970FB6F894DEBF0FBEC2
:10221000CDBF8E834B832B873C87962E96949694C6
:10222000969467706983B901842F0E94CB0F809FB9
:10223000502C11242B81222311F087E001C085E06E
:102240008E9D402C1124B12C812CF12CA12C10E05E
:102250001D82D12C842D90E09A878987D41408F0B0
:10226000D6C06D2C712CF981EF2FF0E0F887EF8349
:102270002981211106C089859A85861997090897B1
:10228000C4F4452D692D8E810E94F30B89859A85B2
:1022900086199709EF81F8858E0F9F1F09972CF0FB
:1022A000F8E02981F21BFF8706C0342D3D193F87D6
:1022B00002C088E08F87692D8E810E94371788E0E1
:1022C00090E0EF858E1B91092FEF30E002C035952D
:1022D00027958A95E2F7098001C0220F0A94EAF750
:1022E0002C8331E0098001C0330F0A94EAF73D875F
:1022F0008B8589839C859A836F2C7A2C212C312C99
:102300001E862B82251408F07BC09091D304809107
:10231000D204891718F0EB81E1112AC01092D3047E
:10232000E981FA818191FA83E9830E94C60B909337
:10233000D1048093D004FE85F01719F02B81211170
:102340001AC08C2D0E94A90B8D838091D3048F5FBE
:102350008093D3048091D0049091D10401969093FE
:10236000D1048093D0043F85383079F01E8606C0B2
:10237000EE85E01731F38F85883021F0F101EB52C3
:10238000FB4F10819E8591112BC0ED818E2F90E027
:10239000F1E00F2C02C0959587950A94E2F7EF12B1
:1023A0000BC00F8001C0880F0A94EAF7B82E6F8423
:1023B0006F0C8C807A2C13C02D856F2C7A2C9F8506
:1023C000B12C992359F080FDB22A7394E71003C011
:1023D00086956394712C220F9150F3CF8C801E86CA
:1023E000882D80951823882D8B21182B812F0E94F2
:1023F00053172E852F5F2E873FEF231A330A81CF85
:1024000093949F85D90E1982F62CA72C27CF852D62
:102410002F960FB6F894DEBF0FBECDBFDF91CF91E0
:102420001F910F91FF90EF90DF90CF90BF90AF90F2
:102430009F908F907F906F905F904F903F902F90E4
:102440000895CF92EF920F93C02EEE24E39401E013
:102450000E94EF100F91EF90CF9008952F923F922E
:102460004F925F926F927F928F929F92AF92BF92A4
:10247000CF92DF92EF92FF920F931F93CF93DF9350
:10248000CDB7DEB763970FB6F894DEBF0FBECDBFF2
:10249000D82E4A8329831801EB86562E56945694DB
:1024A00056946770962EB801842F0E94CB0F8C9D96
:1024B000602C11242A81222311F087E001C085E0DD
:1024C0003B85839F402C11244981423041F4815047
:1024D0008987D394D4181A8651E05E8305C087E0BB
:1024E0008A8719869FEF9E831D821B8200E01B8ACC
:1024F000E62DF0E0F887EF833B89361508F001C13F
:10250000F981F23019F491100EC006C029812130F2
:1025100019F437E0931207C08F8198854B89841B8B
:10252000910908975CF5442D652D8D2D0E94F30BC4
:102530005981523061F48F819885EB898E1B910906
:10254000890D911D0997B4F018E0191918C0F98187
:10255000F13081F48F8198852B89821B910928E0C5
:1025600030E029193109820F931F09971CF011E0FF
:10257000190D05C0162D3B89131B01C018E0652DF0
:102580008D2D0E943717412F50E088E090E0841B8A
:10259000950BEFEFF0E002C0F595E7958A95E2F72D
:1025A000CF019927F981F23041F4282F092C01C07D
:1025B000220F0A94EAF72A8B0CC0292D30E02F5FF6
:1025C0003F4F241B350B482F01C0440F2A95EAF7D3
:1025D0004A8B81E001C0880F9A94EAF78C877101D9
:1025E00059855C83BB80912C9D81892F90E0988BCD
:1025F0008F87EA89E095E98B941408F076C0FD8115
:10260000F093D304F10180810E94C60B2F85388995
:10261000820F931F9093D1048093D0048A2D0E943F
:10262000A90B41E050E00C8002C0440F551F0A94F2
:10263000E2F75E874D8771017C84BB801A83812C11
:102640003A813323C1F1282F30E0ED85FE852E231A
:102650003F23232B09F08728F981F23011F4770CFE
:1026600001C07694B394CB1022C08091D304909192
:10267000D204891749F08F5F8093D3048091D004EE
:102680009091D10401960BC01092D304F70181817F
:10269000882349F0FFEFEF1AFF0A0E94C60B9093C0
:1026A000D1048093D0048A2D0E94A90BB12C2A81D9
:1026B00021502A83C5CF7B84790C4A8984229714C0
:1026C00079F0183029F0E92DF0E0EB52FB4F008152
:1026D000598905230829802F0E9453179394EFCF1F
:1026E0008C819E81891B8C8387CFEE815E0EF09159
:1026F000D304FD832B89210F2B8B17019A84BB8276
:10270000FBCE862D63960FB6F894DEBF0FBECDBF0D
:10271000DF91CF911F910F91FF90EF90DF90CF90BD
:10272000BF90AF909F908F907F906F905F904F90F1
:102730003F902F900895AF92BF92CF92DF92EF9289
:10274000FF920F931F93CF93DF934423A1F1222392
:1027500091F1D02E122FC42FF62ED82F4330C0F077
:102760008EEFA82EA40EBB24B394BD0EC02EE12C78
:1027700002E021E04A2D8B2D0E94BB0D123040F06B
:102780006FEF6F0D610F21E04A2D8B2D0E94BB0D65
:10279000CD2CE12C02E0212F41E06F2D8D2F0E94E6
:1027A000BB0DC23040F08FEF8D0F212F41E06F2D18
:1027B0008C0F0E94BB0DDF91CF911F910F91FF9065
:1027C000EF90DF90CF90BF90AF900895FF920F935E
:1027D0001F93CF93DF93F62E90E0809725E0289FFC
:1027E0008001299F100D1124C0E0D0E0F801EC0F0A
:1027F000FD1FE956FE4F8491F11001C080950E94A3
:1028000053172196C530D10589F7F11002C08FEF1B
:1028100001C080E0DF91CF911F910F91FF900C9448
:102820005317CF93DF93C62F6AE00E944F2FD92F03
:102830006C2F805D0E94E6136C2F80E38D0FDF917B
:10284000CF910C94E6136091CC050C941114609117
:10285000D4050C9411141F93CF93DF93162FEC0122
:102860008991882321F0612F0E94E613F9CFDF912F
:10287000CF911F9108956091D4050C942B14609111
:10288000D4050C94E613ECEBF0E080818F70806C43
:1028900080830895459A449A1092580510925705DE
:1028A000109256051092550580E28093B800ECEB2B
:1028B000F0E080818460808310929C05808181603B
:1028C00080838081806480837894089580E28093FF
:1028D000B8000895ECEBF0E080818F70806A80830F
:1028E0000895ECEBF0E080818F70806D8083089517
:1028F0008091BC0087FFFCCF08958093BB00ECEB78
:10290000F0E080818F7080688083089581110C943D
:1029100043148091BC008F7080688093BC00089540
:102920008091BB000895FF920F931F93CF93DF9385
:10293000C82F162FF42E052F8091BC008E7F809318
:10294000BC000E946A140E9478148C2F8E7F0E9413
:102950007D140E9478148091B900883169F4CF2DDC
:10296000D02F112339F089910E947D140E94781490
:102970001150F7CFC0E001C0C1E00E9471148091F6
:10298000BC0084FFFCCF8091BC0081608093BC00C0
:102990008C2FDF91CF911F910F91FF900895FF929F
:1029A0000F931F93CF93DF93C82F162FF42E052F6D
:1029B0008091BC008E7F8093BC000E946A140E94AC
:1029C00078148C2F81600E947D140E94781480916D
:1029D000B9008034B9F4CF2DD02F123048F00E94C6
:1029E00043140E9478148091BB0089931150F5CF55
:1029F00080E00E9486140E9478148091BB00888336
:102A0000C0E001C0C1E00E9471148091BC008160EF
:102A10008093BC008C2FDF91CF911F910F91FF907D
:102A200008951F920F920FB60F9211242F933F9388
:102A30004F935F936F937F938F939F93AF93BF93C6
:102A4000EF93FF938091B900887F883609F4B6C070
:102A500008F042C0803309F49BC0A8F4803109F427
:102A600069C038F4882309F434C1883009F462C09D
:102A70003DC1803209F48CC0883209F462C08831CB
:102A800009F034C15EC0883409F482C038F4883358
:102A900009F486C0803409F48DC028C1883509F452
:102AA00066C0803609F48AC0803509F01FC160E035
:102AB00082E494E00E94F21B8091BB00E0915905F2
:102AC00091E09E0F90935905F0E0E65AFA4F80830B
:102AD00090E00E94DE1B6EC0803A09F499C0A8F411
:102AE000803809F476C038F4803709F467C0883735
:102AF00009F464C0FBC0803909F46BC0883909F45B
:102B00007EC0883809F0F2C07AC0883B09F4AEC0B4
:102B100038F4883A09F494C0803B09F491C0E6C0C7
:102B2000883C09F4C6C0883F09F4CDC0803C09F058
:102B3000DDC0BFC060E084EC94E00E94F21B80E046
:102B400013C060E085EA94E00E94F21BE0917B05EF
:102B500080917A05E81708F581E08E0F80937B0558
:102B6000F0E0E458FA4F80810E947D14BFC060E01D
:102B700080E994E00E94F21BE091590581E08E0FFC
:102B8000809359058091BB00F0E0E65AFA4F8083AC
:102B900060E08AE694E00E94F21B0E947114A4C0D7
:102BA00060E086E594E00E94F21B8091BC008F708B
:102BB000806898C060E08FE294E024C060E08CE11F
:102BC00094E00E94F21B85E080939C0510925905C9
:102BD00064C060E088E094E00E94F21BE091590537
:102BE00081E08E0F809359059091BB00F0E0E65A8A
:102BF000FA4F9083803240F40E94431477C060E023
:102C000083EF93E00E94F21B80E00E9486146EC066
:102C100060E080EE93E00E94F21B8091BC008F7018
:102C2000806C8093BC00E0915705F0915805309777
:102C300009F45AC06AE575E080915905099554C0B8
:102C400060E08DEC93E00E94F21B84E080939C0591
:102C5000E0915505F0915605309731F06CE775E03D
:102C600080E2099580937A0510927B0560E089EBFC
:102C700093E00E94F21BE0917B0581E08E0F809330
:102C80007B05F0E0E458FA4F80818093BB0090917F
:102C90007B0580917A05981728F48091BC008F708D
:102CA000806C04C08091BC008F7080688093BC00F1
:102CB0001DC060E087E993E00E94F21B8091BC0098
:102CC0008F70806C0FC060E088E893E00E94F21B78
:102CD0000DC060E087E793E00E94F21B8091BC008A
:102CE0008F70806D8093BC0010929C05FF91EF91D6
:102CF000BF91AF919F918F917F916F915F914F9114
:102D00003F912F910F900FBE0F901F901895F89440
:102D100040985A98882321F0813019F45A9A01C0BA
:102D2000409A8BB1806F8BB985B18F6085B92F9830
:102D30008AB18F708AB984B1807F84B92D9A2C9A18
:102D40000000000089B193B12C9887FF08C00000F3
:102D50000000000000002C9A00000000F1CF2D9828
:102D60008AB1806F8AB984B18F6084B978940895EC
:102D7000CF93C62FF8940E9487162F982D982C9ADF
:102D80008AB1806F8AB984B18F6084B98BB18F703A
:102D90008BB98BB19C2F907F892B8BB985B1807FAC
:102DA00085B985B1CF70C82BC5B9000000000000FF
:102DB000000000000000000000002C987894CF91E3
:102DC000089580939D05682F6F7360648295869542
:102DD000869583700C94B81690919D059295969562
:102DE00096959370877080939E05E92FF0E0E356E7
:102DF000FA4F2281821731F08283682F686B892F06
:102E00000C94B816089580919D05829586958695B7
:102E10008370F8940E9487162F9A8AB18F708AB9AE
:102E200084B1807F84B92D9A2C9A000000000000A4
:102E30000000000000000000000029B193B12C98B0
:102E40002D987894207F892F8F70822B089560ECC5
:102E500080E00E94B8166FE380E00E94B81660EC34
:102E600081E00E94B8166FE381E00C94B816CF930E
:102E7000C62F0E94E1168C2FCF910C94EC168091F6
:102E80009D058F3718F080E00C94E1168F5F8093DA
:102E90009D05982F9F7331F40E94E11680919E0545
:102EA0000C94EC160895CF93C82F80919D058295C0
:102EB000869586958370F8940E9487162F9A2D9890
:102EC0002C9A8AB1806F8AB984B18F6084B98BB132
:102ED0008F708BB98BB19C2F907F892B8BB985B16B
:102EE000807F85B985B1CF70C82BC5B900000000BF
:102EF0000000000000000000000000002C98789402
:102F0000CF910C943F171F93CF93DF9391E08130C3
:102F100009F090E0D92FD195C0E06C2F80E00E949D
:102F2000371710E08D2F0E9453171F5F1038D1F70D
:102F3000CF5FC83091F7DF91CF911F910C94271785
:102F40002F982D982C9840985A98279A259A249A29
:102F5000389A529A9BB19F709BB995B1907F95B961
:102F60009AB1906F9AB994B19F6094B9EDE9F5E088
:102F70009FEF928393830C94831780E28093710177
:102F80008091AB058093AC0581E08093700108953A
:102F90001F920F920FB60F9211242F933F934F93CE
:102FA0005F936F937F938F939F93AF93BF93EF93B1
:102FB000FF938091B105882329F08091B10581505C
:102FC0008093B1058091C604882329F08091C604BE
:102FD00081508093C6048091C704882359F0809162
:102FE000C70481508093C7048091C704811102C037
:102FF0000E943F058091A805813009F092C0809120
:10300000A3059091A405892B09F08BC08091AF0591
:103010009091B005892B09F07AC09091AC05809110
:10302000AB053091700198131CC03130D1F4809100
:103030007101803219F41092710103C08E5F809388
:1030400071018091710190E0FC01EC51FB4F2491E2
:103050002093AC05FC01EB51FB4FE491E20FE093B0
:10306000AB058091AC05313001F51092700190E014
:10307000FC01E456FA4FE49129E0E29FF0011124AB
:10308000F093AE05E093AD05FC01EA5FFA4F849141
:1030900023E6829FC001112463E070E00E94692F43
:1030A0007093B0056093AF0510C091E090937001EC
:1030B0001092AE051092AD0521E330E03093B005DB
:1030C0002093AF058F5F8093AC058091AD05909103
:1030D000AE05892B21F410928100439818C01092FC
:1030E000800089E08093810083E080936F002091CD
:1030F000AD053091AE0540E050E060E079E08DE351
:1031000090E00E94912F3093890020938800809155
:10311000AF059091B00501979093B0058093AF05EE
:103120000FC08091A5059091A605019649F41092D3
:10313000810043981092A6051092A5050E94BD1724
:10314000FF91EF91BF91AF919F918F917F916F917F
:103150005F914F913F912F910F900FBE0F901F9055
:1031600018951F920F920FB60F9211248F939F9371
:1031700098B188E0892788B99F918F910F900FBEF1
:103180000F901F9018951F920F920FB60F92112457
:103190002F933F934F935F936F937F938F939F935F
:1031A000AF93BF93EF93FF930E94B118FF91EF91FC
:1031B000BF91AF919F918F917F916F915F914F914F
:1031C0003F912F910F900FBE0F901F9018951E9B4F
:1031D00018C08091A205813029F51092A2051092A5
:1031E000A4051092A3051092A6051092A505809142
:1031F000A8058130B9F41092A80510928100439877
:103200000FC08091A20581110DC081E08093A205BD
:103210001092A4051092A3051092A6051092A50580
:103220000C94BD170895EF92FF920F931F93CF93C5
:10323000DF937B018A01C82FD0E0CC0FDD1FCE01C8
:1032400008960E94D22F68E10E944F2FF7019083C9
:10325000CE0109960E94D22F6CE30E944F2FF801F5
:103260009083DF91CF911F910F91FF90EF90089580
:103270000F931F93CF93DF9300D0CDB7DEB7698351
:103280004A83082F10E0000F111F6981C8010896BA
:103290000E94DA2F6A81C80109960F900F90DF9182
:1032A000CF911F910F910C94DA2F6AE00E944F2F5B
:1032B000292F30E1839FC0011124822B0895CF93E1
:1032C000C62F1092800029E02093810023E02093F4
:1032D0006F009C0140E050E060E079E08DE390E019
:1032E0000E94912F3093890020938800C93140F0CB
:1032F0008FE493EC0197F1F700C00000C951F6CFBD
:10330000109281004398CF910895CF93DF9380E08E
:1033100090E00E94D22F8A35A1F0C1E0D0E0FE01FA
:10332000EC52FB4F6491CE010E94DA2F2196C031FE
:10333000D105A9F76AE580E090E0DF91CF910C9488
:10334000DA2FDF91CF910895CF93DF93E82FF0E04C
:10335000242F30E02053384F833018F43C9621500E
:10336000310970E06F5F7F4F620F731FEF01CC0F69
:10337000DD1FC60FD71FA90156954795569547954E
:10338000C40FD51FC90160E971E00E94692FC60F03
:10339000D71FC90164E670E00E94692F9E01261BB9
:1033A000370B319646E04E9FC0014F9F900D112480
:1033B0006AE070E00E94692FC901860F971F67E0DD
:1033C00070E00E94692FDF91CF9108959C01837076
:1033D0009927892B39F4C90164E670E00E94692FAE
:1033E000892B61F4C90160E971E00E94692F9C0199
:1033F00091E0232B09F090E0892F089581E0089552
:103400001092B6041092B5048091A9058823E1F3C7
:103410008CE38093DD051092A9058091A90588238E
:10342000E1F381E08093B6040895CF93DF93CDB7A5
:10343000DEB729970FB6F894DEBF0FBECDBF198651
:10344000F894AE01475F5F4F61E080ED0E949314F6
:1034500081110E94B92BAE014F5F5F4F67E080ED95
:103460000E94CF1478948111F4CF898187FD5EC0CA
:10347000982F92959F708F702AE0929F800D112453
:10348000809372018A81982F9695969596959E7055
:10349000292F220F220F920F8F70890F80937301B3
:1034A0002B81822F82958F70922F9F7026FF0FC0E5
:1034B00025FB222720F98170880F382F330F330F17
:1034C000830F3CE0239F800D1124980F05C083706B
:1034D0002AE0829F900D1124909374018D81982F82
:1034E0009695969596959670292F220F220F920FFA
:1034F0008F70890F809375018E8184FB992790F9D5
:10350000990F292F220F220F920F8F70890F80930E
:1035100076018F81982F92959F708F703AE0939FDC
:10352000800D11248093770180E001C081E029960D
:103530000FB6F894DEBF0FBECDBFDF91CF910895D7
:103540001F920F920FB60F9211242F933F934F9318
:103550005F936F937F938F939F93AF93BF93CF931B
:10356000EF93FF93A8958091AA05813279F4109288
:10357000AA05C09172018091B205813059F4109270
:10358000A6051092A5051092B20504C08F5F809326
:10359000AA0587C00E94E7180E94151A809172013F
:1035A000C817B1F18091CB04882329F08091CB0416
:1035B00081508093CB048091A8058130F9F48091EB
:1035C000A3059091A405019711F40E94BD17809165
:1035D000A3059091A405009729F001979093A40565
:1035E0008093A3058091A5059091A605181619064C
:1035F0002CF401979093A6058093A5058091A105D1
:10360000882331F08091CC04811102C00E942F07E1
:103610008091A905811112C09091DD058091720100
:10362000981761F086E0E2E7F1E0ADEDB5E00190DA
:103630000D928A95E1F781E08093A9058091A2051A
:10364000813079F59091A805911115C09091720182
:10365000911111C0209173019091D30529130BC0D2
:10366000209174019091CD05291305C08093A80580
:1036700088E097E012C08091A805813091F4809194
:10368000A5059091A605892B61F41092A8051092CA
:10369000A4051092A3058FEF9FEF9093A60580934A
:1036A000A505FF91EF91CF91BF91AF919F918F9120
:1036B0007F916F915F914F913F912F910F900FBE2E
:1036C0000F901F901895CF93DF93CDB7DEB7289753
:1036D0000FB6F894DEBF0FBECDBF19828091720184
:1036E0000E9455198A83809173010E9455198B831A
:1036F000809174010E9455198C831D8280917501FF
:103700000E9455198E83809176010E9455198F83EE
:10371000809177010E9455198887F894AE014F5F18
:103720005F4F68E080ED0E949314789481110E94AD
:10373000B92B28960FB6F894DEBF0FBECDBFDF9130
:10374000CF9108950E944A140E94151A81110E9477
:10375000631B0E94151A87E08093B10081E080937B
:103760007000789408959093C5008093C40088E118
:103770008093C1008EE08093C200519A50980895C2
:103780009091C00095FFFCCF8093C60080E090E050
:103790000895CF93C82F82958F708A3010F4805D82
:1037A00001C0895A0E94C01B8C2F8F708A3010F480
:1037B000805D01C0895ACF910C94C01BCF93C82F54
:1037C000892F0E94C91B8C2FCF910C94C91B80910B
:1037D000C00087FFFCCF8091C60008958091C00093
:1037E0008078089508950895089508950895CF92D2
:1037F000EF920F931F93CF93DF9300D01F92CDB71B
:10380000DEB7861304C08091B1048823F1F0142F31
:10381000862FBE016F5F7F4F0E941D04C090D405AC
:103820000091B705019F102D11248091B505E090FE
:10383000B6059E012F5F3F4F41E06091B40593E1D3
:10384000199F800D11240E94EF100F900F900F9080
:10385000DF91CF911F910F91EF90CF900895CF926C
:10386000EF920F93823041F40091CC0528E340E8B9
:1038700060E080E00E94BF0FC090D4059091B70532
:103880008091B505E090B605092F21ED32E041E0C9
:103890006091B4055DE0959F800D11240E94EF10AA
:1038A0008091B8058130A1F4C090D4059091B705FE
:1038B0008091B505E090B605092F21ED32E041E099
:1038C0006091B40550E2959F800D11240E94EF1085
:1038D0000F91EF90CF9008950F93CF93DF93CDB7D3
:1038E000DEB729970FB6F894DEBF0FBECDBF40E01C
:1038F00069E382E00E946E048091B604811105C0E4
:103900008091B104882309F47DC08091B504813091
:1039100029F08091B104813009F04AC00091D405AA
:103920004091B7046091B9048091B8040E94A41931
:10393000E82FF0E0EE0FFF1FE65BFE4F20813181A4
:1039400041E06091B30582E10E9421120091D4050B
:10395000E091B804F0E0EE0FFF1FEA5AFE4F20811D
:10396000318141E06091B3058AE20E942112809189
:10397000B904BE016F5F7F4F0E941D048CE28B83F0
:1039800080E28C8382E38D8380E38E838091B70411
:10399000BE01695F7F4F0E941D040091D4059E0106
:1039A0002F5F3F4F41E06091B30582E40E942112F6
:1039B0006091BD048091C00440E00E94F71B6091BB
:1039C000BE048091C10441E00E94F71B8091B805BC
:1039D000813039F46091BF048091C20442E00E94BA
:1039E000F71B8091B80581110DC00091D40580911D
:1039F000BF0480FF0091CC0526E044E068E18EE33F
:103A00000E94BF0F29960FB6F894DEBF0FBECDBF40
:103A1000DF91CF910F9108951092B80594E09093A3
:103A2000B50522E02093B4059093B70595E09093F7
:103A3000B6059CE29093B3050C942F1C91E09093F3
:103A4000B80590E19093B5059CE09093B40592E0A1
:103A50009093B7059093B60595E29093B3050C94B7
:103A60002F1CFC012281203429F423812F3111F4F1
:103A700022E001C026E0362FFC01DB018D9181930D
:103A80008A2F831B8217D0F308952F923F924F9273
:103A90005F926F927F928F929F92AF92BF92CF92DE
:103AA000DF92EF92FF920F931F93CF93DF93CDB7E7
:103AB000DEB72A970FB6F894DEBF0FBECDBF8D8359
:103AC0009A871B0129013A01E982FA820B831C8340
:103AD0001A2D082DCA01B9010E94FE2E4B015C016E
:103AE0006C2D70E080E090E00E94C62D6B017C019F
:103AF0009B01AC01C501B4010E94912E0E948E2D44
:103B0000605CF1016083C301B2010E94172D9058DF
:103B1000A70196010E94912E0E948E2D615EF101F7
:103B2000618329813A814B815C81C301B2010E948A
:103B3000AB2C4B015C010E94FE2E6E837F83888735
:103B40009987612F70E080E090E00E94C62D6B01A4
:103B50007C019B01AC016E817F81888599850E94E3
:103B6000912E0E948E2D605CF1016283C501B4012B
:103B70000E94172D9058A70196010E94912E0E9435
:103B80008E2D615EF101638329813A814B815C81D5
:103B9000C301B2010E94AA2C4B015C010E94FE2EBF
:103BA0009B01AC01C701B6010E94912E0E948E2D8F
:103BB000605CF1016483C501B4010E94172D905827
:103BC000A70196010E94912E0E948E2D615EF10147
:103BD00065839D81A92FBA858A2F891B801730F4B0
:103BE0002D9181912817C1F381E001C080E02A96D0
:103BF0000FB6F894DEBF0FBECDBFDF91CF911F91FE
:103C00000F91FF90EF90DF90CF90BF90AF909F907B
:103C10008F907F906F905F904F903F902F9008957E
:103C20000F931F93CF93DF93EC01162F062F2B8159
:103C30004A81698188810E94E10F8A81803419F468
:103C40008B818F3169F0012F2D814C8169818881B1
:103C50000E94E10F2D814C816B818A810E94E10FCE
:103C6000DF91CF911F910F910895CF92DF92EF9244
:103C7000FF920F931F93CF93DF93813009F072C0AF
:103C80000091D40520E04EE16FE180E40E94220C17
:103C90004091D4056FE180E40E94850DC0E003E00F
:103CA0006C2F0C2E000C770B880B990B0E94C62DE5
:103CB00022E93AE046E05FE30E94912E6B017C012D
:103CC0000E94FE2E2DEC3CEC40EE51E40E94912E21
:103CD0000E948E2D162FC701B6010E94172D9058F5
:103CE0002DEC3CEC40EE51E40E94912E0E948E2D72
:103CF000D62F4091D4056FE16D0F80E4810F0E94B3
:103D0000850D8C2F602F0E945B2F911115C0C11162
:103D100002C0D15009C0C33011F41F5F05C0C630C6
:103D200011F4DF5F01C011504091D4056FE16D0FB8
:103D300080E4810F0E94850DCF5FCC3009F0B0CFB9
:103D4000E5ECF5E0CFEBD5E0A9EBB5E02BEC35E009
:103D500088E2819389938D932E173F07D1F71092B4
:103D6000CE0518C08091D205811114C06091CC0598
:103D700085EC95E00E94101E4091D4056FE180E42F
:103D8000DF91CF911F910F91FF90EF90DF90CF9037
:103D90000C94850DDF91CF911F910F91FF90EF90C3
:103DA000DF90CF9008954F925F926F927F928F92A3
:103DB0009F92AF92BF92CF92DF92EF92FF920F93BA
:103DC0001F93CF93DF93CDB7DEB766970FB6F89406
:103DD000DEBF0FBECDBF8091B404813009F0A8C012
:103DE0008091CF05813009F099C06091D30570E0D2
:103DF00080E090E00E94C42D20E537E746ED5DE3CA
:103E00000E94912E6B017C010E94FE2E2B013C0131
:103E1000C701B6010E94172D6B8B7C8B8D8B9E8BFF
:103E20008091CD051091D3056CE00E944F2F692F32
:103E300070E080E090E00E94C62D22E93AE046E082
:103E40005FE30E94912E6B017C01612F70E080E0A6
:103E500090E00E94C42D25E33AEF4EE05CE30E941F
:103E6000912E9B01AC01C701B6010E94AB2C6B01E6
:103E70007C010E94FE2E4B015C01C701B6010E942D
:103E8000172D6B017C010091D40520E047E066E32B
:103E900086E70E94220C0091D4056B897C898D896C
:103EA0009E89905820E030E040EE50E40E94912E30
:103EB0000E948E2D16E3160F20E030E040EE50E415
:103EC000C301B2010E94912E0E948E2D46E7460F3B
:103ED000212F66E386E70E94E10F0091D405C70118
:103EE000B601905820E030E040EA50E40E94912E64
:103EF0000E948E2D16E3160F20E030E040EA50E4D9
:103F0000C501B4010E94912E0E948E2D46E7460FF6
:103F1000212F66E386E70E94E10F0AC00091CC05DD
:103F200021E141E16EE28EE60E94BF0F1092CE05C4
:103F30008091B304813031F48091B20483FB8827EF
:103F400080F901C080E09091CE05981769F08093C8
:103F5000CE05C090CC0524E0E22E02E021E141E153
:103F60006EE28EE60E94BB0D8091B604813021F096
:103F70008091B104813019F41092DA0505C0809166
:103F8000DA058F5F8093DA0542E069E382E00E9400
:103F90006E048091D2058130D1F56091BF041091FB
:103FA000DA0570E080E090E00E94C42D20E537E75C
:103FB00046ED5DE30E94912E6B017C01612F70E064
:103FC00080E090E00E94C62D28E93EE24EEF5BE3E0
:103FD0000E94912E9B01AC01C701B6010E94AB2C3F
:103FE0009B01AC0116E0812E07E1A02E8BE1C82ECB
:103FF0001DECE12E1CECF12E0CEC1DE3BE01635F09
:104000007F4F85EC95E00E94451DB82E01C0B12C74
:104010008091B604813029F08091B104813009F09B
:1040200085C06091BE041091BF0470E080E090E014
:104030000E94C42D20E537E746ED5DE30E94912EF6
:104040006B017C01612F70E080E090E00E94C42D44
:1040500029E833EC44EE5AE30E94912E9B01AC0117
:10406000C701B6010E94AB2C9B01AC01E2E08E2E91
:10407000F8E0AF2EABE1CA2E1CE7E12E19EDF12ED0
:1040800000E210E4BE01695F7F4F8FEB95E00E9474
:10409000451DD82E81E0D81659F09091C00480912A
:1040A000BD04981305C08091B104813009F041C06E
:1040B0008091BD041091BE046CE00E944F2F692FC7
:1040C00070E080E090E00E94C62D22E93AE046E0F0
:1040D0005FE30E94912E2B013C01612F70E080E094
:1040E00090E00E94C42D25E33AEF4EE05CE30E948D
:1040F000912E9B01AC01C301B2010E94AB2C9B012C
:10410000AC0186E0882E95E0A92E64E1C62E1CE75E
:10411000E12E19EDF12E00E210E4BE016F5F7F4F3A
:1041200089EB95E00E94451D182F04C010E0D12CAA
:1041300001C010E08091D2058130C9F4B81621F099
:104140008091B104813099F46091CC0585EC95E0C3
:104150000E94101EBE01635F7F4F85EC95E00E94B8
:10416000311D6091D40585EC95E00E94101E81E020
:10417000D81621F08091B1048130E1F46091CC0532
:104180008FEB95E00E94101EBE01695F7F4F8FEBA1
:1041900095E00E94311D6091D4058FEB95E00E945F
:1041A000101E8091D205813071F46091D40585ECA8
:1041B00095E007C081E0B81206C06091D4058FEB8E
:1041C00095E00E94101E113021F08091B1048130E1
:1041D00011F56091CC0589EB95E00E94101EBE019F
:1041E0006F5F7F4F89EB95E00E94311D6091D40590
:1041F00089EB95E00E94101E8091D205813031F448
:104200006091D40585EC95E00E94101E6091D40564
:104210008FEB95E009C081E0B81611F0D81206C006
:104220006091D40589EB95E00E94101E66960FB64A
:10423000F894DEBF0FBECDBFDF91CF911F910F91DC
:10424000FF90EF90DF90CF90BF90AF909F908F90B6
:104250007F906F905F904F9008951092D2050C94CC
:10426000351E91E09093D2050C94351EAF92BF920B
:10427000CF92DF92EF92FF920F931F93CF93DF9332
:10428000D82E862F91E03AE0632FA91218C00E9421
:104290004F2F182F842F0E944F2FF82E822F0E940D
:1042A0004F2FB82E802F0E944F2FA82E8E2D0E94A8
:1042B0004F2FE82E8C2D0E944F2FC82E17C00E9422
:1042C0004F2F192F842F0E944F2FF92E822F0E94DB
:1042D0004F2FB92E802F0E944F2FA92E8E2D0E9476
:1042E0004F2FE92E8C2D0E944F2FC92E1A1108C076
:1042F000FE1006C0BC1004C08091B1048823C9F12F
:10430000DDE0C0E091E01C1390E0FC1201C092607F
:10431000BC1201C0946081E0AC1280E0EC1201C0DC
:104320008260CC1201C08460981306C09091B104E1
:104330009130D9F48823C9F0E82FF0E0EE5CF94F12
:104340002491843018F40091D40502C00091CC056A
:1043500045E06D2D8D2F0E94370F0091D40520E090
:1043600045E06D2D8D2F0E94220CCF5FD45FCA30A7
:1043700049F6DF91CF911F910F91FF90EF90DF9061
:10438000CF90BF90AF900895EF92FF920F93CF938D
:10439000DF938091DA0581117DC08EE28093CE0596
:1043A00081E08093DA058091CC050E94831700910B
:1043B000D40522E034E040E061E081E00E94211277
:1043C00022E3E22E26E0F22ECEE0D0E0D33019F444
:1043D0000091CC0502C00091D405F701249145E07D
:1043E0006C2F8EE00E94370F0091D40520E045E04D
:1043F0006C2F8EE00E94220CD11103C00091D405D5
:1044000002C00091CC05F7013496249145E06C2F51
:1044100086E40E94370F0091D40520E045E06C2F20
:1044200086E40E94220CDF5FFFEFEF1AFF0AC25FF3
:10443000D43061F60091D40520E134E040E06CE036
:1044400089E10E9421129EE2E92E92E0F92EC6E156
:104450000091D405F701219131917F0140E06C2F4B
:1044600089E10E942112C95FC03491F78EE1E82EE4
:1044700082E0F82EC8E00091D405F7012191319136
:104480007F0140E06C2F81E50E942112C95FC0349A
:1044900091F702C01092DA05DF91CF910F91FF9052
:1044A000EF900895AF92CF92EF920F93CF93DF9357
:1044B00000D01F92CDB7DEB78091CE05813021F4B8
:1044C0008091B604813041F08091CE05882359F067
:1044D0008091DA05811107C081E00E946A0383E0C0
:1044E0000E946A0370C08091DA058130E1F4809106
:1044F000B604813009F067C08091CE058150809369
:10450000CE058091CE05BE016F5F7F4F0E941D04D6
:104510000091D4059E012F5F3F4F40E061E088E7A6
:104520000E94211250C040E06AE381E00E946E04C4
:104530008091B604811105C08091B104882309F4EB
:1045400042C0C090BD04E090BE040091BF04209121
:10455000C0044091C1046091C204AA24A3948DE0D8
:104560000E943621C090BD04E090BE040091BF04BB
:104570002091C0044091C1046091C204A12C89E142
:104580000E943621C090B704E090B8040091B904AD
:104590002091BA044091BB046091BC04AA24A39466
:1045A00085E20E943621C090B704E090B8040091E3
:1045B000B9042091BA044091BB046091BC04A12CC1
:1045C00081E30E9436210F900F900F90DF91CF91E1
:1045D0000F91EF90CF90AF900895AF92CF92EF925E
:1045E000FF920F931F93CF93DF9300D0CDB7DEB729
:1045F00080E389831A8210E00091D405145F9E0144
:104600002F5F3F4F40E061E0812F0E94211289819E
:104610008F5F8983183781F7A090D405CC24C39489
:10462000EE24E39409E514E021E040E06AE181E052
:104630000E942E12A090D40502E614E021E040E092
:1046400061E381E00E942E1210E0F12C8DE0E82E53
:10465000E10EF11002C01D3348F40091D40520E0B2
:1046600045E06DE06F0D8E2D0E94220C8CE0F80E5F
:1046700080E3F812EECF145F183739F71092CE05A9
:104680001092DA050F900F90DF91CF911F910F914B
:10469000FF90EF90CF90AF900895CF92DF92EF927E
:1046A000FF920F931F93CF93DF93D82FC42F122F16
:1046B00070E080E090E00E94C42D9B01AC0160E0BE
:1046C00070E080E891E40E941C2D6B017C016C2F4E
:1046D00070E080E090E00E94C62DA70196010E9444
:1046E000912E20E030E040E05FE30E94AB2C0E947E
:1046F000952DC62F612F70E080E090E00E94C62DBE
:10470000A70196010E94912E20E030E040E05FE397
:104710000E94AB2C0E94952D162FC61304C08091C9
:10472000B1048130F1F40091CC0588E0F82EFD0E43
:10473000C65921E042E06F2D8C2F0E94BF0F0091DF
:10474000CC056AE06D0F21E042E08C2F0E94BF0F84
:104750000091D40523E042E06F2D8AE6810F0E948C
:10476000BF0FDF91CF911F910F91FF90EF90DF90DE
:10477000CF9008950F931F93CF93DF938091B5044B
:10478000813029F08091B104813009F051C0C8E72F
:10479000D1E081E09091B9042981291305C090915D
:1047A000B8042A81291721F027968F5F843091F76A
:1047B0009091CB059817E1F18093CB0588818823F0
:1047C000C9F06B817C8180E00E94CB0F182F6D8136
:1047D0007E816115710521F080E00E94CB0F180FDA
:1047E00081E890E0811B910997FD01969595879549
:1047F000182F01C012E00091CC0527E040E860E0EE
:1048000080E00E94BF0F0091D4052B813C8140E0E5
:1048100061E0812F0E942112810F2D813E8121159F
:10482000310531F00091D40540E061E00E94211291
:10483000DF91CF911F910F9108950F93CF93DF9345
:10484000C82F8D7F843129F0CA3019F0CD3091F511
:1048500035C00091D40522E241E067E188E00E9482
:10486000BF0F0091D40521E043E568E389E00E9491
:10487000BF0FD8E14091D4056D2F87E00E94850DD0
:10488000DB5FDB33B9F7C43181F44091D40569E3D0
:1048900085E20E94850D4091D40569E380E40E9481
:1048A000850DCAE3D0E188E412C0CA3049F0C631B0
:1048B00039F0CCCFC83141F0C6E307C0CAE305C028
:1048C000CAE3DDE08BE403C0CBE3DAE08EE40091E1
:1048D000D40521E132E040E06C2F0E9421120091CA
:1048E000D40525E132E040E06C2F8CE20E942112D9
:1048F0000091D40529E132E040E06C2F8D2F0E9419
:104900002112DF91CF910F9108959F92AF92BF92A4
:10491000CF92DF92EF92FF920F931F93CF93DF938B
:1049200000D01F92CDB7DEB7421305C09091B104FD
:10493000992309F498C0B02EA22ED62EF82E642FFB
:1049400070E080E090E00E94C62D28E339EA4BEF4A
:104950005EE30E94912E20E030E040E05FE30E94A1
:10496000AB2C0E94952D962E6A2D70E080E090E091
:104970000E94C62D28E339EA4BEF5EE30E94912E98
:1049800020E030E040E05FE30E94AB2C0E94952DD8
:10499000162F961204C08091B104813031F521E0C8
:1049A000210F85E0E81218C00091D40566E3611B71
:1049B0004D2D8F2D0E949B131230B8F0C090D4055E
:1049C00067E3611B95E0E92E00E02FEF210F4EEF2A
:1049D0004D0D81E08F0D07C0C090D40566E3611BCB
:1049E00001E04D2D8F2D0E94BB0DBE016F5F7F4FEB
:1049F0008A2D0E941D040091D4058EE2A82EEA2C77
:104A0000E11A9E012F5F3F4F41E06E2D8F2D8B0DE0
:104A10000E9421120091CC0565E3611B21E04D2D20
:104A20008F2D0E94BF0F0091CC0527E04B2D6E2DDE
:104A30008F2D0E94BF0F0091CC054FEF4B0D81E0F1
:104A40008D0D8F0D27E06E2D8B190E94BF0F19154C
:104A500050F40091CC05292D211B6A2D69194D2D8B
:104A60008F2D0E94BF0F0F900F900F90DF91CF916D
:104A70001F910F91FF90EF90DF90CF90BF90AF907C
:104A80009F9008950F93CF93DF93EC01623001F56F
:104A90000091CC0520E344E660E180E00E94BF0F76
:104AA0000091D4059E0140E069E082E00E9421125D
:104AB000282F30E0213331050CF061C00091CC0586
:104AC00041E3481B25E069E08E5F0E94BF0F57C09D
:104AD0000091D40521E040E867E080E00E94BF0F2C
:104AE0000091D40521E040E86FE080E00E94BF0F14
:104AF0000091D40529E341E067E085E60E94BF0FFD
:104B00008FEF8093CB050E94BA230091D4059E01BC
:104B100040E069E082E00E9421120091D40527E67E
:104B200034E040E069E088E60E942112C2E1D0E072
:104B300029E132E00091D40540E06C2F89E60E9423
:104B400021120091D40527E046E166E06C0F88E66B
:104B50000E949B130091D40521E042E169E06C0FB3
:104B60008AE60E94BF0FDF5FC03349F0D13019F0F1
:104B700021E132E002C025E132E0C15FDBCFDF910D
:104B8000CF910F91089541E069E083E30E946E04A4
:104B90008091B604811104C08091B1048823C9F1C9
:104BA0000E94BA239091BF048091C204981304C05C
:104BB0008091B104813041F42091BF044091C2043E
:104BC0006BE380E30E944D239091BE048091C10469
:104BD000981304C08091B104813041F42091BE0447
:104BE0004091C1046BE381E20E944D239091BD048A
:104BF0008091C004981304C08091B104813041F4C5
:104C00002091BD044091C00467E182E10E944D23E0
:104C100081E008952F923F924F925F926F927F9220
:104C20008F929F92AF92BF92CF92DF92EF92FF92BC
:104C30000F931F93CF93DF9300D000D000D0CDB758
:104C4000DEB7641307C0201305C09091B104992307
:104C500009F44BC1902E122F842EB82E70E080E004
:104C600090E00E94C62D28E339EA4BEF5EE30E94F4
:104C7000912E20E030E040E05FE30E94AB2C0E94E8
:104C8000952D562E682D70E080E090E00E94C62D94
:104C900028E339EA4BEF5EE30E94912E20E030E0FA
:104CA00040E05FE30E94AB2C0E94952DA62E612F61
:104CB00070E080E090E00E94C62D28E339EA4BEFD7
:104CC0005EE30E94912E20E030E040E05FE30E942E
:104CD000AB2C0E94952D362E602F70E080E090E086
:104CE0000E94C62D28E339EA4BEF5EE30E94912E25
:104CF00020E030E040E05FE30E94AB2C0E94952D65
:104D0000462E531430F4F32CF51826E3D22ED31884
:104D100005C0F52CF31826E3D22ED518F11002C0E9
:104D2000FF24F394A41428F4242C2A1816E314194D
:104D300004C02A2C241816E31A19211002C02224B8
:104D400023945A1006C0341004C08091B1048130FD
:104D500081F4981418F001E082E002C000E083E0E2
:104D6000C090D405E82E222D4DE0612F8B2D0E949E
:104D7000BB0D092D081907FF05C08DE28983019538
:104D800021E001C020E00A306CF0E1E0F0E0EC0F3F
:104D9000FD1FE20FF11D802F6AE00E945B2F805DF6
:104DA00080832F5FE1E0F0E0EC0FFD1FE20FF11DCB
:104DB000802F6AE00E945B2F905D90832F5FE1E07F
:104DC000F0E0EC0FFD1FE20FF11D1082220F220F09
:104DD00099249A94920E0091D4058DE0882E89181A
:104DE00086946B2C680C9E012F5F3F4F40E05AEF7A
:104DF000752E710E672D862D0E9421120091CC0513
:104E000026E0482D672D8B2D0E94BF0F0091CC0509
:104E100026E0482D672D892D860D0E94BF0F5A1060
:104E200003C0341409F461C00091CC0521E04DE0C9
:104E30006FEF610F8B2D0E94BF0F8D2C912C8F2D4A
:104E400090E09E838D83612E712CD116C8F493015E
:104E500026503109880D991D8217930724F426E006
:104E60002F0D71F002C0212F2D19C090D40535E00F
:104E7000E32E02E04DE06AEF6D0D8B2D0E94BB0D1D
:104E800053100FC0A41468F45A100BC0C090D4057E
:104E900095E0E92E02E021E04DE06D2D8B2D0E9482
:104EA000BB0D620C711C8D819E81880D991D681649
:104EB0007906DCF495E0891A91086814790434F0D5
:104EC000622D610FFD0C2F2D261B04C026E02F0D37
:104ED0006AEF6D0D222349F0C090D40585E0E82EDD
:104EE00002E04DE08B2D0E94BB0D26960FB6F89484
:104EF000DEBF0FBECDBFDF91CF911F910F91FF900D
:104F0000EF90DF90CF90BF90AF909F908F907F9069
:104F10006F905F904F903F902F900895EF920F9376
:104F20000E94C325882399F12091BF044091C204B7
:104F300085E0E82E02E06FE089E40E94852400917C
:104F4000BF042091C2044091BE046091C1048BE370
:104F50000E940A262091BE044091C10402E06FE045
:104F60008BE20E9485240091BE042091C1044091EF
:104F7000BD046091C0048DE10E940A262091BD0409
:104F80004091C00402E06FE08DE00E9485240F9103
:104F9000EF900895682F82E894E00E9442258AE00D
:104FA0000C941D248F929F92AF92BF92CF92DF926A
:104FB000EF92FF92CF93DF93D82F70E080E090E0E4
:104FC0000E94C62D2BED3FE049E45FE30E94912E45
:104FD00024EE3BEC46E150E40E94AA2C4B015C011C
:104FE0000E94FE2E6B017C01C501B4010E94172DA9
:104FF000B090D405905826E636E646E551E40E9486
:10500000912E0E948E2DC4E2C60F26E636E646E5B6
:1050100051E4C701B6010E94912E0E948E2D862F69
:105020004B2D6C2F8D0FDF91CF91FF90EF90DF9084
:10503000CF90BF90AF909F908F900C94850D4F9222
:105040005F926F927F92AF92BF92CF92DF92EF9278
:10505000FF920F931F93CF93DF9300D01F92CDB792
:10506000DEB7641305C09091B104992309F493C08D
:10507000F42EE62E182F70E080E090E00E94C62DFE
:105080002CE739ED40EA5DE30E94912E24EE3BECE3
:1050900046E150E40E94AA2C2B013C010E94FE2E06
:1050A00026E636E646E551E40E94912E0E948E2DBA
:1050B000B62EC301B2010E94172D905826E636E69F
:1050C00046E551E40E94912E0E948E2DA62E6F2D52
:1050D00070E080E090E00E94C62D2CE739ED40EAB8
:1050E0005DE30E94912E24EE3BEC46E150E40E94E9
:1050F000AA2C2B013C010E94FE2E26E636E646E550
:1051000051E40E94912E0E948E2DD62EC301B20131
:105110000E94172D905826E636E646E551E40E9497
:10512000912E0E948E2DC62EBD1006C0A61204C060
:105130008091B1048130F1F40091CC0524E22A0D74
:105140004B2D410F64E2812F0E94E10F0091D405A5
:1051500024E22C0D4D2D410F64E2812F0E94E10FBE
:105160008E2D6AE00E944F2F911104C0682F812F6D
:105170000E94D227BE016F5F7F4F8F2D0E941D04BA
:105180000091D4059E012F5F3F4F41E06AE28BEF13
:10519000810F0E9421120F900F900F90DF91CF91FD
:1051A0001F910F91FF90EF90DF90CF90BF90AF9045
:1051B0007F906F905F904F9008950E94C325882341
:1051C000A9F04091BF046091C20483E50E941F28AA
:1051D0004091BE046091C10482E30E941F28409167
:1051E000BD046091C00481E10C941F2808950F93C1
:1051F000CF93DF93682F8AE894E00E944225C1E1B3
:105200000091D40520E04FE064E28C2F0E94220C34
:10521000D0E06D2F8C2F0E94D227DF5FD730C9F7E7
:10522000CF5DC43769F78BE0DF91CF910F910C947C
:105230001D24BF92CF92DF92EF92FF920F931F93A4
:10524000CF93DF93F82EE22E70E0042F10E082E07F
:10525000F81217C0072E000C880B990B0E94C62D60
:1052600020E030E040E45FE30E94912E20E030E057
:1052700040E850E40E94AB2CB62EC72ED82EC92F82
:105280001EC0072E000C880B990B0E94C62D2AE920
:1052900039E949E95EE30E94912E20E030E040E8E0
:1052A00050E40E94AB2CB62EC72ED82EC92FF11079
:1052B00006C00E94952DD4E3D60FC7E23DC02FEF64
:1052C0003FEF4FEF5EE36B2D7C2D8D2D9C2F0E94C9
:1052D000912E0E94952DD4E3D61B81E028ED33EB6F
:1052E0004DE55FE36B2D7C2DF8121EC08D2D9C2F9C
:1052F0000E94912E0E94952DC7E2C60FB801110F92
:10530000880B990B0E94C62D20E030E040E45FE35B
:105310000E94912E20E030E040E850E40E94AB2C47
:10532000B62EC72E8C0135C08D2D9C2F0E94912E3C
:105330000E94952DC7E2C61BB801110F880B990B6F
:105340000E94C62D2AE939E949E95EE30E94912EBF
:1053500020E030E040E850E40E94AB2C562F472F6D
:10536000382F292FB62EC72E082F192F82E0F812BA
:1053700010C0652F742F832F922F0E94952D44E328
:10538000460F0E2D27E26C2F8D2F0E94E10F24E196
:105390002FC02FEF3FEF4FEF5EE36B2D7C2DC80149
:1053A0000E94912E0E94952D84E3D82ED61A28EDC6
:1053B00033EB4DE55FE36B2D7C2DC801F11006C08A
:1053C0000E94912E0E94952D695D07C00E94912E2A
:1053D0000E94952D87E2861B682F0E2D2C2F4D2FB6
:1053E0008D2D0E94E10F81E0F81204C00E2D2AE3FA
:1053F0004AE203C00E2D2C2F4AE46C2F8D2F0E9401
:10540000E10FDF91CF911F910F91FF90EF90DF900F
:10541000CF90BF9008950F931F93CF93DF9300D049
:105420001F92CDB7DEB70E94C325882309F4D0C0F0
:105430009091BF048091C204981304C08091B1047C
:10544000813089F48091BF04BE016F5F7F4F0E945D
:105450001D040091D4059E012F5F3F4F41E061E2A2
:105460008FE40E9421129091BE048091C104981390
:1054700004C08091B104813089F48091BE04BE01E2
:105480006F5F7F4F0E941D040091D4059E012F5F26
:105490003F4F41E061E380E10E9421129091BD0401
:1054A0008091C004981304C08091B104813089F4C4
:1054B0008091BD04BE016F5F7F4F0E941D0400916B
:1054C000D4059E012F5F3F4F41E061E180E10E94E2
:1054D00021129091BF048091C204981799F1909184
:1054E000BE048091C10498132DC09091BD04809199
:1054F000C004981327C08091B104811123C060912A
:10550000C2041091BF0470E080E090E00E94C62DBC
:105510002AE939E949E95EE30E94912E0E94952D1E
:10552000062F612F70E080E090E00E94C62D2AE9EE
:1055300039E949E95EE30E94912E0E94952D0617F4
:1055400009F446C02091CC054091C1046091C20489
:1055500080E00E9419292091CC054091C0046091FF
:10556000C10481E00E9419292091CC054091C20418
:105570006091C00482E00E9419292091D4054091D5
:10558000BE046091BF0480E00E9419292091D405D7
:105590004091BD046091BE0481E00E9419292091D0
:1055A000D4054091BF046091BD0482E00E94192996
:1055B0000091D40523E04AE067E284E30E94220CD4
:1055C0000091D40521E040E167E284E30E94220CCF
:1055D0000F900F900F90DF91CF911F910F91089531
:1055E0000F93682F85E994E00E9442250091D4052D
:1055F00020E046E167E284E30E94220C0091D4059A
:1056000021E132E040E069E28FE40E942112009142
:10561000D40525E132E040E069E38FE00E942112E9
:105620000091D40529E132E040E069E18EE00E947A
:1056300021124091D40567E284E30F910C94850D0B
:10564000FF920F931F93CF93DF93182F842FF09027
:10565000D4050E944F2FD82F822F0E944F2FD8138E
:1056600004C09091B1049923B9F1C82F0091D405D9
:105670008CE0D89FD02D1124D75E25E045E06D2F1A
:10568000812F0E94370F0091D40520E045E06D2F57
:10569000812F0E94220CCC2339F0C13039F410FD47
:1056A00007C0F090CC0504C023E003C022E001C095
:1056B00021E08CE0C89FC02D1124C75E0F2D45E06E
:1056C0006C2F812F0E94370F0091D40520E045E018
:1056D0006C2F812F0E94220CDF91CF911F910F918F
:1056E000FF9008950E94C3258823C1F02091BF0434
:1056F0004091C20464E183E50E94202B2091BE0406
:105700004091C10464E182E30E94202B2091BD04FA
:105710004091C00468E081E10C94202B08950F9320
:105720001F93CF93DF93682F81EA94E00E94422574
:10573000C9E00091D40527E241E162E18C2F0E948B
:105740009B13D9E118E01C0F0091D40520E045E03F
:105750006D2F812F0E94220CD45FDD33A9F7CF5D1E
:10576000CC3639F78DE0DF91CF911F910F910C94DA
:105770001D24789464E680EA9FE00E945F192FEF71
:1057800080E792E0215080409040E1F700C00000A7
:1057900064E680EA9FE00E945F192FEF89E698E1B6
:1057A000215080409040E1F700C00000E3CF14BEDC
:1057B0000FB6F894A895809160008861809360008E
:1057C000109260000FBE8AE190E00E94B31B3B9AEA
:1057D0008CE38093DD050E94A21B0E94851986E060
:1057E00090E00E94D22F81708093CC059091CC05DF
:1057F00081E0911180E08093D40587E090E00E94E1
:10580000D22F83708093A7058091A70543ED55E0C3
:105810006DEC75E00E9413190E9445050E94E7187F
:1058200082E084BD83E085BD8DE787BD80916E00F9
:10583000826080936E00539A80E28093B0008091E2
:10584000B00083608093B0008091B1008860809345
:10585000B10080E18093B30081E090E00E94D22FFC
:105860008093B400259A64E680EA9FE00E945F1965
:105870009FE088E10FB6F894A895809360000FBE72
:10588000909360008091CC050E94A0170E940505AE
:105890000E94001A81E00E946A03CBE4D4E008E58C
:1058A00012E080E6E82E89E0F82EC093B1058091E1
:1058B000C9048823B9F08091A805813099F49091AA
:1058C000C90490FF03C08093B20535C01093A405AE
:1058D0000093A305F092A605E092A5051092810021
:1058E000439829C08091C90480FF06C00E94AE077A
:1058F0000E94001A81E01DC08091C90481FF08C088
:105900008091C9040E945503811102C0D093C9043B
:105910008091C90482FF0FC0D090B0040E9405049A
:105920009091B004D91205C08091C9040E9455031A
:1059300002C00E946A031092C90483E00E946A03B5
:105940008091B1058111FCCF8091B2048F5F80936B
:10595000B204ABCF5058BB27AA270E94C22C0C948C
:10596000432E0E940A2E38F00E94112E20F039F4A6
:105970009F3F19F426F40C94072E0EF4E095E7FBF4
:105980000C94012EE92F0E94682E58F3BA17620773
:1059900073078407950720F079F4A6F50C948A2EF6
:1059A0000EF4E0950B2EBA2FA02D0B01B90190013A
:1059B0000C01CA01A0011124FF27591B99F0593F7E
:1059C00050F4503E68F11A16F040A22F232F342FC6
:1059D0004427585FF3CF469537952795A795F04014
:1059E0005395C9F77EF41F16BA0B620B730B840B29
:1059F000BAF09150A1F0FF0FBB1F661F771F881FE1
:105A0000C2F70EC0BA0F621F731F841F48F4879538
:105A100077956795B795F7959E3F08F0B0CF93952A
:105A2000880F08F09927EE0F9795879508950E94A3
:105A30001A2EE3950C94542E0E94302D0C94432E74
:105A40000E94112E58F00E940A2E40F029F45F3F68
:105A500029F00C94012E51110C948B2E0C94072ECE
:105A60000E94682E68F39923B1F3552391F3951B97
:105A7000550BBB27AA2762177307840738F09F5F6F
:105A80005F4F220F331F441FAA1FA9F335D00E2EDC
:105A90003AF0E0E832D091505040E695001CCAF749
:105AA0002BD0FE2F29D0660F771F881FBB1F26170C
:105AB00037074807AB07B0E809F0BB0B802DBF01E3
:105AC000FF2793585F4F3AF09E3F510578F00C94B2
:105AD000012E0C948B2E5F3FE4F3983ED4F3869511
