:100000000C9463030C9480030C9480030C94FB0504
:100010000C9480030C9480030C9480030C94800354
:100020000C9480030C94621B0C9480030C94741940
:100030000C9480030C9462190C9471180C94800336
:100040000C9480030C9480030C9480030C94800324
:100050000C9480030C945D050C9480030C94800335
:100060000C94B7150C94800305A84CCDB2D44EB9AE
:100070003836A9020C50B9918688083CA6AAAA2A4B
:10008000BE000000803F01000000000001170000DA
:100090000000030300030000050A1F0A1F0A0502EF
:1000A000151F1508031904130000040204020000C0
:1000B000010300000000020E1100000002110E00FA
:1000C0000000030A040A000003040E0400000210EA
:1000D00008000000030404040000011000000000F8
:1000E000031804030000031F111F000003121F1058
:1000F0000000031D151700000315151F000003075E
:10010000041F00000317151D0000031F151D00002C
:1001100003011D030000031F151F00000317151F17
:100120000000010A0000000002100A0000000204A2
:100130000A000000030A0A0A0000020A0400000084
:10014000030115020000040E04020000031E051E38
:100150000000031F150A0000030E11110000031F09
:10016000110E0000021F15000000021F0500000014
:10017000030E111D0000031F041F0000011F0000DB
:10018000000002100F000000031F041B0000021FEC
:1001900010000000051F0204021F041F02041F00BC
:1001A000030E110E0000031F050200000402151DBE
:1001B0001200031F051A00000312150900000301B5
:1001C0001F010000031F101F0000030F100F00008D
:1001D000050F100C100F031B041B000003031C036E
:1001E0000000031915130000021F11000000031482
:1001F0000814000002111F000000030201020000A9
:1002000003101010000002010200000003041F117F
:100210000000011F0000000003111F04000004047F
:10022000150E040004040E15040000000000000078
:10023000005F00000007000700147F147F14242AC9
:100240007F2A1223130864623649552250000503A1
:100250000000001C2241000041221C00082A1C2A28
:100260000808083E08080050300000080808080880
:10027000006060000020100804023E5149453E0025
:10028000427F400042615149462141454B3118149B
:10029000127F1027454545393C4A494930017109CB
:1002A00005033649494936064949291E00363600B4
:1002B00000005636000000081422411414141414CF
:1002C00041221408000201510906324979413E7E5B
:1002D0001111117E7F494949363E414141227F41FA
:1002E00041221C7F494949417F090901013E4141A1
:1002F00051327F0808087F00417F41002040413F84
:10030000017F081422417F404040407F0204027F69
:100310007F0408107F3E4141413E7F090909063EA6
:100320004151215E7F091929464649494931010158
:100330007F01013F4040403F1F2040201F7F201889
:10034000207F631408146303047804036151494552
:100350004300007F4141020408102041417F00001A
:100360000402010204404040404000010204002019
:10037000545454787F4844443838444444203844E2
:1003800044487F3854545418087E09010208145414
:10039000543C7F0804047800447D40002040443DE4
:1003A00000007F10284400417F40007C041804783E
:1003B0007C0804047838444444387C141414080835
:1003C0001414187C7C080404084854545420043F36
:1003D0004440203C4040207C1C2040201C3C4030BD
:1003E000403C44281028440C5050503C4464544C29
:1003F00044000836410000007F000000413608003C
:1004000008082A1C08081C2A08084932433A2042D6
:1004100055535F4552524F520D0A004932433A201C
:100420004E4F5F494E464F0D0A004932433A205322
:10043000542D3E444154415F4E41434B206F722046
:100440004C4153545F444154410D0A004932433AF0
:100450002053542D3E444154415F41434B0D0A000B
:100460004932433A2053542D3E534C415F41434B54
:100470000D0A004932433A2053522D3E53525F53E6
:10048000544F500D0A004932433A2053522D3E44F6
:100490004154415F4E41434B0D0A004932433A20DB
:1004A00053522D3E444154415F41434B0D0A004994
:1004B00032433A2053522D3E534C415F41434B0D42
:1004C0000A004932433A204D522D3E534C415F4180
:1004D000434B0D0A004932433A204D522D3E4441D0
:1004E00054415F41434B0D0A004932433A204D5479
:1004F0002D3E4152425F4C4F53540D0A0049324346
:100500003A204D54522D3E534C415F4E41434B20B7
:100510006F72204D542D3E444154415F4E41434B38
:100520000D0A004932433A204D522D3E4441544178
:100530005F4E41434B0D0A004932433A204D542D42
:100540003E534C415F41434B206F72204441544124
:100550005F41434B0D0A004932433A204D2D3E5333
:10056000544152540D0A00C3080010010501000057
:10057000090F0A1E0B2D00000E0E1D0E1D2B0F3A2B
:100580000E2B0F480A520F610A520F000E0E1D0E5D
:100590001D6B0E790D6B0E8610030303030303031B
:1005A0000303030603030603030303060303030312
:1005B000030303030303030303030303030303030B
:1005C00003030306060303030303030303030303F5
:1005D00003030306030303030303030303030303E8
:1005E000060603030303060303060C0303030303C6
:1005F00003030303030303030306030303030303C8
:1006000003030C0C030303030603030303030303A5
:10061000030604040404040403030303030306039E
:1006200003030304040403030303030C0C0C0C92E4
:1006300092009200749200AE000057000074000017
:10064000570049000062006E006862005792AEC415
:10065000009BAE00920074826E0000AEA49B8A00E4
:1006600092005C62740062748200AEA49B8A009265
:1006700000E800E8E80000008A0000820074000042
:100680000074740074007482009274006257000059
:100690007474007400748292000092740057005CBD
:1006A00000629B009B6200006EC4C4C4AE9B927447
:1006B00000625700006E9B009B9B92827449004928
:1006C0003A000000000011241FBECFEFD8E0DEBFCB
:1006D000CDBF14E0A0E0B1E0E0EBF3E602C005908E
:1006E0000D92AC3DB107D9F726E0ACEDB4E001C006
:1006F0001D92A431B207E1F70E94EC2D0C94D63183
:100700000C940000809102068093030680910706F6
:100710008093FC0580910606809301068091000677
:100720008093F4058091F6058093EE058091F105A4
:100730008093EC0508959091DC04E0910001F09124
:10074000010128E0929FE00DF11D11240680F78140
:10075000E02D309719F0099581E0089580E0089523
:100760001F93CF93DF93182F8091DC04C091000179
:10077000D091010198E0899FC00DD11D1124809175
:10078000C7058093DF048091C8058093E1048091C0
:10079000E1048130C1F480910E06809302068091BD
:1007A0000F068093070680911006809306068091BD
:1007B000110680930006809112068093F6058091C1
:1007C00013068093F1058881882309F446C013300D
:1007D00099F51092E0048091C105813059F490910F
:1007E000F0059130E9F08093F0058093E0041092D9
:1007F000E20416C0909100068091F40598130AC097
:100800009091F6058091EE05981304C08091F00553
:10081000823031F082E08093F00581E08093E00443
:10082000EC81FD8109958091E104813011F40E94F1
:1008300082031092DD0411C0113041F41092F005D2
:100840008091EB050E9437180E94820381E080931B
:10085000DD04EA81FB81812F09958091E1048130DB
:1008600021F41092E1041092C805DF91CF911F91FD
:1008700008958091DC048F5F8093DC048091DC0418
:10088000893010F01092DC048091DC04E0910001CA
:10089000F091010198E0899FE00DF11D1124818103
:1008A0000895FB016AE00E943D31805D8083905D88
:1008B000918312820895CF92DF92EF92FF920F936D
:1008C0001F93CF93DF9300D000D000D0CDB7DEB719
:1008D000182FF62EE42ED090DE048091E0048130B3
:1008E00009F062C08091F0058130F1F48091ED054E
:1008F000BE016F5F7F4F0E9451048AE38B8380911A
:10090000F705BE016C5F7F4F0E9451040091F8050E
:100910009E012F5F3F4F40E06F2D812F0E948C1270
:1009200091E0E916B1F140C00091EB0527E043E109
:100930006FEF6F0D8FEF810F0E9414101092E20481
:1009400081E0E81231C080E289830091F805E091EE
:10095000F605F0E0EE0FFF1FEA5AFE4F20813181CD
:1009600040E06F2D812F0E948C12E82E80910006AE
:10097000BE016E5F7F4F0E9451040091F8059E01F9
:100980002F5F3F4F40E06F2D8E2D810F0E948C1204
:100990008E0D873148F40091EB0547E1481B25E0B7
:1009A0006F2D810F0E9414108091DF049091E2045A
:1009B000813061F42D2D2F7030E0283031050CF49A
:1009C00080E08917A1F08093E20404C0913079F4AB
:1009D0001092E204C090EB056FEF6F0D84E0E82EFB
:1009E00002E027E043E18FEF810F0E94100E269670
:1009F0000FB6F894DEBF0FBECDBFDF91CF911F9130
:100A00000F91FF90EF90DF90CF9008950F9300919A
:100A1000F80529E432E041E06EE081E20E948C12A8
:100A20000091F80524E532E041E06EE182E10E94A8
:100A30008C122FEF8DE399E4215080409040E1F734
:100A400000C0000064E686EA9EE00E94231A64E685
:100A500080EA9FE00F910C94231A80917A00877F9F
:100A600080937A0080917A00806480937A008091EC
:100A70007A0084FFFCCF80917800909179000895EE
:100A8000EAE7F0E0808188648083089526982E9AB2
:100A900081E080936800EBE6F0E0808180648083F1
:100AA00082E080937C0010927B00EAE7F0E08FE820
:100AB000808380818064808308951F920F920FB697
:100AC0000F9211242F933F934F935F936F937F93D4
:100AD0008F939F93AF93BF93EF93FF9378948091FD
:100AE000780090917900803E22E0920770F0109299
:100AF000E7041092E9048091E404813021F48093AA
:100B0000E3041092E40484E163C0833622E0920798
:100B100070F18091E90482FD5AC08FE19EE4019753
:100B2000F1F700C000000E942D05825692408E37DA
:100B3000910508F04CC08AEF8093E5048091E504AC
:100B4000882369F00E942D05825692408E379105C8
:100B5000A8F31092E90484E08093E80438C010926E
:100B6000E80484E08093E9048093E70430C08F3088
:100B70009140B0F08091E90481FD10C08FE19EE4C6
:100B80000197F1F700C000000E942D058E509140A2
:100B900085359140E0F482E08093E80482E013C060
:100BA0008091E90480FD0EC08FE19EE40197F1F78A
:100BB00000C000000E942D058F30914040F481E07C
:100BC0008093E80481E08093E9041092E70482E0D6
:100BD0008093E604FF91EF91BF91AF919F918F9128
:100BE0007F916F915F914F913F912F910F900FBE29
:100BF0000F901F9018951F920F920FB60F9211240D
:100C000078940F900FBE0F901F9018959091E30469
:100C1000913021F41092ED041092E3049091E704D6
:100C2000992369F091E09093E4049091ED049A3057
:100C300020F49F5F9093ED0404C08E5F03C0109278
:100C4000ED048F5F861718F00E943D31892F0895BB
:100C50000F931F93CF93DF938C01EB0166E080E04D
:100C60000E94E317C8010E94C514209759F067E05D
:100C700080E00E94E317CE01DF91CF911F910F9189
:100C80000C94C514DF91CF911F910F9108950F938C
:100C90001F93CF93DF93EC018B0166E080E00E940D
:100CA000E31787EB92E00E94C514CE010E94C514A1
:100CB00067E080E00E94E3178AEC92E00E94C5148E
:100CC000C801DF91CF911F910F910C94C5140F9320
:100CD0001F93CF93DF93C82F062F142FD22F63E0DB
:100CE00088E00E94E3178CED92E00E94C5144C2F1F
:100CF000612F802F0E94681AA82FB0E0AA0FBB1F97
:100D0000A65BBE4F8D919C910E94C514DC3019F4F6
:100D10006091EB0502C06091F805E02FF0E0EE0F66
:100D2000FF1FEA5AFE4F808191810E94B51480E234
:100D30000E94C914812FDD3019F40E94AD1402C045
:100D40000E94B1148CE20E94C91484E1DE3049F49F
:100D50000E94AD148C2FDF91CF911F910F910C94B5
:100D6000AD140E94B1148C2FDF91CF911F910F9180
:100D70000C94B1140F93CF93C82F0091F80521E084
:100D800047E0682F80E00E9414100091F8056FEF93
:100D90006C0F23E041E085E00E941B140091F805F0
:100DA0006EEF6C0F25E041E084E00E941B14CF91B0
:100DB0000F9108958091E704882349F02FE789EA8D
:100DC00093E0215080409040E1F700C0000008957A
:100DD0008091E8048093EC041092E80480FD16C032
:100DE00081FF03C01092ED0406C0811104C0809100
:100DF000E704882321F08AE08093EA0405C09091FB
:100E0000EA0481E0992319F080E0089581E00895D3
:100E1000CF93C82F64E088E00E94E31782EE92E04F
:100E20000E94C5148091EB05811108C088E493E00D
:100E30000E94C5146C2F80EF92E003C06C2F87EFE7
:100E400092E0CF910C94B51462E080E50E94E31724
:100E500080910A060E94B1148AE30E94C91480910D
:100E600009060E94B1148AE30E94C9148091080601
:100E70000C94B114AF92BF92CF92EF920F93CF9395
:100E8000DF93EC015B0181E08093EB0460E080E0A4
:100E90000E94E3178FEF92E00E94C514C090EB050B
:100EA000E12C00E028E042E060E08EE70E94100EB6
:100EB00061E088E00E94E31785E193E00E94C51499
:100EC00062E088E00E94E3178AE293E00E94C51482
:100ED0000E94240740910B0660910C0680910D063C
:100EE00027E00E9467068091F8050E94080765E0E8
:100EF00088E00E94E31787E393E00E94C514809185
:100F0000B4000E94B114B501CE010E942806C09021
:100F1000EB0520E142E060E38EE70E94100EC090F6
:100F2000EB0528E248E068E080E00E94100E109295
:100F3000EB04DF91CF910F91EF90CF90BF90AF90E6
:100F400008959F92AF92BF92CF92DF92EF92FF925D
:100F50000F931F93CF93DF9300D000D0CDB7DEB7B0
:100F600081E08093EB048091EB050E94371810928A
:100F7000EB046AE473E080E693E00E943A078AE0BB
:100F80008093EA041092E8041092ED048091C00569
:100F9000853009F4A9C1D0F4882391F1843009F097
:100FA000B2C387E08093C00510910B06F0900C0649
:100FB000D0900D0681E08093EB048BE10E94BA068D
:100FC0001092EB0407E0CC24C39437C2873009F4B5
:100FD000DEC28F3009F097C388E08093C00581E0BE
:100FE0008093EB0460E070E089EA93E00E942806B9
:100FF0008BE20E94BA061092EB0418E001E03AC3BB
:1010000085E08093C00581E08093EB048BE00E9433
:10101000BA061092EB040E94E806813009F46FC30F
:101020008091EC0481FFF7CF81E08093EB043AE0FC
:10103000B32E42E1A42E52E0952EB092EA04109213
:10104000ED048091C0058131E9F048F4853081F0EC
:10105000803121F581E18093C00581E01CC082319F
:10106000B1F08331D9F484E18093C00584E013C0EA
:1010700080E18093C0058091EB050E9437181092A3
:10108000EE0410C0A092C0059092EE040BC083E164
:101090008093C00583E08093EE0404C085E08093D4
:1010A000C0052DC3F090C60560E080E00E94E31704
:1010B00086E793E00E94C51400E011E0100F612F55
:1010C00088E00E94E31787E893E00E94C514812F0F
:1010D0000E94B1148EE893E00E94C514AE014F5FE8
:1010E0005F4FBE016E5F7F4F802F0E94C2198A81C1
:1010F0000E94B1148AE30E94C91489810E94B1142C
:10110000143011F0012FD9CF65E088E00E94E31779
:1011100086E993E00E94C5148091C6058F5F0E9406
:10112000B1148091C0056AE473E0843119F080E65F
:1011300093E002C089EA93E00E942806C090EB0584
:10114000E12C00E028E247E068E080E00E94100E19
:101150008091EE04880F880F880F855F0E94BA0681
:101160008091EE04843041F0AE014D5F5F4FBE01CF
:101170006C5F7F4F0E94C21915E00E94E806813023
:1011800009F4ADC08091EC0481FF55C01530E1F445
:101190008091EE04843081F465E084E70E94E317D7
:1011A00081E08F0D0E94AD146FEB73E084EC93E04F
:1011B0000E94470614E13FC068EC73E08DEC93E0B9
:1011C0000E94470615E637C0153641F461ED73E01D
:1011D00086ED93E00E94470616E62DC0143181F497
:1011E00065E084E70E94E31781E08F0D0E94B1144F
:1011F0006F2D8FE090E00E94C831F092C60506C0C6
:101200004B816C818091EE040E94F1198091C005A0
:101210006AE473E0843119F080E693E002C089EA61
:1012200093E00E94280647EF55E06DEE75E08F2DA4
:101230000E94C21915E08091EC0482FD04C08091E7
:10124000E704882309F1143171F4F39483E08F15D6
:1012500008F4F12C65E084E70E94E31781E08F0D2C
:101260000E94AD1411C0153641F48C818F5F8C83C0
:101270008C81883148F01C8207C0163629F48B8196
:101280006CE30E9406068B838091EC04811104C0FC
:101290008091E704882301F16091EE046430E1F06D
:1012A0000B81DC806F5F82E60E94E3178D2D15367F
:1012B00019F40E94AD1402C00E94B1146091EE04B2
:1012C0006F5F84E70E94E317802F163619F40E949F
:1012D000AD1402C00E94B1140E94DA064ECF809174
:1012E000EA048111AACE14C084E08093C005F09076
:1012F0000A06D0900906C090080681E08093EB04AE
:1013000083E10E94BA0614E00E94E806813019F4D5
:101310001092EB04F4C18091EC0481FF36C01430CC
:1013200041F468EC73E08DEC93E00E94470615E60B
:101330002CC0153641F461ED73E086ED93E00E9418
:10134000470616E622C0163641F46AED73E08FEDCB
:1013500093E00E94470617E618C06AE473E080E64F
:1013600093E00E942806F0920A06D0920906C092E5
:101370000806E0900D0600910C0620910B064F2DFB
:101380006D2D8C2D0E942A1C14E00091EC0402FDAE
:1013900004C08091E7048823B9F0153631F4F39442
:1013A00087E18F1588F4F12C0FC0163631F46CE309
:1013B0008D2D0E940606D82E07C0173629F46CE33F
:1013C0008C2D0E940606C82E011104C08091E704EE
:1013D000882311F162E080E50E94E3178F2D153616
:1013E00019F40E94AD1402C00E94B1148AE30E9455
:1013F000C9148D2D163619F40E94AD1402C00E9436
:10140000B1148AE30E94C9148C2D173619F40E9476
:10141000AD1402C00E94B1140E94DA0675CF80910B
:10142000EC0481FD0FC08091EC0482FD4CC08091E2
:10143000E704811148C00E94DA060E94E806813064
:1014400071F75DC1C092EB04073041F463EE73E0C5
:1014500088EE93E00E9447060CE02CC00C3041F46B
:101460006CEE73E081EF93E00E9447060DE022C02E
:101470000D3041F465EF73E08AEF93E00E94470678
:101480000EE018C06AE473E080E693E00E9428064C
:10149000D0920D06F0920C0610930B0640910A06AE
:1014A0006091090680910806ED2C0F2D212F0E94D6
:1014B0002A1C07E0202F412F6F2D8D2D0E946706DB
:1014C0001092EB04B0CF0E3089F464E68D2D0E94AB
:1014D0000606D82E90E00E94A91A81114DC082E024
:1014E000F8124AC01D3108F447C041C00C3001F564
:1014F00081E08F0D8D30C0F5823071F41E3108F01F
:101500001DE18D2D90E00E94A91A22E0F22E81119A
:1015100033C01D3161F130C0843031F0863021F0AC
:101520009F2D9D7F983029F51F3118F11EE121C0B4
:101530000D3011F51F5F1032F0F482E0F8120BC08D
:101540001E31C8F48D2D90E00E94A91A811114C09B
:101550001D3189F011C08F2D8D7F843011F08930BD
:1015600059F41F3141F008C0FF24F39405C01CE179
:1015700003C0F82E01C011E0C092EB04202F412FD0
:101580006F2D8D2D0E9467061092EB0454CF8FE0D3
:101590008093C00581E08093EB0483E20E94BA0649
:1015A0001092EB041FE001E00E94E806813029F46C
:1015B0006091EB0588E090E065C08091EC0481FFCC
:1015C0001DC00093EB041F3061F48091EB050E9475
:1015D00008076EEF73E084E194E00E9428061AE6A3
:1015E0000BC08091F8050E9408076AE473E080E66A
:1015F00093E00E9428061FE01092EB048091EC0417
:1016000082FD04C08091E7048823D9F01A36C9F41A
:101610008091EB059091F8059093EB058093F80588
:101620006EEF73E084E194E00E943A070093EB04CC
:1016300083E20E94BA068091EB050E94080710928F
:10164000EB040E94DA06B0CF8091EC0481FD1DC04E
:101650008091EC0482FD33C08091E70481112FC09A
:101660008091EC04811139C08091E704811135C06B
:101670000E94DA060E94E806813031F76091B400DA
:1016800083E090E00E94C8313AC00093EB0465E02B
:1016900084E70E94E317183041F46EEF73E084E1B1
:1016A00094E00E94280619E607C06AE473E089EA1C
:1016B00093E00E94280618E01092EB04C9CF193677
:1016C00079F68091B4008F5F8093B4008091B4006C
:1016D000813130F21092B400C3CF0093EB0465E087
:1016E00084E70E94E3178091B400193619F40E9430
:1016F000AD1402C00E94B1141092EB04B9CF8091D6
:10170000EA04811136CC1092C0050F900F900F9013
:101710000F90DF91CF911F910F91FF90EF90DF908D
:10172000CF90BF90AF909F900895E82FF0E0EC50DD
:10173000FB4F677081E090E0062E01C0880F0A948D
:10174000EAF79081982B908308952091F20490916C
:10175000F104291779F09091F304E091EF04F091EE
:10176000F004911103C0EA57FF4F02C0E65DFD4F40
:10177000E49101C0E0E0811101C0E0958E2F089551
:10178000DF92EF92FF920F931F93CF93DF93082F77
:10179000D42E0E94E31784EFE82E84E0F82EE701B0
:1017A00010E0045F14408C2F8E198D1588F4882367
:1017B00039F0C8018C0F9D1F8F739927892B11F465
:1017C0000E94B0170E94B01789930E94F217EBCFC6
:1017D000DF91CF911F910F91FF90EF90DF900895CF
:1017E0009091F304282F30E091111DC09FE9980FCC
:1017F0009A3120F08B3720F08AE103C080E201C0EB
:1018000080E020523109281B310946E0429FC00187
:10181000439F900D1124FC01EA57FF4FE491E093A0
:10182000F1040196089545E04093F10420523109F6
:10183000429FC001439F900D112408952F923F9223
:101840004F925F926F927F928F929F92AF92BF92D0
:10185000CF92DF92EF92FF920F931F93CF93DF937C
:10186000CDB7DEB72F970FB6F894DEBF0FBECDBF52
:10187000B82EA62E842E2A830C83262F30E03F8795
:101880002E87242F30E08E859F85820F931F13E0D3
:10189000959587951A95E1F78F8391E09B839A81BF
:1018A000923009F01B8280E0E82FF0E0EC5CFA4F08
:1018B00010828F5F8816C0F78E859F85821B930BE1
:1018C000B3E095958795BA95E1F78887282D2195FE
:1018D000220F2D5F2983612C712C2B2D30E03E834C
:1018E0002D8330E43B1939879B2D990F9A872FEF71
:1018F0002B0D2B873884360C9F81931508F438C143
:10190000982C598100E01FEF212C90E0E32CF12C62
:1019100099160CF4B4C03A81332351F0333019F4E2
:10192000222031F095C0892F81702B81821390C0C5
:10193000C92CDD24C7FCD0942E853F852C0D3D1D80
:10194000A3E035952795AA95E1F72E153F0561F49B
:10195000692D6A0D80E4890F5D879C870E94950B35
:1019600081E05D859C8501C080E06E857F856C1976
:101970007D09F3E075956795FA95E1F7492E5524B1
:1019800047FC50946E157F0559F46A2D691980E45F
:10199000890F5D879C870E94950B5D859C8502C0A1
:1019A000813091F46D817E81640D751DE12FF0E031
:1019B0006E177F0714F4192F1B0DE02FF0E0E617C8
:1019C000F70714F4092F0B0D6E857F85640D751DC7
:1019D000E3E075956795EA95E1F76E157F0561F48B
:1019E000692F6A0D80E4890D5D879C870E94950BA5
:1019F00081E05D859C8501C080E02E853F852419AE
:101A0000350943E0359527954A95E1F72E153F05B1
:101A100059F46A2D691B80E4890D5D879C870E94BB
:101A2000950B5D859C8502C0813091F42D813E81AE
:101A3000C20ED31E212F30E0C216D30614F4192D86
:101A40001B0D202F30E02C153D0514F4092D0B0D36
:101A500057FF06C05A5F892F880F880F580F07C09D
:101A6000565F892F8919880F880F580F9A949F5FA6
:101A700032E0231611F023944BCF212C49CF1F3F86
:101A800009F472C041E0400F411B632D812F0E9479
:101A9000C00B632D812F0E94E317F984F10EE12C16
:101AA000C02ED12CC11AD1082E2D2F0D8E2D90E0D5
:101AB000C816D906B4F030E0FC01EC50FB4F9C8115
:101AC000D901AC50BB4F913021F49C918081892B7E
:101AD00004C08C918095908189230E940618E3941C
:101AE000E3CFFB2CF01A0F2D0B0DEA84E11AEB105B
:101AF00002C08B8501C08E2D801758F041E0401B3D
:101B0000480F632D802F0E94C00B632D802F0E94F1
:101B1000E31790E4D92EDF18C12CF12CE01AF1085C
:101B20002D2D2C198C2D90E0E816F906ECF0022FE3
:101B300010E0203499F0FC01EC50FB4F2C81D801CF
:101B4000AC50BB4F213021F49C918081892B04C083
:101B50008C918095908189230E940618F801EC50A1
:101B6000FB4F1082C394DCCF3FEF631A730AC2CEDF
:101B70002F960FB6F894DEBF0FBECDBFDF91CF9189
:101B80001F910F91FF90EF90DF90CF90BF90AF909B
:101B90009F908F907F906F905F904F903F902F908D
:101BA0000895EF92FF920F931F93CF93DF931F92AD
:101BB000CDB7DEB7182F862F8770EE24E394F12C73
:101BC00001C0EE0C8A95EAF7062F06950695069554
:101BD000602F812F49830E94E3170E94B0170E9453
:101BE000B0174981413011F4E82A02C0E094E8229C
:101BF0008E1571F0602F812F0E94E3178E2D0F90AC
:101C0000DF91CF911F910F91FF90EF900C940618E8
:101C10000F90DF91CF911F910F91FF90EF9008955A
:101C20002F923F924F925F926F927F928F929F92EC
:101C3000AF92BF92CF92DF92EF92FF920F931F93DA
:101C4000CF93DF93CDB7DEB72B970FB6F894DEBFF7
:101C50000FBECDBF982E842EB22E3E2DA62EA6945A
:101C6000A694A694462F4770242E011117C0323037
:101C700039F4842F63E00E943D31F92EF1942DC098
:101C8000333031F4842F6E2D0E943D31F92E26C160
:101C9000313009F022C16170F62E20C1013051F5BA
:101CA000323079F4842F90E0820F911D91958195C7
:101CB000910963E070E00E946B31FF24F394F80E09
:101CC0000CC0333061F4842F90E0820F911D019796
:101CD00063E070E00E946B31F82ED12C22C03130CD
:101CE00009F0FBC0FF24F394F20EF40E5F2D517047
:101CF000F52EF4C0023009F0F0C0D82E323029F4AD
:101D0000862F90E0841B910907C0333009F0E8C0AA
:101D1000842F90E0861B910963E070E00E946B3194
:101D2000F82EF7FE02C083E0F80E712CE12C412C56
:101D3000312CAB2DB0E0BB83AA8308E010E0BEEFEE
:101D4000B30FBC83ED2DFF27E7FDF095FE83ED83F8
:101D50003B1408F0CEC0432D50E05987488721102E
:101D60000BC04A815B8188859985481B590B483097
:101D7000510514F0343051F4482D6A2D892D3B87DC
:101D80000E94C00B41E049833B8501C019826A2D46
:101D9000892D3B870E94E317E22DF0E06A817B8169
:101DA00088859985681B790BA8014E1B5F0B3B85C5
:101DB000641775071CF42B2C231803C098E09219A4
:101DC000292EAC81A23060F48D819E818F0D911DF2
:101DD000F7FC9A9563E070E00E946B31782E08C0A2
:101DE000313031F48F2D8D2580FF18C095E5E92E17
:101DF000A801421951098FEF90E002C0959587958F
:101E00004A95E2F7AC010E2E01C0440F0A94EAF79E
:101E1000642E542E509464EF74E01FC08AEAE82EBA
:101E2000E7CFE42CE094CC2009F442C0E8E02E1681
:101E300009F443C045208E2D8621482A842D3B87F6
:101E40006F837A870E9406183B856F817A85F2E05E
:101E50007F16A9F173946F5F7F4F862F44EF54E094
:101E6000841B881570F54981413011F4DB014C90D9
:101E70003323C1F13530C9F1313039F4B1E0CB163B
:101E800011F0811133C0E09431C0323039F4E72DC4
:101E9000FF27E7FDF095E65EFD4F08C0333009F6F9
:101EA000E72DFF27E7FDF095E95EFD4FE0801EC0BE
:101EB000343009F4BBCFE094B9CF4E2CBFCF712C96
:101EC000CACFA394323019F4F394F39403C033309F
:101ED00009F4F394320C212C3BCFF12CD12C25CFDB
:101EE000F12C23CFEE24EA9401C0E12CCC2019F38D
:101EF0009DCF2B960FB6F894DEBF0FBECDBFDF91FE
:101F0000CF911F910F91FF90EF90DF90CF90BF90F6
:101F1000AF909F908F907F906F905F904F903F9089
:101F20002F9008958F929F92AF92BF92CF92DF929F
:101F3000EF92FF920F931F93CF93DF93D82EB62E7D
:101F4000A22E902E142FD42FD195DD0FDD5FF12C12
:101F500088248394C0E01C170CF459C0C117F9F011
:101F6000D7FD34C081E0881201C0FF0CC92CEA2CD7
:101F700002E0212F220F41E04F0D6B2D611B8D2DB3
:101F80008C1B0E94100ECC23B9F12C2F220F41E0A4
:101F90006B2D6C1B812F8D0D0E94100E04C0CC2365
:101FA00099F0D7FD13C0811018C0C92CEA2C02E0AB
:101FB000212F220F41E04F0D6B2D611B8C2F8D0DBA
:101FC0008F190E94100E09C0D7FF16C0DA5F8C2F40
:101FD000880F880FD80FF39418C0C113F12C41E07B
:101FE0004F0DC92CEA2C02E02C2F220F6B2D6C1BFD
:101FF0008D2D811B0E94100ED65F8C2F811B880FA8
:10200000880FD80F1150F12C812CCF5FA4CFDF9116
:10201000CF911F910F91FF90EF90DF90CF90BF90E5
:10202000AF909F908F900895CF92EF920F93C02E14
:10203000E12C02E00E94100E0F91EF90CF900895D6
:10204000482F80E056E0FB012191BF012223F9F0E7
:1020500041111BC09FE9920F9A3120F02B3720F0DD
:102060009AE103C090E201C090E030E020523109D3
:10207000291B3109529FF001539FF00D1124EA579B
:10208000FF4FE4918F5F8E0FDECF8A5FDCCF089524
:102090002F923F924F925F926F927F928F929F9278
:1020A000AF92BF92CF92DF92EF92FF920F931F9366
:1020B000CF93DF9300D000D000D0CDB7DEB7782F1C
:1020C0006E830A83142F181B312FF22EF61A9F2DC0
:1020D00017FD1195F7FCF19413163CF081E03111D6
:1020E00001C080E0682E619402C0662463941916D2
:1020F0003CF081E0911101C080E0982E919402C0E3
:1021000099249394BF2CB694A12EA694DE80D694E5
:10211000D694D69426952695269530E02D1931092A
:1021200037FF03C031952195310922242394220ED3
:102130001F1520F43F2C91E0998302C0312E1982A3
:10214000542F741758F4572F09C030E02817390757
:1021500064F0FC01EC50FB4F10825F5F852F90E034
:10216000242F471790F7272FF0CF712CC12C721412
:1021700008F08EC06E81872F7D830E94950B7D8134
:10218000872EE72EC31440F59981911109C0AF0C39
:10219000A11620F0A11A9E81990D9E83760D08C08C
:1021A000B10EBF1410F0BF18760D9E81990D9E835D
:1021B0008E81869586958695D8120EC07E1508F478
:1021C000E72E871608F4872E6E81872F7D830E9465
:1021D000950BC3947D81D6CF6D2D8E2D7D830E946E
:1021E000E3175E2C0FEF7D81851438F15E1419F032
:1021F000852D8F7321F47D830E94B0177D817D83AF
:102200000E94B017252D30E07D819A81F901EC50B4
:10221000FB4F4081913011F4482B02C04095482378
:102220000F3F11F48413052DF901EC50FB4F40834F
:102230007D830E94F2175394D6CF07FD06C06D2D03
:10224000802F7D830E94E3177D81402E552447FC1B
:1022500050948E14C8F04E2D50E007FD0FC0441569
:10226000550564F0FA01EC50FB4F8081EB825C83F2
:102270007D830E9406187D815C814B81FA01EC50C0
:10228000FB4F1082E394E5CFC394D90C73946FCFC6
:1022900026960FB6F894DEBF0FBECDBFDF91CF916B
:1022A0001F910F91FF90EF90DF90CF90BF90AF9074
:1022B0009F908F907F906F905F904F903F902F9066
:1022C00008952F923F924F925F926F927F928F92DA
:1022D0009F92AF92BF92CF92DF92EF92FF920F93B5
:1022E0001F93CF93DF93CDB7DEB760970FB6F89407
:1022F000DEBF0FBECDBF8D832A873B87B62EB69437
:10230000B694B6946770562E4093F304B901842FA7
:102310004E870E942010809F902C11244E854111E1
:1023200002C085E001C087E08E9D802C1124F12C35
:10233000A12C188AD12C1F861B8210E0882D90E0DA
:1023400099878887181508F0CDC0612E712CE52D6E
:10235000F0E0FF83EE83511007C048855985461988
:10236000570948305105BCF4492D6B2D8D810E94D1
:10237000C00B28853985261937098E819F81280F42
:10238000391F2930310524F038E0232E251805C0E7
:10239000282C211A02C028E0222E6B2D8D810E944C
:1023A000E31728E030E022193109EFEFF0E002C036
:1023B000F595E7952A95E2F7052C01C0EE0F0A94F2
:1023C000EAF7EC8321E001C0220F5A94EAF72C8748
:1023D0002A8529832B852A8368887D2C412C512CC2
:1023E000312C262D220D2D87542D491408F071C053
:1023F0009091F2048091F104891710F051116FC08F
:102400001092F204E981FA818191FA83E9835E876F
:102410000E94F00B9093F0048093EF045E853016D9
:1024200011F0511113C08C2D0E94A50B8B8380914C
:10243000F2048F5F8093F2048091EF049091F00496
:1024400001969093F0048093EF04312CF8E02F165E
:1024500029F0F201EC50FB4F20812F87311029C069
:102460002B81822F90E0E1E0088802C09595879546
:102470000A94E2F7EE120AC00E8001C0880F0A9497
:10248000EAF7F82E6D84AC807D2C13C05C85922D0C
:1024900068887D2CF12C992359F080FDF52A7394DE
:1024A0007E1003C086956394712C550F9150F3CF25
:1024B000AC808A2D80952F8528238F2D8A21282B6B
:1024C0002F87822F0E94061833948FEF481A580ADC
:1024D0008BCFB394120D512C688AD72C33CF301286
:1024E000B5CFA1CF892D60960FB6F894DEBF0FBE91
:1024F000CDBFDF91CF911F910F91FF90EF90DF90B3
:10250000CF90BF90AF909F908F907F906F905F9093
:102510004F903F902F900895CF92EF920F93C02E3F
:10252000EE24E39401E00E9461110F91EF90CF90AF
:1025300008952F923F924F925F926F927F928F9267
:102540009F92AF92BF92CF92DF92EF92FF920F9342
:102550001F93CF93DF93CDB7DEB765970FB6F8948F
:10256000DEBF0FBECDBFD82E29832801762E7694EC
:10257000769476946770962E4093F304B801842F76
:102580004A8B0E9420108C9D802C11244A89411175
:1025900002C085E001C087E08E9D202D11242D838F
:1025A0003981323041F481508B87D394D21A1C8602
:1025B00051E05E8305C027E02C871B863FEF3E83FA
:1025C000612C1C82F12CB12C10E0282D30E03887D2
:1025D0002F83181508F015C1992031F03981323058
:1025E00061F047E0941619F05981513031F08F8134
:1025F0009885811B9109089744F54D81672D8D2D94
:102600000E94C00B2981223059F48F819885811B4B
:102610009109890D911D0997ACF008E0091916C0C0
:102620003981313079F488E090E0891991092F815E
:102630003885211B3109820F931F09971CF001E097
:10264000090D04C0082D011B01C008E0672D8D2D68
:102650000E94E317202F30E048E0242E312C221A6C
:10266000330A4FEF50E002C0559547952A94E2F7A0
:102670001A0133245981523031F4092C01C0220C43
:102680000A94EAF709C0892D90E00196821B930B0A
:1026900001C0220C8A95EAF781E001C0880F9A9464
:1026A000EAF78D8724EF34E03B832A8392013B8451
:1026B000FB8A912C5C81452F50E05F874E87422D2D
:1026C0004095488B8A81E4EFF4E08E1B5D8185178D
:1026D00008F08DC0083019F0EA81FB81B0809110BC
:1026E0006DC02C812093F204F20180810E94F00BD6
:1026F0002E853F85820F931F9093F0048093EF0403
:102700008A2D0E94A50B41E050E0032C02C0440F2B
:10271000551F0A94E2F75A87498792014D85502F39
:10272000FB8A612C552309F449C0682F70E0E985C4
:10273000FA856E237F23672B09F0642AF981F23032
:1027400011F4440F01C046959B899F5F9B8B9C11A0
:1027500033C08091F2049091F104891779F08F5F72
:102760008093F2048091EF049091F004019690938D
:10277000F0048093EF043D8B2C8B14C0F90131964B
:10278000FD8BEC8B1092F204F9018181882351F0CA
:102790004A8B598B0E94F00B9093F0048093EF04C6
:1027A00059894A898A2D4A8B598B0E94A50B2C89FD
:1027B0003D891B8A59894A895150B4CF4889B4222E
:1027C000862D8221B82A8B2D298B3A8B0E940618E0
:1027D000939429893A899E1003C05E81351A912C01
:1027E0004A815B814F5F5F4F5B834A836BCF5E8122
:1027F000750E100F5091F2045C8329019C84FB88B4
:10280000E8CE882D65960FB6F894DEBF0FBECDBF1B
:10281000DF91CF911F910F91FF90EF90DF90CF90BC
:10282000BF90AF909F908F907F906F905F904F90F0
:102830003F902F900895AF92BF92CF92DF92EF9288
:10284000FF920F931F93CF93DF93D82E162FC42F91
:10285000D22FF02E442391F1222381F14330B0F0A6
:10286000C02EE12C02E021E05EEFA52EA40E4A2D41
:10287000BB24B394B80E8B2D0E94100E6FEF610F26
:102880006D0F21E04A2D8B2D0E94100ECF2CE12CD4
:1028900002E02D2F41E0612F8D2D0E94100EC230DD
:1028A00010F4D23058F08FEF8D0DCF2CE12C02E0D8
:1028B0002D2F41E0612F8C0F0E94100EDF91CF91E0
:1028C0001F910F91FF90EF90DF90CF90BF90AF904E
:1028D0000895FF920F931F93CF93DF93F62E90E00E
:1028E000809725E0289F8001299F100D1124C0E0CA
:1028F000D0E0065D1D4FF801EC0FFD1F8491F11033
:1029000001C080950E9406182196C530D10599F71F
:10291000F11002C08FEF01C080E0DF91CF911F91D5
:102920000F91FF900C9406181F93CF93DF931F9283
:10293000CDB7DEB7162F6AE00E943D31612F805D72
:1029400099830E946914612F998180E3890F0F9008
:10295000DF91CF911F910C9469146091EB050C9459
:1029600094146091F8050C9494141F93CF93DF9303
:10297000162FEC018991882321F0612F0E946914A0
:10298000F9CFDF91CF911F9108956091F8050C94D4
:10299000B5146091F8050C946914ECEBF0E08081BB
:1029A0008F70806C80830895459A449A10927705C1
:1029B00010927605109275051092740580E280934E
:1029C000B800ECEBF0E08081846080831092BB055E
:1029D0008081816080838081806480837894089581
:1029E00080E28093B8000895ECEBF0E080818F7076
:1029F000806A80830895ECEBF0E080818F70806DB9
:102A0000808308958091BC0087FFFCCF0895809358
:102A1000BB00ECEBF0E080818F70806880830895CC
:102A200081110C94CD148091BC008F7080688093CC
:102A3000BC0008958091BB000895EF92FF921F9310
:102A4000CF93DF9300D01F92CDB7DEB7162F9091B2
:102A5000BC009E7F9093BC004A835B8389830E9465
:102A6000F4140E94021589818E7F0E9407150E942E
:102A700002158091B9004A815B81883171F47A0135
:102A8000112349F0F70181917F010E9407150E94EF
:102A900002151150F5CF80E001C081E089830E94CA
:102AA000FB1489819091BC0094FFFCCF9091BC00F5
:102AB00091609093BC000F900F900F90DF91CF9199
:102AC0001F91FF90EF900895EF92FF921F93CF9385
:102AD000DF9300D000D0CDB7DEB79091BC009E7FD1
:102AE0009093BC004B835C836A8389830E94F414B7
:102AF0000E940215898181600E9407150E940215BB
:102B00008091B9004B815C816A818034E1F47A0163
:102B1000162F140F812F8E19823050F00E94CD1481
:102B20000E9402158091BB00F70181937F01F2CFD3
:102B300080E00E9410150E9402158091BB00F701F1
:102B4000808380E001C081E089830E94FB14909122
:102B5000BC0091609093BC0089810F900F900F9002
:102B60000F90DF91CF911F91FF90EF9008951F92EA
:102B70000F920FB60F9211242F933F934F935F93B1
:102B80006F937F938F939F93AF93BF93EF93FF9335
:102B90008091B900887F883609F4B6C008F042C039
:102BA000803309F49BC0A8F4803109F469C038F47B
:102BB000882309F434C1883009F462C03DC18032F1
:102BC00009F48CC0883209F462C0883109F034C13C
:102BD0005EC0883409F482C038F4883309F486C0B2
:102BE000803409F48DC028C1883509F466C0803668
:102BF00009F48AC0803509F01FC160E085ED94E0DA
:102C00000E94CB1C8091BB00E091780591E09E0F63
:102C100090937805F0E0E758FA4F808390E00E94A7
:102C2000B71C6EC0803A09F499C0A8F4803809F442
:102C300076C038F4803709F467C0883709F464C077
:102C4000FBC0803909F46BC0883909F47EC088382C
:102C500009F0F2C07AC0883B09F4AEC038F4883A73
:102C600009F494C0803B09F491C0E6C0883C09F4A3
:102C7000C6C0883F09F4CDC0803C09F0DDC0BFC0AC
:102C800060E087E595E00E94CB1C80E013C060E027
:102C900088E395E00E94CB1CE0919A05809199050C
:102CA000E81708F581E08E0F80939A05F0E0E5566D
:102CB000FA4F80810E940715BFC060E083E295E073
:102CC0000E94CB1CE091780581E08E0F80937805FF
:102CD0008091BB00F0E0E758FA4F808360E08DEF11
:102CE00094E00E94CB1C0E94FB14A4C060E089EE1B
:102CF00094E00E94CB1C8091BC008F70806898C0CB
:102D000060E082EC94E024C060E08FEA94E00E94EE
:102D1000CB1C85E08093BB051092780564C060E011
:102D20008BE994E00E94CB1CE091780581E08E0F46
:102D3000809378059091BB00F0E0E758FA4F9083BC
:102D4000803240F40E94CD1477C060E086E894E0C1
:102D50000E94CB1C80E00E9410156EC060E083E7EB
:102D600094E00E94CB1C8091BC008F70806C80939B
:102D7000BC00E0917605F0917705309709F45AC0D0
:102D800069E775E080917805099554C060E080E6B8
:102D900094E00E94CB1C84E08093BB05E091740515
:102DA000F0917505309731F06BE975E080E2099597
:102DB0008093990510929A0560E08CE494E00E945B
:102DC000CB1CE0919A0581E08E0F80939A05F0E08C
:102DD000E556FA4F80818093BB0090919A058091CF
:102DE0009905981728F48091BC008F70806C04C0FE
:102DF0008091BC008F7080688093BC001DC060E033
:102E00008AE294E00E94CB1C8091BC008F70806CA1
:102E10000FC060E08BE194E00E94CB1C0DC060E02D
:102E20008AE094E00E94CB1C8091BC008F70806D82
:102E30008093BC001092BB05FF91EF91BF91AF91C1
:102E40009F918F917F916F915F914F913F912F91C2
:102E50000F900FBE0F901F901895F89440985A98B5
:102E6000882321F0813019F45A9A01C0409A8BB11D
:102E7000806F8BB985B18F6085B92F988AB18F70BB
:102E80008AB984B1807F84B92D9A2C9A0000000001
:102E900089B193B12C9887FF08C0000000000000A2
:102EA00000002C9A00000000F1CF2D988AB1806FAD
:102EB0008AB984B18F6084B978940895CF93DF93F1
:102EC0001F92CDB7DEB7F89469830E942D172F9813
:102ED0002D982C9A8AB1806F8AB984B18F6084B999
:102EE0008BB18F708BB99BB16981862F807F892BC5
:102EF0008BB985B1807F85B985B16F70682B65B955
:102F000000000000000000000000000000000000C1
:102F10002C9878940F90DF91CF9108958093BC0501
:102F2000682F6F73606482958695869583700C9484
:102F30005E179091BC0592959695969593708770C3
:102F40008093BD05E92FF0E0E254FA4F208182170B
:102F500031F08083682F686B892F0C945E17089579
:102F60008091BC058295869586958370F8940E9421
:102F70002D172F9A8AB18F708AB984B1807F84B956
:102F80002D9A2C9A000000000000000000000000B4
:102F90000000000089B193B12C982D9878949F700F
:102FA000807F892B089560EC80E00E945E176FE3BC
:102FB00080E00E945E1760EC81E00E945E176FE384
:102FC00081E00C945E17CF93DF931F92CDB7DEB7ED
:102FD00069830E948E176981862F0F90DF91CF91B0
:102FE0000C9499178091BC058F3718F080E00C94F1
:102FF0008E178F5F8093BC05982F9F7331F40E94CA
:103000008E178091BD050C9499170895CF93C82F02
:103010008091BC058295869586958370F8940E9470
:103020002D172F9A2D982C9A9AB1906F9AB994B126
:103030009F6094B99BB19F709BB98BB19C2F907F7F
:10304000982B9BB995B1907F95B995B18C2F8F70C6
:10305000892B85B90000000000000000000000007E
:10306000000000002C987894CF910C94F2171F93D5
:10307000CF93DF9391E0813009F090E0192F119503
:10308000C0E06C2F80E00E94E317D0E0812F0E9407
:103090000618DF5FD038D1F7CF5FC83091F7DF91E6
:1030A000CF911F910C94D3172F982D982C9840985E
:1030B0005A98279A259A249A389A529A9BB19F70C7
:1030C0009BB995B1907F95B99AB1906F9AB994B127
:1030D0009F6094B99FEF9093BE059093BF050C94A9
:1030E00037181F920F920FB60F9211242F933F9310
:1030F0004F935F936F937F938F939F93AF93BF9300
:10310000EF93FF938091D005882329F08091D0051B
:1031100081508093D0058091E504882329F0809127
:10312000E50481508093E5048091E604882359F0FA
:103130008091E60481508093E6048091E604811139
:1031400002C00E9440058091C705813009F092C0FD
:103150008091C2059091C305892B09F08BC08091A5
:10316000CE059091CF05892B09F07AC09091CB05BF
:103170008091CA052091700198131CC02130D1F4B0
:1031800080917101803219F41092710103C08E5F39
:10319000809371018091710190E0FC01E958FA4F30
:1031A00034913093CB05FC01E858FA4F8491830F9A
:1031B0008093CA058091CB05213001F510927001F2
:1031C00090E0FC01E15DF94FE49129E0E29FF0011C
:1031D0001124F093CD05E093CC05FC01E756FA4F9E
:1031E000849123E6829FC001112463E070E00E9475
:1031F00057317093CF056093CE0510C091E0909346
:1032000070011092CD051092CC0521E330E030938F
:10321000CF052093CE058F5F8093CB058091CC05A1
:103220009091CD05892B21F410928100439818C00C
:103230001092800089E08093810083E080936F008A
:103240002091CC053091CD0540E050E060E079E080
:103250008DE390E00E947F313093890020938800B5
:103260008091CE059091CF0501979093CF058093E3
:10327000CE0517C08091C4059091C505019689F4CB
:103280001092810043981092C5051092C40580E207
:10329000809371018091CA058093CB0581E0809372
:1032A0007001FF91EF91BF91AF919F918F917F91AD
:1032B0006F915F914F913F912F910F900FBE0F90A3
:1032C0001F9018951F920F920FB60F9211248F9393
:1032D0009F9388B198E0892788B99F918F910F902B
:1032E0000FBE0F901F9018951F920F920FB60F925E
:1032F00011248F939F9388B198E0892788B99F9173
:103300008F910F900FBE0F901F9018951E9B21C09C
:103310008091C1058130A9F51092C1051092C305B5
:103320001092C2051092C5051092C4058091C70580
:10333000813039F51092C7051092810090E2909388
:1033400071019091CA059093CB05809370014398C9
:1033500008958091C105811114C081E08093C10559
:103360001092C3051092C2051092C5051092C405B3
:1033700090E2909371019091CA059093CB05809350
:1033800070010895EF92FF920F931F93CF93DF93F5
:103390008B017A01882359F0282F30E02150310920
:1033A000220F331FC9010996E9012A9604C0C2E021
:1033B000D0E081E090E00E94C03168E10E943D31A0
:1033C000F8019083CE010E94C0316CE30E943D3130
:1033D000F7019083DF91CF911F910F91FF90EF90B4
:1033E00008950F931F93CF93DF9300D0CDB7DEB72F
:1033F00069834A83882361F0282F30E02150310906
:10340000220F331FC90109968901065F1F4F04C0AF
:1034100002E010E081E090E069810E94C8316A8199
:10342000C8010F900F90DF91CF911F910F910C94D5
:10343000C8316AE00E943D31292F30E1839FC001ED
:103440001124822B0895CF939C01C62F10928000E7
:1034500089E08093810083E080936F0040E050E03A
:1034600060E079E08DE390E00E947F313093890045
:1034700020938800C93140F08FE493EC0197F1F775
:1034800000C00000C951F6CF109281004398CF913F
:103490000895CF93DF9380E090E00E94C031833C99
:1034A000A1F0C1E0D0E0FE01E959FA4F6491CE01EC
:1034B0000E94C8312196C031D105A9F763EC80E0A4
:1034C00090E0DF91CF910C94C831DF91CF910895B6
:1034D000CF93DF93C82FD0E0E42FF0E0E053F84F14
:1034E000833010F42C963197262F30E02F5F3F4F1A
:1034F0002E0F3F1FCE01880F991F280F391FCF01B4
:103500009695879596958795280F391FCF0160E985
:1035100071E00E945731260F371FCF0164E670E03B
:103520000E945731261B370B219646E04C9FC00165
:103530004D9F900D11246AE070E00E945731260FD4
:10354000371FC90167E070E00E945731DF91CF91CA
:1035500008959C0183709927892B39F4C90164E689
:1035600070E00E945731892B59F4C90160E971E07C
:103570000E94573121E0892B09F020E0822F089525
:1035800081E008951092E1048091C8058823E1F359
:103590008CE380930E061092C8058091C80588239D
:1035A000E1F381E08093E1040895CF93DF93CDB7F9
:1035B000DEB729970FB6F894DEBF0FBECDBF1986D0
:1035C000F894AE01475F5F4F61E080ED0E941D15EA
:1035D00081110E94CE2DAE014F5F5F4F67E080EDFD
:1035E0000E94641578948111F4CF8981282F269543
:1035F000269526952E70922F990F990F920F282FAE
:103600002F70920F909308063A81232F26952695C6
:1036100026952E70922F990F990F920F3F70930F4E
:10362000909309069B81292F22952F70392F3F7087
:1036300096FF11C095FB442740F92170220F922F6D
:10364000990F990F920F2CE0429F900D1124930F28
:1036500090930A0607C023709AE0299F300D112429
:1036600030930A063D81232F2695269526952670B0
:10367000922F990F990F920F3F70930F90930B0613
:103680003E8134FB222720F9220F922F990F990FA8
:10369000920F3F70930F90930C069F81292F2295D4
:1036A0002F709F703AE0239F900D112490930D0688
:1036B000807829960FB6F894DEBF0FBECDBFDF919C
:1036C000CF9108951F920F920FB60F9211242F934E
:1036D0003F934F935F936F937F938F939F93AF939A
:1036E000BF93CF93EF93FF93A8958091C905813243
:1036F00079F41092C905C09108068091D1058130F6
:1037000059F41092C5051092C4051092D10504C059
:103710008F5F8093C9058CC00E9486190E94D51ABC
:10372000809108068C17D9F18091EA04882329F04A
:103730008091EA0481508093EA042091C7052130EA
:1037400021F58091C2059091C3058130910551F416
:1037500030E2309371013091CA053093CB0520934C
:10376000700102C0009729F001979093C3058093E0
:10377000C2058091C4059091C505181619062CF450
:1037800001979093C5058093C4058091C005882357
:1037900031F08091EB04811102C00E9424078091D6
:1037A000C805811112C090910E06809108069817E5
:1037B00061F086E0E8E0F6E0AEE0B6E001900D9260
:1037C0008A95E1F781E08093C8058091C105813039
:1037D00079F59091C705911115C090910806911146
:1037E00011C0209109069091F70529130BC0209173
:1037F0000A069091ED05291305C08093C70588E05E
:1038000097E012C08091C705813091F48091C40582
:103810009091C505892B61F41092C7051092C305DC
:103820001092C2058FEF9FEF9093C5058093C4055A
:10383000FF91EF91CF91BF91AF919F918F917F9128
:103840006F915F914F913F912F910F900FBE0F900D
:103850001F901895EF920F93CF93DF93CDB7DEB7FC
:103860002B970FB6F894DEBF0FBECDBF19822B8702
:103870004A8769870E94191A8A836985862F0E9460
:10388000191A8B834A85842F0E94191A8C831D82F2
:103890002B85822F0E94191A8E83802F0E94191A5D
:1038A0008F838E2D0E94191A8887F894AE014F5F7E
:1038B0005F4F68E080ED0E941D15789481110E9491
:1038C000CE2D2B960FB6F894DEBF0FBECDBFDF9185
:1038D000CF910F91EF900895EF920F930E94D4141F
:1038E0000E94D51A882349F061E1E62E01E021E02B
:1038F0004CE060E080E00E942A1C0E94D51A87E01C
:103900008093B10081E08093700078940F91EF90E4
:1039100008959093C5008093C40088E18093C1000E
:103920008EE08093C200519A509808959091C00003
:1039300095FFFCCF8093C60080E090E00895CF9380
:10394000C82F82958F708A3010F4805D01C0895A2B
:103950000E94961C8C2F8F70282F30E02A30310562
:1039600014F4805D01C0895ACF910C94961CCF93BA
:10397000C82F892F0E949F1C8C2FCF910C949F1CC5
:103980008091C00087FFFCCF8091C6000895809190
:10399000C0008078089508950895089508950895C1
:1039A000CF92EF920F931F93CF93DF9300D01F928C
:1039B000CDB7DEB7162FBE016F5F7F4F0E94510457
:1039C000C090F8050091D605019F902D112480919B
:1039D000D405E090D5059E012F5F3F4F41E06091F7
:1039E000D30553E1959F800D11240E9461110F9022
:1039F0000F900F90DF91CF911F910F91EF90CF908B
:103A00000895CF92EF920F93823041F40091EB052D
:103A100028E340E860E080E00E941410C090F805C0
:103A20009091D6058091D405E090D505092F20EE20
:103A300032E041E06091D3055DE0959F800D112457
:103A40000E9461118091D7058130A1F4C090F805E2
:103A50009091D6058091D405E090D505092F20EEF0
:103A600032E041E06091D30550E2959F800D112432
:103A70000E9461110F91EF90CF9008950F93CF9313
:103A8000DF93CDB7DEB729970FB6F894DEBF0FBE30
:103A9000CDBF40E069E382E00E945B048091E104D5
:103AA000811105C08091DD04882309F492C09091B2
:103AB00000068091F405981311C09091F60580914D
:103AC000EE0598130BC09091F1058091EC059813C9
:103AD00005C08091DD04813009F04AC00091F805ED
:103AE0004091F105609100068091F6050E94681AE8
:103AF000E82FF0E0EE0FFF1FE65BFE4F20813181E3
:103B000041E06091D20582E10E948C120091F8059B
:103B1000E091F605F0E0EE0FFF1FEA5AFE4F20811C
:103B2000318141E06091D2058AE20E948C1280913D
:103B30000006BE016F5F7F4F0E9451048CE28B83B1
:103B400080E28C8382E38D8380E38E838091F10514
:103B5000BE01695F7F4F0E9451040091F8059E01EC
:103B60002F5F3F4F41E06091D20582E40E948C12AA
:103B70009091060680910106981304C08091DD049F
:103B8000813029F48091060660E00E94D01C90915B
:103B900007068091FC05981304C08091DD048130F4
:103BA00029F48091070661E00E94D01C8091D7051E
:103BB000813079F49091020680910306981304C035
:103BC0008091DD04813029F48091020662E00E9438
:103BD000D01C29960FB6F894DEBF0FBECDBFDF9183
:103BE000CF910F9108951092D70594E09093D4054A
:103BF00022E02093D3059093D60595E09093D505C8
:103C00009CE29093D2050C94011D91E09093D7050E
:103C100090E19093D4059CE09093D30592E090932B
:103C2000D6059093D50595E29093D2050C94011D8D
:103C3000FC012281203429F423812F3111F422E068
:103C400001C026E0362FDC01FB0181918D938E2F80
:103C5000831B8217D0F308952F923F924F925F9269
:103C60006F927F928F929F92AF92BF92CF92DF928C
:103C7000EF92FF920F931F93CF93DF93CDB7DEB7F1
:103C80002A970FB6F894DEBF0FBECDBF8D839A87FB
:103C90001B0129013A01E982FA820B831C831A2D48
:103CA000082DCA01B9010E94F3304B015C016C2D53
:103CB00070E080E090E00E94CB2F6B017C019B01C3
:103CC000AC01C501B4010E9490300E94982F605C45
:103CD000F1016083C301B2010E942D2F9058A7010A
:103CE00096010E9490300E94982F615EF1016183DD
:103CF00029813A814B815C81C301B2010E94C92EA6
:103D00004B015C010E94F3306E837F838887998723
:103D1000612F70E080E090E00E94CB2F6B017C016E
:103D20009B01AC016E817F81888599850E949030CE
:103D30000E94982F605CF1016283C501B4010E946A
:103D40002D2F9058A70196010E9490300E94982F25
:103D5000615EF101638329813A814B815C81C301FA
:103D6000B2010E94C82E4B015C010E94F330A701F2
:103D700096010E9490300E94982F605CF10164834C
:103D8000C501B4010E942D2F9058A70196010E94F1
:103D900090300E94982F615EF10165839D81D10171
:103DA000E92FFA858E2F891B801730F421918D9190
:103DB0002817C1F381E001C080E02A960FB6F8947D
:103DC000DEBF0FBECDBFDF91CF911F910F91FF904E
:103DD000EF90DF90CF90BF90AF909F908F907F90AB
:103DE0006F905F904F903F902F9008950F931F9387
:103DF000CF93DF93EC01162F062F2B814A81698127
:103E000088810E9448108A81803419F48B818F3117
:103E100069F0012F2D814C81698188810E944810B1
:103E20002D814C816B818A810E944810DF91CF9156
:103E30001F910F910895CF92DF92EF92FF920F930F
:103E40001F93CF93DF93813009F071C00091F80583
:103E500020E04EE16FE180E40E941E0C4091F805E5
:103E60006FE180E40E94D10DC0E0D3E06C2F772792
:103E700067FD7095872F972F0E94CB2F22E93AE09C
:103E800046E05FE30E9490306B017C010E94F330BA
:103E90002DEC3CEC40EE51E40E9490300E94982FB3
:103EA000162FC701B6010E942D2F90582DEC3CEC27
:103EB00040EE51E40E9490300E94982F062F4091CE
:103EC000F8056FE1600F80E4810F0E94D10D8C2F07
:103ED0006D2F0E944931911115C0C11102C00150CE
:103EE00009C0C33011F41F5F05C0C63011F40F5F65
:103EF00001C011504091F8056FE1600F80E4810F1F
:103F00000E94D10DCF5FCC3009F0B0CFE4EEF5E0E8
:103F1000CEEDD5E0A8EDB5E088E2819389938D934D
:103F200095E0EA3EF907C9F71092EF0518C08091B5
:103F3000F505811114C06091EB0584EE95E00E94B7
:103F4000F61E4091F8056FE180E4DF91CF911F915B
:103F50000F91FF90EF90DF90CF900C94D10DDF91F7
:103F6000CF911F910F91FF90EF90DF90CF90089528
:103F70004F925F926F927F928F929F92AF92BF9279
:103F8000CF92DF92EF92FF920F931F93CF93DF9325
:103F9000CDB7DEB76A970FB6F894DEBF0FBECDBFC0
:103FA0001091DE048091E004813009F0AEC0809170
:103FB000F005813009F09FC06091F70570E080E066
:103FC00090E00E94C92F20E537E746ED5DE30E94AF
:103FD00090306B017C010E94F3304B015C01C70102
:103FE000B6010E942D2F2B013C018091ED0500911F
:103FF000F7056CE00E943D31692F70E080E090E0B1
:104000000E94CB2F22E93AE046E05FE30E94903025
:104010006B017C01602F70E080E090E00E94C92F6E
:1040200025E33AEF4EE05CE30E9490309B01AC0147
:10403000C701B6010E94C92E6B017C010E94F330BA
:104040006B8B7C8B8D8B9E8BC701B6010E942D2FB5
:104050006F8B788F898F9A8F0091F80520E047E069
:1040600066E386E70E941E0C0091F805C301B201C9
:10407000905820E030E040EE50E40E9490300E94E2
:10408000982F762E86E3780E20E030E040EE50E464
:10409000C501B4010E9490300E94982F462F4A58C3
:1040A000272D66E386E70E9448100091F8056F8986
:1040B000788D898D9A8D905820E030E040EA50E468
:1040C0000E9490300E94982FB62E86E3B80E20E012
:1040D00030E040EA50E46B897C898D899E890E949A
:1040E00090300E94982F462F4A582B2D66E386E782
:1040F0000E9448100AC00091EB0521E141E16EE207
:104100008EE60E9414101092EF058091DF0481303A
:1041100071F41F70812F90E021E008970CF420E0EB
:104120008091EF052817A1F02093EF0506C080913C
:10413000EF05813069F41092EF05C090EB0584E043
:10414000E82E02E021E141E16EE28EE60E94100ECF
:104150008091E104813021F08091DD04813019F4F7
:104160001092FF0505C08091FF058F5F8093FF05CA
:10417000909100068091F40598130AC09091F6057D
:104180008091EE05981304C08091DD04813091F593
:104190000091F805E091F605F0E0EE0FFF1FEA5AF6
:1041A000FE4F2081318140E069E382E00E948C1261
:1041B00012E0180F80E2898380910006BE016E5FD5
:1041C0007F4F0E9451040091F8059E012F5F3F4FE1
:1041D00040E069E3812F0E948C12810F9EEF980FBF
:1041E000983140F40091EB054AE1481B25E069E372
:1041F0000E9414108091F5058130D1F5609102067E
:104200001091FF0570E080E090E00E94C92F20E54A
:1042100037E746ED5DE30E9490306B017C01612F32
:1042200070E080E090E00E94CB2F28E93EE24EEF64
:104230005BE30E9490309B01AC01C701B6010E9474
:10424000C92E9B01AC0196E0892E67E1A62E7BE189
:10425000C72E1DECE12E1CECF12E0CEC1DE3BE0173
:10426000635F7F4F84EE95E00E942C1EB82E01C044
:10427000B12C8091E104813029F08091DD048130FE
:1042800009F085C0609107061091020670E080E099
:1042900090E00E94C92F20E537E746ED5DE30E94DC
:1042A00090306B017C01612F70E080E090E00E9413
:1042B000C92F29E833EC44EE5AE30E9490309B0169
:1042C000AC01C701B6010E94C92E9B01AC01F2E00E
:1042D0008F2EA8E0AA2EBBE1CB2E1CE7E12E19ED14
:1042E000F12E00E210E4BE01695F7F4F8EED95E094
:1042F0000E942C1E982E81E0981659F0909101068C
:1043000080910606981305C08091DD04813009F084
:1043100041C080910606109107066CE00E943D3175
:10432000692F70E080E090E00E94CB2F22E93AE014
:1043300046E05FE30E9490306B017C01612F70E0EA
:1043400080E090E00E94C92F25E33AEF4EE05CE365
:104350000E9490309B01AC01C701B6010E94C92E9A
:104360009B01AC0196E0892E65E0A62E74E1C72E74
:104370001CE7E12E19EDF12E00E210E4BE016F5FA3
:104380007F4F88ED95E00E942C1E182F04C010E08E
:10439000912C01C010E08091F5058130C9F4B81668
:1043A00021F08091DD04813099F46091EB0584EE79
:1043B00095E00E94F61EBE01635F7F4F84EE95E09C
:1043C0000E94181E6091F80584EE95E00E94F61E8A
:1043D00081E0981621F08091DD048130E1F4609154
:1043E000EB058EED95E00E94F61EBE01695F7F4FE2
:1043F0008EED95E00E94181E6091F8058EED95E017
:104400000E94F61E8091F505813071F46091F805E7
:1044100084EE95E007C081E0B81206C06091F8050F
:104420008EED95E00E94F61E113021F08091DD04A2
:10443000813011F56091EB0588ED95E00E94F61E44
:10444000BE016F5F7F4F88ED95E00E94181E60915E
:10445000F80588ED95E00E94F61E8091F505813003
:1044600031F46091F80584EE95E00E94F61E6091AB
:10447000F8058EED95E009C081E0B81611F09812AC
:1044800006C06091F80588ED95E00E94F61E6A96D8
:104490000FB6F894DEBF0FBECDBFDF91CF911F9155
:1044A0000F91FF90EF90DF90CF90BF90AF909F90D3
:1044B0008F907F906F905F904F9008951092F505C8
:1044C0000C941B1F91E09093F5050C941B1F8F9289
:1044D0009F92AF92BF92CF92DF92EF92FF920F9393
:1044E0001F93CF93DF931F92CDB7DEB7F82E862FA1
:1044F00091E03AE0632FA91218C00E943D31D82EF6
:10450000842F0E943D31B82E822F0E943D31A82E6B
:10451000802F0E943D31982E8E2D0E943D31E82E35
:104520008C2D0E943D31982F16C00E943D31D92E0E
:10453000842F0E943D31B92E822F0E943D31A92E39
:10454000802F0E943D31992E8E2D0E943D31E92E03
:104550008C2D0E943D31D91007C0BE1005C0A91294
:1045600003C0882009F443C02DE0C22E10E031E0E2
:10457000D11230E0B11201C03260A11201C034602A
:1045800021E0911220E0E11201C02260911301C0EC
:104590002460321305C081E0881223C0222309F170
:1045A00030E0220F331FF901E35EFD4F808181115E
:1045B00003C00091F80502C00091EB05F901E35E2C
:1045C000FD4F218145E06F2D8C2D99830E94920F24
:1045D0000091F80520E045E06F2D8C2D0E941E0C07
:1045E00099811F5F8CE0C80E1A3009F0C0CF0F9080
:1045F000DF91CF911F910F91FF90EF90DF90CF90BF
:10460000BF90AF909F908F900895FF920F931F934C
:10461000CF93DF938091FF05811172C08EE280936A
:10462000EF0581E08093FF058091EB050E9437182C
:104630000091F8052AE234E040E061E081E00E9468
:104640008C12C6E2D2E01EE0F12C83E0F81203C027
:104650000091EB0502C00091F805FE01389720811A
:1046600045E0612F8EE00E94920F0091F80520E056
:1046700045E0612F8EE00E941E0CF11003C00091F6
:10468000F80502C00091EB05288145E0612F86E422
:104690000E94920F0091F80520E045E0612F86E42A
:1046A0000E941E0CF3942296125F84E0F812CDCF84
:1046B0000091F80528E334E040E06CE089E10E94D5
:1046C0008C12CDE3D2E016E10091F80529913991E1
:1046D00040E0612F89E10E948C12195F1034A1F72C
:1046E000CDE2D2E018E00091F8052991399140E03F
:1046F000612F81E50E948C12195F1034A1F702C06E
:104700001092FF05DF91CF911F910F91FF900895B7
:104710008F92AF92CF92EF920F93CF93DF9300D00F
:104720001F92CDB7DEB78091EF05813021F48091E3
:10473000E104813041F08091EF05882341F08091C0
:10474000FF05811104C081E00E94B00320C0809168
:10475000FF058130E1F48091E104813009F06FC000
:104760008091EF0581508093EF058091EF05BE01A8
:104770006F5F7F4F0E9451040091F8059E012F5FEB
:104780003F4F40E061E088E70E948C1258C040E053
:104790006AE381E00E945B048091E104811105C01D
:1047A0008091DD04882309F44AC08090DD04C09024
:1047B0000606E0900706009102062091010640914E
:1047C000FC0560910306AA24A3948DE00E94672251
:1047D0008090DD04C0900606E09007060091020676
:1047E000209101064091FC0560910306A12C89E10E
:1047F0000E9467228090DD04C090F105E090F605EC
:10480000009100062091EC054091EE056091F405C1
:10481000AA24A39485E20E9467228090DD04C090C0
:10482000F105E090F605009100062091EC0540911D
:10483000EE056091F405A12C81E30E9467220F90A0
:104840000F900F90DF91CF910F91EF90CF90AF909D
:104850008F900895AF92CF92EF920F931F93CF93C3
:10486000DF9300D000D01F92CDB7DEB780E38983FD
:104870001A821CE00091F8059E012F5F3F4F40E037
:1048800061E0812F0E948C1289818F5F8983145F80
:10489000143881F7A090F805CC24C394EE24E39457
:1048A00001E814E021E040E06AE181E00E94991211
:1048B000A090F8050AE814E021E040E061E381E01F
:1048C0000E9499125DE090E03DE010E0111102C0FD
:1048D000963070F40091F80520E045E0632F852FB5
:1048E0003C835D839B830E941E0C9B815D813C8188
:1048F0001F5F345F143051F79F5F545F9A3021F788
:104900001092EF051092FF050F900F900F900F90EF
:104910000F90DF91CF911F910F91EF90CF90AF90BB
:104920000895CF92DF92EF92FF920F931F93CF9350
:10493000DF93C82FD42F122F70E080E090E00E9408
:10494000C92F9B01AC0160E070E080E891E40E9417
:10495000302F6B017C016D2F70E080E090E00E94B1
:10496000CB2F9B01AC01C701B6010E94903020E023
:1049700030E040E05FE30E94C92E0E949D2FD62FB9
:10498000612F70E080E090E00E94CB2F9B01AC0192
:10499000C701B6010E94903020E030E040E05FE3C4
:1049A0000E94C92E0E949D2F162FD61304C08091FD
:1049B000DD048130F1F40091EB0588E0F82EFC0E67
:1049C000D65921E042E06F2D8D2F0E9414100091E6
:1049D000EB056AE06C0F21E042E08D2F0E9414107D
:1049E0000091F80523E042E06F2D8AE6810F0E94D6
:1049F0001410DF91CF911F910F91FF90EF90DF90F6
:104A0000CF9008950F931F93CF93DF93909100065B
:104A10008091F405981306C09091F6058091EE05FB
:104A2000981721F0C2E7D1E081E00FC08091DD044A
:104A3000813009F052C0F6CF2091F6059A812917EE
:104A400051F08F5F2796843031F0209100069981D4
:104A50002913F7CFF1CF9091EA059817F1F18093E0
:104A6000EA0588818823D9F06B817C8180E00E94EF
:104A70002010182F6D817E816115710521F080E075
:104A80000E942010180F21E830E0211B310937FF68
:104A900002C02F5F3F4F35952795122F01C012E0BE
:104AA0000091EB0527E040E860E080E00E941410F0
:104AB0000091F8052B813C8140E061E0812F0E944C
:104AC0008C12810F2D813E812115310531F000912D
:104AD000F80540E061E00E948C12DF91CF911F91B8
:104AE0000F9108950F93CF93DF938A30F1F40091E3
:104AF000F80522E241E067E188E00E94141000918D
:104B0000F80521E043E568E389E00E941410C8E15C
:104B10004091F8056C2F87E00E94D10DCB5FCB331D
:104B2000B9F7CAE3DDE08BE405C08D3009F1C6E3D7
:104B3000DAE08EE40091F8052AE032E040E06C2FE4
:104B40000E948C120091F8052EE032E040E06C2FBC
:104B50008CE20E948C120091F80522E132E040E0E4
:104B60006C2F8D2F0E948C12DF91CF910F910895A1
:104B7000CAE3DECF4F925F926F927F928F929F92A5
:104B8000AF92BF92CF92DF92EF92FF920F931F935B
:104B9000CF93DF9300D000D0CDB7DEB7182FD62E3D
:104BA000F02EBC2C0F89622F70E080E090E04C83E7
:104BB0000E94CB2F2B013C014C81642F70E080E0E0
:104BC00090E00E94C92F9B01AC01C301B2010E9479
:104BD000302F2B013C016E2D70E080E090E00E94B0
:104BE000CB2F9B01AC01C301B2010E94903020E0A9
:104BF00030E040E05FE30E94C92E0E949D2F962E78
:104C00006C2D70E080E090E00E94CB2F9B01AC0106
:104C1000C301B2010E94903020E030E040E05FE349
:104C20000E94C92E0E949D2F762E6D2C661A961218
:104C300004C08091DD04813021F521E0270D05308D
:104C4000B9F40091F8054F2D662D812F0E941B1499
:104C500081E08715B0F4C090F80525E0E22E00E071
:104C60002FEF270D4EEF4F0D61E0660D810F07C04E
:104C7000C090F805E02E01E04F2D662D812F0E9497
:104C8000100EBE016F5F7F4F8B2D0E94510400916B
:104C9000F805E62CE80C9E012F5F3F4F41E06E2D9A
:104CA000812F8A0D0E948C120091EB056FEF660D2B
:104CB00021E04F2D812F0E9414100091EB05B82C9C
:104CC000B0942B2D4A2D6E2D812F0E94141000912F
:104CD000EB054FEF4A0D8F2D8A198F5F2B2D6E2D0F
:104CE000810F0E941410791458F40091EB05292DBE
:104CF00027196D2D680D69194F2D812F0E941410F1
:104D00000F900F900F900F90DF91CF911F910F9107
:104D1000FF90EF90DF90CF90BF90AF909F908F90DB
:104D20007F906F905F904F9008950F93CF93DF9394
:104D3000EC01623001F50091EB052FE244E660E101
:104D400080E00E9414100091F8059E0140E069E0A7
:104D500082E00E948C12282F30E0213331050CF0C4
:104D60006AC00091EB0541E3481B25E069E08E5FD6
:104D70000E94141060C00091F80521E040E867E04F
:104D800080E00E9414100091F80521E040E86FE0F7
:104D900080E00E9414100091F80529E341E067E0EB
:104DA00085E60E9414108FEF8093EA050E94022589
:104DB0000091F8059E0140E069E082E00E948C12BB
:104DC0000091F8052FE834E040E069E086E50E94B4
:104DD0008C120091F80523E934E040E069E088E6B0
:104DE0000E948C12C2E1D0E022E132E00091F8058D
:104DF00040E06C2F89E60E948C120091F80527E0B4
:104E000046E166E06C0F88E60E941B140091F805ED
:104E100021E042E169E06C0F8AE60E941410DF5F36
:104E2000D33049F0D13019F02AE032E002C02EE050
:104E300032E0C15FDBCFDF91CF910F91089541E068
:104E400069E083E30E945B048091E104811104C066
:104E50008091DD048823C9F10E9402259091020609
:104E600080910306981304C08091DD04813041F4E1
:104E700020910206409103066BE380E30E94912497
:104E8000909107068091FC05981304C08091DD0481
:104E9000813041F4209107064091FC056BE381E2EB
:104EA0000E9491249091060680910106981304C0F7
:104EB0008091DD04813059F420910606409101066D
:104EC00067E182E10E94912402C080E0089581E0C0
:104ED00008953F924F925F926F927F928F929F922E
:104EE000AF92BF92CF92DF92EF92FF920F931F93F8
:104EF000CF93DF93CDB7DEB728970FB6F894DEBF18
:104F00000FBECDBF782EF42E122FB02E70E080E0B1
:104F100090E00E94CB2F28E339EA4BEF5EE30E943A
:104F2000903020E030E040E05FE30E94C92E0E9414
:104F30009D2F862E6F2D70E080E090E00E94CB2F99
:104F400028E339EA4BEF5EE30E94903020E030E046
:104F500040E05FE30E94C92E0E949D2F962E612F94
:104F600070E080E090E00E94CB2F28E339EA4BEF1D
:104F70005EE30E94903020E030E040E05FE30E947A
:104F8000C92E0E949D2F562E602F70E080E090E089
:104F90000E94CB2F28E339EA4BEF5EE30E9490306A
:104FA00020E030E040E05FE30E94C92E0E949D2F88
:104FB000462E851428F4652C681816E3151904C0CC
:104FC000682C651816E31819611002C066246394F2
:104FD000941430F4342C3918E6E3DE2ED41805C0CE
:104FE000392C341876E3D72ED918311002C0332467
:104FF0003394891006C0541004C08091DD048130C0
:1050000081F4BF1418F400E083E002C001E082E004
:10501000C090F805E82E232D4DE06D2D872D0E94C0
:10502000100EBF18B7FE04C08DE2898321E001C0D5
:1050300020E08B2D992787FD909597FF03C09195D0
:1050400081959109382F8A3064F0E1E0F0E0EC0FAF
:10505000FD1FE20FF11D6AE00E944931805D8083EF
:105060002F5FE1E0F0E0EC0FFD1FE20FF11D832F59
:105070006AE00E944931905D90832F5FE1E0F0E0AB
:10508000EC0FFD1FE20FF11D1082B22EBB0CBB0C0A
:10509000BA940091F8054DE0E42EF12CEB18F108DC
:1050A000F594E794A72CAE0C9E012F5F3F4F40E094
:1050B0006AEFF62EFD0C6F2D8A2D0E948C12009146
:1050C000EB0526E04E2D6F2D872D0E9414100091C8
:1050D000EB0526E04E2D6F2D8A2D8B0D0E941410AE
:1050E000891003C0541409F468C00091EB0521E055
:1050F0004DE06FEF6D0D872D0E941410A12EB12C85
:10510000862D90E09E838D838D2D90E098878F83F0
:105110001D15E0F49C01265031098D819E818A0D78
:105120009B1D821793071CF426E0260D02C02D2D2F
:10513000211B222359F0C090F80535E0E32E02E050
:105140004DE06AEF610F872D0E94100E85100FC091
:10515000941468F489100BC0C090F80595E0E92E0E
:1051600002E021E04DE0612F872D0E94100E8F811B
:105170009885830D911D2D813E812A0D3B1D82173F
:105180009307DCF425E0A21AB1088A159B0534F0D8
:10519000632D6D0D262D210F261B04C026E0260D44
:1051A0006AEF610F222349F0C090F80585E0E82EF0
:1051B00002E04DE0872D0E94100E28960FB6F8945D
:1051C000DEBF0FBECDBFDF91CF911F910F91FF903A
:1051D000EF90DF90CF90BF90AF909F908F907F9097
:1051E0006F905F904F903F9008958F92AF92CF92C3
:1051F000EF920F930E941F27882309F48AC0909191
:10520000020680910306981304C08091DD0481306A
:1052100091F4C0900206E090030685E08F9388EF3A
:10522000882E92E0A92E0FE02DE14BE366E389E49E
:105230000E94BA250F90909107068091FC05981363
:105240000AC09091020680910306981304C08091D1
:10525000DD04813059F4009102062091030640914B
:1052600007066091FC058BE30E9469279091070671
:105270008091FC05981304C08091DD04813091F485
:10528000C0900706E090FC0585E08F93B8EF8B2E69
:1052900002E0A02E0FE02DE14BE366E38BE20E94DB
:1052A000BA250F90909106068091010698130AC0C6
:1052B000909107068091FC05981304C08091DD044D
:1052C000813059F4009107062091FC0540910606B3
:1052D000609101068DE10E946927909106068091F8
:1052E0000106981304C08091DD04813091F4C090D0
:1052F0000606E090010685E08F93F8EF8F2EA2E07E
:10530000AA2E0FE02DE14BE366E38DE00E94BA2563
:105310000F900F91EF90CF90AF908F900895682FDE
:105320008EEA94E00E9495268AE00C9472258F9272
:105330009F92AF92BF92CF92DF92EF92FF92CF9364
:10534000DF93C82F70E080E090E00E94CB2F2BED20
:105350003FE049E45FE30E94903024EE3BEC46E1FD
:1053600050E40E94C82E6B017C010E94F3304B0177
:105370005C01C701B6010E942D2FF090F8059058EE
:1053800026E636E646E551E40E9490300E94982FCA
:10539000D62FDC5D26E636E646E551E4C501B401CC
:1053A0000E9490300E94982F862F4F2D6D2F8C0FCA
:1053B000DF91CF91FF90EF90DF90CF90BF90AF90B3
:1053C0009F908F900C94D10D7F928F929F92AF926D
:1053D000BF92CF92DF92EF92FF920F931F93CF93E2
:1053E000DF9300D01F92CDB7DEB7182FA62EB42EB4
:1053F00070E080E090E00E94CB2F2CE739ED40EA8E
:105400005DE30E94903024EE3BEC46E150E40E94C4
:10541000C82E6B017C010E94F33026E636E646E595
:1054200051E40E9490300E94982F962EC701B60139
:105430000E942D2F905826E636E646E551E40E945C
:1054400090300E94982F862E6B2D70E080E090E0C7
:105450000E94CB2F2CE739ED40EA5DE30E949030AB
:1054600024EE3BEC46E150E40E94C82E6B017C0127
:105470000E94F33026E636E646E551E40E9490307D
:105480000E94982F762EC701B6010E942D2F9058AA
:1054900026E636E646E551E40E9490300E94982FB9
:1054A000F62E971006C0861204C08091DD0481306C
:1054B000F1F40091EB0524E2280D492D410F64E23F
:1054C000812F0E9448100091F80524E22F0D472DEE
:1054D000410F64E2812F0E9448108A2D6AE00E94E9
:1054E0003D31911104C0682F812F0E949729BE0180
:1054F0006F5F7F4F8B2D0E9451040091F8059E0134
:105500002F5F3F4F41E06AE28BEF810F0E948C12C8
:105510000F900F900F90DF91CF911F910F91FF90FF
:10552000EF90DF90CF90BF90AF909F908F907F9043
:1055300008950E941F27882399F190910206809177
:105540000306981304C08091DD04813039F4409142
:1055500002066091030683E50E94E4299091070604
:105560008091FC05981304C08091DD04813039F4EA
:10557000409107066091FC0582E30E94E429909126
:10558000060680910106981304C08091DD048130E5
:1055900039F4409106066091010681E10C94E429FA
:1055A00008950F93CF93DF93682F86EB94E00E94CA
:1055B0009526C1E10091F80520E04FE064E28C2FD0
:1055C0000E941E0CD0E06D2F8C2F0E949729DF5F68
:1055D000D730C9F7CF5DC43769F78BE0DF91CF9142
:1055E0000F910C947225AF92BF92CF92DF92EF92FF
:1055F000FF920F931F93CF93DF93182FA62ED22ED7
:10560000F02E642F70E0882777FD8095982F123058
:10561000E0F40E94CB2F2AE939E949E95EE30E94D0
:10562000903020E030E040E850E40E94C92E9B0119
:10563000AC01C62EE32E082FC52F111118C00E94F1
:105640009D2FD62FDC5CC7E237C00E94CB2F20E015
:1056500030E040E45FE30E94903020E030E040E83A
:1056600050E40E94C92EC62EE72E082FC92F2FEF17
:105670003FEF4FEF5EE36C2D7E2D802F9C2F0E941D
:1056800090300E949D2FD4E3D61B28ED33EB4DE5DF
:105690005FE36C2D7E2D802F9C2F113039F40E94FA
:1056A00090300E949D2FC62FC95D06C00E94903089
:1056B0000E949D2FC7E2C61B6D2D70E081E08A1508
:1056C000F8F0882777FD8095982F0E94CB2F2AE944
:1056D00039E949E95EE30E94903020E030E040E89B
:1056E00050E40E94C92EAC016B01E82E052FA110D9
:1056F0001CC00E949D2FB62E84E3B80E67E23CC00A
:10570000882777FD8095982F0E94CB2F20E030E0EE
:1057100040E45FE30E94903020E030E040E850E455
:105720000E94C92E6B01E82E092F2FEF3FEF4FEF9C
:105730005EE3B6018E2D902F0E9490300E949D2F27
:1057400084E3B82EB61A81E028ED33EB4DE55FE334
:10575000B601A81208C08E2D902F0E9490300E9492
:105760009D2F695D09C08E2D902F0E9490300E9460
:105770009D2F862F67E2681B0F2D123058F42C2FB7
:105780004D2F8B2D0E94481011110BC00F2D2C2F67
:105790004AE40FC0262F4B2D6C2F8D2F0E944810EE
:1057A00005C0113019F40F2D2AE302C00F2D24E19A
:1057B0004AE26C2F8D2F0E944810DF91CF911F91EC
:1057C0000F91FF90EF90DF90CF90BF90AF90089532
:1057D0000F931F93CF93DF9300D01F92CDB7DEB707
:1057E0000E941F27882309F4D6C090910206809159
:1057F0000306981304C08091DD04813089F4809100
:105800000206BE016F5F7F4F0E9451040091F805B0
:105810009E012F5F3F4F41E061E28FE40E948C12B6
:10582000909107068091FC05981304C08091DD04D7
:10583000813089F480910706BE016F5F7F4F0E941F
:1058400051040091F8059E012F5F3F4F41E061E355
:1058500080E10E948C1290910606809101069813B7
:1058600004C08091DD04813089F480910606BE0178
:105870006F5F7F4F0E9451040091F8059E012F5FDA
:105880003F4F41E061E180E10E948C12909102065D
:1058900080910306981799F1909107068091FC0575
:1058A00098132DC09091060680910106981327C089
:1058B0008091DD04811123C06091030600910206EE
:1058C00070E080E090E00E94CB2F2AE939E949E9B5
:1058D0005EE30E9490300E949D2F162F602F70E093
:1058E00080E090E00E94CB2F2AE939E949E95EE3A4
:1058F0000E9490300E949D2F161709F44CC0009111
:10590000EB052091FC054091030661E080E00E94D8
:10591000F32A0091EB05209101064091FC0562E01D
:1059200081E00E94F32A0091EB052091030640914B
:10593000010660E082E00E94F32A0091F8052091C0
:1059400007064091020661E080E00E94F32A009180
:10595000F805209106064091070662E081E00E946A
:10596000F32A0091F805209102064091060660E0B6
:1059700082E00E94F32A0091F80523E04AE067E202
:1059800084E30E941E0C0091F80521E040E167E2EB
:1059900084E30E941E0C0F900F900F90DF91CF9127
:1059A0001F910F9108950F93682F81EC94E00E944E
:1059B00095260091F80520E046E167E284E30E9425
:1059C0001E0C0091F8052AE032E040E069E28FE425
:1059D0000E948C120091F8052EE032E040E069E36D
:1059E0008FE00E948C120091F80522E132E040E045
:1059F00069E18EE00E948C124091F80567E284E331
:105A00000F910C94D10DEF92FF920F931F93CF93B0
:105A1000DF93C82FF62E842FE22E1091F805009107
:105A2000F8050E943D319CE0899FD02D1124D75E5E
:105A300025E045E06D2F8C2F0E94920F0091F80514
:105A400020E045E06D2F8C2F0E941E0C8E2D6F2DB7
:105A50000E943D31882339F0813039F4C0FD07C000
:105A60001091EB0504C023E003C022E001C021E057
:105A7000DCE08D9FD02D1124D75E012F45E06D2FE6
:105A80008C2F0E94920F0091F80520E045E06D2FC9
:105A90008C2F0E941E0CDF91CF911F910F91FF90D0
:105AA000EF9008950E941F27882309F44CC080912D
:105AB00002064091030624E1622F0E943D31382FF7
:105AC000842F0E943D31381304C08091DD04813061
:105AD00041F4209102064091030664E183E50E94AF
