:100000000C946F020C948C020C948C020C9460067D
:100010000C948C020C948C020C948C020C948C0228
:100020000C948C020C94841B0C948C020C94111A6A
:100030000C948C020C94231A0C9428190C948C02A6
:100040000C948C020C948C020C948C020C948C02F8
:100050000C948C020C94C2050C948C020C948C02AF
:100060000C94E5160C948C0205A84CCDB2D44EB974
:100070003836A9020C50B9918688083CA6AAAA2A4B
:10008000BE000000803F49922449249200010205ED
:100090000A0F121617191B1E212326272A2D30336B
:1000A00036393C3F424548494B4D505255595C5FAB
:1000B000626567696C6F707275777C8083868A8DE4
:1000C000909396999EA1A4A7A9ACAEB1B4B6B9BAC3
:1000D000BDC12037630003AA1F0A1F0AA2151F15FE
:1000E000087904138A151208234E11510E6A040A66
:1000F000640E045008640404307804037F111F72F6
:100100001F107D151775151F67041F77151D7F15A7
:100110001D611D037F151F77151F2A500A440A6AA7
:100120000A0A4A046115028815190E7E051E7F15FC
:100130000A6E11117F110E5F155F056E111D7F0490
:100140001F3F500F7F041B5F10BF0204021F9F025E
:10015000041F6E110E7F05028E1109167F051A729B
:100160001509611F017F101F6F100FAF100C100FCA
:100170007B041B631C037915135F11630418511F63
:100180006201027010104102641F113F711F04844C
:10019000150E04840E1504000000000000005F002E
:1001A000000007000700147F147F14242A7F2A12FE
:1001B00023130864623649552250000503000000ED
:1001C0001C2241000041221C00082A1C2A080808A1
:1001D0003E08080050300000080808080800606069
:1001E000000020100804023E5149453E00427F4075
:1001F0000042615149462141454B311814127F108C
:1002000027454545393C4A494930017109050336BE
:1002100049494936064949291E003636000000562C
:10022000360000000814224114141414144122143E
:1002300008000201510906324979413E7E1111112F
:100240007E7F494949363E414141227F4141221C3E
:100250007F494949417F090901013E414151327FAE
:100260000808087F00417F41002040413F017F088E
:100270001422417F404040407F0204027F7F0408F7
:10028000107F3E4141413E7F090909063E4151210F
:100290005E7F09192946464949493101017F01011B
:1002A0003F4040403F1F2040201F7F2018207F6399
:1002B00014081463030478040361514945430000A2
:1002C0007F4141020408102041417F0000040201E7
:1002D00002044040404040000102040020545454B5
:1002E000787F484444383844444420384444487F64
:1002F0003854545418087E090102081454543C7FA1
:100300000804047800447D40002040443D00007F04
:1003100010284400417F40007C041804787C0804C5
:10032000047838444444387C14141408081414180D
:100330007C7C080404084854545420043F44402062
:100340003C4040207C1C2040201C3C4030403C4431
:10035000281028440C5050503C4464544C4400082D
:1003600036410000007F0000004136080008082ADE
:100370001C08081C2A08085A100105010000000882
:1003800000090F0A1E0B2D000E0E1D0E1D2B0F3A1D
:100390000E2B0F480A520F610A520F000E0E1D0E4F
:1003A0001D6B0E790D6B0E8610030303030303030D
:1003B0000303030603030603030303060303030304
:1003C00003030303030303030303030303030303FD
:1003D00003030306060303030303030303030303E7
:1003E00003030306030303030303030303030303DA
:1003F000060603030303060303060C0303030303B8
:1004000003030303030303030306030303030303B9
:1004100003030C0C03030303060303030303030397
:100420000306040404040404030303030303060390
:1004300003030304040403030303030C0C0C0C92D6
:1004400092009200749200AE000057000074000009
:10045000570049000062006E006862005792AEC407
:10046000009BAE00920074826E0000AEA49B8A00D6
:1004700092005C62740062748200AEA49B8A009257
:1004800000E800E8E80000008A0000820074000034
:10049000007474007400748200927400625700004B
:1004A0007474007400748292000092740057005CAF
:1004B00000629B009B6200006EC4C4C4AE9B927439
:1004C00000625700006E9B009B9B9282744900491A
:1004D0003A00000000050203010103020500112497
:1004E0001FBECFEFD8E0DEBFCDBF14E0A0E0B1E08B
:1004F000E0ECFFE502C005900D92A03BB107D9F7F3
:1005000025E0A0EBB4E001C01D92AD3EB207E1F7DB
:100510000E94BB2B0C94DE2F0C9400008091C4042D
:100520008093C7048091C3048093C6048091C20461
:100530008093C5048091BE048093C1048091BD0462
:100540008093C0048091BC048093BF0408951F93DE
:10055000CF93DF939091B004C0910001D09101013D
:1005600028E0929FC00DD11D11242E813F81232BA5
:1005700049F0182F0E944F0FEE81FF81812F0995BE
:1005800081E001C080E0DF91CF911F9108950F932A
:100590001F93CF939091B00400910001109101013D
:1005A00028E0929F000D111D11249091B2059093A7
:1005B000B8049091B1059093B7049091AD059093D4
:1005C000B6049091AC059093B5049091B3059093C7
:1005D000BB049091BB049130A9F59091E7059093ED
:1005E000C4049091E8059093C3049091E905909319
:1005F000C2049091EA059093BE049091EB0590930C
:10060000BD049091EC059093BC042091BE049091A0
:10061000C10429130CC02091BD049091C00429137A
:1006200006C02091BC049091BF04291719F091E0F5
:100630009093BA042091AA053091AB053093B4048D
:100640002093B304D8019C91992309F451C0C82F79
:100650000E944F0FC330D1F58091A905813059F424
:100660009091D905913089F08093D9058093B90490
:100670001092C8040AC08091D905823031F082E01E
:100680008093D90581E08093B904D8011496ED9147
:10069000FC91159709958091BB04813011F40E945B
:1006A0008E028091B804813021F41092B804109227
:1006B000B2058091B604813021F41092B6041092F4
:1006C000AD051092B9041092B10412C0C13021F4EA
:1006D0001092D9050E94B3150E948E0281E080938A
:1006E000B104D8011296ED91FC9113978C2F0995C6
:1006F0008091BB04813031F41092BB041092BA0493
:100700001092B305CF911F910F9108958091B0047D
:100710008F5F8093B0048091B004893010F0109204
:10072000B0048091B004E0910001F091010198E0E3
:10073000899FE00DF11D112481810895FB016AE07C
:100740000E94452F805D8083905D91831282089581
:10075000FF920F931F93CF93DF9300D000D0CDB7BC
:10076000DEB7082FF62E0E944F0FE091BD04F0E097
:10077000EE0FFF1FEA5AFE4F2081318140E06F2DBE
:10078000802F0E94EA13182F80E289838091BE0493
:10079000BE016E5F7F4F0E949E039E012F5F3F4F01
:1007A00040E06F2D802F810F0E94EA13180F173140
:1007B00060F40E944A0F47E1411B25E06F2D802F16
:1007C000810F0E9492110E944F0F0F900F900F9077
:1007D0000F90DF91CF911F910F91FF900895AF92ED
:1007E000BF92DF92EF92FF920F931F93CF93DF930D
:1007F00000D000D000D0CDB7DEB7182F062FF42ED2
:1008000082E048130EC08091BA04813029F08091B3
:10081000B104813009F0F9C0602F812F0E94A80334
:10082000F4C08091B704813009F08DC08091B2048A
:10083000EE24E394982F9870D92E83FFE12C8091B9
:10084000B504811104C08091C8048E1115C0809137
:10085000B504813021F48091BB04813069F080912E
:10086000B604813049F08091B804813029F080913C
:10087000B104813009F064C08091B5048130C1F4C5
:100880008091B3049091B4042CE3A22EB12CB50155
:100890000E945F2F862FBE016F5F7F4F0E949E03D5
:1008A0008091B3049091B404B5010E945F2F09C0F8
:1008B0008091D705BE016F5F7F4F0E949E0380919C
:1008C000DD05BE016C5F7F4F0E949E038AE38B8330
:1008D000D11004C08091B504813019F40E944F0FEB
:1008E00002C00E944A0F27E043E16FEF600F8FEFD5
:1008F000810F0E945F15D11004C08091B504813032
:1009000019F40E944A0F02C00E944F0F9E012F5FF0
:100910003F4F40E0602F812F0E94EA13D82E81E0E4
:10092000F8120EC08091B904813051F40E944A0F30
:1009300047E14D1925E0602F812F8D0D0E94921106
:10094000E092C80460C08091B904813049F0809180
:10095000BA04813029F08091B804813009F053C085
:100960001092C8048091D9058130E1F58091B904D5
:10097000813029F08091B804813009F044C00E9490
:100980004A0F27E043E16FEF600F8FEF810F0E9466
:100990005F150E944F0F8091D705BE016F5F7F4F9B
:1009A0000E949E038AE38B838091DD05BE016C5F0C
:1009B0007F4F0E949E039E012F5F3F4F40E0602FBC
:1009C000812F0E94EA13E82E91E0F9121CC00E94C8
:1009D0004A0F47E14E1925E0602F812F8E0D0E94AE
:1009E000921111C00E944A0F27E043E16FEF600FA0
:1009F0008FEF810F0E94921181E0F81204C0602FE6
:100A0000812F0E94A8030E944F0F26960FB6F894DC
:100A1000DEBF0FBECDBFDF91CF911F910F91FF9031
:100A2000EF90DF90BF90AF9008952AE332E041E06D
:100A30006EE081E20E94EA1325E432E041E06EE1DB
:100A400082E10E94EA132FEF8DE399E42150804068
:100A50009040E1F700C0000064E686EA9EE00E9454
:100A6000CB1A64E680EA9FE00C94CB1ACF93DF9315
:100A7000E82FF0E0242F30E02053384F833018F473
:100A80003C962150310970E06F5F7F4F620F731FFA
:100A9000EF01CC0FDD1FC60FD71FA9015695479553
:100AA00056954795C40FD51FC90160E971E00E94B2
:100AB0005F2FC60FD71FC90164E670E00E945F2F49
:100AC0009E01261B370B319646E04E9FC0014F9F7B
:100AD000900D11246AE070E00E945F2FC901860F1B
:100AE000971F67E070E00E945F2FDF91CF9108951C
:100AF0009C0183709927892B39F4C90164E670E061
:100B00000E945F2F892B61F4C90160E971E00E94A6
:100B10005F2F9C0191E0232B09F090E0892F08952D
:100B200081E0089580917A00877F80937A00809198
:100B30007A00806480937A0080917A0084FFFCCFF1
:100B400080917800909179000895EAE7F0E0808143
:100B500088648083089526982E9A81E080936800A7
:100B6000EBE6F0E080818064808382E080937C000B
:100B700010927B00EAE7F0E08FE880838081806458
:100B8000808308951F920F920FB60F9211242F9316
:100B90003F934F935F936F937F938F939F93AF9305
:100BA000BF93EF93FF9378948091780090917900B0
:100BB000803E22E0920770F01092CD041092CF0494
:100BC0008091CA04813021F48093C9041092CA0430
:100BD00084E163C0833622E0920770F18091CF04F4
:100BE00082FD5AC08FE19EE40197F1F700C000003A
:100BF0000E949205825692408E37910508F04CC0B3
:100C00008AEF8093CB048091CB04882369F00E9403
:100C10009205825692408E379105A8F31092CF0428
:100C200084E08093CE0438C01092CE0484E0809398
:100C3000CF048093CD0430C08F309140B0F08091CC
:100C4000CF0481FD10C08FE19EE40197F1F700C051
:100C500000000E9492058E50914085359140E0F44D
:100C600082E08093CE0482E013C08091CF0480FDA7
:100C70000EC08FE19EE40197F1F700C000000E94D2
:100C800092058F30914040F481E08093CE0481E062
:100C90008093CF041092CD0482E08093CC04FF9126
:100CA000EF91BF91AF919F918F917F916F915F91E4
:100CB0004F913F912F910F900FBE0F901F9018955D
:100CC0001F920F920FB60F92112478940F900FBEBF
:100CD0000F901F9018959091C904913021F41092B3
:100CE000D2041092C9049091CD04992369F091E047
:100CF0009093CA049091D2049A3020F49F5F90930D
:100D0000D20404C08E5F03C01092D2048F5F0E9491
:100D1000452F892F08950F931F93CF93DF938C0155
:100D2000EB0166E081E00E941319C8010E941516CC
:100D3000209759F067E081E00E941319CE01DF91FE
:100D4000CF911F910F910C941516DF91CF911F91A8
:100D50000F9108950F931F93CF93DF938C01EB01B5
:100D600066E081E00E94131988EA92E00E9415165D
:100D7000C8010E94151667E081E00E9413198BEBF1
:100D800092E00E941516CE010E9415168B818111EA
:100D900008C089E393E0DF91CF911F910F910C94EC
:100DA0001516DF91CF911F910F910895CF93DF9387
:100DB00062E080E50E941319C2E7D1E08A810E94B7
:100DC000FE158AE30E94D21589810E94FE158AE3EE
:100DD0000E94D2158881DF91CF910C94FE150F935C
:100DE0001F93CF93DF93082FC62F142FD22F63E0CA
:100DF00088E00E9413198DEC92E00E941516402F96
:100E0000612F8C2F0E943605E82FF0E0EE0FFF1FB8
:100E1000E65BFE4F808191810E941516D73311F455
:100E20000E944A0FEC2FF0E0EE0FFF1FEA5AFE4F30
:100E3000808191810E9415160E944F0F80E20E94CE
:100E4000D215812FD83319F40E940B1602C00E94CC
:100E5000FE158CE20E94D215D93311F40E944A0F7C
:100E600084E10E94FE15802F0E94FE15DF91CF9134
:100E70001F910F910C944F0FCF93C82F64E088E01F
:100E80000E94131983ED92E00E9415168091D605F9
:100E900081110AC089E393E00E9415168C2F0E94ED
:100EA000470F81EE92E005C08C2F0E94470F88EE1D
:100EB00092E00E941516CF910C944F0FCF92DF92C3
:100EC000EF920F93CF93DF93EC016B010E944F0FD2
:100ED00085E0E82E02E020E441E060E080E00E944E
:100EE000870F20E441E060E08FE70E94870F60E019
:100EF00081E00E94131980EF92E00E94151661E0D4
:100F000088E00E94131986E093E00E94151662E0C3
:100F100088E00E9413198BE193E00E9415160E944D
:100F2000D606E2E7F1E043816481858122E00E94F8
:100F3000EF068091DE050E943C0765E088E00E9494
:100F4000131988E293E00E9415168091B4000E9464
:100F5000FE15B601CE01DF91CF910F91EF90DF909A
:100F6000CF900C948B06EF920F93CF93C82F85E010
:100F7000E82E02E028E247E068E081E00E94870F67
:100F800021E046E06C2F81E00E9492116FEF6C0F20
:100F900023E041E085E00E945F156EEF6C0F25E0D5
:100FA00041E084E0CF910F91EF900C945F15809118
:100FB000CD04882349F02FE789EA93E0215080404F
:100FC0009040E1F700C000000895CF938091CE04D7
:100FD0008093D1041092CE0480FD2DC081FF03C008
:100FE0001092D20406C0811104C08091CD048823E0
:100FF00021F08AE08093D00404C08091D00488233B
:10100000D1F0909172018091D404981739F081E069
:101010008093D304809172018093D404C091D5044D
:10102000C1110BC08091D304813041F41092D304DC
:101030000E94D60603C0C1E001C0C0E08C2FCF9152
:101040000895BF92CF92DF92EF92FF920F931F937A
:10105000CF93DF9300D000D0CDB7DEB70E94B31599
:10106000809172018093D4041092D3041092D5041D
:101070001FEF5AE0D52E143031F06BE373E081E5B9
:1010800093E00E945E07D092D0041092CE0410929A
:10109000D204123009F48AC290F4112309F43FC13A
:1010A000113009F03FC31091750100917601E09075
:1010B00077018BE10E94B30742E0F42EDAC11330CE
:1010C00009F4C3C21F3F09F02DC38BE00E94B30790
:1010D0000E94E507813009F415C38091D10481FF96
:1010E000F7CF81E08093D5041FEFD092D004109207
:1010F000D204143031F01F3F39F40E94B31510E0D0
:1011000004C01092D504FEC21F5FF090B00560E0ED
:1011100081E00E9413190E944F0F87E693E00E941E
:10112000151601E0602F88E00E94131988E793E00C
:101130000E941516802F0E94FE158FE793E00E94F3
:101140001516AE014F5F5F4FBE016E5F7F4F8FEF91
:10115000800F0E94751A8A810E94FE158AE30E9400
:10116000D21589810E94FE150F5F0530D9F665E022
:1011700088E00E94131987E893E00E941516809179
:10118000B0058F5F0E94FE156BE373E0143019F019
:1011900081E593E002C08AE993E00E948B06812FEB
:1011A000880F880F880F855F0E94B307143049F0BD
:1011B000AE014D5F5F4FBE016C5F7F4F812F0E947C
:1011C000751A00E0BB24B394B10E0E94E50781308C
:1011D00009F4A0C08091D10481FF4DC0011119C054
:1011E000143079F465E084E70E94131981E08F0DD3
:1011F0000E940B1660EB73E0CB010E94AA0603E38A
:101200003AC064EB73E089EB93E00E94AA0604E322
:1012100032C0043339F46DEB73E0CB010E94AA06AF
:1012200005E329C00333A1F465E084E70E941319A4
:1012300081E08F0D0E94FE156F2D87E090E00E94E7
:10124000D02FF092B0056BE373E08AE993E009C018
:101250004B816C81812F0E949A1A6BE373E081E5C8
:1012600093E00E948B064DED55E067ED75E08F2D04
:101270000E94751A00E08091D10482FD04C0809123
:10128000CD04882309F1033371F4F39483E08F15BF
:1012900008F4F12C65E084E70E94131981E08F0DBA
:1012A0000E940B1611C0043341F48C818F5F8C8334
:1012B0008C81883148F01C8207C0053329F48B816A
:1012C0006CE30E946B068B838091D104811104C072
:1012D0008091CD048823D9F01430C9F0EB80CC8004
:1012E0006B2D82E60E9413198C2D043319F40E9491
:1012F0000B1602C00E94FE158AE30E94D2158E2DA5
:10130000053319F40E940B1602C00E94FE150E94BC
:10131000D7075BCF8091D0048111E7CEF3C183E181
:101320000E94B307E12CF12C00E011E0BB24B39440
:101330000E94E507813021F41092D50411E0E5C147
:101340008091D10481FF35C0B092D504113071F481
:1013500000917401F0907301E090720164EB73E00E
:1013600089EB93E00E94AA0614E323C0143339F4F6
:101370006DEB73E0CB010E94AA0615E31AC015338A
:1013800039F461EC73E0CB010E94AA0616E311C0A8
:101390006BE373E081E593E00E948B060093740198
:1013A000F0927301E09272010E94541C1092D504D5
:1013B00011E0C090D104C2FC04C08091CD04882308
:1013C000C1F0143331F40F5F083108F4A3C100E019
:1013D000A1C1153331F46CE38F2D0E946B06F82EFA
:1013E00018C01633B1F46CE38E2D0E946B06E82E04
:1013F00010C0C11004C08091CD04882349F162E07F
:1014000080E50E941319143351F4802F0E940B16AB
:1014100009C0CC2081F362E080E50E941319802F7F
:101420000E94FE158AE30E94D2158F2D153319F400
:101430000E940B1602C00E94FE158AE30E94D2157C
:101440008E2D163319F40E940B1602C00E94FE1551
:101450000E94D7076DCF8091D10481FD0FC080918C
:10146000D10482FD44C08091CD04811140C00E940E
:10147000D7070E94E507813071F746C182E0F81274
:1014800008C065EC73E0CB010E94AA0637E3F32E97
:1014900027C087E3F81208C069EC73E0CB010E9413
:1014A000AA0628E3F22E1CC088E3F81209C06DECEE
:1014B00073E082ED93E00E94AA0699E3F92E10C032
:1014C0006BE373E081E593E00E948B06E092770185
:1014D00000937601109375010E94541C82E0F82E4F
:1014E0002F2D412F602F8E2D0E94EF06B8CF89E35C
:1014F000F81211C064E68E2D0E946B06E82E90E073
:101500000E94780581114BC0023009F048C01D319E
:1015100008F445C03FC087E3F8121EC081E0800F89
:101520008D30B0F5823069F41E3108F01DE18E2D4A
:1015300090E00E94780502E0811131C01D3151F127
:101540002EC0843029F0863019F00D7F083021F547
:101550001F3110F11EE120C088E3F81220C01F5F88
:101560001032E0F4023059F41E31C0F48E2D90E0B8
:101570000E947805811113C01D3181F010C0802FA9
:101580008D7F843011F0893051F41F3139F007C05C
:1015900001E005C01CE103C0082F01C011E02F2DA0
:1015A000412F602F8E2D0E94EF0661CF83E20E94B3
:1015B000B30713E00E94E507813041F46091D6053E
:1015C00086E090E00E94D02F13E09FC08091D1046C
:1015D00081FF19C0133061F48091D6050E943C0749
:1015E00066ED73E08CEE93E00E948B061AE30BC06D
:1015F0008091DE050E943C076BE373E081E593E098
:101600000E948B0613E08091D10482FD04C080917A
:10161000CD048823B9F01A33A9F48091D6059091AE
:10162000DE059093D6058093DE0566ED73E08CEEC3
:1016300093E00E945E0783E20E94B3078091D60583
:101640000E943C070E94D707B5CF60E070E08AE9AE
:1016500093E00E948B068BE20E94B30714E00E9485
:10166000E507813041F46091B40081E090E00E9490
:10167000D02F14E04AC08091D10481FF15C065E0ED
:1016800084E70E941319143041F466ED73E08CEE88
:1016900093E00E948B061BE307C06BE373E08AE9CB
:1016A00093E00E948B0614E08091D10482FD04C077
:1016B0008091CD04882371F01B3361F48091B400D4
:1016C000803118F01092B40005C08091B4008F5F93
:1016D0008093B4008091D104811104C08091CD0425
:1016E000882369F065E084E70E9413198091B400B3
:1016F0001B3319F40E940B1602C00E94FE150E94B3
:10170000D707ADCF10E001C012E08091D004811165
:10171000B2CC08C0CC2009F46ECE62E080E50E9415
:10172000131973CE0F900F900F900F90DF91CF9100
:101730001F910F91FF90EF90DF90CF90BF90089591
:10174000E82FF0E0E552FB4F677081E090E001C0C8
:10175000880F6A95EAF79081892B8083089590918C
:10176000D9048091D804981791F08091DA04E0911F
:10177000D604F091D704811106C0EE52FF4FE491D8
:101780008E2F8F7105C0E956FE4F849101C080E015
:1017900090915B05911101C0809508959091DA04B4
:1017A000E82FF0E091111DC09FE9980F9A3120F0C9
:1017B0008B3720F480E003C080E201C08AE1B0975B
:1017C000E81BF109E457FF4FE4918E2F90E0FC01F4
:1017D000EE52FF4FE491E295E695E770E093D8046E
:1017E000089525E02093D804B0972E9FC0012F9F25
:1017F000900D11240895CF92DF92EF92FF920F93F4
:101800001F93CF93DF93D82FC62ED42E0BED14E069
:10181000C0E090E09C012B5D34407901CD15B9F01A
:10182000CC2339F0C701800F911F8F739927892B23
:1018300039F46C2D8C2F8D0F0E9413190E9499186A
:101840000E949918F80181938F01CF5FE7CFDF9154
:10185000CF911F910F91FF90EF90DF90CF9008955F
:101860002F923F924F925F926F927F928F929F92B0
:10187000AF92BF92CF92DF92EF92FF920F931F939E
:10188000CF93DF93CDB7DEB762970FB6F894DEBF84
:101890000FBECDBFF82E2C87B62EB694B694B69454
:1018A0006770CA01880F991F9401280F391F388764
:1018B0002F83280F391F3B872A8710E08E2D90E059
:1018C0009E878D87F401E40FF51FF88BEF87802F3B
:1018D00090E09C0125523B4F3A8B298B1E1508F056
:1018E000C3C0812E912C462F50E05E834D832D8501
:1018F0003E852819390988E090E0841B950B28174C
:1019000039071CF4DE2CD11A03C028E0D22ED61AD7
:1019100088E090E08D19910922242A94312C02C08C
:10192000359427948A95E2F7C1010D8002C0880F93
:10193000991F0A94E2F79C838B839B819987E7E048
:10194000ED1528F0402F6B2D8F2D0E94FB0B6B2D7A
:101950008F2D0E9413198BED282E84E0382E6A8477
:101960007B844F8058842F8538893A8329833B8133
:1019700030953B8329893A892215330509F470C0D3
:1019800041E0C41213C0E981FA81A11002C0849120
:1019900001C0808190E0082C02C0959587950A943B
:1019A000E2F7092E000CAA0BBB0B28C0F2E0CF1205
:1019B00011C0F201A11003C08591949102C08081F1
:1019C0009181082C02C0969587950A94E2F7A0E0D1
:1019D000B0E014C0F301A11005C085919591A591C7
:1019E000B49104C080819181A281B381082C04C08C
:1019F000B695A795979587950A94D2F70C8404C05D
:101A0000B695A795979587950A94D2F70D8004C04F
:101A1000880F991FAA1FBB1F0A94D2F7282F309155
:101A20005B05311101C02095F8E0DF1639F0F101B6
:101A30008081FB818F2339852323282B822F0E94CD
:101A4000B7184FEF241A340A54E0650E711C8981CF
:101A50009A8101969A838983F20132962F018ACF67
:101A6000B3941D0D60E03ACF62960FB6F894DEBFD6
:101A70000FBECDBFDF91CF911F910F91FF90EF90DF
:101A8000DF90CF90BF90AF909F908F907F906F909E
:101A90005F904F903F902F9008958F929F92AF92BA
:101AA000CF92EF920F931F934801A12CCC24C394A3
:101AB000E22E042F20E040E050E00E94300C1F9105
:101AC0000F91EF90CF90AF909F908F9008958F924D
:101AD0009F92AF92CF92EF920F931F934801AA2447
:101AE000A394CC24C394E22E042F20E040E050E0E5
:101AF0000E94300C1F910F91EF90CF90AF909F906C
:101B00008F9008958F929F92AF92CF92EF920F9302
:101B10001F934801A12C92E0C92EE22E042F20E051
:101B200040E050E00E94300C1F910F91EF90CF9059
:101B3000AF909F908F9008958F929F92AF92CF9287
:101B4000EF920F931F934801AA24A39492E0C92E09
:101B5000E22E042F20E040E050E00E94300C1F9164
:101B60000F91EF90CF90AF909F908F9008958F92AC
:101B70009F92AF92CF92EF920F931F934801A12CA7
:101B800093E0C92EE22E042F20E040E050E00E94B6
:101B9000300C1F910F91EF90CF90AF909F908F904E
:101BA00008958F929F92AF92CF92EF920F931F93CF
:101BB0004801AA24A39493E0C92EE22E042F20E02A
:101BC00040E050E00E94300C1F910F91EF90CF90B9
:101BD000AF909F908F9008952F923F924F925F9277
:101BE0006F927F928F929F92AF92BF92CF92DF922D
:101BF000EF92FF920F931F93CF93DF93D82FF62E80
:101C0000E42EA22E842F880F93E0B92EB81A862FC7
:101C100090E050E09C01240F351F63E03595279537
:101C20006A95E1F7722E9924939422E0A212912CE6
:101C300020E0E22FF0E0E55EFA4F10822F5FE2161F
:101C4000C0F7841B950B23E0959587952A95E1F7BE
:101C5000C82F30E4832E682C6D1A5D2E550C442459
:101C60004A944D0E7C1608F4FCC00E2D3B2CC12C62
:101C7000DD24DA94212C10E001170CF473C0AA20A3
:101C800051F033E0A31203C0222029F050C0812F6D
:101C9000817089114CC06F2D600F862F86958695B7
:101CA0008695C81306C080E4810F0E94A00B81E0D6
:101CB00001C080E06F2D601B962F969596959695A6
:101CC000C91305C080E4810F0E94A00B02C08130BF
:101CD00041F4812F8D0F8D1508F4D82EC81608F405
:101CE000C82E6F2D610F862F869586958695C81311
:101CF00006C080E4800F0E94A00B81E001C080E05C
:101D00006F2D611B962F969596959695C91305C0D4
:101D100080E4800F0E94A00B02C0813041F4802F2C
:101D20008D0F8D1508F4D82EC81608F4C82E37FE6E
:101D300008C096E0930D812F880F880F392E380E3A
:101D400009C0812F801B880F880F9AE0930D382ED1
:101D5000390E015082E0281611F0239401C0212C85
:101D60001F5F8ACF2FEFD21202C0CF5F7BCF41E03F
:101D70004C0D4D196C2F8D2D0E94FB0B6C2F8D2D52
:101D80000E941319262C2D0C312C0C2D10E00D194E
:101D90001109832D820DA32DB0E00A171B07B4F0A3
:101DA00020915B05A552BB4F90E0FC01E552FB4F33
:101DB000213021F49C918081892B04C08081809501
:101DC0009C9189230E94B7183394E3CF3D2F3C198F
:101DD000C32E1D2F130F052D0D19D01302C0442D36
:101DE00001C0402F411758F081E0811B480F6C2F34
:101DF000812F0E94FB0B6C2F812F0E941319282C1E
:101E00002C18312C802F90E09C01211B3109890175
:101E1000222D2319832D90E0081719070CF4A5CF64
:101E2000C22ED12C2034B9F020915B05FC01E55283
:101E3000FB4F213039F49081F601E552FB4F808150
:101E4000892B07C0D601A552BB4F8C9180959081FC
:101E500089230E94B718F601E552FB4F1082339494
:101E6000D7CFDF91CF911F910F91FF90EF90DF902F
:101E7000CF90BF90AF909F908F907F906F905F902A
:101E80004F903F902F90089580915B050895809327
:101E90005B0508958091D60580935B050895809138
:101EA000DE0580935B0508950F931F93CF93DF9317
:101EB000082F862F8770C1E0D0E001C0CC0F8A9533
:101EC000EAF7162F169516951695612F802F0E940A
:101ED00013190E9499180E94991890915B059130EE
:101EE00011F4C82B02C0C095C823C81759F0612F40
:101EF000802F0E9413198C2FDF91CF911F910F918A
:101F00000C94B718DF91CF911F910F9108952F92E4
:101F10003F924F925F926F927F928F929F92AF9279
:101F2000BF92CF92DF92EF92FF920F931F93CF93C6
:101F3000DF93CDB7DEB727970FB6F894DEBF0FBE9D
:101F4000CDBF782E642ED22E1E2D862E869486949A
:101F50008694262F2770C22E011117C0123039F433
:101F6000822F63E00E94452F91959E834AC01330D3
:101F700031F4822F6E2D0E94452F9E8323C1113094
:101F800009F01FC161706E831DC1013031F512303F
:101F900069F4822F90E08D0D911D919581959109A5
:101FA00063E070E00E94732F8F5F0BC0133061F409
:101FB000822F90E08D0D911D019763E070E00E94EB
:101FC000732F8E8300E01DC0113009F0FAC081E04C
:101FD0008D0D820F81708E83F5C0082F123029F489
:101FE000862F90E0821B910907C0133009F0ECC0E6
:101FF000822F90E0861B910963E070E00E94732FAE
:102000008E834E8147FF02C04D5F4E83F12C1F82AD
:10201000E12C912C4D2C512C5EEF510F5B83802FC6
:10202000002E000C990B9D838C839D1408F0CEC06C
:10203000A92CB12CC11007C0C2018A199B090897AD
:1020400014F0143041F4462D682D872D0E94FB0BAF
:1020500091E0998301C01982682D872D0E94131980
:102060002C2D30E0A2014A195B0988E090E0821B28
:10207000930B481759071CF4CD2CC91803C0E8E08E
:10208000EC19CE2EFB81F23068F48C819D814E815B
:10209000840F911D47FD9A9563E070E00E94732FB5
:1020A000F82E08C0113031F48E81802780FD1CC0CD
:1020B0005AEA5F8388E090E08C199109EFEFF0E035
:1020C00002C0F595E7958A95E2F7CF0101C0880F28
:1020D0002A95EAF7282EF82FF095FA838BEDA82E93
:1020E00084E0B82E312C2DC045E54F83E3CF5981D4
:1020F000513011F4F501E08080915B05112309F462
:1021000041C0153009F441C0113011F58130E1F0C2
:102110003320D1F0882309F43AC0F8E0CF1609F44F
:102120003DC02A81E2228F818221E82A8E2D0E94E1
:10213000B71842E0F416A1F1F39433945FEFA51AB7
:10214000B50A3610D4CF2EC0FF81F095FF83E2CFC1
:10215000123049F4EF2D0F2C000CFF0BE757FF4F07
:1021600024912F83D7CF133049F4EF2D0F2C000C7F
:10217000FF0BEA57FF4F44914F83CCCF5E2D509514
:102180005F83C8CF9FEF9F83C5CF1F82C3CF14301B
:1021900009F4C3CFEF81E095EF83BFCFEF80C6CFC7
:1021A000F12CCBCF8394123021F48E818E5F8E83FD
:1021B00005C0133019F49E819F5F9E839C0CC12C37
:1021C00034CF1E8200E022CF1E8220CF27960FB68A
:1021D000F894DEBF0FBECDBFDF91CF911F910F915D
:1021E000FF90EF90DF90CF90BF90AF909F908F9037
:1021F0007F906F905F904F903F902F9008959F92A7
:10220000AF92BF92CF92DF92EF92FF920F931F9304
:10221000CF93DF93C82EB62ED42EA22EF42E842F69
:10222000880F13E0181BD0E099249394C0E0FC16AB
:102230000CF46CC0CF1539F117FD3FC081E0981246
:1022400001C0DD0F2F2D220F2F5FEA2C02E041E0AD
:102250004D0F6B2D6F198C2D8C1B0E94870FC11198
:1022600003C081E0D8124AC02C2F220F2F5FEA2C26
:1022700002E041E06B2D6C1B8F2D8C0D0E94870FAF
:10228000C11140C03BC0C11103C081E08D1598F061
:1022900017FD13C0911018C02F2D220F2F5FEA2CAD
:1022A00002E041E04D0F6B2D6F198C2F8C0D8D1BB3
:1022B0000E94870F09C017FF16C01A5F8C2F880F66
:1022C000880F180FDF5F18C0CF111EC02C2F220FF0
:1022D0002F5F41E04D0FEA2C02E06B2D6C1B8C2D23
:1022E0008F190E94870F8C2F8F19880F880F165F08
:1022F000180FFA94D0E0912CCF5F99CF81E08D1523
:1023000090F3C8CF992041F2D0E0E0CFDF91CF9198
:102310001F910F91FF90EF90DF90CF90BF90AF9003
:102320009F900895EF920F93E12C02E00E94870F97
:102330000F91EF9008951F93CF93DF938093DA046A
:10234000EB0110E08991882339F00E94CE0B809137
:10235000D8048F5F180FF6CF812FDF91CF911F9197
:1023600008952F923F924F925F926F927F928F9239
:102370009F92AF92BF92CF92DF92EF92FF920F9314
:102380001F93CF93DF9300D000D0CDB7DEB78B8300
:10239000E62EF42EF81A3F2D822F861B8C831F14F5
:1023A0000CF4C7C0F194982F97FD91959C8391E010
:1023B000311101C090E0992E919418164CF091E0E3
:1023C000811101C090E0C92EC19404C09924939456
:1023D000CC24C3947C8076946F2C66948E2C869447
:1023E00086948694022F069506950695081907FD92
:1023F00001950F5F8C81F81618F0FA82198204C0DB
:102400009C819A8381E08983842F9B81491708F4FA
:10241000892F9B81941708F4492F841738F0E42FF3
:10242000F0E0E552FB4F10824F5FF7CF312C212CAB
:1024300010E0832D90E0801791070CF084C06E2D82
:102440008B810E94A00B4B80D42C8A81281650F5DA
:102450002394498141110AC08C81680E6F1410F0D9
:102460006F18EC0C9B81990D9B8309C07F0C4C81EC
:10247000741620F0741A8B81890D8B83EC0C8E2DD1
:1024800086958695869588120DC09B819D1508F4CA
:10249000D92E4B81441608F4442E6E2D8B810E9458
:1024A000A00BD3CFBD2C55245A944B1438F1BD1436
:1024B00019F08B2D8F7331F4682D8B2D0E94131919
:1024C0000E9499180E94991890915B052B2D30E07D
:1024D000F901E552FB4F913019F49081982B03C01C
:1024E0009081909598234FEF541202C098135B2C63
:1024F000F901E552FB4F9083B394D7CF57FC14C03A
:10250000682D852D0E9413190FC0AD2CB12CD51448
:1025100030F0F501E552FB4F80810E94B718F501BC
:10252000E552FB4F1082D3944D1478F78C0C339402
:1025300080CF9C8119160CF449CF9C8191959C8386
:10254000992493943CCF0F900F900F900F90DF91B0
:10255000CF911F910F91FF90EF90DF90CF90BF90A0
:10256000AF909F908F907F906F905F904F903F9033
:102570002F9008952F923F924F925F926F927F9289
:102580008F929F92AF92BF92CF92DF92EF92FF9283
:102590000F931F93CF93DF93CDB7DEB72E970FB670
:1025A000F894DEBF0FBECDBF8D834C832A873B8757
:1025B000962E96949694969467706983B901842FA9
:1025C0000E949B11809F802D11248B832C812223BC
:1025D00011F087E001C085E08E9DD02C1124B12C34
:1025E000812CF12CA12C10E0312CC12C8D2D90E0F0
:1025F00099878887CD1408F0D3C06C2C712CF98191
:10260000EF2FF0E0FF83EE832981211106C088853A
:102610009985861997090897C4F44B81692D8D8196
:102620000E94FB0B8885998586199709EE81FF81A9
:102630008E0F9F1F09972CF0F8E02981F21BFE876F
:1026400006C03D2D3C193E8702C088E08E87692D6B
:102650008D810E94131988E090E0EE858E1B910910
:102660002FEF30E002C0359527958A95E2F7098073
:1026700001C0220F0A94EAF72C8331E0098001C0DF
:10268000330F0A94EAF73C878A8589839B859A836E
:102690006F2C7A2C412C512C1D86242C3B81431607
:1026A00008F077C09091D9048091D804891710F070
:1026B000211028C01092D904E981FA818191FA830E
:1026C000E9830E94CE0B9093D7048093D604FD85B6
:1026D000F01711F0211019C00E94AF0B382E809115
:1026E000D9048F5F8093D9048091D6049091D70448
:1026F00001969093D7048093D6042E85283079F0E4
:102700001D8606C09D85901739F33E85383021F02F
:10271000F201E552FB4F10818D8581112AC0832D76
:1027200090E0E1E00F2C02C0959587950A94E2F7BE
:10273000EE120BC00E8001C0880F0A94EAF7B82E83
:102740006E846F0C8C807A2C13C02C856F2C7A2CA5
:102750009E85B12C992359F080FDB22A7394E7101D
:1027600003C086956394712C220F9150F3CF8C8017
:102770001D86882D80951823882D8B21182B812F5D
:102780000E94B718FD85FF5FFD872FEF421A520A9E
:1027900084CF93948E85C80E1982F62CA72C2ACF4D
:1027A0008B812E960FB6F894DEBF0FBECDBFDF91A2
:1027B000CF911F910F91FF90EF90DF90CF90BF903E
:1027C000AF909F908F907F906F905F904F903F90D1
:1027D0002F900895EF920F93EE24E39401E00E946E
:1027E000BA120F91EF9008952F923F924F925F92FD
:1027F0006F927F928F929F92AF92BF92CF92DF9211
:10280000EF92FF920F931F93CF93DF93CDB7DEB775
:1028100062970FB6F894DEBF0FBECDBFD82E4A83A5
:1028200029832801662E6694669466946770A62EA6
:10283000B801842F0E949B118C9D702C11242A8139
:10284000222311F087E001C085E08E9D302D1124F8
:102850003E834981423041F481508987D394D31A11
:102860001A8651E05D8305C087E08A8719869FEF4D
:102870009D831C82F12C00E01A8AE72DF0E0F88796
:10288000EF834A89471508F000C1F981F23019F445
:10289000A1100EC006C02981213019F437E0A3121F
:1028A00007C08F8198854A89841B910908975CF538
:1028B0004E81662D8D2D0E94FB0B5981523061F4A3
:1028C0008F819885EA898E1B91098A0D911D099740
:1028D000B4F018E01A1918C0F981F13081F48F8131
:1028E00098852A89821B910928E030E02A1931094C
:1028F000820F931F09971CF011E01A0D05C0172DC8
:102900003A89131B01C018E0662D8D2D0E94131902
:10291000412F50E088E090E0841B950BEFEFF0E052
:1029200002C0F595E7958A95E2F7CF019927F981DD
:10293000F23041F4282F0A2C01C0220F0A94EAF742
:10294000298B0CC02A2D30E02F5F3F4F241B350B05
:10295000482F01C0440F2A95EAF7498B81E001C056
:10296000880FAA94EAF78B87120159855B83BF2CE5
:10297000A12C9C81892F90E09F878E87E989E09523
:10298000E88BEE81AE1608F074C0FC81F093D90498
:10299000F20180810E94CE0B2E853F85820F931F0E
:1029A0009093D7048093D6040E94AF0B41E050E08F
:1029B0000B8002C0440F551F0A94E2F75D874C87D5
:1029C00012018B84BF2C1A83912C3A813323B9F1E5
:1029D000282F30E0EC85FD852E233F23232B09F0A3
:1029E0009828F981F23011F4880C01C08694B394D0
:1029F000CB1021C08091D9049091D804891749F057
:102A00008F5F8093D9048091D6049091D70401966A
:102A10000BC01092D904F1018181882349F0FFEFA6
:102A20002F1A3F0A0E94CE0B9093D7048093D604AE
:102A30000E94AF0BB12C2A8121502A83C6CF8A2C49
:102A40008E0C49899422A81479F0183029F0EA2DC7
:102A5000F0E0E552FB4F0081588905230929802FBA
:102A60000E94B718A394EFCF8B819D81891B8B8324
:102A700088CFFD816F0E2091D9042C833A89310FC4
:102A80003A8B2101AA84FB2CFCCE872D62960FB6CF
:102A9000F894DEBF0FBECDBFDF91CF911F910F9194
:102AA000FF90EF90DF90CF90BF90AF909F908F906E
:102AB0007F906F905F904F903F902F900895CF92AE
:102AC000DF92EF92FF920F931F93CF93DF934423F4
:102AD00089F1222379F1122FC42FF62ED82F4330FB
:102AE000B8F08EEFC82EC40EDD24D394DD0EE12C99
:102AF00002E021E04C2D8D2D0E94870F123040F016
:102B00006FEF6F0D610F21E04C2D8D2D0E94870F0F
:102B1000E12C02E0212F41E06F2D8D2F0E94870FC5
:102B2000C23040F08FEF8D0F212F41E06F2D8C0FC1
:102B30000E94870FDF91CF911F910F91FF90EF902F
:102B4000DF90CF90089560EC80E00E9435186FE32D
:102B500080E00E94351860EC81E00E9435186FE338
:102B600081E00C9435181F93CF93DF939091D60595
:102B700081E0911101C080E0D82FD195C0E06C2F89
:102B800080E00E94131910E08D2F0E94B7181F5F7C
:102B90001038D1F7CF5FC83091F7DF91CF911F91F7
:102BA0000C94A3150F931F93CF93DF9390E080971E
:102BB00025E0289F8001299F100D1124C0E0D0E05E
:102BC000F801EC0FFD1FE956FE4F849190915B05D3
:102BD000911101C080950E94B7182196C530D1058A
:102BE00079F780915B05811102C08FEF01C080E011
:102BF000DF91CF911F910F910C94B718CF936AE09A
:102C00000E94452FC92F805D0E94D21580E38C0F52
:102C1000CF910C94D215CF93C82F0E944A0F8C2FBE
:102C20000E94FE15CF910C944F0FCF93DF93EC01D0
:102C30008991882319F00E94D215FACFDF91CF91A4
:102C40000895ECEBF0E080818F70806D80830895B3
:102C50008091BC0087FFFCCF08958093BB00ECEB14
:102C6000F0E080818F70806880830895ECEBF0E065
:102C700080818F70806C80830895ECEBF0E0808120
:102C80008F70806880830895459A449A10925F05FA
:102C900010925E0510925D0510925C0580E28093B3
:102CA000B800ECEBF0E08081846080831092A30593
:102CB000808181608083808180648083789408959E
:102CC000FF920F931F93CF93DF93C82F162FF42EED
:102CD000052F8091BC008E7F8093BC008091BC004A
:102CE0008F70806A8093BC000E9428168C2F8E7F84
:102CF0000E942D160E9428168091B900883169F42F
:102D0000CF2DD02F112339F089910E942D160E94CA
:102D100028161150F7CFC0E001C0C1E00E94211673
:102D20008091BC0084FFFCCF8091BC0081608093C7
:102D3000BC008C2FDF91CF911F910F91FF900895D0
:102D4000FF920F931F93CF93DF93C82F162FF42E6C
:102D5000052F8091BC008E7F8093BC008091BC00C9
:102D60008F70806A8093BC000E9428168C2F81602F
:102D70000E942D160E9428168091B9008034B1F46B
:102D8000CF2DD02F123048F00E9436160E94281600
:102D90008091BB0089931150F5CF0E943D160E948F
:102DA00028168091BB008883C0E001C0C1E00E946A
:102DB00021168091BC0081608093BC008C2FDF9134
:102DC000CF911F910F91FF9008951F920F920FB610
:102DD0000F9211242F933F934F935F936F937F93A1
:102DE0008F939F93AF93BF93EF93FF938091B9001D
:102DF000887F803609F48DC078F5883209F45CC08C
:102E000090F4803109F456C038F4882309F4E2C004
:102E1000883009F44FC0E6C0883109F44DC08032D3
:102E200009F467C0DFC0803409F48AC058F48033E5
:102E300009F45FC0883309F0D5C08091BC008F7061
:102E40008068CCC0803509F457C0883509F445C086
:102E5000883409F0C7C04DC0883909F471C0A8F49E
:102E6000883709F456C038F4883609F452C08037E0
:102E700009F44FC0B7C0883809F462C0803909F43A
:102E80004EC0803809F0AEC04AC0803B09F46EC025
:102E900038F4803A09F457C0883A09F467C0A2C0F0
:102EA000803C09F492C0883C09F48FC0883B09F447
:102EB0006EC098C080E00EC0E091820580918105CF
:102EC000E817B8F481E08E0F80938205F0E0ED57AB
:102ED000FA4F80810E942D1685C0E091600581E047
:102EE0008E0F809360058091BB00F0E0EF59FA4FA0
:102EF00080830E94211674C08091BB00E091600520
:102F000091E09E0F90936005F0E0EF59FA4F8083B7
:102F100017C085E08093A305109260054AC0E09138
:102F2000600581E08E0F809360059091BB00F0E01A
:102F3000EF59FA4F9083803218F40E94361652C02F
:102F40000E943D164FC08091BC008F70806C8093B2
:102F5000BC00E0915E05F0915F05309709F440C038
:102F600061E675E08091600509953AC084E0809340
:102F7000A305E0915C05F0915D05309731F063E8C1
:102F800075E080E209958093810510928205E091B9
:102F9000820581E08E0F80938205F0E0ED57FA4FB5
:102FA00080818093BB009091820580918105981764
:102FB00028F48091BC008F70806C04C08091BC00AC
:102FC0008F7080688093BC000DC08091BC008F70B2
:102FD000806C04C08091BC008F70806D8093BC00B9
:102FE0001092A305FF91EF91BF91AF919F918F91A7
:102FF0007F916F915F914F913F912F910F900FBEF5
:103000000F901F901895F8948BB1806F8BB985B194
:103010008F6085B92F988AB18F708AB984B1807F0B
:1030200084B92D9A2C9A0000000089B193B12C9894
:1030300087FF08C000000000000000002C9A00007C
:103040000000F1CF2D988AB1806F8AB984B18F606A
:1030500084B9789408955A98409A0895811102C0CD
:103060000C942B1840985A9A0895CF93DF93D82F39
:10307000C62FF8948091A4058D1719F08D2F0E940A
:103080002E180E9403182F982D982C9A8AB1806FC1
:103090008AB984B18F6084B98BB18F708BB98BB1D1
:1030A0009C2F907F892B8BB985B1807F85B985B1A5
:1030B000CF70C82BC5B90000000000000000000060
:1030C0000000000000002C988091A405D8130E94F5
:1030D0002E187894DF91CF910895CF93DF93C0910C
:1030E000A505DC2FD295D695D695D3708091A405F1
:1030F000D81729F08D2F0E942E18D093A4056C2F7D
:103100006F7360648091A405DF91CF910C943518A2
:10311000682F8093A6058091A405E82FF0E0EC5578
:10312000FA4F9381691721F06383686B0C9435180B
:103130000895F8940E9403182F9A8AB18F708AB963
:1031400084B1807F84B92D9A2C9A00000000000081
:103150000000000000000000000029B193B12C988D
:103160002D987894207F892F8F70822B0895CF938C
:10317000C82FF8940E9403182F9A2D982C9A8AB180
:10318000806F8AB984B18F6084B98BB18F708BB92D
:103190008BB19C2F907F892B8BB985B1807F85B9AE
:1031A00085B1CF70C82BC5B9000000000000000039
:1031B00000000000000000002C9878948091A50584
:1031C0008F3720F080E48093A5050CC08F5F80933B
:1031D000A5058F7339F40E946D188091A605CF91D3
:1031E0000C948818CF9108952F982D982C9840987A
:1031F0005A98279A259A249A389A529A8BB18F70A6
:103200008BB985B1807F85B98AB1806F8AB984B165
:103210008F6084B90E942B18E4EAF5E010828FEFEA
:10322000838384830895CF93C62F8093A5050E943E
:103230006D188C2FCF910C94881880E280937101C7
:103240008091B5058093B60581E080937001089563
:103250001F920F920FB60F9211242F933F934F930B
:103260005F936F937F938F939F93AF93BF93EF93EE
:10327000FF938091BB05882329F08091BB05815085
:103280008093BB058091CB04882329F08091CB04E7
:1032900081508093CB048091CC04882359F0809195
:1032A000CC0481508093CC048091CC04811102C065
:1032B0000E94A5058091B105813009F092C08091EE
:1032C000AA059091AB05892B09F08BC08091B905B7
:1032D0009091BA05892B09F07AC09091B60580913A
:1032E000B5053091700198131CC03130D1F4809134
:1032F0007101803219F41092710103C08E5F8093C6
:1033000071018091710190E0FC01E957FC4F24911B
:103310002093B605FC01E857FC4FE491E20FE093DF
:10332000B5058091B605313001F51092700190E03D
:10333000FC01E15CFB4FE49129E0E29FF0011124E4
:10334000F093B805E093B705FC01E755FC4F849175
:1033500023E6829FC001112463E070E00E945F2F8A
:103360007093BA056093B90510C091E09093700115
:103370001092B8051092B70521E330E03093BA05FA
:103380002093B9058F5F8093B6058091B705909122
:10339000B805892B21F410928100439818C010922F
:1033A000800089E08093810083E080936F0020910A
:1033B000B7053091B80540E050E060E079E08DE37A
:1033C00090E00E94872F309389002093880080919D
:1033D000B9059091BA0501979093BA058093B90504
:1033E0000FC08091AE059091AF05019649F41092FF
:1033F000810043981092AF051092AE050E941D19EE
:10340000FF91EF91BF91AF919F918F917F916F91BC
:103410005F914F913F912F910F900FBE0F901F9092
:1034200018951F920F920FB60F9211248F939F93AE
:1034300098B188E0892788B99F918F910F900FBE2E
:103440000F901F9018951F920F920FB60F92112494
:103450002F933F934F935F936F937F938F939F939C
:10346000AF93BF93EF93FF930E94111AFF91EF91D7
:10347000BF91AF919F918F917F916F915F914F918C
:103480003F912F910F900FBE0F901F9018951E9B8C
:103490001AC08091A905813039F51092A9051092C2
:1034A000AB051092AA051092AF051092AE0580915F
:1034B000B1058130C9F41092B1051092AC0510929B
:1034C000810043980FC08091A90581110DC081E052
:1034D0008093A9051092AB051092AA051092AF0532
:1034E0001092AE050C941D190895EF92FF920F9360
:1034F0001F93CF93DF937B018A01C82FD0E0CC0FBD
:10350000DD1FCE0108960E94C82F68E10E94452F5A
:10351000F7019083CE0109960E94C82F6CE30E94A8
:10352000452FF8019083DF91CF911F910F91FF906C
:10353000EF9008950F931F93CF93DF9300D0CDB7F3
:10354000DEB769834A83082F10E0000F111F6981DD
:10355000C80108960E94D02F6A81C80109960F9071
:103560000F90DF91CF911F910F910C94D02F982F36
:1035700092959F7069238F709AE0699F800D112446
:1035800008956AE00E94452F292F30E1839FC001F2
:103590001124822B0895CF93C62F1092800029E02A
:1035A0002093810023E020936F009C0140E050E0D5
:1035B00060E079E08DE390E00E94872F30938900EE
:1035C00020938800C93140F08FE493EC0197F1F724
:1035D00000C00000C951F6CF109281004398CF91EE
:1035E0000895CF93DF9380E090E00E94C82F8A3542
:1035F00069F0C0E0D0E0FE01E958FC4F6491CE01D3
:103600000E94D02F2196C031D105A9F7DF91CF912B
:1036100008951092BB041092BA048091B3058823D8
:10362000E1F38CE38093E7051092B3058091B30535
:103630008823E1F381E08093BB0408950F931F93E7
:10364000CF93DF93CDB7DEB729970FB6F894DEBFDF
:103650000FBECDBF1986F894AE01475F5F4F61E0A2
:1036600080ED0E94601681110E949D2BAE014F5F7C
:103670005F4F67E080ED0E94A01678948111F4CF2F
:10368000098107FD35C06FE08F810E94B71A8093D2
:10369000770161E08E810E94B71A8093760163E022
:1036A0008D810E94B71A809375011B8116FF0CC093
:1036B00061E0812F0E94B71A15FB112710F99CE0D9
:1036C000199F800D112404C063E0812F0E94B71A56
:1036D0008093740167E08A810E94B71A8093730116
:1036E00067E0802F0E94B71A8093720180E001C0CA
:1036F00081E029960FB6F894DEBF0FBECDBFDF91F3
:10370000CF911F910F9108951F920F920FB60F92B4
:1037100011242F933F934F935F936F937F938F93D6
:103720009F93AF93BF93CF93EF93FF93A89580910F
:10373000B405813279F41092B405C0917201809180
:10374000BC05813059F41092AF051092AE0510926D
:10375000BC0504C08F5F8093B40594C00E94471AD3
:103760000E941E1B80917201C817A9F18091D0049C
:10377000882329F08091D00481508093D0048091D7
:10378000B105813041F52091AA053091AB0521307A
:10379000310551F49091AD05911104C08093AD05B0
:1037A0001092AC050E941D198091AA059091AB055D
:1037B000009729F001979093AB058093AA0580911B
:1037C000AE059091AF05181619062CF40197909349
:1037D000AF058093AE058091B305811112C0909121
:1037E000E70580917201981761F086E0E2E7F1E069
:1037F000A7EEB5E001900D928A95E1F781E0809304
:10380000B3058091A9058130E9F59091B105911139
:103810001BC090917201911117C02091730190917A
:10382000DD05291311C0209174019091D70529134A
:103830000BC08093B1059091B205911102C08093A5
:10384000B20588E097E01AC08091B1058130D1F4CB
:103850002091AE053091AF05232BA1F41092B10554
:103860001092AC059091B205911102C08093B205FF
:103870001092AB051092AA058FEF9FEF9093AF05C2
:103880008093AE05FF91EF91CF91BF91AF919F9142
:103890008F917F916F915F914F913F912F910F90F9
:1038A0000FBE0F901F901895CF93DF93CDB7DEB763
:1038B00028970FB6F894DEBF0FBECDBF1982809156
:1038C00072010E94C11A8A83809173010E94C11AF9
:1038D0008B83809174010E94C11A8C831D82809118
:1038E00075010E94C11A8E83809176010E94C11ACF
:1038F0008F83809177010E94C11A8887F894AE0166
:103900004F5F5F4F68E080ED0E94601678948111F0
:103910000E949D2B28960FB6F894DEBF0FBECDBF38
:10392000DF91CF9108950E9444160E941E1B8111C1
:103930000E94541C0E941E1B87E08093B10081E00E
:1039400080937000789408959093C5008093C4008C
:1039500088E18093C1008EE08093C200519A509814
:1039600008959091C00095FFFCCF8093C600089504
:103970008091C00087FFFCCF8091C60008958091A0
:10398000C0008078089508950895089508950895D1
:10399000089508950895EF920F931F93CF93DF93A7
:1039A00000D01F92CDB7DEB7861304C08091B1045A
:1039B0008823E1F0142F862FBE016F5F7F4F0E9496
:1039C0009E030091C105019F102D11248091BF0518
:1039D000E090C0059E012F5F3F4F41E06091BE0522
:1039E00093E1199F800D11240E94BA120F900F903D
:1039F0000F90DF91CF911F910F91EF900895EF926B
:103A00000F93823051F40E944A0F28E340E860E0AF
:103A100080E00E9492110E944F0F9091C105809109
:103A2000BF05E090C005092F21ED32E041E0609133
:103A3000BE055DE0959F800D11240E94BA12809111
:103A4000C205813091F49091C1058091BF05E0904D
:103A5000C005092F21ED32E041E06091BE0550E242
:103A6000959F800D11240E94BA120F91EF90089536
:103A7000CF93DF93CDB7DEB729970FB6F894DEBFAB
:103A80000FBECDBF40E069E382E00E94EF0380916A
:103A9000BB04811105C08091B104882309F477C06B
:103AA0008091BA04813029F08091B104813009F00D
:103AB00044C04091BC046091BE048091BD040E944A
:103AC0003605E82FF0E0EE0FFF1FE65BFE4F20818A
:103AD000318141E06091BD0582E10E94EA13E091ED
:103AE000BD04F0E0EE0FFF1FEA5AFE4F2081318146
:103AF00041E06091BD058AE20E94EA138091BE0414
:103B0000BE016F5F7F4F0E949E038CE28B8380E239
:103B10008C8382E38D8380E38E838091BC04BE011D
:103B2000695F7F4F0E949E039E012F5F3F4F41E0E0
:103B30006091BD0582E40E94EA136091C204809105
:103B4000C50440E00E94CB1C6091C3048091C60470
:103B500041E00E94CB1C8091C205813039F4609114
:103B6000C4048091C70442E00E94CB1C8091C2052E
:103B700081110DC08091C40480FF0E944A0F26E08D
:103B800044E068E18EE30E9492110E944F0F299653
:103B90000FB6F894DEBF0FBECDBFDF91CF91089571
:103BA0001092C20594E09093BF0522E02093BE05D9
:103BB0009093C10595E09093C0059CE29093BD055C
:103BC0000C94FF1C91E09093C20590E19093BF0587
:103BD0009CE09093BE0592E09093C1059093C00540
:103BE00095E29093BD050C94FF1CFC0122812034CA
:103BF00029F423812F3111F422E001C026E0362F71
:103C0000FC01DB018D9181938A2F831B8217D0F3F6
:103C100008952F923F924F925F926F927F928F9270
:103C20009F92AF92BF92CF92DF92EF92FF920F934B
:103C30001F93CF93DF93CDB7DEB72A970FB6F894D3
:103C4000DEBF0FBECDBF8D839A871B0129013A01CC
:103C5000E982FA820B831C831A2D082DCA01B9014F
:103C60000E94F42E4B015C016C2D70E080E090E02E
:103C70000E94BC2D6B017C019B01AC01C501B4010C
:103C80000E94872E0E94842D605CF1016083C30135
:103C9000B2010E940D2D9058A70196010E94872E17
:103CA0000E94842D615EF101618329813A814B81FB
:103CB0005C81C301B2010E94A12C4B015C010E94F6
:103CC000F42E6E837F8388879987612F70E080E070
:103CD00090E00E94BC2D6B017C019B01AC016E81C8
:103CE0007F81888599850E94872E0E94842D605C43
:103CF000F1016283C501B4010E940D2D9058A70106
:103D000096010E94872E0E94842D615EF1016383DB
:103D100029813A814B815C81C301B2010E94A02CB0
:103D20004B015C010E94F42E9B01AC01C701B6015E
:103D30000E94872E0E94842D605CF1016483C5017E
:103D4000B4010E940D2D9058A70196010E94872E64
:103D50000E94842D615EF10165839D81A92FBA8542
:103D60008A2F891B801730F42D9181912817C1F378
:103D700081E001C080E02A960FB6F894DEBF0FBE46
:103D8000CDBFDF91CF911F910F91FF90EF90DF900A
:103D9000CF90BF90AF909F908F907F906F905F90EB
:103DA0004F903F902F900895CF93DF93EC012B819C
:103DB0004A81698188810E94B1118A81803419F415
:103DC0008B818F3171F02D814C81698188810E94B6
:103DD000B1112D814C816B818A81DF91CF910C943F
:103DE000B111DF91CF910895CF92DF92EF92FF92C0
:103DF0000F931F93CF93DF93813009F06AC020E0C7
:103E00004EE16FE180E40E94EC0D6FE180E40E94DE
:103E1000540FC0E003E06C2F0C2E000C770B880BC6
:103E2000990B0E94BC2D22E93AE046E05FE30E9434
:103E3000872E6B017C010E94F42E2DEC3CEC40EEB1
:103E400051E40E94872E0E94842D162FC701B601CF
:103E50000E940D2D90582DEC3CEC40EE51E40E9458
:103E6000872E0E94842DD62F6FE16D0F80E4810F85
:103E70000E94540F8C2F602F0E94512F911113C05C
:103E8000C11102C0D15009C0C33011F41F5F05C079
:103E9000C63011F4DF5F01C011506FE16D0F80E497
:103EA000810F0E94540FCF5FCC3009F0B4CFEFECFC
:103EB000F5E0C9ECD5E0A3ECB5E025ED35E088E20E
:103EC000819389938D932E173F07D1F71092D805D0
:103ED00018C08091DC05811114C00E944A0F8FEC3C
:103EE00095E00E94D41E0E944F0F6FE180E4DF91A5
:103EF000CF911F910F91FF90EF90DF90CF900C9496
:103F0000540FDF91CF911F910F91FF90EF90DF90B1
:103F1000CF9008954F925F926F927F928F929F926F
:103F2000AF92BF92CF92DF92EF92FF920F931F93C7
:103F3000CF93DF93CDB7DEB766970FB6F894DEBFA9
:103F40000FBECDBF8091B904813009F0A4C080912B
:103F5000D905813009F093C06091DD0570E080E003
:103F600090E00E94BA2D20E537E746ED5DE30E9420
:103F7000872E6B017C010E94F42E2B013C01C701AE
:103F8000B6010E940D2D6B8B7C8B8D8B9E8B80914F
:103F9000D7051091DD056CE00E94452F692F70E078
:103FA00080E090E00E94BC2D22E93AE046E05FE329
:103FB0000E94872E6B017C01612F70E080E090E011
:103FC0000E94BA2D25E33AEF4EE05CE30E94872E73
:103FD0009B01AC01C701B6010E94A12C6B017C01C1
:103FE0000E94F42E4B015C01C701B6010E940D2D09
:103FF0006B017C0120E047E066E386E70E94EC0D60
:104000006B897C898D899E89905820E030E040EE54
:1040100050E40E94872E0E94842D16E3160F20E0A4
:1040200030E040EE50E4C301B2010E94872E0E94AE
:10403000842D46E7460F212F66E386E70E94B111E3
:10404000C701B601905820E030E040EA50E40E94F9
:10405000872E0E94842D16E3160F20E030E040EA00
:1040600050E4C501B4010E94872E0E94842D46E7CA
:10407000460F212F66E386E70E94B1110CC00E9413
:104080004A0F21E141E16EE28EE60E9492110E9408
:104090004F0F1092D8058091B704813031F4809190
:1040A000B20483FB882780F901C080E09091D80595
:1040B000981759F08093D80524E0E22E02E021E120
:1040C00041E16EE28EE60E94870F8091BB04813051
:1040D00021F08091B104813019F41092E40505C0FB
:1040E0008091E4058F5F8093E40542E069E382E01C
:1040F0000E94EF038091DC058130D1F56091C4040A
:104100001091E40570E080E090E00E94BA2D20E577
:1041100037E746ED5DE30E94872E6B017C01612F3E
:1041200070E080E090E00E94BC2D28E93EE24EEF76
:104130005BE30E94872E9B01AC01C701B6010E9480
:10414000A12C9B01AC0116E0812E07E1A02E8BE192
:10415000C82E1DECE12E1CECF12E0CEC1DE3BE0173
:10416000635F7F4F8FEC95E00E94091EB82E01C05F
:10417000B12C8091BB04813029F08091B104813051
:1041800009F085C06091C3041091C40470E080E020
:1041900090E00E94BA2D20E537E746ED5DE30E94EE
:1041A000872E6B017C01612F70E080E090E00E941F
:1041B000BA2D29E833EC44EE5AE30E94872E9B0186
:1041C000AC01C701B6010E94A12C9B01AC01E2E049
:1041D0008E2EF8E0AF2EABE1CA2E1CE7E12E19EDD2
:1041E000F12E00E210E4BE01695F7F4F89EC95E09B
:1041F0000E94091ED82E81E0D81659F09091C5046E
:104200008091C204981305C08091B104813009F0F7
:1042100041C08091C2041091C3046CE00E94452FFC
:10422000692F70E080E090E00E94BC2D22E93AE026
:1042300046E05FE30E94872E2B013C01612F70E076
:1042400080E090E00E94BA2D25E33AEF4EE05CE377
:104250000E94872E9B01AC01C301B2010E94A12CD8
:104260009B01AC0186E0882E95E0A92E64E1C62E64
:104270001CE7E12E19EDF12E00E210E4BE016F5FA4
:104280007F4F83EC95E00E94091E182F04C010E0B8
:10429000D12C01C010E08091DC058130C9F4B81642
:1042A00021F08091B104813099F40E944A0F8FEC83
:1042B00095E00E94D41EBE01635F7F4F8FEC95E0B6
:1042C0000E94F51D0E944F0F8FEC95E00E94D41EB6
:1042D00081E0D81621F08091B1048130D1F40E94A0
:1042E0004A0F89EC95E00E94D41EBE01695F7F4FA2
:1042F00089EC95E00E94F51D0E944F0F89EC95E036
:104300000E94D41E8091DC05813051F48FEC95E041
:1043100005C081E0B81204C089EC95E00E94D41E6B
:10432000113021F08091B1048130F1F40E944A0FE4
:1043300083EC95E00E94D41EBE016F5F7F4F83EC3B
:1043400095E00E94F51D0E944F0F83EC95E00E94BE
:10435000D41E8091DC05813021F48FEC95E00E9421
:10436000D41E89EC95E007C081E0B81611F0D81290
:1043700004C083EC95E00E94D41E66960FB6F894B4
:10438000DEBF0FBECDBFDF91CF911F910F91FF9088
:10439000EF90DF90CF90BF90AF909F908F907F90E5
:1043A0006F905F904F9008951092DC050C94F41E6E
:1043B00091E09093DC050C94F41EAF92BF92CF92E3
:1043C000DF92EF92FF920F931F93CF93DF93B82E5C
:1043D000862F91E03AE0632FA91218C00E94452F62
:1043E000F82E842F0E94452FD82E822F0E94452F11
:1043F000A82E802F0E94452F082F8E2D0E94452F1A
:10440000E82E8C2D0E94452FC82E17C00E94452FE4
:10441000F92E842F0E94452FD92E822F0E94452FDE
:10442000A92E802F0E94452F092F8E2D0E94452FE7
:10443000E92E8C2D0E94452FC92EF01209C0DE10E6
:1044400007C0AC1005C08091B104882309F43AC0BC
:10445000DDE0C0E091E0FC1290E0DC1201C092606F
:10446000AC1201C0946081E00C1380E0EC1201C03A
:104470008260CC1201C08460981306C09091B10490
:104480009130E1F48823D1F0E82FF0E0EB52FB4FBC
:104490001491843018F40E944F0F02C00E944A0FFA
:1044A000212F45E06B2D8D2F0E94FF100E944F0F92
:1044B00020E045E06B2D8D2F0E94EC0DCF5FD45F87
:1044C000CA3041F6DF91CF911F910F91FF90EF908D
:1044D000DF90CF90BF90AF9008950F931F93CF932D
:1044E000DF938091E40581116CC08EE28093D80542
:1044F00081E08093E4050E94B31522E034E040E0BF
:1045000061E081E00E94EA1305ED14E0CEE0D0E026
:10451000D33019F40E944A0F02C00E944F0FF801D5
:10452000249145E06C2F8EE00E94FF100E944F0FF7
:1045300020E045E06C2F8EE00E94EC0DD11103C00D
:104540000E944F0F02C00E944A0FF8013496249136
:1045500045E06C2F86E40E94FF100E944F0F20E080
:1045600045E06C2F86E40E94EC0DDF5F0F5F1F4F6C
:10457000C25FD43069F620E134E040E06CE089E1CC
:104580000E94EA130EE212E0C6E1F8012191319196
:104590008F0140E06C2F89E10E94EA13C95FC034AB
:1045A000A1F70EE112E0C8E0F801219131918F01ED
:1045B00040E06C2F81E50E94EA13C95FC034A1F787
:1045C00002C01092E405DF91CF911F910F910895E1
:1045D000AF92CF92EF920F93CF93DF9300D01F92C1
:1045E000CDB7DEB78091D805813021F48091BB042E
:1045F000813041F08091D805882359F08091E405FD
:10460000811107C081E00E94C70283E00E94C702B7
:104610006EC08091E4058130D1F48091BB0481307B
:1046200009F065C08091D80581508093D8058091AC
:10463000D805BE016F5F7F4F0E949E039E012F5FD2
:104640003F4F40E061E088E70E94EA1350C040E03D
:104650006AE381E00E94EF038091BB04811105C0F1
:104660008091B104882309F442C0C090C204E09054
:10467000C3040091C4042091C5044091C604609114
:10468000C704AA24A3948DE00E94DD21C090C20437
:10469000E090C3040091C4042091C5044091C60475
:1046A0006091C704A12C89E10E94DD21C090BC0467
:1046B000E090BD040091BE042091BF044091C0046D
:1046C0006091C104AA24A39485E20E94DD21C090D8
:1046D000BC04E090BD040091BE042091BF04409151
:1046E000C0046091C104A12C81E30E94DD210F90E0
:1046F0000F900F90DF91CF910F91EF90CF90AF90EF
:104700000895CF92EF92FF920F931F93CF93DF9371
:1047100000D0CDB7DEB780E389831A8210E0145F42
:104720009E012F5F3F4F40E061E0812F0E94EA131E
:1047300089818F5F8983183791F7CC24C394EE2445
:10474000E39409E514E021E040E06AE181E00E94A1
:10475000F41302E614E021E040E061E381E00E940E
:10476000F41310E000E08DE0F82EF10E011102C00C
:104770001D3338F420E045E06DE0600F8F2D0E947E
:10478000EC0D045F003391F7145F183759F710925E
:10479000D8051092E4050F900F90DF91CF911F91F3
:1047A0000F91FF90EF90CF900895CF92DF92EF920C
:1047B000FF921F93CF93DF93421305C09091B104F2
:1047C000992309F456C0122FD42FC82F70E080E02F
:1047D00090E00E94BA2D9B01AC0160E070E080E89F
:1047E00091E40E94122D6B017C01612F70E080E04A
:1047F00090E00E94BC2DA70196010E94872E20E028
:1048000030E040E05FE30E94A12C0E948B2D162F28
:104810006D2F70E080E090E00E94BC2DA701960112
:104820000E94872E20E030E040E05FE30E94A12C50
:104830000E948B2D611304C08091B1048130C9F4B2
:104840000E944A0FC85F23E044E16C2F89E60E9472
:104850005F150E944F0F23E042E06C2F8AE6810F24
:10486000DF91CF911F91FF90EF90DF90CF900C944C
:104870009211DF91CF911F91FF90EF90DF90CF9039
:1048800008950F931F93CF938091BA04813029F03C
:104890008091B104813009F059C008E711E081E04E
:1048A0009091BE04F8012181291305C09091BD04A7
:1048B0002281291729F0095F1F4F8F5F843081F70C
:1048C0009091D505981709F441C08093D505F8015A
:1048D00080818823D1F06381748180E00E949B11E4
:1048E000C82FF801658176816115710521F080E09E
:1048F0000E949B11C80F81E890E08C1B910997FDE5
:10490000019695958795C82F01C0C2E00E944A0F75
:1049100027E040E860E080E00E9492110E944F0F83
:10492000F8012381348140E061E08C2F0E94EA137A
:104930008C0FF801258136812115310539F040E0D1
:1049400061E0CF911F910F910C94EA13CF911F91C9
:104950000F910895CF93DF93C82F8D7F843129F075
:10496000CA3019F0CD3041F52BC022E241E067E1B9
:1049700088E00E94921121E043E568E389E00E940B
:104980009211D8E16D2F87E00E94540FDB5FDB337B
:10499000C9F7C43161F469E385E20E94540F69E309
:1049A00080E40E94540FCAE3D0E188E412C0CA3008
:1049B00049F0C63139F0D6CFC83141F0C6E307C05F
:1049C000CAE305C0CAE3DDE08BE403C0CBE3DAE071
:1049D0008EE421E132E040E06C2F0E94EA1325E1F1
:1049E00032E040E06C2F8CE20E94EA1329E132E0D1
:1049F00040E06C2F8D2FDF91CF910C94EA13AF9292
:104A0000BF92CF92DF92EF92FF920F931F93CF93BB
:104A1000DF9300D01F92CDB7DEB7421305C090914F
:104A2000B104992309F489C0C02EB22ED62EF82ED7
:104A3000642F70E080E090E00E94BC2D28E339EA0A
:104A40004BEF5EE30E94872E20E030E040E05FE322
:104A50000E94A12C0E948B2DA62E6B2D70E080E071
:104A600090E00E94BC2D28E339EA4BEF5EE30E9400
:104A7000872E20E030E040E05FE30E94A12C0E94FE
:104A80008B2D162FA61204C08091B1048130F1F451
:104A900021E0210F85E066E3611BE81212C04D2D75
:104AA0008F2D0E945F15123088F067E3611B85E04F
:104AB000E82E00E02FEF210F4EEF4D0D81E08F0D1E
:104AC00003C001E04D2D8F2D0E94870FBE016F5F47
:104AD0007F4F8B2D0E949E030EE2E02EE11A9E0175
:104AE0002F5F3F4F41E06E2D8F2D8C0D0E94EA13FA
:104AF0000E944A0F65E3611B21E04D2D8F2D0E941E
:104B0000921127E04C2D6E2D8F2D0E9492114FEFA8
:104B10004C0D81E08D0D8F0D27E06E2D8C190E94BC
:104B200092111A1540F42A2D211B602F6A194D2D60
:104B30008F2D0E9492110E944F0F0F900F900F9097
:104B4000DF91CF911F910F91FF90EF90DF90CF9069
:104B5000BF90AF900895CF93DF93EC01623019F5C9
:104B60000E944A0F20E344E660E180E00E94921137
:104B70000E944F0F9E0140E069E082E00E94EA132C
:104B8000C82F90E0C1970CF055C00E944A0F41E336
:104B90004C1B25E069E082E08C0F0E949211DF91AE
:104BA000CF910C944F0F21E040E867E080E00E9435
:104BB000921121E040E86FE080E00E94921129E329
:104BC00041E067E085E60E9492118FEF8093D50562
:104BD0000E9441249E0140E069E082E00E94EA13C5
:104BE00027E634E040E069E088E60E94EA13C2E18B
:104BF000D0E029E132E040E06C2F89E60E94EA1320
:104C000027E046E166E06C0F88E60E945F1521E030
:104C100042E169E06C0F8AE60E949211DF5FC033C7
:104C200049F0D13019F021E132E002C025E132E053
:104C3000C15FE1CFDF91CF91089541E069E083E367
:104C40000E94EF038091BB04811104C08091B104E4
:104C50008823D9F00E9441242091C4044091C704C4
:104C60006BE380E30E94D5232091C3044091C604E6
:104C70006BE381E20E94D5232091C2044091C504D8
:104C800067E182E10E94D52381E008953F924F922F
:104C90005F926F927F928F929F92AF92BF92CF92CC
:104CA000DF92EF92FF920F931F93CF93DF9300D089
:104CB00000D000D0CDB7DEB7641307C0201305C005
:104CC0009091B104992309F438C1B02E122FA42E6B
:104CD000C82E70E080E090E00E94BC2D28E339EA05
:104CE0004BEF5EE30E94872E20E030E040E05FE380
:104CF0000E94A12C0E948B2D662E6A2D70E080E010
:104D000090E00E94BC2D28E339EA4BEF5EE30E945D
:104D1000872E20E030E040E05FE30E94A12C0E945B
:104D20008B2D762E612F70E080E090E00E94BC2DEC
:104D300028E339EA4BEF5EE30E94872E20E030E063
:104D400040E05FE30E94A12C0E948B2D462E602F35
:104D500070E080E090E00E94BC2D28E339EA4BEF40
:104D60005EE30E94872E20E030E040E05FE30E9497
:104D7000A12C0E948B2D562E641430F4F42CF618BE
:104D800026E3D22ED41805C0F62CF41826E3D22E32
:104D9000D618F11002C0FF24F394751428F4352CB2
:104DA000371816E3151904C0372C351816E31719F0
:104DB000311002C033243394671006C0451004C07C
:104DC0008091B104813071F4BA1418F001E082E0EE
:104DD00002C000E083E0E82E232D4DE0612F8C2DF2
:104DE0000E94870F8B2D8A1987FF05C09DE299834A
:104DF000819501E001C000E0602F70E08A3054F03E
:104E000021E030E02C0F3D1F620F731F0E949E03B4
:104E10000E5F13C0E1E0F0E0EC0FFD1FE60FF71F9F
:104E20006AE00E94512F905D90830F5FE1E0F0E017
:104E3000EC0FFD1FE00FF11D1082000F000F01505D
:104E40008DE0B82EB01AB6949C2C9B0C9E012F5F5F
:104E50003F4F40E08AEFA82EA10E6A2D892D0E94B7
:104E6000EA130E944A0F26E04B2D6A2D8C2D0E94DA
:104E7000921126E04B2D6A2D802F890D0E949211F0
:104E8000671003C0451409F456C021E04DE06FEFF0
:104E9000610F8C2D0E949211AD2CB12C8F2D90E0C2
:104EA0009E838D83812E912CD116B0F494012650CF
:104EB00031098A0D9B1D8217930724F426E02F0DDC
:104EC00059F002C0212F2D19E12C02E04DE06AEFCC
:104ED0006D0D8C2D0E94870F64100CC0751450F45A
:104EE000671008C0E12C02E021E04DE06D2D8C2D13
:104EF0000E94870F830C911C8D819E818A0D9B1DC2
:104F000088169906C4F495E0A91AB1088A149B047E
:104F100034F0632D610FFD0C2F2D261B04C026E0FD
:104F20002F0D6AEF6D0D222331F0E12C02E04DE0F0
:104F30008C2D0E94870F0E944F0F26960FB6F89473
:104F4000DEBF0FBECDBFDF91CF911F910F91FF90BC
:104F5000EF90DF90CF90BF90AF909F908F907F9019
:104F60006F905F904F903F900895EF920F930E9443
:104F70001D26882399F12091C4044091C70485E03F
:104F8000E82E02E06FE089E40E94FF240091C4044F
:104F90002091C7044091C3046091C6048BE30E9432
:104FA00046262091C3044091C60402E06FE08BE2E4
:104FB0000E94FF240091C3042091C6044091C204C2
:104FC0006091C5048DE10E9446262091C204409163
:104FD000C50402E06FE08DE00E94FF240F91EF9086
:104FE0000895682F82E894E00E94AB258AE00C9433
:104FF000AA248F929F92AF92BF92CF92DF92EF92AC
:10500000FF92CF93DF93D82F70E080E090E00E9472
:10501000BC2D2BED3FE049E45FE30E94872E24EE98
:105020003BEC46E150E40E94A02C4B015C010E9445
:10503000F42E6B017C01C501B4010E940D2D905826
:1050400026E636E646E551E40E94872E0E94842D2E
:10505000C4E2C60F26E636E646E551E4C701B601CE
:105060000E94872E0E94842D862F6C2F8D0FDF913A
:10507000CF91FF90EF90DF90CF90BF90AF909F9037
:105080008F900C94540F4F925F926F927F92BF92C9
:10509000CF92DF92EF92FF920F931F93CF93DF9304
:1050A00000D01F92CDB7DEB7641305C09091B10454
:1050B000992309F491C0042FF62E182F70E080E098
:1050C00090E00E94BC2D2CE739ED40EA5DE30E94A0
:1050D000872E24EE3BEC46E150E40E94A02C2B01ED
:1050E0003C010E94F42E26E636E646E551E40E9495
:1050F000872E0E94842DC62EC301B2010E940D2D61
:10510000905826E636E646E551E40E94872E0E9436
:10511000842DB62E602F70E080E090E00E94BC2DC0
:105120002CE739ED40EA5DE30E94872E24EE3BEC4C
:1051300046E150E40E94A02C2B013C010E94F42E79
:1051400026E636E646E551E40E94872E0E94842D2D
:10515000E62EC301B2010E940D2D905826E636E6D8
:1051600046E551E40E94872E0E94842DD62ECE1053
:1051700006C0B61204C08091B1048130F1F40E94DF
:105180004A0F24E22B0D4C2D410F64E2812F0E9427
:10519000B1110E944F0F24E22D0D4E2D410F64E2FC
:1051A000812F0E94B1118F2D6AE00E94452F91112D
:1051B00004C0682F812F0E94F927BE016F5F7F4FC7
:1051C000802F0E949E039E012F5F3F4F41E06AE2C5
:1051D0008BEF810F0E94EA130F900F900F90DF91D9
:1051E000CF911F910F91FF90EF90DF90CF90BF90E4
:1051F0007F906F905F904F9008950E941D268823A6
:10520000A9F04091C4046091C70483E50E9443283B
:105210004091C3046091C60482E30E9443284091F8
:10522000C2046091C50481E10C9443280895CF9392
:10523000DF93682F8AE894E00E94AB25C1E120E06B
:105240004FE064E28C2F0E94EC0DD0E06D2F8C2F8C
:105250000E94F927DF5FD730C9F7CF5DC43779F7F0
:105260008BE0DF91CF910C94AA24CF92DF92EF9242
:10527000FF920F931F93CF93DF93F82E70E0042FCC
:1052800010E082E0F81216C0072E000C880B990B74
:105290000E94BC2D20E030E040E45FE30E94872EB6
:1052A00020E030E040E850E40E94A12C6B01E82EA1
:1052B000C92F1EC0072E000C880B990B0E94BC2D15
:1052C0002AE939E949E95EE30E94872E20E030E0CF
:1052D00040E850E40E94A12CC62ED72EE82EC92FFC
:1052E000F11006C00E948B2DD4E3D60FC7E23BC05D
:1052F0002FEF3FEF4FEF5EE3B6018E2D9C2F0E9404
:10530000872E0E948B2DD4E3D61B81E028ED33EB52
:105310004DE55FE3B601F8121EC08E2D9C2F0E9452
:10532000872E0E948B2DC7E2C60FB801110F880B84
:10533000990B0E94BC2D20E030E040E45FE30E9426
:10534000872E20E030E040E850E40E94A12CC62ED9
:10535000E72E8C0134C08E2D9C2F0E94872E0E9438
:105360008B2DC7E2C61BB801110F880B990B0E9449
:10537000BC2D2AE939E949E95EE30E94872E20E045
:1053800030E040E850E40E94A12C562F472F382FE0
:10539000292FC62EE72E082F192F82E0F8120FC0F2
:1053A000652F742F832F922F0E948B2D44E3460F7D
:1053B00027E26C2F8D2F0E94B11124E12DC02FEF19
:1053C0003FEF4FEF5EE36C2D7E2DC8010E94872ECC
:1053D0000E948B2D84E3D82ED61A28ED33EB4DE5B1
:1053E0005FE36C2D7E2DC801F11006C00E94872E50
:1053F0000E948B2D695D07C00E94872E0E948B2D15
:1054000087E2861B682F2C2F4D2F8D2D0E94B11106
:1054100081E0F81203C02AE34AE202C02C2F4AE4DA
:105420006C2F8D2FDF91CF911F910F91FF90EF90F7
:10543000DF90CF900C94B1110F931F93CF93DF9314
:1054400000D01F92CDB7DEB70E941D26882309F435
:10545000BDC09091C4048091C704981304C080918A
:10546000B104813079F48091C404BE016F5F7F4F35
:105470000E949E039E012F5F3F4F41E061E28FE457
:105480000E94EA139091C3048091C604981304C04B
:105490008091B104813079F48091C304BE016F5FC3
:1054A0007F4F0E949E039E012F5F3F4F41E061E3CB
:1054B00080E10E94EA139091C2048091C504981380
:1054C00004C08091B104813079F48091C204BE019E
:1054D0006F5F7F4F0E949E039E012F5F3F4F41E011
:1054E00061E180E10E94EA139091C4048091C704B5
:1054F000981791F19091C3048091C60498132CC021
:105500009091C2048091C504981326C08091B10483
:10551000811122C06091C7041091C40470E080E042
:1055200090E00E94BC2D2AE939E949E95EE30E9436
:10553000872E0E948B2D062F612F70E080E090E077
:105540000E94BC2D2AE939E949E95EE30E94872ED1
:105550000E948B2D0617D1F10E944A0F4091C6047C
:105560006091C70480E00E9435294091C504609194
:10557000C60481E00E9435294091C7046091C504AA
:1055800082E00E9435290E944F0F4091C304609130
:10559000C40480E00E9435294091C2046091C30494
:1055A00081E00E9435294091C4046091C20482E0E8
:1055B0000E94352923E04AE067E284E30E94EC0D73
:1055C00021E040E167E284E30E94EC0D0F900F9030
:1055D0000F90DF91CF911F910F910895682F85E96A
:1055E00094E00E94AB2520E046E167E284E30E945C
:1055F000EC0D21E132E040E069E28FE40E94EA1321
:1056000025E132E040E069E38FE00E94EA1329E1FE
:1056100032E040E069E18EE00E94EA1367E284E351
:105620000C94540F1F93CF93DF93182F842F0E9455
:10563000452FD82F822F0E94452FD81304C0909158
:10564000B1049923A9F1C82F8CE0D89FD02D112443
:10565000D75E25E045E06D2F812F0E94FF1020E0EE
:1056600045E06D2F812F0E94EC0DCC2339F0C13025
:1056700039F410FD07C00E944A0F04C023E003C0A4
:1056800022E001C021E08CE0C89FC02D1124C75E3C
:1056900045E06C2F812F0E94FF100E944F0F20E0E9
:1056A00045E06C2F812FDF91CF911F910C94EC0D71
:1056B000DF91CF911F9108950E941D268823C1F08C
:1056C0002091C4044091C70464E183E50E94122B39
:1056D0002091C3044091C60464E182E30E94122B2E
:1056E0002091C2044091C50468E081E10C94122B22
:1056F00008951F93CF93DF93682F81EA94E00E946F
:10570000AB25C9E027E241E162E18C2F0E945F15E1
:10571000D9E118E01C0F20E045E06D2F812F0E9499
:10572000EC0DD45FDD33B9F7CF5DCC3659F78DE0A2
:10573000DF91CF911F910C94AA24789464E680EABB
:105740009FE00E94CB1A2FEF80E792E0215080402B
:105750009040E1F700C0000064E680EA9FE00E940C
:10576000CB1A2FEF89E698E1215080409040E1F775
:1057700000C00000E3CF14BE0FB6F894A895809146
:105780006000886180936000109260000FBE8AE123
:1057900090E00E94A41C3B9A8CE38093E7050E9452
:1057A000931C0E94F11A86E090E00E94C82F81703D
:1057B0008093D6059091D60581E0911180E0809389
:1057C000DE0587E090E00E94C82F83708093B005CB
:1057D0008091B0054DED55E067ED75E00E94751ABA
:1057E0000E94AB050E94471A82E084BD83E085BD1C
:1057F0008DE787BD80916E00826080936E00539A22
:1058000080E28093B0008091B00083608093B0000C
:105810008091B10088608093B10080E18093B300F3
:1058200081E090E00E94C82F61E10E94452F909393
:10583000B400259A64E680EA9FE00E94CB1A9FE0BC
:1058400088E10FB6F894A895809360000FBE9093FE
:1058500060000E94F4180E94B3150E944F0F0E942E
:1058600015050E94091B81E00E94C7021BE404E0A9
:10587000C8E5D2E080E6E82E89E0F82E1093BB055B
:105880008091CE04882321F18091B105813001F50A
:105890009091CE0490FF03C08093BC0542C0D0938A
:1058A000AB05C093AA059091AD05911102C08093FC
:1058B000AD0581E08093AC05D093B404C093B304EC
:1058C000F092AF05E092AE0510928100439829C096
:1058D0008091CE0480FF06C00E9421080E94091B0F
:1058E00081E01DC08091CE0481FF08C08091CE046C
:1058F0000E94A702811102C00093CE048091CE04C1
:1059000082FF0FC0D090B0040E9486039091B00433
:10591000D91205C08091CE040E94A70202C00E9445
:10592000C7021092CE0483E00E94C7028091BB059B
:105930008111FCCF8091B2048F5F8093B2049ECF1F
:105940005058BB27AA270E94B82C0C94392E0E94CD
:10595000002E38F00E94072E20F039F49F3F19F4F2
:1059600026F40C94FD2D0EF4E095E7FB0C94F72D36
:10597000E92F0E945E2E58F3BA1762077307840757
:10598000950720F079F4A6F50C94802E0EF4E0959E
:105990000B2EBA2FA02D0B01B90190010C01CA01E9
:1059A000A0011124FF27591B99F0593F50F4503E94
:1059B00068F11A16F040A22F232F342F4427585F86
:1059C000F3CF469537952795A795F0405395C9F79E
:1059D0007EF41F16BA0B620B730B840BBAF0915056
:1059E000A1F0FF0FBB1F661F771F881FC2F70EC0F5
:1059F000BA0F621F731F841F48F4879577956795C8
:105A0000B795F7959E3F08F0B0CF9395880F08F0B3
:105A10009927EE0F9795879508950E94102EE3958C
:105A20000C944A2E0E94262D0C94392E0E94072E8B
:105A300058F00E94002E40F029F45F3F29F00C94AA
:105A4000F72D51110C94812E0C94FD2D0E945E2E89
:105A500068F39923B1F3552391F3951B550BBB279D
:105A6000AA2762177307840738F09F5F5F4F220FE2
:105A7000331F441FAA1FA9F335D00E2E3AF0E0E8D9
:105A800032D091505040E695001CCAF72BD0FE2F23
:105A900029D0660F771F881FBB1F261737074807B7
:105AA000AB07B0E809F0BB0B802DBF01FF2793586F
:105AB0005F4F3AF09E3F510578F00C94F72D0C940F
:105AC000812E5F3FE4F3983ED4F3869577956795F2
:105AD000B795F7959F5FC9F7880F911D96958795A4
