:100000000C9440030C945D030C945D030C941E0649
:100010000C945D030C945D030C945D030C945D03E0
:100020000C945D030C94791B0C945D030C9499194A
:100030000C945D030C9487190C949E180C945D032A
:100040000C945D030C945D030C945D030C945D03B0
:100050000C945D030C9480050C945D030C945D037B
:100060000C94D9150C945D0305A84CCDB2D44EB9AF
:100070003836A9020C50B9918688083CA6AAAA2A4B
:10008000BE000000803F200000000037000000009C
:100090006300030000AA1F0A1F0AA2151F15087992
:1000A000041300008A1512080023000000004E11FE
:1000B000000000510E0000006A040A0000640E04F3
:1000C000000050080000006404040000300000003C
:1000D0000078040300007F111F0000721F10000051
:1000E0007D1517000075151F000067041F000077BD
:1000F000151D00007F151D0000611D0300007F1508
:100100001F000077151F00002A00000000500A00A1
:100110000000440A0000006A0A0A00004A040000C5
:100120000061150200008815190E007E051E0000F2
:100130007F150A00006E111100007F110E00005F94
:10014000150000005F050000006E111D00007F0417
:100150001F00003F00000000500F0000007F041B44
:1001600000005F10000000BF0204021F9F02041F76
:10017000006E110E00007F0502000082151D1200A6
:100180007F051A00007215090000611F0100007F41
:10019000101F00006F100F0000AF100C100F7B0439
:1001A0001B0000631C03000079151300005F1100A1
:1001B00000006304180000511F00000062010200EB
:1001C0000070101000004102000000641F110000C8
:1001D0003F00000000711F04000084150E0400841D
:1001E0000E150400000000000000005F0000000782
:1001F000000700147F147F14242A7F2A1223130877
:10020000646236495522500005030000001C22415B
:10021000000041221C00082A1C2A0808083E080881
:100220000050300000080808080800606000002046
:10023000100804023E5149453E00427F40004261A1
:100240005149462141454B311814127F102745452D
:1002500045393C4A49493001710905033649494944
:1002600036064949291E0036360000005636000081
:10027000000814224114141414144122140800021A
:1002800001510906324979413E7E1111117E7F49A3
:100290004949363E414141227F4141221C7F494923
:1002A00049417F090901013E414151327F08080857
:1002B0007F00417F41002040413F017F08142241DF
:1002C0007F404040407F0204027F7F0408107F3E51
:1002D0004141413E7F090909063E4151215E7F09A6
:1002E000192946464949493101017F01013F4040F2
:1002F000403F1F2040201F7F2018207F63140814D8
:10030000630304780403615149454300007F414180
:10031000020408102041417F000004020102044051
:1003200040404040000102040020545454787F486B
:100330004444383844444420384444487F38545472
:100340005418087E090102081454543C7F08040420
:100350007800447D40002040443D00007F10284448
:1003600000417F40007C041804787C08040478383D
:10037000444444387C14141408081414187C7C0871
:100380000404084854545420043F4440203C404056
:10039000207C1C2040201C3C4030403C442810283D
:1003A000440C5050503C4464544C440008364100C6
:1003B00000007F0000004136080008082A1C0808D9
:1003C0001C2A08084932433A204255535F4552528D
:1003D0004F520D0A004932433A204E4F5F494E4674
:1003E0004F0D0A004932433A2053542D3E444154A4
:1003F000415F4E41434B206F72204C4153545F4448
:100400004154410D0A004932433A2053542D3E4491
:100410004154415F41434B0D0A004932433A205356
:10042000542D3E534C415F41434B0D0A004932432A
:100430003A2053522D3E53525F53544F500D0A00F1
:100440004932433A2053522D3E444154415F4E417C
:10045000434B0D0A004932433A2053522D3E44414A
:1004600054415F41434B0D0A004932433A205352F5
:100470002D3E534C415F41434B0D0A004932433AF4
:10048000204D522D3E534C415F41434B0D0A0049D4
:1004900032433A204D522D3E444154415F41434B3B
:1004A0000D0A004932433A204D542D3E4152425FDD
:1004B0004C4F53540D0A004932433A204D54522DAB
:1004C0003E534C415F4E41434B206F72204D542DA3
:1004D0003E444154415F4E41434B0D0A0049324373
:1004E0003A204D522D3E444154415F4E41434B0D05
:1004F0000A004932433A204D542D3E534C415F414E
:10050000434B206F7220444154415F41434B0D0ADD
:10051000004932433A204D2D3E53544152540D0A66
:1005200000C30800100105010000090F0A1E0B2D71
:1005300000000E0E1D0E1D2B0F3A0E2B0F480A52F7
:100540000F610A520F000E0E1D0E1D6B0E790D6B02
:100550000E861003030303030303030303060303CD
:100560000603030303060303030303030303030355
:100570000303030303030303030303030306060345
:100580000303030303030303030303030306030338
:100590000303030303030303030306060303030325
:1005A000060303060C03030303030303030303030C
:1005B0000303030603030303030303030C0C0303F6
:1005C00003030603030303030303030604040404F1
:1005D00004040303030303030603030303040404E3
:1005E00003030303030C0C0C0C9292009200749210
:1005F00000AE000057000074000057004900006280
:10060000006E006862005792AEC4009BAE0092007C
:1006100074826E0000AEA49B8A0092005C6274003B
:1006200062748200AEA49B8A009200E800E8E800B1
:1006300000008A00008200740000007474007400DE
:100640007482009274006257000074740074007425
:100650008292000092740057005C00629B009B62D3
:1006600000006EC4C4C4AE9B927400625700006E5A
:100670009B009B9B9282744900493A000000000055
:1006800011241FBECFEFD8E0DEBFCDBF14E0A0E045
:10069000B1E0E6E6F3E602C005900D92A83DB10791
:1006A000D9F726E0A8EDB4E001C01D92A131B20750
:1006B000E1F70E94D32D0C94B1310C94000080918D
:1006C000E7048093EA048091E6048093E904809132
:1006D000E5048093E8048091E1048093E404809130
:1006E000E0048093E3048091DF048093E2040895A2
:1006F0009091D804E0910001F091010128E0929FCF
:10070000E00DF11D11240680F781E02D309719F0DE
:10071000099581E0089580E008951F93CF93DF93BA
:10072000182F8091D804C0910001D091010198E068
:10073000899FC00DD11D11248091D0058093DB04C9
:100740008091D1058093DE048091DE04813069F5CB
:1007500080910B068093E70480910C068093E60459
:1007600080910D068093E50480910E068093E1044C
:1007700080910F068093E004809110068093DF043F
:100780009091E1048091E40498130CC09091E004EE
:100790008091E304981306C09091DF048091E204F5
:1007A000981719F081E08093DD0488818823D1F1C6
:1007B000133039F51092DC048091CA05813059F468
:1007C0009091F705913089F08093F7058093DC04D0
:1007D0001092EB040AC08091F705823031F082E07C
:1007E0008093F70581E08093DC04EC81FD8109951D
:1007F0008091DE04813011F40E945F031092D904CD
:1008000011C0113031F41092F7058091F4050E9467
:1008100059180E945F0381E08093D904EA81FB812B
:10082000812F09958091DE04813031F41092DE042D
:100830001092DD041092D105DF91CF911F910895A0
:100840008091D8048F5F8093D8048091D804893038
:1008500010F01092D8048091D804E0910001F0913A
:10086000010198E0899FE00DF11D11248181089517
:10087000FB016AE00E941831805D8083905D918366
:1008800012820895EF92FF920F931F93CF93DF93FD
:1008900000D000D0CDB7DEB7182FF62E0091FC05A2
:1008A000E091E004F0E0EE0FFF1FEA5AFE4F2081D6
:1008B000318140E0812F0E94B112E82E80E28983CD
:1008C0008091E104BE016E5F7F4F0E943804009169
:1008D000FC059E012F5F3F4F40E06F2D8E2D810F55
:1008E0000E94B1128E0D873148F40091F40547E162
:1008F000481B25E06F2D810F0E943D100F900F9037
:100900000F900F90DF91CF911F910F91FF90EF907B
:100910000895CF92DF92EF92FF920F931F93CF93A0
:10092000DF9300D000D000D0CDB7DEB7182FF62E61
:10093000E42E82E048130EC08091DD04813029F05E
:100940008091D904813009F075C06F2D812F0E94EC
:10095000420470C0D090DA048091DC04813029F028
:100960008091DD04813009F042C08091F70581302B
:1009700059F58091DC048130D1F58091F505BE01F7
:100980006F5F7F4F0E9438048AE38B838091FB0561
:10099000BE016C5F7F4F0E9438040091FC059E01F0
:1009A0002F5F3F4F40E06F2D812F0E94B11291E0E9
:1009B000E9121DC00091F40547E1481B25E06F2DA9
:1009C000810F0E943D1013C00091F40527E043E120
:1009D0006FEF6F0D8FEF810F0E943D101092EB04AF
:1009E00081E0E81204C06F2D812F0E9442048091A3
:1009F000DB049091EB04813061F42D2D2F7030E0F9
:100A0000283031050CF480E08917A1F08093EB04C5
:100A100004C0913079F41092EB04C090F4056FEFAC
:100A20006F0D94E0E92E02E027E043E18FEF810FA4
:100A30000E94350E26960FB6F894DEBF0FBECDBFCE
:100A4000DF91CF911F910F91FF90EF90DF90CF90AA
:100A500008950F930091FC0529E432E041E06EE037
:100A600081E20E94B1120091FC0524E532E041E0F0
:100A70006EE182E10E94B1122FEF8DE399E42150E3
:100A800080409040E1F700C0000064E686EA9EE006
:100A90000E94381A64E680EA9FE00F910C94381A9D
:100AA00080917A00877F80937A0080917A008064B9
:100AB00080937A0080917A0084FFFCCF8091780047
:100AC000909179000895EAE7F0E08081886480835E
:100AD000089526982E9A81E080936800EBE6F0E076
:100AE00080818064808382E080937C0010927B0010
:100AF000EAE7F0E08FE88083808180648083089556
:100B00001F920F920FB60F9211242F933F934F9382
:100B10005F936F937F938F939F93AF93BF93EF9365
:100B2000FF9378948091780090917900803E22E044
:100B3000920770F01092F0041092F2048091ED048C
:100B4000813021F48093EC041092ED0484E163C0C1
:100B5000833622E0920770F18091F20482FD5AC040
:100B60008FE19EE40197F1F700C000000E9450055C
:100B7000825692408E37910508F04CC08AEF8093E0
:100B8000EE048091EE04882369F00E94500582569D
:100B900092408E379105A8F31092F20484E080937E
:100BA000F10438C01092F10484E08093F204809341
:100BB000F00430C08F309140B0F08091F20481FD9C
:100BC00010C08FE19EE40197F1F700C000000E9481
:100BD00050058E50914085359140E0F482E080933D
:100BE000F10482E013C08091F20480FD0EC08FE119
:100BF0009EE40197F1F700C000000E9450058F307D
:100C0000914040F481E08093F10481E08093F2040C
:100C10001092F00482E08093EF04FF91EF91BF9176
:100C2000AF919F918F917F916F915F914F913F9184
:100C30002F910F900FBE0F901F9018951F920F923B
:100C40000FB60F92112478940F900FBE0F901F9043
:100C500018959091EC04913021F41092F6041092C2
:100C6000EC049091F004992369F091E09093ED04E5
:100C70009091F6049A3020F49F5F9093F60404C09C
:100C80008E5F03C01092F6048F5F0E941831892F87
:100C900008950F931F93CF93DF938C01EB0166E0D0
:100CA00080E00E940518C8010E94E714209759F0BF
:100CB00067E080E00E940518CE01DF91CF911F917F
:100CC0000F910C94E714DF91CF911F910F9108952C
:100CD0000F931F93CF93DF93EC018B0166E080E0CD
:100CE0000E94051887EB92E00E94E714CE010E9453
:100CF000E71467E080E00E9405188AEC92E00E9409
:100D0000E714C801DF91CF911F910F910C94E71464
:100D10000F931F93CF93DF93C82F062F142FD22F3B
:100D200063E088E00E9405188CED92E00E94E714D1
:100D30004C2F612F802F0E947D1AA82FB0E0AA0FA0
:100D4000BB1FA65BBE4F8D919C910E94E714DC30C7
:100D500019F46091F40502C06091FC05E02FF0E009
:100D6000EE0FFF1FEA5AFE4F808191810E94D71437
:100D700080E20E94EB14812FDD3019F40E94CF1421
:100D800002C00E94D3148CE20E94EB1484E1DE3096
:100D900049F40E94CF148C2FDF91CF911F910F91B6
:100DA0000C94CF140E94D3148C2FDF91CF911F91FC
:100DB0000F910C94D3140F93CF93C82F0091FC057F
:100DC00021E047E0682F80E00E943D100091FC0583
:100DD0006FEF6C0F23E041E085E00E94401400912A
:100DE000FC056EEF6C0F25E041E084E00E944014AA
:100DF000CF910F9108958091F004882349F02FE757
:100E000089EA93E0215080409040E1F700C0000063
:100E100008958091F1048093F5041092F10480FD0F
:100E200016C081FF03C01092F60406C0811104C0F1
:100E30008091F004882321F08AE08093F30405C0B8
:100E40009091F30481E0992319F080E0089581E006
:100E50000895CF93C82F64E088E00E94051882EEC1
:100E600092E00E94E7148091F405811108C088E4A3
:100E700093E00E94E7146C2F80EF92E003C06C2F88
:100E800087EF92E0CF910C94D71462E080E50E9446
:100E90000518809107060E94D3148AE30E94EB1480
:100EA000809106060E94D3148AE30E94EB1480917D
:100EB00005060C94D314AF92BF92CF92EF920F938A
:100EC000CF93DF93EC015B0181E08093F40460E059
:100ED00080E00E9405188FEF92E00E94E714C09016
:100EE000F405E12C00E028E042E060E08EE70E949B
:100EF000350E61E088E00E94051885E193E00E94CC
:100F0000E71462E088E00E9405188AE293E00E94FC
:100F1000E7140E94450740910806609109068091F8
:100F20000A0627E00E9488068091FC050E94290796
:100F300065E088E00E94051887E393E00E94E714CB
:100F40008091B4000E94D314B501CE010E944906DD
:100F5000C090F40520E142E060E38EE70E94350E88
:100F6000C090F40528E248E068E080E00E94350E79
:100F70001092F404DF91CF910F91EF90CF90BF903A
:100F8000AF9008959F92AF92BF92CF92DF92EF926F
:100F9000FF920F931F93CF93DF9300D000D0CDB774
:100FA000DEB781E08093F4048091F4050E94591823
:100FB0001092F4046AE473E080E693E00E945B0719
:100FC0008AE08093F3041092F1041092F604809169
:100FD000C905853009F4A9C1D0F4882391F1843082
:100FE00009F0B2C387E08093C90510910806F0901C
:100FF0000906D0900A0681E08093F4048BE10E94F8
:10100000DB061092F40407E0CC24C39437C2873087
:1010100009F4DEC28F3009F097C388E08093C905D8
:1010200081E08093F40460E070E089EA93E00E943C
:1010300049068BE20E94DB061092F40418E001E0FE
:101040003AC385E08093C90581E08093F4048BE086
:101050000E94DB061092F4040E940907813009F413
:101060006FC38091F50481FFF7CF81E08093F40492
:101070003AE0B32E42E1A42E52E0952EB092F30452
:101080001092F6048091C9058131E9F048F4853069
:1010900081F0803121F581E18093C90581E01CC098
:1010A0008231B1F08331D9F484E18093C90584E0C1
:1010B00013C080E18093C9058091F4050E945918FE
:1010C0001092F70410C0A092C9059092F7040BC0CB
:1010D00083E18093C90583E08093F70404C085E031
:1010E0008093C9052DC3F090CF0560E080E00E9499
:1010F000051886E793E00E94E71400E011E0100F66
:10110000612F88E00E94051887E893E00E94E714A9
:10111000812F0E94D3148EE893E00E94E714AE0161
:101120004F5F5F4FBE016E5F7F4F802F0E94D719C8
:101130008A810E94D3148AE30E94EB1489810E9461
:10114000D314143011F0012FD9CF65E088E00E944C
:10115000051886E993E00E94E7148091CF058F5F20
:101160000E94D3148091C9056AE473E0843119F0B8
:1011700080E693E002C089EA93E00E944906C090AD
:10118000F405E12C00E028E247E068E080E00E94FE
:10119000350E8091F704880F880F880F855F0E94B5
:1011A000DB068091F704843041F0AE014D5F5F4F64
:1011B000BE016C5F7F4F0E94D71915E00E9409079E
:1011C000813009F4ADC08091F50481FF55C0153020
:1011D000E1F48091F704843081F465E084E70E94B3
:1011E000051881E08F0D0E94CF146FEB73E084EC43
:1011F00093E00E94680614E13FC068EC73E08DEC58
:1012000093E00E94680615E637C0153641F461ED9B
:1012100073E086ED93E00E94680616E62DC0143157
:1012200081F465E084E70E94051881E08F0D0E943B
:10123000D3146F2D8FE090E00E94A331F092CF0580
:1012400006C04B816C818091F7040E94061A809140
:10125000C9056AE473E0843119F080E693E002C0C6
:1012600089EA93E00E9449064BEF55E065EF75E08F
:101270008F2D0E94D71915E08091F50482FD04C0DE
:101280008091F004882309F1143171F4F39483E020
:101290008F1508F4F12C65E084E70E94051881E0C1
:1012A0008F0D0E94CF1411C0153641F48C818F5FD1
:1012B0008C838C81883148F01C8207C0163629F453
:1012C0008B816CE30E9429068B838091F504811148
:1012D00004C08091F004882301F16091F704643028
:1012E000E1F00B81DC806F5F82E60E9405188D2D96
:1012F000153619F40E94CF1402C00E94D3146091D5
:10130000F7046F5F84E70E940518802F163619F4E2
:101310000E94CF1402C00E94D3140E94FB064ECF3D
:101320008091F3048111AACE14C084E08093C90592
:10133000F0900706D0900606C090050681E08093E5
:10134000F40483E10E94DB0614E00E940907813067
:1013500019F41092F404F4C18091F50481FF36C0B1
:10136000143041F468EC73E08DEC93E00E94680661
:1013700015E62CC0153641F461ED73E086ED93E07F
:101380000E94680616E622C0163641F46AED73E044
:101390008FED93E00E94680617E618C06AE473E0D8
:1013A00080E693E00E944906F0920706D092060676
:1013B000C0920506E0900A060091090620910806F1
:1013C0004F2D6D2D8C2D0E943C1C14E00091F504D6
:1013D00002FD04C08091F0048823B9F0153631F481
:1013E000F39487E18F1588F4F12C0FC0163631F491
:1013F0006CE38D2D0E942906D82E07C0173629F4DC
:101400006CE38C2D0E942906C82E011104C0809126
:10141000F004882311F162E080E50E9405188F2D09
:10142000153619F40E94CF1402C00E94D3148AE327
:101430000E94EB148D2D163619F40E94CF1402C0B1
:101440000E94D3148AE30E94EB148C2D173619F4F2
:101450000E94CF1402C00E94D3140E94FB0675CFD5
:101460008091F50481FD0FC08091F50482FD4CC090
:101470008091F004811148C00E94FB060E94090778
:10148000813071F75DC1C092F404073041F463EE1E
:1014900073E088EE93E00E9468060CE02CC00C30EC
:1014A00041F46CEE73E081EF93E00E9468060DE07A
:1014B00022C00D3041F465EF73E08AEF93E00E94A3
:1014C00068060EE018C06AE473E080E693E00E94CC
:1014D0004906D0920A06F092090610930806409138
:1014E00007066091060680910506ED2C0F2D212F31
:1014F0000E943C1C07E0202F412F6F2D8D2D0E9454
:1015000088061092F404B0CF0E3089F464E68D2D75
:101510000E942906D82E90E00E94BE1A81114DC06B
:1015200082E0F8124AC01D3108F447C041C00C30B7
:1015300001F581E08F0D8D30C0F5823071F41E31E0
:1015400008F01DE18D2D90E00E94BE1A22E0F22EDF
:10155000811133C01D3161F130C0843031F08630EB
:1015600021F09F2D9D7F983029F51F3118F11EE144
:1015700021C00D3011F51F5F1032F0F482E0F81237
:101580000BC01E31C8F48D2D90E00E94BE1A81114F
:1015900014C01D3189F011C08F2D8D7F843011F062
:1015A000893059F41F3141F008C0FF24F39405C07D
:1015B0001CE103C0F82E01C011E0C092F404202FFA
:1015C000412F6F2D8D2D0E9488061092F40454CF68
:1015D0008FE08093C90581E08093F40483E20E9448
:1015E000DB061092F4041FE001E00E94090781303D
:1015F00029F46091F40588E090E065C08091F504DD
:1016000081FF1DC00093F4041F3061F48091F40544
:101610000E9429076EEF73E084E194E00E9449067E
:101620001AE60BC08091FC050E9429076AE473E06A
:1016300080E693E00E9449061FE01092F404809136
:10164000F50482FD04C08091F0048823D9F01A3695
:10165000C9F48091F4059091FC059093F405809372
:10166000FC056EEF73E084E194E00E945B07009359
:10167000F40483E20E94DB068091F4050E942907AE
:101680001092F4040E94FB06B0CF8091F50481FD16
:101690001DC08091F50482FD33C08091F00481115A
:1016A0002FC08091F504811139C08091F00481111F
:1016B00035C00E94FB060E940907813031F7609116
:1016C000B40083E090E00E94A3313AC00093F40498
:1016D00065E084E70E940518183041F46EEF73E06E
:1016E00084E194E00E94490619E607C06AE473E0C9
:1016F00089EA93E00E94490618E01092F404C9CFE9
:10170000193679F68091B4008F5F8093B400809190
:10171000B400813130F21092B400C3CF0093F404CE
:1017200065E084E70E9405188091B400193619F429
:101730000E94CF1402C00E94D3141092F404B9CFB7
:101740008091F304811136CC1092C9050F900F904F
:101750000F900F90DF91CF911F910F91FF90EF901D
:10176000DF90CF90BF90AF909F900895E82FF0E06A
:10177000E350FB4F677081E090E0062E01C0880FB8
:101780000A94EAF79081982B908308952091FB04A6
:101790009091FA04291789F09091FC04E091F804E3
:1017A000F091F904911105C0EA57FF4FE491EF71F0
:1017B00005C0EC51FE4FE49101C0E0E0811101C091
:1017C000E0958E2F0895DF92EF92FF920F931F9373
:1017D000CF93DF93082FD42E0E9405188DEFE82EAB
:1017E00084E0F82EE70110E00D5F14408C2F8E1975
:1017F0008D1588F4882339F0C8018C0F9D1F8F73D5
:101800009927892B11F40E94D2170E94D21789932D
:101810000E941418EBCFDF91CF911F910F91FF9091
:10182000EF90DF9008959091FC04282F30E0911103
:101830001FC09FE9980F9A3120F08B3720F08AE182
:1018400003C080E201C080E020523109281B310929
:1018500045E0429FC001439F900D1124FC01EA57CF
:10186000FF4FE491E295E695E770E093FA0408955E
:1018700045E04093FA0420523109429FC001439F42
:10188000900D112408952F923F924F925F926F9284
:101890007F928F929F92AF92BF92CF92DF92EF9200
:1018A000FF920F931F93CF93DF93CDB7DEB72F97A0
:1018B0000FB6F894DEBF0FBECDBFB82EA62E842E75
:1018C0002A830C83262F30E03F872E87242F30E099
:1018D0008E859F85820F931F13E0959587951A95A6
:1018E000E1F78F8391E09B839A81923009F01B820C
:1018F00080E0E82FF0E0E35CFA4F10828F5F8816FB
:10190000C0F78E859F85821B930BB3E095958795D5
:10191000BA95E1F78887282D2195220F2D5F29831D
:10192000612C712C2B2D30E03E832D8330E43B194C
:1019300039879B2D990F9A872FEF2B0D2B87388492
:10194000360C9F81931508F438C1982C598100E01A
:101950001FEF212C90E0E32CF12C99160CF4B4C06D
:101960003A81332351F0333019F4222031F095C0FD
:10197000892F81702B81821390C0C92CDD24C7FC74
:10198000D0942E853F852C0D3D1DA3E035952795E0
:10199000AA95E1F72E153F0561F4692D6A0D80E4E3
:1019A000890F5D879C870E94B60B81E05D859C85D1
:1019B00001C080E06E857F856C197D09F3E0759527
:1019C0006795FA95E1F7492E552447FC50946E151A
:1019D0007F0559F46A2D691980E4890F5D879C871A
:1019E0000E94B60B5D859C8502C0813091F46D81AB
:1019F0007E81640D751DE12FF0E06E177F0714F4F2
:101A0000192F1B0DE02FF0E0E617F70714F4092F4C
:101A10000B0D6E857F85640D751DE3E075956795EB
:101A2000EA95E1F76E157F0561F4692F6A0D80E490
:101A3000890D5D879C870E94B60B81E05D859C8542
:101A400001C080E02E853F852419350943E0359596
:101A500027954A95E1F72E153F0559F46A2D691B24
:101A600080E4890D5D879C870E94B60B5D859C850F
:101A700002C0813091F42D813E81C20ED31E212FF0
:101A800030E0C216D30614F4192D1B0D202F30E0C0
:101A90002C153D0514F4092D0B0D57FF06C05A5F98
:101AA000892F880F880F580F07C0565F892F891913
:101AB000880F880F580F9A949F5F32E0231611F019
:101AC00023944BCF212C49CF1F3F09F472C041E032
:101AD000400F411B632D812F0E94E30B632D812F4B
:101AE0000E940518F984F10EE12CC02ED12CC11AE8
:101AF000D1082E2D2F0D8E2D90E0C816D906B4F0EA
:101B000030E0FC01E350FB4F9C81D901A350BB4F57
:101B1000913021F49C918081892B04C08C91809517
:101B2000908189230E942818E394E3CFFB2CF01ABC
:101B30000F2D0B0DEA84E11AEB1002C08B8501C05A
:101B40008E2D801758F041E0401B480F632D802FE9
:101B50000E94E30B632D802F0E94051890E4D92E7C
:101B6000DF18C12CF12CE01AF1082D2D2C198C2D29
:101B700090E0E816F906ECF0022F10E0203499F01E
:101B8000FC01E350FB4F2C81D801A350BB4F213007
:101B900021F49C918081892B04C08C918095908147
:101BA00089230E942818F801E350FB4F1082C39448
:101BB000DCCF3FEF631A730AC2CE2F960FB6F894AC
:101BC000DEBF0FBECDBFDF91CF911F910F91FF9070
:101BD000EF90DF90CF90BF90AF909F908F907F90CD
:101BE0006F905F904F903F902F900895EF92FF92EB
:101BF0000F931F93CF93DF931F92CDB7DEB7182FAC
:101C0000862F8770EE24E394F12C01C0EE0C8A95A8
:101C1000EAF7062F069506950695602F812F4983D2
:101C20000E9405180E94D2170E94D21749814130A4
:101C300011F4E82A02C0E094E8228E1571F0602FBA
:101C4000812F0E9405188E2D0F90DF91CF911F914B
:101C50000F91FF90EF900C9428180F90DF91CF9187
:101C60001F910F91FF90EF9008952F923F924F9206
:101C70005F926F927F928F929F92AF92BF92CF921C
:101C8000DF92EF92FF920F931F93CF93DF93CDB725
:101C9000DEB72B970FB6F894DEBF0FBECDBF982EE0
:101CA000842EB22E3E2DA62EA694A694A694462F40
:101CB0004770242E011117C0323039F4842F63E0AD
:101CC0000E941831F92EF1942DC0333031F4842F55
:101CD0006E2D0E941831F92E26C1313009F022C133
:101CE0006170F62E20C1013051F5323079F4842F25
:101CF00090E0820F911D91958195910963E070E0CC
:101D00000E944631FF24F394F80E0CC0333061F486
:101D1000842F90E0820F911D019763E070E00E9494
:101D20004631F82ED12C22C0313009F0FBC0FF24FF
:101D3000F394F20EF40E5F2D5170F52EF4C00230C4
:101D400009F0F0C0D82E323029F4862F90E0841BA1
:101D5000910907C0333009F0E8C0842F90E0861B5A
:101D6000910963E070E00E944631F82EF7FE02C050
:101D700083E0F80E712CE12C412C312CAB2DB0E01E
:101D8000BB83AA8308E010E0BEEFB30FBC83ED2D48
:101D9000FF27E7FDF095FE83ED833B1408F0CEC0EE
:101DA000432D50E05987488721100BC04A815B8141
:101DB00088859985481B590B4830510514F03430FB
:101DC00051F4482D6A2D892D3B870E94E30B41E099
:101DD00049833B8501C019826A2D892D3B870E946A
:101DE0000518E22DF0E06A817B8188859985681B62
:101DF000790BA8014E1B5F0B3B85641775071CF41C
:101E00002B2C231803C098E09219292EAC81A23004
:101E100060F48D819E818F0D911DF7FC9A9563E092
:101E200070E00E944631782E08C0313031F48F2D99
:101E30008D2580FF18C095E5E92EA80142195109AA
:101E40008FEF90E002C0959587954A95E2F7AC0137
:101E50000E2E01C0440F0A94EAF7642E542E5094BB
:101E60006DEF74E01FC08AEAE82EE7CFE42CE0941F
:101E7000CC2009F442C0E8E02E1609F443C0452006
:101E80008E2D8621482A842D3B876F837A870E9476
:101E900028183B856F817A85F2E07F16A9F173944B
:101EA0006F5F7F4F862F4DEF54E0841B881570F5D0
:101EB0004981413011F4DB014C903323C1F13530BD
:101EC000C9F1313039F4B1E0CB1611F0811133C0D2
:101ED000E09431C0323039F4E72DFF27E7FDF0956B
:101EE000E65EFD4F08C0333009F6E72DFF27E7FD1A
:101EF000F095E95EFD4FE0801EC0343009F4BBCFA1
:101F0000E094B9CF4E2CBFCF712CCACFA3943230FE
:101F100019F4F394F39403C0333009F4F394320CBE
:101F2000212C3BCFF12CD12C25CFF12C23CFEE242B
:101F3000EA9401C0E12CCC2019F39DCF2B960FB66B
:101F4000F894DEBF0FBECDBFDF91CF911F910F91EF
:101F5000FF90EF90DF90CF90BF90AF909F908F90C9
:101F60007F906F905F904F903F902F9008958F9249
:101F70009F92AF92BF92CF92DF92EF92FF920F9318
:101F80001F93CF93DF93D82EB62EA22E902E142F10
:101F9000D42FD195DD0FDD5FF12C88248394C0E030
:101FA0001C170CF45DC0C11709F1D7FD37C081E0E3
:101FB000881201C0FF0C212F220F2F5FC92CEA2CA1
:101FC00002E041E04F0D6B2D611B8D2D8C1B0E949B
:101FD000350ECC23D1F12C2F220F2F5F41E06B2D3A
:101FE0006C1B812F8D0D0E94350E04C0CC23A1F0F7
:101FF000D7FD14C0811019C0212F220F2F5FC92CCB
:10200000EA2C02E041E04F0D6B2D611B8C2F8D0DF2
:102010008F190E94350E09C0D7FF17C0DA5F8C2FC9
:10202000880F880FD80FF39419C0C113F12C2C2FEF
:10203000220F2F5F41E04F0DC92CEA2C02E06B2DDF
:102040006C1B8D2D811B0E94350ED65F8C2F811B42
:10205000880F880FD80F1150F12C812CCF5FA0CFA3
:10206000DF91CF911F910F91FF90EF90DF90CF9074
:10207000BF90AF909F908F900895CF92EF920F9363
:10208000C02EE12C02E00E94350E0F91EF90CF9010
:102090000895482F80E055E0FB012191BF012223E4
:1020A00011F141111EC09FE9920F9A3120F02B3798
:1020B00020F09AE103C090E201C090E030E02052AD
:1020C0003109291B3109529FF001539FF00D112452
:1020D000EA57FF4FE4918F5FE295E695E7708E0F28
:1020E000DBCF8A5FD9CF08952F923F924F925F92B4
:1020F0006F927F928F929F92AF92BF92CF92DF9218
:10210000EF92FF920F931F93CF93DF9300D000D0F5
:102110001F92CDB7DEB7782F162F0983F42EF81A49
:102120003F2DE22EE61A9E2DF7FCF194E7FCE19498
:1021300013163CF081E0311101C080E0682E6194FB
:1021400002C06624639419163CF081E0911101C02D
:1021500080E0982E919402C099249394BE2CB6945A
:10216000AF2CA694D12ED694D694D69426952695A7
:10217000269530E02D19310937FF03C0319521959F
:10218000310922242394220EFE1420F43E2C5524DF
:10219000539402C03F2C512C542F741758F4572FCE
:1021A00009C030E02817390764F0FC01E350FB4F09
:1021B00010825F5F852F90E0242F471790F7272F1D
:1021C000F0CF712CC12C721408F088C0612F872FBA
:1021D0007C830E94B60B7C81872E7D83C31420F5FF
:1021E000511007C0AE0CAF1410F0AF18190D760DDA
:1021F00006C0BF0CBE1410F0BE18760D190D812F4D
:10220000869586958695D8120FC09D81791708F41A
:102210007D83871608F4872E612F872F7C830E9489
:10222000B60BC3947C81DACF6D2D8D817C830E94A7
:1022300005184D800FEF7C81841440F19D81491673
:1022400019F0842D8F7321F47C830E94D2177C8136
:102250007C830E94D217242D30E07C819981F90182
:10226000E350FB4F4081913011F4482B02C0409560
:1022700048230F3F11F48413042DF901E350FB4F61
:1022800040837C830E9414184394D5CF07FD1FC060
:102290006D2D802F7C830E9405187C8118C09D8144
:1022A000292F30E0901760F0F901E350FB4F808157
:1022B0009A833B837C830E9428187C813B812A81FE
:1022C000F901E350FB4F10829D819F5F9D839D81AB
:1022D000891628F7C394D90C739475CF0F900F907B
:1022E0000F900F900F90DF91CF911F910F91FF9062
:1022F000EF90DF90CF90BF90AF909F908F907F90A6
:102300006F905F904F903F902F9008952F923F9243
:102310004F925F926F927F928F929F92AF92BF92F5
:10232000CF92DF92EF92FF920F931F93CF93DF93A1
:10233000CDB7DEB760970FB6F894DEBF0FBECDBF46
:102340008D832A873B87B62EB694B694B694677071
:10235000562E4093FC04B901842F4E870E944910E9
:10236000809F902C11244E85411102C085E001C050
:1023700087E08E9D802C1124F12CA12C188AD12C61
:102380001F861B8210E0882D90E09987888718159A
:1023900008F0CDC0612E712CE52DF0E0FF83EE83B7
:1023A000511007C0488559854619570948305105CD
:1023B000BCF4492D6B2D8D810E94E30B2885398556
:1023C000261937098E819F81280F391F2930310541
:1023D00024F038E0232E251805C0282C211A02C02D
:1023E00028E0222E6B2D8D810E94051828E030E018
:1023F00022193109EFEFF0E002C0F595E7952A9533
:10240000E2F7052C01C0EE0F0A94EAF7EC8321E015
:1024100001C0220F5A94EAF72C872A8529832B853D
:102420002A8368887D2C412C512C312C262D220D9D
:102430002D87542D491408F071C09091FB048091B0
:10244000FA04891710F051116FC01092FB04E98152
:10245000FA818191FA83E9835E870E94130C90933D
:10246000F9048093F8045E85301611F0511113C001
:102470008C2D0E94C60B8B838091FB048F5F809311
:10248000FB048091F8049091F90401969093F9046B
:102490008093F804312CF8E02F1629F0F201E35074
:1024A000FB4F20812F87311029C02B81822F90E094
:1024B000E1E0088802C0959587950A94E2F7EE124C
:1024C0000AC00E8001C0880F0A94EAF7F82E6D84C6
:1024D000AC807D2C13C05C85922D68887D2CF12CFE
:1024E000992359F080FDF52A73947E1003C08695D8
:1024F0006394712C550F9150F3CFAC808A2D809549
:102500002F8528238F2D8A21282B2F87822F0E9409
:10251000281833948FEF481A580A8BCFB394120DB2
:10252000512C688AD72C33CF3012B5CFA1CF892D4B
:1025300060960FB6F894DEBF0FBECDBFDF91CF918E
:102540001F910F91FF90EF90DF90CF90BF90AF90D1
:102550009F908F907F906F905F904F903F902F90C3
:102560000895CF92EF920F93C02EEE24E39401E0F2
:102570000E9486110F91EF90CF9008952F923F9275
:102580004F925F926F927F928F929F92AF92BF9283
:10259000CF92DF92EF92FF920F931F93CF93DF932F
:1025A000CDB7DEB765970FB6F894DEBF0FBECDBFCF
:1025B000D82E29832801762E7694769476946770A7
:1025C000962E4093FC04B801842F4A8B0E94491038
:1025D0008C9D802C11244A89411102C085E001C0E4
:1025E00087E08E9D202D11242D833981323041F4D6
:1025F00081508B87D394D21A1C8651E05E8305C02C
:1026000027E02C871B863FEF3E83612C1C82F12C38
:10261000B12C10E0282D30E038872F83181508F0F2
:1026200015C1992031F03981323061F047E09416BC
:1026300019F05981513031F08F819885811B9109B2
:10264000089744F54D81672D8D2D0E94E30B29815C
:10265000223059F48F819885811B9109890D911D34
:102660000997ACF008E0091916C03981313079F4C6
:1026700088E090E0891991092F813885211B310963
:10268000820F931F09971CF001E0090D04C0082D6B
:10269000011B01C008E0672D8D2D0E940518202F19
:1026A00030E048E0242E312C221A330A4FEF50E05C
:1026B00002C0559547952A94E2F71A0133245981AF
:1026C000523031F4092C01C0220C0A94EAF709C0F7
:1026D000892D90E00196821B930B01C0220C8A95F4
:1026E000EAF781E001C0880F9A94EAF78D872DEF11
:1026F00034E03B832A8392013B84FB8A912C5C81EA
:10270000452F50E05F874E87422D4095488B8A8148
:10271000EDEFF4E08E1B5D81851708F08DC0083069
:1027200019F0EA81FB81B08091106DC02C8120935B
:10273000FB04F20180810E94130C2E853F85820FDD
:10274000931F9093F9048093F8048A2D0E94C60B7E
:1027500041E050E0032C02C0440F551F0A94E2F7F9
:102760005A87498792014D85502FFB8A612C55234A
:1027700009F449C0682F70E0E985FA856E237F234C
:10278000672B09F0642AF981F23011F4440F01C07B
:1027900046959B899F5F9B8B9C1133C08091FB0466
:1027A0009091FA04891779F08F5F8093FB048091F0
:1027B000F8049091F90401969093F9048093F80439
:1027C0003D8B2C8B14C0F9013196FD8BEC8B109254
:1027D000FB04F9018181882351F04A8B598B0E94B7
:1027E000130C9093F9048093F80459894A898A2D2F
:1027F0004A8B598B0E94C60B2C893D891B8A5989AB
:102800004A895150B4CF4889B422862D8221B82AF2
:102810008B2D298B3A8B0E942818939429893A8909
:102820009E1003C05E81351A912C4A815B814F5FF7
:102830005F4F5B834A836BCF5E81750E100F5091A3
:10284000FB045C8329019C84FB88E8CE882D659677
:102850000FB6F894DEBF0FBECDBFDF91CF911F91B1
:102860000F91FF90EF90DF90CF90BF90AF909F902F
:102870008F907F906F905F904F903F902F90089532
:10288000AF92BF92CF92DF92EF92FF920F931F937E
:10289000CF93DF93D82E162FC42FD22FF02E4423A0
:1028A00079F1222369F14330C0F05EEFA52EA40E2A
:1028B000BB24B394B80EC02EE12C02E021E04A2DD7
:1028C0008B2D0E94350ED23040F06FEF610F6D0FEF
:1028D00021E04A2D8B2D0E94350ECF2CE12C02E0F9
:1028E0002D2F41E0612F8D2D0E94350EC23040F01A
:1028F0008FEF8D0D2D2F41E0612F8C0F0E94350E33
:10290000DF91CF911F910F91FF90EF90DF90CF90CB
:10291000BF90AF900895FF920F931F93CF93DF93D3
:10292000F62E90E0809725E0289F8001299F100DCA
:102930001124C0E0D0E00C511E4FF801EC0FFD1F38
:102940008491F11001C080950E9428182196C5300D
:10295000D10599F7F11002C08FEF01C080E0DF913F
:10296000CF911F910F91FF900C9428181F93CF9334
:10297000DF931F92CDB7DEB7162F6AE00E941831A1
:10298000612F805D99830E948B14612F998180E370
:10299000890F0F90DF91CF911F910C948B14609150
:1029A000F4050C94B6146091FC050C94B6141F93B6
:1029B000CF93DF93162FEC018991882321F0612FAB
:1029C0000E948B14F9CFDF91CF911F9108956091F0
:1029D000FC050C94D7146091FC050C948B14ECEB63
:1029E000F0E080818F70806C80830895459A449ACE
:1029F0001092800510927F0510927E0510927D0541
:102A000080E28093B800ECEBF0E08081846080830A
:102A10001092C4058081816080838081806480837E
:102A20007894089580E28093B8000895ECEBF0E08C
:102A300080818F70806A80830895ECEBF0E0808164
:102A40008F70806D808308958091BC0087FFFCCFDC
:102A500008958093BB00ECEBF0E080818F7080687C
:102A60008083089581110C94EF148091BC008F70C5
:102A700080688093BC0008958091BB000895EF9218
:102A8000FF921F93CF93DF9300D01F92CDB7DEB795
:102A9000162F9091BC009E7F9093BC004A835B836D
:102AA00089830E9416150E94241589818E7F0E94B9
:102AB00029150E9424158091B9004A815B818831D3
:102AC00071F47A01112349F0F70181917F010E948D
:102AD00029150E9424151150F5CF80E001C081E036
:102AE00089830E941D1589819091BC0094FFFCCFC1
:102AF0009091BC0091609093BC000F900F900F904C
:102B0000DF91CF911F91FF90EF900895EF92FF9288
:102B10001F93CF93DF9300D000D0CDB7DEB7909155
:102B2000BC009E7F9093BC004B835C836A83898347
:102B30000E9416150E942415898181600E94291522
:102B40000E9424158091B9004B815C816A81803498
:102B5000E1F47A01162F140F812F8E19823050F074
:102B60000E94EF140E9424158091BB00F70181930D
:102B70007F01F2CF80E00E9432150E9424158091DF
:102B8000BB00F701808380E001C081E089830E945F
:102B90001D159091BC0091609093BC0089810F90AD
:102BA0000F900F900F90DF91CF911F91FF90EF90BA
:102BB00008951F920F920FB60F9211242F933F93F7
:102BC0004F935F936F937F938F939F93AF93BF9335
:102BD000EF93FF938091B900887F883609F4B6C0DF
:102BE00008F042C0803309F49BC0A8F4803109F496
:102BF00069C038F4882309F434C1883009F462C00C
:102C00003DC1803209F48CC0883209F462C0883139
:102C100009F034C15EC0883409F482C038F48833C6
:102C200009F486C0803409F48DC028C1883509F4C0
:102C300066C0803609F48AC0803509F01FC160E0A3
:102C40008FE894E00E94DD1C8091BB00E09181053B
:102C500091E09E0F90938105F0E0EE57FA4F80834C
:102C600090E00E94C91C6EC0803A09F499C0A8F493
:102C7000803809F476C038F4803709F467C08837A3
:102C800009F464C0FBC0803909F46BC0883909F4C9
:102C90007EC0883809F0F2C07AC0883B09F4AEC023
:102CA00038F4883A09F494C0803B09F491C0E6C036
:102CB000883C09F4C6C0883F09F4CDC0803C09F0C7
:102CC000DDC0BFC060E081E195E00E94DD1C80E0D6
:102CD00013C060E082EF94E00E94DD1CE091A30548
:102CE0008091A205E81708F581E08E0F8093A30577
:102CF000F0E0EC55FA4F80810E942915BFC060E0DA
:102D00008DED94E00E94DD1CE091810581E08E0F45
:102D1000809381058091BB00F0E0EE57FA4F8083ED
:102D200060E087EB94E00E94DD1C0E941D15A4C0AA
:102D300060E083EA94E00E94DD1C8091BC008F700B
:102D4000806898C060E08CE794E024C060E089E689
:102D500094E00E94DD1C85E08093C40510928105FB
:102D600064C060E085E594E00E94DD1CE09181058F
:102D700081E08E0F809381059091BB00F0E0EE57CB
:102D8000FA4F9083803240F40E94EF1477C060E0E5
:102D900080E494E00E94DD1C80E00E9432156EC049
:102DA00060E08DE294E00E94DD1C8091BC008F7099
:102DB000806C8093BC00E0917F05F0918005309796
:102DC00009F45AC062E875E080918105099554C004
:102DD00060E08AE194E00E94DD1C84E08093C405F9
:102DE000E0917D05F0917E05309731F064EA75E061
:102DF00080E209958093A2051092A30560E086E029
:102E000094E00E94DD1CE091A30581E08E0F809389
:102E1000A305F0E0EC55FA4F80818093BB009091C0
:102E2000A3058091A205981728F48091BC008F70AB
:102E3000806C04C08091BC008F7080688093BC005F
:102E40001DC060E084EE93E00E94DD1C8091BC0018
:102E50008F70806C0FC060E085ED93E00E94DD1CF8
:102E60000DC060E084EC93E00E94DD1C8091BC000A
:102E70008F70806D8093BC001092C405FF91EF911C
:102E8000BF91AF919F918F917F916F915F914F9182
:102E90003F912F910F900FBE0F901F901895F894AF
:102EA00040985A98882321F0813019F45A9A01C029
:102EB000409A8BB1806F8BB985B18F6085B92F989F
:102EC0008AB18F708AB984B1807F84B92D9A2C9A87
:102ED0000000000089B193B12C9887FF08C0000062
:102EE0000000000000002C9A00000000F1CF2D9897
:102EF0008AB1806F8AB984B18F6084B9789408955B
:102F0000CF93DF931F92CDB7DEB7F89469830E9409
:102F10004F172F982D982C9A8AB1806F8AB984B157
:102F20008F6084B98BB18F708BB99BB16981862F0B
:102F3000807F892B8BB985B1807F85B985B16F7012
:102F4000682B65B9000000000000000000000000D0
:102F5000000000002C9878940F90DF91CF91089595
:102F60008093C505682F6F736064829586958695FA
:102F700083700C9480179091C505929596959695BF
:102F8000937087708093C605E92FF0E0E953FA4FFC
:102F90002081821731F08083682F686B892F0C9411
:102FA000801708958091C5058295869586958370D2
:102FB000F8940E944F172F9A8AB18F708AB984B102
:102FC000807F84B92D9A2C9A000000000000000038
:102FD000000000000000000089B193B12C982D98EA
:102FE00078949F70807F892B089560EC80E00E9428
:102FF00080176FE380E00E94801760EC81E00E9400
:1030000080176FE381E00C948017CF93DF931F92BA
:10301000CDB7DEB769830E94B0176981862F0F9004
:10302000DF91CF910C94BB178091C5058F3718F0B5
:1030300080E00C94B0178F5F8093C505982F9F7325
:1030400031F40E94B0178091C6050C94BB17089507
:10305000CF93C82F8091C5058295869586958370FC
:10306000F8940E944F172F9A2D982C9A9AB1906F2E
:103070009AB994B19F6094B99BB19F709BB98BB181
:103080009C2F907F982B9BB995B1907F95B995B166
:103090008C2F8F70892B85B9000000000000000084
:1030A00000000000000000002C987894CF910C9450
:1030B00014181F93CF93DF9391E0813009F090E0D3
:1030C000192F1195C0E06C2F80E00E940518D0E008
:1030D000812F0E942818DF5FD038D1F7CF5FC8302A
:1030E00091F7DF91CF911F910C94F5172F982D98A0
:1030F0002C9840985A98279A259A249A389A529A46
:103100009BB19F709BB995B1907F95B99AB1906F23
:103110009AB994B19F6094B99FEF9093C70590932B
:10312000C8050C94591880E2809371018091D305F1
:103130008093D40581E08093700108951F920F92CF
:103140000FB60F9211242F933F934F935F936F937A
:103150007F938F939F93AF93BF93EF93FF93809150
:10316000D905882329F08091D90581508093D9050C
:103170008091EE04882329F08091EE0481508093A1
:10318000EE048091EF04882359F08091EF04815080
:103190008093EF048091EF04811102C00E946305C7
:1031A0008091D005813009F092C08091CB0590913B
:1031B000CC05892B09F08BC08091D7059091D8055B
:1031C000892B09F07AC09091D4058091D305209184
:1031D000700198131CC02130D1F4809171018032AC
:1031E00019F41092710103C08E5F80937101809178
:1031F000710190E0FC01EF5CFA4F34913093D405FB
:10320000FC01EE5CFA4F8491830F8093D30580918B
:10321000D405213001F51092700190E0FC01E751D6
:10322000FA4FE49129E0E29FF0011124F093D605D2
:10323000E093D505FC01ED5AFA4F849123E6829F75
:10324000C001112463E070E00E9432317093D80510
:103250006093D70510C091E0909370011092D6054D
:103260001092D50521E330E03093D8052093D7059F
:103270008F5F8093D4058091D5059091D605892BD9
:1032800021F410928100439818C01092800089E0C8
:103290008093810083E080936F002091D505309169
:1032A000D60540E050E060E079E08DE390E00E94D8
:1032B0005A3130938900209388008091D7059091EE
:1032C000D80501979093D8058093D7050FC08091BA
:1032D000CD059091CE05019649F410928100439856
:1032E0001092CE051092CD050E949318FF91EF9198
:1032F000BF91AF919F918F917F916F915F914F910E
:103300003F912F910F900FBE0F901F9018951F9215
:103310000F920FB60F9211248F939F9388B198E06C
:10332000892788B99F918F910F900FBE0F901F90A2
:1033300018951F920F920FB60F9211248F939F939F
:1033400088B198E0892788B99F918F910F900FBE1F
:103350000F901F9018951E9B18C08091CA05813050
:1033600029F51092CA051092CC051092CB05109247
:10337000CE051092CD058091D0058130B9F4109220
:10338000D0051092810043980FC08091CA05811129
:103390000DC081E08093CA051092CC051092CB0538
:1033A0001092CE051092CD050C9493180895EF92CB
:1033B000FF920F931F93CF93DF938B017A018823A2
:1033C00059F0282F30E021503109220F331FC90155
:1033D0000996E9012A9604C0C2E0D0E081E090E0BD
:1033E0000E949B3168E10E941831F8019083CE0160
:1033F0000E949B316CE30E941831F7019083DF91AA
:10340000CF911F910F91FF90EF9008950F931F930D
:10341000CF93DF9300D0CDB7DEB769834A8388238B
:1034200061F0282F30E021503109220F331FC901EC
:1034300009968901065F1F4F04C002E010E081E099
:1034400090E069810E94A3316A81C8010F900F90BA
:10345000DF91CF911F910F910C94A3316AE00E94EC
:103460001831292F30E1839FC0011124822B089548
:10347000CF939C01C62F1092800089E08093810039
:1034800083E080936F0040E050E060E079E08DE3FE
:1034900090E00E945A313093890020938800C9310E
:1034A00040F08FE493EC0197F1F700C00000C951A0
:1034B000F6CF109281004398CF910895CF93DF9378
:1034C00080E090E00E949B31833CA1F0C1E0D0E01D
:1034D000FE01EF5DFA4F6491CE010E94A331219667
:1034E000C031D105A9F763EC80E090E0DF91CF9186
:1034F0000C94A331DF91CF910895CF93DF93C82F20
:10350000D0E0E42FF0E0E053F84F833010F42C9635
:103510003197262F30E02F5F3F4F2E0F3F1FCE01F8
:10352000880F991F280F391FCF019695879596957B
:103530008795280F391FCF0160E971E00E94323171
:10354000260F371FCF0164E670E00E943231261B40
:10355000370B219646E04C9FC0014D9F900D1124E2
:103560006AE070E00E943231260F371FC90167E020
:1035700070E00E943231DF91CF9108959C018370F9
:103580009927892B39F4C90164E670E00E94323131
:10359000892B59F4C90160E971E00E94323121E0C0
:1035A000892B09F020E0822F089581E00895109280
:1035B000DE041092DD048091D1058823E1F38CE3D1
:1035C00080930B061092D1058091D1058823E1F3F9
:1035D00081E08093DE040895CF93DF93CDB7DEB70B
:1035E00029970FB6F894DEBF0FBECDBF1986F894A9
:1035F000AE01475F5F4F61E080ED0E943F15811192
:103600000E94B52DAE014F5F5F4F67E080ED0E94D5
:10361000861578948111F4CF8981282F26952695D7
:1036200026952E70922F990F990F920F282F2F7099
:10363000920F909305063A81232F2695269526957D
:103640002E70922F990F990F920F3F70930F9093B6
:1036500006069B81292F22952F70392F3F7096FFE8
:1036600011C095FB442740F92170220F922F990F2A
:10367000990F920F2CE0429F900D1124930F90937D
:10368000070607C023709AE0299F300D112430935C
:1036900007063D81232F2695269526952670922F85
:1036A000990F990F920F3F70930F909308063E81E8
:1036B00034FB222720F9220F922F990F990F920F96
:1036C0003F70930F909309069F81292F22952F70A9
:1036D0009F703AE0239F900D112490930A06807802
:1036E00029960FB6F894DEBF0FBECDBFDF91CF9104
:1036F00008951F920F920FB60F9211242F933F93AC
:103700004F935F936F937F938F939F93AF93BF93E9
:10371000CF93EF93FF93A8958091D205813279F4EE
:103720001092D205C09105068091DA05813059F4D6
:103730001092CE051092CD051092DA0504C08F5F6D
:103740008093D20587C00E94AB190E94EC1A809129
:1037500005068C17B1F18091F304882329F080913C
:10376000F30481508093F3048091D0058130F9F403
:103770008091CB059091CC05019711F40E9493188C
:103780008091CB059091CC05009729F001979093FB
:10379000CC058093CB058091CD059091CE05181670
:1037A00019062CF401979093CE058093CD05809156
:1037B000C905882331F08091F404811102C00E9470
:1037C00045078091D105811112C090910B0680911F
:1037D0000506981761F086E0E5E0F6E0ABE0B6E0BC
:1037E00001900D928A95E1F781E08093D105809157
:1037F000CA05813079F59091D005911115C090914D
:103800000506911111C0209106069091FB05291320
:103810000BC0209107069091F505291305C08093F0
:10382000D00588E097E012C08091D005813091F4F6
:103830008091CD059091CE05892B61F41092D00531
:103840001092CC051092CB058FEF9FEF9093CE0591
:103850008093CD05FF91EF91CF91BF91AF919F9153
:103860008F917F916F915F914F913F912F910F9029
:103870000FBE0F901F901895EF920F93CF93DF9389
:10388000CDB7DEB72B970FB6F894DEBF0FBECDBF16
:1038900019822B874A8769870E942E1A8A83698535
:1038A000862F0E942E1A8B834A85842F0E942E1AFF
:1038B0008C831D822B85822F0E942E1A8E83802F4F
:1038C0000E942E1A8F838E2D0E942E1A8887F894BC
:1038D000AE014F5F5F4F68E080ED0E943F15789426
:1038E00081110E94B52D2B960FB6F894DEBF0FBE46
:1038F000CDBFDF91CF910F91EF900895EF920F938D
:103900000E94F6140E94EC1A882349F062E1E62E28
:1039100001E021E04CE060E080E00E943C1C0E945D
:10392000EC1A87E08093B10081E080937000789476
:103930000F91EF9008959093C5008093C40088E1A3
:103940008093C1008EE08093C200519A50980895F0
:103950009091C00095FFFCCF8093C60080E090E07E
:103960000895CF93C82F82958F708A3010F4805DB0
:1039700001C0895A0E94A81C8C2F8F70282F30E01C
:103980002A30310514F4805D01C0895ACF910C941E
:10399000A81CCF93C82F892F0E94B11C8C2FCF91C8
:1039A0000C94B11C8091C00087FFFCCF8091C600B1
:1039B00008958091C000807808950895089508952D
:1039C00008950895CF92EF920F931F93CF93DF93B3
:1039D00000D01F92CDB7DEB7162FBE016F5F7F4FAD
:1039E0000E943804C090FC050091DF05019F902DD6
:1039F00011248091DD05E090DE059E012F5F3F4F91
:103A000041E06091DC0553E1959F800D11240E94F7
:103A100086110F900F900F90DF91CF911F910F9112
:103A2000EF90CF900895CF92EF920F93823041F4B0
:103A30000091F40528E340E860E080E00E943D103A
:103A4000C090FC059091DF058091DD05E090DE05DA
:103A5000092F20EE32E041E06091DC055DE0959FAA
:103A6000800D11240E9486118091E0058130A1F41F
:103A7000C090FC059091DF058091DD05E090DE05AA
:103A8000092F20EE32E041E06091DC0550E2959F85
:103A9000800D11240E9486110F91EF90CF90089510
:103AA0000F93CF93DF93CDB7DEB729970FB6F89476
:103AB000DEBF0FBECDBF40E069E382E00E94890413
:103AC0008091DE04811105C08091D904882309F416
:103AD00095C08091DD04813029F08091D904813036
:103AE00009F04AC00091FC054091DF046091E104B7
:103AF0008091E0040E947D1AE82FF0E0EE0FFF1F96
:103B0000E65BFE4F2081318141E06091DB0582E17F
:103B10000E94B1120091FC05E091E004F0E0EE0F8C
:103B2000FF1FEA5AFE4F2081318141E06091DB05A1
:103B30008AE20E94B1128091E104BE016F5F7F4F63
:103B40000E9438048CE28B8380E28C8382E38D8335
:103B500080E38E838091DF04BE01695F7F4F0E9406
:103B600038040091FC059E012F5F3F4F41E06091BA
:103B7000DB0582E40E94B1129091E5048091E80493
:103B8000981304C08091D904813029F48091E50410
:103B900060E00E94E21C9091E6048091E904981391
:103BA00004C08091D904813029F48091E60461E059
:103BB0000E94E21C8091E005813079F49091E70445
:103BC0008091EA04981304C08091D904813029F4CB
:103BD0008091E70462E00E94E21C8091E00581117F
:103BE0000DC00091FC058091E70480FF0091F40571
:103BF00026E044E068E18EE30E943D1029960FB66E
:103C0000F894DEBF0FBECDBFDF91CF910F91089525
:103C10001092E00594E09093DD0522E02093DC050E
:103C20009093DF0595E09093DE059CE29093DB0591
:103C30000C94131D91E09093E00590E19093DD05C5
:103C40009CE09093DC0592E09093DF059093DE0575
:103C500095E29093DB050C94131DFC012281203426
:103C600029F423812F3111F422E001C026E0362F00
:103C7000DC01FB0181918D938E2F831B8217D0F382
:103C800008952F923F924F925F926F927F928F9200
:103C90009F92AF92BF92CF92DF92EF92FF920F93DB
:103CA0001F93CF93DF93CDB7DEB72A970FB6F89463
:103CB000DEBF0FBECDBF8D839A871B0129013A015C
:103CC000E982FA820B831C831A2D082DCA01B901DF
:103CD0000E94CE304B015C016C2D70E080E090E0E2
:103CE0000E94A62F6B017C019B01AC01C501B401B0
:103CF0000E946B300E94732F605CF1016083C301EE
:103D0000B2010E94082F9058A70196010E946B30C3
:103D10000E94732F615EF101618329813A814B8199
:103D20005C81C301B2010E94A42E4B015C010E9480
:103D3000CE306E837F8388879987612F70E080E023
:103D400090E00E94A62F6B017C019B01AC016E816B
:103D50007F81888599850E946B300E94732F605CFB
:103D6000F1016283C501B4010E94082F9058A70198
:103D700096010E946B300E94732F615EF101638394
:103D800029813A814B815C81C301B2010E94A32E3B
:103D90004B015C010E94CE30A70196010E946B305E
:103DA0000E94732F605CF1016483C501B4010E941D
:103DB000082F9058A70196010E946B300E94732F24
:103DC000615EF10165839D81D101E92FFA858E2F16
:103DD000891B801730F421918D912817C1F381E060
:103DE00001C080E02A960FB6F894DEBF0FBECDBFAB
:103DF000DF91CF911F910F91FF90EF90DF90CF90C7
:103E0000BF90AF909F908F907F906F905F904F90FA
:103E10003F902F9008950F931F93CF93DF93EC0162
:103E2000162F062F2B814A81698188810E94741088
:103E30008A81803419F48B818F3169F0012F2D81B3
:103E40004C81698188810E9474102D814C816B8125
:103E50008A810E947410DF91CF911F910F91089574
:103E6000CF92DF92EF92FF920F931F93CF93DF9346
:103E7000813009F071C00091FC0520E04EE16FE156
:103E800080E40E94430C4091FC056FE180E40E94B5
:103E9000F60DC0E0D3E06C2F772767FD7095872F74
:103EA000972F0E94A62F22E93AE046E05FE30E94A6
:103EB0006B306B017C010E94CE302DEC3CEC40EE6F
:103EC00051E40E946B300E94732F162FC701B60178
:103ED0000E94082F90582DEC3CEC40EE51E40E94DB
:103EE0006B300E94732F062F4091FC056FE1600F2D
:103EF00080E4810F0E94F60D8C2F6D2F0E942431DB
:103F0000911115C0C11102C0015009C0C33011F494
:103F10001F5F05C0C63011F40F5F01C01150409102
:103F2000FC056FE1600F80E4810F0E94F60DCF5F0A
:103F3000CC3009F0B0CFEDEEF5E0C7EED5E0A1EE64
:103F4000B5E088E2819389938D9395E0E33FF9078B
:103F5000C9F71092F60518C08091FA05811114C0B6
:103F60006091F4058DEE95E00E940B1F4091FC05D9
:103F70006FE180E4DF91CF911F910F91FF90EF905F
:103F8000DF90CF900C94F60DDF91CF911F910F91A0
:103F9000FF90EF90DF90CF9008954F925F926F92D5
:103FA0007F928F929F92AF92BF92CF92DF92EF92C9
:103FB000FF920F931F93CF93DF93CDB7DEB76A972E
:103FC0000FB6F894DEBF0FBECDBF1091DA0480911A
:103FD000DC04813009F0AEC08091F705813009F032
:103FE0009FC06091FB0570E080E090E00E94A42FEC
:103FF00020E537E746ED5DE30E946B306B017C0105
:104000000E94CE304B015C01C701B6010E94082F0F
:104010002B013C018091F5050091FB056CE00E94AD
:104020001831692F70E080E090E00E94A62F22E90D
:104030003AE046E05FE30E946B306B017C01602F49
:1040400070E080E090E00E94A42F25E33AEF4EE07C
:104050005CE30E946B309B01AC01C701B6010E947A
:10406000A42E6B017C010E94CE306B8B7C8B8D8BE0
:104070009E8BC701B6010E94082F6F8B788F898FA6
:104080009A8F0091FC0520E047E066E386E70E94F6
:10409000430C0091FC05C301B201905820E030E0D0
:1040A00040EE50E40E946B300E94732F762E86E320
:1040B000780E20E030E040EE50E4C501B4010E94EB
:1040C0006B300E94732F462F4A58272D66E386E7F0
:1040D0000E9474100091FC056F89788D898D9A8DEE
:1040E000905820E030E040EA50E40E946B300E949B
:1040F000732FB62E86E3B80E20E030E040EA50E49D
:104100006B897C898D899E890E946B300E94732FF8
:10411000462F4A582B2D66E386E70E9474100AC08A
:104120000091F40521E141E16EE28EE60E943D102E
:104130001092F6058091DB04813071F41F70812F9D
:1041400090E021E008970CF420E08091F605281714
:10415000A1F02093F60506C08091F605813069F440
:104160001092F605C090F40584E0E82E02E021E10B
:1041700041E16EE28EE60E94350E8091DE048130D0
:1041800021F08091D904813019F41092020605C003
:10419000809102068F5F8093020642E069E382E02D
:1041A0000E9489048091FA058130D1F56091E7047D
:1041B0001091020670E080E090E00E94A42F20E5BC
:1041C00037E746ED5DE30E946B306B017C01612FA8
:1041D00070E080E090E00E94A62F28E93EE24EEFDA
:1041E0005BE30E946B309B01AC01C701B6010E94EA
:1041F000A42E9B01AC0196E0892E67E1A62E7BE1FF
:10420000C72E1DECE12E1CECF12E0CEC1DE3BE01C3
:10421000635F7F4F8DEE95E00E94411EB82E01C076
:10422000B12C8091DE04813029F08091D904813055
:1042300009F085C06091E6041091E70470E080E029
:1042400090E00E94A42F20E537E746ED5DE30E9451
:104250006B306B017C01612F70E080E090E00E9488
:10426000A42F29E833EC44EE5AE30E946B309B0103
:10427000AC01C701B6010E94A42E9B01AC01F2E083
:104280008F2EA8E0AA2EBBE1CB2E1CE7E12E19ED64
:10429000F12E00E210E4BE01695F7F4F87EE95E0EA
:1042A0000E94411E982E81E0981659F09091E804E2
:1042B0008091E504981305C08091D904813009F0FC
:1042C00041C08091E5041091E6046CE00E94183131
:1042D000692F70E080E090E00E94A62F22E93AE08A
:1042E00046E05FE30E946B306B017C01612F70E060
:1042F00080E090E00E94A42F25E33AEF4EE05CE3DB
:104300000E946B309B01AC01C701B6010E94A42E34
:104310009B01AC0196E0892E65E0A62E74E1C72EC4
:104320001CE7E12E19EDF12E00E210E4BE016F5FF3
:104330007F4F81EE95E00E94411E182F04C010E0CF
:10434000912C01C010E08091FA058130C9F4B816B3
:1043500021F08091D904813099F46091F4058DEEBB
:1043600095E00E940B1FBE01635F7F4F8DEE95E0CD
:104370000E942D1E6091FC058DEE95E00E940B1FA2
:1043800081E0981621F08091D9048130E1F46091A8
:10439000F40587EE95E00E940B1FBE01695F7F4F19
:1043A00087EE95E00E942D1E6091FC0587EE95E05A
:1043B0000E940B1F8091FA05813071F46091FC0519
:1043C0008DEE95E007C081E0B81206C06091FC0553
:1043D00087EE95E00E940B1F113021F08091D904E7
:1043E000813011F56091F40581EE95E00E940B1F7C
:1043F000BE016F5F7F4F81EE95E00E942D1E6091A0
:10440000FC0581EE95E00E940B1F8091FA0581303A
:1044100031F46091FC058DEE95E00E940B1F6091D8
:10442000FC0587EE95E009C081E0B81611F09812FE
:1044300006C06091FC0581EE95E00E940B1F6A9614
:104440000FB6F894DEBF0FBECDBFDF91CF911F91A5
:104450000F91FF90EF90DF90CF90BF90AF909F9023
:104460008F907F906F905F904F9008951092FA0513
:104470000C94301F91E09093FA050C94301F8F92AA
:104480009F92AF92BF92CF92DF92EF92FF920F93E3
:104490001F93CF93DF931F92CDB7DEB7F82E862FF1
:1044A00091E03AE0632FA91218C00E941831D82E6B
:1044B000842F0E941831B82E822F0E941831A82E06
:1044C000802F0E941831982E8E2D0E941831E82ED0
:1044D0008C2D0E941831982F16C00E941831D92EA9
:1044E000842F0E941831B92E822F0E941831A92ED4
:1044F000802F0E941831992E8E2D0E941831E92E9E
:104500008C2D0E941831D91007C0BE1005C0A91209
:1045100003C0882009F443C02DE0C22E10E031E032
:10452000D11230E0B11201C03260A11201C034607A
:1045300021E0911220E0E11201C02260911301C03C
:104540002460321305C081E0881223C0222309F1C0
:1045500030E0220F331FF901E35EFD4F80818111AE
:1045600003C00091FC0502C00091F405F901E35E6F
:10457000FD4F218145E06F2D8C2D99830E94B70F4F
:104580000091FC0520E045E06F2D8C2D0E94430C2E
:1045900099811F5F8CE0C80E1A3009F0C0CF0F90D0
:1045A000DF91CF911F910F91FF90EF90DF90CF900F
:1045B000BF90AF909F908F900895FF920F931F939D
:1045C000CF93DF9380910206811172C08EE28093B7
:1045D000F60581E0809302068091F4050E94591847
:1045E0000091FC052AE234E040E061E081E00E94B5
:1045F000B112C6E2D2E01EE0F12C83E0F81203C053
:104600000091F40502C00091FC05FE01389720815D
:1046100045E0612F8EE00E94B70F0091FC0520E07D
:1046200045E0612F8EE00E94430CF11003C0009121
:10463000FC0502C00091F405288145E0612F86E465
:104640000E94B70F0091FC0520E045E0612F86E451
:104650000E94430CF3942296125F84E0F812CDCFAF
:104660000091FC0528E334E040E06CE089E10E9421
:10467000B112CDE3D2E016E10091FC052991399108
:1046800040E0612F89E10E94B112195F1034A1F757
:10469000CDE2D2E018E00091FC052991399140E08B
:1046A000612F81E50E94B112195F1034A1F702C099
:1046B00010920206DF91CF911F910F91FF90089504
:1046C0008F92AF92CF92EF920F93CF93DF9300D060
:1046D0001F92CDB7DEB78091F605813021F480912D
:1046E000DE04813041F08091F605882359F08091F5
:1046F0000206811107C081E00E948D0383E00E94C1
:104700008D0378C0809102068130E1F48091DE044F
:10471000813009F06FC08091F60581508093F605D5
:104720008091F605BE016F5F7F4F0E9438040091B3
:10473000FC059E012F5F3F4F40E061E088E70E944B
:10474000B11258C040E06AE381E00E948904809180
:10475000DE04811105C08091D904882309F44AC080
:104760008090D904C090E504E090E6040091E7044D
:104770002091E8044091E9046091EA04AA24A394FA
:104780008DE00E943F228090D904C090E504E09023
:10479000E6040091E7042091E8044091E904609167
:1047A000EA04A12C89E10E943F228090D904C090A4
:1047B000DF04E090E0040091E1042091E2044091E4
:1047C000E3046091E404AA24A39485E20E943F22BA
:1047D0008090D904C090DF04E090E0040091E104EF
:1047E0002091E2044091E3046091E404A12C81E370
:1047F0000E943F220F900F900F90DF91CF910F9169
:10480000EF90CF90AF908F900895AF92CF92EF92AC
:104810000F931F93CF93DF9300D000D01F92CDB79B
:10482000DEB780E389831A821CE00091FC059E01BB
:104830002F5F3F4F40E061E0812F0E94B1128981DC
:104840008F5F8983145F143881F7A090FC05CC2416
:10485000C394EE24E39401E814E021E040E06AE12F
:1048600081E00E94BE12A090FC050AE814E021E05D
:1048700040E061E381E00E94BE125DE090E03DE037
:1048800010E0111102C0963070F40091FC0520E098
:1048900045E0632F852F3C835D839B830E94430CFF
:1048A0009B815D813C811F5F345F143051F79F5FB6
:1048B000545F9A3021F71092F605109202060F907D
:1048C0000F900F900F900F90DF91CF911F910F914C
:1048D000EF90CF90AF900895CF92DF92EF92FF923A
:1048E0000F931F93CF93DF93C82FD42F122F70E015
:1048F00080E090E00E94A42F9B01AC0160E070E09A
:1049000080E891E40E940B2F6B017C016D2F70E019
:1049100080E090E00E94A62F9B01AC01C701B60188
:104920000E946B3020E030E040E05FE30E94A42E64
:104930000E94782FD62F612F70E080E090E00E94D7
:10494000A62F9B01AC01C701B6010E946B3020E08D
:1049500030E040E05FE30E94A42E0E94782F162FE3
:10496000D61304C08091D9048130F1F40091F4058C
:1049700088E0F82EFC0ED65921E042E06F2D8D2FF5
:104980000E943D100091F4056AE06C0F21E042E0C6
:104990008D2F0E943D100091FC0523E042E06F2D19
:1049A0008AE6810F0E943D10DF91CF911F910F91F8
:1049B000FF90EF90DF90CF9008950F931F93CF93C8
:1049C000DF938091DD04813029F08091D90481301A
:1049D00009F053C0C2E7D1E081E02091E104998160
:1049E000291305C02091E0049A81291721F08F5FD7
:1049F0002796843091F79091F3059817F1F1809301
:104A0000F30588818823D9F06B817C8180E00E9446
:104A10004910182F6D817E816115710521F080E0AC
:104A20000E944910180F21E830E0211B310937FF9F
:104A300002C02F5F3F4F35952795122F01C012E01E
:104A40000091F40527E040E860E080E00E943D101E
:104A50000091FC052B813C8140E061E0812F0E94A8
:104A6000B112810F2D813E812115310531F0009168
:104A7000FC0540E061E00E94B112DF91CF911F91EF
:104A80000F9108950F93CF93DF93C82F8D7F8431BB
:104A900029F0CA3019F0CD3091F535C00091FC05F0
:104AA00022E241E067E188E00E943D100091FC05B0
:104AB00021E043E568E389E00E943D10D8E14091A0
:104AC000FC056D2F87E00E94F60DDB5FDB33B9F745
:104AD000C43181F44091FC0569E385E20E94F60D42
:104AE0004091FC0569E380E40E94F60DCAE3D0E141
:104AF00088E412C0CA3049F0C63169F606C0C83130
:104B000041F4CBE307C0CAE305C0CAE3DDE08BE4B0
:104B100003C0C6E3DAE08EE40091FC052AE032E04F
:104B200040E06C2F0E94B1120091FC052EE032E0B3
:104B300040E06C2F8CE20E94B1120091FC0522E152
:104B400032E040E06C2F8D2F0E94B112DF91CF91A7
:104B50000F9108954F925F926F927F928F929F92E2
:104B6000AF92BF92CF92DF92EF92FF920F931F937B
:104B7000CF93DF9300D000D0CDB7DEB7182FD62E5D
:104B8000F02EBC2C0F89622F70E080E090E04C8307
:104B90000E94A62F2B013C014C81642F70E080E025
:104BA00090E00E94A42F9B01AC01C301B2010E94BE
:104BB0000B2F2B013C016E2D70E080E090E00E94F5
:104BC000A62F9B01AC01C301B2010E946B3020E013
:104BD00030E040E05FE30E94A42E0E94782F962EE2
:104BE0006C2D70E080E090E00E94A62F9B01AC014C
:104BF000C301B2010E946B3020E030E040E05FE38F
:104C00000E94A42E0E94782F762E6D2C661A961282
:104C100004C08091D904813021F521E0270D0530B1
:104C2000B9F40091FC054F2D662D812F0E94401490
:104C300081E08715B0F4C090FC0525E0E22E00E08D
:104C40002FEF270D4EEF4F0D61E0660D810F07C06E
:104C5000C090FC05E02E01E04F2D662D812F0E94B3
:104C6000350EBE016F5F7F4F8B2D0E94380400917F
:104C7000FC05E62CE80C9E012F5F3F4F41E06E2DB6
:104C8000812F8A0D0E94B1120091F4056FEF660D1D
:104C900021E04F2D812F0E943D100091F405B82C8A
:104CA000B0942B2D4A2D6E2D812F0E943D10009126
:104CB000F4054FEF4A0D8F2D8A198F5F2B2D6E2D26
:104CC000810F0E943D10791458F40091F405292DAC
:104CD00027196D2D680D69194F2D812F0E943D10E8
:104CE0000F900F900F900F90DF91CF911F910F9128
:104CF000FF90EF90DF90CF90BF90AF909F908F90FC
:104D00007F906F905F904F9008950F93CF93DF93B4
:104D1000EC01623001F50091F40520E344E660E126
:104D200080E00E943D100091FC059E0140E069E09A
:104D300082E00E94B112282F30E0213331050CF0BF
:104D400061C00091F40541E3481B25E069E08E5FF6
:104D50000E943D1057C00091FC0521E040E867E04B
:104D600080E00E943D100091FC0521E040E86FE0EA
:104D700080E00E943D100091FC0529E341E067E0DE
:104D800085E60E943D108FEF8093F3050E94DD249D
:104D90000091FC059E0140E069E082E00E94B112B2
:104DA0000091FC052FE834E040E069E088E60E94CD
:104DB000B112C2E1D0E022E132E00091FC0540E016
:104DC0006C2F89E60E94B1120091FC0527E046E1B4
:104DD00066E06C0F88E60E9440140091FC0521E01B
:104DE00042E169E06C0F8AE60E943D10DF5FD3303C
:104DF00049F0D13019F02AE032E002C02EE032E072
:104E0000C15FDBCFDF91CF910F91089541E069E061
:104E100083E30E9489048091DE04811104C08091A3
:104E2000D9048823C9F10E94DD249091E704809180
:104E3000EA04981304C08091D904813041F4209190
:104E4000E7044091EA046BE380E30E946C249091B4
:104E5000E6048091E904981304C08091D90481305C
:104E600041F42091E6044091E9046BE381E20E9461
:104E70006C249091E5048091E804981304C080911B
:104E8000D904813059F42091E5044091E80467E1A8
:104E900082E10E946C2402C080E0089581E00895C0
:104EA0003F924F925F926F927F928F929F92AF92BA
:104EB000BF92CF92DF92EF92FF920F931F93CF9307
:104EC000DF93CDB7DEB728970FB6F894DEBF0FBEDD
:104ED000CDBF782EF42E122FB02E70E080E090E03F
:104EE0000E94A62F28E339EA4BEF5EE30E946B3065
:104EF00020E030E040E05FE30E94A42E0E94782F83
:104F0000862E6F2D70E080E090E00E94A62F28E3AF
:104F100039EA4BEF5EE30E946B3020E030E040E086
:104F20005FE30E94A42E0E94782F962E612F70E0DE
:104F300080E090E00E94A62F28E339EA4BEF5EE381
:104F40000E946B3020E030E040E05FE30E94A42E3E
:104F50000E94782F562E602F70E080E090E00E9433
:104F6000A62F28E339EA4BEF5EE30E946B3020E086
:104F700030E040E05FE30E94A42E0E94782F462E8E
:104F8000851428F4652C681816E3151904C0682CDC
:104F9000651816E31819611002C06624639494140E
:104FA00030F4342C3918E6E3DE2ED41805C0392C41
:104FB000341876E3D72ED918311002C03324339435
:104FC000891006C0541004C08091D904813081F446
:104FD000BF1418F400E083E002C001E082E0C0905A
:104FE000FC05E82E232D4DE06D2D872D0E94350EFA
:104FF000BF18B7FE04C08DE2898321E001C020E024
:105000008B2D992787FD909597FF03C091958195EA
:105010009109382F8A3064F0E1E0F0E0EC0FFD1FD9
:10502000E20FF11D6AE00E942431805D80832F5FD2
:10503000E1E0F0E0EC0FFD1FE20FF11D832F6AE0CD
:105040000E942431905D90832F5FE1E0F0E0EC0F4F
:10505000FD1FE20FF11D1082B22EBB0CBB0CBA94E7
:105060000091FC054DE0E42EF12CEB18F108F594CD
:10507000E794A72CAE0C9E012F5F3F4F40E06AEFF4
:10508000F62EFD0C6F2D8A2D0E94B1120091F405B1
:1050900026E04E2D6F2D872D0E943D100091F405C6
:1050A00026E04E2D6F2D8A2D8B0D0E943D1089100C
:1050B00003C0541409F468C00091F40521E04DE0E8
:1050C0006FEF6D0D872D0E943D10A12EB12C862D06
:1050D00090E09E838D838D2D90E098878F831D15A2
:1050E000E0F49C01265031098D819E818A0D9B1D23
:1050F000821793071CF426E0260D02C02D2D211BDC
:10510000222359F0C090FC0535E0E32E02E04DE08B
:105110006AEF610F872D0E94350E85100FC0941421
:1051200068F489100BC0C090FC0595E0E92E02E000
:1051300021E04DE0612F872D0E94350E8F819885EB
:10514000830D911D2D813E812A0D3B1D82179307F2
:10515000DCF425E0A21AB1088A159B0534F0632D12
:105160006D0D262D210F261B04C026E0260D6AEFAB
:10517000610F222349F0C090FC0585E0E82E02E093
:105180004DE0872D0E94350E28960FB6F894DEBFAD
:105190000FBECDBFDF91CF911F910F91FF90EF9088
:1051A000DF90CF90BF90AF909F908F907F906F9047
:1051B0005F904F903F9008958F92AF92CF92EF9271
:1051C0000F930E940627882309F48AC09091E70470
:1051D0008091EA04981304C08091D904813091F43D
:1051E000C090E704E090EA0485E08F9388EF882E72
:1051F00092E0A92E0FE02DE14BE366E389E40E94E3
:10520000AA250F909091E6048091E90498130AC0B2
:105210009091E7048091EA04981304C08091D90426
:10522000813059F40091E7042091EA044091E604AA
:105230006091E9048BE30E9450279091E6048091ED
:10524000E904981304C08091D904813091F4C0908E
:10525000E604E090E90485E08F93B8EF8B2E02E03E
:10526000A02E0FE02DE14BE366E38BE20E94AA251E
:105270000F909091E5048091E80498130AC09091F2
:10528000E6048091E904981304C08091D904813028
:1052900059F40091E6042091E9044091E5046091FD
:1052A000E8048DE10E9450279091E5048091E80484
:1052B000981304C08091D904813091F4C090E50422
:1052C000E090E80485E08F93F8EF8F2EA2E0AA2EFD
:1052D0000FE02DE14BE366E38DE00E94AA250F90DD
:1052E0000F91EF90CF90AF908F900895682F8AEA3A
:1052F00094E00E9485268AE00C9442258F929F922A
:10530000AF92BF92CF92DF92EF92FF92CF93DF9353
:10531000C82F70E080E090E00E94A62F2BED3FE0C8
:1053200049E45FE30E946B3024EE3BEC46E150E43D
:105330000E94A32E6B017C010E94CE304B015C01C8
:10534000C701B6010E94082FF090FC05905826E690
:1053500036E646E551E40E946B300E94732FD62F4B
:10536000DC5D26E636E646E551E4C501B4010E945F
:105370006B300E94732F862F4F2D6D2F8C0FDF9176
:10538000CF91FF90EF90DF90CF90BF90AF909F9024
:105390008F900C94F60D7F928F929F92AF92BF9256
:1053A000CF92DF92EF92FF920F931F93CF93DF93F1
:1053B00000D01F92CDB7DEB7182FA62EB42E70E006
:1053C00080E090E00E94A62F2CE739ED40EA5DE3F3
:1053D0000E946B3024EE3BEC46E150E40E94A32E89
:1053E0006B017C010E94CE3026E636E646E551E4AC
:1053F0000E946B300E94732F962EC701B6010E9447
:10540000082F905826E636E646E551E40E946B30B8
:105410000E94732F862E6B2D70E080E090E00E943A
:10542000A62F2CE739ED40EA5DE30E946B3024EEB5
:105430003BEC46E150E40E94A32E6B017C010E94EC
:10544000CE3026E636E646E551E40E946B300E94F7
:10545000732F762EC701B6010E94082F905826E6BA
:1054600036E646E551E40E946B300E94732FF62E1B
:10547000971006C0861204C08091D9048130F1F4DF
:105480000091F40524E2280D492D410F64E2812F9B
:105490000E9474100091FC0524E22F0D472D410F4E
:1054A00064E2812F0E9474108A2D6AE00E941831F4
:1054B000911104C0682F812F0E947E29BE016F5F69
:1054C0007F4F8B2D0E9438040091FC059E012F5FB9
:1054D0003F4F41E06AE28BEF810F0E94B1120F90C3
:1054E0000F900F90DF91CF911F910F91FF90EF9050
:1054F000DF90CF90BF90AF909F908F907F90089556
:105500000E940627882399F19091E7048091EA048C
:10551000981304C08091D904813039F44091E70494
:105520006091EA0483E50E94CB299091E604809182
:10553000E904981304C08091D904813039F4409172
:10554000E6046091E90482E30E94CB299091E5048E
:105550008091E804981304C08091D904813039F413
:105560004091E5046091E80481E10C94CB29089511
:105570000F93CF93DF93682F82EB94E00E948526F0
:10558000C1E10091FC0520E04FE064E28C2F0E9415
:10559000430CD0E06D2F8C2F0E947E29DF5FD73027
:1055A000C9F7CF5DC43769F78BE0DF91CF910F91D9
:1055B0000C944225AF92BF92CF92DF92EF92FF926E
:1055C0000F931F93CF93DF93182FA62ED22EF02E7A
:1055D000642F70E0882777FD8095982F1230E0F4D3
:1055E0000E94A62F2AE939E949E95EE30E946B305F
:1055F00020E030E040E850E40E94A42E9B01AC0182
:10560000C62EE32E082FC52F111118C00E94782F27
:10561000D62FDC5CC7E237C00E94A62F20E030E026
:1056200040E45FE30E946B3020E030E040E850E46B
:105630000E94A42EC62EE72E082FC92F2FEF3FEF72
:105640004FEF5EE36C2D7E2D802F9C2F0E946B30E0
:105650000E94782FD4E3D61B28ED33EB4DE55FE3B2
:105660006C2D7E2D802F9C2F113039F40E946B30D1
:105670000E94782FC62FC95D06C00E946B300E9421
:10568000782FC7E2C61B6D2D70E081E08A15F8F017
:10569000882777FD8095982F0E94A62F2AE939E95F
:1056A00049E95EE30E946B3020E030E040E850E4DE
:1056B0000E94A42EAC016B01E82E052FA1101CC086
:1056C0000E94782FB62E84E3B80E67E23CC088278C
:1056D00077FD8095982F0E94A62F20E030E040E4CF
:1056E0005FE30E946B3020E030E040E850E40E942D
:1056F000A42E6B01E82E092F2FEF3FEF4FEF5EE353
:10570000B6018E2D902F0E946B300E94782F84E37B
:10571000B82EB61A81E028ED33EB4DE55FE3B60114
:10572000A81208C08E2D902F0E946B300E94782FF7
:10573000695D09C08E2D902F0E946B300E94782FDA
:10574000862F67E2681B0F2D123058F42C2F4D2F37
:105750008B2D0E94741011110BC00F2D2C2F4AE4B9
:105760000FC0262F4B2D6C2F8D2F0E94741005C05B
:10577000113019F40F2D2AE302C00F2D24E14AE263
:105780006C2F8D2F0E947410DF91CF911F910F917C
:10579000FF90EF90DF90CF90BF90AF9008950F9360
:1057A0001F93CF93DF9300D01F92CDB7DEB70E9437
:1057B0000627882309F4D6C09091E7048091EA0473
:1057C000981304C08091D904813089F48091E70452
:1057D000BE016F5F7F4F0E9438040091FC059E015F
:1057E0002F5F3F4F41E061E28FE40E94B112909140
:1057F000E6048091E904981304C08091D9048130B3
:1058000089F48091E604BE016F5F7F4F0E943804E7
:105810000091FC059E012F5F3F4F41E061E380E175
:105820000E94B1129091E5048091E804981304C09D
:105830008091D904813089F48091E504BE016F5FC5
:105840007F4F0E9438040091FC059E012F5F3F4F5F
:1058500041E061E180E10E94B1129091E704809102
:10586000EA04981799F19091E6048091E90498135D
:105870002DC09091E5048091E804981327C0809191
:10588000D904811123C06091EA040091E70470E01B
:1058900080E090E00E94A62F2AE939E949E95EE319
:1058A0000E946B300E94782F162F602F70E080E0EE
:1058B00090E00E94A62F2AE939E949E95EE30E94B7
:1058C0006B300E94782F161709F44CC00091F40534
:1058D0002091E9044091EA0461E080E00E94DA2A24
:1058E0000091F4052091E8044091E90462E081E030
:1058F0000E94DA2A0091F4052091EA044091E8041C
:1059000060E082E00E94DA2A0091FC052091E60422
:105910004091E70461E080E00E94DA2A0091FC05F2
:105920002091E5044091E60462E081E00E94DA2AD9
:105930000091FC052091E7044091E50460E082E0DD
:105940000E94DA2A0091FC0523E04AE067E284E342
:105950000E94430C0091FC0521E040E167E284E3F2
:105960000E94430C0F900F900F90DF91CF911F91E9
:105970000F9108950F93682F8DEB94E00E94852678
:105980000091FC0520E046E167E284E30E94430CBD
:105990000091FC052AE032E040E069E28FE40E94D9
:1059A000B1120091FC052EE032E040E069E38FE0A7
:1059B0000E94B1120091FC0522E132E040E069E171
:1059C0008EE00E94B1124091FC0567E284E30F91E2
:1059D0000C94F60DEF92FF920F931F93CF93DF93EA
:1059E000C82FF62E842FE22E1091FC050091FC05A5
:1059F0000E9418319CE0899FD02D1124D75E25E0AC
:105A000045E06D2F8C2F0E94B70F0091FC0520E020
:105A100045E06D2F8C2F0E94430C8E2D6F2D0E9420
:105A20001831882339F0813039F4C0FD07C0109156
:105A3000F40504C023E003C022E001C021E0DCE063
:105A40008D9FD02D1124D75E012F45E06D2F8C2F17
:105A50000E94B70F0091FC0520E045E06D2F8C2FD0
:105A60000E94430CDF91CF911F910F91FF90EF9017
:105A700008950E940627882309F44CC08091E7040A
:105A80004091EA0424E1622F0E941831382F842FBC
:105A90000E941831381304C08091D904813041F438
:105AA0002091E7044091EA0464E183E50E94EA2C36
:105AB0008091E6044091E90424E1622F0E941831AC
:105AC000382F842F0E941831381304C08091D904D4
:105AD000813041F42091E6044091E90464E182E3DD
