:100000000C946F020C948C020C948C020C9460067D
:100010000C948C020C948C020C948C020C948C0228
:100020000C948C020C94741B0C948C020C94011A8A
:100030000C948C020C94131A0C9418190C948C02C6
:100040000C948C020C948C020C948C020C948C02F8
:100050000C948C020C94C2050C948C020C948C02AF
:100060000C94D5160C948C0205A84CCDB2D44EB984
:100070003836A9020C50B9918688083CA6AAAA2A4B
:10008000BE000000803F49922449249200010205ED
:100090000A0F121617191B1E212326272A2D30336B
:1000A00036393C3F424548494B4D505255595C5FAB
:1000B000626567696C6F707275777C8083868A8DE4
:1000C000909396999EA1A4A7A9ACAEB1B4B6B9BAC3
:1000D000BDC12037630003AA1F0A1F0AA2151F15FE
:1000E000087904138A151208234E11510E6A040A66
:1000F000640E045008640404307804037F111F72F6
:100100001F107D151775151F67041F77151D7F15A7
:100110001D611D037F151F77151F2A500A440A6AA7
:100120000A0A4A046115028815190E7E051E7F15FC
:100130000A6E11117F110E5F155F056E111D7F0490
:100140001F3F500F7F041B5F10BF0204021F9F025E
:10015000041F6E110E7F05028E1109167F051A729B
:100160001509611F017F101F6F100FAF100C100FCA
:100170007B041B631C037915135F11630418511F63
:100180006201027010104102641F113F711F04844C
:10019000150E04840E1504000000000000005F002E
:1001A000000007000700147F147F14242A7F2A12FE
:1001B00023130864623649552250000503000000ED
:1001C0001C2241000041221C00082A1C2A080808A1
:1001D0003E08080050300000080808080800606069
:1001E000000020100804023E5149453E00427F4075
:1001F0000042615149462141454B311814127F108C
:1002000027454545393C4A494930017109050336BE
:1002100049494936064949291E003636000000562C
:10022000360000000814224114141414144122143E
:1002300008000201510906324979413E7E1111112F
:100240007E7F494949363E414141227F4141221C3E
:100250007F494949417F090901013E414151327FAE
:100260000808087F00417F41002040413F017F088E
:100270001422417F404040407F0204027F7F0408F7
:10028000107F3E4141413E7F090909063E4151210F
:100290005E7F09192946464949493101017F01011B
:1002A0003F4040403F1F2040201F7F2018207F6399
:1002B00014081463030478040361514945430000A2
:1002C0007F4141020408102041417F0000040201E7
:1002D00002044040404040000102040020545454B5
:1002E000787F484444383844444420384444487F64
:1002F0003854545418087E090102081454543C7FA1
:100300000804047800447D40002040443D00007F04
:1003100010284400417F40007C041804787C0804C5
:10032000047838444444387C14141408081414180D
:100330007C7C080404084854545420043F44402062
:100340003C4040207C1C2040201C3C4030403C4431
:10035000281028440C5050503C4464544C4400082D
:1003600036410000007F0000004136080008082ADE
:100370001C08081C2A08085A100105010000000882
:1003800000090F0A1E0B2D000E0E1D0E1D2B0F3A1D
:100390000E2B0F480A520F610A520F000E0E1D0E4F
:1003A0001D6B0E790D6B0E8610030303030303030D
:1003B0000303030603030603030303060303030304
:1003C00003030303030303030303030303030303FD
:1003D00003030306060303030303030303030303E7
:1003E00003030306030303030303030303030303DA
:1003F000060603030303060303060C0303030303B8
:1004000003030303030303030306030303030303B9
:1004100003030C0C03030303060303030303030397
:100420000306040404040404030303030303060390
:1004300003030304040403030303030C0C0C0C92D6
:1004400092009200749200AE000057000074000009
:10045000570049000062006E006862005792AEC407
:10046000009BAE00920074826E0000AEA49B8A00D6
:1004700092005C62740062748200AEA49B8A009257
:1004800000E800E8E80000008A0000820074000034
:10049000007474007400748200927400625700004B
:1004A0007474007400748292000092740057005CAF
:1004B00000629B009B6200006EC4C4C4AE9B927439
:1004C00000625700006E9B009B9B9282744900491A
:1004D0003A00000000050203010103020500112497
:1004E0001FBECFEFD8E0DEBFCDBF14E0A0E0B1E08B
:1004F000E4EDFFE502C005900D92A03BB107D9F7EE
:1005000025E0A0EBB4E001C01D92AD3EB207E1F7DB
:100510000E94C52B0C94E82F0C9400008091C40419
:100520008093C7048091C3048093C6048091C20461
:100530008093C5048091BE048093C1048091BD0462
:100540008093C0048091BC048093BF0408951F93DE
:10055000CF93DF939091B004C0910001D09101013D
:1005600028E0929FC00DD11D11242E813F81232BA5
:1005700049F0182F0E94520FEE81FF81812F0995BB
:1005800081E001C080E0DF91CF911F9108950F932A
:100590001F93CF939091B00400910001109101013D
:1005A00028E0929F000D111D11249091B2059093A7
:1005B000B8049091B1059093B7049091AD059093D4
:1005C000B6049091AC059093B5049091B3059093C7
:1005D000BB049091BB049130A9F59091E7059093ED
:1005E000C4049091E8059093C3049091E905909319
:1005F000C2049091EA059093BE049091EB0590930C
:10060000BD049091EC059093BC042091BE049091A0
:10061000C10429130CC02091BD049091C00429137A
:1006200006C02091BC049091BF04291719F091E0F5
:100630009093BA042091AA053091AB053093B4048D
:100640002093B304D8019C91992309F451C0C82F79
:100650000E94520FC330D1F58091A905813059F421
:100660009091D905913089F08093D9058093B90490
:100670001092C8040AC08091D905823031F082E01E
:100680008093D90581E08093B904D8011496ED9147
:10069000FC91159709958091BB04813011F40E945B
:1006A0008E028091B804813021F41092B804109227
:1006B000B2058091B604813021F41092B6041092F4
:1006C000AD051092B9041092B10412C0C13021F4EA
:1006D0001092D9050E94A3150E948E0281E080939A
:1006E000B104D8011296ED91FC9113978C2F0995C6
:1006F0008091BB04813031F41092BB041092BA0493
:100700001092B305CF911F910F9108958091B0047D
:100710008F5F8093B0048091B004893010F0109204
:10072000B0048091B004E0910001F091010198E0E3
:10073000899FE00DF11D112481810895FB016AE07C
:100740000E944F2F805D8083905D91831282089577
:10075000FF920F931F93CF93DF9300D000D0CDB7BC
:10076000DEB7082FF62E0E94520FE091BD04F0E094
:10077000EE0FFF1FEA5AFE4F2081318140E06F2DBE
:10078000802F0E94DA13182F80E289838091BE04A3
:10079000BE016E5F7F4F0E949E039E012F5F3F4F01
:1007A00040E06F2D802F810F0E94DA13180F173150
:1007B00060F40E944D0F47E1411B25E06F2D802F13
:1007C000810F0E9482110E94520F0F900F900F9084
:1007D0000F90DF91CF911F910F91FF900895AF92ED
:1007E000BF92DF92EF92FF920F931F93CF93DF930D
:1007F00000D000D000D0CDB7DEB7182F062FF42ED2
:1008000082E048130EC08091BA04813029F08091B3
:10081000B104813009F0F9C0602F812F0E94A80334
:10082000F4C08091B704813009F08DC08091B2048A
:10083000EE24E394982F9870D92E83FFE12C8091B9
:10084000B504811104C08091C8048E1115C0809137
:10085000B504813021F48091BB04813069F080912E
:10086000B604813049F08091B804813029F080913C
:10087000B104813009F064C08091B5048130C1F4C5
:100880008091B3049091B4042CE3A22EB12CB50155
:100890000E94692F862FBE016F5F7F4F0E949E03CB
:1008A0008091B3049091B404B5010E94692F09C0EE
:1008B0008091D705BE016F5F7F4F0E949E0380919C
:1008C000DD05BE016C5F7F4F0E949E038AE38B8330
:1008D000D11004C08091B504813019F40E94520FE8
:1008E00002C00E944D0F27E043E16FEF600F8FEFD2
:1008F000810F0E944F15D11004C08091B504813042
:1009000019F40E944D0F02C00E94520F9E012F5FEA
:100910003F4F40E0602F812F0E94DA13D82E81E0F4
:10092000F8120EC08091B904813051F40E944D0F2D
:1009300047E14D1925E0602F812F8D0D0E94821116
:10094000E092C80460C08091B904813049F0809180
:10095000BA04813029F08091B804813009F053C085
:100960001092C8048091D9058130E1F58091B904D5
:10097000813029F08091B804813009F044C00E9490
:100980004D0F27E043E16FEF600F8FEF810F0E9463
:100990004F150E94520F8091D705BE016F5F7F4FA8
:1009A0000E949E038AE38B838091DD05BE016C5F0C
:1009B0007F4F0E949E039E012F5F3F4F40E0602FBC
:1009C000812F0E94DA13E82E91E0F9121CC00E94D8
:1009D0004D0F47E14E1925E0602F812F8E0D0E94AB
:1009E000821111C00E944D0F27E043E16FEF600FAD
:1009F0008FEF810F0E94821181E0F81204C0602FF6
:100A0000812F0E94A8030E94520F26960FB6F894D9
:100A1000DEBF0FBECDBFDF91CF911F910F91FF9031
:100A2000EF90DF90BF90AF9008952AE332E041E06D
:100A30006EE081E20E94DA1325E432E041E06EE1EB
:100A400082E10E94DA132FEF8DE399E42150804078
:100A50009040E1F700C0000064E686EA9EE00E9454
:100A6000BB1A64E680EA9FE00C94BB1ACF93DF9335
:100A7000E82FF0E0242F30E02053384F833018F473
:100A80003C962150310970E06F5F7F4F620F731FFA
:100A9000EF01CC0FDD1FC60FD71FA9015695479553
:100AA00056954795C40FD51FC90160E971E00E94B2
:100AB000692FC60FD71FC90164E670E00E94692F35
:100AC0009E01261B370B319646E04E9FC0014F9F7B
:100AD000900D11246AE070E00E94692FC901860F11
:100AE000971F67E070E00E94692FDF91CF91089512
:100AF0009C0183709927892B39F4C90164E670E061
:100B00000E94692F892B61F4C90160E971E00E949C
:100B1000692F9C0191E0232B09F090E0892F089523
:100B200081E0089580917A00877F80937A00809198
:100B30007A00806480937A0080917A0084FFFCCFF1
:100B400080917800909179000895EAE7F0E0808143
:100B500088648083089526982E9A81E080936800A7
:100B6000EBE6F0E080818064808382E080937C000B
:100B700010927B00EAE7F0E08FE880838081806458
:100B8000808308951F920F920FB60F9211242F9316
:100B90003F934F935F936F937F938F939F93AF9305
:100BA000BF93EF93FF9378948091780090917900B0
:100BB000803E22E0920770F01092CD041092CF0494
:100BC0008091CA04813021F48093C9041092CA0430
:100BD00084E163C0833622E0920770F18091CF04F4
:100BE00082FD5AC08FE19EE40197F1F700C000003A
:100BF0000E949205825692408E37910508F04CC0B3
:100C00008AEF8093CB048091CB04882369F00E9403
:100C10009205825692408E379105A8F31092CF0428
:100C200084E08093CE0438C01092CE0484E0809398
:100C3000CF048093CD0430C08F309140B0F08091CC
:100C4000CF0481FD10C08FE19EE40197F1F700C051
:100C500000000E9492058E50914085359140E0F44D
:100C600082E08093CE0482E013C08091CF0480FDA7
:100C70000EC08FE19EE40197F1F700C000000E94D2
:100C800092058F30914040F481E08093CE0481E062
:100C90008093CF041092CD0482E08093CC04FF9126
:100CA000EF91BF91AF919F918F917F916F915F91E4
:100CB0004F913F912F910F900FBE0F901F9018955D
:100CC0001F920F920FB60F92112478940F900FBEBF
:100CD0000F901F9018959091C904913021F41092B3
:100CE000D2041092C9049091CD04992369F091E047
:100CF0009093CA049091D2049A3020F49F5F90930D
:100D0000D20404C08E5F03C01092D2048F5F0E9491
:100D10004F2F892F08950F931F93CF93DF938C014B
:100D2000EB0166E080E00E940319C8010E940516ED
:100D3000209759F067E080E00E940319CE01DF910F
:100D4000CF911F910F910C940516DF91CF911F91B8
:100D50000F9108950F931F93CF93DF938C01EB01B5
:100D600066E080E00E94031988EA92E00E9405167E
:100D7000C8010E94051667E080E00E9403198BEB12
:100D800092E00E940516CE010E9405168B8181110A
:100D900008C089E393E0DF91CF911F910F910C94EC
:100DA0000516DF91CF911F910F910895CF93DF9397
:100DB00062E080E50E940319C2E7D1E08A810E94C7
:100DC000EE158AE30E94C21589810E94EE158AE31E
:100DD0000E94C2158881DF91CF910C94EE150F937C
:100DE0001F93CF93DF93082FC62F142FD22F63E0CA
:100DF00088E00E9403198DEC92E00E940516402FB6
:100E0000612F8C2F0E943605E82FF0E0EE0FFF1FB8
:100E1000E65BFE4F808191810E940516D73311F465
:100E20000E944D0FEC2FF0E0EE0FFF1FEA5AFE4F2D
:100E3000808191810E9405160E94520F80E20E94DB
:100E4000C215812FD83319F40E94FB1502C00E94ED
:100E5000EE158CE20E94C215D93311F40E944D0F99
:100E600084E10E94EE15802F0E94EE15DF91CF9154
:100E70001F910F910C94520FCF93C82F64E088E01C
:100E80000E94031983ED92E00E9405168091D60519
:100E900081110AC089E393E00E9405168C2F0E94FD
:100EA0004A0F81EE92E005C08C2F0E944A0F88EE17
:100EB00092E00E940516CF910C94520FCF92DF92D0
:100EC000EF920F93CF93DF93EC016B0160E080E032
:100ED0000E9403190E94520F80EF92E00E940516B3
:100EE00085E0E82E02E028E042E060E08EE70E9424
:100EF0008A0F61E088E00E94031986E093E00E9477
:100F0000051662E088E00E9403198BE193E00E94DD
:100F100005160E94D606E2E7F1E0438164818581EF
:100F200022E00E94EF068091DE050E943C0765E00A
:100F300088E00E94031988E293E00E9405168091E0
:100F4000B4000E94EE15B601CE010E948B0620E18E
:100F500042E060E38EE70E948A0F28E248E068E002
:100F600080E00E948A0FDF91CF910F91EF90DF9088
:100F7000CF900895CF93C82F21E047E0682F80E0FD
:100F80000E9482116FEF6C0F23E041E085E00E9428
:100F90004F156EEF6C0F25E041E084E0CF910C948B
:100FA0004F158091CD04882349F02FE789EA93E01B
:100FB000215080409040E1F700C000000895CF9399
:100FC0008091CE048093D1041092CE0480FD2DC078
:100FD00081FF03C01092D20406C0811104C0809129
:100FE000CD04882321F08AE08093D00404C080914E
:100FF000D0048823D1F0909172018091D404981785
:1010000039F081E08093D304809172018093D404FD
:10101000C091D504C1110BC08091D304813041F43B
:101020001092D3040E94D60603C0C1E001C0C0E004
:101030008C2FCF910895BF92CF92DF92EF92FF92C3
:101040000F931F93CF93DF9300D000D0CDB7DEB7BF
:101050000E94A315809172018093D4041092D3044E
:101060001092D5041FEF6AE0D62E143031F06BE3F6
:1010700073E081E593E00E945E07D092D004109265
:10108000CE041092D204123009F493C290F41123CA
:1010900009F448C1113009F048C31091750100915D
:1010A0007601E09077018BE10E94BA0742E0F42ECE
:1010B000E3C1133009F4CCC21F3F09F036C38BE003
:1010C0000E94BA070E94DF07813009F41EC3809195
:1010D000D10481FFF7CF81E08093D5041FEFD09238
:1010E000D0041092D204143031F01F3F39F40E9422
:1010F000A31510E004C01092D50407C31F5FF09041
:10110000B00560E080E00E9403190E94520F87E65C
:1011100093E00E94051601E0602F88E00E94031909
:1011200088E793E00E940516802F0E94EE158FE756
:1011300093E00E940516AE014F5F5F4FBE016E5FE8
:101140007F4F8FEF800F0E94651A8A810E94EE15F3
:101150008AE30E94C21589810E94EE150F5F053057
:10116000D9F665E088E00E94031987E893E00E94C1
:1011700005168091B0058F5F0E94EE1555E0E52EB3
:1011800002E028E247E068E080E00E948A0F6BE31B
:1011900073E0143019F081E593E002C08AE993E02E
:1011A0000E948B06812F880F880F880F855F0E9411
:1011B000BA07143049F0AE014D5F5F4FBE016C5F5E
:1011C0007F4F812F0E94651A00E0BB24B394B10EBB
:1011D0000E94DF07813009F4A0C08091D10481FF13
:1011E0004DC0011119C0143079F465E084E70E9404
:1011F000031981E08F0D0E94FB1560EB73E0CB01BA
:101200000E94AA0603E33AC064EB73E089EB93E023
:101210000E94AA0604E332C0043339F46DEB73E094
:10122000CB010E94AA0605E329C00333A1F465E0BF
:1012300084E70E94031981E08F0D0E94EE156F2D47
:1012400087E090E00E94DA2FF092B0056BE373E044
:101250008AE993E009C04B816C81812F0E948A1A30
:101260006BE373E081E593E00E948B064DED55E062
:1012700067ED75E08F2D0E94651A00E08091D10422
:1012800082FD04C08091CD04882309F1033371F4F9
:10129000F39483E08F1508F4F12C65E084E70E9455
:1012A000031981E08F0D0E94FB1511C0043341F436
:1012B0008C818F5F8C838C81883148F01C8207C0C1
:1012C000053329F48B816CE30E946B068B8380913C
:1012D000D104811104C08091CD048823D9F0143049
:1012E000C9F0EB80CC806B2D82E60E9403198C2D17
:1012F000043319F40E94FB1502C00E94EE158AE324
:101300000E94C2158E2D053319F40E94FB1502C0F0
:101310000E94EE150E94D1075BCF8091D00481110D
:10132000DECEF3C183E10E94BA07E12CF12C00E08C
:1013300011E0BB24B3940E94DF07813021F41092A6
:10134000D50411E0E5C18091D10481FF35C0B09290
:10135000D504113071F400917401F0907301E090A4
:10136000720164EB73E089EB93E00E94AA0614E338
:1013700023C0143339F46DEB73E0CB010E94AA064D
:1013800015E31AC0153339F461EC73E0CB010E9408
:10139000AA0616E311C06BE373E081E593E00E94B7
:1013A0008B0600937401F0927301E09272010E9427
:1013B000441C1092D50411E0C090D104C2FC04C0BA
:1013C0008091CD048823C1F0143331F40F5F0831CC
:1013D00008F4A3C100E0A1C1153331F46CE38F2DF3
:1013E0000E946B06F82E18C01633B1F46CE38E2DF4
:1013F0000E946B06E82E10C0C11004C08091CD047D
:10140000882349F162E080E50E940319143351F406
:10141000802F0E94FB1509C0CC2081F362E080E59B
:101420000E940319802F0E94EE158AE30E94C215C4
:101430008F2D153319F40E94FB1502C00E94EE1582
:101440008AE30E94C2158E2D163319F40E94FB15F3
:1014500002C00E94EE150E94D1076DCF8091D10489
:1014600081FD0FC08091D10482FD44C08091CD04E4
:10147000811140C00E94D1070E94DF07813071F7BF
:1014800046C182E0F81208C065EC73E0CB010E940F
:10149000AA0637E3F32E27C087E3F81208C069ECE9
:1014A00073E0CB010E94AA0628E3F22E1CC088E359
:1014B000F81209C06DEC73E082ED93E00E94AA0679
:1014C00099E3F92E10C06BE373E081E593E00E948D
:1014D0008B06E092770100937601109375010E94CC
:1014E000441C82E0F82E2F2D412F602F8E2D0E945C
:1014F000EF06B8CF89E3F81211C064E68E2D0E9482
:101500006B06E82E90E00E94780581114BC00230F6
:1015100009F048C01D3108F445C03FC087E3F81208
:101520001EC081E0800F8D30B0F5823069F41E312D
:1015300008F01DE18E2D90E00E94780502E08111F7
:1015400031C01D3151F12EC0843029F0863019F0A0
:101550000D7F083021F51F3110F11EE120C088E316
:10156000F81220C01F5F1032E0F4023059F41E312F
:10157000C0F48E2D90E00E947805811113C01D31BA
:1015800081F010C0802F8D7F843011F0893051F4AC
:101590001F3139F007C001E005C01CE103C0082F6E
:1015A00001C011E02F2D412F602F8E2D0E94EF06DC
:1015B00061CF83E20E94BA0713E00E94DF07813007
:1015C00041F46091D60586E090E00E94DA2F13E0A6
:1015D0009FC08091D10481FF19C0133061F48091C4
:1015E000D6050E943C0766ED73E08CEE93E00E9406
:1015F0008B061AE30BC08091DE050E943C076BE36B
:1016000073E081E593E00E948B0613E08091D104A2
:1016100082FD04C08091CD048823B9F01A33A9F467
:101620008091D6059091DE059093D6058093DE05D6
:1016300066ED73E08CEE93E00E945E0783E20E9409
:10164000BA078091D6050E943C070E94D107B5CF0A
:1016500060E070E08AE993E00E948B068BE20E94D2
:10166000BA0714E00E94DF07813041F46091B400B2
:1016700081E090E00E94DA2F14E04AC08091D1040A
:1016800081FF15C065E084E70E940319143041F41E
:1016900066ED73E08CEE93E00E948B061BE307C0BF
:1016A0006BE373E08AE993E00E948B0614E080917B
:1016B000D10482FD04C08091CD04882371F01B33D6
:1016C00061F48091B400803118F01092B40005C02C
:1016D0008091B4008F5F8093B4008091D104811118
:1016E00004C08091CD04882369F065E084E70E94FE
:1016F00003198091B4001B3319F40E94FB1502C03A
:101700000E94EE150E94D107ADCF10E001C012E09B
:101710008091D0048111A9CC08C0CC2009F46ECEF0
:1017200062E080E50E94031973CE0F900F900F9036
:101730000F90DF91CF911F910F91FF90EF90DF906D
:10174000CF90BF900895E82FF0E0E552FB4F67700F
:1017500081E090E001C0880F6A95EAF79081892BBB
:10176000808308959091D9048091D804981791F0BE
:101770008091DA04E091D604F091D704811106C07B
:10178000EE52FF4FE4918E2F8F7105C0E956FE4F48
:10179000849101C080E090915B05911101C080951A
:1017A00008959091DA04E82FF0E091111DC09FE9AF
:1017B000980F9A3120F08B3720F480E003C080E24C
:1017C00001C08AE1B097E81BF109E457FF4FE491AB
:1017D0008E2F90E0FC01EE52FF4FE491E295E695EA
:1017E000E770E093D804089525E02093D804B097DB
:1017F0002E9FC0012F9F900D11240895CF92DF924C
:10180000EF92FF920F931F93CF93DF93D82FC62EA3
:10181000D42E0BED14E0C0E090E09C012B5D344031
:101820007901CD15B9F0CC2339F0C701800F911F94
:101830008F739927892B39F46C2D8C2F8D0F0E9473
:1018400003190E9489180E948918F80181938F0159
:10185000CF5FE7CFDF91CF911F910F91FF90EF9076
:10186000DF90CF9008952F923F924F925F926F92A8
:101870007F928F929F92AF92BF92CF92DF92EF9220
:10188000FF920F931F93CF93DF93CDB7DEB762978D
:101890000FB6F894DEBF0FBECDBFF82E2C87B62E44
:1018A000B694B694B6946770CA01880F991F9401D4
:1018B000280F391F38872F83280F391F3B872A8726
:1018C00010E08E2D90E09E878D87F401E40FF51FC8
:1018D000F88BEF87802F90E09C0125523B4F3A8B8D
:1018E000298B1E1508F0C3C0812E912C462F50E085
:1018F0005E834D832D853E852819390988E090E067
:10190000841B950B281739071CF4DE2CD11A03C051
:1019100028E0D22ED61A88E090E08D199109222471
:101920002A94312C02C0359427948A95E2F7C1019C
:101930000D8002C0880F991F0A94E2F79C838B8365
:101940009B819987E7E0ED1528F0402F6B2D8F2DB7
:101950000E94FE0B6B2D8F2D0E9403198BED282EFC
:1019600084E0382E6A847B844F8058842F853889A0
:101970003A8329833B8130953B8329893A89221513
:10198000330509F470C041E0C41213C0E981FA8143
:10199000A11002C0849101C0808190E0082C02C097
:1019A000959587950A94E2F7092E000CAA0BBB0BBC
:1019B00028C0F2E0CF1211C0F201A11003C085913E
:1019C000949102C080819181082C02C096958795E0
:1019D0000A94E2F7A0E0B0E014C0F301A11005C042
:1019E00085919591A591B49104C080819181A28146
:1019F000B381082C04C0B695A795979587950A944E
:101A0000D2F70C8404C0B695A795979587950A944C
:101A1000D2F70D8004C0880F991FAA1FBB1F0A941C
:101A2000D2F7282F30915B05311101C02095F8E0E5
:101A3000DF1639F0F1018081FB818F233985232363
:101A4000282B822F0E94A7184FEF241A340A54E043
:101A5000650E711C89819A8101969A838983F201AE
:101A600032962F018ACFB3941D0D60E03ACF629673
:101A70000FB6F894DEBF0FBECDBFDF91CF911F919F
:101A80000F91FF90EF90DF90CF90BF90AF909F901D
:101A90008F907F906F905F904F903F902F90089520
:101AA0008F929F92AF92CF92EF920F931F93480124
:101AB000A12CCC24C394E22E042F20E040E050E07F
:101AC0000E94330C1F910F91EF90CF90AF909F9099
:101AD0008F9008958F929F92AF92CF92EF920F9333
:101AE0001F934801AA24A394CC24C394E22E042F6C
:101AF00020E040E050E00E94330C1F910F91EF90E6
:101B0000CF90AF909F908F9008958F929F92AF92B9
:101B1000CF92EF920F931F934801A12C92E0C92E10
:101B2000E22E042F20E040E050E00E94330C1F9191
:101B30000F91EF90CF90AF909F908F9008958F92DC
:101B40009F92AF92CF92EF920F931F934801AA24D6
:101B5000A39492E0C92EE22E042F20E040E050E052
:101B60000E94330C1F910F91EF90CF90AF909F90F8
:101B70008F9008958F929F92AF92CF92EF920F9392
:101B80001F934801A12C93E0C92EE22E042F20E0E0
:101B900040E050E00E94330C1F910F91EF90CF90E6
:101BA000AF909F908F9008958F929F92AF92CF9217
:101BB000EF920F931F934801AA24A39493E0C92E98
:101BC000E22E042F20E040E050E00E94330C1F91F1
:101BD0000F91EF90CF90AF909F908F9008952F929C
:101BE0003F924F925F926F927F928F929F92AF92AD
:101BF000BF92CF92DF92EF92FF920F931F93CF93FA
:101C0000DF93D82FF62EE42EA22E842F880F93E098
:101C1000B92EB81A862F90E050E09C01240F351F92
:101C200063E0359527956A95E1F7722E9924939490
:101C300022E0A212912C20E0E22FF0E0E55EFA4FC4
:101C400010822F5FE216C0F7841B950B23E0959559
:101C500087952A95E1F7C82F30E4832E682C6D1AFA
:101C60005D2E550C44244A944D0E7C1608F4FCC09D
:101C70000E2D3B2CC12CDD24DA94212C10E0011711
:101C80000CF473C0AA2051F033E0A31203C0222049
:101C900029F050C0812F817089114CC06F2D600FC9
:101CA000862F869586958695C81306C080E4810F99
:101CB0000E94A30B81E001C080E06F2D601B962F76
:101CC000969596959695C91305C080E4810F0E945C
:101CD000A30B02C0813041F4812F8D0F8D1508F4C4
:101CE000D82EC81608F4C82E6F2D610F862F869542
:101CF00086958695C81306C080E4800F0E94A30BCA
:101D000081E001C080E06F2D611B962F969596951E
:101D10009695C91305C080E4800F0E94A30B02C0F2
:101D2000813041F4802F8D0F8D1508F4D82EC81600
:101D300008F4C82E37FE08C096E0930D812F880F57
:101D4000880F392E380E09C0812F801B880F880F0D
:101D50009AE0930D382E390E015082E0281611F0CA
:101D6000239401C0212C1F5F8ACF2FEFD21202C013
:101D7000CF5F7BCF41E04C0D4D196C2F8D2D0E9414
:101D8000FE0B6C2F8D2D0E940319262C2D0C312C4F
:101D90000C2D10E00D191109832D820DA32DB0E03B
:101DA0000A171B07B4F020915B05A552BB4F90E0CA
:101DB000FC01E552FB4F213021F49C918081892B5D
:101DC00004C0808180959C9189230E94A718339438
:101DD000E3CF3D2F3C19C32E1D2F130F052D0D19D9
:101DE000D01302C0442D01C0402F411758F081E0AC
:101DF000811B480F6C2F812F0E94FE0B6C2F812FAF
:101E00000E940319282C2C18312C802F90E09C0163
:101E1000211B31098901222D2319832D90E00817F8
:101E200019070CF4A5CFC22ED12C2034B9F0209183
:101E30005B05FC01E552FB4F213039F49081F6013E
:101E4000E552FB4F8081892B07C0D601A552BB4FBD
:101E50008C918095908189230E94A718F601E55204
:101E6000FB4F10823394D7CFDF91CF911F910F9109
:101E7000FF90EF90DF90CF90BF90AF909F908F90AA
:101E80007F906F905F904F903F902F90089580913A
:101E90005B05089580935B0508958091D605809336
:101EA0005B0508958091DE0580935B0508950F938F
:101EB0001F93CF93DF93082F862F8770C1E0D0E068
:101EC00001C0CC0F8A95EAF7162F16951695169530
:101ED000612F802F0E9403190E9489180E9489187F
:101EE00090915B05913011F4C82B02C0C095C823B6
:101EF000C81759F0612F802F0E9403198C2FDF9192
:101F0000CF911F910F910C94A718DF91CF911F9142
:101F10000F9108952F923F924F925F926F927F920E
:101F20008F929F92AF92BF92CF92DF92EF92FF92E9
:101F30000F931F93CF93DF93CDB7DEB727970FB6DD
:101F4000F894DEBF0FBECDBF782E642ED22E1E2D8C
:101F5000862E869486948694262F2770C22E011191
:101F600017C0123039F4822F63E00E944F2F9195F1
:101F70009E834AC0133031F4822F6E2D0E944F2F62
:101F80009E8323C1113009F01FC161706E831DC192
:101F9000013031F5123069F4822F90E08D0D911DE2
:101FA00091958195910963E070E00E947D2F8F5F8C
:101FB0000BC0133061F4822F90E08D0D911D0197BD
:101FC00063E070E00E947D2F8E8300E01DC0113021
:101FD00009F0FAC081E08D0D820F81708E83F5C00B
:101FE000082F123029F4862F90E0821B910907C038
:101FF000133009F0ECC0822F90E0861B910963E05A
:1020000070E00E947D2F8E834E8147FF02C04D5F9E
:102010004E83F12C1F82E12C912C4D2C512C5EEF24
:10202000510F5B83802F002E000C990B9D838C83B6
:102030009D1408F0CEC0A92CB12CC11007C0C2015C
:102040008A199B09089714F0143041F4462D682D25
:10205000872D0E94FE0B91E0998301C01982682DA3
:10206000872D0E9403192C2D30E0A2014A195B092B
:1020700088E090E0821B930B481759071CF4CD2C85
:10208000C91803C0E8E0EC19CE2EFB81F23068F4E9
:102090008C819D814E81840F911D47FD9A9563E04F
:1020A00070E00E947D2FF82E08C0113031F48E812F
:1020B000802780FD1CC05AEA5F8388E090E08C197D
:1020C0009109EFEFF0E002C0F595E7958A95E2F708
:1020D000CF0101C0880F2A95EAF7282EF82FF09536
:1020E000FA838BEDA82E84E0B82E312C2DC045E567
:1020F0004F83E3CF5981513011F4F501E080809195
:102100005B05112309F441C0153009F441C01130B9
:1021100011F58130E1F03320D1F0882309F43AC081
:10212000F8E0CF1609F43DC02A81E2228F81822196
:10213000E82A8E2D0E94A71842E0F416A1F1F3942C
:1021400033945FEFA51AB50A3610D4CF2EC0FF81A5
:10215000F095FF83E2CF123049F4EF2D0F2C000CE5
:10216000FF0BE757FF4F24912F83D7CF133049F44C
:10217000EF2D0F2C000CFF0BEA57FF4F44914F83BC
:10218000CCCF5E2D50955F83C8CF9FEF9F83C5CF87
:102190001F82C3CF143009F4C3CFEF81E095EF83E2
:1021A000BFCFEF80C6CFF12CCBCF8394123021F478
:1021B0008E818E5F8E8305C0133019F49E819F5FE0
:1021C0009E839C0CC12C34CF1E8200E022CF1E8245
:1021D00020CF27960FB6F894DEBF0FBECDBFDF919C
:1021E000CF911F910F91FF90EF90DF90CF90BF9014
:1021F000AF909F908F907F906F905F904F903F90A7
:102200002F900895AF92BF92CF92DF92EF92FF92FC
:102210000F931F93CF93DF93D82EC62EB22ED42FB9
:10222000842F880F13E0181BF12CAA24A394C0E07C
:10223000DC170CF45CC0CD1711F117FD46C081E02E
:10224000A81201C0FF0C2D2F220F2F5FEB2C02E0F4
:1022500041E04F0D6C2D6D1B8D2D8C1B0E948A0F44
:10226000CC23D1F12C2F220F2F5F41E06C2D6C1B62
:102270008D2F8D0D0E948A0FA11016C006C0CC2391
:1022800011F117FD22C0A11010C02D2F220F2F5FBA
:10229000EB2C02E041E04F0D6C2D6D1B8C2F8D0D52
:1022A0008F190E948A0FCD13F12C2C2F220F2F5F34
:1022B00041E04F0DEB2C02E06C2D6C1B8D2D8D1B26
:1022C0000E948A0F09C017FF07C01A5F8C2F880F62
:1022D000880F180FF39409C08C2F8D1B880F880F5F
:1022E000165F180FD150F12CA12CCF5FA1CFDF9139
:1022F000CF911F910F91FF90EF90DF90CF90BF9003
:10230000AF900895EF920F93E12C02E00E948A0FA4
:102310000F91EF9008951F93CF93DF938093DA048A
:10232000EB0110E08991882339F00E94D10B809154
:10233000D8048F5F180FF6CF812FDF91CF911F91B7
:1023400008952F923F924F925F926F927F928F9259
:102350009F92AF92BF92CF92DF92EF92FF920F9334
:102360001F93CF93DF9300D000D0CDB7DEB78B8320
:10237000E62EF42EF81A3F2D822F861B8C831F1415
:102380000CF4C7C0F194982F97FD91959C8391E030
:10239000311101C090E0992E919418164CF091E003
:1023A000811101C090E0C92EC19404C09924939476
:1023B000CC24C3947C8076946F2C66948E2C869467
:1023C00086948694022F069506950695081907FDB2
:1023D00001950F5F8C81F81618F0FA82198204C0FB
:1023E0009C819A8381E08983842F9B81491708F41B
:1023F000892F9B81941708F4492F841738F0E42F14
:10240000F0E0E552FB4F10824F5FF7CF312C212CCB
:1024100010E0832D90E0801791070CF084C06E2DA2
:102420008B810E94A30B4B80D42C8A81281650F5F7
:102430002394498141110AC08C81680E6F1410F0F9
:102440006F18EC0C9B81990D9B8309C07F0C4C810C
:10245000741620F0741A8B81890D8B83EC0C8E2DF1
:1024600086958695869588120DC09B819D1508F4EA
:10247000D92E4B81441608F4442E6E2D8B810E9478
:10248000A30BD3CFBD2C55245A944B1438F1BD1453
:1024900019F08B2D8F7331F4682D8B2D0E94031949
:1024A0000E9489180E94891890915B052B2D30E0BD
:1024B000F901E552FB4F913019F49081982B03C03C
:1024C0009081909598234FEF541202C098135B2C83
:1024D000F901E552FB4F9083B394D7CF57FC14C05A
:1024E000682D852D0E9403190FC0AD2CB12CD51479
:1024F00030F0F501E552FB4F80810E94A718F501ED
:10250000E552FB4F1082D3944D1478F78C0C339422
:1025100080CF9C8119160CF449CF9C8191959C83A6
:10252000992493943CCF0F900F900F900F90DF91D0
:10253000CF911F910F91FF90EF90DF90CF90BF90C0
:10254000AF909F908F907F906F905F904F903F9053
:102550002F9008952F923F924F925F926F927F92A9
:102560008F929F92AF92BF92CF92DF92EF92FF92A3
:102570000F931F93CF93DF93CDB7DEB72E970FB690
:10258000F894DEBF0FBECDBF8D834C832A873B8777
:10259000962E96949694969467706983B901842FC9
:1025A0000E948B11809F802D11248B832C812223EC
:1025B00011F087E001C085E08E9DD02C1124B12C54
:1025C000812CF12CA12C10E0312CC12C8D2D90E010
:1025D00099878887CD1408F0D3C06C2C712CF981B1
:1025E000EF2FF0E0FF83EE832981211106C088855B
:1025F0009985861997090897C4F44B81692D8D81B7
:102600000E94FE0B8885998586199709EE81FF81C6
:102610008E0F9F1F09972CF0F8E02981F21BFE878F
:1026200006C03D2D3C193E8702C088E08E87692D8B
:102630008D810E94031988E090E0EE858E1B910940
:102640002FEF30E002C0359527958A95E2F7098093
:1026500001C0220F0A94EAF72C8331E0098001C0FF
:10266000330F0A94EAF73C878A8589839B859A838E
:102670006F2C7A2C412C512C1D86242C3B81431627
:1026800008F077C09091D9048091D804891710F090
:10269000211028C01092D904E981FA818191FA832E
:1026A000E9830E94D10B9093D7048093D604FD85D3
:1026B000F01711F0211019C00E94B20B382E809132
:1026C000D9048F5F8093D9048091D6049091D70468
:1026D00001969093D7048093D6042E85283079F004
:1026E0001D8606C09D85901739F33E85383021F050
:1026F000F201E552FB4F10818D8581112AC0832D97
:1027000090E0E1E00F2C02C0959587950A94E2F7DE
:10271000EE120BC00E8001C0880F0A94EAF7B82EA3
:102720006E846F0C8C807A2C13C02C856F2C7A2CC5
:102730009E85B12C992359F080FDB22A7394E7103D
:1027400003C086956394712C220F9150F3CF8C8037
:102750001D86882D80951823882D8B21182B812F7D
:102760000E94A718FD85FF5FFD872FEF421A520ACE
:1027700084CF93948E85C80E1982F62CA72C2ACF6D
:102780008B812E960FB6F894DEBF0FBECDBFDF91C2
:10279000CF911F910F91FF90EF90DF90CF90BF905E
:1027A000AF909F908F907F906F905F904F903F90F1
:1027B0002F900895EF920F93EE24E39401E00E948E
:1027C000AA120F91EF9008952F923F924F925F922D
:1027D0006F927F928F929F92AF92BF92CF92DF9231
:1027E000EF92FF920F931F93CF93DF93CDB7DEB796
:1027F00062970FB6F894DEBF0FBECDBFD82E4A83C6
:1028000029832801662E6694669466946770A62EC6
:10281000B801842F0E948B118C9D702C11242A8169
:10282000222311F087E001C085E08E9D302D112418
:102830003E834981423041F481508987D394D31A31
:102840001A8651E05D8305C087E08A8719869FEF6D
:102850009D831C82F12C00E01A8AE72DF0E0F887B6
:10286000EF834A89471508F000C1F981F23019F465
:10287000A1100EC006C02981213019F437E0A3123F
:1028800007C08F8198854A89841B910908975CF558
:102890004E81662D8D2D0E94FE0B5981523061F4C0
:1028A0008F819885EA898E1B91098A0D911D099760
:1028B000B4F018E01A1918C0F981F13081F48F8151
:1028C00098852A89821B910928E030E02A1931096C
:1028D000820F931F09971CF011E01A0D05C0172DE8
:1028E0003A89131B01C018E0662D8D2D0E94031933
:1028F000412F50E088E090E0841B950BEFEFF0E073
:1029000002C0F595E7958A95E2F7CF019927F981FD
:10291000F23041F4282F0A2C01C0220F0A94EAF762
:10292000298B0CC02A2D30E02F5F3F4F241B350B25
:10293000482F01C0440F2A95EAF7498B81E001C076
:10294000880FAA94EAF78B87120159855B83BF2C05
:10295000A12C9C81892F90E09F878E87E989E09543
:10296000E88BEE81AE1608F074C0FC81F093D904B8
:10297000F20180810E94D10B2E853F85820F931F2B
:102980009093D7048093D6040E94B20B41E050E0AC
:102990000B8002C0440F551F0A94E2F75D874C87F5
:1029A00012018B84BF2C1A83912C3A813323B9F105
:1029B000282F30E0EC85FD852E233F23232B09F0C3
:1029C0009828F981F23011F4880C01C08694B394F0
:1029D000CB1021C08091D9049091D804891749F077
:1029E0008F5F8093D9048091D6049091D70401968B
:1029F0000BC01092D904F1018181882349F0FFEFC7
:102A00002F1A3F0A0E94D10B9093D7048093D604CB
:102A10000E94B20BB12C2A8121502A83C6CF8A2C66
:102A20008E0C49899422A81479F0183029F0EA2DE7
:102A3000F0E0E552FB4F0081588905230929802FDA
:102A40000E94A718A394EFCF8B819D81891B8B8354
:102A500088CFFD816F0E2091D9042C833A89310FE4
:102A60003A8B2101AA84FB2CFCCE872D62960FB6EF
:102A7000F894DEBF0FBECDBFDF91CF911F910F91B4
:102A8000FF90EF90DF90CF90BF90AF909F908F908E
:102A90007F906F905F904F903F902F900895CF92CE
:102AA000DF92EF92FF920F931F93CF93DF93442314
:102AB00089F1222379F1122FC42FF62ED82F43301B
:102AC000B8F08EEFC82EC40EDD24D394DD0EE12CB9
:102AD00002E021E04C2D8D2D0E948A0F123040F033
:102AE0006FEF6F0D610F21E04C2D8D2D0E948A0F2D
:102AF000E12C02E0212F41E06F2D8D2F0E948A0FE3
:102B0000C23040F08FEF8D0F212F41E06F2D8C0FE1
:102B10000E948A0FDF91CF911F910F91FF90EF904C
:102B2000DF90CF90089560EC80E00E9425186FE35D
:102B300080E00E94251860EC81E00E9425186FE378
:102B400081E00C9425181F93CF93DF939091D605C5
:102B500081E0911101C080E0D82FD195C0E06C2FA9
:102B600080E00E94031910E08D2F0E94A7181F5FBC
:102B70001038D1F7CF5FC83091F7DF91CF911F9117
:102B80000C9493150F931F93CF93DF9390E080974E
:102B900025E0289F8001299F100D1124C0E0D0E07E
:102BA000F801EC0FFD1FE956FE4F849190915B05F3
:102BB000911101C080950E94A7182196C530D105BA
:102BC00079F780915B05811102C08FEF01C080E031
:102BD000DF91CF911F910F910C94A718CF936AE0CA
:102BE0000E944F2FC92F805D0E94C21580E38C0F79
:102BF000CF910C94C215CF93C82F0E944D0F8C2FEC
:102C00000E94EE15CF910C94520FCF93DF93EC01FD
:102C10008991882319F00E94C215FACFDF91CF91D4
:102C20000895ECEBF0E080818F70806D80830895D3
:102C30008091BC0087FFFCCF08958093BB00ECEB34
:102C4000F0E080818F70806880830895ECEBF0E085
:102C500080818F70806C80830895ECEBF0E0808140
:102C60008F70806880830895459A449A10925F051A
:102C700010925E0510925D0510925C0580E28093D3
:102C8000B800ECEBF0E08081846080831092A305B3
:102C900080818160808380818064808378940895BE
:102CA000FF920F931F93CF93DF93C82F162FF42E0D
:102CB000052F8091BC008E7F8093BC008091BC006A
:102CC0008F70806A8093BC000E9418168C2F8E7FB4
:102CD0000E941D160E9418168091B900883169F46F
:102CE000CF2DD02F112339F089910E941D160E94FB
:102CF00018161150F7CFC0E001C0C1E00E941116B4
:102D00008091BC0084FFFCCF8091BC0081608093E7
:102D1000BC008C2FDF91CF911F910F91FF900895F0
:102D2000FF920F931F93CF93DF93C82F162FF42E8C
:102D3000052F8091BC008E7F8093BC008091BC00E9
:102D40008F70806A8093BC000E9418168C2F81605F
:102D50000E941D160E9418168091B9008034B1F4AB
:102D6000CF2DD02F123048F00E9426160E94181640
:102D70008091BB0089931150F5CF0E942D160E94BF
:102D800018168091BB008883C0E001C0C1E00E949A
:102D900011168091BC0081608093BC008C2FDF9164
:102DA000CF911F910F91FF9008951F920F920FB630
:102DB0000F9211242F933F934F935F936F937F93C1
:102DC0008F939F93AF93BF93EF93FF938091B9003D
:102DD000887F803609F48DC078F5883209F45CC0AC
:102DE00090F4803109F456C038F4882309F4E2C025
:102DF000883009F44FC0E6C0883109F44DC08032F4
:102E000009F467C0DFC0803409F48AC058F4803305
:102E100009F45FC0883309F0D5C08091BC008F7081
:102E20008068CCC0803509F457C0883509F445C0A6
:102E3000883409F0C7C04DC0883909F471C0A8F4BE
:102E4000883709F456C038F4883609F452C0803700
:102E500009F44FC0B7C0883809F462C0803909F45A
:102E60004EC0803809F0AEC04AC0803B09F46EC045
:102E700038F4803A09F457C0883A09F467C0A2C010
:102E8000803C09F492C0883C09F48FC0883B09F467
:102E90006EC098C080E00EC0E091820580918105EF
:102EA000E817B8F481E08E0F80938205F0E0ED57CB
:102EB000FA4F80810E941D1685C0E091600581E077
:102EC0008E0F809360058091BB00F0E0EF59FA4FC0
:102ED00080830E94111674C08091BB00E091600550
:102EE00091E09E0F90936005F0E0EF59FA4F8083D8
:102EF00017C085E08093A305109260054AC0E09159
:102F0000600581E08E0F809360059091BB00F0E03A
:102F1000EF59FA4F9083803218F40E94261652C05F
:102F20000E942D164FC08091BC008F70806C8093E2
:102F3000BC00E0915E05F0915F05309709F440C058
:102F400061E675E08091600509953AC084E0809360
:102F5000A305E0915C05F0915D05309731F063E8E1
:102F600075E080E209958093810510928205E091D9
:102F7000820581E08E0F80938205F0E0ED57FA4FD5
:102F800080818093BB009091820580918105981784
:102F900028F48091BC008F70806C04C08091BC00CC
:102FA0008F7080688093BC000DC08091BC008F70D2
:102FB000806C04C08091BC008F70806D8093BC00D9
:102FC0001092A305FF91EF91BF91AF919F918F91C7
:102FD0007F916F915F914F913F912F910F900FBE15
:102FE0000F901F901895F8948BB1806F8BB985B1B5
:102FF0008F6085B92F988AB18F708AB984B1807F2C
:1030000084B92D9A2C9A0000000089B193B12C98B4
:1030100087FF08C000000000000000002C9A00009C
:103020000000F1CF2D988AB1806F8AB984B18F608A
:1030300084B9789408955A98409A0895811102C0ED
:103040000C941B1840985A9A0895CF93DF93D82F69
:10305000C62FF8948091A4058D1719F08D2F0E942A
:103060001E180E94F3172F982D982C9A8AB1806F02
:103070008AB984B18F6084B98BB18F708BB98BB1F1
:103080009C2F907F892B8BB985B1807F85B985B1C5
:10309000CF70C82BC5B90000000000000000000080
:1030A0000000000000002C988091A405D8130E9415
:1030B0001E187894DF91CF910895CF93DF93C0913C
:1030C000A505DC2FD295D695D695D3708091A40511
:1030D000D81729F08D2F0E941E18D093A4056C2FAD
:1030E0006F7360648091A405DF91CF910C942518D3
:1030F000682F8093A6058091A405E82FF0E0EC5599
:10310000FA4F9381691721F06383686B0C9425183B
:103110000895F8940E94F3172F9A8AB18F708AB994
:1031200084B1807F84B92D9A2C9A000000000000A1
:103130000000000000000000000029B193B12C98AD
:103140002D987894207F892F8F70822B0895CF93AC
:10315000C82FF8940E94F3172F9A2D982C9A8AB1B1
:10316000806F8AB984B18F6084B98BB18F708BB94D
:103170008BB19C2F907F892B8BB985B1807F85B9CE
:1031800085B1CF70C82BC5B9000000000000000059
:1031900000000000000000002C9878948091A505A4
:1031A0008F3720F080E48093A5050CC08F5F80935B
:1031B000A5058F7339F40E945D188091A605CF9103
:1031C0000C947818CF9108952F982D982C984098AA
:1031D0005A98279A259A249A389A529A8BB18F70C6
:1031E0008BB985B1807F85B98AB1806F8AB984B186
:1031F0008F6084B90E941B18E4EAF5E010828FEF1B
:10320000838384830895CF93C62F8093A5050E945E
:103210005D188C2FCF910C94781880E28093710107
:103220008091B5058093B60581E080937001089583
:103230001F920F920FB60F9211242F933F934F932B
:103240005F936F937F938F939F93AF93BF93EF930E
:10325000FF938091BB05882329F08091BB058150A5
:103260008093BB058091CB04882329F08091CB0407
:1032700081508093CB048091CC04882359F08091B5
:10328000CC0481508093CC048091CC04811102C085
:103290000E94A5058091B105813009F092C080910E
:1032A000AA059091AB05892B09F08BC08091B905D7
:1032B0009091BA05892B09F07AC09091B60580915A
:1032C000B5053091700198131CC03130D1F4809154
:1032D0007101803219F41092710103C08E5F8093E6
:1032E00071018091710190E0FC01E957FC4F24913C
:1032F0002093B605FC01E857FC4FE491E20FE09300
:10330000B5058091B605313001F51092700190E05D
:10331000FC01E15CFB4FE49129E0E29FF001112404
:10332000F093B805E093B705FC01E755FC4F849195
:1033300023E6829FC001112463E070E00E94692FA0
:103340007093BA056093B90510C091E09093700135
:103350001092B8051092B70521E330E03093BA051A
:103360002093B9058F5F8093B6058091B705909142
:10337000B805892B21F410928100439818C010924F
:10338000800089E08093810083E080936F0020912A
:10339000B7053091B80540E050E060E079E08DE39A
:1033A00090E00E94912F30938900209388008091B3
:1033B000B9059091BA0501979093BA058093B90524
:1033C0000FC08091AE059091AF05019649F410921F
:1033D000810043981092AF051092AE050E940D191E
:1033E000FF91EF91BF91AF919F918F917F916F91DD
:1033F0005F914F913F912F910F900FBE0F901F90B3
:1034000018951F920F920FB60F9211248F939F93CE
:1034100098B188E0892788B99F918F910F900FBE4E
:103420000F901F9018951F920F920FB60F921124B4
:103430002F933F934F935F936F937F938F939F93BC
:10344000AF93BF93EF93FF930E94011AFF91EF9107
:10345000BF91AF919F918F917F916F915F914F91AC
:103460003F912F910F900FBE0F901F9018951E9BAC
:103470001AC08091A905813039F51092A9051092E2
:10348000AB051092AA051092AF051092AE0580917F
:10349000B1058130C9F41092B1051092AC051092BB
:1034A000810043980FC08091A90581110DC081E072
:1034B0008093A9051092AB051092AA051092AF0552
:1034C0001092AE050C940D190895EF92FF920F9390
:1034D0001F93CF93DF937B018A01C82FD0E0CC0FDD
:1034E000DD1FCE0108960E94D22F68E10E944F2F67
:1034F000F7019083CE0109960E94D22F6CE30E94BF
:103500004F2FF8019083DF91CF911F910F91FF9082
:10351000EF9008950F931F93CF93DF9300D0CDB713
:10352000DEB769834A83082F10E0000F111F6981FD
:10353000C80108960E94DA2F6A81C80109960F9087
:103540000F90DF91CF911F910F910C94DA2F982F4C
:1035500092959F7069238F709AE0699F800D112466
:1035600008956AE00E944F2F292F30E1839FC00108
:103570001124822B0895CF93C62F1092800029E04A
:103580002093810023E020936F009C0140E050E0F5
:1035900060E079E08DE390E00E94912F3093890004
:1035A00020938800C93140F08FE493EC0197F1F744
:1035B00000C00000C951F6CF109281004398CF910E
:1035C0000895CF93DF9380E090E00E94D22F8A3558
:1035D00069F0C0E0D0E0FE01E958FC4F6491CE01F3
:1035E0000E94DA2F2196C031D105A9F7DF91CF9142
:1035F00008951092BB041092BA048091B3058823F9
:10360000E1F38CE38093E7051092B3058091B30555
:103610008823E1F381E08093BB0408950F931F9307
:10362000CF93DF93CDB7DEB729970FB6F894DEBFFF
:103630000FBECDBF1986F894AE01475F5F4F61E0C2
:1036400080ED0E94501681110E94A72BAE014F5FA2
:103650005F4F67E080ED0E94901678948111F4CF5F
:10366000098107FD35C06FE08F810E94A71A809302
:10367000770161E08E810E94A71A8093760163E052
:103680008D810E94A71A809375011B8116FF0CC0C3
:1036900061E0812F0E94A71A15FB112710F99CE009
:1036A000199F800D112404C063E0812F0E94A71A86
:1036B0008093740167E08A810E94A71A8093730146
:1036C00067E0802F0E94A71A8093720180E001C0FA
:1036D00081E029960FB6F894DEBF0FBECDBFDF9113
:1036E000CF911F910F9108951F920F920FB60F92D5
:1036F00011242F933F934F935F936F937F938F93F7
:103700009F93AF93BF93CF93EF93FF93A89580912F
:10371000B405813279F41092B405C09172018091A0
:10372000BC05813059F41092AF051092AE0510928D
:10373000BC0504C08F5F8093B40594C00E94371A03
:103740000E940E1B80917201C817A9F18091D004CC
:10375000882329F08091D00481508093D0048091F7
:10376000B105813041F52091AA053091AB0521309A
:10377000310551F49091AD05911104C08093AD05D0
:103780001092AC050E940D198091AA059091AB058D
:10379000009729F001979093AB058093AA0580913B
:1037A000AE059091AF05181619062CF40197909369
:1037B000AF058093AE058091B305811112C0909141
:1037C000E70580917201981761F086E0E2E7F1E089
:1037D000A7EEB5E001900D928A95E1F781E0809324
:1037E000B3058091A9058130E9F59091B10591115A
:1037F0001BC090917201911117C02091730190919B
:10380000DD05291311C0209174019091D70529136A
:103810000BC08093B1059091B205911102C08093C5
:10382000B20588E097E01AC08091B1058130D1F4EB
:103830002091AE053091AF05232BA1F41092B10574
:103840001092AC059091B205911102C08093B2051F
:103850001092AB051092AA058FEF9FEF9093AF05E2
:103860008093AE05FF91EF91CF91BF91AF919F9162
:103870008F917F916F915F914F913F912F910F9019
:103880000FBE0F901F901895CF93DF93CDB7DEB783
:1038900028970FB6F894DEBF0FBECDBF1982809176
:1038A00072010E94B11A8A83809173010E94B11A39
:1038B0008B83809174010E94B11A8C831D82809148
:1038C00075010E94B11A8E83809176010E94B11A0F
:1038D0008F83809177010E94B11A8887F894AE0196
:1038E0004F5F5F4F68E080ED0E9450167894811121
:1038F0000E94A72B28960FB6F894DEBF0FBECDBF4F
:10390000DF91CF9108950E9434160E940E1B811101
:103910000E94441C0E940E1B87E08093B10081E04E
:1039200080937000789408959093C5008093C400AC
:1039300088E18093C1008EE08093C200519A509834
:1039400008959091C00095FFFCCF8093C600089524
:103950008091C00087FFFCCF8091C60008958091C0
:10396000C0008078089508950895089508950895F1
:10397000089508950895EF920F931F93CF93DF93C7
:1039800000D01F92CDB7DEB7861304C08091B1047A
:103990008823E1F0142F862FBE016F5F7F4F0E94B6
:1039A0009E030091C105019F102D11248091BF0538
:1039B000E090C0059E012F5F3F4F41E06091BE0542
:1039C00093E1199F800D11240E94AA120F900F906D
:1039D0000F90DF91CF911F910F91EF900895EF928B
:1039E0000F93823051F40E944D0F28E340E860E0CD
:1039F00080E00E9482110E94520F9091C105809137
:103A0000BF05E090C005092F21ED32E041E0609153
:103A1000BE055DE0959F800D11240E94AA12809141
:103A2000C205813091F49091C1058091BF05E0906D
:103A3000C005092F21ED32E041E06091BE0550E262
:103A4000959F800D11240E94AA120F91EF90089566
:103A5000CF93DF93CDB7DEB729970FB6F894DEBFCB
:103A60000FBECDBF40E069E382E00E94EF0380918A
:103A7000BB04811105C08091B104882309F477C08B
:103A80008091BA04813029F08091B104813009F02D
:103A900044C04091BC046091BE048091BD040E946A
:103AA0003605E82FF0E0EE0FFF1FE65BFE4F2081AA
:103AB000318141E06091BD0582E10E94DA13E0911D
:103AC000BD04F0E0EE0FFF1FEA5AFE4F2081318166
:103AD00041E06091BD058AE20E94DA138091BE0444
:103AE000BE016F5F7F4F0E949E038CE28B8380E25A
:103AF0008C8382E38D8380E38E838091BC04BE013E
:103B0000695F7F4F0E949E039E012F5F3F4F41E000
:103B10006091BD0582E40E94DA136091C204809135
:103B2000C50440E00E94BB1C6091C3048091C604A0
:103B300041E00E94BB1C8091C205813039F4609144
:103B4000C4048091C70442E00E94BB1C8091C2055E
:103B500081110DC08091C40480FF0E944D0F26E0AA
:103B600044E068E18EE30E9482110E94520F299680
:103B70000FB6F894DEBF0FBECDBFDF91CF91089591
:103B80001092C20594E09093BF0522E02093BE05F9
:103B90009093C10595E09093C0059CE29093BD057C
:103BA0000C94EF1C91E09093C20590E19093BF05B7
:103BB0009CE09093BE0592E09093C1059093C00560
:103BC00095E29093BD050C94EF1CFC0122812034FA
:103BD00029F423812F3111F422E001C026E0362F91
:103BE000FC01DB018D9181938A2F831B8217D0F317
:103BF00008952F923F924F925F926F927F928F9291
:103C00009F92AF92BF92CF92DF92EF92FF920F936B
:103C10001F93CF93DF93CDB7DEB72A970FB6F894F3
:103C2000DEBF0FBECDBF8D839A871B0129013A01EC
:103C3000E982FA820B831C831A2D082DCA01B9016F
:103C40000E94FE2E4B015C016C2D70E080E090E044
:103C50000E94C62D6B017C019B01AC01C501B40122
:103C60000E94912E0E948E2D605CF1016083C30141
:103C7000B2010E94172D9058A70196010E94912E23
:103C80000E948E2D615EF101618329813A814B8111
:103C90005C81C301B2010E94AB2C4B015C010E940C
:103CA000FE2E6E837F8388879987612F70E080E086
:103CB00090E00E94C62D6B017C019B01AC016E81DE
:103CC0007F81888599850E94912E0E948E2D605C4F
:103CD000F1016283C501B4010E94172D9058A7011C
:103CE00096010E94912E0E948E2D615EF1016383E8
:103CF00029813A814B815C81C301B2010E94AA2CC7
:103D00004B015C010E94FE2E9B01AC01C701B60174
:103D10000E94912E0E948E2D605CF1016483C5018A
:103D2000B4010E94172D9058A70196010E94912E70
:103D30000E948E2D615EF10165839D81A92FBA8558
:103D40008A2F891B801730F42D9181912817C1F398
:103D500081E001C080E02A960FB6F894DEBF0FBE66
:103D6000CDBFDF91CF911F910F91FF90EF90DF902A
:103D7000CF90BF90AF909F908F907F906F905F900B
:103D80004F903F902F900895CF93DF93EC012B81BC
:103D90004A81698188810E94A1118A81803419F445
:103DA0008B818F3171F02D814C81698188810E94D6
:103DB000A1112D814C816B818A81DF91CF910C946F
:103DC000A111DF91CF910895CF92DF92EF92FF92F0
:103DD0000F931F93CF93DF93813009F06AC020E0E7
:103DE0004EE16FE180E40E94EF0D6FE180E40E94FC
:103DF000570FC0E003E06C2F0C2E000C770B880BE4
:103E0000990B0E94C62D22E93AE046E05FE30E944A
:103E1000912E6B017C010E94FE2E2DEC3CEC40EEBD
:103E200051E40E94912E0E948E2D162FC701B601DB
:103E30000E94172D90582DEC3CEC40EE51E40E946E
:103E4000912E0E948E2DD62F6FE16D0F80E4810F91
:103E50000E94570F8C2F602F0E945B2F911113C06F
:103E6000C11102C0D15009C0C33011F41F5F05C099
:103E7000C63011F4DF5F01C011506FE16D0F80E4B7
:103E8000810F0E94570FCF5FCC3009F0B4CFEFEC19
:103E9000F5E0C9ECD5E0A3ECB5E025ED35E088E22E
:103EA000819389938D932E173F07D1F71092D805F0
:103EB00018C08091DC05811114C00E944D0F8FEC59
:103EC00095E00E94C41E0E94520F6FE180E4DF91D2
:103ED000CF911F910F91FF90EF90DF90CF900C94B6
:103EE000570FDF91CF911F910F91FF90EF90DF90CF
:103EF000CF9008954F925F926F927F928F929F9290
:103F0000AF92BF92CF92DF92EF92FF920F931F93E7
:103F1000CF93DF93CDB7DEB766970FB6F894DEBFC9
:103F20000FBECDBF8091B904813009F0A4C080914B
:103F3000D905813009F093C06091DD0570E080E023
:103F400090E00E94C42D20E537E746ED5DE30E9436
:103F5000912E6B017C010E94FE2E2B013C01C701BA
:103F6000B6010E94172D6B8B7C8B8D8B9E8B809165
:103F7000D7051091DD056CE00E944F2F692F70E08E
:103F800080E090E00E94C62D22E93AE046E05FE33F
:103F90000E94912E6B017C01612F70E080E090E027
:103FA0000E94C42D25E33AEF4EE05CE30E94912E7F
:103FB0009B01AC01C701B6010E94AB2C6B017C01D7
:103FC0000E94FE2E4B015C01C701B6010E94172D15
:103FD0006B017C0120E047E066E386E70E94EF0D7D
:103FE0006B897C898D899E89905820E030E040EE75
:103FF00050E40E94912E0E948E2D16E3160F20E0B1
:1040000030E040EE50E4C301B2010E94912E0E94C4
:104010008E2D46E7460F212F66E386E70E94A11109
:10402000C701B601905820E030E040EA50E40E9419
:10403000912E0E948E2D16E3160F20E030E040EA0C
:1040400050E4C501B4010E94912E0E948E2D46E7D6
:10405000460F212F66E386E70E94A1110CC00E9443
:104060004D0F21E141E16EE28EE60E9482110E9435
:10407000520F1092D8058091B704813031F48091AD
:10408000B20483FB882780F901C080E09091D805B5
:10409000981759F08093D80524E0E22E02E021E140
:1040A00041E16EE28EE60E948A0F8091BB0481306E
:1040B00021F08091B104813019F41092E40505C01B
:1040C0008091E4058F5F8093E40542E069E382E03C
:1040D0000E94EF038091DC058130D1F56091C4042A
:1040E0001091E40570E080E090E00E94C42D20E58E
:1040F00037E746ED5DE30E94912E6B017C01612F55
:1041000070E080E090E00E94C62D28E93EE24EEF8C
:104110005BE30E94912E9B01AC01C701B6010E9496
:10412000AB2C9B01AC0116E0812E07E1A02E8BE1A8
:10413000C82E1DECE12E1CECF12E0CEC1DE3BE0193
:10414000635F7F4F8FEC95E00E94F91DB82E01C090
:10415000B12C8091BB04813029F08091B104813071
:1041600009F085C06091C3041091C40470E080E040
:1041700090E00E94C42D20E537E746ED5DE30E9404
:10418000912E6B017C01612F70E080E090E00E9435
:10419000C42D29E833EC44EE5AE30E94912E9B0192
:1041A000AC01C701B6010E94AB2C9B01AC01E2E05F
:1041B0008E2EF8E0AF2EABE1CA2E1CE7E12E19EDF2
:1041C000F12E00E210E4BE01695F7F4F89EC95E0BB
:1041D0000E94F91DD82E81E0D81659F09091C5049F
:1041E0008091C204981305C08091B104813009F018
:1041F00041C08091C2041091C3046CE00E944F2F13
:10420000692F70E080E090E00E94C62D22E93AE03C
:1042100046E05FE30E94912E2B013C01612F70E08C
:1042200080E090E00E94C42D25E33AEF4EE05CE38D
:104230000E94912E9B01AC01C301B2010E94AB2CE4
:104240009B01AC0186E0882E95E0A92E64E1C62E84
:104250001CE7E12E19EDF12E00E210E4BE016F5FC4
:104260007F4F83EC95E00E94F91D182F04C010E0E9
:10427000D12C01C010E08091DC058130C9F4B81662
:1042800021F08091B104813099F40E944D0F8FECA0
:1042900095E00E94C41EBE01635F7F4F8FEC95E0E6
:1042A0000E94E51D0E94520F8FEC95E00E94C41EF3
:1042B00081E0D81621F08091B1048130D1F40E94C0
:1042C0004D0F89EC95E00E94C41EBE01695F7F4FCF
:1042D00089EC95E00E94E51D0E94520F89EC95E063
:1042E0000E94C41E8091DC05813051F48FEC95E072
:1042F00005C081E0B81204C089EC95E00E94C41E9C
:10430000113021F08091B1048130F1F40E944D0F01
:1043100083EC95E00E94C41EBE016F5F7F4F83EC6B
:1043200095E00E94E51D0E94520F83EC95E00E94EB
:10433000C41E8091DC05813021F48FEC95E00E9451
:10434000C41E89EC95E007C081E0B81611F0D812C0
:1043500004C083EC95E00E94C41E66960FB6F894E4
:10436000DEBF0FBECDBFDF91CF911F910F91FF90A8
:10437000EF90DF90CF90BF90AF909F908F907F9005
:104380006F905F904F9008951092DC050C94E41E9E
:1043900091E09093DC050C94E41EAF92BF92CF9213
:1043A000DF92EF92FF920F931F93CF93DF93B82E7C
:1043B000862F91E03AE0632FA91218C00E944F2F78
:1043C000F82E842F0E944F2FD82E822F0E944F2F1D
:1043D000A82E802F0E944F2F082F8E2D0E944F2F26
:1043E000E82E8C2D0E944F2FC82E17C00E944F2FF1
:1043F000F92E842F0E944F2FD92E822F0E944F2FEB
:10440000A92E802F0E944F2F092F8E2D0E944F2FF3
:10441000E92E8C2D0E944F2FC92EF01209C0DE10FC
:1044200007C0AC1005C08091B104882309F43AC0DC
:10443000DDE0C0E091E0FC1290E0DC1201C092608F
:10444000AC1201C0946081E00C1380E0EC1201C05A
:104450008260CC1201C08460981306C09091B104B0
:104460009130E1F48823D1F0E82FF0E0EB52FB4FDC
:104470001491843018F40E94520F02C00E944D0F14
:10448000212F45E06B2D8D2F0E9402110E94520FAB
:1044900020E045E06B2D8D2F0E94EF0DCF5FD45FA4
:1044A000CA3041F6DF91CF911F910F91FF90EF90AD
:1044B000DF90CF90BF90AF9008950F931F93CF934D
:1044C000DF938091E40581116CC08EE28093D80562
:1044D00081E08093E4050E94A31522E034E040E0EF
:1044E00061E081E00E94DA1305ED14E0CEE0D0E057
:1044F000D33019F40E944D0F02C00E94520FF801F0
:10450000249145E06C2F8EE00E9402110E94520F10
:1045100020E045E06C2F8EE00E94EF0DD11103C02A
:104520000E94520F02C00E944D0FF8013496249150
:1045300045E06C2F86E40E9402110E94520F20E099
:1045400045E06C2F86E40E94EF0DDF5F0F5F1F4F89
:10455000C25FD43069F620E134E040E06CE089E1EC
:104560000E94DA130EE212E0C6E1F80121913191C6
:104570008F0140E06C2F89E10E94DA13C95FC034DB
:10458000A1F70EE112E0C8E0F801219131918F010D
:1045900040E06C2F81E50E94DA13C95FC034A1F7B7
:1045A00002C01092E405DF91CF911F910F91089501
:1045B000AF92CF92EF920F93CF93DF9300D01F92E1
:1045C000CDB7DEB78091D805813021F48091BB044E
:1045D000813041F08091D805882359F08091E4051D
:1045E000811107C081E00E94C70283E00E94C702D8
:1045F0006EC08091E4058130D1F48091BB0481309C
:1046000009F065C08091D80581508093D8058091CC
:10461000D805BE016F5F7F4F0E949E039E012F5FF2
:104620003F4F40E061E088E70E94DA1350C040E06D
:104630006AE381E00E94EF038091BB04811105C011
:104640008091B104882309F442C0C090C204E09074
:10465000C3040091C4042091C5044091C604609134
:10466000C704AA24A3948DE00E94CD21C090C20467
:10467000E090C3040091C4042091C5044091C60495
:104680006091C704A12C89E10E94CD21C090BC0497
:10469000E090BD040091BE042091BF044091C0048D
:1046A0006091C104AA24A39485E20E94CD21C09008
:1046B000BC04E090BD040091BE042091BF04409171
:1046C000C0046091C104A12C81E30E94CD210F9010
:1046D0000F900F90DF91CF910F91EF90CF90AF900F
:1046E0000895CF92EF92FF920F931F93CF93DF9392
:1046F00000D0CDB7DEB780E389831A8210E0145F63
:104700009E012F5F3F4F40E061E0812F0E94DA134E
:1047100089818F5F8983183791F7CC24C394EE2465
:10472000E39409E514E021E040E06AE181E00E94C1
:10473000E41302E614E021E040E061E381E00E943E
:10474000E41310E000E08DE0F82EF10E011102C03C
:104750001D3338F420E045E06DE0600F8F2D0E949E
:10476000EF0D045F003391F7145F183759F710927B
:10477000D8051092E4050F900F90DF91CF911F9113
:104780000F91FF90EF90CF900895CF92DF92EF922C
:10479000FF921F93CF93DF93C82FD42F122F70E077
:1047A00080E090E00E94C42D9B01AC0160E070E0CD
:1047B00080E891E40E941C2D6B017C01612F70E068
:1047C00080E090E00E94C62DA70196010E94912EE4
:1047D00020E030E040E05FE30E94AB2C0E94952D8A
:1047E000162F6D2F70E080E090E00E94C62DA7018B
:1047F00096010E94912E20E030E040E05FE30E94AD
:10480000AB2C0E94952D611304C08091B1048130BE
:10481000C9F40E944D0FC85F23E044E16C2F89E684
:104820000E944F150E94520F23E042E06C2F8AE64F
:10483000810FDF91CF911F91FF90EF90DF90CF908C
:104840000C948211DF91CF911F91FF90EF90DF9038
:10485000CF9008950F931F93CF938091BA04813026
:1048600029F08091B104813009F059C008E711E0C6
:1048700081E09091BE04F8012181291305C0909137
:10488000BD042281291729F0095F1F4F8F5F8430F3
:1048900081F79091D505981709F441C08093D5050B
:1048A000F80180818823D1F06381748180E00E94C7
:1048B0008B11C82FF801658176816115710521F092
:1048C00080E00E948B11C80F81E890E08C1B910959
:1048D00097FD019695958795C82F01C0C2E00E946B
:1048E0004D0F27E040E860E080E00E9482110E94C6
:1048F000520FF8012381348140E061E08C2F0E9447
:10490000DA138C0FF801258136812115310539F034
:1049100040E061E0CF911F910F910C94DA13CF9199
:104920001F910F910895CF93DF93C82F8D7F84310E
:1049300029F0CA3019F0CD3041F52BC022E241E018
:1049400067E188E00E94821121E043E568E389E0A5
:104950000E948211D8E16D2F87E00E94570FDB5F24
:10496000DB33C9F7C43161F469E385E20E94570F74
:1049700069E380E40E94570FCAE3D0E188E412C0E3
:10498000CA3049F0C63139F0D6CFC83141F0C6E35C
:1049900007C0CAE305C0CAE3DDE08BE403C0CBE394
:1049A000DAE08EE421E132E040E06C2F0E94DA137D
:1049B00025E132E040E06C2F8CE20E94DA1329E11D
:1049C00032E040E06C2F8D2FDF91CF910C94DA1301
:1049D000AF92BF92CF92DF92EF92FF920F931F930D
:1049E000CF93DF9300D01F92CDB7DEB7421305C03F
:1049F0009091B104992309F489C0C02EB22ED62E0D
:104A0000F82E642F70E080E090E00E94C62D28E32D
:104A100039EA4BEF5EE30E94912E20E030E040E067
:104A20005FE30E94AB2C0E94952DA62E6B2D70E0AB
:104A300080E090E00E94C62D28E339EA4BEF5EE368
:104A40000E94912E20E030E040E05FE30E94AB2C1A
:104A50000E94952D162FA61204C08091B1048130BA
:104A6000F1F421E0210F85E066E3611BE81212C03A
:104A70004D2D8F2D0E944F15123088F067E3611B7A
:104A800085E0E82E00E02FEF210F4EEF4D0D81E085
:104A90008F0D03C001E04D2D8F2D0E948A0FBE01A6
:104AA0006F5F7F4F8B2D0E949E030EE2E02EE11A76
:104AB0009E012F5F3F4F41E06E2D8F2D8C0D0E9488
:104AC000DA130E944D0F65E3611B21E04D2D8F2D00
:104AD0000E94821127E04C2D6E2D8F2D0E94821195
:104AE0004FEF4C0D81E08D0D8F0D27E06E2D8C1951
:104AF0000E9482111A1540F42A2D211B602F6A1979
:104B00004D2D8F2D0E9482110E94520F0F900F90F9
:104B10000F90DF91CF911F910F91FF90EF90DF9059
:104B2000CF90BF90AF900895CF93DF93EC016230A8
:104B300019F50E944D0F20E344E660E180E00E94F9
:104B400082110E94520F9E0140E069E082E00E94C3
:104B5000DA13C82F90E0C1970CF055C00E944D0F9A
:104B600041E34C1B25E069E082E08C0F0E9482113A
:104B7000DF91CF910C94520F21E040E867E080E094
:104B80000E94821121E040E86FE080E00E948211E3
:104B900029E341E067E085E60E9482118FEF809370
:104BA000D5050E942A249E0140E069E082E00E942F
:104BB000DA1327E634E040E069E088E60E94DA1381
:104BC000C2E1D0E029E132E040E06C2F89E60E94AA
:104BD000DA1327E046E166E06C0F88E60E944F1585
:104BE00021E042E169E06C0F8AE60E948211DF5FFA
:104BF000C03349F0D13019F021E132E002C025E1A3
:104C000032E0C15FE1CFDF91CF91089541E069E0EB
:104C100083E30E94EF038091BB04811104C0809163
:104C2000B1048823C9F10E942A249091C404809180
:104C3000C704981304C08091B104813041F42091DD
:104C4000C4044091C7046BE380E30E94C5239091A4
:104C5000C3048091C604981304C08091B1048130CC
:104C600041F42091C3044091C6046BE381E20E94A9
:104C7000C5239091C2048091C504981304C080910B
:104C8000B104813041F42091C2044091C50467E130
:104C900082E10E94C52381E008953F924F925F9286
:104CA0006F927F928F929F92AF92BF92CF92DF923C
:104CB000EF92FF920F931F93CF93DF9300D000D01A
:104CC00000D0CDB7DEB7641307C0201305C09091A4
:104CD000B104992309F43BC1B02E122FA42EC82E83
:104CE00070E080E090E00E94C62D28E339EA4BEFA7
:104CF0005EE30E94912E20E030E040E05FE30E94FE
:104D0000AB2C0E94952D662E6A2D70E080E090E01D
:104D10000E94C62D28E339EA4BEF5EE30E94912EF4
:104D200020E030E040E05FE30E94AB2C0E94952D34
:104D3000762E612F70E080E090E00E94C62D28E37F
:104D400039EA4BEF5EE30E94912E20E030E040E034
:104D50005FE30E94AB2C0E94952D462E602F70E0E1
:104D600080E090E00E94C62D28E339EA4BEF5EE335
:104D70000E94912E20E030E040E05FE30E94AB2CE7
:104D80000E94952D562E641430F4F42CF61826E368
:104D9000D22ED41805C0F62CF41826E3D22ED6183D
:104DA000F11002C0FF24F394751428F4352C371841
:104DB00016E3151904C0372C351816E317193110EE
:104DC00002C033243394671006C0451004C080919C
:104DD000B104813071F4BA1418F001E082E002C02D
:104DE00000E083E0E82E232D4DE0612F8C2D0E9402
:104DF0008A0F0B2D0A1907FF05C08DE289830195E3
:104E000021E001C020E00A306CF0E1E0F0E0EC0FBE
:104E1000FD1FE20FF11D802F6AE00E945B2F805D75
:104E200080832F5FE1E0F0E0EC0FFD1FE20FF11D4A
:104E3000802F6AE00E945B2F905D90832F5FE1E0FE
:104E4000F0E0EC0FFD1FE20FF11D1082220F220F88
:104E5000BB24BA94B20E0DE00B1906959C2C900E53
:104E60009E012F5F3F4F40E08AEFA82EA10E6A2DD2
:104E7000892D0E94DA130E944D0F26E0402F6A2DE3
:104E80008C2D0E94821126E0402F6A2D8B2D890DDA
:104E90000E948211671003C0451409F456C021E036
:104EA0004DE06FEF610F8C2D0E948211AD2CB12C63
:104EB0008F2D90E09E838D83812E912CD116B0F49E
:104EC0009401265031098A0D9B1D8217930724F403
:104ED00026E02F0D59F002C0212F2D19E12C02E000
:104EE0004DE06AEF6D0D8C2D0E948A0F64100CC08E
:104EF000751450F4671008C0E12C02E021E04DE089
:104F00006D2D8C2D0E948A0F830C911C8D819E81AA
:104F10008A0D9B1D88169906C4F495E0A91AB1085C
:104F20008A149B0434F0632D610FFD0C2F2D261B7A
:104F300004C026E02F0D6AEF6D0D222331F0E12C25
:104F400002E04DE08C2D0E948A0F0E94520F26969F
:104F50000FB6F894DEBF0FBECDBFDF91CF911F918A
:104F60000F91FF90EF90DF90CF90BF90AF909F9008
:104F70008F907F906F905F904F903F900895EF9249
:104F80000F930E940626882399F12091C404409132
:104F9000C70485E0E82E02E06FE089E40E94E8247F
:104FA0000091C4042091C7044091C3046091C604D9
:104FB0008BE30E944D262091C3044091C60402E079
:104FC0006FE08BE20E94E8240091C3042091C604A4
:104FD0004091C2046091C5048DE10E944D2620914C
:104FE000C2044091C50402E06FE08DE00E94E82415
:104FF0000F91EF900895682F82E894E00E94942525
:105000008AE00C9493248F929F92AF92BF92CF929A
:10501000DF92EF92FF92CF93DF93D82F70E080E082
:1050200090E00E94C62D2BED3FE049E45FE30E9433
:10503000912E24EE3BEC46E150E40E94AA2C4B0159
:105040005C010E94FE2E6B017C01C501B4010E942F
:10505000172D905826E636E646E551E40E94912E3B
:105060000E948E2DC4E2C60F26E636E646E551E4E0
:10507000C701B6010E94912E0E948E2D862F6C2FA3
:105080008D0FDF91CF91FF90EF90DF90CF90BF9089
:10509000AF909F908F900C94570F4F925F926F92AA
:1050A0007F92BF92CF92DF92EF92FF920F931F9366
:1050B000CF93DF9300D01F92CDB7DEB7641305C046
:1050C0009091B104992309F491C0042FF62E182F62
:1050D00070E080E090E00E94C62D2CE739ED40EAB8
:1050E0005DE30E94912E24EE3BEC46E150E40E94E9
:1050F000AA2C2B013C010E94FE2E26E636E646E550
:1051000051E40E94912E0E948E2DC62EC301B20141
:105110000E94172D905826E636E646E551E40E9497
:10512000912E0E948E2DB62E602F70E080E090E0D0
:105130000E94C62D2CE739ED40EA5DE30E94912ED6
:1051400024EE3BEC46E150E40E94AA2C2B013C01EA
:105150000E94FE2E26E636E646E551E40E94912E98
:105160000E948E2DE62EC301B2010E94172D905889
:1051700026E636E646E551E40E94912E0E948E2DE9
:10518000D62ECE1006C0B61204C08091B104813074
:10519000F1F40E944D0F24E22B0D4C2D410F64E2DF
:1051A000812F0E94A1110E94520F24E22D0D4E2D3D
:1051B000410F64E2812F0E94A1118F2D6AE00E94AD
:1051C0004F2F911104C0682F812F0E940328BE0128
:1051D0006F5F7F4F802F0E949E039E012F5F3F4F86
:1051E00041E06AE28BEF810F0E94DA130F900F907B
:1051F0000F90DF91CF911F910F91FF90EF90DF9073
:10520000CF90BF907F906F905F904F9008950E94D5
:1052100006268823A9F04091C4046091C70483E561
:105220000E944D284091C3046091C60482E30E940D
:105230004D284091C2046091C50481E10C944D2831
:105240000895CF93DF93682F8AE894E00E94942515
:10525000C1E120E04FE064E28C2F0E94EF0DD0E02E
:105260006D2F8C2F0E940328DF5FD730C9F7CF5DE9
:10527000C43779F78BE0DF91CF910C949324CF92D0
:10528000DF92EF92FF920F931F93CF93DF93F82E4D
:1052900070E0042F10E082E0F81216C0072E000C18
:1052A000880B990B0E94C62D20E030E040E45FE3BC
:1052B0000E94912E20E030E040E850E40E94AB2CA8
:1052C0006B01E82EC92F1EC0072E000C880B990B0E
:1052D0000E94C62D2AE939E949E95EE30E94912E30
:1052E00020E030E040E850E40E94AB2CC62ED72EE0
:1052F000E82EC92FF11006C00E94952DD4E3D60FD9
:10530000C7E23BC02FEF3FEF4FEF5EE3B6018E2DBC
:105310009C2F0E94912E0E94952DD4E3D61B81E0F4
:1053200028ED33EB4DE55FE3B601F8121EC08E2D7C
:105330009C2F0E94912E0E94952DC7E2C60FB801A6
:10534000110F880B990B0E94C62D20E030E040E43D
:105350005FE30E94912E20E030E040E850E40E949C
:10536000AB2CC62EE72E8C0134C08E2D9C2F0E94B4
:10537000912E0E94952DC7E2C61BB801110F880B14
:10538000990B0E94C62D2AE939E949E95EE30E949A
:10539000912E20E030E040E850E40E94AB2C562FE4
:1053A000472F382F292FC62EE72E082F192F82E0DE
:1053B000F8120FC0652F742F832F922F0E94952D06
:1053C00044E3460F27E26C2F8D2F0E94A11124E1A8
:1053D0002DC02FEF3FEF4FEF5EE36C2D7E2DC80108
:1053E0000E94912E0E94952D84E3D82ED61A28ED86
:1053F00033EB4DE55FE36C2D7E2DC801F11006C047
:105400000E94912E0E94952D695D07C00E94912EE9
:105410000E94952D87E2861B682F2C2F4D2F8D2DF6
:105420000E94A11181E0F81203C02AE34AE202C0FF
:105430002C2F4AE46C2F8D2FDF91CF911F910F916C
:10544000FF90EF90DF90CF900C94A1110F931F93DA
:10545000CF93DF9300D01F92CDB7DEB70E94062610
:10546000882309F4BDC09091C4048091C7049813A7
:1054700004C08091B104813079F48091C404BE01EC
:105480006F5F7F4F0E949E039E012F5F3F4F41E061
:1054900061E28FE40E94DA139091C3048091C60404
:1054A000981304C08091B104813079F48091C304D1
:1054B000BE016F5F7F4F0E949E039E012F5F3F4F93
:1054C00041E061E380E10E94DA139091C20480918F
:1054D000C504981304C08091B104813079F480919F
:1054E000C204BE016F5F7F4F0E949E039E012F5F2B
:1054F0003F4F41E061E180E10E94DA139091C404E2
:105500008091C704981791F19091C3048091C604CB
:1055100098132CC09091C2048091C504981326C0A2
:105520008091B104811122C06091C7041091C4041C
:1055300070E080E090E00E94C62D2AE939E949E94F
:105540005EE30E94912E0E94952D062F612F70E040
:1055500080E090E00E94C62D2AE939E949E95EE33E
:105560000E94912E0E94952D0617D1F10E944D0F99
:105570004091C6046091C70480E00E943F29409199
:10558000C5046091C60481E00E943F294091C70490
:105590006091C50482E00E943F290E94520F409111
:1055A000C3046091C40480E00E943F294091C2047A
:1055B0006091C30481E00E943F294091C40460913E
:1055C000C20482E00E943F2923E04AE067E284E3CC
:1055D0000E94EF0D21E040E167E284E30E94EF0DBD
:1055E0000F900F900F90DF91CF911F910F91089521
:1055F000682F85E994E00E94942520E046E167E267
:1056000084E30E94EF0D21E132E040E069E28FE4A3
:105610000E94DA1325E132E040E069E38FE00E9466
:10562000DA1329E132E040E069E18EE00E94DA130A
:1056300067E284E30C94570F1F93CF93DF93182FE7
:10564000842F0E944F2FD82F822F0E944F2FD813C4
:1056500004C09091B1049923A9F1C82F8CE0D89F80
:10566000D02D1124D75E25E045E06D2F812F0E94BB
:10567000021120E045E06D2F812F0E94EF0DCC2319
:1056800039F0C13039F410FD07C00E944D0F04C03D
:1056900023E003C022E001C021E08CE0C89FC02DC0
:1056A0001124C75E45E06C2F812F0E9402110E94D9
:1056B000520F20E045E06C2F812FDF91CF911F9199
:1056C0000C94EF0DDF91CF911F9108950E94062653
:1056D0008823C1F02091C4044091C70464E183E5AC
:1056E0000E941C2B2091C3044091C60464E182E314
:1056F0000E941C2B2091C2044091C50468E081E106
:105700000C941C2B08951F93CF93DF93682F81EA8D
:1057100094E00E949425C9E027E241E162E18C2FE8
:105720000E944F15D9E118E01C0F20E045E06D2FD5
:10573000812F0E94EF0DD45FDD33B9F7CF5DCC36FA
:1057400059F78DE0DF91CF911F910C9493247894B9
:1057500064E680EA9FE00E94BB1A2FEF80E792E0A8
:10576000215080409040E1F700C0000064E680EAEC
:105770009FE00E94BB1A2FEF89E698E121508040FC
:105780009040E1F700C00000E3CF14BE0FB6F894DC
:10579000A8958091600088618093600010926000FD
:1057A0000FBE8AE190E00E94941C3B9A8CE38093A8
:1057B000E7050E94831C0E94E11A86E090E00E94A7
:1057C000D22F81708093D6059091D60581E09111FA
:1057D00080E08093DE0587E090E00E94D22F837006
:1057E0008093B0058091B0054DED55E067ED75E013
:1057F0000E94651A0E94AB050E94371A82E084BDA0
:1058000083E085BD8DE787BD80916E0082608093C7
:105810006E00539A80E28093B0008091B000836064
:105820008093B0008091B10088608093B10080E1E6
:105830008093B30081E090E00E94D22F61E10E944A
:105840004F2F9093B400259A64E680EA9FE00E946F
:10585000BB1A9FE088E10FB6F894A895809360008A
:105860000FBE909360000E94E4180E94A3150E944E
:10587000520F0E9415050E94F91A81E00E94C7028A
:105880001BE404E0C8E5D2E080E6E82E89E0F82ECB
:105890001093BB058091CE04882321F18091B1053E
:1058A000813001F59091CE0490FF03C08093BC0538
:1058B00042C0D093AB05C093AA059091AD0591115C
:1058C00002C08093AD0581E08093AC05D093B40411
:1058D000C093B304F092AF05E092AE051092810040
:1058E000439829C08091CE0480FF06C00E941B0807
:1058F0000E94F91A81E01DC08091CE0481FF08C08A
:105900008091CE040E94A702811102C00093CE04B0
:105910008091CE0482FF0FC0D090B0040E94860315
:105920009091B004D91205C08091CE040E94A702C4
:1059300002C00E94C7021092CE0483E00E94C702F8
:105940008091BB058111FCCF8091B2048F5F809361
:10595000B2049ECF5058BB27AA270E94C22C0C9499
:10596000432E0E940A2E38F00E94112E20F039F4A6
:105970009F3F19F426F40C94072E0EF4E095E7FBF4
:105980000C94012EE92F0E94682E58F3BA17620773
:1059900073078407950720F079F4A6F50C948A2EF6
:1059A0000EF4E0950B2EBA2FA02D0B01B90190013A
:1059B0000C01CA01A0011124FF27591B99F0593F7E
:1059C00050F4503E68F11A16F040A22F232F342FC6
:1059D0004427585FF3CF469537952795A795F04014
:1059E0005395C9F77EF41F16BA0B620B730B840B29
:1059F000BAF09150A1F0FF0FBB1F661F771F881FE1
:105A0000C2F70EC0BA0F621F731F841F48F4879538
:105A100077956795B795F7959E3F08F0B0CF93952A
:105A2000880F08F09927EE0F9795879508950E94A3
:105A30001A2EE3950C94542E0E94302D0C94432E74
:105A40000E94112E58F00E940A2E40F029F45F3F68
:105A500029F00C94012E51110C948B2E0C94072ECE
:105A60000E94682E68F39923B1F3552391F3951B97
:105A7000550BBB27AA2762177307840738F09F5F6F
:105A80005F4F220F331F441FAA1FA9F335D00E2EDC
:105A90003AF0E0E832D091505040E695001CCAF749
:105AA0002BD0FE2F29D0660F771F881FBB1F26170C
:105AB00037074807AB07B0E809F0BB0B802DBF01E3
:105AC000FF2793585F4F3AF09E3F510578F00C94B2
:105AD000012E0C948B2E5F3FE4F3983ED4F3869511
