:100000000C945B030C9478030C9478030C946605B1
:100010000C9478030C9478030C9478030C94780374
:100020000C9478030C94511D0C9478030C94BC1A16
:100030000C9478030C94AA1A0C94C5190C947803A8
:100040000C9478030C9478030C9478030C94780344
:100050000C9478030C94B5040C9478030C947803F6
:100060000C94DD160C94780305A84CCDB2D44EB98F
:100070003836A9020C50B9918688083CA6AAAA2A4B
:10008000BE000000803F000000000000005F000094
:100090000007000700147F147F14242A7F2A1223EC
:1000A0001308646236495522500005030000001C05
:1000B0002241000041221C00082A1C2A0808083E90
:1000C00008080050300000080808080800606000B8
:1000D0000020100804023E5149453E00427F400086
:1000E00042615149462141454B311814127F102776
:1000F000454545393C4A49493001710905033649AE
:10010000494936064949291E003636000000563650
:10011000000000081422411414141414412214087D
:10012000000201510906324979413E7E1111117ECA
:100130007F494949363E414141227F4141221C7F4E
:10014000494949417F090901013E414151327F0836
:1001500008087F00417F41002040413F017F081493
:1001600022417F404040407F0204027F7F0408100C
:100170007F3E4141413E7F090909063E4151215ED2
:100180007F09192946464949493101017F01013F4B
:100190004040403F1F2040201F7F2018207F6314D5
:1001A0000814630304780403615149454300007F48
:1001B0004141020408102041417F00000402010275
:1001C0000440404040400001020400205454547850
:1001D0007F484444383844444420384444487F38B5
:1001E00054545418087E090102081454543C7F08E2
:1001F00004047800447D40002040443D00007F100E
:10020000284400417F40007C041804787C080404E2
:100210007838444444387C14141408081414187CA6
:100220007C080404084854545420043F4440203CB3
:100230004040207C1C2040201C3C4030403C442856
:100240001028440C5050503C4464544C4400083630
:10025000410000007F0000004136080008082A1C09
:1002600008081C2A0808010000000000011700000F
:100270000000030300030000050A1F0A1F0A05020D
:10028000151F1508031904130000040204020000DE
:10029000010300000000020E1100000002110E0018
:1002A0000000030A040A000003040E040000021008
:1002B0000800000003040404000001100000000016
:1002C000031804030000031F111F000003121F1076
:1002D0000000031D151700000315151F000003077C
:1002E000041F00000317151D0000031F151D00004B
:1002F00003011D030000031F151F00000317151F36
:100300000000010A0000000002100A0000000204C0
:100310000A000000030A0A0A0000020A04000000A2
:10032000030115020000040E04020000031E051E56
:100330000000031F150A0000030E11110000031F27
:10034000110E0000021F15000000021F0500000032
:10035000030E111D0000031F041F0000011F0000F9
:10036000000002100F000000031F041B0000021F0A
:1003700010000000051F0204021F041F02041F00DA
:10038000030E110E0000031F050200000402151DDC
:100390001200031F051A00000312150900000301D3
:1003A0001F010000031F101F0000030F100F0000AB
:1003B000050F100C100F031B041B000003031C038C
:1003C0000000031915130000021F110000000314A0
:1003D0000814000002111F000000030201020000C7
:1003E00003101010000002010200000003041F119E
:1003F0000000011F0000000003111F04000004049E
:10040000150E040004040E1504004932433A20423C
:1004100055535F4552524F520D0A004932433A201C
:100420004E4F5F494E464F0D0A004932433A205322
:10043000542D3E444154415F4E41434B206F722046
:100440004C4153545F444154410D0A004932433AF0
:100450002053542D3E444154415F41434B0D0A000B
:100460004932433A2053542D3E534C415F41434B54
:100470000D0A004932433A2053522D3E53525F53E6
:10048000544F500D0A004932433A2053522D3E44F6
:100490004154415F4E41434B0D0A004932433A20DB
:1004A00053522D3E444154415F41434B0D0A004994
:1004B00032433A2053522D3E534C415F41434B0D42
:1004C0000A004932433A204D522D3E534C415F4180
:1004D000434B0D0A004932433A204D522D3E4441D0
:1004E00054415F41434B0D0A004932433A204D5479
:1004F0002D3E4152425F4C4F53540D0A0049324346
:100500003A204D54522D3E534C415F4E41434B20B7
:100510006F72204D542D3E444154415F4E41434B38
:100520000D0A004932433A204D522D3E4441544178
:100530005F4E41434B0D0A004932433A204D542D42
:100540003E534C415F41434B206F72204441544124
:100550005F41434B0D0A004932433A204D2D3E5333
:10056000544152540D0A009292009200749200AECF
:100570000000570000740000570049000062006E40
:10058000006862005792AEC4009BAE009200748275
:100590006E0000AEA49B8A0092005C6274006274DC
:1005A0008200AEA49B8A009200E800E8E800000008
:1005B0008A00008200740000007474007400748269
:1005C0000092740062570000747400740074829288
:1005D000000092740057005C00629B009B62000068
:1005E0006EC4C4C4AE9B927400625700006E9B0040
:1005F0009B9B9282744900493A0000000003030368
:1006000003030303030303060303060303030306B1
:1006100003030303030303030303030303030303AA
:100620000303030303030306060303030303030394
:100630000303030303030306030303030303030387
:1006400003030303060603030303060303060C0365
:100650000303030303030303030303030306030367
:100660000303030303030C0C030303030603030345
:100670000303030303060404040404040303030341
:100680000303060303030304040403030303030C2B
:100690000C0C0C000E0E1D0E1D2B0F3A0E2B0F48CE
:1006A0000A520F610A520F000E0E1D0E1D6B0E79BD
:1006B0000D6B0E86100011241FBECFEFD8E0DEBFF9
:1006C000CDBF14E0A0E0B1E0E6E2FCE602C0059098
:1006D0000D92A83EB107D9F716E0A8EEB4E001C02C
:1006E0001D92A332B107E1F70E94531E0C941136FC
:1006F0000C940000282F8091EA0490E033E0880FEA
:10070000991F3A95E1F7E0917505F0917605E80FAC
:10071000F91F0680F781E02D309711F480E00895ED
:10072000809148058093E904822F099581E008951E
:10073000282F8091EA0490E043E0880F991F4A95A2
:10074000E1F7E0917505F0917605E80FF91F8091CA
:1007500048058093E9048091E8048130C1F48091D8
:100760001806809385058091190680938A058091EB
:1007700012068093890580911406809383058091E9
:100780001C068093790580911E06809372052130A6
:10079000C1F4809185058093860580918A058093B8
:1007A0007F058091890580938405809183058093DE
:1007B00077058091790580936F058091720580930C
:1007C0006D058081882309F453C0233009F048C0A7
:1007D0001092ED0490911A06913049F480917105C0
:1007E0008130D9F0909371059093ED0416C09091EB
:1007F000830580917705981751F490917905809140
:100800006F05981721F480917105823031F082E0F4
:100810008093710581E08093ED040480F581E02DE3
:1008200009958091E8048130C1F480918505809319
:10083000860580918A0580937F0580918905809344
:100840008405809183058093770580917905809355
:100850006F058091720580936D051092EC040895E8
:1008600081E08093EC040280F381E02D822F0995D2
:1008700008958091EA048F5F8093EA048091EA04EE
:10088000893010F01092EA048091EA0490E053E07D
:10089000880F991F5A95E1F7E0917505F09176055B
:1008A000E80FF91F81810895282FFB016AE00E945B
:1008B0007E35805D8083822F0E947E35905D91839E
:1008C000128208950F9300917B0581E26EE041E072
:1008D00020E031E00E94951000917B0582E16EE1FD
:1008E00041E02BE031E00E94951080E395E728EC91
:1008F00030E0F9013197F1F70197D9F786EA9EE0E8
:1009000064E60E940A1B80EA9FE064E60E940A1BDC
:100910000F91089526982E9A81E080936800EBE667
:10092000F0E080818064808382E080937C0010927C
:100930007B00EAE7F0E08EE880838081806480833A
:10094000089580917A00877F80937A0080917A0061
:10095000806480937A0080917A0084FFFCCF20919C
:10096000780030917900C90108951F920F920FB657
:100970000F9211242F933F934F935F936F937F9325
:100980008F939F93AF93BF93EF93FF93789480914E
:1009900078009091790022E0803E920770F01092EA
:1009A000F0041092EE048091F204813009F078C0D6
:1009B0008093F3041092F20473C022E0833692070E
:1009C00098F18091EE0482FD6BC080E29EE4019775
:1009D000F1F70E94A104825692408E37910508F0EB
:1009E0005FC08AEF8093F10412C00E94A104825676
:1009F00092408E37910558F08091EE048B7F809362
:100A0000EE048091EF0484608093EF0449C08091EC
:100A1000F104882351F78091EE0484608093EE0402
:100A20008091F00484603AC08F509140E8F080914A
:100A3000EE0481FD10C080E29EE40197F1F70E9470
:100A4000A1048E5091408555914050F58091EF045E
:100A500082608093EF048091EE0482608093EE04C4
:100A60008091F00482601AC08091EE0480FD0EC077
:100A700080E29EE40197F1F70E94A1048F5091401B
:100A800078F48091EF0481608093EF048091EE040C
:100A900081608093EE048091F00481608093F00483
:100AA00080917A00886480937A00FF91EF91BF91E2
:100AB000AF919F918F917F916F915F914F913F91F6
:100AC0002F910F900FBE0F901F9018951F920F92AD
:100AD0000FB60F92112478940F900FBE0F901F90B5
:100AE0001895982F8091F304813021F41092F60428
:100AF0001092F3048091F00482FF0EC081E0809395
:100B0000F2048091F6048A3020F48F5F8093F6041B
:100B100005C0892F8E5F04C01092F604892F8F5F65
:100B2000861718F00E947E35892F08950F931F9322
:100B3000CF93DF938C01EB0180E066E00E94071900
:100B4000C8010E946F0D209739F080E067E00E9495
:100B50000719CE010E946F0DDF91CF911F910F9168
:100B60000895EF92FF920F931F938C017B0180E019
:100B700066E00E9407198DE791E00E946F0DC801A1
:100B80000E946F0D80E067E00E94071980E991E004
:100B90000E946F0DC7010E946F0D1F910F91FF9072
:100BA000EF9008951F93182F88E064E00E940719C2
:100BB00082EA91E00E946F0D80916C05882339F4E0
:100BC00080EB91E00E946F0D82EB91E002C089EB17
:100BD00091E0612F0E945E0D1F910895EF92FF92A8
:100BE0000F931F93E82E162FF42E022F88E063E058
:100BF0000E94071981EC91E00E946F0D8E2D612FEC
:100C00004F2D0E942F1BE82FF0E0EE0FFF1FE35A3D
:100C1000FC4F808191810E946F0DEE2DF0E0EE0F70
:100C2000FF1FE05EFC4F808191810C3019F46091D0
:100C30006C0502C060917B050E945E0D80E20E94FF
:100C4000590D0D3021F4812F0E94900D03C0812F8A
:100C50000E948B0D8CE20E94590D0E3039F484E114
:100C60000E94900D8F2D0E94900D06C084E10E947D
:100C70008B0D8F2D0E948B0D1F910F91FF90EF9088
:100C80000895CF92EF920F938091F5048F5F809338
:100C9000F50480E060E00E94071987EC91E00E9473
:100CA0006F0DC0906C058EE760E042E028E000E048
:100CB000EE240E94B81188E061E00E9407198DEDD2
:100CC00091E00E946F0D88E062E00E94071982EFB8
:100CD00091E00E946F0D809113060E948B0D8AE3B4
:100CE0000E94590D809117060E948B0D8AE30E9485
:100CF000590D809122060E948B0D809121066091F2
:100D000016064091150627E00E94EE0580917B05AE
:100D10000E94D20588E065E00E9407198FEF91E0FC
:100D20000E946F0D8091B4000E948B0D82E192E0D1
:100D300068E272E00E949605C0906C058EE760E361
:100D400042E020E10E94B811C0906C0580E068E0AC
:100D500048E028E20E94B8118091F5048150809308
:100D6000F5040F91EF90CF9008950F931F93182FD4
:100D700000917B0580E0612F47E021E00E946F1326
:100D800000917B05115085E0612F41E023E00E9436
:100D9000211300917B05115084E0612F41E025E093
:100DA0000E9421131F910F9108954F925F926F92AD
:100DB0007F928F929F92AF92BF92CF92DF92EF92EB
:100DC000FF920F931F93DF93CF9300D000D0CDB746
:100DD000DEB780914705882371F48091F5048F5F19
:100DE0008093F50480916C050E9475198091F5043B
:100DF00081508093F50480914705853009F425C220
:100E0000863030F4882359F0843009F078C50CC35B
:100E1000873009F422C48F3009F071C5BEC485E063
:100E2000809347050E9441068091F5048F5F80936F
:100E3000F5048BE00E94B5068091F5048150809303
:100E4000F5048AE08093F4049AE08091EF0480FD39
:100E50005FC58091EF04882321F48091F0048823FA
:100E600019F09093F40405C08091F404882309F4E8
:100E700046C58091EF0481FFDDC11092EF0480919F
:100E8000F5048F5F8093F50480916C050E947519BD
:100E900093E0A92EB12CAC0EBD1E84E0882E912CBF
:100EA0008C0E9D1E08EC602E712C12E0412E512CF0
:100EB0004C0E5D1E809147058131B9F0823128F4D6
:100EC000853041F0803111F50BC0823199F08331CA
:100ED000E9F417C080E18093470510928B051AC092
:100EE00081E18093470581E009C082E18093470555
:100EF00082E004C083E18093470583E080938B0503
:100F000009C084E18093470584E0F8CF85E08093B1
:100F1000470578C1F0901B068091F5048F5F8093A0
:100F2000F50480E060E00E9407198EE392E00E94E1
:100F30006F0D00E0102F1F5F88E0612F0E940719DE
:100F40008FE492E00E946F0D812F0E948B0D86E549
:100F500092E00E946F0D802FB501A4010E94A61C93
:100F60008B810E948B0D8AE30E94590D8C810E9417
:100F70008B0D012F1430F1F688E065E00E9407190F
:100F80008EE592E00E946F0D80911B068F5F0E949C
:100F90008B0D80914705843119F082E192E002C007
:100FA00081E792E068E272E00E949605C0906C05CD
:100FB00080E068E047E028E200E0EE240E94B811FB
:100FC0008091F50481508093F5048091F5048F5F42
:100FD0008093F50480918B05880F880F880F855FBB
:100FE0000E94B5068091F50481508093F5048AE053
:100FF0008093F40480918B05843031F0BE016F5FE3
:101000007F4FA2010E94A61C1092F60415E00AE090
:101010008091EF0480FF03C01092EF04F3C0809131
:10102000EF04882321F48091F004882319F00093C1
:10103000F40407C08091F404882319F41092470542
:10104000E1C08091EF0481FF8EC01092EF041092F6
:10105000F6048091F5048F5F8093F504153019F53F
:1010600060918B05643081F484E765E00E94071984
:101070008F2D8F5F0E94900D87E892E06BE872E001
:101080000E94B10514E16AC06F5F82E60E940719F1
:1010900089810E94900D80E992E064E972E00E94EB
:1010A000B10515E65BC01536D1F460918B056F5F15
:1010B00082E60E94071989810E948B0D60918B0541
:1010C0006F5F84E70E9407198A810E94900D89E969
:1010D00092E06DE972E00E94B10516E63FC014315E
:1010E00081F484E765E00E9407198F2D8F5F0E94CD
:1010F0008B0D8FE090E06F2D0E940336F0921B065F
:1011000018C060918B056F5F82E60E940719898184
:101110000E948B0D60918B056F5F84E70E94071919
:101120008A810E948B0D69814A8180918B050E9482
:10113000281D8F2D6EE675E04AE755E00E94A61C3B
:1011400080914705843119F082E192E002C081E785
:1011500092E068E272E00E94960515E08091F50445
:1011600081508093F5048091EF0482FD04C080914A
:10117000F00482FF4DCF1092EF048091F5048F5F51
:101180008093F504143161F4F39483E08F1508F42F
:10119000FF2484E765E00E9407198F2D8F5F1FC031
:1011A000153679F489818F5F89838981883108F0C8
:1011B000198260918B056F5F82E60E940719898111
:1011C0000EC0163671F48A816CE30E9471058A8321
:1011D00060918B056F5F84E70E9407198A810E94E6
:1011E000900D8091F50481508093F5048091F00476
:1011F00082FF0ECF8CED95E0F3013197F1F7019767
:10120000D9F706CF80914705853029F080914705B1
:10121000882309F04FCE80914705853029F48091CD
:10122000EF0481608093EF048091F50481508093F6
:10123000F5046EC38091EF0482FD04C08091F00438
:1012400082FF03CE1092EF0400CE84E08093470526
:10125000F0901306D0901706C09022060E94410617
:101260008091F5048F5F8093F50483E10E94B506B9
:101270008091F50481508093F5048AE08093F40412
:101280001092F60414E0BAE09B2EA8ECAA2EB12C22
:101290008091EF0480FD3CC38091EF04882321F40A
:1012A0008091F004882319F09092F40405C0809195
:1012B000F404882309F423C38091EF0481FF6CC0F8
:1012C0001092EF041092F6048091F5048F5F8093E2
:1012D000F504143079F480E562E00E9407198F2D3F
:1012E0000E94900D80E992E064E972E00E94B105ED
:1012F00015E64DC01536A9F480E562E00E94071995
:101300008F2D0E948B0D8AE30E94590D8D2D0E9416
:10131000900D89E992E06DE972E00E94B10516E650
:1013200036C01636A9F482E662E00E9407198D2DB8
:101330000E948B0D8AE30E94590D8C2D0E94900D06
:1013400082EA92E066EA72E00E94B10517E61FC0E9
:1013500084E762E00E9407198C2D0E948B0D82E1C8
:1013600092E068E272E00E949605F0921306D09235
:101370001706C09222062091160600912106E090E1
:1013800015068C2D6D2D4F2D0E94CE1B14E08091E3
:10139000F50481508093F5048091EF0482FD04C030
:1013A0008091F00482FF74CF1092EF048091F504D5
:1013B0008F5F8093F504153659F4F39487E18F1508
:1013C00008F4FF2480E562E00E9407198F2D19C000
:1013D000163659F48D2D6CE30E947105D82E82E6E5
:1013E00062E00E9407198D2D0CC0173661F48C2D18
:1013F0006CE30E947105C82E84E762E00E94071921
:101400008C2D0E94900D8091F50481508093F504FD
:101410008091F00482FF3CCF8CED95E0F50131978F
:10142000F1F70197D9F734CF87E080934705C09053
:10143000160610912106F09015060E944106809133
:10144000F5048F5F8093F5048BE10E94B5068091CF
:10145000F50481508093F5048AE08093F40410929F
:10146000F60407E0FAE0DF2EE8ECAE2EB12C809116
:10147000EF0480FD4DC28091EF04882321F4809118
:10148000F004882319F0D092F40405C08091F4048C
:10149000882309F434C28091EF0481FF5CC010926C
:1014A000EF041092F6048091F5048F5F8093F504A9
:1014B000073071F4812F6C2D4F2D2CE00E94EE052A
:1014C0008BEA92E06FEA72E00E94B1050CE03EC048
:1014D0000C3071F4812F6C2D4F2D2DE00E94EE0504
:1014E00084EB92E068EB72E00E94B1050DE02EC043
:1014F0000D3071F4812F6C2D4F2D2EE00E94EE05E2
:101500008DEB92E061EC72E00E94B1050EE01EC02E
:10151000812F6C2D4F2D27E00E94EE0582E192E095
:1015200068E272E00E949605F0921506109321067B
:10153000C09216068091220660911706409113060C
:101540002C2D012FEF2C0E94CE1B07E08091F5047B
:1015500081508093F5048091EF0482FD04C0809156
:10156000F00482FF84CF1092EF048091F5048F5F26
:101570008093F5040C3029F51F5F1D3010F011E049
:1015800055C0123089F48DE18C1510F47DE1C72E21
:101590008F2D90E00E94841B882309F047C08DE1C5
:1015A000C81609F043C040C0143031F0163021F0A5
:1015B000193011F01B30D1F58EE18C1508F4A2C161
:1015C00035C00D3001F5C3948FE18C1508F49DC131
:1015D000123061F48DE18C1508F497C18F2D90E0E5
:1015E0000E94841B882311F58DE109C0143031F06D
:1015F000163021F0193011F01B30C1F48FE1C816FC
:1016000009F483C113C00E3089F48F2D64E60E9463
:101610007105F82E90E00E94841B882339F4123063
:1016200029F48CE18C1510F46CE1C62E812F6C2D01
:101630004F2D202F0E94EE058091F504815080935C
:10164000F5048091F00482FF12CF8CED95E0F50156
:101650003197F1F70197D9F70ACF8FE080934705CB
:101660000E9441068091F5048F5F8093F50483E228
:101670000E94B5068091F50481508093F5048AE0BC
:101680008093F4041FE05AE0D52E48ECE42EF12CB0
:1016900001E08091EF0480FF05C060916C0588E057
:1016A00090E0A3C08091EF04882321F48091F0049E
:1016B000882319F0D092F40409C08091F40488239F
:1016C00029F460916C0588E090E0A5C08091EF045A
:1016D00081FF25C01092EF048091F5048F5F809305
:1016E000F5041F3061F480916C050E94D20586ECF0
:1016F00092E06CED72E00E9496051AE60BC08091B4
:101700007B050E94D20582E192E068E272E00E94CD
:1017100096051FE08091F50481508093F504809137
:10172000EF0482FD04C08091F00482FFB2CF1092DA
:10173000EF041A3631F580916C05882329F4009363
:101740006C0510927B0504C010926C0500937B051C
:101750008091F5048F5F8093F5040E94410686EC2A
:1017600092E06CED72E00E94960583E20E94B5065D
:1017700080916C050E94D2058091F5048150809380
:10178000F5048091F00482FF84CF8CED95E0F701A1
:101790003197F1F70197D9F77CCF88E0809347051F
:1017A0000E9441068091F5048F5F8093F50481E7E4
:1017B00092E060E070E00E9496058BE20E94B50620
:1017C0008091F50481508093F5048AE08093F404BD
:1017D00018E00AE038ECE32EF12C8091EF0480FF52
:1017E00007C06091B40083E090E00E94033690C08F
:1017F0008091EF04882321F48091F004882319F06C
:101800000093F4040BC08091F404882339F46091B0
:10181000B40083E090E00E94033671C08091EF0431
:1018200081FF2DC01092EF048091F5048F5F8093AB
:10183000F504183081F484E765E00E94071980916F
:10184000B4000E94900D86EC92E06CED72E00E9474
:10185000960519E60FC084E765E00E94071980919C
:10186000B4000E948B0D81E792E068E272E00E9472
:10187000960518E08091F50481508093F5048091DD
:10188000EF0482FD04C08091F00482FFA6CF109285
:10189000EF04193641F58091B4008F5F8093B40056
:1018A0008091B400813110F01092B4008091F50461
:1018B0008F5F8093F5040E94410686EC92E06CED08
:1018C00072E00E9496058BE20E94B50684E765E00F
:1018D0000E9407198091B4000E94900D8091F50438
:1018E00081508093F5048091F00482FF76CF8CEDD7
:1018F00095E0F7013197F1F70197D9F76ECF109284
:10190000470506C02EE1C22E91CECC24C3948ECEC4
:101910000F900F900F900F90CF91DF911F910F912B
:10192000FF90EF90DF90CF90BF90AF909F908F90FF
:101930007F906F905F904F900895482FDB0130E0CB
:1019400021C04423E9F4892F81568A3110F420E222
:1019500005C09B3710F420E001C02AE1892F90E0F8
:101960008097821B9109FC01EE0FFF1FE80FF91F02
:10197000EE0FFF1FEA59FD4FE4913F5F3E0F01C09C
:101980003A5F11969C919923E1F6832F0895A82F31
:10199000B0E0FD01E457FA4FE08181E090E002C041
:1019A000880F991F6A95E2F7413011F48E2B02C01F
:1019B00080958E23E81711F480E00895A457BA4F5C
:1019C0008C9381E00895282F9091F8048091F90478
:1019D000981711F480E00FC08091F704E091FA04A9
:1019E000F091FB04882321F4EA59FD4F849103C050
:1019F000EA57FF4F8491222309F480950895282FF8
:101A00008091F704882301F5822F81568A3110F4E2
:101A100040E205C02B3710F440E001C04AE1822FBC
:101A200090E08097841B91099C01220F331F280F9F
:101A3000391F220F331FF901EA59FD4FE491E0935A
:101A4000F9042F5F3F4F08C085E08093F904289F79
:101A500090011124205A3040C9010895FF920F933C
:101A60001F93CF93DF93F62E95E0899FC001112439
:101A7000EC01CA51D0408C0105511040FE01849107
:101A8000FF2009F480950E9444192196C017D107C0
:101A9000A9F7FF2011F48FEF01C080E00E944419E4
:101AA00080E00E94E018DF91CF911F910F91FF908D
:101AB000089560917B050E942E0D08951F93CF938A
:101AC000DF93EC01162F04C0612F0E942E0D21968A
:101AD00088818823C9F7DF91CF911F910895609184
:101AE0007B050E945E0D08950F931F93182F062FFC
:101AF0006AE00E947E35805D602F0E942E0D812F4E
:101B00006AE00E947E35892F805D602F0E942E0D35
:101B10001F910F91089560917B050E94740D0895A7
:101B200060916C050E94740D0895EF92FF920F93DF
:101B30001F93E82E142F262F277081E090E0082FA6
:101B400001C0000F2A95EAF7F62EF694F694F69463
:101B50008E2D6F2D0E9407190E94BD180E94BD187E
:101B6000113019F4102F182B03C0102F10951823C3
:101B7000811739F08E2D6F2D0E940719812F0E9439
:101B800044191F910F91FF90EF900895DF92EF920B
:101B9000FF920F931F93CF93DF93182FD42E0E94A1
:101BA00007196CE8E62E65E0F62EC0E0D0E0012FC4
:101BB00010E014C0CC2331F0CE01800F911F80348F
:101BC000910521F40E94BD18F70180830E94BD1881
:101BD000F70181937F010E941C192196CD1550F3C6
:101BE000DF91CF911F910F91FF90EF90DF900895BB
:101BF0002F923F924F925F926F927F928F929F921D
:101C0000AF92BF92CF92DF92EF92FF920F931F930A
:101C1000DF93CF93CDB7DEB766970FB6F894DEBFEC
:101C20000FBECDBFB82E862EF42E922ED12EED866D
:101C3000CE86AF864093F704842F602F712F0E94C9
:101C40009D0C2E85829F802D11248C87FF2011F002
:101C500087E001C085E03D85839F302D11243C83C2
:101C600042E0941639F0BF825FEF58871E8287E00A
:101C70008D830AC081508E83B3949B2DEC819E1B73
:101C80009F83F1E0F8871D82282D269526952695BD
:101C90002A87182D1770202F3D2DC9019E8B8D8B03
:101CA0002C0119862224DD243324BB241B863C8589
:101CB000632E7724A301485F5F4F5C8B4B8BF7C08B
:101CC000112329F052E0951661F0173019F081E0E8
:101CD000981639F0C3018D199109089714F008E09E
:101CE00022C08F816A854C810E94C60D92E09916B0
:101CF00051F4C301810F911D8D19910909978CF041
:101D000008E0011B10C0E1E09E1659F48B899C8904
:101D10008D199109811B910909971CF0012F0F5F03
:101D200002C00C850D198F816A850E940719402F0A
:101D300050E088E090E0841B950B2FEF30E002C06C
:101D4000359527958A95E2F730E082E0981639F4C8
:101D5000012E02C0220F331F0A94E2F70AC0812F1E
:101D600090E00196841B950B02C0220F331F8A95C9
:101D7000E2F7822E81E090E002C0880F991F1A9549
:101D8000E2F78983AE80CC24EE24F985EF2FF0E0D2
:101D9000F98BE88B20952A8B7AC0083029F0EC2D3E
:101DA000F0E0E457FA4F3080EE2009F060C039854A
:101DB0003093F804F20180810E94FF0C2889398950
:101DC000820F931F9093FB048093FA048F850E94E7
:101DD000E30C282F41E050E00A2C02C0440F551FAD
:101DE0000A94E2F75B834A83F02E19815E8A4D8A5A
:101DF000BB8422243AC0822F90E0EA81FB818E23AB
:101E00009F23892B09F0212AF2E09F1611F4110F6C
:101E100001C01695B3943E85B31631F59091F80440
:101E20008091F904981749F09F5F9093F80480918E
:101E3000FA049091FB0401960EC04D895E894F5FB4
:101E40005F4F5E8B4D8B1092F804FA0180818823DE
:101E500031F00E94FF0C9093FB048093FA048F856D
:101E60000E94E30C282FBB24FA94FF2021F6822D38
:101E70008821FA893F22382A832D0E944419E3944D
:101E80002D85E21619F43885A31AEE24C3944C81EB
:101E9000C41608F482CF5A858885580F5A87D00E09
:101EA0009091F8049987BB861D814D885E88EC85EA
:101EB000DE1608F405CF8E2F66960FB6F894DEBFB7
:101EC0000FBECDBFCF91DF911F910F91FF90EF908B
:101ED000DF90CF90BF90AF909F908F907F906F904A
:101EE0005F904F903F902F9008952F923F924F9286
:101EF0005F926F927F928F929F92AF92BF92CF929A
:101F0000DF92EF92FF920F931F93DF93CF93CDB7A2
:101F1000DEB72D970FB6F894DEBF0FBECDBF8C8312
:101F2000F62E142F2F8338870D832E2CCE824093CC
:101F3000F704842FB9010E949D0C2D81829F302CC3
:101F40001124112311F087E001C085E06F2C669405
:101F50006694669477E0E72EEF20829D402C112452
:101F6000BB241B82CC2400E05524882477249924A8
:101F7000AA24842D90E09B878A87BAC0EE2041F482
:101F80008A859B858B199109089714F018E012C077
:101F90008C81662D432D0E94C60D8A859B858E0DF2
:101FA000911D8B19910909971CF018E01E1902C0A8
:101FB000142D1B198C81662D0E94071988E090E072
:101FC000811B9109EFEFF0E002C0F595E7958A9546
:101FD000E2F70E2C01C0EE0F0A94EAF7EA83F1E073
:101FE0000E2C01C0FF0F0A94EAF7F9832F81388580
:101FF000C9019D878C87FF24DD24212F270D298788
:102000006FC09091F8048091F904891710F0FF20B7
:1020100069F41092F804EC85FD858191FD87EC87C9
:102020000E94FF0C9093FB048093FA04FD81DF165D
:1020300011F0FF2099F48E810E94E30C8B83809134
:10204000F8048F5F8093F8048091FA049091FB0468
:1020500001969093FB048093FA04DD24183029F054
:10206000EF2DF0E0E457FA4FC080DD2071F52B81B1
:10207000822F90E031E0231679F4072C02C0959569
:1020800087950A94E2F7A82E0E2C01C0AA0C0A9498
:10209000EAF78984052D18C0072C02C0959587950D
:1020A0000A94E2F7052D872C212F9981AA240AC0D2
:1020B00080FDA92A0F5F021519F48695839400E02C
:1020C000990F21502223A1F79A80892D8095C8224B
:1020D0008A2D8921C82A8C2D0E944419D394F39407
:1020E000F31408F48ECF6394B10EEE24782C502EA6
:1020F000B41408F443CF832D2D960FB6F894DEBFA9
:102100000FBECDBFCF91DF911F910F91FF90EF9048
:10211000DF90CF90BF90AF909F908F907F906F9007
:102120005F904F903F902F900895CF92EF920F9332
:10213000C02E01E0EE24E3940E94750F0F91EF9002
:10214000CF9008952F923F924F925F926F927F921D
:102150008F929F92AF92BF92CF92DF92EF92FF92B7
:102160000F931F93DF93CF93CDB7DEB728970FB6AA
:10217000F894DEBF0FBECDBF0F83481B922F961B76
:10218000E42FFF27E7FDF095F7FF03C0F095E195F9
:10219000FF4F4E2EE92FFF27E7FDF095F7FF03C015
:1021A000F095E195FF4F5E2E14161CF431E03E834E
:1021B00006C0442311F41E8202C05FEF5E8319162D
:1021C0001CF43324339406C0992311F4332402C041
:1021D00033243A94452D4695942D9695B62EB69473
:1021E000B694B69426952695269530E02B1931099C
:1021F00037FF03C0309521953F4FE22FEF5FED830E
:102200004B83292E982E662E1C821A828CC0482D54
:102210004F5F411B812F6B2D0E94C60D892D811BA5
:1022200068854F810E94C70CA82E772473944514AB
:1022300028F4CA80FB80092DD62C4CC0CA80E22C21
:10224000092DD62C198224C0E50CE41450F0E418B2
:10225000D30C8D2D869586958695B81611F0F1E0F4
:10226000F9833E81030F59815130B9F1772039F458
:10227000011708F4102F801650F4802E08C06D2D21
:102280006770802F811B4F810E94C70CA82AC394BE
:10229000C414D0F222C0F40CF51418F0F5188E8195
:1022A000080FD30C8D2D869586958695B816B9F4B2
:1022B000772039F4011708F4102F801650F4802E7F
:1022C00008C06D2D6770802F811B4F810E94C70C45
:1022D000A82AC394C514F8F202C0FB8001C0E22C06
:1022E00091E0791609F093CFA91699F4812F6B2DFF
:1022F0000E940719612E77240AC0E12FF0E0E61949
:10230000F709E457FA4F80810E9444191F5F811634
:10231000A0F7C394CA82B30CEC81EF5FEC836D2C01
:10232000902E2E2CFB82FC813D81F31740F4192D59
:10233000892CAA247724562D5770588778CF289651
:102340000FB6F894DEBF0FBECDBFCF91DF911F91C6
:102350000F91FF90EF90DF90CF90BF90AF909F9044
:102360008F907F906F905F904F903F902F90089547
:102370002F923F924F925F926F927F928F929F9295
:10238000AF92BF92CF92DF92EF92FF920F931F9383
:10239000DF93CF93CDB7DEB727970FB6F894DEBFA4
:1023A0000FBECDBF582E362F4A83922E1E2DCB82C4
:1023B00087E0C82EC6220023B1F4123039F48C2DE8
:1023C00063E00E947E35092F01951EC0133031F461
:1023D0008C2D63E00E947E35092F16C0113009F064
:1023E00014C1062F26C0013039F5123079F48C2D36
:1023F00090E0820F911D909581959F4F63E070E072
:102400000E94AB35082F0F5F20E02DC0133059F428
:102410008C2D90E00197820F911D63E070E00E9487
:10242000AB35082FF1CF113009F0EFC00C2D0F5F45
:10243000020F017020E019C0023009F0E6C0252D1E
:10244000123029F4862F90E08C19910907C01330BF
:1024500009F0DCC08C2D90E0861B910963E070E0F0
:102460000E94AB35082F07FD0D5FA32EA694A694FE
:10247000A694BB24FF24EE24DD24692C7724B8E045
:102480002B2E312C312F32503C83822F992787FD00
:1024900090959F838E83B5C0CC2049F4C3018B19DE
:1024A0009109089724F0143011F0198207C0852D86
:1024B0006A2D4A810E94C60D91E09983852D6A2D6F
:1024C0000E940719EC2DF0E093012B193109C1018D
:1024D0008E1B9F0B281739071CF4C92CCB1803C07F
:1024E000A8E0AC19CA2EBC81B23070F4802F9927B5
:1024F00087FD90952E813F81820F931F63E070E0EE
:102500000E94AB35D82E11C0113079F4802F992755
:1025100087FD9095AE81BF818A279B2780FF03C0EE
:10252000A5E5EA2E02C0FAEAEF2EC1018C19910945
:102530002FEF30E002C0359527958A95E2F7C90163
:1025400002C0880F991FEA95E2F7882E482E409422
:1025500090E049C03981313029F4E92FF0E0E457A7
:10256000FA4FF080112319F4EE24EA9421C01530BB
:1025700011F4EE241DC0113031F48B818130B9F09B
:102580009923B1F414C0123039F4ED2DFF27E7FD83
:10259000F095E559FC4F08C0133041F4ED2DFF27AD
:1025A000E7FDF095E259FC4FE08002C0EF2CE0948B
:1025B000AB81AA2319F4143009F0E094B8E0CB16EB
:1025C00011F4FE2C04C08E2D8821F420F82A8F2DC2
:1025D0009D830E9444199D81E2E0DE1611F4DD2402
:1025E00001C0D3949F5FFA819F1708F4B3CF1230D4
:1025F00011F40E5F03C0133009F40F5FA394BC0CF9
:10260000CC24B91408F448CF03C020E000E02DCF5B
:1026100027960FB6F894DEBF0FBECDBFCF91DF91E6
:102620001F910F91FF90EF90DF90CF90BF90AF90F0
:102630009F908F907F906F905F904F903F902F90E2
:1026400008958F929F92AF92BF92CF92DF92EF92B6
:10265000FF920F931F93B82E962E142FD22E802EFA
:10266000442391F1222381F14330A8F0A82EA394B2
:102670009EEFF92EF40E8A2D4F2D21E002E0EE247C
:10268000C82C0E94B811692D61506D0D8A2D4F2DF7
:1026900021E00E94B8118B2D692D41E02D2D02E023
:1026A000EE24C82C0E94B811123018F481E08D1568
:1026B00058F4BA948B2D810F692D41E02D2D02E045
:1026C000EE24C82C0E94B8111F910F91FF90EF903B
:1026D000DF90CF90BF90AF909F908F900895CF9252
:1026E000EF920F93C02E02E0EE240E94B8110F91DA
:1026F000EF90CF9008954F925F926F927F928F925A
:102700009F92AF92BF92CF92DF92EF92FF920F9380
:102710001F93CF93DF93582E462E622E702EF42EE9
:10272000842F90E0880F991F909581959F4FE3E04B
:10273000DE2ED80E862EAA24A39410E0C0E0D0E0AE
:10274000992468C0BF1409F1D7FC1FC021E0A2166C
:1027500009F4110F642D6F19412F4F5F2F2D33276F
:1027600027FD3095220F331F852D8C1B02E0E62CB0
:10277000C72C0E94B811BB20B9F18F2D850D682D93
:1027800041E0292D0E94B81104C0BB2021F1D7FCE3
:1027900024C0AA2091F4852D8C0F642D6F19412F30
:1027A0004F5F2F2D332727FD3095220F331F811BBD
:1027B00002E0E62CC72C0E94B811BF1010E01F5F8A
:1027C000852D8F19682D412F292D02E0E62CC72C6D
:1027D0000E94B81109C0D7FE07C036E0D30E892D7C
:1027E000880FD80E1F5F12C08AE0D80E8F2D992750
:1027F00087FD90959E01281B390BC901880F991FF1
:10280000880F991FD80EFA94AA2410E021968A9472
:1028100032E0930EBC2EFC160CF094CFDF91CF91DA
:102820001F910F91FF90EF90DF90CF90BF90AF90EE
:102830009F908F907F906F905F904F9008952F9210
:102840003F924F925F926F927F928F929F92AF9240
:10285000BF92CF92DF92EF92FF920F931F93DF937D
:10286000CF93CDB7DEB762970FB6F894DEBF0FBE39
:10287000CDBF982E688749872A87702E462E55240B
:10288000842F90E09201281B390B63E03595279542
:102890006A95E1F7840D951D53E0959587955A95B6
:1028A000E1F7482F4F5F421B4F838EEFE985E80227
:1028B000C0011124F82FFD5FF9832E831D825C86F1
:1028C0004B86292D30E03E872D873A8531503F8752
:1028D000492D440F488B69C1DD2019F41FEFEE2408
:1028E0001AC081E0D81661F40F3F09F458C14E2D8B
:1028F0004F5F401B802F6E810E94C60D102F0BC0B2
:1029000018891E19E888E01A4E2D4F5F411B812F50
:102910006E810E94C60D012FF984C98098859B8322
:10292000892C9A83662410E01A8A198A1C8216C19F
:10293000EA85EE23B9F0FF85F23068F429893A89F7
:102940002170307080E090E0E23011F481E090E09E
:102950002817390739F02A85233009F0D1C06620BD
:1029600009F0CEC0AF2CBB24A7FCB094C501840DE8
:10297000951D43E0959587954A95E1F78215930556
:1029800039F5DD2099F42D853E8589899A89280FAE
:10299000391F802F90E0281739070CF4082D8E2D51
:1029A00090E082179307A4F4E82C12C0892D801BB5
:1029B00068856F0D91E0D91621F46770E9898E0F53
:1029C00003C06770F9898F1B472D0E94C70C182B15
:1029D000C2018A199B0933E0959587953A95E1F7ED
:1029E0008215930539F5DD2099F42D853E85898979
:1029F0009A89280F391F802F90E0281739070CF487
:102A0000082D8E2D90E082179307A4F4E82C12C0B5
:102A100068856F1991E0D91621F46770882D801BA5
:102A200005C0892D801B6770E9898E1B472D0E9488
:102A3000C70C182B8B859C8529893A89820F931F97
:102A400023E0959587952A95E1F78215930529F559
:102A5000DD2099F42D853E852A0D3B1D802F90E0C9
:102A60002817390714F40F2D090D8E2D90E08217C9
:102A700093079CF4EF2CE90C10C06A81677031E079
:102A8000D31621F48F2D890D801B03C0892D801B47
:102A90008F19472D0E94C70C182B8B859C85E989BF
:102AA000FA898E1B9F0BB3E095958795BA95E1F750
:102AB0008215930529F5DD2099F42D853E852A0D93
:102AC0003B1D802F90E02817390714F40F2D090DB6
:102AD0008E2D90E0821793079CF4EF2CE90C10C028
:102AE0006B816770F1E0DF1621F48F2D890D801B5B
:102AF00003C0892D801B8F19472D0E94C70C182BEE
:102B0000C7FE05C02C81C20E36E0C30E11C04AE0DC
:102B1000C40E8F2D992787FD9095E989FA89E81BC6
:102B2000F90BCF01880F991F880F991FC80EFA94CF
:102B3000F2E06F1611F4662401C0639429893A8982
:102B40002F5F3F4F3A8B298B3C813C5F3C834B810D
:102B500041504B8383948A818F5F8A839989F916C8
:102B60000CF0E6CEDD20B1F01130A1F4802F6E81A3
:102B70000E940719102FA02EBB240AC0E12FF0E0FD
:102B8000EA19FB09E457FA4F80810E9444191F5F3C
:102B9000E116A0F7D394E3E0DE1609F09DCEFE81A6
:102BA000FF5FFE832D812F5F2D833D814F81341781
:102BB00038F40FEFEE24DD248E81282E3324ACCEA2
:102BC00062960FB6F894DEBF0FBECDBFCF91DF91F6
:102BD0001F910F91FF90EF90DF90CF90BF90AF903B
:102BE0009F908F907F906F905F904F903F902F902D
:102BF0000895459A449A1092430510924205109206
:102C000045051092440580E28093B800ECEBF0E0BB
:102C10008081846080831092FC0480818160808345
:102C20008081806480837894089580E28093B800E6
:102C30000895ECEBF0E080818F70806A80830895C6
:102C4000ECEBF0E080818F70806D8083089580913F
:102C5000BC0087FFFCCF08958093BB00ECEBF0E055
:102C600080818F70806880830895882329F0809107
:102C7000BC008F70806C04C08091BC008F70806835
:102C80008093BC0008958091BB000895982FFA01AD
:102C90008091BC008E7F8093BC008091BC008F70BF
:102CA000806A8093BC008091BC0087FFFCCF9E7F30
:102CB0009093BB008091BC008F7080688093BC00B3
:102CC0008091BC0087FFFCCF8091B900883189F0EA
:102CD00091E012C080818093BB008091BC008F7016
:102CE00080688093BC008091BC0087FFFCCF319648
:102CF0006150662379F790E08091BC008F70806D01
:102D00008093BC008091BC0084FFFCCF8091BC000C
:102D100081608093BC00892F08951F93CF93DF9328
:102D2000982F162FEA018091BC008E7F8093BC0003
:102D30008091BC008F70806A8093BC008091BC0041
:102D400087FFFCCF91609093BB008091BC008F7097
:102D500080688093BC008091BC0087FFFCCF80918D
:102D6000B900803469F091E018C08FEF0E943516E9
:102D70008091BC0087FFFCCF8091BB0089931150EC
:102D8000123098F780E00E9435168091BC0087FFD2
:102D9000FCCF8091BB00888390E08091BC008F7055
:102DA000806D8093BC008091BC0081608093BC00EA
:102DB000892FDF91CF911F9108951F920F920FB627
:102DC0000F9211242F933F934F935F936F937F93B1
:102DD0008F939F93AF93BF93EF93FF938091B9002D
:102DE000887F883609F4CBC0893688F5803309F4AA
:102DF00095C08133B0F4803109F45AC0813138F480
:102E0000882309F43EC1883009F048C151C080329E
:102E100009F484C0883209F453C0883109F03EC1F6
:102E20004FC0883409F47AC0893438F4883309F4FF
:102E300078C0803409F032C192C0883509F45DC091
:102E4000803609F49CC0803509F028C174C0803AEE
:102E500009F4BEC0813AB0F4803809F49BC08138CF
:102E600038F4803709F48BC0883709F017C187C060
:102E7000803909F48FC0883909F4A1C0883809F075
:102E80000DC19DC0883B09F4D1C0893B38F4883A14
:102E900009F4B6C0803B09F001C1B2C0883C09F416
:102EA000E0C0883F09F4E7C0803C09F0F7C0D9C012
:102EB00087E595E060E00E94D41F8091FD0414C076
:102EC00088E395E060E00E94D41F90911E058091F8
:102ED0001F05981708F0DAC0E92FF0E0E250FB4F29
:102EE00080819F5F90931E058093BB008091BC0002
:102EF0008F7080688093BC00D1C083E295E060E071
:102F00000E94D41F809140059091BB00E82FF0E013
:102F1000E05EFA4F90838F5F809340058DEF94E0E1
:102F2000B2C089EE94E060E00E94D41F8091BC00A2
:102F30008F708068AFC085ED94E060E00E94D41F80
:102F40008091BB0090914005E92FF0E0E05EFA4FE0
:102F500080839F5F9093400590E00E94BF1F82ECAA
:102F600094E060E00E94D41F2091400530E0809101
:102F7000410590E001972817390734F51EC08FEA04
:102F800094E060E00E94D41F85E08093FC041092DE
:102F9000400562C08BE994E060E00E94D41F8091FC
:102FA00040059091BB00E82FF0E0E05EFA4F90837F
:102FB0008F5F80934005803238F48FEF06C086E83B
:102FC00094E060E00E94D41F80E00E94351666C045
:102FD00083E794E060E00E94D41F8091BC008F7072
:102FE000806C8093BC00E0914205F09143053097DE
:102FF00009F452C08091400560E275E009954CC02B
:1030000080E694E060E00E94D41F84E08093FC049A
:10301000E0914405F0914505309731F080E26EEF84
:1030200074E0099580931F0510921E058CE494E0CE
:1030300060E00E94D41F90911E05E92FF0E0E2505D
:10304000FB4F80818093BB009F5F90931E05809112
:103050001F05981708F04ACF8091BC008F70806CD4
:1030600049CF8AE294E060E00E94D41F8091BC00C6
:103070008F70806C0FC08BE194E060E00E94D41FE1
:103080000DC08AE094E060E00E94D41F8091BC00F3
:103090008F70806D8093BC001092FC04FF91EF91C3
:1030A000BF91AF919F918F917F916F915F914F9160
:1030B0003F912F910F900FBE0F901F901895F8948D
:1030C00040985A98882319F0813021F402C0409A20
:1030D00001C05A9A8BB1806F8BB985B18F6085B969
:1030E0002F988AB18F708AB984B1807F84B92D9A64
:1030F0002C9A000000000AC02C980000000000007C
:1031000000002C9A000000000000000089B193B17B
:1031100087FDF2CF2C982D988AB1806F8AB984B13F
:103120008F6084B9789408951F93162FF8940E94A5
:103130005F182F982D982C9A8AB1806F8AB984B124
:103140008F6084B98BB18F708BB99BB1812F807FD9
:10315000892B8BB985B1807F85B985B11F70812B93
:1031600085B9000000000000000000000000000021
:1031700000002C9878941F910895F89480910C0683
:1031800082958695869583700E945F182F9A8AB1E2
:103190008F708AB984B1807F84B92D9A2C9A0000EF
:1031A000000000000000000000000000000099B1D5
:1031B00083B12C982D9878948F70907F892B0895E7
:1031C0001F93182F106C80E0612F0E94941881E0EB
:1031D000612F0E9494181F91089580930C0680E03F
:1031E00060E40E94941810920E0681E060E40E9450
:1031F00094181092100680910C06682F6F7360640B
:1032000082958695869583700E94941808950F93F1
:103210001F93082F162F60930D06186B80E0612F07
:103220000E94941881E0612F0E949418802F0E94C0
:10323000ED181F910F9108951F9380910C06E82FB0
:10324000E295E695E695E370F0E0EE0FFF1FE25F92
:10325000F94F90819F5F90838F5F80930C0687FF6B
:1032600011C010910D061F5F10930D06186B80E0C2
:10327000612F0E94941881E0612F0E94941880E0D1
:103280000E94ED181F9108951F93182FF8948091B4
:103290000C0682958695869583700E945F182F9AFA
:1032A0002D982C9A8AB1806F8AB984B18F6084B9C5
:1032B0008BB18F708BB99BB1812F807F892B8BB99C
:1032C00085B1807F85B985B11F70812B85B90000DC
:1032D00000000000000000000000000000002C982A
:1032E00078940E941C191F910895FF920F931F93C9
:1032F000813011F0FF2402C0FF24FA9400E080E046
:10330000602F0E94071910E08F2D0E9444191F5F43
:103310001038D1F70F5F083091F71F910F91FF9090
:1033200008951F93182F2F982D982C9840985A98ED
:10333000279A259A249A389A529A8BB18F708BB912
:1033400085B1807F85B98AB1806F8AB984B18F6079
:1033500084B980E06FE30E94941881E06FE30E94DB
:103360009418812F0E94751980E00E94E01880E077
:1033700060E00E94071910920E0610920F0610923C
:103380001006109211061F9108951F920F920FB60A
:103390000F9211242F933F934F935F936F937F93DB
:1033A0008F939F93AF93BF93EF93FF9380911D06ED
:1033B000882329F080911D06815080931D068091FD
:1033C000F104882329F08091F10481508093F10465
:1033D00080914805813009F094C080914905909111
:1033E0004A05892B09F08DC080911F069091200617
:1033F000892B09F07CC090914E0580914D0598175E
:1034000001F5809172038130E1F480917103803283
:1034100019F41092710303C08E5F80937103E091E1
:1034200071032E2F30E0C9018D56994FFC01849114
:1034300080934E052C56394FF9019491980F909333
:103440004D0580917203E0914E05813009F510928F
:1034500072032E2F30E0F901E959FA4FE49189E027
:10346000E89FC00111249093520580935105235089
:103470003A4FF90194918FE5989FC001112463E0C0
:1034800070E00E9497357093200660931F0610C06D
:1034900081E08093720310925205109251058FE2E1
:1034A00090E09093200680931F06EF5FE0934E0517
:1034B00020915105309152052115310521F41092CA
:1034C0008100439814C01092800089E080938100AD
:1034D00083E080936F0040E050E060E079E08DE3AE
:1034E00090E00E94BE35309389002093880080913F
:1034F0001F069091200601979093200680931F0647
:1035000018C080914B0590914C058F5F9F4F89F4B7
:1035100010928100439810924C0510924B0580E266
:103520008093710380914D0580934E0581E08093D7
:103530007203FF91EF91BF91AF919F918F917F9116
:103540006F915F914F913F912F910F900FBE0F9010
:103550001F9018951F920F920FB60F9211248F9300
:103560009F9388B198E0892788B99F918F910F9098
:103570000FBE0F901F9018951F920F920FB60F92CB
:1035800011248F939F9388B198E0892788B99F91E0
:103590008F910F900FBE0F901F9018951E9B21C00A
:1035A00080911A068130A9F510921A0610924A05E8
:1035B0001092490510924C0510924B0590914805C8
:1035C000913039F5109248051092810080E2809385
:1035D000710380914D0580934E059093720343983B
:1035E000089580911A068823A1F481E080931A0639
:1035F00010924A051092490510924C0510924B0505
:1036000090E29093710390914D0590934E058093B5
:10361000720308951F93162F1092800029E02093C3
:10362000810023E020936F009C0140E050E060E0C7
:1036300079E08DE390E00E94BE35309389002093BD
:10364000880020E533EC04C0C9010197F1F7195156
:103650001931D0F71092810043981F910895CF93AC
:10366000DF93C82FD0E0E42FF0E0E053F84F833031
:1036700010F42C963197262F30E02F5F3F4F2E0FFE
:103680003F1FCE01880F991F280F391FCF01969534
:10369000879596958795280F391FCF0160E971E0CE
:1036A0000E949735260F371FCF0164E670E00E9415
:1036B0009735261B370BAE014F5F5F4FCA01880F4E
:1036C000991F840F951F880F991F6AE070E00E9470
:1036D0009735C901860F971F67E070E00E94973504
:1036E000DF91CF910895482F6AE00E947E35282F00
:1036F00030E0B4E0220F331FBA95E1F7842F0E9427
:103700007E35892F822B0895FC0183709070892B60
:1037100039F4CF0164E670E00E949735892B49F4B3
:1037200020E030E0CF0160E971E00E949735892BFD
:1037300011F421E030E0822F08951092E804809186
:1037400046058823E1F38CE3809318061092460522
:10375000809146058823E1F381E08093E804089591
:10376000CF93DF937894C8ECD0E080EA9FE064E6E2
:103770000E940A1B88EE93E0FE013197F1F7019752
:10378000D9F780EA9FE064E60E940A1B80E197E295
:10379000FE013197F1F70197D9F7E7CFDF92EF926A
:1037A000FF920F931F93DF93CF93CDB7DEB7289788
:1037B0000FB6F894DEBF0FBECDBF162FF42ED22E5B
:1037C00019820E94731B8A83812F0E94731B8B8333
:1037D0008F2D0E94731B8C831D828D2D0E94731B65
:1037E0008E83802F0E94731B8F838E2D0E94731BEC
:1037F0008887F89480ED68E0AE014F5F5F4F0E94CC
:1038000046167894882319F062E00E94B01B28962F
:103810000FB6F894DEBF0FBECDBFCF91DF911F91E1
:103820000F91FF90EF90DF900895DF93CF93CDB786
:10383000DEB729970FB6F894DEBF0FBECDBF198251
:10384000F89480ED61E0AE014F5F5F4F0E94461635
:10385000882319F060E00E94B01B80ED67E0AE01A4
:103860004E5F5F4F0E948D167894882319F061E0B7
:103870000E94B01B7A81872F829587706AE0869FAD
:10388000C0011124272F2F70280F209322062B818F
:10389000822F82958770869FC00111242F70280F78
:1038A000209317068C81482F42954F70582F5F70D8
:1038B00086FF18C082958695877090E08170907021
:1038C0009C01220F331F280F391F220F331F220F95
:1038D000331F4170469FC0011124280F250F2093EC
:1038E000130607C04370469FC0011124580F509320
:1038F00013062E81822F829583703AE0839FC00148
:1039000011242F70280F209316062F81822F829565
:103910008170839FC00111242F70280F20932106EE
:103920002885822F82958F70839FC00111242F706C
:10393000280F20931506872F807829960FB6F894C4
:10394000DEBF0FBECDBFCF91DF910895EF92FF9202
:103950000F931F93CF93DF938B017A01882329F470
:1039600021E030E0C2E0D0E009C090E00197880F8C
:10397000991F9C01275F3F4FEC012A96C9010E94C5
:10398000FB3568E10E947E35F8019083CE010E94EC
:10399000FB356CE30E947E35F7019083DF91CF9178
:1039A0001F910F91FF90EF90089580E090E00E94AA
:1039B000FB35833C09F44BC081E090E068E00E9455
:1039C000033682E090E060E00E94033683E090E0FE
:1039D00060E10E94033684E090E061E00E940336DB
:1039E00085E090E065E00E94033686E090E061E0CB
:1039F0000E94033688E090E060E00E94033689E090
:103A000090E069E00E9403368AE090E06FE00E9457
:103A100003368BE090E06AE00E9403368CE090E091
:103A20006EE10E9403368DE090E06BE00E94033669
:103A30008EE090E06DE20E9403368FE090E060E05F
:103A40000E94033680E090E063EC0E940336089504
:103A50000F931F93DF93CF9300D0CDB7DEB7698369
:103A60004A83882329F421E030E002E010E00AC014
:103A700090E00197880F991F9C01275F3F4F8C01B1
:103A8000065F1F4F6981C9010E9403366A81C80120
:103A90000E9403360F900F90CF91DF911F910F91ED
:103AA00008951F920F920FB60F9211241F932F9318
:103AB0003F934F935F936F937F938F939F93AF93B6
:103AC000BF93EF93FF93A89580914F05853349F4F9
:103AD00010924F051091220680915005813059F4C3
:103AE00004C08F5F80934F05CCC010924C0510929C
:103AF0004B05109250050E94CE1A0E94151C809111
:103B00002206811709F461C08091F404882329F00A
:103B10008091F40481508093F40490914805913091
:103B200031F52091490530914A052130310551F494
:103B300080E28093710380914D0580934E059093B0
:103B4000720303C02115310531F02150304030930C
:103B50004A052093490580914B0590914C05181614
:103B600019062CF4019790934C0580934B05809196
:103B70004705853081F080914705873061F080915D
:103B800047058A3041F080914705883021F08091C7
:103B900047058F30D1F48091F5048823B1F480E596
:103BA00062E00E940719809113060E948B0D8AE340
:103BB0000E94590D809117060E948B0D8AE30E9486
:103BC000590D809122060E948B0D80914605882315
:103BD00009F590911806809122069817D9F08091E6
:103BE000220680931806809117068093190680910B
:103BF0001306809312068091160680931406809116
:103C0000210680931C068091150680931E0681E094
:103C10008093460580911A06813099F58091480578
:103C2000813091F480914B0590914C05892B61F482
:103C30001092480510924A05109249058FEF9FEFA8
:103C400090934C0580934B05809148058823C9F4D7
:103C5000809122068823A9F49091170680917A0515
:103C6000981779F49091130680916E05981749F48E
:103C700081E08093480588E097E090934C0580931D
:103C80004B05FF91EF91BF91AF919F918F917F91E4
:103C90006F915F914F913F912F911F910F900FBEA8
:103CA0000F901F901895EF92FF920F931F93CF9351
:103CB000DF9314BE88E10FB6F894809360001092F1
:103CC00060000FBE8AE190E00E947F1F3B9A8CE368
:103CD000809318060E94F9150E94151C882349F04C
:103CE00080E060E04CE021E001E010E1E12E0E9484
:103CF000CE1B0E94151C87E08093B10081E0809369
:103D0000700078940E94D51C88E090E00E94FB35FA
:103D1000817080936C0580916C0590E0882309F494
:103D200091E090937B058FE090E00E94FB358370DB
:103D300080931B0680911B066EE675E04AE755E00E
:103D40000E94A61C0E948A0410921A06109248052E
:103D500010924A051092490510924C0510924B059D
:103D60000E94CE1A82E084BD83E085BD8DE787BDC9
:103D700080916E00826080936E00539A80E28093FF
:103D8000B0008091B00083608093B0008091B1005A
:103D900088608093B10080E18093B30083E090E07D
:103DA0000E94FB358093B400259A80EA9FE064E688
:103DB0000E940A1B2FE088E190E00FB6F894A895C6
:103DC000809360000FBE2093600080916C050E947C
:103DD00091190E9462040E949D1B85E391E09093DB
:103DE0007605809375051092EA041092470581E0EC
:103DF0000E94980310E00BE4B8E5EB2EB2E0FB2E36
:103E0000C0E6D9E000931D068091EF048823F1F00D
:103E1000909148059130D1F4809147058823B1F401
:103E20008091EF0480FF03C0909350050DC0F09285
:103E30004A05E0924905D0934C05C0934B0510927A
:103E400081004398109247051092EF048091EF048F
:103E500080FF10C01092EF040E94D5068091F404F8
:103E600080914705882371F50E949D1B81E00E9487
:103E7000980328C08091EF0481FF0AC08091EF046D
:103E80000E947A03882311F411E002C01092EF041B
:103E90008091EF0482FD02C01130A1F41091EA0478
:103EA0000E943904982F8091EA04181721F0892F75
:103EB0000E94980304C08091EF040E947A0310923C
:103EC000EF0410E080914705882379F4809146053E
:103ED0008093E80483E00E9498038091E804813095
:103EE00021F41092E8041092460580911D06882363
:103EF000E1F78091EB048F5F8093EB0483CF909385
:103F0000C5008093C40088E18093C1008EE0809357
:103F1000C200519A50980895982F8091C00085FF53
:103F2000FCCF9093C60080E090E00895282F982F52
:103F300092959F709A3030F48091C00085FFFCCF3D
:103F4000905D05C08091C00085FFFCCF995A909389
:103F5000C600822F90E08F7090700A973CF4809199
:103F6000C00085FFFCCF2F70205D06C08091C0008F
:103F700085FFFCCF2F70295A2093C60008951F9308
:103F8000182F892F0E94961F812F0E94961F1F9124
:103F900008958091C00087FFFCCF8091C6000895EE
:103FA0008091C00080780895089508950895089537
:103FB0000895CF92EF920F931F93182F813029F419
:103FC00080916C050E94751908C000916C0580E015
:103FD00060E040E828E30E946F1300915405C09010
:103FE0007B0580915605800F2CE0029F90011124E3
:103FF000820F6091570541E023E733E0E0905505DB
:104000000E94750F809153058130A1F400915405F1
:10401000C0907B05802F8295880F807E90915605F9
:10402000890F6091570541E023E733E0E0905505A3
:104030000E94750F113021F41092710510927005D5
:104040001F910F91EF90CF90089591E090935305B9
:1040500090E1909356059CE09093570592E09093E1
:1040600054059093550595E2909358050E94D91FE9
:1040700008951092530524E02093560592E0909302
:1040800057052093540595E0909355059CE2909335
:1040900058050E94D91F0895CF92EF92FF920F9377
:1040A0001F93DF93CF9300D00F92CDB7DEB7162FBB
:1040B0007E010894E11CF11CB7010E945404009198
:1040C0005405C0907B0583E1089FC0011124189F0F
:1040D000102D112480915605810F6091570541E004
:1040E0009701E09055050E94750F0F900F900F906B
:1040F000CF91DF911F910F91FF90EF90CF90089596
:10410000CF92EF92FF920F931F93DF93CF93CDB790
:10411000DEB72F970FB6F894DEBF0FBECDBF10915C
:10412000EB048091ED04813049F580917105813077
:10413000D9F480916E057E010894E11CF11CB70151
:104140000E9454048AE38B8380917A05BE016C5FE0
:104150007F4F0E94540400917B0582E069E340E0B8
:1041600097010E9495100AC000916C0581E068E3F8
:1041700043E127E00E946F13109270058091E904DB
:10418000813079F420E0812F90E08F709070089753
:104190000CF021E080917005281751F020937005F4
:1041A000A5C080917005813019F4109270059EC0F1
:1041B0008091E804882329F48091EC04882309F491
:1041C000A1C09091830580917705981789F490910B
:1041D000790580916F05981759F490917205809137
:1041E0006D05981729F48091EC04813009F04CC0DA
:1041F0001091580580917905609183054091720571
:104200000E942F1B00917B05E82FF0E0EE0FFF1FAF
:10421000E35AFC4F2081318182E1612F41E00E940D
:104220009510E091790500917B05F0E0EE0FFF1FFE
:10423000E05EFC4F208131818AE26091580541E0C7
:104240000E9495108091830527E0E22EF12CEC0E60
:10425000FD1EB7010E9454048CE2898780E28A87A0
:1042600082E38B8780E38C8780917205BE01635F58
:104270007F4F0E94540400917B0582E460915805B1
:1042800041E097010E9495109091890580918405E5
:10429000981721F48091EC04813029F480918905EC
:1042A00060E00E944C2090918A0580917F059817CC
:1042B00021F48091EC04813029F480918A0561E039
:1042C0000E944C20809153058130E1F49091850546
:1042D00080918605981721F48091EC04813091F447
:1042E0008091850562E00E944C200CC0C0906C0556
:1042F00081E068E343E127E002E094E0E92E0E94D8
:10430000B81156CF2F960FB6F894DEBF0FBECDBFB3
:10431000CF91DF911F910F91FF90EF90CF90089573
:10432000CF93DF93EC018A81803429F48B818F3124
:1043300011F492E001C096E020E030E0FE01E20FCF
:10434000F31FDB01A20FB31F8C9180832F5F3F4FC0
:104350002917A0F3DF91CF9108952F923F924F92AA
:104360005F926F927F928F929F92AF92BF92CF9205
:10437000DF92EF92FF920F931F93DF93CF93CDB70E
:10438000DEB72B970FB6F894DEBF0FBECDBF382E29
:10439000292E7A8369832B833C834D835E83EF824E
:1043A000F88609871A874A2C8B86CA01B9010E94B0
:1043B00034354B015C01DD24EE24D7FCE094FE2C67
:1043C000C701B6010E940C347B018C01C501B40108
:1043D000A80197010E94D1340E94D933605CE98121
:1043E000FA8160836B817C818D819E810E946E3316
:1043F0009058A80197010E94D1340E94D933615E80
:10440000E981FA8161836B817C818D819E812F811D
:10441000388549855A850E940A337B018C01C80181
:104420000E9434355B016C015524662457FC60946E
:10443000762CC301B2010E940C343B014C01C60131
:10444000B501A40193010E94D1340E94D933605C6C
:10445000E981FA816283B701C8010E946E339058E6
:10446000A40193010E94D1340E94D933615EE98195
:10447000FA8163836B817C818D819E812F81388558
:1044800049855A850E9409337B018C01C8010E942D
:104490003435A40193010E94D1340E94D933605C69
:1044A000E981FA816483B701C8010E946E33905894
:1044B000A40193010E94D1340E94D933615EE98145
:1044C000FA816583232D322DC901DC0120E030E023
:1044D0000CC08D91E981FA81E20FF31F90812F5F6B
:1044E0003F4F891711F081E004C0FB852F1788F337
:1044F00080E02B960FB6F894DEBF0FBECDBFCF91F4
:10450000DF911F910F91FF90EF90DF90CF90BF90C0
:10451000AF909F908F907F906F905F904F903F9063
:104520002F9008950F931F93CF93DF93EC01162FD5
:10453000888169814A812B81012F0E94A2108A8182
:10454000803419F48B818F3169F0888169814C81C5
:104550002D81012F0E94A2108A816B814C812D81B7
:104560000E94A210DF91CF911F910F910895CF92D9
:10457000DF92EF92FF920F931F93813009F07DC07D
:1045800080916C050E94751900917B0580E46FE1B4
:104590004EE120E00E941F1440917B0580E46FE112
:1045A0000E94950DDD246D2D772767FD7095872F6F
:1045B000972F0E940C3422E93AE046E05FE30E9424
:1045C000D1347B018C01C8010E9434352DEC3CECC8
:1045D00040EE51E40E94D1340E94D933C62EB70177
:1045E000C8010E946E332DEC3CEC40EE51EC0E9471
:1045F000D1340E94D933062F40917B05615E8C2D0A
:10460000805C0E94950D8D2D63E00E948A35992370
:10461000B9F4DD2011F401500BC083E0D81611F479
:10462000C39406C086E0D81611F40F5F01C0CA9487
:1046300040917B05015E8C2D805C602F0E94950D62
:10464000D3948CE0D81609F0AECF80E090E028E259
:10465000FC01E75AFA4F2083FC01E15AFA4F20830C
:10466000FC01EB59FA4F208301968630910581F7C2
:10467000109271051092700510C080917805882302
:1046800061F460916C0589E595E00E949222409169
:104690007B0580E46FE10E94950D1F910F91FF90C3
:1046A000EF90DF90CF90089591E0909378050E946D
:1046B000B7220895109278050E94B72208953F927C
:1046C0004F925F926F927F928F929F92AF92BF9222
:1046D000CF92DF92EF92FF920F931F93DF93CF93CE
:1046E000CDB7DEB7A2970FB6F894DEBF0FBECDBF31
:1046F0003090EB048091ED04813009F0F7C0809197
:104700007105813009F0B6C060917A0570E080E0F3
:1047100090E00E940A3420E537E746ED5DE30E9411
:10472000D1347B018C01C8010E9434356F8B788FA6
:10473000898F9A8FB701C8010E946E336B8F7C8F6F
:104740008D8F9E8F80916E05E0907A056CE00E94BF
:104750007E35692F70E0882777FD8095982F0E941D
:104760000C3422E93AE046E05FE30E94D1345B0179
:104770006C01FF2400E010E0C801B7010E940A3478
:1047800025E33AEF4EE05CE30E94D1349B01AC019B
:10479000C601B5010E940A337B018C01C8010E9449
:1047A00034356F8F78A389A39AA3B701C8010E94FB
:1047B0006E332B013C0100916C0582E069E347E117
:1047C00025E00E946F1300917B0589E066E347E0D6
:1047D00020E00E941F1400917B056F89788D898DE0
:1047E0009A8D20E030E040EE50E40E94D1340E94E7
:1047F000D9334B015C0189E0880E6B8D7C8D8D8DEA
:104800009E8D20E030E040EE50EC0E94D1340E94BA
:10481000D9336B017C0186E3C80E89E066E3482D3D
:104820002C2D0E94A21000917B056F8D78A189A18B
:104830009AA120E030E040EA50E40E94D1340E9486
:10484000D9334B015C0189E0880EC301B20120E03D
:1048500030E040EA50EC0E94D1340E94D9336B0121
:104860007C0186E3C80E89E066E3482D2C2D0E946A
:10487000A2103CC000916C0581E06EE241E121E1B3
:104880000E946F1310927005E091790500917B05ED
:10489000F0E0EE0FFF1FE05EFC4F2081318182E0EF
:1048A00069E340E00E949510182F1E5F80E2898323
:1048B00080918305BE016E5F7F4F0E94540400917A
:1048C0007B05812F69E340E09E012F5F3F4F0E94EF
:1048D00095108250810F883148F400916C0548E1B1
:1048E000481B8E5F69E325E00E946F138091E90405
:1048F000813079F420E0832D90E08F7090700897DC
:104900000CF021E080917005281751F0209370057C
:1049100075C180917005813019F4109270056EC1D7
:104920008091E804813021F08091EC04813019F409
:104930001092820505C0809182058F5F8093820569
:1049400080917805813011F0992440C060918505EF
:10495000E090820570E080E090E00E940A3420E55B
:1049600037E746ED5DE30E94D1345B016C01FF2423
:104970000027F7FC0095102FC801B7010E940C34E6
:1049800028E93EE24EEF5BE30E94D1349B01AC018B
:10499000C601B5010E940A339B01AC0189E595E08F
:1049A000BE016B5F7F4F0F2EFDECEF2EFCECFF2E58
:1049B000FCEC0F2FFDE31F2FF02DEBE1CE2EB7E126
:1049C000AB2EA6E08A2E0E94AD21982E8091E8049D
:1049D000813031F08091EC04813011F044244BC0DF
:1049E00060918A05E090850570E080E090E00E948B
:1049F0000A3420E537E746ED5DE30E94D1345B01E0
:104A00006C01FF2400E010E0C801B7010E940A34E5
:104A100029E833EC44EE5AE30E94D1349B01AC0107
:104A2000C601B5010E940A339B01AC018FE595E0F8
:104A3000BE01655F7F4F0F2EFCE7EF2EF9EDFF2ED5
:104A4000F0E20F2FF0E41F2FF02DFBE1CF2EE8E076
:104A5000AE2EB2E08B2E0E94AD21482E81E048168A
:104A600061F09091840580918905981731F48091C7
:104A7000EC04813011F010E044C080918905E09091
:104A80008A056CE00E947E35692F70E0882777FDEB
:104A90008095982F0E940C3422E93AE046E05FE3CB
:104AA0000E94D1345B016C01FF2400E010E0C801DA
:104AB000B7010E940A3425E33AEF4EE05CE30E941E
:104AC000D1349B01AC01C601B5010E940A339B01A0
:104AD000AC0185E695E0BE016F5E7F4F0F2EFCE7CF
:104AE000EF2EF9EDFF2EF0E20F2FF0E41F2FF02D47
:104AF000A4E1CA2EF5E0AF2EE6E08E2E0E94AD2195
:104B0000182F809178058130C9F4981621F0809192
:104B1000EC04813099F460916C0589E595E00E9480
:104B2000922289E595E0BE016B5F7F4F0E94902144
:104B300060917B0589E595E00E94922281E048160C
:104B400021F08091EC048130E1F460916C058FE5F7
:104B500095E00E9492228FE595E0BE01655F7F4F50
:104B60000E94902160917B058FE595E00E94922242
:104B700080917805813071F460917B0589E595E03D
:104B800007C081E0981631F460917B058FE595E0D0
:104B90000E949222113021F08091EC04813011F5B5
:104BA00060916C0585E695E00E94922285E695E08D
:104BB000BE016F5E7F4F0E94902160917B0585E66C
:104BC00095E00E94922280917805813031F46091C5
:104BD0007B0589E595E00E94922260917B058FE537
:104BE00095E009C081E0981611F0481699F460919B
:104BF0007B0585E695E00E9492220CC0C0906C0572
:104C000081E06EE241E121E102E094E0E92E0E94C0
:104C1000B81186CEA2960FB6F894DEBF0FBECDBFF8
:104C2000CF91DF911F910F91FF90EF90DF90CF9088
:104C3000BF90AF909F908F907F906F905F904F90BC
:104C40003F900895AF92CF92EF92FF920F931F93F0
:104C5000DF93CF9300D00F92CDB7DEB780916C0574
:104C60000E94751980E389831A821CE07E010894F2
:104C7000E11CF11C00917B05812F61E040E0970170
:104C80000E94951089818F5F8983145F143891F792
:104C9000A0907B0581E06AE140E021E005E713E0B8
:104CA000EE24E394CC24C3940E94F80DA0907B05DD
:104CB00081E061E340E021E00AE713E00E94F80DA3
:104CC00090E02DE0C22E17C0112311F4963050F45D
:104CD00000917B058C2D6E2D45E020E09B830E948A
:104CE0001F149B811F5F8CE0E80E143069F79F5FF3
:104CF000C80E9A3021F010E08DE0E82EE5CF10923A
:104D000071051092700510928205109278050F902F
:104D10000F900F90CF91DF911F910F91FF90EF9027
:104D2000CF90AF9008957F928F929F92AF92BF9253
:104D3000CF92DF92EF92FF920F931F93DF93CF9367
:104D4000CDB7DEB7782E8A2D982C8130D1F4862FFE
:104D50006AE00E947E35B82E842F0E947E35D82EC0
:104D6000822F0E947E35F82E802F0E947E35882E5D
:104D70008E2D0E947E35A82E8C2D0E947E35C82E49
:104D800019C0862F6AE00E947E35B92E842F0E94BA
:104D90007E35D92E822F0E947E35F92E802F0E94DB
:104DA0007E35892E8E2D0E947E35A92E8C2D0E9457
:104DB0007E35C92EB81439F4DA1429F4FC1419F428
:104DC000992009F446C010E05DE0E52E80E0B116C0
:104DD00009F481E0D11609F48260F11609F48460C7
:104DE000E0E0811609F4E1E0A11609F4E260C116E1
:104DF00009F4E4608E1729F481E0981621F5EE237A
:104E000011F1AE2FB0E0FD01EE0FFF1FEE56FC4F8B
:104E10008081882319F400917B0502C000916C0504
:104E2000AA0FBB1FAE56BC4F8E2D672D45E01196C5
:104E30002C910E947B1300917B058E2D672D45E000
:104E400020E00E941F141F5F8CE0E80E1A3009F06A
:104E5000BDCFCF91DF911F910F91FF90EF90DF9029
:104E6000CF90BF90AF909F908F907F9008958F923A
:104E7000AF92CF92EF92FF920F93DF93CF93CDB784
:104E8000DEB729970FB6F894DEBF0FBECDBF809175
:104E90008205813021F48091E804813041F08091D5
:104EA0008205882341F080917805882321F481E0F0
:104EB0000E94980320C0809178058130E1F48091B0
:104EC000E804813009F0C1C080918205815080934F
:104ED0008205809182057E010894E11CF11CB701D6
:104EE0000E94540400917B0588E761E040E097014F
:104EF0000E949510AAC0C090EB048091ED0481300F
:104F000051F5809171058130E1F480916E05E4E006
:104F1000EE2EF12CEC0EFD1EB7010E9454048AE324
:104F20008E8380917A05BE01695F7F4F0E94540491
:104F300000917B0581E06AE340E097010E949510B3
:104F40000AC000916C0580E069E343E127E00E941C
:104F50006F13109270058091E904813079F420E09C
:104F60008C2D90E08F70907008970CF021E080916C
:104F70007005281751F0209370055BC08091700573
:104F8000813019F41092700554C08091E804882390
:104F900029F48091EC04882309F457C060918605B8
:104FA00040917F052091840500918505E0908A0558
:104FB000C09089058090EC048DE0AA24A3940E94FF
:104FC00093266091860540917F052091840500918C
:104FD0008505E0908A05C09089058090EC0489E100
:104FE000AA240E9493266091770540916F05209135
:104FF0006D0500918305E0907905C0907205809061
:10500000EC0485E2AA24A3940E949326609177057C
:1050100040916F0520916D0500918305E090790521
:10502000C09072058090EC0481E3AA240E9493262C
:105030000CC0C0906C0580E069E343E127E002E02A
:1050400074E0E72E0E94B811A0CF29960FB6F8940D
:10505000DEBF0FBECDBFCF91DF910F91FF90EF90DC
:10506000CF90AF908F900895FF920F931F93CF939F
:10507000DF9380917805882309F070C08EE28093D9
:10508000820581E08093780580916C050E947519F6
:1050900000917B0581E061E040E02FE733E00E9472
:1050A0009510C3E9D3E0FF241EE083E0F81619F45D
:1050B00000916C0502C000917B058EE0612F45E0F8
:1050C00028810E947B1300917B058EE0612F45E0D3
:1050D00020E00E941F14FF2019F400917B0502C0FC
:1050E00000916C0586E4612F45E028850E947B13C2
:1050F00000917B0586E4612F45E020E00E941F14AB
:10510000F394125F229684E0F81679F600917B05FD
:1051100089E16CE040E02DE833E00E949510C2EA9E
:10512000D3E016E100917B052991399189E1612F46
:1051300040E00E949510195F1034A1F7C0E0D4E060
:1051400018E000917B052991399181E5612F40E0BC
:105150000E949510195F1034A1F702C010927805D3
:10516000DF91CF911F910F91FF9008955F926F9201
:105170007F928F929F92AF92BF92CF92DF92EF92E7
:10518000FF920F931F93582EE42EA22E70E080E022
:1051900090E00E940A349B01AC0160E070E080E87E
:1051A00091E40E9471333B014C01FF240027F7FC7E
:1051B0000095102FC801B7010E940C349B01AC016F
:1051C000C401B3010E94D13420E030E040E05FE34D
:1051D0000E940A330E94DE33162FBB24CC24B7FC76
:1051E000C094DC2CC601B5010E940C349B01AC01BB
:1051F000C401B3010E94D13420E030E040E05FE31D
:105200000E940A330E94DE33E62E161721F48091A5
:10521000EC048130F9F4165988E0F82EF50C009171
:105220006C05812F6F2D42E021E00E946F130091E9
:105230006C058AE0580E812F652D42E021E00E9426
:105240006F1300917B058E2D86596F2D42E023E070
:105250000E946F131F910F91FF90EF90DF90CF90FE
:10526000BF90AF909F908F907F906F905F900895C8
:105270000F931F93CF93DF939091830580917705D0
:10528000981759F49091790580916F05981729F432
:105290008091EC04813009F051C021E0CFE2D4E0EC
:1052A000909183058981981729F4909179058A81D5
:1052B000981721F02F5F2796243091F780916B0586
:1052C0008217E1F120936B058881882311F412E0A5
:1052D00018C06B817C8180E00E949D0C082F6D813D
:1052E0007E816115710521F080E00E949D0C080F00
:1052F00081E890E0801B910962E070E00E94AB358C
:10530000162F00916C0580E060E040E827E00E94E5
:105310006F1300917B052B813C81812F61E040E080
:105320000E9495102D813E812115310539F00091A3
:105330007B05810F61E040E00E949510DF91CF91E5
:105340001F910F9108950E943829909185058091B1
:105350008605981721F48091EC04813041F4409146
:1053600086052091850580E36BE30E94B628909125
:105370008A0580917F05981721F48091EC04813093
:1053800041F440917F0520918A0581E26BE30E9400
:10539000B6289091890580918405981721F4809111
:1053A000EC04813041F4409184052091890582E12B
:1053B00067E10E94B6280895FF920F931F93CF9341
:1053C000DF93EC01623001F500916C0580E060E153
:1053D00044E62FE20E946F1300917B0582E069E0B2
:1053E00040E09E010E949510282F90E0C0970CF09D
:1053F00075C000916C0540E3421B822F8E5F69E00F
:1054000025E00E946F136AC080916C050E94751997
:1054100000917B0580E067E040E821E00E946F1387
:1054200000917B0580E06FE040E821E00E946F136F
:1054300000917B0585E667E041E029E30E946F1358
:105440008FEF80936B050E94382900917B0582E0E5
:1054500069E040E09E010E94951000917B0586E581
:1054600069E040E020E134E00E94951000917B0566
:1054700088E669E040E024E134E00E9495102BE1E9
:1054800031E0FF2412E109C081E0F81619F024E2AE
:1054900031E002C020E231E0115F00917B0589E636
:1054A000612F40E00E94951000917B05612F6A5F9B
:1054B00088E646E127E00E94211300917B05612FD9
:1054C000675F8AE642E121E00E946F13F39483E074
:1054D000F816D1F61092710510927005DF91CF91F8
:1054E0001F910F91FF9008952F923F924F925F92DC
:1054F0006F927F928F929F92AF92BF92CF92DF92E4
:10550000EF92FF920F931F93DF93CF9300D000D0C1
:105510000F92CDB7DEB7982E6C83442E202ECD820D
:105520003A2C30E0442737FD4095542FCA01B90189
:105530000E940C345B016C01552466247724C3015E
:10554000B2010E940A349B01AC01C601B5010E9460
:1055500071335B016C01FF240027F7FC0095102FCD
:10556000C801B7010E940C349B01AC01C601B50112
:105570000E94D13420E030E040E05FE30E940A3333
:105580000E94DE33462E8D81682F70E0882777FDDC
:105590008095982F0E940C349B01AC01C601B50187
:1055A0000E94D13420E030E040E05FE30E940A3303
:1055B0000E94DE33A62E461621F48091EC04813041
:1055C00041F51C811A192A2D2F5F8A8D8530C1F46F
:1055D00000917B05892D612F422D0E94211381E0CE
:1055E0008A15B8F4C0907B051F5F422D42502A2DCA
:1055F0002150892D8F5F612F00E095E0E92E07C0D3
:10560000C0907B05892D612F422D01E0EA8C0E941C
:10561000B8118D817E010894E11CF11CB7010E9434
:1056200054041C811A19D12ED80C00917B05832DAE
:10563000890D6D2D41E097010E94951000916C0538
:105640001150892D612F422D21E00E946F13182DDA
:10565000109500916C05892D6D2D432D212F0E94F1
:105660006F1300916C05892D8F5F820D83196D2D4D
:105670003A94432D212F0E946F13A41460F40091DB
:105680006C058C81880E84184A18892D682D422D4E
:10569000242D0E946F130F900F900F900F900F907A
:1056A000CF91DF911F910F91FF90EF90DF90CF90FE
:1056B000BF90AF909F908F907F906F905F904F9032
:1056C0003F902F900895CF92EF920F931F93DF9307
:1056D000CF93CDB7DEB727970FB6F894DEBF0FBED6
:1056E000CDBFE090EB048091ED04813009F05FC004
:1056F00080E28983809171058130D9F480916E05B3
:10570000BE016E5F7F4F0E9454048AE38C838091B8
:105710007A05BE016B5F7F4F0E94540400917B05A8
:1057200082E369E040E09E012F5F3F4F0E949510A9
:1057300033C080917005813051F400916C0583E392
:1057400068E043E127E00E94211310927005E09188
:10575000790500917B05F0E0EE0FFF1FE05EFC4F46
:105760002081318182E369E040E00E949510182F8A
:105770001E5C80918305BE016E5F7F4F0E945404C2
:1057800000917B05812F69E040E09E012F5F3F4F34
:105790000E9495108253810F883148F400916C0566
:1057A00048E1481B8E5C69E025E00E946F13809100
:1057B000E904813079F420E08E2D90E08F709070B4
:1057C00008970CF021E0809170052817A1F0209334
:1057D000700506C080917005813069F410927005E3
:1057E000C0906C0583E368E043E127E002E034E029
:1057F000E32E0E94B81127960FB6F894DEBF0FBEB5
:10580000CDBFCF91DF911F910F91EF90CF90089571
:10581000FF920F931F938A30F1F400917B0588E08B
:1058200067E141E022E20E946F1300917B0589E06D
:1058300068E343E521E00E946F1308E140917B0596
:1058400087E0602F0E94950D0B5F0B33B9F78BE457
:105850007DE0F72E0AC08D3029F08EE46AE0F62E46
:1058600016E304C08EE45AE0F52E1AE300917B059E
:10587000612F40E024E231E00E94951000917B0509
:105880008CE2612F40E020E231E00E94951000910F
:105890007B058F2D612F40E02BE131E00E949510B8
:1058A0001F910F91FF900895682F8AEB94E00E945A
:1058B000DC298AE00E94082C08952F923F924F9293
:1058C0005F926F927F928F929F92AF92BF92CF9290
:1058D000DF92EF92FF920F931F93DF93CF9300D04D
:1058E00000D0CDB7DEB7482E242EC22E102F70E088
:1058F000882777FD8095982F0E940C3428E339EA99
:105900004BEF5EE30E94D13420E030E040E05FE303
:105910000E940A330E94DE33562E622D70E08827E3
:1059200077FD8095982F0E940C3428E339EA4BEFDD
:105930005EE30E94D13420E030E040E05FE30E946B
:105940000A330E94DE33662EDD24EE24D7FCE09479
:10595000FE2CC701B6010E940C3428E339EA4BEF54
:105960005EE30E94D13420E030E040E05FE30E943B
:105970000A330E94DE33762E602F70E0882777FD91
:105980008095982F0E940C3428E339EA4BEF5EE3B0
:105990000E94D13420E030E040E05FE30E940A330F
:1059A0000E94DE33962E571430F4872C8518A6E318
:1059B000AA2EA71805C0852C8718F6E3AF2EA518C8
:1059C000882011F488248394691430F4392C361813
:1059D000E6E3BE2EB91805C0362C391876E3B72E8B
:1059E000B618332011F433243394561431F4791457
:1059F00021F48091EC04813081F4121518F092E0CA
:105A000001E002C093E000E0C0907B05842D6B2D87
:105A10004DE0232DE92E0E94B811012F021907FD38
:105A200002C050E003C08DE2898351E0112707FDD9
:105A3000109517FF03C0109501951F4F402F0A3096
:105A400054F0FE01E50FF11D802F6AE00E948A35B7
:105A5000805D81835F5F9E012F5F3F4FF901E50FFE
:105A6000F11D842F6AE00E948A35905D90835F5F0C
:105A7000E52EFF24F901EE0DFF1D1082EE0CFF1C38
:105A8000EE0CFF1CEA948DE090E08E19910962E023
:105A900070E00E94AB35D62EC62EC40C1B2D1650BE
:105AA00000917B058C2D612F40E00E9495100091A4
:105AB0006C05842D612F4D2D26E00E946F130091FF
:105AC0006C058C2D8E0D612F4D2D26E00E946F13DD
:105AD000561419F4791409F45EC000916C056B2D0D
