:100000000C946F020C948C020C948C020C944C0592
:100010000C948C020C948C020C948C020C948C0228
:100020000C948C020C94051B0C948C020C941D19DE
:100030000C948C020C942F190C9434180C948C0290
:100040000C948C020C948C020C948C020C948C02F8
:100050000C948C020C94AE040C948C020C948C02C4
:100060000C94DD150C948C0205A84CCDB2D44EB97D
:100070003836A9020C50B9918688083CA6AAAA2A4B
:10008000BE000000803F49922449249200010205ED
:100090000A0F121617191B1E212326272A2D30336B
:1000A00036393C3F424548494B4D505255595C5FAB
:1000B000626567696C6F707275777C8083868A8DE4
:1000C000909396999EA1A4A7A9ACAEB1B4B6B9BAC3
:1000D000BDC12037630003AA1F0A1F0AA2151F15FE
:1000E000087904138A151208234E11510E6A040A66
:1000F000640E045008640404307804037F111F72F6
:100100001F107D151775151F67041F77151D7F15A7
:100110001D611D037F151F77151F2A500A440A6AA7
:100120000A0A4A046115028815190E7E051E7F15FC
:100130000A6E11117F110E5F155F056E111D7F0490
:100140001F3F500F7F041B5F10BF0204021F9F025E
:10015000041F6E110E7F050282151D127F051A7293
:100160001509611F017F101F6F100FAF100C100FCA
:100170007B041B631C037915135F11630418511F63
:100180006201027010104102641F113F711F04844C
:10019000150E04840E1504000000000000005F002E
:1001A000000007000700147F147F14242A7F2A12FE
:1001B00023130864623649552250000503000000ED
:1001C0001C2241000041221C00082A1C2A080808A1
:1001D0003E08080050300000080808080800606069
:1001E000000020100804023E5149453E00427F4075
:1001F0000042615149462141454B311814127F108C
:1002000027454545393C4A494930017109050336BE
:1002100049494936064949291E003636000000562C
:10022000360000000814224114141414144122143E
:1002300008000201510906324979413E7E1111112F
:100240007E7F494949363E414141227F4141221C3E
:100250007F494949417F090901013E414151327FAE
:100260000808087F00417F41002040413F017F088E
:100270001422417F404040407F0204027F7F0408F7
:10028000107F3E4141413E7F090909063E4151210F
:100290005E7F09192946464949493101017F01011B
:1002A0003F4040403F1F2040201F7F2018207F6399
:1002B00014081463030478040361514945430000A2
:1002C0007F4141020408102041417F0000040201E7
:1002D00002044040404040000102040020545454B5
:1002E000787F484444383844444420384444487F64
:1002F0003854545418087E090102081454543C7FA1
:100300000804047800447D40002040443D00007F04
:1003100010284400417F40007C041804787C0804C5
:10032000047838444444387C14141408081414180D
:100330007C7C080404084854545420043F44402062
:100340003C4040207C1C2040201C3C4030403C4431
:10035000281028440C5050503C4464544C4400082D
:1003600036410000007F0000004136080008082ADE
:100370001C08081C2A08085A100105010000000882
:1003800000090F0A1E0B2D000E0E1D0E1D2B0F3A1D
:100390000E2B0F480A520F610A520F000E0E1D0E4F
:1003A0001D6B0E790D6B0E8610030303030303030D
:1003B0000303030603030603030303060303030304
:1003C00003030303030303030303030303030303FD
:1003D00003030306060303030303030303030303E7
:1003E00003030306030303030303030303030303DA
:1003F000060603030303060303060C0303030303B8
:1004000003030303030303030306030303030303B9
:1004100003030C0C03030303060303030303030397
:100420000306040404040404030303030303060390
:1004300003030304040403030303030C0C0C0C92D6
:1004400092009200749200AE000057000074000009
:10045000570049000062006E006862005792AEC407
:10046000009BAE00920074826E0000AEA49B8A00D6
:1004700092005C62740062748200AEA49B8A009257
:1004800000E800E8E80000008A0000820074000034
:10049000007474007400748200927400625700004B
:1004A0007474007400748292000092740057005CAF
:1004B00000629B009B6200006EC4C4C4AE9B927439
:1004C00000625700006E9B009B9B9282744900491A
:1004D0003A00000000050203010103020500112497
:1004E0001FBECFEFD8E0DEBFCDBF14E0A0E0B1E08B
:1004F000E6E7F0E602C005900D92A03BB107D9F700
:1005000025E0A0EBB4E001C01D92A43EB207E1F7E4
:100510000E94252C0C9439300C9400008091BF046B
:100520008093C2048091BE048093C1048091BD0475
:100530008093C0048091B9048093BC048091B80476
:100540008093BB048091B7048093BA04089590917E
:10055000B004E0910001F091010128E0929FE00DCC
:10056000F11D11240680F781E02D309719F00995CF
:1005700081E0089580E008950F931F93CF939091A9
:10058000B004009100011091010128E0929F000D3C
:10059000111D11249091A9059093B3049091AA057F
:1005A0009093B6049091B604913069F59091DE0570
:1005B0009093BF049091DF059093BE049091E00565
:1005C0009093BD049091E1059093B9049091E20558
:1005D0009093B8049091E3059093B7042091B904E7
:1005E0009091BC0429130CC02091B8049091BB04D5
:1005F000291306C02091B7049091BA04291719F065
:1006000091E09093B504D8019C91992309F441C0DD
:10061000C82F833051F51092B4048091A305813026
:1006200059F49091D005913089F08093D005809352
:10063000B4041092C3040AC08091D005823031F016
:1006400082E08093D00581E08093B404D8011496B1
:10065000ED91FC91159709958091B604813011F4C4
:100660000E948E021092B10414C0813031F41092B5
:10067000D0058091CD050E94EF170E948E0281E087
:100680008093B104D8011296ED91FC9113978C2FB1
:1006900009958091B604813031F41092B60410921D
:1006A000B5041092AA05CF911F910F9108958091E2
:1006B000B0048F5F8093B0048091B004893010F053
:1006C0001092B0048091B004E0910001F09101011A
:1006D00098E0899FE00DF11D112481810895FB01AF
:1006E0006AE00E94A02F805D8083905D91831282DA
:1006F0000895EF92FF920F931F93CF93DF9300D053
:1007000000D0CDB7DEB7F82EE62E0091D505E091EA
:10071000B804F0E0EE0FFF1FEA5AFE4F208131814E
:1007200040E08F2D0E94F712182F80E2898380917C
:10073000B904BE016E5F7F4F0E946F030091D50523
:100740009E012F5F3F4F40E06E2D8F2D810F0E9445
:10075000F712810F873148F40091CD0547E1481B1E
:1007600025E06E2D8F0D0E9495100F900F900F9029
:100770000F90DF91CF911F910F91FF90EF9008950F
:10078000CF92EF92FF920F931F93CF93DF9300D0FE
:1007900000D000D0CDB7DEB7F82E162FE42E82E0C1
:1007A00048130EC08091B504813029F08091B104C6
:1007B000813009F06EC0612F8F2D0E94790369C0CE
:1007C0008091B404813029F08091B504813009F022
:1007D00042C08091D005813059F58091B4048130B8
:1007E000D1F58091CE05BE016F5F7F4F0E946F03F0
:1007F0008AE38B838091D405BE016C5F7F4F0E949A
:100800006F030091D5059E012F5F3F4F40E0612FA0
:100810008F2D0E94F71291E0E9121DC00091CD05C5
:1008200047E1481B25E0612F8F0D0E94951013C0F2
:100830000091CD0527E043E16FEF610F8FEF8F0D42
:100840000E9495101092C30481E0E81204C0612F49
:100850008F2D0E9479038091B304813031F480910F
:10086000B20483FB882780F901C080E09091C30423
:10087000891779F08093C304C090CD056FEF610FA5
:1008800084E0E82E02E027E043E18FEF8F0D0E9425
:10089000910E26960FB6F894DEBF0FBECDBFDF9146
:1008A000CF911F910F91FF90EF90CF9008950F93EC
:1008B0000091D5052AE332E041E06EE081E20E943A
:1008C000F7120091D50525E432E041E06EE182E1C6
:1008D0000E94F7122FEF8DE399E421508040904061
:1008E000E1F700C0000064E686EA9EE00E94CB19B2
:1008F00064E680EA9FE00F910C94CB1980917A0016
:10090000877F80937A0080917A00806480937A0058
:1009100080917A0084FFFCCF8091780090917900DB
:100920000895EAE7F0E0808188648083089526983E
:100930002E9A81E080936800EBE6F0E0808180648D
:10094000808382E080937C0010927B00EAE7F0E0F5
:100950008FE8808380818064808308951F920F9246
:100960000FB60F9211242F933F934F935F936F9382
:100970007F938F939F93AF93BF93EF93FF9378945D
:100980008091780090917900803E22E0920770F08B
:100990001092C8041092CA048091C504813021F4D9
:1009A0008093C4041092C50484E163C0833622E0BE
:1009B000920770F18091CA0482FD5AC08FE19EE4D3
:1009C0000197F1F700C000000E947E048256924019
:1009D0008E37910508F04CC08AEF8093C604809151
:1009E000C604882369F00E947E04825692408E37A6
:1009F0009105A8F31092CA0484E08093C90438C01A
:100A00001092C90484E08093CA048093C80430C063
:100A10008F309140B0F08091CA0481FD10C08FE109
:100A20009EE40197F1F700C000000E947E048E5002
:100A3000914085359140E0F482E08093C90482E0E2
:100A400013C08091CA0480FD0EC08FE19EE401971F
:100A5000F1F700C000000E947E048F30914040F406
:100A600081E08093C90481E08093CA041092C80495
:100A700082E08093C704FF91EF91BF91AF919F9166
:100A80008F917F916F915F914F913F912F910F9037
:100A90000FBE0F901F9018951F920F920FB60F92D6
:100AA000112478940F900FBE0F901F90189590917D
:100AB000C404913021F41092CD041092C40490919A
:100AC000C804992369F091E09093C5049091CD04F6
:100AD0009A3020F49F5F9093CD0404C08E5F03C0D2
:100AE0001092CD048F5F0E94A02F892F08950F933D
:100AF0001F93CF93DF938C01EB0166E080E00E94AF
:100B0000A717C8010E941115209759F067E080E0EF
:100B10000E94A717CE01DF91CF911F910F910C94E6
:100B20001115DF91CF911F910F9108950F931F938E
:100B3000CF93DF938C01EB0166E080E00E94A71762
:100B400088EA92E00E941115C8010E94111567E021
:100B500080E00E94A7178BEB92E00E941115CE0156
:100B60000E9411158B81811108C089E393E0DF9108
:100B7000CF911F910F910C941115DF91CF911F917F
:100B80000F910895CF93DF9362E080E50E94A7174D
:100B9000C2E7D1E08A810E94FD148AE30E94151504
:100BA00089810E94FD148AE30E9415158881DF91D6
:100BB000CF910C94FD140F931F93CF93DF93D82FF5
:100BC000C62F042F122F63E088E00E94A7178DEC38
:100BD00092E00E9411154D2F602F8C2F0E94091A50
:100BE000E82FF0E0EE0FFF1FE65BFE4F8081918162
:100BF0000E941115173319F46091CD0502C0609160
:100C0000D505EC2FF0E0EE0FFF1FEA5AFE4F808172
:100C100091810E94011580E20E941515802F1833E2
:100C200019F40E94F91402C00E94FD148CE20E9483
:100C3000151584E1193349F40E94F9148D2FDF91C1
:100C4000CF911F910F910C94F9140E94FD148D2FD8
:100C5000DF91CF911F910F910C94FD140F93CF93BF
:100C6000C82F0091D50521E047E0682F80E00E9461
:100C700095100091D5056FEF6C0F23E041E085E002
:100C80000E9471140091D5056EEF6C0F25E041E0D4
:100C900084E00E947114CF910F9108958091C8044F
:100CA000882349F02FE789EA93E021508040904063
:100CB000E1F700C000000895CF938091C9048093AC
:100CC000CC041092C90480FD2DC081FF03C0109296
:100CD000CD0406C0811104C08091C804882321F08E
:100CE0008AE08093CB0404C08091CB048823D1F0A8
:100CF000909172018091CF04981739F081E0809330
:100D0000CE04809172018093CF04C091D004C111B0
:100D10000BC08091CE04813041F41092CE040E9429
:100D2000C20503C0C1E001C0C0E08C2FCF9108957F
:100D3000CF93C82F64E088E00E94A71783ED92E06C
:100D40000E9411158091CD05811108C089E393E0BF
:100D50000E9411156C2F81EE92E003C06C2F88EE7B
:100D600092E0CF910C940115AF92BF92CF92EF9287
:100D70000F93CF93DF93EC015B0160E080E00E9472
:100D8000A71780EF92E00E941115C090CD05E12CCD
:100D900002E028E042E060E08EE70E94910E61E010
:100DA00088E00E94A71786E093E00E94111562E098
:100DB00088E00E94A7178BE193E00E9411150E9422
:100DC000C205E2E7F1E043816481858122E00E946F
:100DD000DB058091D5050E94980665E088E00E94B9
:100DE000A71788E293E00E9411158091B4000E9439
:100DF000FD14B501CE010E947705C090CD0520E11C
:100E000042E060E38EE70E94910EC090CD0528E29B
:100E100048E068E080E00E94910EDF91CF910F9151
:100E2000EF90CF90BF90AF900895BF92CF92DF9296
:100E3000EF92FF920F931F93CF93DF9300D000D0D8
:100E4000CDB7DEB78091CD050E94EF17809172017A
:100E50008093CF041092CE041092D0041FEF5AE07A
:100E6000D52E143031F06BE373E081E593E00E94FE
:100E7000B406D092CB041092C9041092CD04123063
:100E800009F494C290F4112309F449C1113009F016
:100E900049C31091750100917601E09077018BE1D3
:100EA0000E942E0642E0F42EE4C1133009F4CDC2B4
:100EB0001F3F09F037C38BE00E942E060E945C069C
:100EC000813009F41FC38091CC0481FFF7CF81E00A
:100ED0008093D0041FEFD092CB041092CD04143035
:100EE00041F01F3F49F48091CD050E94EF1710E0BB
:100EF00004C01092D00406C31F5FF090A80560E004
:100F000080E00E94A71787E693E00E94111501E098
:100F1000602F88E00E94A71788E793E00E941115D0
:100F2000802F0E94FD148FE793E00E941115AE01FF
:100F30004F5F5F4FBE016E5F7F4F8FEF800F0E944C
:100F40007F198A810E94FD148AE30E941515898108
:100F50000E94FD140F5F0530D9F665E088E00E941D
:100F6000A71787E893E00E9411158091A8058F5F6D
:100F70000E94FD14C090CD05E12C02E028E247E07C
:100F800068E080E00E94910E6BE373E0143019F08A
:100F900081E593E002C08AE993E00E947705812F02
:100FA000880F880F880F855F0E942E06143049F045
:100FB000AE014D5F5F4FBE016C5F7F4F812F0E947E
:100FC0007F1900E0BB24B394B10E0E945C0681300F
:100FD00009F4A0C08091CC0481FF4DC0011119C05B
:100FE000143079F465E084E70E94A71781E08F0D43
:100FF0000E94F91460EB73E0CB010E94960503E3B5
:101000003AC064EB73E089EB93E00E94960504E339
:1010100032C0043339F46DEB73E0CB010E949605C6
:1010200005E329C00333A1F465E084E70E94A71714
:1010300081E08F0D0E94FD146F2D87E090E00E94EB
:101040002B30F092A8056BE373E08AE993E009C0C6
:101050004B816C81812F0E94A4196BE373E081E5C1
:1010600093E00E94770544ED55E06EEC75E08F2D1E
:101070000E947F1900E08091CC0482FD04C0809121
:10108000C804882309F1033371F4F39483E08F15C6
:1010900008F4F12C65E084E70E94A71781E08F0D2A
:1010A0000E94F91411C0043341F48C818F5F8C834A
:1010B0008C81883148F01C8207C0053329F48B816C
:1010C0006CE30E9457058B838091CC04811104C08E
:1010D0008091C8048823D9F01430C9F0EB80CC800B
:1010E0006B2D82E60E94A7178C2D043319F40E9401
:1010F000F91402C00E94FD148AE30E9415158E2D7A
:10110000053319F40E94F91402C00E94FD140E94D4
:101110004E065BCF8091CB048111DDCEF3C183E11C
:101120000E942E06E12CF12C00E011E0BB24B394C8
:101130000E945C06813021F41092D00411E0E5C1D8
:101140008091CC0481FF35C0B092D004113071F48D
:1011500000917401F0907301E090720164EB73E010
:1011600089EB93E00E94960514E323C0143339F40D
:101170006DEB73E0CB010E94960515E31AC01533A1
:1011800039F461EC73E0CB010E94960516E311C0BF
:101190006BE373E081E593E00E94770500937401AF
:1011A000F0927301E09272010E94BE1B1092D00473
:1011B00011E0C090CC04C2FC04C08091C804882314
:1011C000C1F0143331F40F5F083108F4A3C100E01B
:1011D000A1C1153331F46CE38F2D0E945705F82E11
:1011E00018C01633B1F46CE38E2D0E945705E82E1B
:1011F00010C0C11004C08091C804882349F162E086
:1012000080E50E94A717143351F4802F0E94F9142F
:1012100009C0CC2081F362E080E50E94A717802FEF
:101220000E94FD148AE30E9415158F2D153319F4C1
:101230000E94F91402C00E94FD148AE30E94151551
:101240008E2D163319F40E94F91402C00E94FD1469
:101250000E944E066DCF8091CC0481FD0FC080911D
:10126000CC0482FD44C08091C804811140C00E941A
:101270004E060E945C06813071F746C182E0F8128A
:1012800008C065EC73E0CB010E94960537E3F32EAE
:1012900027C087E3F81208C069EC73E0CB010E9415
:1012A000960528E3F22E1CC088E3F81209C06DEC05
:1012B00073E082ED93E00E94960599E3F92E10C049
:1012C0006BE373E081E593E00E947705E09277019C
:1012D00000937601109375010E94BE1B82E0F82EE8
:1012E0002F2D412F602F8E2D0E94DB05B8CF89E373
:1012F000F81211C064E68E2D0E945705E82E90E08A
:101300000E944B1A81114BC0023009F048C01D31B8
:1013100008F445C03FC087E3F8121EC081E0800F8B
:101320008D30B0F5823069F41E3108F01DE18E2D4C
:1013300090E00E944B1A02E0811131C01D3151F141
:101340002EC0843029F0863019F00D7F083021F549
:101350001F3110F11EE120C088E3F81220C01F5F8A
:101360001032E0F4023059F41E31C0F48E2D90E0BA
:101370000E944B1A811113C01D3181F010C0802FC3
:101380008D7F843011F0893051F41F3139F007C05E
:1013900001E005C01CE103C0082F01C011E02F2DA2
:1013A000412F602F8E2D0E94DB0561CF83E20E94CA
:1013B0002E0613E00E945C06813041F46091CD0559
:1013C00086E090E00E942B3013E09FC08091CC0417
:1013D00081FF19C0133061F48091CD050E949806F9
:1013E00066ED73E08CEE93E00E9477051AE30BC084
:1013F0008091D5050E9498066BE373E081E593E048
:101400000E94770513E08091CC0482FD04C0809196
:10141000C8048823B9F01A33A9F48091CD059091BE
:10142000D5059093CD058093D50566ED73E08CEEE0
:1014300093E00E94B40683E20E942E068091CD05BF
:101440000E9498060E944E06B5CF60E070E08AE9DF
:1014500093E00E9477058BE20E942E0614E00E9422
:101460005C06813041F46091B40081E090E00E941C
:101470002B3014E04AC08091CC0481FF15C065E098
:1014800084E70E94A717143041F466ED73E08CEEF8
:1014900093E00E9477051BE307C06BE373E08AE9E2
:1014A00093E00E94770514E08091CC0482FD04C093
:1014B0008091C804882371F01B3361F48091B400DB
:1014C000803118F01092B40005C08091B4008F5F95
:1014D0008093B4008091CC04811104C08091C80431
:1014E000882369F065E084E70E94A7178091B40023
:1014F0001B3319F40E94F91402C00E94FD140E94CB
:101500004E06ADCF10E001C012E08091CB048111F6
:10151000A8CC08C0CC2009F46ECE62E080E50E9421
:10152000A71773CE0F900F900F900F90DF91CF9170
:101530001F910F91FF90EF90DF90CF90BF90089593
:10154000E82FF0E0EA52FB4F677081E090E001C0C5
:10155000880F6A95EAF79081892B808308952091FE
:10156000D4049091D304291789F09091D504E09187
:10157000D104F091D204911105C0EE52FF4FE491D5
:10158000EF7105C0E956FE4FE49101C0E0E0811122
:1015900001C0E0958E2F08959091D504E82FF0E0DA
:1015A00091111DC09FE9980F9A3120F08B3720F4DC
:1015B00080E003C080E201C08AE1B097E81BF10936
:1015C000E457FF4FE4918E2F90E0FC01EE52FF4F65
:1015D000E491E295E695E770E093D304089525E061
:1015E0002093D304B0972E9FC0012F9F900D1124FC
:1015F0000895EF92FF920F931F93CF93DF93C82F1D
:10160000042F0E94A71786EDE82E84E0F82E10E044
:10161000D0E0C65DD4401017A1F0112339F0CE01FF
:101620008E0D9F1D8F739927892B11F40E947717B8
:101630000E947717F70181937F010E94AF171F5F08
:10164000EACFDF91CF911F910F91FF90EF90089516
:101650002F923F924F925F926F927F928F929F92C2
:10166000AF92BF92CF92DF92EF92FF920F931F93B0
:10167000CF93DF93CDB7DEB762970FB6F894DEBF96
:101680000FBECDBFF82E2C87C886B62EB694B69462
:10169000B6946770CA01880F991F9401280F391FEB
:1016A0003F832E83280F391F3B872A8710E08E2D1A
:1016B00090E09E878D87F401E40FF51FF88BEF878C
:1016C000802F90E09C012A523B4F3A8B298B1E15AC
:1016D00008F0BEC0C12ED12C462F50E05D834C8354
:1016E0002D853E852C193D0988E090E0841B950BE3
:1016F0002817390724F45E2D511B598303C088E055
:10170000861B898388E090E0E9818E1B91098824FB
:101710008A94912C02C0959487948A95E2F70C8064
:1017200002C0880C991C0A94E2F78986E83028F4F4
:10173000402F6B2D8F2D0E94F90A6B2D8F2D0E944B
:10174000A71786ED682E84E0782E4A845B842E806D
:101750003F802F8538893B832A838094E989FA89E1
:10176000E615F70509F46FC03885313099F4EA8140
:10177000FB81A11002C0849101C0808190E00C2CFB
:1017800002C0959587950A94E2F7092E000CAA0BE2
:10179000BB0B28C0F885F23089F4F101A11003C019
:1017A0008591949102C0808191810C2C02C0969504
:1017B00087950A94E2F7A0E0B0E014C0F201A1100E
:1017C00005C085919591A591B49104C080819181C6
:1017D000A281B3810C2C04C0B695A79597958795E7
:1017E0000A94D2F70C8404C0B695A795979587956F
:1017F0000A94D2F70C8004C0880F991FAA1FBB1F40
:101800000A94D2F7282FFFA1F11101C02095398148
:10181000383031F0F30180818821F9852F23282B7E
:10182000822F0E94C3172FEF621A720A34E0430E10
:10183000511C4A815B814F5F5F4F5B834A83C101CB
:1018400002961C018BCFB394F9811F0F60E03FCF4C
:1018500062960FB6F894DEBF0FBECDBFDF91CF9179
:101860001F910F91FF90EF90DF90CF90BF90AF90BE
:101870009F908F907F906F905F904F903F902F90B0
:1018800008958F929F92AF92CF92EF920F931F93F2
:101890009091D5059F934801A12CCC24C394E22EAE
:1018A000042F20E040E050E00E94280B0F901F9191
:1018B0000F91EF90CF90AF909F908F9008958F925F
:1018C0009F92AF92CF92EF920F931F939091D50575
:1018D0009F934801AA24A394CC24C394E22E042FFE
:1018E00020E040E050E00E94280B0F901F910F91E4
:1018F000EF90CF90AF909F908F9008958F929F928E
:10190000AF92CF92EF920F931F939091D5059F9333
:101910004801A12C92E0C92EE22E042F20E040E0E5
:1019200050E00E94280B0F901F910F91EF90CF90E5
:10193000AF909F908F9008958F929F92AF92CF9289
:10194000EF920F931F939091D5059F934801AA247E
:10195000A39492E0C92EE22E042F20E040E050E054
:101960000E94280B0F901F910F91EF90CF90AF9096
:101970009F908F9008958F929F92AF92CF92EF9207
:101980000F931F939091D5059F934801A12C93E04D
:10199000C92EE22E042F20E040E050E00E94280BE8
:1019A0000F901F910F91EF90CF90AF909F908F90DD
:1019B00008958F929F92AF92CF92EF920F931F93C1
:1019C0009091D5059F934801AA24A39493E0C92E32
:1019D000E22E042F20E040E050E00E94280B0F9000
:1019E0001F910F91EF90CF90AF909F908F9008959F
:1019F0002F923F924F925F926F927F928F929F921F
:101A0000AF92BF92CF92DF92EF92FF920F931F930C
:101A1000CF93DF9300D01F92CDB7DEB78B83162F05
:101A2000B42EA22E842F880F93E0981B9983862FC3
:101A300090E050E09C01240F351F63E03595279519
:101A40006A95E1F7722E9924939422E0A212912CC8
:101A500020E0E22FF0E0EA5EFA4F10822F5FB2162C
:101A6000C0F7841B950B23E0959587952A95E1F7A0
:101A70008A8330E4832E682C3B81631A532E550CE5
:101A8000432E4A943A81731608F4FFC0EB2C398038
:101A9000C12CDD24DA94212CF12CEF140CF477C046
:101AA000AA2051F083E0A81203C0222029F054C0DC
:101AB0008F2D8170891150C0612F6E0D862F8695F4
:101AC000869586959A81981306C080E48F0D0E94B2
:101AD000A00A81E001C080E0612F6E19962F9695D3
:101AE000969596952A81291305C080E48F0D0E9452
:101AF000A00A02C0813041F48B818F0D8D1508F44E
:101B0000D82EC81608F4C82E612F6F0D862F869523
:101B1000869586953A81381306C080E48E0D0E9422
:101B2000A00A81E001C080E0612F6F19962F969581
:101B3000969596952A81291305C080E48E0D0E9402
:101B4000A00A02C0813041F48B818E0D8D1508F4FE
:101B5000D82EC81608F4C82E37FE08C096E0930D9C
:101B60008F2D880F880F392E380E09C08F2D8E19B2
:101B7000880F880F9AE0930D382E390EEA9432E0E0
:101B8000231611F0239401C0212CF39486CF8FEFFC
:101B9000D81204C09A819F5F9A8374CF41E04C0DA4
:101BA0004D196A818D2D0E94F90A6A818D2D0E943E
:101BB000A717262C2D0C312CEC2CF12CED18F1084C
:101BC000832D820DA32DB0E0EA16FB06A4F0AA52E5
:101BD000BB4F90E0FC01EA52FB4F013021F49C9195
:101BE0008081892B04C0808180959C9189230E94EB
:101BF000C3173394E5CF2B812C19C22EFB80F20E34
:101C0000E52CED183B813E1102C0442D01C04E2D44
:101C10004F1558F081E08F19480F6A818F2D0E946F
:101C2000F90A6A818F2D0E94A717282C2C18312CB5
:101C30008E2D90E09C012F1931097901222D231955
:101C4000832D90E0E816F9060CF4A4CFC22ED12C17
:101C50002034A9F0FC01EA52FB4F013039F49081A5
:101C6000F601EA52FB4F8081892B07C0D601AA52A8
:101C7000BB4F8C918095908189230E94C317F601F8
:101C8000EA52FB4F10823394D9CF0F900F900F90F0
:101C9000DF91CF911F910F91FF90EF90DF90CF9048
:101CA000BF90AF909F908F907F906F905F904F907C
:101CB0003F902F900895FF920F931F93CF93DF9340
:101CC000082FF42E862F8770C1E0D0E001C0CC0F22
:101CD0008A95EAF7162F169516951695612F802F7F
:101CE0000E94A7170E9477170E94771791E0F912B8
:101CF00002C0C82B02C0C095C823C81761F0612F6D
:101D0000802F0E94A7178C2FDF91CF911F910F91E9
:101D1000FF900C94C317DF91CF911F910F91FF900B
:101D200008952F923F924F925F926F927F928F927F
:101D30009F92AF92BF92CF92DF92EF92FF920F935A
:101D40001F93CF93DF93CDB7DEB728970FB6F894E4
:101D5000DEBF0FBECDBF782E642EB22E1E2D562EA6
:101D6000569456945694462F4770D42E011117C09E
:101D7000123039F4842F63E00E94A02F91959F8345
:101D80004AC0133031F4842F6E2D0E94A02F9F8300
:101D900020C1113009F01CC161706F831AC101307C
:101DA00031F5123069F4842F90E0820F911D9195E6
:101DB0008195910963E070E00E94CE2F8F5F0BC088
:101DC000133061F4842F90E0820F911D019763E03E
:101DD00070E00E94CE2F8F8300E01DC0113009F00B
:101DE000F7C081E0820F840F81708F83F2C0082FCB
:101DF000123029F4862F90E0841B910907C013301C
:101E000009F0E9C0842F90E0861B910963E070E03F
:101E10000E94CE2F8F835F8157FF02C05D5F5F837B
:101E2000F12C1886E12CA12C8B2D90E09B838A83CA
:101E30009EEF910F9C83E02F002E000CFF0BFE8382
:101E4000ED83AB1408F0D0C08A2C912CD11008C0BF
:101E50008A819B8188199909089714F0143041F4FC
:101E6000462D652D872D0E94F90AF1E0F98301C006
:101E70001982652D872D0E94A7172D2D30E04A81EC
:101E80005B814819590988E090E0821B930B481741
:101E900059071CF42B2C2A1803C098E0292E2D1862
:101EA0004C81423068F48D819E815F81850F911D48
:101EB00057FD9A9563E070E00E94CE2FF82E08C07F
:101EC000113031F48F81802780FD1BC08AEA88871A
:101ED00088E090E082199109EFEFF0E002C0F595FB
:101EE000E7958A95E2F7CF0101C0880F2A95EAF7B6
:101EF000482ED82ED09486ED882E84E0982E312C52
:101F00001DC0F5E5F887E4CF9E2D90959887CC20ED
:101F100009F444C0F8E02F1609F447C0ED20888585
:101F20008421E82A8E2D0E94C31742E0F41609F49A
:101F30003EC0F39433945FEF851A950A361409F482
:101F400038C04981413011F4F401E080112309F4D3
:101F500044C0153009F444C0113049F4F1E0CF1603
:101F600011F031103EC04885409548873AC0123084
:101F700049F4EF2D0F2C000CFF0BE757FF4F549146
:101F800058872FC0133009F0BFCFEF2D0F2C000C56
:101F9000FF0BEA57FF4F8491888723C0143009F460
:101FA000B9CFE885E095E887B5CFE884BBCFF12CC1
:101FB000C1CF5394123021F48F818E5F8F8305C07F
:101FC000133019F49F819F5F9F83A20CD12C39CFCE
:101FD0001F8200E025CF1F8223CFEFEFE88701C0EB
:101FE0001886C11097CFDDCF28960FB6F894DEBFC4
:101FF0000FBECDBFDF91CF911F910F91FF90EF905A
:10200000DF90CF90BF90AF909F908F907F906F9018
:102010005F904F903F902F9008958F929F92AF9234
:10202000BF92CF92DF92EF92FF920F931F93CF93C5
:10203000DF93D82EB62EA22E902ED42F842F880F69
:1020400013E0181BF12C88248394C0E0DC170CF4F7
:102050005FC0CD1719F117FD49C081E0881201C09A
:10206000FF0C2D2F220F2F5FC92CEA2C02E041E03C
:102070004F0D6B2D6D1B8D2D8C1B0E94910ECC2353
:10208000E1F12C2F220F2F5F41E06B2D6C1B8D2F68
:102090008D0D0E94910E811017C006C0CC2321F136
:1020A00017FD24C0811011C02D2F220F2F5FC92CC6
:1020B000EA2C02E041E04F0D6B2D6D1B8C2F8D0D36
:1020C0008F190E94910ECD13F12C2C2F220F2F5F10
:1020D00041E04F0DC92CEA2C02E06B2D6C1B8D2DBD
:1020E0008D1B0E94910E09C017FF07C01A5F8C2F2D
:1020F000880F880F180FF39409C08C2F8D1B880F41
:10210000880F165F180FD150F12C812CCF5F9ECF16
:10211000DF91CF911F910F91FF90EF90DF90CF90C3
:10212000BF90AF909F908F900895CF92EF920F93B2
:10213000C02EE12C02E00E94910E0F91EF90CF9003
:1021400008951F93CF93DF938093D504EB0110E0A4
:102150008991882339F00E94CC0A8091D3048F5F43
:10216000180FF6CF812FDF91CF911F9108952F92F5
:102170003F924F925F926F927F928F929F92AF9217
:10218000BF92CF92DF92EF92FF920F931F93CF9364
:10219000DF9300D000D01F92CDB7DEB78C83D62E50
:1021A0000B83F42EF81A3F2D822F861B8D831F146C
:1021B0000CF4C9C0F194982F97FD91959D8391E0FF
:1021C000311101C090E0992E919418164CF091E0D5
:1021D000811101C090E0C92EC19404C09924939448
:1021E000CC24C3946D8066945F2C56948D2C869479
:1021F00086948694022F069506950695081907FD84
:1022000001950F5F8D81F81618F0FA82198204C0CB
:102210009D819A8381E08983842F9C81491708F4EA
:10222000892F9C81941708F4492F841738F0E42FE4
:10223000F0E0EA52FB4F10824F5FF7CF212C712C58
:1022400010E0822D90E0801791070CF086C06D2D74
:102250008C810E94A00A3C80E32C8A81781650F57C
:10226000498141110AC08D81580E5F1410F05F182A
:10227000DC0C9C81990D9C8309C06F0C4D81641608
:1022800020F0641A8C81890D8C83DC0C8D2D869551
:102290008695869588120EC09C819E1508F4E92EBD
:1022A0004C81341608F4342E6D2D8C810E94A00AC6
:1022B0007394D3CF682D8E2D0E94A717BE2C442473
:1022C0004A943B1420F1BE1419F08B2D8F7311F436
:1022D0000E9477170E9477172B2D30E09B81F90120
:1022E000EA52FB4F913019F49081982B03C09081F2
:1022F000909598234FEF441202C098134B2CF9018C
:10230000EA52FB4F90830E94AF17B394DACF47FC99
:1023100014C0682D842D0E94A7170FC0AE2CB12CBD
:10232000E41430F0F501EA52FB4F80810E94C3179C
:10233000F501EA52FB4F1082E3943E1478F78C0CBF
:10234000739423947ECF9D8119160CF447CF9D8101
:1023500091959D83992493943ACF0F900F900F906D
:102360000F900F90DF91CF911F910F91FF90EF9001
:10237000DF90CF90BF90AF909F908F907F906F90A5
:102380005F904F903F902F9008952F923F924F92E1
:102390005F926F927F928F929F92AF92BF92CF92F5
:1023A000DF92EF92FF920F931F93CF93DF93CDB7FE
:1023B000DEB72F970FB6F894DEBF0FBECDBF8E836A
:1023C0004B832B873C87962E9694969496946770B1
:1023D0006983B901842F0E94A110809F502C112481
:1023E0002B81222311F087E001C085E08E9D402CD7
:1023F0001124B12C812CF12CA12C10E01D82D12CA8
:10240000842D90E09A878987D41408F0D6C06D2C6B
:10241000712CF981EF2FF0E0F887EF8329812111EA
:1024200006C089859A85861997090897C4F4452DB1
:10243000692D8E810E94F90A89859A8586199709E6
:10244000EF81F8858E0F9F1F09972CF0F8E0298106
:10245000F21BFF8706C0342D3D193F8702C088E07C
:102460008F87692D8E810E94A71788E090E0EF8505
:102470008E1B91092FEF30E002C0359527958A9584
:10248000E2F7098001C0220F0A94EAF72C8331E0B9
:10249000098001C0330F0A94EAF73D878B85898351
:1024A0009C859A836F2C7A2C212C312C1E862B82B2
:1024B000251408F07BC09091D4048091D30489172F
:1024C00018F0EB81E1112AC01092D404E981FA815D
:1024D0008191FA83E9830E94CC0A9093D20480937D
:1024E000D104FE85F01719F02B8121111AC08C2D13
:1024F0000E94AF0A8D838091D4048F5F8093D404AF
:102500008091D1049091D20401969093D20480934B
:10251000D1043F85383079F01E8606C0EE85E0177D
:1025200031F38F85883021F0F101EA52FB4F1081A1
:102530009E8591112BC0ED818E2F90E0F1E00F2C44
:1025400002C0959587950A94E2F7EF120BC00F80B1
:1025500001C0880F0A94EAF7B82E6F846F0C8C8044
:102560007A2C13C02D856F2C7A2C9F85B12C992342
:1025700059F080FDB22A7394E71003C086956394E6
:10258000712C220F9150F3CF8C801E86882D809560
:102590001823882D8B21182B812F0E94C3172E857D
:1025A0002F5F2E873FEF231A330A81CF93949F85A5
:1025B000D90E1982F62CA72C27CF852D2F960FB672
:1025C000F894DEBF0FBECDBFDF91CF911F910F9169
:1025D000FF90EF90DF90CF90BF90AF909F908F9043
:1025E0007F906F905F904F903F902F900895CF9283
:1025F000EF920F93C02EEE24E39401E00E94C511E8
:102600000F91EF90CF9008952F923F924F925F924B
:102610006F927F928F929F92AF92BF92CF92DF92F2
:10262000EF92FF920F931F93CF93DF93CDB7DEB757
:1026300063970FB6F894DEBF0FBECDBFD82E4A8386
:1026400029831801EB86562E56945694569467703B
:10265000962EB801842F0E94A1108C9D602C11240D
:102660002A81222311F087E001C085E03B85839F0A
:10267000402C11244981423041F481508987D39400
:10268000D4181A8651E05E8305C087E08A871986D0
:102690009FEF9E831D821B8200E01B8AE62DF0E0E7
:1026A000F887EF833B89361508F001C1F981F230D4
:1026B00019F491100EC006C02981213019F437E0B9
:1026C000931207C08F8198854B89841B91090897C5
:1026D0005CF5442D652D8D2D0E94F90A59815230EB
:1026E00061F48F819885EB898E1B9109890D911D6D
:1026F0000997B4F018E0191918C0F981F13081F484
:102700008F8198852B89821B910928E030E0291957
:102710003109820F931F09971CF011E0190D05C0B4
:10272000162D3B89131B01C018E0652D8D2D0E94CD
:10273000A717412F50E088E090E0841B950BEFEF46
:10274000F0E002C0F595E7958A95E2F7CF01992769
:10275000F981F23041F4282F092C01C0220F0A948C
:10276000EAF72A8B0CC0292D30E02F5F3F4F241B46
:10277000350B482F01C0440F2A95EAF74A8B81E0B8
:1027800001C0880F9A94EAF78C87710159855C83A0
:10279000BB80912C9D81892F90E0988B8F87EA894F
:1027A000E095E98B941408F076C0FD81F093D40491
:1027B000F10180810E94CC0A2F853889820F931FF6
:1027C0009093D2048093D1048A2D0E94AF0A41E0F5
:1027D00050E00C8002C0440F551F0A94E2F75E8758
:1027E0004D8771017C84BB801A83812C3A8133230D
:1027F000C1F1282F30E0ED85FE852E233F23232BCA
:1028000009F08728F981F23011F4770C01C0769431
:10281000B394CB1022C08091D4049091D304891733
:1028200049F08F5F8093D4048091D1049091D204B9
:1028300001960BC01092D404F7018181882349F0DE
:10284000FFEFEF1AFF0A0E94CC0A9093D204809304
:10285000D1048A2D0E94AF0AB12C2A8121502A83EB
:10286000C5CF7B84790C4A898422971479F018307B
:1028700029F0E92DF0E0EA52FB4F00815989052348
:102880000829802F0E94C3179394EFCF8C819E81DB
:10289000891B8C8387CFEE815E0EF091D404FD837B
:1028A0002B89210F2B8B17019A84BB82FBCE862D9F
:1028B00063960FB6F894DEBF0FBECDBFDF91CF9108
:1028C0001F910F91FF90EF90DF90CF90BF90AF904E
:1028D0009F908F907F906F905F904F903F902F9040
:1028E0000895AF92BF92CF92DF92EF92FF920F9333
:1028F0001F93CF93DF934423A1F1222391F1D02E94
:10290000122FC42FF62ED82F4330C0F08EEFA82EF2
:10291000A40EBB24B394BD0EC02EE12C02E021E036
:102920004A2D8B2D0E94910E123040F06FEF6F0DEB
:10293000610F21E04A2D8B2D0E94910ECD2CE12CB0
:1029400002E0212F41E06F2D8D2F0E94910EC230A9
:1029500040F08FEF8D0F212F41E06F2D8C0F0E94E3
:10296000910EDF91CF911F910F91FF90EF90DF902B
:10297000CF90BF90AF900895FF920F931F93CF9386
:10298000DF93F62E90E0809725E0289F8001299F15
:10299000100D1124C0E0D0E0F801EC0FFD1FE95646
:1029A000FE4F8491F11001C080950E94C3172196BB
:1029B000C530D10589F7F11002C08FEF01C080E06A
:1029C000DF91CF911F910F91FF900C94C317CF937C
:1029D000DF93C62F6AE00E94A02FD92F6C2F805D55
:1029E0000E94BC146C2F80E38D0FDF91CF910C946B
:1029F000BC146091CD050C94E7146091D5050C943E
:102A0000E7141F93CF93DF93162FEC01899188234E
:102A100021F0612F0E94BC14F9CFDF91CF911F915B
:102A200008956091D5050C9401156091D5050C941D
:102A3000BC14ECEBF0E080818F70806D8083089592
:102A40008091BC0087FFFCCF08958093BB00ECEB26
:102A5000F0E080818F70806880830895ECEBF0E077
:102A600080818F70806C80830895ECEBF0E0808132
:102A70008F70806880830895459A449A1092590512
:102A800010925805109257051092560580E28093D7
:102A9000B800ECEBF0E080818460808310929D05AB
:102AA00080818160808380818064808378940895B0
:102AB000FF920F931F93CF93DF93C82F162FF42EFF
:102AC000052F8091BC008E7F8093BC008091BC005C
:102AD0008F70806A8093BC000E9420158C2F8E7F9F
:102AE0000E9425150E9420158091B900883169F453
:102AF000CF2DD02F112339F089910E9425150E94E6
:102B000020151150F7CFC0E001C0C1E00E94191597
:102B10008091BC0084FFFCCF8091BC0081608093D9
:102B2000BC008C2FDF91CF911F910F91FF900895E2
:102B3000FF920F931F93CF93DF93C82F162FF42E7E
:102B4000052F8091BC008E7F8093BC008091BC00DB
:102B50008F70806A8093BC000E9420158C2F81604A
:102B60000E9425150E9420158091B9008034B1F48F
:102B7000CF2DD02F123048F00E942E150E94201524
:102B80008091BB0089931150F5CF0E9435150E94AA
:102B900020158091BB008883C0E001C0C1E00E9485
:102BA00019158091BC0081608093BC008C2FDF914F
:102BB000CF911F910F91FF9008951F920F920FB622
:102BC0000F9211242F933F934F935F936F937F93B3
:102BD0008F939F93AF93BF93EF93FF938091B9002F
:102BE000887F803609F490C078F5883209F45CC09B
:102BF00090F4803109F456C038F4882309F4E5C014
:102C0000883009F44FC0E9C0883109F44DC08032E2
:102C100009F467C0E2C0803409F48DC058F48033F1
:102C200009F45FC0883309F0D8C08091BC008F7070
:102C30008068CFC0803509F457C0883509F445C095
:102C4000883409F0CAC04DC0883909F474C0A8F4AA
:102C5000883709F459C038F4883609F455C08037EC
:102C600009F452C0BAC0883809F465C0803909F443
:102C700051C0803809F0B1C04DC0803B09F471C02B
:102C800038F4803A09F45AC0883A09F46AC0A5C0F9
:102C9000803C09F495C0883C09F492C0883B09F453
:102CA00071C09BC080E00EC0E0917C0580917B05E7
:102CB000E817B8F481E08E0F80937C05F0E0E358CC
:102CC000FA4F80810E94251588C0E0915A0581E065
:102CD0008E0F80935A058091BB00F0E0E55AFA4FC1
:102CE00080830E94191577C08091BB00E0915A053E
:102CF00091E09E0F90935A05F0E0E55AFA4F8083D9
:102D000090E00E94391C17C085E080939D051092C9
:102D10005A054AC0E0915A0581E08E0F80935A050A
:102D20009091BB00F0E0E55AFA4F9083803218F49E
:102D30000E942E1552C00E9435154FC08091BC00D4
:102D40008F70806C8093BC00E0915805F09159051C
:102D5000309709F440C06BE575E080915A050995FC
:102D60003AC084E080939D05E0915605F0915705A7
:102D7000309731F06DE775E080E2099580937B052F
:102D800010927C05E0917C0581E08E0F80937C059C
:102D9000F0E0E358FA4F80818093BB0090917C056E
:102DA00080917B05981728F48091BC008F70806C0F
:102DB00004C08091BC008F7080688093BC000DC0FF
:102DC0008091BC008F70806C04C08091BC008F70BB
:102DD000806D8093BC0010929D05FF91EF91BF9193
:102DE000AF919F918F917F916F915F914F913F91A3
:102DF0002F910F900FBE0F901F901895F894409848
:102E00005A98882321F0813019F45A9A01C0409AC7
:102E10008BB1806F8BB985B18F6085B92F988AB1DE
:102E20008F708AB984B1807F84B92D9A2C9A000062
:102E3000000089B193B12C9887FF08C00000000002
:102E4000000000002C9A00000000F1CF2D988AB1FC
:102E5000806F8AB984B18F6084B978940895CF93D4
:102E6000C62FF8940E94FE162F982D982C9A8AB19E
:102E7000806F8AB984B18F6084B98BB18F708BB940
:102E80008BB19C2F907F892B8BB985B1807F85B9C1
:102E900085B1CF70C82BC5B900000000000000004C
:102EA00000000000000000002C987894CF91089555
:102EB000682FEEE9F5E0818382958695869583708B
:102EC00080836F7360640C942F17682F6770609312
:102ED000A00580919E05E82FF0E0E256FA4F93811D
:102EE000691721F06383686B0C942F170895F89489
:102EF00080919E050E94FE162F9A8AB18F708AB922
:102F000084B1807F84B92D9A2C9A000000000000C3
:102F10000000000000000000000029B193B12C98CF
:102F20002D987894207F892F8F70822B089560ECE4
:102F300080E00E942F176FE380E00E942F1760EC63
:102F400081E00E942F176FE381E00C942F17CF933D
:102F5000C62F0E9458178C2FCF910C946517809123
:102F60009F058F3718F080E00C9458178F5F80937F
:102F70009F05982F9F7331F40E9458178091A005E8
:102F80000C9465170895CF93C82FF89480919E05EF
:102F90000E94FE162F9A2D982C9A8AB1806F8AB9BA
:102FA00084B18F6084B98BB18F708BB98BB19C2F3A
:102FB000907F892B8BB985B1807F85B985B1CF7022
:102FC000C82BC5B900000000000000000000000090
:102FD000000000002C987894CF910C94AF171F93A9
:102FE000CF93DF9391E0813009F090E0D92FD19514
:102FF000C0E06C2F80E00E94A71710E08D2F0E9488
:10300000C3171F5F1038D1F7CF5FC83091F7DF913A
:10301000CF911F910C9497172F982D982C9840982A
:103020005A98279A259A249A389A529A9BB19F7057
:103030009BB995B1907F95B99AB1906F9AB994B1B7
:103040009F6094B9EEE9F5E09FEF938394830C942D
:10305000EF1780E2809371018091AC058093AD05FC
:1030600081E08093700108951F920F920FB60F9226
:1030700011242F933F934F935F936F937F938F937D
:103080009F93AF93BF93EF93FF938091B2058823F3
:1030900029F08091B20581508093B2058091C604D9
:1030A000882329F08091C60481508093C6048091C2
:1030B000C704882359F08091C70481508093C704C6
:1030C0008091C704811102C00E9491048091A905DA
:1030D000813009F092C08091A4059091A505892BBB
:1030E00009F08BC08091B0059091B105892B09F052
:1030F0007AC09091AD058091AC0530917001981324
:103100001CC03130D1F480917101803219F41092D9
:10311000710103C08E5F809371018091710190E015
:10312000FC01E957FC4F24912093AD05FC01E857C1
:10313000FC4FE491E20FE093AC058091AD05313096
:1031400001F51092700190E0FC01E15CFB4FE4910D
:1031500029E0E29FF0011124F093AF05E093AE0562
:10316000FC01E755FC4F849123E6829FC0011124A6
:1031700063E070E00E94BA2F7093B1056093B005D0
:1031800010C091E0909370011092AF051092AE05BF
:1031900021E330E03093B1052093B0058F5F809339
:1031A000AD058091AE059091AF05892B21F4109269
:1031B0008100439818C01092800089E080938100BC
:1031C00083E080936F002091AE053091AF0540E021
:1031D00050E060E079E08DE390E00E94E22F3093D0
:1031E0008900209388008091B0059091B1050197E6
:1031F0009093B1058093B0050FC08091A605909182
:10320000A705019649F41092810043981092A705F2
:103210001092A6050E942918FF91EF91BF91AF91DE
:103220009F918F917F916F915F914F913F912F91DE
:103230000F900FBE0F901F9018951F920F920FB610
:103240000F9211248F939F9398B188E0892788B9B2
:103250009F918F910F900FBE0F901F9018951F9206
:103260000F920FB60F9211242F933F934F935F93BA
:103270006F937F938F939F93AF93BF93EF93FF933E
:103280000E941D19FF91EF91BF91AF919F918F9176
:103290007F916F915F914F913F912F910F900FBE52
:1032A0000F901F9018951E9B18C08091A305813028
:1032B00029F51092A3051092A5051092A40510926D
:1032C000A7051092A6058091A9058130B9F4109246
:1032D000A9051092810043980FC08091A305811128
:1032E0000DC081E08093A3051092A5051092A4055E
:1032F0001092A7051092A6050C9429180895EF9234
:10330000FF920F931F93CF93DF937B018A01C82F06
:10331000D0E0CC0FDD1FCE0108960E94233068E17B
:103320000E94A02FF7019083CE0109960E942330BE
:103330006CE30E94A02FF8019083DF91CF911F9141
:103340000F91FF90EF9008950F931F93CF93DF930A
:1033500000D0CDB7DEB769834A83082F10E0000F95
:10336000111F6981C80108960E942B306A81C8012B
:1033700009960F900F90DF91CF911F910F910C94B0
:103380002B306AE00E94A02F292F30E1839FC001DB
:103390001124822B0895CF93C62F1092800029E02C
:1033A0002093810023E020936F009C0140E050E0D7
:1033B00060E079E08DE390E00E94E22F3093890095
:1033C00020938800C93140F08FE493EC0197F1F726
:1033D00000C00000C951F6CF109281004398CF91F0
:1033E0000895CF93DF9380E090E00E9423308A35E8
:1033F00069F0C0E0D0E0FE01E958FC4F6491CE01D5
:103400000E942B302196C031D105A9F7DF91CF91D1
:103410000895CF93DF93E82FF0E0242F30E020537E
:10342000384F833018F43C962150310970E06F5FBB
:103430007F4F620F731FEF01CC0FDD1FC60FD71F29
:10344000A9015695479556954795C40FD51FC901B3
:1034500060E971E00E94BA2FC60FD71FC90164E668
:1034600070E00E94BA2F9E01261B370B319646E072
:103470004E9FC0014F9F900D11246AE070E00E94A2
:10348000BA2FC901860F971F67E070E00E94BA2F1C
:10349000DF91CF9108959C0183709927892B39F48E
:1034A000C90164E670E00E94BA2F892B61F4C9015A
:1034B00060E971E00E94BA2F9C0191E0232B09F092
:1034C00090E0892F089581E008951092B60410923B
:1034D000B5048091AA058823E1F38CE38093DE058F
:1034E0001092AA058091AA058823E1F381E08093D8
:1034F000B6040895CF93DF93CDB7DEB729970FB603
:10350000F894DEBF0FBECDBF1986F894AE01475FB9
:103510005F4F61E080ED0E94581581110E94072CD9
:10352000AE014F5F5F4F67E080ED0E949815789481
:103530008111F4CF998197FD5EC08F81282F22954C
:103540002F708F703AE0239F800D112480937701B4
:103550008E8184FB222720F9220F322F330F330F65
:10356000230F8F70820F809376018D81282F2695EF
:10357000269526952670322F330F330F230F8F7029
:10358000820F809375013B81832F82958F70232F4B
:103590002F7036FF0FC035FB332730F98170880F4D
:1035A000482F440F440F840F4CE0349F800D1124AA
:1035B000280F05C083703AE0839F200D11242093CB
:1035C00074018A81282F2695269526952E70322FF4
:1035D000330F330F230F8F70820F80937301892F66
:1035E00082958F709F704AE0849F900D1124909374
:1035F000720180E001C081E029960FB6F894DEBF29
:103600000FBECDBFDF91CF9108951F920F920FB6DD
:103610000F9211242F933F934F935F936F937F9358
:103620008F939F93AF93BF93CF93EF93FF93A895FF
:103630008091AB05813279F41092AB05C091720193
:103640008091B305813059F41092A7051092A60518
:103650001092B30504C08F5F8093AB057DC00E94BC
:1036600053190E947A1A80917201C81761F18091F2
:10367000CB04882329F08091CB0481508093CB0424
:103680008091A9058130F9F48091A4059091A50558
:10369000019711F40E9429188091A4059091A50525
:1036A000009729F001979093A5058093A405809138
:1036B000A6059091A705181619062CF4019790936A
:1036C000A7058093A6058091AA05811112C090914B
:1036D000DE0580917201981761F086E0E2E7F1E083
:1036E000AEEDB5E001900D928A95E1F781E080930F
:1036F000AA058091A305813079F59091A9059111D2
:1037000015C090917201911111C020917301909197
:10371000D40529130BC0209174019091CE05291373
:1037200005C08093A90588E097E012C08091A905A3
:10373000813091F48091A6059091A705892B61F4C1
:103740001092A9051092A5051092A4058FEF9FEF86
:103750009093A7058093A605FF91EF91CF91BF911C
:10376000AF919F918F917F916F915F914F913F9119
:103770002F910F900FBE0F901F901895CF93DF934E
:10378000CDB7DEB728970FB6F894DEBF0FBECDBF1A
:103790001982809172010E94C1198A8380917301FC
:1037A0000E94C1198B83809174010E94C1198C837E
:1037B0001D82809175010E94C1198E8380917601CE
:1037C0000E94C1198F83809177010E94C119888757
:1037D000F894AE014F5F5F4F68E080ED0E9458158E
:1037E000789481110E94072C28960FB6F894DEBFBA
:1037F0000FBECDBFDF91CF9108950E943C150E946E
:103800007A1A81110E94BE1B0E947A1A87E0809367
:10381000B10081E080937000789408959093C50082
:103820008093C40088E18093C1008EE08093C20041
:10383000519A509808959091C00095FFFCCF8093C5
:10384000C60080E090E00895CF93C82F82958F70D6
:103850008A3010F4805D01C0895A0E941B1C8C2F95
:103860008F708A3010F4805D01C0895ACF910C941A
:103870001B1CCF93C82F892F0E94241C8C2FCF9103
:103880000C94241C8091C00087FFFCCF8091C6005F
:1038900008958091C000807808950895089508954E
:1038A00008950895CF92EF920F931F93CF93DF93D4
:1038B00000D01F92CDB7DEB7861304C08091B1044B
:1038C0008823F1F0142F862FBE016F5F7F4F0E9477
:1038D0006F03C090D5050091B805019F102D1124EC
:1038E0008091B605E090B7059E012F5F3F4F41E004
:1038F0006091B50593E1199F800D11240E94C511B7
:103900000F900F900F90DF91CF911F910F91EF903B
:10391000CF900895CF92EF920F93823041F40091AF
:10392000CD0528E340E860E080E00E949510C0905B
:10393000D5059091B8058091B605E090B705092F9F
:1039400021ED32E041E06091B5055DE0959F800D8D
:1039500011240E94C5118091B9058130A1F4C09055
:10396000D5059091B8058091B605E090B705092F6F
:1039700021ED32E041E06091B50550E2959F800D68
:1039800011240E94C5110F91EF90CF9008950F93CD
:10399000CF93DF93CDB7DEB729970FB6F894DEBF8C
:1039A0000FBECDBF40E069E382E00E94C00380917A
:1039B000B604811105C08091B104882309F47DC04B
:1039C0008091B504813029F08091B104813009F0F3
:1039D0004AC00091D5054091B7046091B904809127
:1039E000B8040E94091AE82FF0E0EE0FFF1FE65B13
:1039F000FE4F2081318141E06091B40582E10E9457
:103A0000F7120091D505E091B804F0E0EE0FFF1F2A
:103A1000EA5AFE4F2081318141E06091B4058AE28B
:103A20000E94F7128091B904BE016F5F7F4F0E9420
:103A30006F038CE28B8380E28C8382E38D8380E34F
:103A40008E838091B704BE01695F7F4F0E946F0330
:103A50000091D5059E012F5F3F4F41E06091B40575
:103A600082E40E94F7126091BD048091C00440E09E
:103A70000E94521C6091BE048091C10441E00E94EA
:103A8000521C8091B905813039F46091BF04809156
:103A9000C20442E00E94521C8091B90581110DC000
:103AA0000091D5058091BF0480FF0091CD0526E0EF
:103AB00044E068E18EE30E94951029960FB6F894D1
:103AC000DEBF0FBECDBFDF91CF910F910895109251
:103AD000B90594E09093B60522E02093B505909344
:103AE000B80595E09093B7059CE29093B4050C94CB
:103AF0008A1C91E09093B90590E19093B6059CE003
:103B00009093B50592E09093B8059093B70595E230
:103B10009093B4050C948A1CFC012281203429F472
:103B200023812F3111F422E001C026E0362FFC0161
:103B3000DB018D9181938A2F831B8217D0F3089527
:103B40002F923F924F925F926F927F928F929F92AD
:103B5000AF92BF92CF92DF92EF92FF920F931F939B
:103B6000CF93DF93CDB7DEB72A970FB6F894DEBFB9
:103B70000FBECDBF8D839A871B0129013A01E982CF
:103B8000FA820B831C831A2D082DCA01B9010E94E9
:103B90004F2F4B015C016C2D70E080E090E00E94A3
:103BA000172E6B017C019B01AC01C501B4010E9481
:103BB000E22E0E94DF2D605CF1016083C301B2013F
:103BC0000E94682D9058A70196010E94E22E0E9443
:103BD000DF2D615EF101618329813A814B815C8136
:103BE000C301B2010E94FC2C4B015C010E944F2FCB
:103BF0006E837F8388879987612F70E080E090E0F3
:103C00000E94172E6B017C019B01AC016E817F81AC
:103C1000888599850E94E22E0E94DF2D605CF1016B
:103C20006283C501B4010E94682D9058A7019601D6
:103C30000E94E22E0E94DF2D615EF10163832981E3
:103C40003A814B815C81C301B2010E94FB2C4B0184
:103C50005C010E944F2F9B01AC01C701B6010E947D
:103C6000E22E0E94DF2D605CF1016483C501B40186
:103C70000E94682D9058A70196010E94E22E0E9492
:103C8000DF2D615EF10165839D81A92FBA858A2FA1
:103C9000891B801730F42D9181912817C1F381E0A1
:103CA00001C080E02A960FB6F894DEBF0FBECDBFEC
:103CB000DF91CF911F910F91FF90EF90DF90CF9008
:103CC000BF90AF909F908F907F906F905F904F903C
:103CD0003F902F9008950F931F93CF93DF93EC01A4
:103CE000162F062F2B814A81698188810E94B71087
:103CF0008A81803419F48B818F3169F0012F2D81F5
:103D00004C81698188810E94B7102D814C816B8123
:103D10008A810E94B710DF91CF911F910F91089572
:103D2000CF92DF92EF92FF920F931F93CF93DF9387
:103D3000813009F072C00091D50520E04EE16FE1BD
:103D400080E40E94F80C4091D5056FE180E40E9468
:103D50005B0EC0E003E06C2F0C2E000C770B880B81
:103D6000990B0E94172E22E93AE046E05FE30E9499
:103D7000E22E6B017C010E944F2F2DEC3CEC40EEBB
:103D800051E40E94E22E0E94DF2D162FC701B601DA
:103D90000E94682D90582DEC3CEC40EE51E40E94BE
:103DA000E22E0E94DF2DD62F4091D5056FE16D0FD9
:103DB00080E4810F0E945B0E8C2F602F0E94AC2F3D
:103DC000911115C0C11102C0D15009C0C33011F406
:103DD0001F5F05C0C63011F4DF5F01C01150409174
:103DE000D5056FE16D0F80E4810F0E945B0ECF5F00
:103DF000CC3009F0B0CFE6ECF5E0C0ECD5E0AAEBB2
:103E0000B5E02CEC35E088E2819389938D932E17F1
:103E10003F07D1F71092CF0518C08091D3058111CB
:103E200014C06091CD0586EC95E00E946B1E409118
:103E3000D5056FE180E4DF91CF911F910F91FF9045
:103E4000EF90DF90CF900C945B0EDF91CF911F919C
:103E50000F91FF90EF90DF90CF9008954F925F9277
:103E60006F927F928F929F92AF92BF92CF92DF928A
:103E7000EF92FF920F931F93CF93DF93CDB7DEB7EF
:103E800066970FB6F894DEBF0FBECDBF8091B40425
:103E9000813009F0A8C08091D005813009F099C027
:103EA0006091D40570E080E090E00E94152E20E53E
:103EB00037E746ED5DE30E94E22E6B017C010E9434
:103EC0004F2F2B013C01C701B6010E94682D6B8B5F
:103ED0007C8B8D8B9E8B8091CE051091D4056CE0F0
:103EE0000E94A02F692F70E080E090E00E94172EC2
:103EF00022E93AE046E05FE30E94E22E6B017C019A
:103F0000612F70E080E090E00E94152E25E33AEFEB
:103F10004EE05CE30E94E22E9B01AC01C701B601BA
:103F20000E94FC2C6B017C010E944F2F4B015C0115
:103F3000C701B6010E94682D6B017C010091D50577
:103F400020E047E066E386E70E94F80C0091D50583
:103F50006B897C898D899E89905820E030E040EE05
:103F600050E40E94E22E0E94DF2D16E3160F20E09F
:103F700030E040EE50E4C301B2010E94E22E0E9404
:103F8000DF2D46E7460F212F66E386E70E94B71034
:103F90000091D505C701B601905820E030E040EA15
:103FA00050E40E94E22E0E94DF2D16E3160F20E05F
:103FB00030E040EA50E4C501B4010E94E22E0E94C4
:103FC000DF2D46E7460F212F66E386E70E94B710F4
:103FD0000AC00091CD0521E141E16EE28EE60E942A
:103FE00095101092CF058091B304813031F4809107
:103FF000B20483FB882780F901C080E09091CF054F
:10400000981769F08093CF05C090CD0524E0E22E8B
:1040100002E021E141E16EE28EE60E94910E809184
:10402000B604813021F08091B104813019F41092EE
:10403000DB0505C08091DB058F5F8093DB0542E0E7
:1040400069E382E00E94C0038091D3058130D1F5FD
:104050006091BF041091DB0570E080E090E00E9469
:10406000152E20E537E746ED5DE30E94E22E6B0159
:104070007C01612F70E080E090E00E94172E28E91B
:104080003EE24EEF5BE30E94E22E9B01AC01C701D2
:10409000B6010E94FC2C9B01AC0116E0812E07E1C9
:1040A000A02E8BE1C82E1DECE12E1CECF12E0CECA9
:1040B0001DE3BE01635F7F4F86EC95E00E94A01D6B
:1040C000B82E01C0B12C8091B604813029F08091C6
:1040D000B104813009F085C06091BE041091BF0425
:1040E00070E080E090E00E94152E20E537E746ED75
:1040F0005DE30E94E22E6B017C01612F70E080E0A5
:1041000090E00E94152E29E833EC44EE5AE30E9419
:10411000E22E9B01AC01C701B6010E94FC2C9B0161
:10412000AC01E2E08E2EF8E0AF2EABE1CA2E1CE728
:10413000E12E19EDF12E00E210E4BE01695F7F4F20
:1041400080EC95E00E94A01DD82E81E0D81659F091
:104150009091C0048091BD04981305C08091B10472
:10416000813009F041C08091BD041091BE046CE023
:104170000E94A02F692F70E080E090E00E94172E2F
:1041800022E93AE046E05FE30E94E22E2B013C0187
:10419000612F70E080E090E00E94152E25E33AEF59
:1041A0004EE05CE30E94E22E9B01AC01C301B20130
:1041B0000E94FC2C9B01AC0186E0882E95E0A92E84
:1041C00064E1C62E1CE7E12E19EDF12E00E210E4A9
:1041D000BE016F5F7F4F8AEB95E00E94A01D182FF4
:1041E00004C010E0D12C01C010E08091D3058130D3
:1041F000C9F4B81621F08091B104813099F460912E
:10420000CD0586EC95E00E946B1EBE01635F7F4F7B
:1042100086EC95E00E948C1D6091D50586EC95E0BA
:104220000E946B1E81E0D81621F08091B10481308C
:10423000E1F46091CD0580EC95E00E946B1EBE011B
:10424000695F7F4F80EC95E00E948C1D6091D505E1
:1042500080EC95E00E946B1E8091D305813071F453
:104260006091D50586EC95E007C081E0B81206C0E4
:104270006091D50580EC95E00E946B1E113021F015
:104280008091B104813011F56091CD058AEB95E004
:104290000E946B1EBE016F5F7F4F8AEB95E00E940C
:1042A0008C1D6091D5058AEB95E00E946B1E809174
:1042B000D305813031F46091D50586EC95E00E94FC
:1042C0006B1E6091D50580EC95E009C081E0B816C1
:1042D00011F0D81206C06091D5058AEB95E00E94D6
:1042E0006B1E66960FB6F894DEBF0FBECDBFDF9192
:1042F000CF911F910F91FF90EF90DF90CF90BF90E3
:10430000AF909F908F907F906F905F904F900895A7
:104310001092D3050C94901E91E09093D3050C94C9
:10432000901EAF92BF92CF92DF92EF92FF920F93C7
:104330001F93CF93DF93D82E862F91E03AE0632F1F
:10434000A91218C00E94A02F182F842F0E94A02FFE
:10435000F82E822F0E94A02FB82E802F0E94A02F0F
:10436000A82E8E2D0E94A02FE82E8C2D0E94A02F0B
:10437000C82E17C00E94A02F192F842F0E94A02F93
:10438000F92E822F0E94A02FB92E802F0E94A02FDD
:10439000A92E8E2D0E94A02FE92E8C2D0E94A02FD9
:1043A000C92E1A1108C0FE1006C0BC1004C08091AE
:1043B000B1048823C9F1DDE0C0E091E01C1390E076
:1043C000FC1201C09260BC1201C0946081E0AC128A
:1043D00080E0EC1201C08260CC1201C084609813AE
:1043E00006C09091B1049130D9F48823C9F0E82F28
:1043F000F0E0EB52FB4F2491843018F40091D50586
:1044000002C00091CD0545E06D2D8D2F0E940D104D
:104410000091D50520E045E06D2D8D2F0E94F80C10
:10442000CF5FD45FCA3049F6DF91CF911F910F91D2
:10443000FF90EF90DF90CF90BF90AF900895EF92F4
:10444000FF920F93CF93DF938091DB0581117DC0A5
:104450008EE28093CF0581E08093DB058091CD05CE
:104460000E94EF170091D50522E034E040E061E0C2
:1044700081E00E94F71225EDE22E24E0F22ECEE03C
:10448000D0E0D33019F40091CD0502C00091D505DC
:10449000F701249145E06C2F8EE00E940D100091F1
:1044A000D50520E045E06C2F8EE00E94F80CD1117C
:1044B00003C00091D50502C00091CD05F7013496E7
:1044C000249145E06C2F86E40E940D100091D505E3
:1044D00020E045E06C2F86E40E94F80CDF5FFFEFE0
:1044E000EF1AFF0AC25FD43061F60091D50520E1D2
:1044F00034E040E06CE089E10E94F7129EE2E92E90
:1045000092E0F92EC6E10091D505F7012191319194
:104510007F0140E06C2F89E10E94F712C95FC0342F
:1045200091F78EE1E82E82E0F82EC8E00091D505E3
:10453000F701219131917F0140E06C2F81E50E94CC
:10454000F712C95FC03491F702C01092DB05DF910A
:10455000CF910F91FF90EF900895AF92CF92EF928D
:104560000F93CF93DF9300D01F92CDB7DEB780912A
:10457000CF05813021F48091B604813041F08091E3
:10458000CF05882359F08091DB05811107C081E0B8
:104590000E94BC0283E00E94BC0270C08091DB05D7
:1045A0008130E1F48091B604813009F067C08091D8
:1045B000CF0581508093CF058091CF05BE016F5FFD
:1045C0007F4F0E946F030091D5059E012F5F3F4FE3
:1045D00040E061E088E70E94F71250C040E06AE3E3
:1045E00081E00E94C0038091B604811105C08091D2
:1045F000B104882309F442C0C090BD04E090BE0419
:104600000091BF042091C0044091C1046091C20494
:10461000AA24A3948DE00E949121C090BD04E09053
:10462000BE040091BF042091C0044091C104609178
:10463000C204A12C89E10E949121C090B704E090AE
:10464000B8040091B9042091BA044091BB04609170
:10465000BC04AA24A39485E20E949121C090B704CF
:10466000E090B8040091B9042091BA044091BB04D1
:104670006091BC04A12C81E30E9491210F900F90C6
:104680000F90DF91CF910F91EF90CF90AF90089561
:10469000AF92CF92EF92FF920F931F93CF93DF933E
:1046A00000D0CDB7DEB780E389831A8210E0009195
:1046B000D505145F9E012F5F3F4F40E061E0812FE1
:1046C0000E94F71289818F5F8983183781F7A09044
:1046D000D505CC24C394EE24E39409E514E021E04D
:1046E00040E06AE181E00E940413A090D50502E653
:1046F00014E021E040E061E381E00E94041310E057
:10470000F12C8DE0E82EE10EF11002C01D3348F4CB
:104710000091D50520E045E06DE06F0D8E2D0E94E3
:10472000F80C8CE0F80E80E3F812EECF145F183727
:1047300039F71092CF051092DB050F900F90DF91A3
:10474000CF911F910F91FF90EF90CF90AF90089570
:10475000CF92DF92EF92FF920F931F93CF93DF934D
:10476000C82FD42F122F70E080E090E00E94152E09
:104770009B01AC0160E070E080E891E40E946D2D47
:104780006B017C01612F70E080E090E00E94172EA9
:10479000A70196010E94E22E20E030E040E05FE3B6
:1047A0000E94FC2C0E94E62D162F6D2F70E080E0F9
:1047B00090E00E94172EA70196010E94E22E20E0B1
:1047C00030E040E05FE30E94FC2C0E94E62D611384
:1047D00004C08091B104813091F40091CD05C85F8F
:1047E00023E044E16C2F89E60E9471140091D50505
:1047F00023E042E06C2F8AE6810F0E949510DF9142
:10480000CF911F910F91FF90EF90DF90CF9008957F
:104810000F931F93CF93DF938091B504813029F0DC
:104820008091B104813009F051C0C8E7D1E081E046
:104830009091B9042981291305C09091B8042A8167
:10484000291721F027968F5F843091F79091CC053E
:104850009817E1F18093CC0588818823C9F06B819A
:104860007C8180E00E94A110182F6D817E816115EE
:10487000710521F080E00E94A110180F81E890E0FE
:10488000811B910997FD019695958795182F01C079
:1048900012E00091CD0527E040E860E080E00E9452
:1048A00095100091D5052B813C8140E061E0812F7E
:1048B0000E94F712810F2D813E812115310531F0C3
:1048C0000091D50540E061E00E94F712DF91CF91A1
:1048D0001F910F9108950F93CF93DF93C82F8D7F72
:1048E000843129F0CA3019F0CD3091F535C00091EE
:1048F000D50522E241E067E188E00E949510009131
:10490000D50521E043E568E389E00E949510D8E1F0
:104910004091D5056D2F87E00E945B0EDB5FDB3396
:10492000B9F7C43181F44091D50569E385E20E946D
:104930005B0E4091D50569E380E40E945B0ECAE3FB
:10494000D0E188E412C0CA3049F0C63139F0CCCF8A
:10495000C83141F0C6E307C0CAE305C0CAE3DDE0E1
:104960008BE403C0CBE3DAE08EE40091D50521E1CE
:1049700032E040E06C2F0E94F7120091D50525E14E
:1049800032E040E06C2F8CE20E94F7120091D505D6
:1049900029E132E040E06C2F8D2F0E94F712DF9169
:1049A000CF910F9108959F92AF92BF92CF92DF92D5
:1049B000EF92FF920F931F93CF93DF9300D01F923C
:1049C000CDB7DEB7421305C09091B104992309F425
:1049D00098C0B02EA22ED62EF82E642F70E080E064
:1049E00090E00E94172E28E339EA4BEF5EE30E9425
:1049F000E22E20E030E040E05FE30E94FC2C0E94C9
:104A0000E62D962E6A2D70E080E090E00E94172E31
:104A100028E339EA4BEF5EE30E94E22E20E030E02B
:104A200040E05FE30E94FC2C0E94E62D162F9612B8
:104A300004C08091B104813031F521E0210F85E07F
:104A4000E81218C00091D50566E3611B4D2D8F2D2E
:104A50000E9471141230B8F0C090D50567E3611B55
:104A600095E0E92E00E02FEF210F4EEF4D0D81E094
:104A70008F0D07C0C090D50566E3611B01E04D2D89
:104A80008F2D0E94910EBE016F5F7F4F8A2D0E9475
:104A90006F030091D5058EE2A82EEA2CE11A9E0143
:104AA0002F5F3F4F41E06E2D8F2D8B0D0E94F7122F
:104AB0000091CD0565E3611B21E04D2D8F2D0E94F6
:104AC00095100091CD0527E04B2D6E2D8F2D0E9466
:104AD00095100091CD054FEF4B0D81E08D0D8F0DA1
:104AE00027E06E2D8B190E949510191550F4009136
:104AF000CD05292D211B6A2D69194D2D8F2D0E9461
:104B000095100F900F900F90DF91CF911F910F9103
:104B1000FF90EF90DF90CF90BF90AF909F9008955F
:104B20000F93CF93DF93EC01623001F50091CD0537
:104B300020E344E660E180E00E9495100091D505F5
:104B40009E0140E069E082E00E94F712282F30E0E9
:104B5000213331050CF061C00091CD0541E3481BC4
:104B600025E069E08E5F0E94951057C00091D50541
:104B700021E040E867E080E00E9495100091D505B3
:104B800021E040E86FE080E00E9495100091D5059B
:104B900029E341E067E085E60E9495108FEF80935E
:104BA000CC050E9408240091D5059E0140E069E0F3
:104BB00082E00E94F7120091D50527E634E040E03C
:104BC00069E088E60E94F712C2E1D0E029E132E014
:104BD0000091D50540E06C2F89E60E94F712009104
:104BE000D50527E046E166E06C0F88E60E94711467
:104BF0000091D50521E042E169E06C0F8AE60E9450
:104C00009510DF5FC03349F0D13019F021E132E077
:104C100002C025E132E0C15FDBCFDF91CF910F9180
:104C2000089541E069E083E30E94C0038091B604E7
:104C3000811104C08091B1048823C9F10E94082425
:104C40009091BF048091C204981304C08091B10474
:104C5000813041F42091BF044091C2046BE380E3B2
:104C60000E94A8239091BE048091C104981304C0AF
:104C70008091B104813041F42091BE044091C1047F
:104C80006BE381E20E94A8239091BD048091C0044F
:104C9000981304C08091B104813041F42091BD0487
:104CA0004091C00467E182E10E94A82381E0089559
:104CB0002F923F924F925F926F927F928F929F922C
:104CC000AF92BF92CF92DF92EF92FF920F931F931A
:104CD000CF93DF9300D000D000D0CDB7DEB7641300
:104CE00007C0201305C09091B104992309F44BC16A
:104CF000902E122F842EB82E70E080E090E00E945B
:104D0000172E28E339EA4BEF5EE30E94E22E20E003
:104D100030E040E05FE30E94FC2C0E94E62D562E1E
:104D2000682D70E080E090E00E94172E28E339EAB9
:104D30004BEF5EE30E94E22E20E030E040E05FE3D4
:104D40000E94FC2C0E94E62DA62E612F70E080E0D0
:104D500090E00E94172E28E339EA4BEF5EE30E94B1
:104D6000E22E20E030E040E05FE30E94FC2C0E9455
:104D7000E62D362E602F70E080E090E00E94172E26
:104D800028E339EA4BEF5EE30E94E22E20E030E0B8
:104D900040E05FE30E94FC2C0E94E62D462E531457
:104DA00030F4F32CF51826E3D22ED31805C0F52CD9
:104DB000F31826E3D22ED518F11002C0FF24F39485
:104DC000A41428F4242C2A1816E3141904C02A2C3D
:104DD000241816E31A19211002C0222423945A1011
:104DE00006C0341004C08091B104813081F498145D
:104DF00018F001E082E002C000E083E0C090D50539
:104E0000E82E222D4DE0612F8B2D0E94910E092D51
:104E1000081907FF05C08DE28983019521E001C0D3
:104E200020E00A306CF0E1E0F0E0EC0FFD1FE20F53
:104E3000F11D802F6AE00E94AC2F805D80832F5F80
:104E4000E1E0F0E0EC0FFD1FE20FF11D802F6AE0C2
:104E50000E94AC2F905D90832F5FE1E0F0E0EC0FBB
:104E6000FD1FE20FF11D1082220F220F99249A9448
:104E7000920E0091D5058DE0882E891886946B2CB2
:104E8000680C9E012F5F3F4F40E05AEF752E710E68
:104E9000672D862D0E94F7120091CD0526E0482D42
:104EA000672D8B2D0E9495100091CD0526E0482D91
:104EB000672D892D860D0E9495105A1003C0341459
:104EC00009F461C00091CD0521E04DE06FEF610F65
:104ED0008B2D0E9495108D2C912C8F2D90E09E8310
:104EE0008D83612E712CD116C8F49301265031099F
:104EF000880D991D8217930724F426E02F0D71F079
:104F000002C0212F2D19C090D50535E0E32E02E017
:104F10004DE06AEF6D0D8B2D0E94910E53100FC066
:104F2000A41468F45A100BC0C090D50595E0E92E82
:104F300002E021E04DE06D2D8B2D0E94910E620C60
:104F4000711C8D819E81880D991D68167906DCF48F
:104F500095E0891A91086814790434F0622D610F84
:104F6000FD0C2F2D261B04C026E02F0D6AEF6D0DC2
:104F7000222349F0C090D50585E0E82E02E04DE0FF
:104F80008B2D0E94910E26960FB6F894DEBF0FBEB1
:104F9000CDBFDF91CF911F910F91FF90EF90DF90E8
:104FA000CF90BF90AF909F908F907F906F905F90C9
:104FB0004F903F902F900895EF920F930E941126EB
:104FC000882399F12091BF044091C20485E0E82E26
:104FD00002E06FE089E40E94D3240091BF04209195
:104FE000C2044091BE046091C1048BE30E94582624
:104FF0002091BE044091C10402E06FE08BE20E9468
:10500000D3240091BE042091C1044091BD0460915D
:10501000C0048DE10E9458262091BD044091C00437
:1050200002E06FE08DE00E94D3240F91EF9008958D
:10503000682F82E894E00E9490258AE00C946B240B
:105040008F929F92AF92BF92CF92DF92EF92FF9298
:10505000CF93DF93D82F70E080E090E00E94172E6E
:105060002BED3FE049E45FE30E94E22E24EE3BECAF
:1050700046E150E40E94FB2C4B015C010E944F2F43
:105080006B017C01C501B4010E94682DB090D5056B
:10509000905826E636E646E551E40E94E22E0E944C
:1050A000DF2DC4E2C60F26E636E646E551E4C70129
:1050B000B6010E94E22E0E94DF2D862F4B2D6C2F11
:1050C0008D0FDF91CF91FF90EF90DF90CF90BF9049
:1050D000AF909F908F900C945B0E4F925F926F9267
:1050E0007F92AF92BF92CF92DF92EF92FF920F9397
:1050F0001F93CF93DF9300D01F92CDB7DEB7641319
:1051000005C09091B104992309F493C0F42EE62EC2
:10511000182F70E080E090E00E94172E2CE739ED08
:1051200040EA5DE30E94E22E24EE3BEC46E150E4CF
:105130000E94FB2C2B013C010E944F2F26E636E6F5
:1051400046E551E40E94E22E0E94DF2DB62EC301F7
:10515000B2010E94682D905826E636E646E551E4F5
:105160000E94E22E0E94DF2DA62E6F2D70E080E0BF
:1051700090E00E94172E2CE739ED40EA5DE30E9493
:10518000E22E24EE3BEC46E150E40E94FB2C2B0186
:105190003C010E944F2F26E636E646E551E40E9488
:1051A000E22E0E94DF2DD62EC301B2010E94682D8F
:1051B000905826E636E646E551E40E94E22E0E942B
:1051C000DF2DC62EBD1006C0A61204C08091B1040A
:1051D0008130F1F40091CD0524E22A0D4B2D410FD1
:1051E00064E2812F0E94B7100091D50524E22C0DB6
:1051F0004D2D410F64E2812F0E94B7108E2D6AE081
:105200000E94A02F911104C0682F812F0E94202896
:10521000BE016F5F7F4F8F2D0E946F030091D505F8
:105220009E012F5F3F4F41E06AE28BEF810F0E94AA
:10523000F7120F900F900F90DF91CF911F910F9168
:10524000FF90EF90DF90CF90BF90AF907F906F90E6
:105250005F904F9008950E9411268823A9F04091F5
:10526000BF046091C20483E50E946D284091BE0492
:105270006091C10482E30E946D284091BD04609159
:10528000C00481E10C946D2808950F93CF93DF93B0
:10529000682F8AE894E00E949025C1E10091D5052D
:1052A00020E04FE064E28C2F0E94F80CD0E06D2FDC
:1052B0008C2F0E942028DF5FD730C9F7CF5DC4371D
:1052C00069F78BE0DF91CF910F910C946B24BF9223
:1052D000CF92DF92EF92FF920F931F93CF93DF93C2
:1052E000F82EE22E70E0042F10E082E0F81217C0D2
:1052F000072E000C880B990B0E94172E20E030E03F
:1053000040E45FE30E94E22E20E030E040E850E419
:105310000E94FC2CB62EC72ED82EC92F1EC0072ED9
:10532000000C880B990B0E94172E2AE939E949E9EC
:105330005EE30E94E22E20E030E040E850E40E946C
:10534000FC2CB62EC72ED82EC92FF11006C00E94F5
:10535000E62DD4E3D60FC7E23DC02FEF3FEF4FEF6E
:105360005EE36B2D7C2D8D2D9C2F0E94E22E0E94E2
:10537000E62DD4E3D61B81E028ED33EB4DE55FE36A
:105380006B2D7C2DF8121EC08D2D9C2F0E94E22EBD
:105390000E94E62DC7E2C60FB801110F880B990BCA
:1053A0000E94172E20E030E040E45FE30E94E22EEE
:1053B00020E030E040E850E40E94FC2CB62EC72EDE
:1053C0008C0135C08D2D9C2F0E94E22E0E94E62D6F
:1053D000C7E2C61BB801110F880B990B0E94172E4C
:1053E0002AE939E949E95EE30E94E22E20E030E053
:1053F00040E850E40E94FC2C562F472F382F292FCD
:10540000B62EC72E082F192F82E0F81210C0652F74
:10541000742F832F922F0E94E62D44E3460F0E2D0A
:1054200027E26C2F8D2F0E94B71024E12FC02FEFA1
:105430003FEF4FEF5EE36B2D7C2DC8010E94E22E03
:105440000E94E62D84E3D82ED61A28ED33EB4DE5E5
:105450005FE36B2D7C2DC801F11006C00E94E22E87
:105460000E94E62D695D07C00E94E22E0E94E62D93
:1054700087E2861B682F0E2D2C2F4D2F8D2D0E941D
:10548000B71081E0F81204C00E2D2AE34AE203C0EF
:105490000E2D2C2F4AE46C2F8D2F0E94B710DF9118
:1054A000CF911F910F91FF90EF90DF90CF90BF9021
:1054B00008950F931F93CF93DF9300D01F92CDB722
:1054C000DEB70E941126882309F4D0C09091BF0452
:1054D0008091C204981304C08091B104813089F492
:1054E0008091BF04BE016F5F7F4F0E946F030091E8
:1054F000D5059E012F5F3F4F41E061E28FE40E949E
:10550000F7129091BE048091C104981304C0809159
:10551000B104813089F48091BE04BE016F5F7F4F7A
:105520000E946F030091D5059E012F5F3F4F41E020
:1055300061E380E10E94F7129091BD048091C00464
:10554000981304C08091B104813089F48091BD0426
:10555000BE016F5F7F4F0E946F030091D5059E01D2
:105560002F5F3F4F41E061E180E10E94F71290918F
:10557000BF048091C204981799F19091BE04809164
:10558000C10498132DC09091BD048091C00498135C
:1055900027C08091B104811123C06091C204109191
:1055A000BF0470E080E090E00E94172E2AE939E9FC
:1055B00049E95EE30E94E22E0E94E62D062F612F4C
:1055C00070E080E090E00E94172E2AE939E949E96D
:1055D0005EE30E94E22E0E94E62D061709F446C003
:1055E0002091CD054091C1046091C20480E00E94E9
:1055F00067292091CD054091C0046091C10481E0EC
:105600000E9467292091CD054091C2046091C00499
:1056100082E00E9467292091D5054091BE046091E7
:10562000BF0480E00E9467292091D5054091BD0408
:105630006091BE0481E00E9467292091D5054091C8
:10564000BF046091BD0482E00E9467290091D505E6
:1056500023E04AE067E284E30E94F80C0091D5055C
:1056600021E040E167E284E30E94F80C0F900F9084
:105670000F90DF91CF911F910F9108950F93682F95
:1056800085E994E00E9490250091D50520E046E14F
:1056900067E284E30E94F80C0091D50521E132E035
:1056A00040E069E28FE40E94F7120091D50525E100
:1056B00032E040E069E38FE00E94F7120091D505E7
:1056C00029E132E040E069E18EE00E94F71240916A
:1056D000D50567E284E30F910C945B0EFF920F9364
:1056E0001F93CF93DF93182F842FF090D5050E943E
:1056F000A02FD82F822F0E94A02FD81304C09091E2
:10570000B1049923B9F1C82F0091D5058CE0D89F39
:10571000D02D1124D75E25E045E06D2F812F0E940A
:105720000D100091D50520E045E06D2F812F0E94DE
:10573000F80CCC2339F0C13039F410FD07C0F090DB
:10574000CD0504C023E003C022E001C021E08CE0CD
:10575000C89FC02D1124C75E0F2D45E06C2F812FEF
:105760000E940D100091D50520E045E06C2F812F9F
:105770000E94F80CDF91CF911F910F91FF90089537
:105780000E9411268823C1F02091BF044091C204D9
:1057900064E183E50E946E2B2091BE044091C10418
:1057A00064E182E30E946E2B2091BD044091C0040D
:1057B00068E081E10C946E2B08950F931F93CF93B3
:1057C000DF93682F81EA94E00E949025C9E0009160
:1057D000D50527E241E162E18C2F0E947114D9E1E5
:1057E00018E01C0F0091D50520E045E06D2F812FBA
:1057F0000E94F80CD45FDD33A9F7CF5DCC3639F7C2
:105800008DE0DF91CF911F910F910C946B247894D0
:1058100064E680EA9FE00E94CB192FEF80E792E0D8
:10582000215080409040E1F700C0000064E680EA2B
:105830009FE00E94CB192FEF89E698E1215080402C
:105840009040E1F700C00000E3CF14BE0FB6F8941B
:10585000A89580916000886180936000109260003C
:105860000FBE8AE190E00E940E1C3B9A8CE380936D
:10587000DE050E94FD1B0E94F11986E090E00E9467
:10588000233081708093CD059091CD0581E09111F9
:1058900080E08093D50587E090E00E9423308370FC
:1058A0008093A8058091A80544ED55E06EEC75E065
:1058B0000E947F190E9497040E94531982E084BDC0
:1058C00083E085BD8DE787BD80916E008260809307
:1058D0006E00539A80E28093B0008091B0008360A4
:1058E0008093B0008091B10088608093B10080E126
:1058F0008093B30081E090E00E94233061E10E9438
:10590000A02F9093B400259A64E680EA9FE00E945D
:10591000CB199FE088E10FB6F894A89580936000BA
:105920000FBE909360008091CD050E940C180E94DC
:1059300057040E94651A81E00E94BC02CBE4D4E0C7
:1059400008E512E080E6E82E89E0F82EC093B20563
:105950008091C9048823B9F08091A905813099F418
:105960009091C90490FF03C08093B30535C0109394
:10597000A5050093A405F092A705E092A605109254
:105980008100439829C08091C90480FF06C00E940D
:1059900015070E94651A81E01DC08091C90481FF2E
:1059A00008C08091C9040E94A702811102C0D0934F
:1059B000C9048091C90482FF0FC0D090B0040E9436
:1059C00057039091B004D91205C08091C9040E9478
:1059D000A70202C00E94BC021092C90483E00E9488
:1059E000BC028091B2058111FCCF8091B2048F5F1F
:1059F0008093B204ABCF5058BB27AA270E94132D27
:105A00000C94942E0E945B2E38F00E94622E20F09F
:105A100039F49F3F19F426F40C94582E0EF4E095B7
:105A2000E7FB0C94522EE92F0E94B92E58F3BA17B7
:105A3000620773078407950720F079F4A6F50C94A4
:105A4000DB2E0EF4E0950B2EBA2FA02D0B01B90121
:105A500090010C01CA01A0011124FF27591B99F0E4
:105A6000593F50F4503E68F11A16F040A22F232FF0
:105A7000342F4427585FF3CF469537952795A79540
:105A8000F0405395C9F77EF41F16BA0B620B730BE7
:105A9000840BBAF09150A1F0FF0FBB1F661F771F58
:105AA000881FC2F70EC0BA0F621F731F841F48F40D
:105AB000879577956795B795F7959E3F08F0B0CF96
:105AC0009395880F08F09927EE0F9795879508957D
:105AD0000E946B2EE3950C94A52E0E94812D0C94B0
